{
  "_format": "hh-sol-artifact-1",
  "contractName": "CrowdFundingCampaign",
  "sourceName": "contracts/CrowdFundingCampaign.sol",
  "abi": [
    {
      "inputs": [
        {
          "internalType": "uint256",
          "name": "_minimunContribution",
          "type": "uint256"
        },
        {
          "internalType": "uint256",
          "name": "_goal",
          "type": "uint256"
        },
        {
          "internalType": "bytes32",
          "name": "_ipfshash",
          "type": "bytes32"
        }
      ],
      "stateMutability": "nonpayable",
      "type": "constructor"
    },
    {
      "anonymous": false,
      "inputs": [
        {
          "indexed": true,
          "internalType": "bytes32",
          "name": "_ipfshash",
          "type": "bytes32"
        }
      ],
      "name": "campaignCreated",
      "type": "event"
    },
    {
      "anonymous": false,
      "inputs": [],
      "name": "changeStatusCampaign",
      "type": "event"
    },
    {
      "anonymous": false,
      "inputs": [
        {
          "indexed": true,
          "internalType": "bytes32",
          "name": "_ipfshash",
          "type": "bytes32"
        }
      ],
      "name": "destructProposalCreated",
      "type": "event"
    },
    {
      "anonymous": false,
      "inputs": [],
      "name": "newContribution",
      "type": "event"
    },
    {
      "anonymous": false,
      "inputs": [
        {
          "indexed": true,
          "internalType": "bytes32",
          "name": "_ipfshash",
          "type": "bytes32"
        }
      ],
      "name": "progressUpdate",
      "type": "event"
    },
    {
      "anonymous": false,
      "inputs": [
        {
          "indexed": true,
          "internalType": "bytes32",
          "name": "_ipfshash",
          "type": "bytes32"
        }
      ],
      "name": "proposalCreated",
      "type": "event"
    },
    {
      "inputs": [
        {
          "internalType": "uint256",
          "name": "_index",
          "type": "uint256"
        }
      ],
      "name": "aproveDestructProposal",
      "outputs": [],
      "stateMutability": "nonpayable",
      "type": "function"
    },
    {
      "inputs": [
        {
          "internalType": "uint256",
          "name": "_index",
          "type": "uint256"
        }
      ],
      "name": "aproveProposal",
      "outputs": [],
      "stateMutability": "nonpayable",
      "type": "function"
    },
    {
      "inputs": [],
      "name": "contribute",
      "outputs": [],
      "stateMutability": "payable",
      "type": "function"
    },
    {
      "inputs": [
        {
          "internalType": "address",
          "name": "",
          "type": "address"
        }
      ],
      "name": "contributions",
      "outputs": [
        {
          "internalType": "uint256",
          "name": "",
          "type": "uint256"
        }
      ],
      "stateMutability": "view",
      "type": "function"
    },
    {
      "inputs": [
        {
          "internalType": "bytes32",
          "name": "_ipfshash",
          "type": "bytes32"
        }
      ],
      "name": "createDestructProposal",
      "outputs": [],
      "stateMutability": "nonpayable",
      "type": "function"
    },
    {
      "inputs": [
        {
          "internalType": "uint256",
          "name": "_value",
          "type": "uint256"
        },
        {
          "internalType": "address",
          "name": "_recipient",
          "type": "address"
        },
        {
          "internalType": "bytes32",
          "name": "_ipfshash",
          "type": "bytes32"
        }
      ],
      "name": "createProposal",
      "outputs": [],
      "stateMutability": "nonpayable",
      "type": "function"
    },
    {
      "inputs": [
        {
          "internalType": "uint256",
          "name": "",
          "type": "uint256"
        }
      ],
      "name": "destructProposals",
      "outputs": [
        {
          "internalType": "uint256",
          "name": "approvalsCount",
          "type": "uint256"
        },
        {
          "internalType": "enum CrowdFundingCampaign.Status",
          "name": "status",
          "type": "uint8"
        }
      ],
      "stateMutability": "view",
      "type": "function"
    },
    {
      "inputs": [],
      "name": "getCampaignInfo",
      "outputs": [
        {
          "internalType": "address",
          "name": "",
          "type": "address"
        },
        {
          "internalType": "enum CrowdFundingCampaign.Status",
          "name": "",
          "type": "uint8"
        },
        {
          "internalType": "uint256",
          "name": "",
          "type": "uint256"
        },
        {
          "internalType": "uint256",
          "name": "",
          "type": "uint256"
        },
        {
          "internalType": "uint256",
          "name": "",
          "type": "uint256"
        }
      ],
      "stateMutability": "view",
      "type": "function"
    },
    {
      "inputs": [],
      "name": "getDestructProposalsCount",
      "outputs": [
        {
          "internalType": "uint256",
          "name": "",
          "type": "uint256"
        }
      ],
      "stateMutability": "view",
      "type": "function"
    },
    {
      "inputs": [
        {
          "internalType": "uint256",
          "name": "_index",
          "type": "uint256"
        }
      ],
      "name": "getDestuctProposal",
      "outputs": [
        {
          "internalType": "uint256",
          "name": "",
          "type": "uint256"
        },
        {
          "internalType": "enum CrowdFundingCampaign.Status",
          "name": "",
          "type": "uint8"
        }
      ],
      "stateMutability": "view",
      "type": "function"
    },
    {
      "inputs": [
        {
          "internalType": "uint256",
          "name": "_index",
          "type": "uint256"
        }
      ],
      "name": "getProposal",
      "outputs": [
        {
          "internalType": "address",
          "name": "",
          "type": "address"
        },
        {
          "internalType": "uint256",
          "name": "",
          "type": "uint256"
        },
        {
          "internalType": "uint256",
          "name": "",
          "type": "uint256"
        },
        {
          "internalType": "enum CrowdFundingCampaign.Status",
          "name": "",
          "type": "uint8"
        }
      ],
      "stateMutability": "view",
      "type": "function"
    },
    {
      "inputs": [],
      "name": "getProposalsCount",
      "outputs": [
        {
          "internalType": "uint256",
          "name": "",
          "type": "uint256"
        }
      ],
      "stateMutability": "view",
      "type": "function"
    },
    {
      "inputs": [],
      "name": "getStatus",
      "outputs": [
        {
          "internalType": "enum CrowdFundingCampaign.Status",
          "name": "",
          "type": "uint8"
        }
      ],
      "stateMutability": "view",
      "type": "function"
    },
    {
      "inputs": [],
      "name": "goal",
      "outputs": [
        {
          "internalType": "uint256",
          "name": "",
          "type": "uint256"
        }
      ],
      "stateMutability": "view",
      "type": "function"
    },
    {
      "inputs": [
        {
          "internalType": "address",
          "name": "_address",
          "type": "address"
        }
      ],
      "name": "isMember",
      "outputs": [
        {
          "internalType": "bool",
          "name": "",
          "type": "bool"
        }
      ],
      "stateMutability": "view",
      "type": "function"
    },
    {
      "inputs": [],
      "name": "membersCount",
      "outputs": [
        {
          "internalType": "uint256",
          "name": "",
          "type": "uint256"
        }
      ],
      "stateMutability": "view",
      "type": "function"
    },
    {
      "inputs": [],
      "name": "minimunContribution",
      "outputs": [
        {
          "internalType": "uint256",
          "name": "",
          "type": "uint256"
        }
      ],
      "stateMutability": "view",
      "type": "function"
    },
    {
      "inputs": [],
      "name": "owner",
      "outputs": [
        {
          "internalType": "address",
          "name": "",
          "type": "address"
        }
      ],
      "stateMutability": "view",
      "type": "function"
    },
    {
      "inputs": [
        {
          "internalType": "uint256",
          "name": "",
          "type": "uint256"
        }
      ],
      "name": "proposals",
      "outputs": [
        {
          "internalType": "uint256",
          "name": "value",
          "type": "uint256"
        },
        {
          "internalType": "address",
          "name": "recipient",
          "type": "address"
        },
        {
          "internalType": "uint256",
          "name": "approvalsCount",
          "type": "uint256"
        },
        {
          "internalType": "enum CrowdFundingCampaign.Status",
          "name": "status",
          "type": "uint8"
        }
      ],
      "stateMutability": "view",
      "type": "function"
    },
    {
      "inputs": [],
      "name": "setActive",
      "outputs": [],
      "stateMutability": "nonpayable",
      "type": "function"
    },
    {
      "inputs": [],
      "name": "status",
      "outputs": [
        {
          "internalType": "enum CrowdFundingCampaign.Status",
          "name": "",
          "type": "uint8"
        }
      ],
      "stateMutability": "view",
      "type": "function"
    }
  ],
  "bytecode": "0x608060405234801561001057600080fd5b50604051611cb9380380611cb98339818101604052606081101561003357600080fd5b8101908080519060200190929190805190602001909291908051906020019092919050505033600060016101000a81548173ffffffffffffffffffffffffffffffffffffffff021916908373ffffffffffffffffffffffffffffffffffffffff160217905550816001819055508260028190555060008060006101000a81548160ff021916908360048111156100c557fe5b02179055506000600481905550807f7a0ced2ebfa0348c1bb2ad8b93cccf47c0327bcce7d31ef5bbf1df0963de236e60405160405180910390a2505050611ba8806101116000396000f3fe60806040526004361061012a5760003560e01c8063923a64fb116100ab578063bb2cfe801161006f578063bb2cfe8014610556578063c7f758a814610591578063d6290cd71461062f578063d7bb99ba146106b0578063e78201b3146106ba578063f049a60c1461071e5761012a565b8063923a64fb146103f857806398e527d314610433578063a230c5241461045e578063a7f33715146104c7578063b1a6f6a9146104f25761012a565b806342e94c90116100f257806342e94c90146102875780634e69d560146102ec57806351c36c1e14610325578063760a8c2a1461038a5780638da5cb5b146103a15761012a565b8063013cf08b1461012f5780631ec0b7ba146101cd578063200d2ed2146101f8578063297f9af014610231578063401938831461025c575b600080fd5b34801561013b57600080fd5b506101686004803603602081101561015257600080fd5b8101908080359060200190929190505050610759565b604051808581526020018473ffffffffffffffffffffffffffffffffffffffff1673ffffffffffffffffffffffffffffffffffffffff1681526020018381526020018260048111156101b657fe5b60ff16815260200194505050505060405180910390f35b3480156101d957600080fd5b506101e26107c3565b6040518082815260200191505060405180910390f35b34801561020457600080fd5b5061020d6107d0565b6040518082600481111561021d57fe5b60ff16815260200191505060405180910390f35b34801561023d57600080fd5b506102466107e2565b6040518082815260200191505060405180910390f35b34801561026857600080fd5b506102716107e8565b6040518082815260200191505060405180910390f35b34801561029357600080fd5b506102d6600480360360208110156102aa57600080fd5b81019080803573ffffffffffffffffffffffffffffffffffffffff1690602001909291905050506107ee565b6040518082815260200191505060405180910390f35b3480156102f857600080fd5b50610301610806565b6040518082600481111561031157fe5b60ff16815260200191505060405180910390f35b34801561033157600080fd5b506103886004803603606081101561034857600080fd5b8101908080359060200190929190803573ffffffffffffffffffffffffffffffffffffffff1690602001909291908035906020019092919050505061081c565b005b34801561039657600080fd5b5061039f610b05565b005b3480156103ad57600080fd5b506103b6610cf1565b604051808273ffffffffffffffffffffffffffffffffffffffff1673ffffffffffffffffffffffffffffffffffffffff16815260200191505060405180910390f35b34801561040457600080fd5b506104316004803603602081101561041b57600080fd5b8101908080359060200190929190505050610d17565b005b34801561043f57600080fd5b50610448610f5f565b6040518082815260200191505060405180910390f35b34801561046a57600080fd5b506104ad6004803603602081101561048157600080fd5b81019080803573ffffffffffffffffffffffffffffffffffffffff169060200190929190505050610f6c565b604051808215151515815260200191505060405180910390f35b3480156104d357600080fd5b506104dc610fb7565b6040518082815260200191505060405180910390f35b3480156104fe57600080fd5b5061052b6004803603602081101561051557600080fd5b8101908080359060200190929190505050610fbd565b6040518083815260200182600481111561054157fe5b60ff1681526020019250505060405180910390f35b34801561056257600080fd5b5061058f6004803603602081101561057957600080fd5b8101908080359060200190929190505050610ffb565b005b34801561059d57600080fd5b506105ca600480360360208110156105b457600080fd5b8101908080359060200190929190505050611357565b604051808573ffffffffffffffffffffffffffffffffffffffff1673ffffffffffffffffffffffffffffffffffffffff16815260200184815260200183815260200182600481111561061857fe5b60ff16815260200194505050505060405180910390f35b34801561063b57600080fd5b506106446113cd565b604051808673ffffffffffffffffffffffffffffffffffffffff1673ffffffffffffffffffffffffffffffffffffffff16815260200185600481111561068657fe5b60ff1681526020018481526020018381526020018281526020019550505050505060405180910390f35b6106b8611420565b005b3480156106c657600080fd5b506106f3600480360360208110156106dd57600080fd5b81019080803590602001909291905050506116a8565b6040518083815260200182600481111561070957fe5b60ff1681526020019250505060405180910390f35b34801561072a57600080fd5b506107576004803603602081101561074157600080fd5b81019080803590602001909291905050506116eb565b005b6005818154811061076657fe5b90600052602060002090600502016000915090508060000154908060010160009054906101000a900473ffffffffffffffffffffffffffffffffffffffff16908060020154908060040160009054906101000a900460ff16905084565b6000600680549050905090565b6000809054906101000a900460ff1681565b60045481565b60015481565b60036020528060005260406000206000915090505481565b60008060009054906101000a900460ff16905090565b600060019054906101000a900473ffffffffffffffffffffffffffffffffffffffff1673ffffffffffffffffffffffffffffffffffffffff163373ffffffffffffffffffffffffffffffffffffffff16146108df576040517f08c379a00000000000000000000000000000000000000000000000000000000081526004018080602001828103825260188152602001807f53656e646572206973206e6f7420746865206f776e65722e000000000000000081525060200191505060405180910390fd5b600360048111156108ec57fe5b6000809054906101000a900460ff16600481111561090657fe5b1461095c576040517f08c379a0000000000000000000000000000000000000000000000000000000008152600401808060200182810382526022815260200180611ad86022913960400191505060405180910390fd5b824710156109d2576040517f08c379a000000000000000000000000000000000000000000000000000000000815260040180806020018281038252601b8152602001807f54686520666f756e64732061726520696e73756666696369656e74000000000081525060200191505060405180910390fd5b6109da611a47565b60405180608001604052808581526020018473ffffffffffffffffffffffffffffffffffffffff1681526020016000815260200160036004811115610a1b57fe5b815250905060058190806001815401808255809150506001900390600052602060002090600502016000909190919091506000820151816000015560208201518160010160006101000a81548173ffffffffffffffffffffffffffffffffffffffff021916908373ffffffffffffffffffffffffffffffffffffffff1602179055506040820151816002015560608201518160040160006101000a81548160ff02191690836004811115610acb57fe5b02179055505050817fdf3af04813197e32521106616bbfaf01af69d2e70f2f872720142b52953414e360405160405180910390a250505050565b600060019054906101000a900473ffffffffffffffffffffffffffffffffffffffff1673ffffffffffffffffffffffffffffffffffffffff163373ffffffffffffffffffffffffffffffffffffffff1614610bc8576040517f08c379a00000000000000000000000000000000000000000000000000000000081526004018080602001828103825260188152602001807f53656e646572206973206e6f7420746865206f776e65722e000000000000000081525060200191505060405180910390fd5b60006004811115610bd557fe5b6000809054906101000a900460ff166004811115610bef57fe5b14610c45576040517f08c379a0000000000000000000000000000000000000000000000000000000008152600401808060200182810382526023815260200180611afa6023913960400191505060405180910390fd5b600154471015610ca0576040517f08c379a0000000000000000000000000000000000000000000000000000000008152600401808060200182810382526022815260200180611ab66022913960400191505060405180910390fd5b60036000806101000a81548160ff02191690836004811115610cbe57fe5b02179055507f91eece65bbb3195524f803743167f72997d625af1d1698c2eff3d0a54e22945c60405160405180910390a1565b600060019054906101000a900473ffffffffffffffffffffffffffffffffffffffff1681565b6000600360003373ffffffffffffffffffffffffffffffffffffffff1673ffffffffffffffffffffffffffffffffffffffff168152602001908152602001600020541180610db25750600060019054906101000a900473ffffffffffffffffffffffffffffffffffffffff1673ffffffffffffffffffffffffffffffffffffffff163373ffffffffffffffffffffffffffffffffffffffff16145b610e24576040517f08c379a00000000000000000000000000000000000000000000000000000000081526004018080602001828103825260178152602001807f53656e646572206973206e6f742061206d656d6265722e00000000000000000081525060200191505060405180910390fd5b60036004811115610e3157fe5b6000809054906101000a900460ff166004811115610e4b57fe5b14610ea1576040517f08c379a0000000000000000000000000000000000000000000000000000000008152600401808060200182810382526022815260200180611ad86022913960400191505060405180910390fd5b610ea9611a90565b60405180604001604052806000815260200160036004811115610ec857fe5b815250905060068190806001815401808255809150506001900390600052602060002090600302016000909190919091506000820151816000015560208201518160020160006101000a81548160ff02191690836004811115610f2757fe5b02179055505050817fc95a86df0db5b70c1293ecf6809b04b1e69f91ddaa05b8912d28dbf59047755360405160405180910390a25050565b6000600580549050905090565b600080600360008473ffffffffffffffffffffffffffffffffffffffff1673ffffffffffffffffffffffffffffffffffffffff16815260200190815260200160002054119050919050565b60025481565b60068181548110610fca57fe5b90600052602060002090600302016000915090508060000154908060020160009054906101000a900460ff16905082565b6000600360003373ffffffffffffffffffffffffffffffffffffffff1673ffffffffffffffffffffffffffffffffffffffff1681526020019081526020016000205411806110965750600060019054906101000a900473ffffffffffffffffffffffffffffffffffffffff1673ffffffffffffffffffffffffffffffffffffffff163373ffffffffffffffffffffffffffffffffffffffff16145b611108576040517f08c379a00000000000000000000000000000000000000000000000000000000081526004018080602001828103825260178152602001807f53656e646572206973206e6f742061206d656d6265722e00000000000000000081525060200191505060405180910390fd5b6003600481111561111557fe5b6000809054906101000a900460ff16600481111561112f57fe5b14611185576040517f08c379a0000000000000000000000000000000000000000000000000000000008152600401808060200182810382526022815260200180611ad86022913960400191505060405180910390fd5b806003600481111561119357fe5b600582815481106111a057fe5b906000526020600020906005020160040160009054906101000a900460ff1660048111156111ca57fe5b14611220576040517f08c379a0000000000000000000000000000000000000000000000000000000008152600401808060200182810382526022815260200180611b516022913960400191505060405180910390fd5b60006005838154811061122f57fe5b906000526020600020906005020190508060030160003373ffffffffffffffffffffffffffffffffffffffff1673ffffffffffffffffffffffffffffffffffffffff16815260200190815260200160002060009054906101000a900460ff16156112e4576040517f08c379a0000000000000000000000000000000000000000000000000000000008152600401808060200182810382526034815260200180611b1d6034913960400191505060405180910390fd5b60018160030160003373ffffffffffffffffffffffffffffffffffffffff1673ffffffffffffffffffffffffffffffffffffffff16815260200190815260200160002060006101000a81548160ff0219169083151502179055508060020160008154809291906001019190505550505050565b60008060008060006005868154811061136c57fe5b906000526020600020906005020190508060010160009054906101000a900473ffffffffffffffffffffffffffffffffffffffff16816000015482600201548360040160009054906101000a900460ff169450945094509450509193509193565b60008060008060008060019054906101000a900473ffffffffffffffffffffffffffffffffffffffff166000809054906101000a900460ff16600154600254600454945094509450945094509091929394565b6000600360003373ffffffffffffffffffffffffffffffffffffffff1673ffffffffffffffffffffffffffffffffffffffff168152602001908152602001600020541480156114bd5750600060019054906101000a900473ffffffffffffffffffffffffffffffffffffffff1673ffffffffffffffffffffffffffffffffffffffff163373ffffffffffffffffffffffffffffffffffffffff1614155b61152f576040517f08c379a000000000000000000000000000000000000000000000000000000000815260040180806020018281038252601b8152602001807f53656e64657220697320616c72656164792061206d656d6265722e000000000081525060200191505060405180910390fd5b6000600481111561153c57fe5b6000809054906101000a900460ff16600481111561155657fe5b146115ac576040517f08c379a0000000000000000000000000000000000000000000000000000000008152600401808060200182810382526023815260200180611afa6023913960400191505060405180910390fd5b600254341015611624576040517f08c379a000000000000000000000000000000000000000000000000000000000815260040180806020018281038252601f8152602001807f54686520636f6e747269627574696f6e20697320696e737566696369656e740081525060200191505060405180910390fd5b34600360003373ffffffffffffffffffffffffffffffffffffffff1673ffffffffffffffffffffffffffffffffffffffff168152602001908152602001600020819055506004600081548092919060010191905055507f645665e8674f75953a5c3a468125fb84ae3b8b3fa0fcec823b34b6421cd800ca60405160405180910390a1565b6000806000600684815481106116ba57fe5b9060005260206000209060030201905080600001548160020160009054906101000a900460ff169250925050915091565b6000600360003373ffffffffffffffffffffffffffffffffffffffff1673ffffffffffffffffffffffffffffffffffffffff1681526020019081526020016000205411806117865750600060019054906101000a900473ffffffffffffffffffffffffffffffffffffffff1673ffffffffffffffffffffffffffffffffffffffff163373ffffffffffffffffffffffffffffffffffffffff16145b6117f8576040517f08c379a00000000000000000000000000000000000000000000000000000000081526004018080602001828103825260178152602001807f53656e646572206973206e6f742061206d656d6265722e00000000000000000081525060200191505060405180910390fd5b6003600481111561180557fe5b6000809054906101000a900460ff16600481111561181f57fe5b14611875576040517f08c379a0000000000000000000000000000000000000000000000000000000008152600401808060200182810382526022815260200180611ad86022913960400191505060405180910390fd5b806003600481111561188357fe5b6005828154811061189057fe5b906000526020600020906005020160040160009054906101000a900460ff1660048111156118ba57fe5b14611910576040517f08c379a0000000000000000000000000000000000000000000000000000000008152600401808060200182810382526022815260200180611b516022913960400191505060405180910390fd5b60006006838154811061191f57fe5b906000526020600020906003020190508060010160003373ffffffffffffffffffffffffffffffffffffffff1673ffffffffffffffffffffffffffffffffffffffff16815260200190815260200160002060009054906101000a900460ff16156119d4576040517f08c379a0000000000000000000000000000000000000000000000000000000008152600401808060200182810382526034815260200180611b1d6034913960400191505060405180910390fd5b60018160010160003373ffffffffffffffffffffffffffffffffffffffff1673ffffffffffffffffffffffffffffffffffffffff16815260200190815260200160002060006101000a81548160ff0219169083151502179055508060000160008154809291906001019190505550505050565b604051806080016040528060008152602001600073ffffffffffffffffffffffffffffffffffffffff1681526020016000815260200160006004811115611a8a57fe5b81525090565b60405180604001604052806000815260200160006004811115611aaf57fe5b8152509056fe54686520636f6e747269627574696f6e732061726520696e73756666696369656e745468652063616d706169676e20737461747573206973206e6f74206163746976652e5468652063616d706169676e20737461747573206973206e6f7420637265617465642e5468652070726f706f73616c20686173206265656e20616c726561647920617070726f766564206279207468652073656e6465725468652070726f706f73616c206973206e6f74206c6f6e676572206163746976652ea264697066735822122075fe2643d5cccc36e49c3f3e09041555cf10d23b6a16e9a81a08cff8eeb13b9264736f6c63430006000033",
  "linkReferences": {},
  "deployedLinkReferences": {}
}