{
  "contractName": "CrowdfundingCampaign",
  "abi": [
    {
      "inputs": [
        {
          "internalType": "uint256",
          "name": "_minimunContribution",
          "type": "uint256"
        },
        {
          "internalType": "uint256",
          "name": "_goal",
          "type": "uint256"
        },
        {
          "internalType": "bytes32",
          "name": "_ipfshash",
          "type": "bytes32"
        }
      ],
      "stateMutability": "nonpayable",
      "type": "constructor"
    },
    {
      "anonymous": false,
      "inputs": [
        {
          "indexed": false,
          "internalType": "bytes32",
          "name": "_ipfshash",
          "type": "bytes32"
        }
      ],
      "name": "CampaignCreated",
      "type": "event"
    },
    {
      "anonymous": false,
      "inputs": [],
      "name": "ChangeStatusCampaign",
      "type": "event"
    },
    {
      "anonymous": false,
      "inputs": [
        {
          "indexed": false,
          "internalType": "uint256",
          "name": "_index",
          "type": "uint256"
        }
      ],
      "name": "CloseProposalClosed",
      "type": "event"
    },
    {
      "anonymous": false,
      "inputs": [
        {
          "indexed": false,
          "internalType": "bytes32",
          "name": "_ipfshash",
          "type": "bytes32"
        }
      ],
      "name": "CloseProposalCreated",
      "type": "event"
    },
    {
      "anonymous": false,
      "inputs": [
        {
          "indexed": false,
          "internalType": "uint256",
          "name": "_index",
          "type": "uint256"
        }
      ],
      "name": "CloseProposalVoted",
      "type": "event"
    },
    {
      "anonymous": false,
      "inputs": [],
      "name": "NewContribution",
      "type": "event"
    },
    {
      "anonymous": false,
      "inputs": [
        {
          "indexed": false,
          "internalType": "bytes32",
          "name": "_ipfshash",
          "type": "bytes32"
        }
      ],
      "name": "ProgressUpdate",
      "type": "event"
    },
    {
      "anonymous": false,
      "inputs": [
        {
          "indexed": false,
          "internalType": "uint256",
          "name": "_index",
          "type": "uint256"
        }
      ],
      "name": "ProposalClosed",
      "type": "event"
    },
    {
      "anonymous": false,
      "inputs": [
        {
          "indexed": false,
          "internalType": "bytes32",
          "name": "_ipfshash",
          "type": "bytes32"
        }
      ],
      "name": "ProposalCreated",
      "type": "event"
    },
    {
      "anonymous": false,
      "inputs": [
        {
          "indexed": false,
          "internalType": "uint256",
          "name": "_index",
          "type": "uint256"
        }
      ],
      "name": "ProposalRelease",
      "type": "event"
    },
    {
      "anonymous": false,
      "inputs": [
        {
          "indexed": false,
          "internalType": "uint256",
          "name": "_index",
          "type": "uint256"
        }
      ],
      "name": "ProposalVoted",
      "type": "event"
    },
    {
      "anonymous": false,
      "inputs": [
        {
          "indexed": false,
          "internalType": "address",
          "name": "_member",
          "type": "address"
        },
        {
          "indexed": false,
          "internalType": "uint256",
          "name": "contribution",
          "type": "uint256"
        },
        {
          "indexed": false,
          "internalType": "uint256",
          "name": "goal",
          "type": "uint256"
        },
        {
          "indexed": false,
          "internalType": "uint256",
          "name": "payment",
          "type": "uint256"
        },
        {
          "indexed": false,
          "internalType": "uint256",
          "name": "founds",
          "type": "uint256"
        }
      ],
      "name": "withdrawFounds",
      "type": "event"
    },
    {
      "inputs": [
        {
          "internalType": "uint256",
          "name": "",
          "type": "uint256"
        }
      ],
      "name": "closeProposals",
      "outputs": [
        {
          "internalType": "uint256",
          "name": "approvalsCount",
          "type": "uint256"
        },
        {
          "internalType": "uint256",
          "name": "disapprovalsCount",
          "type": "uint256"
        },
        {
          "internalType": "enum CrowdfundingCampaign.ProposalStatus",
          "name": "status",
          "type": "uint8"
        },
        {
          "internalType": "uint256",
          "name": "limitTime",
          "type": "uint256"
        },
        {
          "internalType": "address",
          "name": "author",
          "type": "address"
        }
      ],
      "stateMutability": "view",
      "type": "function"
    },
    {
      "inputs": [
        {
          "internalType": "address",
          "name": "",
          "type": "address"
        }
      ],
      "name": "contributions",
      "outputs": [
        {
          "internalType": "uint256",
          "name": "",
          "type": "uint256"
        }
      ],
      "stateMutability": "view",
      "type": "function"
    },
    {
      "inputs": [],
      "name": "finalContributions",
      "outputs": [
        {
          "internalType": "uint256",
          "name": "",
          "type": "uint256"
        }
      ],
      "stateMutability": "view",
      "type": "function"
    },
    {
      "inputs": [],
      "name": "goal",
      "outputs": [
        {
          "internalType": "uint256",
          "name": "",
          "type": "uint256"
        }
      ],
      "stateMutability": "view",
      "type": "function"
    },
    {
      "inputs": [],
      "name": "membersCount",
      "outputs": [
        {
          "internalType": "uint256",
          "name": "",
          "type": "uint256"
        }
      ],
      "stateMutability": "view",
      "type": "function"
    },
    {
      "inputs": [],
      "name": "minimunContribution",
      "outputs": [
        {
          "internalType": "uint256",
          "name": "",
          "type": "uint256"
        }
      ],
      "stateMutability": "view",
      "type": "function"
    },
    {
      "inputs": [],
      "name": "owner",
      "outputs": [
        {
          "internalType": "address",
          "name": "",
          "type": "address"
        }
      ],
      "stateMutability": "view",
      "type": "function"
    },
    {
      "inputs": [
        {
          "internalType": "uint256",
          "name": "",
          "type": "uint256"
        }
      ],
      "name": "proposals",
      "outputs": [
        {
          "internalType": "uint256",
          "name": "value",
          "type": "uint256"
        },
        {
          "internalType": "address",
          "name": "recipient",
          "type": "address"
        },
        {
          "internalType": "uint256",
          "name": "approvalsCount",
          "type": "uint256"
        },
        {
          "internalType": "uint256",
          "name": "disapprovalsCount",
          "type": "uint256"
        },
        {
          "internalType": "enum CrowdfundingCampaign.ProposalStatus",
          "name": "status",
          "type": "uint8"
        },
        {
          "internalType": "uint256",
          "name": "limitTime",
          "type": "uint256"
        }
      ],
      "stateMutability": "view",
      "type": "function"
    },
    {
      "inputs": [],
      "name": "remainingContributions",
      "outputs": [
        {
          "internalType": "uint256",
          "name": "",
          "type": "uint256"
        }
      ],
      "stateMutability": "view",
      "type": "function"
    },
    {
      "inputs": [],
      "name": "status",
      "outputs": [
        {
          "internalType": "enum CrowdfundingCampaign.CampaignStatus",
          "name": "",
          "type": "uint8"
        }
      ],
      "stateMutability": "view",
      "type": "function"
    },
    {
      "inputs": [
        {
          "internalType": "address",
          "name": "",
          "type": "address"
        }
      ],
      "name": "withdraws",
      "outputs": [
        {
          "internalType": "bool",
          "name": "",
          "type": "bool"
        }
      ],
      "stateMutability": "view",
      "type": "function"
    },
    {
      "inputs": [],
      "name": "contribute",
      "outputs": [],
      "stateMutability": "payable",
      "type": "function"
    },
    {
      "inputs": [],
      "name": "setActive",
      "outputs": [],
      "stateMutability": "nonpayable",
      "type": "function"
    },
    {
      "inputs": [
        {
          "internalType": "bytes32",
          "name": "_ipfshash",
          "type": "bytes32"
        }
      ],
      "name": "saveProgressUpdate",
      "outputs": [],
      "stateMutability": "nonpayable",
      "type": "function"
    },
    {
      "inputs": [
        {
          "internalType": "uint256",
          "name": "_value",
          "type": "uint256"
        },
        {
          "internalType": "address",
          "name": "_recipient",
          "type": "address"
        },
        {
          "internalType": "bytes32",
          "name": "_ipfshash",
          "type": "bytes32"
        }
      ],
      "name": "createProposal",
      "outputs": [],
      "stateMutability": "nonpayable",
      "type": "function"
    },
    {
      "inputs": [
        {
          "internalType": "uint256",
          "name": "_index",
          "type": "uint256"
        }
      ],
      "name": "approveProposal",
      "outputs": [],
      "stateMutability": "nonpayable",
      "type": "function"
    },
    {
      "inputs": [
        {
          "internalType": "uint256",
          "name": "_index",
          "type": "uint256"
        }
      ],
      "name": "disapproveProposal",
      "outputs": [],
      "stateMutability": "nonpayable",
      "type": "function"
    },
    {
      "inputs": [
        {
          "internalType": "uint256",
          "name": "_index",
          "type": "uint256"
        }
      ],
      "name": "closeProposal",
      "outputs": [],
      "stateMutability": "nonpayable",
      "type": "function"
    },
    {
      "inputs": [
        {
          "internalType": "uint256",
          "name": "_index",
          "type": "uint256"
        }
      ],
      "name": "release",
      "outputs": [],
      "stateMutability": "nonpayable",
      "type": "function"
    },
    {
      "inputs": [
        {
          "internalType": "bytes32",
          "name": "_ipfshash",
          "type": "bytes32"
        }
      ],
      "name": "createCloseProposal",
      "outputs": [],
      "stateMutability": "nonpayable",
      "type": "function"
    },
    {
      "inputs": [
        {
          "internalType": "uint256",
          "name": "_index",
          "type": "uint256"
        }
      ],
      "name": "approveCloseProposal",
      "outputs": [],
      "stateMutability": "nonpayable",
      "type": "function"
    },
    {
      "inputs": [
        {
          "internalType": "uint256",
          "name": "_index",
          "type": "uint256"
        }
      ],
      "name": "disapproveCloseProposal",
      "outputs": [],
      "stateMutability": "nonpayable",
      "type": "function"
    },
    {
      "inputs": [
        {
          "internalType": "uint256",
          "name": "_index",
          "type": "uint256"
        }
      ],
      "name": "closeCloseProposal",
      "outputs": [],
      "stateMutability": "nonpayable",
      "type": "function"
    },
    {
      "inputs": [],
      "name": "withdraw",
      "outputs": [],
      "stateMutability": "nonpayable",
      "type": "function"
    },
    {
      "inputs": [
        {
          "internalType": "address",
          "name": "_address",
          "type": "address"
        }
      ],
      "name": "isMember",
      "outputs": [
        {
          "internalType": "bool",
          "name": "",
          "type": "bool"
        }
      ],
      "stateMutability": "view",
      "type": "function"
    },
    {
      "inputs": [],
      "name": "getStatus",
      "outputs": [
        {
          "internalType": "enum CrowdfundingCampaign.CampaignStatus",
          "name": "",
          "type": "uint8"
        }
      ],
      "stateMutability": "view",
      "type": "function"
    },
    {
      "inputs": [],
      "name": "getFinalContributions",
      "outputs": [
        {
          "internalType": "uint256",
          "name": "",
          "type": "uint256"
        }
      ],
      "stateMutability": "view",
      "type": "function"
    },
    {
      "inputs": [],
      "name": "getRemainingContributions",
      "outputs": [
        {
          "internalType": "uint256",
          "name": "",
          "type": "uint256"
        }
      ],
      "stateMutability": "view",
      "type": "function"
    },
    {
      "inputs": [],
      "name": "getCampaignInfo",
      "outputs": [
        {
          "internalType": "address",
          "name": "",
          "type": "address"
        },
        {
          "internalType": "enum CrowdfundingCampaign.CampaignStatus",
          "name": "",
          "type": "uint8"
        },
        {
          "internalType": "uint256",
          "name": "",
          "type": "uint256"
        },
        {
          "internalType": "uint256",
          "name": "",
          "type": "uint256"
        },
        {
          "internalType": "uint256",
          "name": "",
          "type": "uint256"
        },
        {
          "internalType": "uint256",
          "name": "",
          "type": "uint256"
        },
        {
          "internalType": "uint256",
          "name": "",
          "type": "uint256"
        }
      ],
      "stateMutability": "view",
      "type": "function"
    },
    {
      "inputs": [
        {
          "internalType": "uint256",
          "name": "_index",
          "type": "uint256"
        }
      ],
      "name": "getProposal",
      "outputs": [
        {
          "internalType": "address",
          "name": "",
          "type": "address"
        },
        {
          "internalType": "uint256",
          "name": "",
          "type": "uint256"
        },
        {
          "internalType": "uint256",
          "name": "",
          "type": "uint256"
        },
        {
          "internalType": "uint256",
          "name": "",
          "type": "uint256"
        },
        {
          "internalType": "enum CrowdfundingCampaign.ProposalStatus",
          "name": "",
          "type": "uint8"
        },
        {
          "internalType": "uint256",
          "name": "",
          "type": "uint256"
        },
        {
          "internalType": "bool",
          "name": "",
          "type": "bool"
        },
        {
          "internalType": "bool",
          "name": "",
          "type": "bool"
        }
      ],
      "stateMutability": "view",
      "type": "function"
    },
    {
      "inputs": [
        {
          "internalType": "uint256",
          "name": "_index",
          "type": "uint256"
        }
      ],
      "name": "hasVotedProposal",
      "outputs": [
        {
          "internalType": "bool",
          "name": "",
          "type": "bool"
        }
      ],
      "stateMutability": "view",
      "type": "function"
    },
    {
      "inputs": [],
      "name": "getProposalsCount",
      "outputs": [
        {
          "internalType": "uint256",
          "name": "",
          "type": "uint256"
        }
      ],
      "stateMutability": "view",
      "type": "function"
    },
    {
      "inputs": [
        {
          "internalType": "uint256",
          "name": "_index",
          "type": "uint256"
        }
      ],
      "name": "getCloseProposal",
      "outputs": [
        {
          "internalType": "uint256",
          "name": "",
          "type": "uint256"
        },
        {
          "internalType": "uint256",
          "name": "",
          "type": "uint256"
        },
        {
          "internalType": "enum CrowdfundingCampaign.ProposalStatus",
          "name": "",
          "type": "uint8"
        },
        {
          "internalType": "uint256",
          "name": "",
          "type": "uint256"
        },
        {
          "internalType": "bool",
          "name": "",
          "type": "bool"
        },
        {
          "internalType": "bool",
          "name": "",
          "type": "bool"
        },
        {
          "internalType": "address",
          "name": "",
          "type": "address"
        }
      ],
      "stateMutability": "view",
      "type": "function"
    },
    {
      "inputs": [
        {
          "internalType": "uint256",
          "name": "_index",
          "type": "uint256"
        }
      ],
      "name": "hasVotedCloseProposal",
      "outputs": [
        {
          "internalType": "bool",
          "name": "",
          "type": "bool"
        }
      ],
      "stateMutability": "view",
      "type": "function"
    },
    {
      "inputs": [],
      "name": "getCloseProposalsCount",
      "outputs": [
        {
          "internalType": "uint256",
          "name": "",
          "type": "uint256"
        }
      ],
      "stateMutability": "view",
      "type": "function"
    }
  ],
  "bytecode": "0x60806040523480156200001157600080fd5b50604051620049a5380380620049a583398181016040528101906200003791906200012b565b33600060016101000a81548173ffffffffffffffffffffffffffffffffffffffff021916908373ffffffffffffffffffffffffffffffffffffffff160217905550816001819055508260028190555060008060006101000a81548160ff02191690836003811115620000ae57620000ad620001c9565b5b021790555060006003819055507f0f627713f9c831a1b079924dedde3308e90d22b754bdd481f9b2165aa0f9dfb981604051620000ec919062000198565b60405180910390a150505062000231565b6000815190506200010e81620001fd565b92915050565b600081519050620001258162000217565b92915050565b600080600060608486031215620001475762000146620001f8565b5b6000620001578682870162000114565b93505060206200016a8682870162000114565b92505060406200017d86828701620000fd565b9150509250925092565b6200019281620001b5565b82525050565b6000602082019050620001af600083018462000187565b92915050565b6000819050919050565b6000819050919050565b7f4e487b7100000000000000000000000000000000000000000000000000000000600052602160045260246000fd5b600080fd5b6200020881620001b5565b81146200021457600080fd5b50565b6200022281620001bf565b81146200022e57600080fd5b50565b61476480620002416000396000f3fe6080604052600436106102045760003560e01c8063760a8c2a11610118578063c8541fe0116100a0578063de3f3ae01161006f578063de3f3ae014610768578063edbd0db814610791578063eeda0518146107bc578063f7268f2f146107f9578063fa65a1311461082257610204565b8063c8541fe0146106d9578063d6290cd714610702578063d7bb99ba14610733578063d853ba731461073d57610204565b806398951b56116100e757806398951b56146105d957806398e527d314610602578063a230c5241461062d578063a7f337151461066a578063c7f758a81461069557610204565b8063760a8c2a1461053157806384980e831461054857806384b519b9146105715780638da5cb5b146105ae57610204565b80633ccfd60b1161019b57806348179ee51161016a57806348179ee5146104345780634de583fb146104715780634e69d560146104b25780634f92c925146104dd57806351c36c1e1461050857610204565b80633ccfd60b14610372578063401938831461038957806342e94c90146103b457806343a41c8f146103f157610204565b8063200d2ed2116101d7578063200d2ed2146102ca578063297f9af0146102f557806337bdc99b146103205780633b047a8f1461034957610204565b80630126f61e14610209578063013cf08b146102345780630386a01614610276578063040950051461029f575b600080fd5b34801561021557600080fd5b5061021e61084b565b60405161022b9190613d7a565b60405180910390f35b34801561024057600080fd5b5061025b60048036038101906102569190613575565b610851565b60405161026d96959493929190613d95565b60405180910390f35b34801561028257600080fd5b5061029d60048036038101906102989190613575565b6108ca565b005b3480156102ab57600080fd5b506102b4610bed565b6040516102c19190613d7a565b60405180910390f35b3480156102d657600080fd5b506102df610bfa565b6040516102ec9190613abf565b60405180910390f35b34801561030157600080fd5b5061030a610c0b565b6040516103179190613d7a565b60405180910390f35b34801561032c57600080fd5b5061034760048036038101906103429190613575565b610c11565b005b34801561035557600080fd5b50610370600480360381019061036b9190613548565b610ead565b005b34801561037e57600080fd5b50610387610feb565b005b34801561039557600080fd5b5061039e611456565b6040516103ab9190613d7a565b60405180910390f35b3480156103c057600080fd5b506103db60048036038101906103d6919061351b565b61145c565b6040516103e89190613d7a565b60405180910390f35b3480156103fd57600080fd5b5061041860048036038101906104139190613575565b611474565b60405161042b9796959493929190613e49565b60405180910390f35b34801561044057600080fd5b5061045b6004803603810190610456919061351b565b611567565b6040516104689190613a89565b60405180910390f35b34801561047d57600080fd5b5061049860048036038101906104939190613575565b611587565b6040516104a9959493929190613df6565b60405180910390f35b3480156104be57600080fd5b506104c76115fa565b6040516104d49190613abf565b60405180910390f35b3480156104e957600080fd5b506104f2611610565b6040516104ff9190613d7a565b60405180910390f35b34801561051457600080fd5b5061052f600480360381019061052a91906135a2565b61161a565b005b34801561053d57600080fd5b50610546611866565b005b34801561055457600080fd5b5061056f600480360381019061056a9190613575565b611a0e565b005b34801561057d57600080fd5b5061059860048036038101906105939190613575565b611dc5565b6040516105a59190613a89565b60405180910390f35b3480156105ba57600080fd5b506105c3611e43565b6040516105d0919061392e565b60405180910390f35b3480156105e557600080fd5b5061060060048036038101906105fb9190613575565b611e69565b005b34801561060e57600080fd5b50610617612220565b6040516106249190613d7a565b60405180910390f35b34801561063957600080fd5b50610654600480360381019061064f919061351b565b61222d565b6040516106619190613a89565b60405180910390f35b34801561067657600080fd5b5061067f612278565b60405161068c9190613d7a565b60405180910390f35b3480156106a157600080fd5b506106bc60048036038101906106b79190613575565b61227e565b6040516106d09897969594939291906139b8565b60405180910390f35b3480156106e557600080fd5b5061070060048036038101906106fb9190613575565b61237a565b005b34801561070e57600080fd5b50610717612731565b60405161072a9796959493929190613949565b60405180910390f35b61073b612792565b005b34801561074957600080fd5b506107526129b1565b60405161075f9190613d7a565b60405180910390f35b34801561077457600080fd5b5061078f600480360381019061078a9190613575565b6129b7565b005b34801561079d57600080fd5b506107a6612de1565b6040516107b39190613d7a565b60405180910390f35b3480156107c857600080fd5b506107e360048036038101906107de9190613575565b612deb565b6040516107f09190613a89565b60405180910390f35b34801561080557600080fd5b50610820600480360381019061081b9190613548565b612e69565b005b34801561082e57600080fd5b5061084960048036038101906108449190613575565b613125565b005b60045481565b6008818154811061086157600080fd5b90600052602060002090600702016000915090508060000154908060010160009054906101000a900473ffffffffffffffffffffffffffffffffffffffff16908060020154908060030154908060050160009054906101000a900460ff16908060060154905086565b6000600660003373ffffffffffffffffffffffffffffffffffffffff1673ffffffffffffffffffffffffffffffffffffffff1681526020019081526020016000205411806109655750600060019054906101000a900473ffffffffffffffffffffffffffffffffffffffff1673ffffffffffffffffffffffffffffffffffffffff163373ffffffffffffffffffffffffffffffffffffffff16145b6109a4576040517f08c379a000000000000000000000000000000000000000000000000000000000815260040161099b90613afa565b60405180910390fd5b600160038111156109b8576109b76140ed565b5b60008054906101000a900460ff1660038111156109d8576109d76140ed565b5b14610a18576040517f08c379a0000000000000000000000000000000000000000000000000000000008152600401610a0f90613c5a565b60405180910390fd5b8060006003811115610a2d57610a2c6140ed565b5b60088281548110610a4157610a4061411c565b5b906000526020600020906007020160050160009054906101000a900460ff166003811115610a7257610a716140ed565b5b14610ab2576040517f08c379a0000000000000000000000000000000000000000000000000000000008152600401610aa990613d5a565b60405180910390fd5b8160088181548110610ac757610ac661411c565b5b9060005260206000209060070201600601544211610b1a576040517f08c379a0000000000000000000000000000000000000000000000000000000008152600401610b1190613d1a565b60405180910390fd5b600060088481548110610b3057610b2f61411c565b5b90600052602060002090600702019050806003015481600201541115610b825760018160050160006101000a81548160ff02191690836003811115610b7857610b776140ed565b5b0217905550610bb0565b60028160050160006101000a81548160ff02191690836003811115610baa57610ba96140ed565b5b02179055505b7f887777ccf43690541bed9e00b10d0fccfa7520b11875f09847a57b3085d8ab9284604051610bdf9190613d7a565b60405180910390a150505050565b6000600980549050905090565b60008054906101000a900460ff1681565b60035481565b600060019054906101000a900473ffffffffffffffffffffffffffffffffffffffff1673ffffffffffffffffffffffffffffffffffffffff163373ffffffffffffffffffffffffffffffffffffffff1614610ca1576040517f08c379a0000000000000000000000000000000000000000000000000000000008152600401610c9890613b7a565b60405180910390fd5b60016003811115610cb557610cb46140ed565b5b60008054906101000a900460ff166003811115610cd557610cd46140ed565b5b14610d15576040517f08c379a0000000000000000000000000000000000000000000000000000000008152600401610d0c90613c5a565b60405180910390fd5b8060016003811115610d2a57610d296140ed565b5b60088281548110610d3e57610d3d61411c565b5b906000526020600020906007020160050160009054906101000a900460ff166003811115610d6f57610d6e6140ed565b5b14610daf576040517f08c379a0000000000000000000000000000000000000000000000000000000008152600401610da690613c1a565b60405180910390fd5b600060088381548110610dc557610dc461411c565b5b9060005260206000209060070201905060038160050160006101000a81548160ff02191690836003811115610dfd57610dfc6140ed565b5b02179055508060010160009054906101000a900473ffffffffffffffffffffffffffffffffffffffff1673ffffffffffffffffffffffffffffffffffffffff166108fc82600001549081150290604051600060405180830381858888f19350505050158015610e70573d6000803e3d6000fd5b507fe02fec677757e427d1b6e49fcaf5bb9a6dd94e9fed2a2cc3c764c95deceff5b783604051610ea09190613d7a565b60405180910390a1505050565b600060019054906101000a900473ffffffffffffffffffffffffffffffffffffffff1673ffffffffffffffffffffffffffffffffffffffff163373ffffffffffffffffffffffffffffffffffffffff1614610f3d576040517f08c379a0000000000000000000000000000000000000000000000000000000008152600401610f3490613b7a565b60405180910390fd5b60016003811115610f5157610f506140ed565b5b60008054906101000a900460ff166003811115610f7157610f706140ed565b5b14610fb1576040517f08c379a0000000000000000000000000000000000000000000000000000000008152600401610fa890613c5a565b60405180910390fd5b7f2f8af70d91e96a23b8111e37a9117f7cfe341f51c17759c36475a1a7698f0dc381604051610fe09190613aa4565b60405180910390a150565b6000600660003373ffffffffffffffffffffffffffffffffffffffff1673ffffffffffffffffffffffffffffffffffffffff1681526020019081526020016000205411806110865750600060019054906101000a900473ffffffffffffffffffffffffffffffffffffffff1673ffffffffffffffffffffffffffffffffffffffff163373ffffffffffffffffffffffffffffffffffffffff16145b6110c5576040517f08c379a00000000000000000000000000000000000000000000000000000000081526004016110bc90613afa565b60405180910390fd5b6003808111156110d8576110d76140ed565b5b60008054906101000a900460ff1660038111156110f8576110f76140ed565b5b1480611135575060026003811115611113576111126140ed565b5b60008054906101000a900460ff166003811115611133576111326140ed565b5b145b611174576040517f08c379a000000000000000000000000000000000000000000000000000000000815260040161116b90613c9a565b60405180910390fd5b600060019054906101000a900473ffffffffffffffffffffffffffffffffffffffff1673ffffffffffffffffffffffffffffffffffffffff163373ffffffffffffffffffffffffffffffffffffffff161415611205576040517f08c379a00000000000000000000000000000000000000000000000000000000081526004016111fc90613b3a565b60405180910390fd5b600760003373ffffffffffffffffffffffffffffffffffffffff1673ffffffffffffffffffffffffffffffffffffffff16815260200190815260200160002060009054906101000a900460ff1615611292576040517f08c379a000000000000000000000000000000000000000000000000000000000815260040161128990613cba565b60405180910390fd5b6000600454600554600660003373ffffffffffffffffffffffffffffffffffffffff1673ffffffffffffffffffffffffffffffffffffffff168152602001908152602001600020546112e49190613f50565b6112ee9190613f1f565b9050478110611332576040517f08c379a000000000000000000000000000000000000000000000000000000000815260040161132990613bfa565b60405180910390fd5b3373ffffffffffffffffffffffffffffffffffffffff166108fc829081150290604051600060405180830381858888f19350505050158015611378573d6000803e3d6000fd5b506001600760003373ffffffffffffffffffffffffffffffffffffffff1673ffffffffffffffffffffffffffffffffffffffff16815260200190815260200160002060006101000a81548160ff0219169083151502179055507fa4e42298552baa3282225c552bba5a22b3034cdc0e531fe987c8003a44d95e2933600660003373ffffffffffffffffffffffffffffffffffffffff1673ffffffffffffffffffffffffffffffffffffffff168152602001908152602001600020546004548460055460405161144b959493929190613a36565b60405180910390a150565b60015481565b60066020528060005260406000206000915090505481565b600080600080600080600080600989815481106114945761149361411c565b5b9060005260206000209060060201905060008160040154421115905060008260020160003373ffffffffffffffffffffffffffffffffffffffff1673ffffffffffffffffffffffffffffffffffffffff16815260200190815260200160002060009054906101000a900460ff169050826000015483600101548460030160009054906101000a900460ff16856004015485858860050160009054906101000a900473ffffffffffffffffffffffffffffffffffffffff169950995099509950995099509950505050919395979092949650565b60076020528060005260406000206000915054906101000a900460ff1681565b6009818154811061159757600080fd5b90600052602060002090600602016000915090508060000154908060010154908060030160009054906101000a900460ff16908060040154908060050160009054906101000a900473ffffffffffffffffffffffffffffffffffffffff16905085565b60008060009054906101000a900460ff16905090565b6000600554905090565b600060019054906101000a900473ffffffffffffffffffffffffffffffffffffffff1673ffffffffffffffffffffffffffffffffffffffff163373ffffffffffffffffffffffffffffffffffffffff16146116aa576040517f08c379a00000000000000000000000000000000000000000000000000000000081526004016116a190613b7a565b60405180910390fd5b600160038111156116be576116bd6140ed565b5b60008054906101000a900460ff1660038111156116de576116dd6140ed565b5b1461171e576040517f08c379a000000000000000000000000000000000000000000000000000000000815260040161171590613c5a565b60405180910390fd5b82471015611761576040517f08c379a000000000000000000000000000000000000000000000000000000000815260040161175890613bba565b60405180910390fd5b600060086001816001815401808255809150500390600052602060002090600702019050828160010160006101000a81548173ffffffffffffffffffffffffffffffffffffffff021916908373ffffffffffffffffffffffffffffffffffffffff160217905550838160000181905550600081600201819055506000816003018190555060008160050160006101000a81548160ff0219169083600381111561180d5761180c6140ed565b5b021790555062093a80426118219190613ec9565b81600601819055507f288a29bca04edb18fcdb2c76d6e3b03b8a137c85c70d1a4cb8aacfa868d60510826040516118589190613aa4565b60405180910390a150505050565b600060019054906101000a900473ffffffffffffffffffffffffffffffffffffffff1673ffffffffffffffffffffffffffffffffffffffff163373ffffffffffffffffffffffffffffffffffffffff16146118f6576040517f08c379a00000000000000000000000000000000000000000000000000000000081526004016118ed90613b7a565b60405180910390fd5b6000600381111561190a576119096140ed565b5b60008054906101000a900460ff16600381111561192a576119296140ed565b5b1461196a576040517f08c379a000000000000000000000000000000000000000000000000000000000815260040161196190613cfa565b60405180910390fd5b6001544710156119af576040517f08c379a00000000000000000000000000000000000000000000000000000000081526004016119a690613c3a565b60405180910390fd5b60016000806101000a81548160ff021916908360038111156119d4576119d36140ed565b5b0217905550476004819055507fe283e942d53c4322165eacc7a597c86cdbc698c96321f57a82b29c615810a69560405160405180910390a1565b6000600660003373ffffffffffffffffffffffffffffffffffffffff1673ffffffffffffffffffffffffffffffffffffffff168152602001908152602001600020541180611aa95750600060019054906101000a900473ffffffffffffffffffffffffffffffffffffffff1673ffffffffffffffffffffffffffffffffffffffff163373ffffffffffffffffffffffffffffffffffffffff16145b611ae8576040517f08c379a0000000000000000000000000000000000000000000000000000000008152600401611adf90613afa565b60405180910390fd5b60016003811115611afc57611afb6140ed565b5b60008054906101000a900460ff166003811115611b1c57611b1b6140ed565b5b14611b5c576040517f08c379a0000000000000000000000000000000000000000000000000000000008152600401611b5390613c5a565b60405180910390fd5b8060006003811115611b7157611b706140ed565b5b60098281548110611b8557611b8461411c565b5b906000526020600020906006020160030160009054906101000a900460ff166003811115611bb657611bb56140ed565b5b14611bf6576040517f08c379a0000000000000000000000000000000000000000000000000000000008152600401611bed90613d3a565b60405180910390fd5b8160098181548110611c0b57611c0a61411c565b5b906000526020600020906006020160040154421115611c5f576040517f08c379a0000000000000000000000000000000000000000000000000000000008152600401611c5690613bda565b60405180910390fd5b600060098481548110611c7557611c7461411c565b5b906000526020600020906006020190508060020160003373ffffffffffffffffffffffffffffffffffffffff1673ffffffffffffffffffffffffffffffffffffffff16815260200190815260200160002060009054906101000a900460ff1615611d14576040517f08c379a0000000000000000000000000000000000000000000000000000000008152600401611d0b90613cda565b60405180910390fd5b60018160020160003373ffffffffffffffffffffffffffffffffffffffff1673ffffffffffffffffffffffffffffffffffffffff16815260200190815260200160002060006101000a81548160ff021916908315150217905550806000016000815480929190611d8390614046565b91905055507f53c1eb0055cc9dbfe4823171931d9ec63b8682244ed5778661bb94ba2075f8c684604051611db79190613d7a565b60405180910390a150505050565b60008060098381548110611ddc57611ddb61411c565b5b906000526020600020906006020190508060020160003373ffffffffffffffffffffffffffffffffffffffff1673ffffffffffffffffffffffffffffffffffffffff16815260200190815260200160002060009054906101000a900460ff16915050919050565b600060019054906101000a900473ffffffffffffffffffffffffffffffffffffffff1681565b6000600660003373ffffffffffffffffffffffffffffffffffffffff1673ffffffffffffffffffffffffffffffffffffffff168152602001908152602001600020541180611f045750600060019054906101000a900473ffffffffffffffffffffffffffffffffffffffff1673ffffffffffffffffffffffffffffffffffffffff163373ffffffffffffffffffffffffffffffffffffffff16145b611f43576040517f08c379a0000000000000000000000000000000000000000000000000000000008152600401611f3a90613afa565b60405180910390fd5b60016003811115611f5757611f566140ed565b5b60008054906101000a900460ff166003811115611f7757611f766140ed565b5b14611fb7576040517f08c379a0000000000000000000000000000000000000000000000000000000008152600401611fae90613c5a565b60405180910390fd5b8060006003811115611fcc57611fcb6140ed565b5b60088281548110611fe057611fdf61411c565b5b906000526020600020906007020160050160009054906101000a900460ff166003811115612011576120106140ed565b5b14612051576040517f08c379a000000000000000000000000000000000000000000000000000000000815260040161204890613d5a565b60405180910390fd5b81600881815481106120665761206561411c565b5b9060005260206000209060070201600601544211156120ba576040517f08c379a00000000000000000000000000000000000000000000000000000000081526004016120b190613b9a565b60405180910390fd5b6000600884815481106120d0576120cf61411c565b5b906000526020600020906007020190508060040160003373ffffffffffffffffffffffffffffffffffffffff1673ffffffffffffffffffffffffffffffffffffffff16815260200190815260200160002060009054906101000a900460ff161561216f576040517f08c379a000000000000000000000000000000000000000000000000000000000815260040161216690613c7a565b60405180910390fd5b60018160040160003373ffffffffffffffffffffffffffffffffffffffff1673ffffffffffffffffffffffffffffffffffffffff16815260200190815260200160002060006101000a81548160ff0219169083151502179055508060020160008154809291906121de90614046565b91905055507f26b645fdecdf266f3abc5b7ae3e796ffd297febba8bd3a8ad49c68435190fc69846040516122129190613d7a565b60405180910390a150505050565b6000600880549050905090565b600080600660008473ffffffffffffffffffffffffffffffffffffffff1673ffffffffffffffffffffffffffffffffffffffff16815260200190815260200160002054119050919050565b60025481565b600080600080600080600080600060088a815481106122a05761229f61411c565b5b9060005260206000209060070201905060008160060154421115905060008260040160003373ffffffffffffffffffffffffffffffffffffffff1673ffffffffffffffffffffffffffffffffffffffff16815260200190815260200160002060009054906101000a900460ff1690508260010160009054906101000a900473ffffffffffffffffffffffffffffffffffffffff168360000154846002015485600301548660050160009054906101000a900460ff16876006015487879a509a509a509a509a509a509a509a50505050919395975091939597565b6000600660003373ffffffffffffffffffffffffffffffffffffffff1673ffffffffffffffffffffffffffffffffffffffff1681526020019081526020016000205411806124155750600060019054906101000a900473ffffffffffffffffffffffffffffffffffffffff1673ffffffffffffffffffffffffffffffffffffffff163373ffffffffffffffffffffffffffffffffffffffff16145b612454576040517f08c379a000000000000000000000000000000000000000000000000000000000815260040161244b90613afa565b60405180910390fd5b60016003811115612468576124676140ed565b5b60008054906101000a900460ff166003811115612488576124876140ed565b5b146124c8576040517f08c379a00000000000000000000000000000000000000000000000000000000081526004016124bf90613c5a565b60405180910390fd5b80600060038111156124dd576124dc6140ed565b5b600882815481106124f1576124f061411c565b5b906000526020600020906007020160050160009054906101000a900460ff166003811115612522576125216140ed565b5b14612562576040517f08c379a000000000000000000000000000000000000000000000000000000000815260040161255990613d5a565b60405180910390fd5b81600881815481106125775761257661411c565b5b9060005260206000209060070201600601544211156125cb576040517f08c379a00000000000000000000000000000000000000000000000000000000081526004016125c290613b9a565b60405180910390fd5b6000600884815481106125e1576125e061411c565b5b906000526020600020906007020190508060040160003373ffffffffffffffffffffffffffffffffffffffff1673ffffffffffffffffffffffffffffffffffffffff16815260200190815260200160002060009054906101000a900460ff1615612680576040517f08c379a000000000000000000000000000000000000000000000000000000000815260040161267790613c7a565b60405180910390fd5b60018160040160003373ffffffffffffffffffffffffffffffffffffffff1673ffffffffffffffffffffffffffffffffffffffff16815260200190815260200160002060006101000a81548160ff0219169083151502179055508060030160008154809291906126ef90614046565b91905055507f26b645fdecdf266f3abc5b7ae3e796ffd297febba8bd3a8ad49c68435190fc69846040516127239190613d7a565b60405180910390a150505050565b60008060008060008060008060019054906101000a900473ffffffffffffffffffffffffffffffffffffffff1660008054906101000a900460ff16600154600254600354600454600554965096509650965096509650965090919293949596565b6000600660003373ffffffffffffffffffffffffffffffffffffffff1673ffffffffffffffffffffffffffffffffffffffff1681526020019081526020016000205414801561282f5750600060019054906101000a900473ffffffffffffffffffffffffffffffffffffffff1673ffffffffffffffffffffffffffffffffffffffff163373ffffffffffffffffffffffffffffffffffffffff1614155b61286e576040517f08c379a000000000000000000000000000000000000000000000000000000000815260040161286590613b1a565b60405180910390fd5b60006003811115612882576128816140ed565b5b60008054906101000a900460ff1660038111156128a2576128a16140ed565b5b146128e2576040517f08c379a00000000000000000000000000000000000000000000000000000000081526004016128d990613cfa565b60405180910390fd5b600254341015612927576040517f08c379a000000000000000000000000000000000000000000000000000000000815260040161291e90613ada565b60405180910390fd5b34600660003373ffffffffffffffffffffffffffffffffffffffff1673ffffffffffffffffffffffffffffffffffffffff168152602001908152602001600020819055506003600081548092919061297e90614046565b91905055507f0673e22453ca22ab66c750388a377485c2d57a19fb171f1442f45e933d5e841860405160405180910390a1565b60055481565b6000600660003373ffffffffffffffffffffffffffffffffffffffff1673ffffffffffffffffffffffffffffffffffffffff168152602001908152602001600020541180612a525750600060019054906101000a900473ffffffffffffffffffffffffffffffffffffffff1673ffffffffffffffffffffffffffffffffffffffff163373ffffffffffffffffffffffffffffffffffffffff16145b612a91576040517f08c379a0000000000000000000000000000000000000000000000000000000008152600401612a8890613afa565b60405180910390fd5b60016003811115612aa557612aa46140ed565b5b60008054906101000a900460ff166003811115612ac557612ac46140ed565b5b14612b05576040517f08c379a0000000000000000000000000000000000000000000000000000000008152600401612afc90613c5a565b60405180910390fd5b8060006003811115612b1a57612b196140ed565b5b60098281548110612b2e57612b2d61411c565b5b906000526020600020906006020160030160009054906101000a900460ff166003811115612b5f57612b5e6140ed565b5b14612b9f576040517f08c379a0000000000000000000000000000000000000000000000000000000008152600401612b9690613d3a565b60405180910390fd5b8160098181548110612bb457612bb361411c565b5b9060005260206000209060060201600401544211612c07576040517f08c379a0000000000000000000000000000000000000000000000000000000008152600401612bfe90613b5a565b60405180910390fd5b600060098481548110612c1d57612c1c61411c565b5b90600052602060002090600602019050806001015481600001541115612d4a57600060019054906101000a900473ffffffffffffffffffffffffffffffffffffffff1673ffffffffffffffffffffffffffffffffffffffff168160050160009054906101000a900473ffffffffffffffffffffffffffffffffffffffff1673ffffffffffffffffffffffffffffffffffffffff161415612ce65760036000806101000a81548160ff02191690836003811115612cdc57612cdb6140ed565b5b0217905550612d11565b60026000806101000a81548160ff02191690836003811115612d0b57612d0a6140ed565b5b02179055505b60018160030160006101000a81548160ff02191690836003811115612d3957612d386140ed565b5b021790555047600581905550612d78565b60028160030160006101000a81548160ff02191690836003811115612d7257612d716140ed565b5b02179055505b7f73f2945afe9ca15803fdd3eee06f885f71638426c3775f68cbf42918f508507284604051612da79190613d7a565b60405180910390a17fe283e942d53c4322165eacc7a597c86cdbc698c96321f57a82b29c615810a69560405160405180910390a150505050565b6000600454905090565b60008060088381548110612e0257612e0161411c565b5b906000526020600020906007020190508060040160003373ffffffffffffffffffffffffffffffffffffffff1673ffffffffffffffffffffffffffffffffffffffff16815260200190815260200160002060009054906101000a900460ff16915050919050565b6000600660003373ffffffffffffffffffffffffffffffffffffffff1673ffffffffffffffffffffffffffffffffffffffff168152602001908152602001600020541180612f045750600060019054906101000a900473ffffffffffffffffffffffffffffffffffffffff1673ffffffffffffffffffffffffffffffffffffffff163373ffffffffffffffffffffffffffffffffffffffff16145b612f43576040517f08c379a0000000000000000000000000000000000000000000000000000000008152600401612f3a90613afa565b60405180910390fd5b60016003811115612f5757612f566140ed565b5b60008054906101000a900460ff166003811115612f7757612f766140ed565b5b14612fb7576040517f08c379a0000000000000000000000000000000000000000000000000000000008152600401612fae90613c5a565b60405180910390fd5b600060096001816001815401808255809150500390600052602060002090600602019050600081600001819055506000816001018190555060008160030160006101000a81548160ff02191690836003811115613017576130166140ed565b5b021790555062093a804261302b9190613ec9565b8160040181905550338160050160006101000a81548173ffffffffffffffffffffffffffffffffffffffff021916908373ffffffffffffffffffffffffffffffffffffffff16021790555060018160020160003373ffffffffffffffffffffffffffffffffffffffff1673ffffffffffffffffffffffffffffffffffffffff16815260200190815260200160002060006101000a81548160ff0219169083151502179055508060000160008154809291906130e590614046565b91905055507fd652a200abc8c9e3e659b36ee1d1c81a25a3cd454afdb8cede6431e74906497c826040516131199190613aa4565b60405180910390a15050565b6000600660003373ffffffffffffffffffffffffffffffffffffffff1673ffffffffffffffffffffffffffffffffffffffff1681526020019081526020016000205411806131c05750600060019054906101000a900473ffffffffffffffffffffffffffffffffffffffff1673ffffffffffffffffffffffffffffffffffffffff163373ffffffffffffffffffffffffffffffffffffffff16145b6131ff576040517f08c379a00000000000000000000000000000000000000000000000000000000081526004016131f690613afa565b60405180910390fd5b60016003811115613213576132126140ed565b5b60008054906101000a900460ff166003811115613233576132326140ed565b5b14613273576040517f08c379a000000000000000000000000000000000000000000000000000000000815260040161326a90613c5a565b60405180910390fd5b8060006003811115613288576132876140ed565b5b6009828154811061329c5761329b61411c565b5b906000526020600020906006020160030160009054906101000a900460ff1660038111156132cd576132cc6140ed565b5b1461330d576040517f08c379a000000000000000000000000000000000000000000000000000000000815260040161330490613d3a565b60405180910390fd5b81600981815481106133225761332161411c565b5b906000526020600020906006020160040154421115613376576040517f08c379a000000000000000000000000000000000000000000000000000000000815260040161336d90613bda565b60405180910390fd5b60006009848154811061338c5761338b61411c565b5b906000526020600020906006020190508060020160003373ffffffffffffffffffffffffffffffffffffffff1673ffffffffffffffffffffffffffffffffffffffff16815260200190815260200160002060009054906101000a900460ff161561342b576040517f08c379a000000000000000000000000000000000000000000000000000000000815260040161342290613cda565b60405180910390fd5b60018160020160003373ffffffffffffffffffffffffffffffffffffffff1673ffffffffffffffffffffffffffffffffffffffff16815260200190815260200160002060006101000a81548160ff02191690831515021790555080600101600081548092919061349a90614046565b91905055507f53c1eb0055cc9dbfe4823171931d9ec63b8682244ed5778661bb94ba2075f8c6846040516134ce9190613d7a565b60405180910390a150505050565b6000813590506134eb816146e9565b92915050565b60008135905061350081614700565b92915050565b60008135905061351581614717565b92915050565b6000602082840312156135315761353061414b565b5b600061353f848285016134dc565b91505092915050565b60006020828403121561355e5761355d61414b565b5b600061356c848285016134f1565b91505092915050565b60006020828403121561358b5761358a61414b565b5b600061359984828501613506565b91505092915050565b6000806000606084860312156135bb576135ba61414b565b5b60006135c986828701613506565b93505060206135da868287016134dc565b92505060406135eb868287016134f1565b9150509250925092565b6135fe81613faa565b82525050565b61360d81613fbc565b82525050565b61361c81613fc8565b82525050565b61362b81614022565b82525050565b61363a81614034565b82525050565b600061364d601f83613eb8565b915061365882614150565b602082019050919050565b6000613670601783613eb8565b915061367b82614179565b602082019050919050565b6000613693601b83613eb8565b915061369e826141a2565b602082019050919050565b60006136b6601483613eb8565b91506136c1826141cb565b602082019050919050565b60006136d9602c83613eb8565b91506136e4826141f4565b604082019050919050565b60006136fc601883613eb8565b915061370782614243565b602082019050919050565b600061371f602183613eb8565b915061372a8261426c565b604082019050919050565b6000613742601b83613eb8565b915061374d826142bb565b602082019050919050565b6000613765602783613eb8565b9150613770826142e4565b604082019050919050565b6000613788602383613eb8565b915061379382614333565b604082019050919050565b60006137ab601d83613eb8565b91506137b682614382565b602082019050919050565b60006137ce602283613eb8565b91506137d9826143ab565b604082019050919050565b60006137f1602283613eb8565b91506137fc826143fa565b604082019050919050565b6000613814603183613eb8565b915061381f82614449565b604082019050919050565b6000613837602583613eb8565b915061384282614498565b604082019050919050565b600061385a602383613eb8565b9150613865826144e7565b604082019050919050565b600061387d603783613eb8565b915061388882614536565b604082019050919050565b60006138a0602383613eb8565b91506138ab82614585565b604082019050919050565b60006138c3602683613eb8565b91506138ce826145d4565b604082019050919050565b60006138e6602883613eb8565b91506138f182614623565b604082019050919050565b6000613909602283613eb8565b915061391482614672565b604082019050919050565b61392881614018565b82525050565b600060208201905061394360008301846135f5565b92915050565b600060e08201905061395e600083018a6135f5565b61396b6020830189613622565b613978604083018861391f565b613985606083018761391f565b613992608083018661391f565b61399f60a083018561391f565b6139ac60c083018461391f565b98975050505050505050565b6000610100820190506139ce600083018b6135f5565b6139db602083018a61391f565b6139e8604083018961391f565b6139f5606083018861391f565b613a026080830187613631565b613a0f60a083018661391f565b613a1c60c0830185613604565b613a2960e0830184613604565b9998505050505050505050565b600060a082019050613a4b60008301886135f5565b613a58602083018761391f565b613a65604083018661391f565b613a72606083018561391f565b613a7f608083018461391f565b9695505050505050565b6000602082019050613a9e6000830184613604565b92915050565b6000602082019050613ab96000830184613613565b92915050565b6000602082019050613ad46000830184613622565b92915050565b60006020820190508181036000830152613af381613640565b9050919050565b60006020820190508181036000830152613b1381613663565b9050919050565b60006020820190508181036000830152613b3381613686565b9050919050565b60006020820190508181036000830152613b53816136a9565b9050919050565b60006020820190508181036000830152613b73816136cc565b9050919050565b60006020820190508181036000830152613b93816136ef565b9050919050565b60006020820190508181036000830152613bb381613712565b9050919050565b60006020820190508181036000830152613bd381613735565b9050919050565b60006020820190508181036000830152613bf381613758565b9050919050565b60006020820190508181036000830152613c138161377b565b9050919050565b60006020820190508181036000830152613c338161379e565b9050919050565b60006020820190508181036000830152613c53816137c1565b9050919050565b60006020820190508181036000830152613c73816137e4565b9050919050565b60006020820190508181036000830152613c9381613807565b9050919050565b60006020820190508181036000830152613cb38161382a565b9050919050565b60006020820190508181036000830152613cd38161384d565b9050919050565b60006020820190508181036000830152613cf381613870565b9050919050565b60006020820190508181036000830152613d1381613893565b9050919050565b60006020820190508181036000830152613d33816138b6565b9050919050565b60006020820190508181036000830152613d53816138d9565b9050919050565b60006020820190508181036000830152613d73816138fc565b9050919050565b6000602082019050613d8f600083018461391f565b92915050565b600060c082019050613daa600083018961391f565b613db760208301886135f5565b613dc4604083018761391f565b613dd1606083018661391f565b613dde6080830185613631565b613deb60a083018461391f565b979650505050505050565b600060a082019050613e0b600083018861391f565b613e18602083018761391f565b613e256040830186613631565b613e32606083018561391f565b613e3f60808301846135f5565b9695505050505050565b600060e082019050613e5e600083018a61391f565b613e6b602083018961391f565b613e786040830188613631565b613e85606083018761391f565b613e926080830186613604565b613e9f60a0830185613604565b613eac60c08301846135f5565b98975050505050505050565b600082825260208201905092915050565b6000613ed482614018565b9150613edf83614018565b9250827fffffffffffffffffffffffffffffffffffffffffffffffffffffffffffffffff03821115613f1457613f1361408f565b5b828201905092915050565b6000613f2a82614018565b9150613f3583614018565b925082613f4557613f446140be565b5b828204905092915050565b6000613f5b82614018565b9150613f6683614018565b9250817fffffffffffffffffffffffffffffffffffffffffffffffffffffffffffffffff0483118215151615613f9f57613f9e61408f565b5b828202905092915050565b6000613fb582613ff8565b9050919050565b60008115159050919050565b6000819050919050565b6000819050613fe0826146c1565b919050565b6000819050613ff3826146d5565b919050565b600073ffffffffffffffffffffffffffffffffffffffff82169050919050565b6000819050919050565b600061402d82613fd2565b9050919050565b600061403f82613fe5565b9050919050565b600061405182614018565b91507fffffffffffffffffffffffffffffffffffffffffffffffffffffffffffffffff8214156140845761408361408f565b5b600182019050919050565b7f4e487b7100000000000000000000000000000000000000000000000000000000600052601160045260246000fd5b7f4e487b7100000000000000000000000000000000000000000000000000000000600052601260045260246000fd5b7f4e487b7100000000000000000000000000000000000000000000000000000000600052602160045260246000fd5b7f4e487b7100000000000000000000000000000000000000000000000000000000600052603260045260246000fd5b600080fd5b7f54686520636f6e747269627574696f6e20697320696e737566696369656e7400600082015250565b7f53656e646572206973206e6f742061206d656d6265722e000000000000000000600082015250565b7f53656e64657220697320616c72656164792061206d656d6265722e0000000000600082015250565b7f53656e64657220697320746865206f776e65722e000000000000000000000000600082015250565b7f54686520636c6f73652070726f706f73616c206973207374696c6c206f70656e60008201527f20666f7220766f74696e672e0000000000000000000000000000000000000000602082015250565b7f53656e646572206973206e6f7420746865206f776e65722e0000000000000000600082015250565b7f5468652070726f706f73616c20697320636c6f736520666f7220766f74696e6760008201527f2e00000000000000000000000000000000000000000000000000000000000000602082015250565b7f54686520666f756e64732061726520696e73756666696369656e740000000000600082015250565b7f54686520636c6f73652070726f706f73616c20697320636c6f736520666f722060008201527f766f74696e672e00000000000000000000000000000000000000000000000000602082015250565b7f5061796d656e742063616e2774206265206d6f7265207468616e2062616c616e60008201527f63652e0000000000000000000000000000000000000000000000000000000000602082015250565b7f5468652070726f706f73616c206973206e6f7420617070726f7665642e000000600082015250565b7f54686520636f6e747269627574696f6e732061726520696e737566666963696560008201527f6e74000000000000000000000000000000000000000000000000000000000000602082015250565b7f5468652063616d706169676e20737461747573206973206e6f7420616374697660008201527f652e000000000000000000000000000000000000000000000000000000000000602082015250565b7f5468652070726f706f73616c20686173206265656e20616c726561647920766f60008201527f746564206279207468652073656e646572000000000000000000000000000000602082015250565b7f5468652063616d706169676e20737461747573206973206e6f7420636c6f736560008201527f207965742e000000000000000000000000000000000000000000000000000000602082015250565b7f53656e64657220616c72656164792077697468647261772068697320666f756e60008201527f64732e0000000000000000000000000000000000000000000000000000000000602082015250565b7f54686520636c6f73652070726f706f73616c20686173206265656e20616c726560008201527f61647920766f746564206279207468652073656e646572000000000000000000602082015250565b7f5468652063616d706169676e20737461747573206973206e6f7420637265617460008201527f65642e0000000000000000000000000000000000000000000000000000000000602082015250565b7f5468652070726f706f73616c206973207374696c6c206f70656e20666f72207660008201527f6f74696e672e0000000000000000000000000000000000000000000000000000602082015250565b7f54686520636c6f73652070726f706f73616c206973206e6f74206c6f6e67657260008201527f206163746976652e000000000000000000000000000000000000000000000000602082015250565b7f5468652070726f706f73616c206973206e6f74206c6f6e67657220616374697660008201527f652e000000000000000000000000000000000000000000000000000000000000602082015250565b600481106146d2576146d16140ed565b5b50565b600481106146e6576146e56140ed565b5b50565b6146f281613faa565b81146146fd57600080fd5b50565b61470981613fc8565b811461471457600080fd5b50565b61472081614018565b811461472b57600080fd5b5056fea26469706673582212203fa59b1d682ee16afd696ceb082467eb2b92f049824e2181d55d77158039c03164736f6c63430008060033",
  "immutableReferences": {},
  "source": "//SPDX-License-Identifier: GPL-3.0-only\npragma solidity ^0.8.0;\n\ncontract CrowdfundingCampaign {\n\n    /* Enums */\n\n    enum CampaignStatus { CREATED, ACTIVE, FAIL, SUCCESSFUL }\n    enum ProposalStatus { ACTIVE, APPROVED, DISAPPROVED, SUCCESSFUL }\n\n    \n    /* Structs */\n\n    /** @dev Struct proposal\n        This struct represents the proposals that only owner can make to get more founds.\n    **/\n    struct Proposal {\n        uint value;\n        address recipient;\n        uint approvalsCount;\n        uint disapprovalsCount;\n        mapping(address => bool) voters;\n        ProposalStatus status;\n        uint limitTime;\n    }\n\n    /** @dev Struct close proposal\n        This struct represents the proposal that members can make to get their founds back.\n    **/\n    struct CloseProposal {\n        uint approvalsCount;\n        uint disapprovalsCount;\n        mapping(address => bool) voters;\n        ProposalStatus status;\n        uint limitTime;\n        address author;\n    }\n\n    /* Storage */\n\n    CampaignStatus public status;\n    \n    address public owner;\n    \n    uint public goal;\n    uint public minimunContribution;\n    uint public membersCount;\n    uint public finalContributions;\n    uint public remainingContributions;\n    \n    mapping(address => uint) public contributions;\n    mapping(address => bool) public withdraws;\n    \n    Proposal[] public proposals;\n    CloseProposal[] public closeProposals;\n    \n\n    /** @dev Constructor.\n     *  @param _minimunContribution minimum contribution in wei that a person has to make to become a member.\n     *  @param _goal goal in wei that the proyect has to reach to be succesfull.\n     *  @param _ipfshash The url hash of the campaign data previusly stored in IPFS.\n    **/\n    constructor(uint _minimunContribution, uint _goal, bytes32 _ipfshash) {\n        owner = msg.sender;\n        goal = _goal;\n        minimunContribution = _minimunContribution;\n        status = CampaignStatus.CREATED;\n        membersCount = 0;\n\n        emit CampaignCreated(_ipfshash);\n    }\n\n\n    /* Modifiers */\n\n    modifier restricted() { \n        require( msg.sender==owner, \"Sender is not the owner.\" ); \n        _; \n    }\n\n    modifier membering() { \n        require( (contributions[msg.sender]>0) || (msg.sender == owner), \n            \"Sender is not a member.\" ); \n        _; \n    }\n\n    modifier notMembering() { \n        require( (contributions[msg.sender]==0) && (msg.sender != owner),\n            \"Sender is already a member.\" );\n         _; \n    }\n\n    modifier statusCreated() { \n        require( status == CampaignStatus.CREATED, \n            \"The campaign status is not created.\" ); \n        _; \n    }\n\n    modifier statusActive() { \n        require( status == CampaignStatus.ACTIVE, \n            \"The campaign status is not active.\" ); \n        _; \n    }\n\n    modifier statusClosed() { \n        require( status == CampaignStatus.SUCCESSFUL || status == CampaignStatus.FAIL, \n            \"The campaign status is not close yet.\" ); \n        _; \n    }\n\n    modifier proposalActive(uint _index) { \n        require( proposals[_index].status == ProposalStatus.ACTIVE, \n            \"The proposal is not longer active.\" ); \n        _; \n    }\n\n    modifier proposalApproved(uint _index) { \n        require( proposals[_index].status == ProposalStatus.APPROVED,\n            \"The proposal is not approved.\" ); \n        _; \n    }\n\n    modifier beInTimeProposal(uint _index) { \n        require ( block.timestamp <= proposals[_index].limitTime, \n            \"The proposal is close for voting.\" ); \n        _; \n    }\n\n    modifier passedTimeProposal(uint _index) { \n        require ( block.timestamp > proposals[_index].limitTime, \n            \"The proposal is still open for voting.\" ); \n        _; \n    }\n\n    modifier closeProposalActive(uint _index) {\n        require( closeProposals[_index].status == ProposalStatus.ACTIVE,\n            \"The close proposal is not longer active.\" );\n        _;\n    }\n\n    modifier closeProposalApproved(uint _index) {\n        require( closeProposals[_index].status == ProposalStatus.APPROVED,\n            \"The close proposal is not approved.\" );\n        _;\n    }\n\n    modifier beInTimeCloseProposal(uint _index) { \n        require ( block.timestamp <= closeProposals[_index].limitTime, \n            \"The close proposal is close for voting.\" ); \n        _; \n    }\n\n    modifier passedTimeCloseProposal(uint _index) { \n        require ( block.timestamp > closeProposals[_index].limitTime, \n            \"The close proposal is still open for voting.\" ); \n        _; \n    }\n\n\n    /* Events */\n\n    /** @dev Emitted when the author creates the campaign.\n     *  @param _ipfshash The url hash of the campaign data stored in IPFS.\n     */\n    event CampaignCreated(bytes32 _ipfshash);\n\n    /** @dev Emitted when a new person contributes with the campaign.\n     */\n    event NewContribution();\n\n    /** @dev Emitted when the author creates a proposal to free founds.\n     *  @param _ipfshash The url hash of the proposal data stored in IPFS.\n     */\n    event ProposalCreated(bytes32 _ipfshash);\n\n     /** @dev Emitted when a proposal is voted.\n     *  @param _index The index of the proposal.\n     */\n    event ProposalVoted(uint _index);\n\n    /** @dev Emitted when a proposal is Closed.\n     *  @param _index The index of the proposal.\n     */\n    event ProposalClosed(uint _index);\n\n    /** @dev Emitted when a proposal was release.\n     *  @param _index The index of the proposal.\n     */\n    event ProposalRelease(uint _index);\n\n     /** @dev Emitted when a member creates a proposal to close the campaign and get the founds back.\n     *  @param _ipfshash The url hash of the close proposal data stored in IPFS.\n     */\n    event CloseProposalCreated(bytes32 _ipfshash);\n\n    /** @dev Emitted when a close proposal is voted.\n     *  @param _index The index of the close proposal.\n     */\n    event CloseProposalVoted(uint _index);\n\n    /** @dev Emitted when a  close proposal is Closed.\n     *  @param _index The index of the close proposal.\n     */\n    event CloseProposalClosed(uint _index);\n\n    /** @dev Emitted when the author creates a progress update to show how the proyect is going.\n     *  @param _ipfshash The url hash of the progress update data stored in IPFS.\n     */\n    event ProgressUpdate(bytes32 _ipfshash);\n\n    /** @dev Emitted when the status of the campaign change.\n     */\n    event ChangeStatusCampaign();\n\n    /** @dev Emitted when a member withdraw his founds.\n     */\n    event withdrawFounds(address _member, uint contribution, uint goal, uint256 payment, uint founds);\n\n\n    /* Functions */\n\n    /** @dev Allow not members to contribute with the campaign and be a member of it.\n     */\n    function contribute() public notMembering statusCreated payable {\n        require(msg.value >= minimunContribution, \"The contribution is insuficient\");\n        contributions[msg.sender] = msg.value;\n        membersCount++;\n        emit NewContribution();\n    }\n\n    /** @dev Allow only owner to change the status of the cCampaign from CREATED to ACTIVE.\n     */\n    function setActive() public restricted statusCreated {\n        \n        require(address(this).balance >= goal,\"The contributions are insufficient\");\n        status = CampaignStatus.ACTIVE;\n        finalContributions = address(this).balance;\n\n        emit ChangeStatusCampaign();\n         \n    }\n\n    /** @dev Allow only owner to save a new progress Update data ipfs hash.\n     *  @param _ipfshash url hash of the progress update data (description and pictures) previusly stored in IPFS.\n     */\n    function saveProgressUpdate(bytes32 _ipfshash) \n        public restricted statusActive {\n        emit ProgressUpdate(_ipfshash); \n    }\n\n    /** @dev Allow only owner to create a new proposal to get more founds.\n     *  @param _value founds in wei that the owner want to release.\n     *  @param _recipient address where the founds are going to be after release them.\n     *  @param _ipfshash url hash of the proposal data (description and pictures) previusly stored in IPFS.\n     */\n    function createProposal(uint _value, address _recipient, bytes32 _ipfshash) \n        public restricted statusActive {\n\n        require(address(this).balance >= _value, \"The founds are insufficient\");\n\n        Proposal storage newProposal = proposals.push();\n        newProposal.recipient = _recipient;\n        newProposal.value = _value;\n        newProposal.approvalsCount = 0;\n        newProposal.disapprovalsCount = 0;\n        newProposal.status = ProposalStatus.ACTIVE;\n        newProposal.limitTime= block.timestamp + 7 days;\n\n        emit ProposalCreated(_ipfshash);\n        \n    }\n\n    /** @dev Allow only members to approve an active proposal that they haven't voted before.\n     *  @param _index index of the proposal the member wants to approve.\n     */\n    function approveProposal(uint _index) public membering statusActive proposalActive(_index) beInTimeProposal(_index) {\n\n        Proposal storage proposal = proposals[_index];\n        require(!proposal.voters[msg.sender], \"The proposal has been already voted by the sender\");\n\n        proposal.voters[msg.sender] = true;\n        proposal.approvalsCount++;\n\n        emit ProposalVoted(_index);        \n    }\n\n    /** @dev Allow only members to disapprove an active proposal that they haven't voted before.\n     *  @param _index index of the proposal the member wants to disapprove.\n     */\n    function disapproveProposal(uint _index) public membering statusActive proposalActive(_index) beInTimeProposal(_index) {\n\n        Proposal storage proposal = proposals[_index];\n        require(!proposal.voters[msg.sender], \"The proposal has been already voted by the sender\");\n\n        proposal.voters[msg.sender] = true;\n        proposal.disapprovalsCount++;\n        \n        emit ProposalVoted(_index);\n    }\n\n    /** @dev Allow only members to close an active proposal that already has its voting time over.\n     *  @param _index index of the proposal the member wants to approve.\n     */\n    function closeProposal(uint _index) public membering statusActive proposalActive(_index) passedTimeProposal(_index) {\n\n        Proposal storage proposal = proposals[_index];\n\n        if (proposal.approvalsCount > proposal.disapprovalsCount) {\n            proposal.status = ProposalStatus.APPROVED; \n        }\n        else {\n            proposal.status = ProposalStatus.DISAPPROVED;\n        }\n\n        emit ProposalClosed(_index);\n    }\n\n    /** @dev Allow only members to close an active proposal that already has its voting time over.\n     *  @param _index index of the proposal the member wants to approve.\n     */\n    function release(uint _index) public restricted statusActive proposalApproved(_index) {\n\n        Proposal storage proposal = proposals[_index];\n        proposal.status = ProposalStatus.SUCCESSFUL; \n        payable(proposal.recipient).transfer(proposal.value);\n        \n        emit ProposalRelease(_index);\n    }\n\n    /** @dev Allow only members to create a new proposal to finish de proyect and get the founds back.\n     *  @param _ipfshash url hash of the close proposal data (description) previusly stored in IPFS.\n     */\n    function createCloseProposal(bytes32 _ipfshash) public membering statusActive {\n\n        CloseProposal storage newCProposal = closeProposals.push();\n        newCProposal.approvalsCount = 0;\n        newCProposal.disapprovalsCount = 0;\n        newCProposal.status = ProposalStatus.ACTIVE;\n        newCProposal.limitTime= block.timestamp + 7 days;\n        newCProposal.author = msg.sender;\n\n        newCProposal.voters[msg.sender] = true;\n        newCProposal.approvalsCount++;\n\n        emit CloseProposalCreated(_ipfshash);\n         \n    }\n\n    /** @dev Allow only members to approve an active close proposal that they haven't voted before.\n     *  @param _index index of the close proposal the member wants to approve.\n     */\n    function approveCloseProposal(uint _index) public membering statusActive closeProposalActive(_index) beInTimeCloseProposal(_index) {\n\n        CloseProposal storage cProposal = closeProposals[_index];\n        require(!cProposal.voters[msg.sender], \"The close proposal has been already voted by the sender\");\n\n        cProposal.voters[msg.sender] = true;\n        cProposal.approvalsCount++;\n\n        emit CloseProposalVoted(_index);\n        \n    }\n\n    /** @dev Allow only members to disapprove an active close proposal that they haven't voted before.\n     *  @param _index index of the close proposal the member wants to disapprove.\n     */\n    function disapproveCloseProposal(uint _index) public membering statusActive closeProposalActive(_index) beInTimeCloseProposal(_index) {\n\n        CloseProposal storage cProposal = closeProposals[_index];\n        require(!cProposal.voters[msg.sender], \"The close proposal has been already voted by the sender\");\n\n        cProposal.voters[msg.sender] = true;\n        cProposal.disapprovalsCount++;\n\n        emit CloseProposalVoted(_index);\n        \n    }\n\n    /** @dev Allow only members to close an active proposal that already has its voting time over.\n     *  @param _index index of the proposal the member wants to approve.\n     */\n    function closeCloseProposal(uint _index) public membering statusActive closeProposalActive(_index) passedTimeCloseProposal(_index) {\n\n        CloseProposal storage cProposal = closeProposals[_index];\n\n        if (cProposal.approvalsCount > cProposal.disapprovalsCount) {\n            if (cProposal.author == owner) {\n                status = CampaignStatus.SUCCESSFUL;\n            } else {\n                status = CampaignStatus.FAIL;\n            }\n            cProposal.status = ProposalStatus.APPROVED; \n            remainingContributions = address(this).balance;\n        }\n        else {\n            cProposal.status = ProposalStatus.DISAPPROVED;\n        }\n\n        emit CloseProposalClosed(_index);\n        emit ChangeStatusCampaign();\n    }\n\n    /** @dev Allow only members to withdraw the remaining founds once the campaign is closed.\n     */\n    function withdraw() public membering statusClosed {\n\n        require( msg.sender != owner, \"Sender is the owner.\" );\n        require( !withdraws[msg.sender], \"Sender already withdraw his founds.\" );\n\n        uint256 payment = ((contributions[msg.sender]*remainingContributions) / finalContributions);\n        \n        require( payment < address(this).balance, \"Payment can't be more than balance.\");\n\n        payable(msg.sender).transfer(payment);\n        withdraws[msg.sender] = true;\n\n        emit withdrawFounds(msg.sender, contributions[msg.sender], finalContributions, payment, remainingContributions );\n    }\n\n\n     /* Aux functions */\n\n    /** @dev Function to return if someone is member.\n     */\n    function isMember(address _address) public view returns (bool) {\n        return contributions[_address]>0;\n    }\n\n    /** @dev Function to get the actual status of the campaign.\n     */\n    function getStatus() public view returns (CampaignStatus) {\n        return status;\n    }\n\n    /** @dev Function to get the finalContributions of the campaign.\n     */\n    function getFinalContributions() public view returns (uint) {\n        return finalContributions;\n    }\n\n    /** @dev Function to get the remainingContributions of the campaign.\n     */\n    function getRemainingContributions() public view returns (uint) {\n        return remainingContributions;\n    }\n\n    /** @dev Function to get the data of the campaign\n     */\n    function getCampaignInfo() public view returns (address, CampaignStatus, uint, uint, uint, uint, uint) {\n        return (owner, status, goal, minimunContribution, membersCount, finalContributions, remainingContributions);\n    } \n\n    /** @dev Function to get the data of a proposal.\n     *  @param _index index of the proposal to return\n     */\n    function getProposal(uint _index) public view returns (address, uint, uint, uint, ProposalStatus, uint, bool, bool) {\n        Proposal storage proposal = proposals[_index];\n        bool inTime = block.timestamp <= proposal.limitTime;\n        bool senderHasVote = proposal.voters[msg.sender];\n        return (proposal.recipient, proposal.value, proposal.approvalsCount, proposal.disapprovalsCount, proposal.status, proposal.limitTime, inTime, senderHasVote);\n    } \n\n     /** @dev Function to know if a member has already vot a proposal.\n     *  @param _index index of the proposal\n     */\n    function hasVotedProposal(uint _index) public view returns (bool) {\n        Proposal storage proposal = proposals[_index];\n        return proposal.voters[msg.sender];\n    } \n\n    /** @dev Function to get the total number of proposals.\n     */\n    function getProposalsCount() public view returns (uint) {\n        return proposals.length;\n    }\n\n    /** @dev Function to get the data of a close proposal.\n     *  @param _index index of the proposal to return\n     */\n    function getCloseProposal(uint _index) public view returns (uint, uint, ProposalStatus, uint, bool, bool, address) {\n        CloseProposal storage cProposal = closeProposals[_index];\n        bool inTime = block.timestamp <= cProposal.limitTime;\n        bool senderHasVote = cProposal.voters[msg.sender];\n        return (cProposal.approvalsCount, cProposal.disapprovalsCount, cProposal.status, cProposal.limitTime, inTime, senderHasVote, cProposal.author);\n    } \n\n    /** @dev Function to know if a member has already vot a close proposal.\n     *  @param _index index of the proposal\n     */\n    function hasVotedCloseProposal(uint _index) public view returns (bool) {\n        CloseProposal storage cProposal = closeProposals[_index];\n        return cProposal.voters[msg.sender];\n    } \n\n    /** @dev Function to get the total number of close proposals.\n     */\n    function getCloseProposalsCount() public view returns (uint) {\n        return closeProposals.length;\n    }\n   \n}",
  "sourcePath": "/home/tati/Desktop/personal/Tesina/semideas-crowdfunding/contracts/CrowdfundingCampaign.sol",
  "compiler": {
    "name": "solc",
    "version": "0.8.6+commit.11564f7e.Emscripten.clang"
  },
  "schemaVersion": "3.4.1",
  "updatedAt": "2021-07-12T00:39:08.846Z",
  "devdoc": {
    "events": {
      "CampaignCreated(bytes32)": {
        "details": "Emitted when the author creates the campaign.",
        "params": {
          "_ipfshash": "The url hash of the campaign data stored in IPFS."
        }
      },
      "ChangeStatusCampaign()": {
        "details": "Emitted when the status of the campaign change."
      },
      "CloseProposalClosed(uint256)": {
        "details": "Emitted when a  close proposal is Closed.",
        "params": {
          "_index": "The index of the close proposal."
        }
      },
      "CloseProposalCreated(bytes32)": {
        "details": "Emitted when a member creates a proposal to close the campaign and get the founds back.",
        "params": {
          "_ipfshash": "The url hash of the close proposal data stored in IPFS."
        }
      },
      "CloseProposalVoted(uint256)": {
        "details": "Emitted when a close proposal is voted.",
        "params": {
          "_index": "The index of the close proposal."
        }
      },
      "NewContribution()": {
        "details": "Emitted when a new person contributes with the campaign."
      },
      "ProgressUpdate(bytes32)": {
        "details": "Emitted when the author creates a progress update to show how the proyect is going.",
        "params": {
          "_ipfshash": "The url hash of the progress update data stored in IPFS."
        }
      },
      "ProposalClosed(uint256)": {
        "details": "Emitted when a proposal is Closed.",
        "params": {
          "_index": "The index of the proposal."
        }
      },
      "ProposalCreated(bytes32)": {
        "details": "Emitted when the author creates a proposal to free founds.",
        "params": {
          "_ipfshash": "The url hash of the proposal data stored in IPFS."
        }
      },
      "ProposalRelease(uint256)": {
        "details": "Emitted when a proposal was release.",
        "params": {
          "_index": "The index of the proposal."
        }
      },
      "ProposalVoted(uint256)": {
        "details": "Emitted when a proposal is voted.",
        "params": {
          "_index": "The index of the proposal."
        }
      },
      "withdrawFounds(address,uint256,uint256,uint256,uint256)": {
        "details": "Emitted when a member withdraw his founds."
      }
    },
    "kind": "dev",
    "methods": {
      "approveCloseProposal(uint256)": {
        "details": "Allow only members to approve an active close proposal that they haven't voted before.",
        "params": {
          "_index": "index of the close proposal the member wants to approve."
        }
      },
      "approveProposal(uint256)": {
        "details": "Allow only members to approve an active proposal that they haven't voted before.",
        "params": {
          "_index": "index of the proposal the member wants to approve."
        }
      },
      "closeCloseProposal(uint256)": {
        "details": "Allow only members to close an active proposal that already has its voting time over.",
        "params": {
          "_index": "index of the proposal the member wants to approve."
        }
      },
      "closeProposal(uint256)": {
        "details": "Allow only members to close an active proposal that already has its voting time over.",
        "params": {
          "_index": "index of the proposal the member wants to approve."
        }
      },
      "constructor": {
        "details": "Constructor.",
        "params": {
          "_goal": "goal in wei that the proyect has to reach to be succesfull.",
          "_ipfshash": "The url hash of the campaign data previusly stored in IPFS.*",
          "_minimunContribution": "minimum contribution in wei that a person has to make to become a member."
        }
      },
      "contribute()": {
        "details": "Allow not members to contribute with the campaign and be a member of it."
      },
      "createCloseProposal(bytes32)": {
        "details": "Allow only members to create a new proposal to finish de proyect and get the founds back.",
        "params": {
          "_ipfshash": "url hash of the close proposal data (description) previusly stored in IPFS."
        }
      },
      "createProposal(uint256,address,bytes32)": {
        "details": "Allow only owner to create a new proposal to get more founds.",
        "params": {
          "_ipfshash": "url hash of the proposal data (description and pictures) previusly stored in IPFS.",
          "_recipient": "address where the founds are going to be after release them.",
          "_value": "founds in wei that the owner want to release."
        }
      },
      "disapproveCloseProposal(uint256)": {
        "details": "Allow only members to disapprove an active close proposal that they haven't voted before.",
        "params": {
          "_index": "index of the close proposal the member wants to disapprove."
        }
      },
      "disapproveProposal(uint256)": {
        "details": "Allow only members to disapprove an active proposal that they haven't voted before.",
        "params": {
          "_index": "index of the proposal the member wants to disapprove."
        }
      },
      "getCampaignInfo()": {
        "details": "Function to get the data of the campaign"
      },
      "getCloseProposal(uint256)": {
        "details": "Function to get the data of a close proposal.",
        "params": {
          "_index": "index of the proposal to return"
        }
      },
      "getCloseProposalsCount()": {
        "details": "Function to get the total number of close proposals."
      },
      "getFinalContributions()": {
        "details": "Function to get the finalContributions of the campaign."
      },
      "getProposal(uint256)": {
        "details": "Function to get the data of a proposal.",
        "params": {
          "_index": "index of the proposal to return"
        }
      },
      "getProposalsCount()": {
        "details": "Function to get the total number of proposals."
      },
      "getRemainingContributions()": {
        "details": "Function to get the remainingContributions of the campaign."
      },
      "getStatus()": {
        "details": "Function to get the actual status of the campaign."
      },
      "hasVotedCloseProposal(uint256)": {
        "details": "Function to know if a member has already vot a close proposal.",
        "params": {
          "_index": "index of the proposal"
        }
      },
      "hasVotedProposal(uint256)": {
        "details": "Function to know if a member has already vot a proposal.",
        "params": {
          "_index": "index of the proposal"
        }
      },
      "isMember(address)": {
        "details": "Function to return if someone is member."
      },
      "release(uint256)": {
        "details": "Allow only members to close an active proposal that already has its voting time over.",
        "params": {
          "_index": "index of the proposal the member wants to approve."
        }
      },
      "saveProgressUpdate(bytes32)": {
        "details": "Allow only owner to save a new progress Update data ipfs hash.",
        "params": {
          "_ipfshash": "url hash of the progress update data (description and pictures) previusly stored in IPFS."
        }
      },
      "setActive()": {
        "details": "Allow only owner to change the status of the cCampaign from CREATED to ACTIVE."
      },
      "withdraw()": {
        "details": "Allow only members to withdraw the remaining founds once the campaign is closed."
      }
    },
    "version": 1
  },
  "userdoc": {
    "kind": "user",
    "methods": {},
    "version": 1
  }
}