{
  "contractName": "CrowdfundingCampaign",
  "abi": [
    {
      "inputs": [
        {
          "internalType": "uint256",
          "name": "_minimunContribution",
          "type": "uint256"
        },
        {
          "internalType": "uint256",
          "name": "_goal",
          "type": "uint256"
        },
        {
          "internalType": "bytes32",
          "name": "_ipfshash",
          "type": "bytes32"
        }
      ],
      "stateMutability": "nonpayable",
      "type": "constructor"
    },
    {
      "anonymous": false,
      "inputs": [
        {
          "indexed": false,
          "internalType": "bytes32",
          "name": "_ipfshash",
          "type": "bytes32"
        }
      ],
      "name": "CampaignCreated",
      "type": "event"
    },
    {
      "anonymous": false,
      "inputs": [
        {
          "indexed": false,
          "internalType": "enum CrowdfundingCampaign.CampaignStatus",
          "name": "status",
          "type": "uint8"
        }
      ],
      "name": "ChangeStatusCampaign",
      "type": "event"
    },
    {
      "anonymous": false,
      "inputs": [
        {
          "indexed": false,
          "internalType": "bytes32",
          "name": "_ipfshash",
          "type": "bytes32"
        }
      ],
      "name": "CloseProposalCreated",
      "type": "event"
    },
    {
      "anonymous": false,
      "inputs": [
        {
          "indexed": false,
          "internalType": "uint256",
          "name": "_index",
          "type": "uint256"
        }
      ],
      "name": "CloseProposalDissaproved",
      "type": "event"
    },
    {
      "anonymous": false,
      "inputs": [
        {
          "indexed": false,
          "internalType": "uint256",
          "name": "_index",
          "type": "uint256"
        }
      ],
      "name": "CloseProposalVoted",
      "type": "event"
    },
    {
      "anonymous": false,
      "inputs": [],
      "name": "NewContribution",
      "type": "event"
    },
    {
      "anonymous": false,
      "inputs": [
        {
          "indexed": false,
          "internalType": "bytes32",
          "name": "_ipfshash",
          "type": "bytes32"
        }
      ],
      "name": "ProgressUpdate",
      "type": "event"
    },
    {
      "anonymous": false,
      "inputs": [
        {
          "indexed": false,
          "internalType": "uint256",
          "name": "_index",
          "type": "uint256"
        }
      ],
      "name": "ProposalClosed",
      "type": "event"
    },
    {
      "anonymous": false,
      "inputs": [
        {
          "indexed": false,
          "internalType": "bytes32",
          "name": "_ipfshash",
          "type": "bytes32"
        }
      ],
      "name": "ProposalCreated",
      "type": "event"
    },
    {
      "anonymous": false,
      "inputs": [
        {
          "indexed": false,
          "internalType": "uint256",
          "name": "_index",
          "type": "uint256"
        }
      ],
      "name": "ProposalRelease",
      "type": "event"
    },
    {
      "anonymous": false,
      "inputs": [
        {
          "indexed": false,
          "internalType": "uint256",
          "name": "_index",
          "type": "uint256"
        }
      ],
      "name": "ProposalVoted",
      "type": "event"
    },
    {
      "anonymous": false,
      "inputs": [
        {
          "indexed": false,
          "internalType": "address",
          "name": "_member",
          "type": "address"
        },
        {
          "indexed": false,
          "internalType": "uint256",
          "name": "contribution",
          "type": "uint256"
        },
        {
          "indexed": false,
          "internalType": "uint256",
          "name": "finalContributions",
          "type": "uint256"
        },
        {
          "indexed": false,
          "internalType": "uint256",
          "name": "payment",
          "type": "uint256"
        },
        {
          "indexed": false,
          "internalType": "uint256",
          "name": "remainingContributions",
          "type": "uint256"
        }
      ],
      "name": "WithdrawFounds",
      "type": "event"
    },
    {
      "inputs": [
        {
          "internalType": "uint256",
          "name": "",
          "type": "uint256"
        }
      ],
      "name": "closeProposals",
      "outputs": [
        {
          "internalType": "uint256",
          "name": "approvalsCount",
          "type": "uint256"
        },
        {
          "internalType": "uint256",
          "name": "disapprovalsCount",
          "type": "uint256"
        },
        {
          "internalType": "enum CrowdfundingCampaign.ProposalStatus",
          "name": "status",
          "type": "uint8"
        },
        {
          "internalType": "uint256",
          "name": "limitTime",
          "type": "uint256"
        },
        {
          "internalType": "address",
          "name": "author",
          "type": "address"
        }
      ],
      "stateMutability": "view",
      "type": "function",
      "constant": true
    },
    {
      "inputs": [
        {
          "internalType": "address",
          "name": "",
          "type": "address"
        }
      ],
      "name": "contributions",
      "outputs": [
        {
          "internalType": "uint256",
          "name": "",
          "type": "uint256"
        }
      ],
      "stateMutability": "view",
      "type": "function",
      "constant": true
    },
    {
      "inputs": [],
      "name": "created_at",
      "outputs": [
        {
          "internalType": "uint256",
          "name": "",
          "type": "uint256"
        }
      ],
      "stateMutability": "view",
      "type": "function",
      "constant": true
    },
    {
      "inputs": [],
      "name": "finalContributions",
      "outputs": [
        {
          "internalType": "uint256",
          "name": "",
          "type": "uint256"
        }
      ],
      "stateMutability": "view",
      "type": "function",
      "constant": true
    },
    {
      "inputs": [],
      "name": "goal",
      "outputs": [
        {
          "internalType": "uint256",
          "name": "",
          "type": "uint256"
        }
      ],
      "stateMutability": "view",
      "type": "function",
      "constant": true
    },
    {
      "inputs": [],
      "name": "membersCount",
      "outputs": [
        {
          "internalType": "uint256",
          "name": "",
          "type": "uint256"
        }
      ],
      "stateMutability": "view",
      "type": "function",
      "constant": true
    },
    {
      "inputs": [],
      "name": "minimunContribution",
      "outputs": [
        {
          "internalType": "uint256",
          "name": "",
          "type": "uint256"
        }
      ],
      "stateMutability": "view",
      "type": "function",
      "constant": true
    },
    {
      "inputs": [],
      "name": "owner",
      "outputs": [
        {
          "internalType": "address",
          "name": "",
          "type": "address"
        }
      ],
      "stateMutability": "view",
      "type": "function",
      "constant": true
    },
    {
      "inputs": [
        {
          "internalType": "uint256",
          "name": "",
          "type": "uint256"
        }
      ],
      "name": "proposals",
      "outputs": [
        {
          "internalType": "uint256",
          "name": "value",
          "type": "uint256"
        },
        {
          "internalType": "address",
          "name": "recipient",
          "type": "address"
        },
        {
          "internalType": "uint256",
          "name": "approvalsCount",
          "type": "uint256"
        },
        {
          "internalType": "uint256",
          "name": "disapprovalsCount",
          "type": "uint256"
        },
        {
          "internalType": "enum CrowdfundingCampaign.ProposalStatus",
          "name": "status",
          "type": "uint8"
        },
        {
          "internalType": "uint256",
          "name": "limitTime",
          "type": "uint256"
        }
      ],
      "stateMutability": "view",
      "type": "function",
      "constant": true
    },
    {
      "inputs": [],
      "name": "remainingContributions",
      "outputs": [
        {
          "internalType": "uint256",
          "name": "",
          "type": "uint256"
        }
      ],
      "stateMutability": "view",
      "type": "function",
      "constant": true
    },
    {
      "inputs": [],
      "name": "status",
      "outputs": [
        {
          "internalType": "enum CrowdfundingCampaign.CampaignStatus",
          "name": "",
          "type": "uint8"
        }
      ],
      "stateMutability": "view",
      "type": "function",
      "constant": true
    },
    {
      "inputs": [
        {
          "internalType": "address",
          "name": "",
          "type": "address"
        }
      ],
      "name": "withdraws",
      "outputs": [
        {
          "internalType": "bool",
          "name": "",
          "type": "bool"
        }
      ],
      "stateMutability": "view",
      "type": "function",
      "constant": true
    },
    {
      "inputs": [],
      "name": "contribute",
      "outputs": [],
      "stateMutability": "payable",
      "type": "function",
      "payable": true
    },
    {
      "inputs": [],
      "name": "setActive",
      "outputs": [],
      "stateMutability": "nonpayable",
      "type": "function"
    },
    {
      "inputs": [
        {
          "internalType": "bytes32",
          "name": "_ipfshash",
          "type": "bytes32"
        }
      ],
      "name": "saveProgressUpdate",
      "outputs": [],
      "stateMutability": "nonpayable",
      "type": "function"
    },
    {
      "inputs": [
        {
          "internalType": "uint256",
          "name": "_value",
          "type": "uint256"
        },
        {
          "internalType": "address",
          "name": "_recipient",
          "type": "address"
        },
        {
          "internalType": "bytes32",
          "name": "_ipfshash",
          "type": "bytes32"
        }
      ],
      "name": "createProposal",
      "outputs": [],
      "stateMutability": "nonpayable",
      "type": "function"
    },
    {
      "inputs": [
        {
          "internalType": "uint256",
          "name": "_index",
          "type": "uint256"
        }
      ],
      "name": "approveProposal",
      "outputs": [],
      "stateMutability": "nonpayable",
      "type": "function"
    },
    {
      "inputs": [
        {
          "internalType": "uint256",
          "name": "_index",
          "type": "uint256"
        }
      ],
      "name": "disapproveProposal",
      "outputs": [],
      "stateMutability": "nonpayable",
      "type": "function"
    },
    {
      "inputs": [
        {
          "internalType": "uint256",
          "name": "_index",
          "type": "uint256"
        }
      ],
      "name": "closeProposal",
      "outputs": [],
      "stateMutability": "nonpayable",
      "type": "function"
    },
    {
      "inputs": [
        {
          "internalType": "uint256",
          "name": "_index",
          "type": "uint256"
        }
      ],
      "name": "release",
      "outputs": [],
      "stateMutability": "nonpayable",
      "type": "function"
    },
    {
      "inputs": [
        {
          "internalType": "bytes32",
          "name": "_ipfshash",
          "type": "bytes32"
        }
      ],
      "name": "createCloseProposal",
      "outputs": [],
      "stateMutability": "nonpayable",
      "type": "function"
    },
    {
      "inputs": [
        {
          "internalType": "uint256",
          "name": "_index",
          "type": "uint256"
        }
      ],
      "name": "approveCloseProposal",
      "outputs": [],
      "stateMutability": "nonpayable",
      "type": "function"
    },
    {
      "inputs": [
        {
          "internalType": "uint256",
          "name": "_index",
          "type": "uint256"
        }
      ],
      "name": "disapproveCloseProposal",
      "outputs": [],
      "stateMutability": "nonpayable",
      "type": "function"
    },
    {
      "inputs": [
        {
          "internalType": "uint256",
          "name": "_index",
          "type": "uint256"
        }
      ],
      "name": "closeCloseProposal",
      "outputs": [],
      "stateMutability": "nonpayable",
      "type": "function"
    },
    {
      "inputs": [],
      "name": "withdraw",
      "outputs": [],
      "stateMutability": "nonpayable",
      "type": "function"
    },
    {
      "inputs": [
        {
          "internalType": "address",
          "name": "_address",
          "type": "address"
        }
      ],
      "name": "isMember",
      "outputs": [
        {
          "internalType": "bool",
          "name": "",
          "type": "bool"
        }
      ],
      "stateMutability": "view",
      "type": "function",
      "constant": true
    },
    {
      "inputs": [],
      "name": "getStatus",
      "outputs": [
        {
          "internalType": "enum CrowdfundingCampaign.CampaignStatus",
          "name": "",
          "type": "uint8"
        }
      ],
      "stateMutability": "view",
      "type": "function",
      "constant": true
    },
    {
      "inputs": [],
      "name": "getFinalContributions",
      "outputs": [
        {
          "internalType": "uint256",
          "name": "",
          "type": "uint256"
        }
      ],
      "stateMutability": "view",
      "type": "function",
      "constant": true
    },
    {
      "inputs": [],
      "name": "getRemainingContributions",
      "outputs": [
        {
          "internalType": "uint256",
          "name": "",
          "type": "uint256"
        }
      ],
      "stateMutability": "view",
      "type": "function",
      "constant": true
    },
    {
      "inputs": [],
      "name": "getBalancesInfo",
      "outputs": [
        {
          "internalType": "uint256",
          "name": "_goal",
          "type": "uint256"
        },
        {
          "internalType": "uint256",
          "name": "_finalContributions",
          "type": "uint256"
        },
        {
          "internalType": "uint256",
          "name": "_remainingContributions",
          "type": "uint256"
        },
        {
          "internalType": "uint256",
          "name": "_balance",
          "type": "uint256"
        }
      ],
      "stateMutability": "view",
      "type": "function",
      "constant": true
    },
    {
      "inputs": [],
      "name": "getCampaignInfo",
      "outputs": [
        {
          "internalType": "address",
          "name": "_owner",
          "type": "address"
        },
        {
          "internalType": "enum CrowdfundingCampaign.CampaignStatus",
          "name": "_status",
          "type": "uint8"
        },
        {
          "internalType": "uint256",
          "name": "_goal",
          "type": "uint256"
        },
        {
          "internalType": "uint256",
          "name": "_minimunContribution",
          "type": "uint256"
        },
        {
          "internalType": "uint256",
          "name": "_membersCount",
          "type": "uint256"
        },
        {
          "internalType": "uint256",
          "name": "_finalContributions",
          "type": "uint256"
        },
        {
          "internalType": "uint256",
          "name": "_remainingContributions",
          "type": "uint256"
        },
        {
          "internalType": "bool",
          "name": "_out_grace_period",
          "type": "bool"
        }
      ],
      "stateMutability": "view",
      "type": "function",
      "constant": true
    },
    {
      "inputs": [
        {
          "internalType": "uint256",
          "name": "_index",
          "type": "uint256"
        }
      ],
      "name": "getProposal",
      "outputs": [
        {
          "internalType": "address",
          "name": "_recipient",
          "type": "address"
        },
        {
          "internalType": "uint256",
          "name": "_value",
          "type": "uint256"
        },
        {
          "internalType": "uint256",
          "name": "_approvalsCount",
          "type": "uint256"
        },
        {
          "internalType": "uint256",
          "name": "_disapprovalsCount",
          "type": "uint256"
        },
        {
          "internalType": "enum CrowdfundingCampaign.ProposalStatus",
          "name": "_status",
          "type": "uint8"
        },
        {
          "internalType": "uint256",
          "name": "_limitTime",
          "type": "uint256"
        },
        {
          "internalType": "bool",
          "name": "_inTime",
          "type": "bool"
        },
        {
          "internalType": "bool",
          "name": "_senderHasVote",
          "type": "bool"
        }
      ],
      "stateMutability": "view",
      "type": "function",
      "constant": true
    },
    {
      "inputs": [
        {
          "internalType": "uint256",
          "name": "_index",
          "type": "uint256"
        }
      ],
      "name": "hasVotedProposal",
      "outputs": [
        {
          "internalType": "bool",
          "name": "",
          "type": "bool"
        }
      ],
      "stateMutability": "view",
      "type": "function",
      "constant": true
    },
    {
      "inputs": [],
      "name": "getProposalsCount",
      "outputs": [
        {
          "internalType": "uint256",
          "name": "",
          "type": "uint256"
        }
      ],
      "stateMutability": "view",
      "type": "function",
      "constant": true
    },
    {
      "inputs": [
        {
          "internalType": "uint256",
          "name": "_index",
          "type": "uint256"
        }
      ],
      "name": "getCloseProposal",
      "outputs": [
        {
          "internalType": "uint256",
          "name": "_approvalsCount",
          "type": "uint256"
        },
        {
          "internalType": "uint256",
          "name": "_disapprovalsCount",
          "type": "uint256"
        },
        {
          "internalType": "enum CrowdfundingCampaign.ProposalStatus",
          "name": "_status",
          "type": "uint8"
        },
        {
          "internalType": "uint256",
          "name": "_limitTime",
          "type": "uint256"
        },
        {
          "internalType": "bool",
          "name": "_inTime",
          "type": "bool"
        },
        {
          "internalType": "bool",
          "name": "_senderHasVote",
          "type": "bool"
        },
        {
          "internalType": "address",
          "name": "_author",
          "type": "address"
        }
      ],
      "stateMutability": "view",
      "type": "function",
      "constant": true
    },
    {
      "inputs": [
        {
          "internalType": "uint256",
          "name": "_index",
          "type": "uint256"
        }
      ],
      "name": "hasVotedCloseProposal",
      "outputs": [
        {
          "internalType": "bool",
          "name": "",
          "type": "bool"
        }
      ],
      "stateMutability": "view",
      "type": "function",
      "constant": true
    },
    {
      "inputs": [],
      "name": "getCloseProposalsCount",
      "outputs": [
        {
          "internalType": "uint256",
          "name": "",
          "type": "uint256"
        }
      ],
      "stateMutability": "view",
      "type": "function",
      "constant": true
    },
    {
      "inputs": [],
      "name": "hasWithdraw",
      "outputs": [
        {
          "internalType": "bool",
          "name": "",
          "type": "bool"
        }
      ],
      "stateMutability": "view",
      "type": "function",
      "constant": true
    }
  ],
  "bytecode": "0x60806040523480156200001157600080fd5b5060405162004e0f38038062004e0f833981810160405281019062000037919062000132565b33600060016101000a81548173ffffffffffffffffffffffffffffffffffffffff021916908373ffffffffffffffffffffffffffffffffffffffff160217905550816001819055508260028190555060008060006101000a81548160ff02191690836003811115620000ae57620000ad620001d0565b5b02179055506000600381905550426006819055507f0f627713f9c831a1b079924dedde3308e90d22b754bdd481f9b2165aa0f9dfb981604051620000f391906200019f565b60405180910390a150505062000238565b600081519050620001158162000204565b92915050565b6000815190506200012c816200021e565b92915050565b6000806000606084860312156200014e576200014d620001ff565b5b60006200015e868287016200011b565b935050602062000171868287016200011b565b9250506040620001848682870162000104565b9150509250925092565b6200019981620001bc565b82525050565b6000602082019050620001b660008301846200018e565b92915050565b6000819050919050565b6000819050919050565b7f4e487b7100000000000000000000000000000000000000000000000000000000600052602160045260246000fd5b600080fd5b6200020f81620001bc565b81146200021b57600080fd5b50565b6200022981620001c6565b81146200023557600080fd5b50565b614bc780620002486000396000f3fe6080604052600436106102255760003560e01c806384b519b911610123578063c7f758a8116100ab578063de3f3ae01161006f578063de3f3ae01461080e578063edbd0db814610837578063eeda051814610862578063f7268f2f1461089f578063fa65a131146108c857610225565b8063c7f758a81461073a578063c8541fe01461077e578063d6290cd7146107a7578063d7bb99ba146107d9578063d853ba73146107e357610225565b806398951b56116100f257806398951b561461065357806398e527d31461067c5780639c6f0d85146106a7578063a230c524146106d2578063a7f337151461070f57610225565b806384b519b9146105925780638da5cb5b146105cf578063917d3a4f146105fa578063950eeba91461062557610225565b806340193883116101b15780634e69d560116101755780634e69d560146104d35780634f92c925146104fe57806351c36c1e14610529578063760a8c2a1461055257806384980e831461056957610225565b806340193883146103aa57806342e94c90146103d557806343a41c8f1461041257806348179ee5146104555780634de583fb1461049257610225565b8063200d2ed2116101f8578063200d2ed2146102eb578063297f9af01461031657806337bdc99b146103415780633b047a8f1461036a5780633ccfd60b1461039357610225565b80630126f61e1461022a578063013cf08b146102555780630386a0161461029757806304095005146102c0575b600080fd5b34801561023657600080fd5b5061023f6108f1565b60405161024c9190614120565b60405180910390f35b34801561026157600080fd5b5061027c60048036038101906102779190613886565b6108f7565b60405161028e9695949392919061413b565b60405180910390f35b3480156102a357600080fd5b506102be60048036038101906102b99190613886565b610970565b005b3480156102cc57600080fd5b506102d5610c93565b6040516102e29190614120565b60405180910390f35b3480156102f757600080fd5b50610300610ca0565b60405161030d9190613e25565b60405180910390f35b34801561032257600080fd5b5061032b610cb1565b6040516103389190614120565b60405180910390f35b34801561034d57600080fd5b5061036860048036038101906103639190613886565b610cb7565b005b34801561037657600080fd5b50610391600480360381019061038c9190613859565b610f53565b005b34801561039f57600080fd5b506103a8611091565b005b3480156103b657600080fd5b506103bf6114fc565b6040516103cc9190614120565b60405180910390f35b3480156103e157600080fd5b506103fc60048036038101906103f7919061382c565b611502565b6040516104099190614120565b60405180910390f35b34801561041e57600080fd5b5061043960048036038101906104349190613886565b61151a565b60405161044c97969594939291906141ef565b60405180910390f35b34801561046157600080fd5b5061047c6004803603810190610477919061382c565b611601565b6040516104899190613def565b60405180910390f35b34801561049e57600080fd5b506104b960048036038101906104b49190613886565b611621565b6040516104ca95949392919061419c565b60405180910390f35b3480156104df57600080fd5b506104e8611694565b6040516104f59190613e25565b60405180910390f35b34801561050a57600080fd5b506105136116aa565b6040516105209190614120565b60405180910390f35b34801561053557600080fd5b50610550600480360381019061054b91906138b3565b6116b4565b005b34801561055e57600080fd5b50610567611900565b005b34801561057557600080fd5b50610590600480360381019061058b9190613886565b611ac0565b005b34801561059e57600080fd5b506105b960048036038101906105b49190613886565b611eb3565b6040516105c69190613def565b60405180910390f35b3480156105db57600080fd5b506105e4611f31565b6040516105f19190613c85565b60405180910390f35b34801561060657600080fd5b5061060f611f57565b60405161061c9190613def565b60405180910390f35b34801561063157600080fd5b5061063a611fab565b60405161064a949392919061425e565b60405180910390f35b34801561065f57600080fd5b5061067a60048036038101906106759190613886565b611fc9565b005b34801561068857600080fd5b50610691612380565b60405161069e9190614120565b60405180910390f35b3480156106b357600080fd5b506106bc61238d565b6040516106c99190614120565b60405180910390f35b3480156106de57600080fd5b506106f960048036038101906106f4919061382c565b612393565b6040516107069190613def565b60405180910390f35b34801561071b57600080fd5b506107246123de565b6040516107319190614120565b60405180910390f35b34801561074657600080fd5b50610761600480360381019061075c9190613886565b6123e4565b604051610775989796959493929190613d1e565b60405180910390f35b34801561078a57600080fd5b506107a560048036038101906107a09190613886565b6124d4565b005b3480156107b357600080fd5b506107bc61288b565b6040516107d0989796959493929190613ca0565b60405180910390f35b6107e1612905565b005b3480156107ef57600080fd5b506107f8612b24565b6040516108059190614120565b60405180910390f35b34801561081a57600080fd5b5061083560048036038101906108309190613886565b612b2a565b005b34801561084357600080fd5b5061084c612fa8565b6040516108599190614120565b60405180910390f35b34801561086e57600080fd5b5061088960048036038101906108849190613886565b612fb2565b6040516108969190613def565b60405180910390f35b3480156108ab57600080fd5b506108c660048036038101906108c19190613859565b613030565b005b3480156108d457600080fd5b506108ef60048036038101906108ea9190613886565b6133fa565b005b60045481565b6009818154811061090757600080fd5b90600052602060002090600702016000915090508060000154908060010160009054906101000a900473ffffffffffffffffffffffffffffffffffffffff16908060020154908060030154908060050160009054906101000a900460ff16908060060154905086565b6000600760003373ffffffffffffffffffffffffffffffffffffffff1673ffffffffffffffffffffffffffffffffffffffff168152602001908152602001600020541180610a0b5750600060019054906101000a900473ffffffffffffffffffffffffffffffffffffffff1673ffffffffffffffffffffffffffffffffffffffff163373ffffffffffffffffffffffffffffffffffffffff16145b610a4a576040517f08c379a0000000000000000000000000000000000000000000000000000000008152600401610a4190613e60565b60405180910390fd5b60016003811115610a5e57610a5d6144d8565b5b60008054906101000a900460ff166003811115610a7e57610a7d6144d8565b5b14610abe576040517f08c379a0000000000000000000000000000000000000000000000000000000008152600401610ab590613fe0565b60405180910390fd5b8060006003811115610ad357610ad26144d8565b5b60098281548110610ae757610ae6614507565b5b906000526020600020906007020160050160009054906101000a900460ff166003811115610b1857610b176144d8565b5b14610b58576040517f08c379a0000000000000000000000000000000000000000000000000000000008152600401610b4f90614100565b60405180910390fd5b8160098181548110610b6d57610b6c614507565b5b9060005260206000209060070201600601544211610bc0576040517f08c379a0000000000000000000000000000000000000000000000000000000008152600401610bb7906140c0565b60405180910390fd5b600060098481548110610bd657610bd5614507565b5b90600052602060002090600702019050806003015481600201541115610c285760018160050160006101000a81548160ff02191690836003811115610c1e57610c1d6144d8565b5b0217905550610c56565b60028160050160006101000a81548160ff02191690836003811115610c5057610c4f6144d8565b5b02179055505b7f887777ccf43690541bed9e00b10d0fccfa7520b11875f09847a57b3085d8ab9284604051610c859190614120565b60405180910390a150505050565b6000600a80549050905090565b60008054906101000a900460ff1681565b60035481565b600060019054906101000a900473ffffffffffffffffffffffffffffffffffffffff1673ffffffffffffffffffffffffffffffffffffffff163373ffffffffffffffffffffffffffffffffffffffff1614610d47576040517f08c379a0000000000000000000000000000000000000000000000000000000008152600401610d3e90613f00565b60405180910390fd5b60016003811115610d5b57610d5a6144d8565b5b60008054906101000a900460ff166003811115610d7b57610d7a6144d8565b5b14610dbb576040517f08c379a0000000000000000000000000000000000000000000000000000000008152600401610db290613fe0565b60405180910390fd5b8060016003811115610dd057610dcf6144d8565b5b60098281548110610de457610de3614507565b5b906000526020600020906007020160050160009054906101000a900460ff166003811115610e1557610e146144d8565b5b14610e55576040517f08c379a0000000000000000000000000000000000000000000000000000000008152600401610e4c90613fa0565b60405180910390fd5b600060098381548110610e6b57610e6a614507565b5b9060005260206000209060070201905060038160050160006101000a81548160ff02191690836003811115610ea357610ea26144d8565b5b02179055508060010160009054906101000a900473ffffffffffffffffffffffffffffffffffffffff1673ffffffffffffffffffffffffffffffffffffffff166108fc82600001549081150290604051600060405180830381858888f19350505050158015610f16573d6000803e3d6000fd5b507fe02fec677757e427d1b6e49fcaf5bb9a6dd94e9fed2a2cc3c764c95deceff5b783604051610f469190614120565b60405180910390a1505050565b600060019054906101000a900473ffffffffffffffffffffffffffffffffffffffff1673ffffffffffffffffffffffffffffffffffffffff163373ffffffffffffffffffffffffffffffffffffffff1614610fe3576040517f08c379a0000000000000000000000000000000000000000000000000000000008152600401610fda90613f00565b60405180910390fd5b60016003811115610ff757610ff66144d8565b5b60008054906101000a900460ff166003811115611017576110166144d8565b5b14611057576040517f08c379a000000000000000000000000000000000000000000000000000000000815260040161104e90613fe0565b60405180910390fd5b7f2f8af70d91e96a23b8111e37a9117f7cfe341f51c17759c36475a1a7698f0dc3816040516110869190613e0a565b60405180910390a150565b6000600760003373ffffffffffffffffffffffffffffffffffffffff1673ffffffffffffffffffffffffffffffffffffffff16815260200190815260200160002054118061112c5750600060019054906101000a900473ffffffffffffffffffffffffffffffffffffffff1673ffffffffffffffffffffffffffffffffffffffff163373ffffffffffffffffffffffffffffffffffffffff16145b61116b576040517f08c379a000000000000000000000000000000000000000000000000000000000815260040161116290613e60565b60405180910390fd5b60038081111561117e5761117d6144d8565b5b60008054906101000a900460ff16600381111561119e5761119d6144d8565b5b14806111db5750600260038111156111b9576111b86144d8565b5b60008054906101000a900460ff1660038111156111d9576111d86144d8565b5b145b61121a576040517f08c379a000000000000000000000000000000000000000000000000000000000815260040161121190614020565b60405180910390fd5b600060019054906101000a900473ffffffffffffffffffffffffffffffffffffffff1673ffffffffffffffffffffffffffffffffffffffff163373ffffffffffffffffffffffffffffffffffffffff1614156112ab576040517f08c379a00000000000000000000000000000000000000000000000000000000081526004016112a290613ec0565b60405180910390fd5b600860003373ffffffffffffffffffffffffffffffffffffffff1673ffffffffffffffffffffffffffffffffffffffff16815260200190815260200160002060009054906101000a900460ff1615611338576040517f08c379a000000000000000000000000000000000000000000000000000000000815260040161132f90614040565b60405180910390fd5b6000600454600554600760003373ffffffffffffffffffffffffffffffffffffffff1673ffffffffffffffffffffffffffffffffffffffff1681526020019081526020016000205461138a919061433b565b611394919061430a565b90504781106113d8576040517f08c379a00000000000000000000000000000000000000000000000000000000081526004016113cf90613f80565b60405180910390fd5b6001600860003373ffffffffffffffffffffffffffffffffffffffff1673ffffffffffffffffffffffffffffffffffffffff16815260200190815260200160002060006101000a81548160ff0219169083151502179055503373ffffffffffffffffffffffffffffffffffffffff166108fc829081150290604051600060405180830381858888f19350505050158015611476573d6000803e3d6000fd5b507fd909df4e8579b4c6decf4c3bb6d9fa1ada906d6befef28e61a368945105568a033600760003373ffffffffffffffffffffffffffffffffffffffff1673ffffffffffffffffffffffffffffffffffffffff16815260200190815260200160002054600454846005546040516114f1959493929190613d9c565b60405180910390a150565b60015481565b60076020528060005260406000206000915090505481565b600080600080600080600080600a898154811061153a57611539614507565b5b9060005260206000209060060201905080600001549750806001015496508060030160009054906101000a900460ff16955080600401549450806004015442111593508060020160003373ffffffffffffffffffffffffffffffffffffffff1673ffffffffffffffffffffffffffffffffffffffff16815260200190815260200160002060009054906101000a900460ff1692508060050160009054906101000a900473ffffffffffffffffffffffffffffffffffffffff16915050919395979092949650565b60086020528060005260406000206000915054906101000a900460ff1681565b600a818154811061163157600080fd5b90600052602060002090600602016000915090508060000154908060010154908060030160009054906101000a900460ff16908060040154908060050160009054906101000a900473ffffffffffffffffffffffffffffffffffffffff16905085565b60008060009054906101000a900460ff16905090565b6000600554905090565b600060019054906101000a900473ffffffffffffffffffffffffffffffffffffffff1673ffffffffffffffffffffffffffffffffffffffff163373ffffffffffffffffffffffffffffffffffffffff1614611744576040517f08c379a000000000000000000000000000000000000000000000000000000000815260040161173b90613f00565b60405180910390fd5b60016003811115611758576117576144d8565b5b60008054906101000a900460ff166003811115611778576117776144d8565b5b146117b8576040517f08c379a00000000000000000000000000000000000000000000000000000000081526004016117af90613fe0565b60405180910390fd5b824710156117fb576040517f08c379a00000000000000000000000000000000000000000000000000000000081526004016117f290613f40565b60405180910390fd5b600060096001816001815401808255809150500390600052602060002090600702019050828160010160006101000a81548173ffffffffffffffffffffffffffffffffffffffff021916908373ffffffffffffffffffffffffffffffffffffffff160217905550838160000181905550600081600201819055506000816003018190555060008160050160006101000a81548160ff021916908360038111156118a7576118a66144d8565b5b021790555062093a80426118bb91906142b4565b81600601819055507f288a29bca04edb18fcdb2c76d6e3b03b8a137c85c70d1a4cb8aacfa868d60510826040516118f29190613e0a565b60405180910390a150505050565b600060019054906101000a900473ffffffffffffffffffffffffffffffffffffffff1673ffffffffffffffffffffffffffffffffffffffff163373ffffffffffffffffffffffffffffffffffffffff1614611990576040517f08c379a000000000000000000000000000000000000000000000000000000000815260040161198790613f00565b60405180910390fd5b600060038111156119a4576119a36144d8565b5b60008054906101000a900460ff1660038111156119c4576119c36144d8565b5b14611a04576040517f08c379a00000000000000000000000000000000000000000000000000000000081526004016119fb90614080565b60405180910390fd5b600154471015611a49576040517f08c379a0000000000000000000000000000000000000000000000000000000008152600401611a4090613fc0565b60405180910390fd5b60016000806101000a81548160ff02191690836003811115611a6e57611a6d6144d8565b5b0217905550476004819055507fce02f1b75f3f35b42d342c4fb8e7e8020a8beafd3103a6b554207caaedd3c4aa60008054906101000a900460ff16604051611ab69190613e25565b60405180910390a1565b6000600760003373ffffffffffffffffffffffffffffffffffffffff1673ffffffffffffffffffffffffffffffffffffffff168152602001908152602001600020541180611b5b5750600060019054906101000a900473ffffffffffffffffffffffffffffffffffffffff1673ffffffffffffffffffffffffffffffffffffffff163373ffffffffffffffffffffffffffffffffffffffff16145b611b9a576040517f08c379a0000000000000000000000000000000000000000000000000000000008152600401611b9190613e60565b60405180910390fd5b60016003811115611bae57611bad6144d8565b5b60008054906101000a900460ff166003811115611bce57611bcd6144d8565b5b1480611c0b575060006003811115611be957611be86144d8565b5b60008054906101000a900460ff166003811115611c0957611c086144d8565b5b145b611c4a576040517f08c379a0000000000000000000000000000000000000000000000000000000008152600401611c41906140a0565b60405180910390fd5b8060006003811115611c5f57611c5e6144d8565b5b600a8281548110611c7357611c72614507565b5b906000526020600020906006020160030160009054906101000a900460ff166003811115611ca457611ca36144d8565b5b14611ce4576040517f08c379a0000000000000000000000000000000000000000000000000000000008152600401611cdb906140e0565b60405180910390fd5b81600a8181548110611cf957611cf8614507565b5b906000526020600020906006020160040154421115611d4d576040517f08c379a0000000000000000000000000000000000000000000000000000000008152600401611d4490613f60565b60405180910390fd5b6000600a8481548110611d6357611d62614507565b5b906000526020600020906006020190508060020160003373ffffffffffffffffffffffffffffffffffffffff1673ffffffffffffffffffffffffffffffffffffffff16815260200190815260200160002060009054906101000a900460ff1615611e02576040517f08c379a0000000000000000000000000000000000000000000000000000000008152600401611df990614060565b60405180910390fd5b60018160020160003373ffffffffffffffffffffffffffffffffffffffff1673ffffffffffffffffffffffffffffffffffffffff16815260200190815260200160002060006101000a81548160ff021916908315150217905550806000016000815480929190611e7190614431565b91905055507f53c1eb0055cc9dbfe4823171931d9ec63b8682244ed5778661bb94ba2075f8c684604051611ea59190614120565b60405180910390a150505050565b600080600a8381548110611eca57611ec9614507565b5b906000526020600020906006020190508060020160003373ffffffffffffffffffffffffffffffffffffffff1673ffffffffffffffffffffffffffffffffffffffff16815260200190815260200160002060009054906101000a900460ff16915050919050565b600060019054906101000a900473ffffffffffffffffffffffffffffffffffffffff1681565b6000600860003373ffffffffffffffffffffffffffffffffffffffff1673ffffffffffffffffffffffffffffffffffffffff16815260200190815260200160002060009054906101000a900460ff16905090565b60008060008060015493506004549250600554915047905090919293565b6000600760003373ffffffffffffffffffffffffffffffffffffffff1673ffffffffffffffffffffffffffffffffffffffff1681526020019081526020016000205411806120645750600060019054906101000a900473ffffffffffffffffffffffffffffffffffffffff1673ffffffffffffffffffffffffffffffffffffffff163373ffffffffffffffffffffffffffffffffffffffff16145b6120a3576040517f08c379a000000000000000000000000000000000000000000000000000000000815260040161209a90613e60565b60405180910390fd5b600160038111156120b7576120b66144d8565b5b60008054906101000a900460ff1660038111156120d7576120d66144d8565b5b14612117576040517f08c379a000000000000000000000000000000000000000000000000000000000815260040161210e90613fe0565b60405180910390fd5b806000600381111561212c5761212b6144d8565b5b600982815481106121405761213f614507565b5b906000526020600020906007020160050160009054906101000a900460ff166003811115612171576121706144d8565b5b146121b1576040517f08c379a00000000000000000000000000000000000000000000000000000000081526004016121a890614100565b60405180910390fd5b81600981815481106121c6576121c5614507565b5b90600052602060002090600702016006015442111561221a576040517f08c379a000000000000000000000000000000000000000000000000000000000815260040161221190613f20565b60405180910390fd5b6000600984815481106122305761222f614507565b5b906000526020600020906007020190508060040160003373ffffffffffffffffffffffffffffffffffffffff1673ffffffffffffffffffffffffffffffffffffffff16815260200190815260200160002060009054906101000a900460ff16156122cf576040517f08c379a00000000000000000000000000000000000000000000000000000000081526004016122c690614000565b60405180910390fd5b60018160040160003373ffffffffffffffffffffffffffffffffffffffff1673ffffffffffffffffffffffffffffffffffffffff16815260200190815260200160002060006101000a81548160ff02191690831515021790555080600201600081548092919061233e90614431565b91905055507f26b645fdecdf266f3abc5b7ae3e796ffd297febba8bd3a8ad49c68435190fc69846040516123729190614120565b60405180910390a150505050565b6000600980549050905090565b60065481565b600080600760008473ffffffffffffffffffffffffffffffffffffffff1673ffffffffffffffffffffffffffffffffffffffff16815260200190815260200160002054119050919050565b60025481565b600080600080600080600080600060098a8154811061240657612405614507565b5b906000526020600020906007020190508060010160009054906101000a900473ffffffffffffffffffffffffffffffffffffffff1698508060000154975080600201549650806003015495508060050160009054906101000a900460ff16945080600601549350806006015442111592508060040160003373ffffffffffffffffffffffffffffffffffffffff1673ffffffffffffffffffffffffffffffffffffffff16815260200190815260200160002060009054906101000a900460ff16915050919395975091939597565b6000600760003373ffffffffffffffffffffffffffffffffffffffff1673ffffffffffffffffffffffffffffffffffffffff16815260200190815260200160002054118061256f5750600060019054906101000a900473ffffffffffffffffffffffffffffffffffffffff1673ffffffffffffffffffffffffffffffffffffffff163373ffffffffffffffffffffffffffffffffffffffff16145b6125ae576040517f08c379a00000000000000000000000000000000000000000000000000000000081526004016125a590613e60565b60405180910390fd5b600160038111156125c2576125c16144d8565b5b60008054906101000a900460ff1660038111156125e2576125e16144d8565b5b14612622576040517f08c379a000000000000000000000000000000000000000000000000000000000815260040161261990613fe0565b60405180910390fd5b8060006003811115612637576126366144d8565b5b6009828154811061264b5761264a614507565b5b906000526020600020906007020160050160009054906101000a900460ff16600381111561267c5761267b6144d8565b5b146126bc576040517f08c379a00000000000000000000000000000000000000000000000000000000081526004016126b390614100565b60405180910390fd5b81600981815481106126d1576126d0614507565b5b906000526020600020906007020160060154421115612725576040517f08c379a000000000000000000000000000000000000000000000000000000000815260040161271c90613f20565b60405180910390fd5b60006009848154811061273b5761273a614507565b5b906000526020600020906007020190508060040160003373ffffffffffffffffffffffffffffffffffffffff1673ffffffffffffffffffffffffffffffffffffffff16815260200190815260200160002060009054906101000a900460ff16156127da576040517f08c379a00000000000000000000000000000000000000000000000000000000081526004016127d190614000565b60405180910390fd5b60018160040160003373ffffffffffffffffffffffffffffffffffffffff1673ffffffffffffffffffffffffffffffffffffffff16815260200190815260200160002060006101000a81548160ff02191690831515021790555080600301600081548092919061284990614431565b91905055507f26b645fdecdf266f3abc5b7ae3e796ffd297febba8bd3a8ad49c68435190fc698460405161287d9190614120565b60405180910390a150505050565b600080600080600080600080600060019054906101000a900473ffffffffffffffffffffffffffffffffffffffff16975060008054906101000a900460ff1696506001549550600254945060035493506004549250600554915042621275006006546128f791906142b4565b111590509091929394959697565b6000600760003373ffffffffffffffffffffffffffffffffffffffff1673ffffffffffffffffffffffffffffffffffffffff168152602001908152602001600020541480156129a25750600060019054906101000a900473ffffffffffffffffffffffffffffffffffffffff1673ffffffffffffffffffffffffffffffffffffffff163373ffffffffffffffffffffffffffffffffffffffff1614155b6129e1576040517f08c379a00000000000000000000000000000000000000000000000000000000081526004016129d890613ea0565b60405180910390fd5b600060038111156129f5576129f46144d8565b5b60008054906101000a900460ff166003811115612a1557612a146144d8565b5b14612a55576040517f08c379a0000000000000000000000000000000000000000000000000000000008152600401612a4c90614080565b60405180910390fd5b600254341015612a9a576040517f08c379a0000000000000000000000000000000000000000000000000000000008152600401612a9190613e80565b60405180910390fd5b34600760003373ffffffffffffffffffffffffffffffffffffffff1673ffffffffffffffffffffffffffffffffffffffff1681526020019081526020016000208190555060036000815480929190612af190614431565b91905055507f0673e22453ca22ab66c750388a377485c2d57a19fb171f1442f45e933d5e841860405160405180910390a1565b60055481565b6000600760003373ffffffffffffffffffffffffffffffffffffffff1673ffffffffffffffffffffffffffffffffffffffff168152602001908152602001600020541180612bc55750600060019054906101000a900473ffffffffffffffffffffffffffffffffffffffff1673ffffffffffffffffffffffffffffffffffffffff163373ffffffffffffffffffffffffffffffffffffffff16145b612c04576040517f08c379a0000000000000000000000000000000000000000000000000000000008152600401612bfb90613e60565b60405180910390fd5b60016003811115612c1857612c176144d8565b5b60008054906101000a900460ff166003811115612c3857612c376144d8565b5b1480612c75575060006003811115612c5357612c526144d8565b5b60008054906101000a900460ff166003811115612c7357612c726144d8565b5b145b612cb4576040517f08c379a0000000000000000000000000000000000000000000000000000000008152600401612cab906140a0565b60405180910390fd5b8060006003811115612cc957612cc86144d8565b5b600a8281548110612cdd57612cdc614507565b5b906000526020600020906006020160030160009054906101000a900460ff166003811115612d0e57612d0d6144d8565b5b14612d4e576040517f08c379a0000000000000000000000000000000000000000000000000000000008152600401612d45906140e0565b60405180910390fd5b81600a8181548110612d6357612d62614507565b5b9060005260206000209060060201600401544211612db6576040517f08c379a0000000000000000000000000000000000000000000000000000000008152600401612dad90613ee0565b60405180910390fd5b6000600a8481548110612dcc57612dcb614507565b5b90600052602060002090600602019050806001015481600001541115612f3d5760018160030160006101000a81548160ff02191690836003811115612e1457612e136144d8565b5b021790555047600581905550600060019054906101000a900473ffffffffffffffffffffffffffffffffffffffff1673ffffffffffffffffffffffffffffffffffffffff168160050160009054906101000a900473ffffffffffffffffffffffffffffffffffffffff1673ffffffffffffffffffffffffffffffffffffffff161415612ec95760036000806101000a81548160ff02191690836003811115612ebf57612ebe6144d8565b5b0217905550612ef4565b60026000806101000a81548160ff02191690836003811115612eee57612eed6144d8565b5b02179055505b7fce02f1b75f3f35b42d342c4fb8e7e8020a8beafd3103a6b554207caaedd3c4aa60008054906101000a900460ff16604051612f309190613e25565b60405180910390a1612fa2565b60028160030160006101000a81548160ff02191690836003811115612f6557612f646144d8565b5b02179055507f306a2c545aaafdcaf61ac37c5413861fa80b9f5589fb2fbfa769ec8e718fcd5f84604051612f999190614120565b60405180910390a15b50505050565b6000600454905090565b60008060098381548110612fc957612fc8614507565b5b906000526020600020906007020190508060040160003373ffffffffffffffffffffffffffffffffffffffff1673ffffffffffffffffffffffffffffffffffffffff16815260200190815260200160002060009054906101000a900460ff16915050919050565b6000600760003373ffffffffffffffffffffffffffffffffffffffff1673ffffffffffffffffffffffffffffffffffffffff1681526020019081526020016000205411806130cb5750600060019054906101000a900473ffffffffffffffffffffffffffffffffffffffff1673ffffffffffffffffffffffffffffffffffffffff163373ffffffffffffffffffffffffffffffffffffffff16145b61310a576040517f08c379a000000000000000000000000000000000000000000000000000000000815260040161310190613e60565b60405180910390fd5b6001600381111561311e5761311d6144d8565b5b60008054906101000a900460ff16600381111561313e5761313d6144d8565b5b148061317b575060006003811115613159576131586144d8565b5b60008054906101000a900460ff166003811115613179576131786144d8565b5b145b6131ba576040517f08c379a00000000000000000000000000000000000000000000000000000000081526004016131b1906140a0565b60405180910390fd5b600042621275006006546131ce91906142b4565b1115801561320d5750600060038111156131eb576131ea6144d8565b5b60008054906101000a900460ff16600381111561320b5761320a6144d8565b5b145b9050808061324c57506001600381111561322a576132296144d8565b5b60008054906101000a900460ff16600381111561324a576132496144d8565b5b145b61328b576040517f08c379a000000000000000000000000000000000000000000000000000000000815260040161328290613e40565b60405180910390fd5b6000600a6001816001815401808255809150500390600052602060002090600602019050600081600001819055506000816001018190555060008160030160006101000a81548160ff021916908360038111156132eb576132ea6144d8565b5b021790555062093a80426132ff91906142b4565b8160040181905550338160050160006101000a81548173ffffffffffffffffffffffffffffffffffffffff021916908373ffffffffffffffffffffffffffffffffffffffff16021790555060018160020160003373ffffffffffffffffffffffffffffffffffffffff1673ffffffffffffffffffffffffffffffffffffffff16815260200190815260200160002060006101000a81548160ff0219169083151502179055508060000160008154809291906133b990614431565b91905055507fd652a200abc8c9e3e659b36ee1d1c81a25a3cd454afdb8cede6431e74906497c836040516133ed9190613e0a565b60405180910390a1505050565b6000600760003373ffffffffffffffffffffffffffffffffffffffff1673ffffffffffffffffffffffffffffffffffffffff1681526020019081526020016000205411806134955750600060019054906101000a900473ffffffffffffffffffffffffffffffffffffffff1673ffffffffffffffffffffffffffffffffffffffff163373ffffffffffffffffffffffffffffffffffffffff16145b6134d4576040517f08c379a00000000000000000000000000000000000000000000000000000000081526004016134cb90613e60565b60405180910390fd5b600160038111156134e8576134e76144d8565b5b60008054906101000a900460ff166003811115613508576135076144d8565b5b1480613545575060006003811115613523576135226144d8565b5b60008054906101000a900460ff166003811115613543576135426144d8565b5b145b613584576040517f08c379a000000000000000000000000000000000000000000000000000000000815260040161357b906140a0565b60405180910390fd5b8060006003811115613599576135986144d8565b5b600a82815481106135ad576135ac614507565b5b906000526020600020906006020160030160009054906101000a900460ff1660038111156135de576135dd6144d8565b5b1461361e576040517f08c379a0000000000000000000000000000000000000000000000000000000008152600401613615906140e0565b60405180910390fd5b81600a818154811061363357613632614507565b5b906000526020600020906006020160040154421115613687576040517f08c379a000000000000000000000000000000000000000000000000000000000815260040161367e90613f60565b60405180910390fd5b6000600a848154811061369d5761369c614507565b5b906000526020600020906006020190508060020160003373ffffffffffffffffffffffffffffffffffffffff1673ffffffffffffffffffffffffffffffffffffffff16815260200190815260200160002060009054906101000a900460ff161561373c576040517f08c379a000000000000000000000000000000000000000000000000000000000815260040161373390614060565b60405180910390fd5b60018160020160003373ffffffffffffffffffffffffffffffffffffffff1673ffffffffffffffffffffffffffffffffffffffff16815260200190815260200160002060006101000a81548160ff0219169083151502179055508060010160008154809291906137ab90614431565b91905055507f53c1eb0055cc9dbfe4823171931d9ec63b8682244ed5778661bb94ba2075f8c6846040516137df9190614120565b60405180910390a150505050565b6000813590506137fc81614b4c565b92915050565b60008135905061381181614b63565b92915050565b60008135905061382681614b7a565b92915050565b60006020828403121561384257613841614536565b5b6000613850848285016137ed565b91505092915050565b60006020828403121561386f5761386e614536565b5b600061387d84828501613802565b91505092915050565b60006020828403121561389c5761389b614536565b5b60006138aa84828501613817565b91505092915050565b6000806000606084860312156138cc576138cb614536565b5b60006138da86828701613817565b93505060206138eb868287016137ed565b92505060406138fc86828701613802565b9150509250925092565b61390f81614395565b82525050565b61391e816143a7565b82525050565b61392d816143b3565b82525050565b61393c8161440d565b82525050565b61394b8161441f565b82525050565b600061395e602b836142a3565b91506139698261453b565b604082019050919050565b60006139816017836142a3565b915061398c8261458a565b602082019050919050565b60006139a46020836142a3565b91506139af826145b3565b602082019050919050565b60006139c7601b836142a3565b91506139d2826145dc565b602082019050919050565b60006139ea6014836142a3565b91506139f582614605565b602082019050919050565b6000613a0d602c836142a3565b9150613a188261462e565b604082019050919050565b6000613a306018836142a3565b9150613a3b8261467d565b602082019050919050565b6000613a536021836142a3565b9150613a5e826146a6565b604082019050919050565b6000613a76601b836142a3565b9150613a81826146f5565b602082019050919050565b6000613a996027836142a3565b9150613aa48261471e565b604082019050919050565b6000613abc6023836142a3565b9150613ac78261476d565b604082019050919050565b6000613adf601d836142a3565b9150613aea826147bc565b602082019050919050565b6000613b026022836142a3565b9150613b0d826147e5565b604082019050919050565b6000613b256022836142a3565b9150613b3082614834565b604082019050919050565b6000613b486031836142a3565b9150613b5382614883565b604082019050919050565b6000613b6b6025836142a3565b9150613b76826148d2565b604082019050919050565b6000613b8e6023836142a3565b9150613b9982614921565b604082019050919050565b6000613bb16037836142a3565b9150613bbc82614970565b604082019050919050565b6000613bd46023836142a3565b9150613bdf826149bf565b604082019050919050565b6000613bf7601e836142a3565b9150613c0282614a0e565b602082019050919050565b6000613c1a6026836142a3565b9150613c2582614a37565b604082019050919050565b6000613c3d6028836142a3565b9150613c4882614a86565b604082019050919050565b6000613c606022836142a3565b9150613c6b82614ad5565b604082019050919050565b613c7f81614403565b82525050565b6000602082019050613c9a6000830184613906565b92915050565b600061010082019050613cb6600083018b613906565b613cc3602083018a613933565b613cd06040830189613c76565b613cdd6060830188613c76565b613cea6080830187613c76565b613cf760a0830186613c76565b613d0460c0830185613c76565b613d1160e0830184613915565b9998505050505050505050565b600061010082019050613d34600083018b613906565b613d41602083018a613c76565b613d4e6040830189613c76565b613d5b6060830188613c76565b613d686080830187613942565b613d7560a0830186613c76565b613d8260c0830185613915565b613d8f60e0830184613915565b9998505050505050505050565b600060a082019050613db16000830188613906565b613dbe6020830187613c76565b613dcb6040830186613c76565b613dd86060830185613c76565b613de56080830184613c76565b9695505050505050565b6000602082019050613e046000830184613915565b92915050565b6000602082019050613e1f6000830184613924565b92915050565b6000602082019050613e3a6000830184613933565b92915050565b60006020820190508181036000830152613e5981613951565b9050919050565b60006020820190508181036000830152613e7981613974565b9050919050565b60006020820190508181036000830152613e9981613997565b9050919050565b60006020820190508181036000830152613eb9816139ba565b9050919050565b60006020820190508181036000830152613ed9816139dd565b9050919050565b60006020820190508181036000830152613ef981613a00565b9050919050565b60006020820190508181036000830152613f1981613a23565b9050919050565b60006020820190508181036000830152613f3981613a46565b9050919050565b60006020820190508181036000830152613f5981613a69565b9050919050565b60006020820190508181036000830152613f7981613a8c565b9050919050565b60006020820190508181036000830152613f9981613aaf565b9050919050565b60006020820190508181036000830152613fb981613ad2565b9050919050565b60006020820190508181036000830152613fd981613af5565b9050919050565b60006020820190508181036000830152613ff981613b18565b9050919050565b6000602082019050818103600083015261401981613b3b565b9050919050565b6000602082019050818103600083015261403981613b5e565b9050919050565b6000602082019050818103600083015261405981613b81565b9050919050565b6000602082019050818103600083015261407981613ba4565b9050919050565b6000602082019050818103600083015261409981613bc7565b9050919050565b600060208201905081810360008301526140b981613bea565b9050919050565b600060208201905081810360008301526140d981613c0d565b9050919050565b600060208201905081810360008301526140f981613c30565b9050919050565b6000602082019050818103600083015261411981613c53565b9050919050565b60006020820190506141356000830184613c76565b92915050565b600060c0820190506141506000830189613c76565b61415d6020830188613906565b61416a6040830187613c76565b6141776060830186613c76565b6141846080830185613942565b61419160a0830184613c76565b979650505050505050565b600060a0820190506141b16000830188613c76565b6141be6020830187613c76565b6141cb6040830186613942565b6141d86060830185613c76565b6141e56080830184613906565b9695505050505050565b600060e082019050614204600083018a613c76565b6142116020830189613c76565b61421e6040830188613942565b61422b6060830187613c76565b6142386080830186613915565b61424560a0830185613915565b61425260c0830184613906565b98975050505050505050565b60006080820190506142736000830187613c76565b6142806020830186613c76565b61428d6040830185613c76565b61429a6060830184613c76565b95945050505050565b600082825260208201905092915050565b60006142bf82614403565b91506142ca83614403565b9250827fffffffffffffffffffffffffffffffffffffffffffffffffffffffffffffffff038211156142ff576142fe61447a565b5b828201905092915050565b600061431582614403565b915061432083614403565b9250826143305761432f6144a9565b5b828204905092915050565b600061434682614403565b915061435183614403565b9250817fffffffffffffffffffffffffffffffffffffffffffffffffffffffffffffffff048311821515161561438a5761438961447a565b5b828202905092915050565b60006143a0826143e3565b9050919050565b60008115159050919050565b6000819050919050565b60008190506143cb82614b24565b919050565b60008190506143de82614b38565b919050565b600073ffffffffffffffffffffffffffffffffffffffff82169050919050565b6000819050919050565b6000614418826143bd565b9050919050565b600061442a826143d0565b9050919050565b600061443c82614403565b91507fffffffffffffffffffffffffffffffffffffffffffffffffffffffffffffffff82141561446f5761446e61447a565b5b600182019050919050565b7f4e487b7100000000000000000000000000000000000000000000000000000000600052601160045260246000fd5b7f4e487b7100000000000000000000000000000000000000000000000000000000600052601260045260246000fd5b7f4e487b7100000000000000000000000000000000000000000000000000000000600052602160045260246000fd5b7f4e487b7100000000000000000000000000000000000000000000000000000000600052603260045260246000fd5b600080fd5b7f5468652063616d7061696e672063726561746564206d7573742068617665203160008201527f342064617973206f6c642e000000000000000000000000000000000000000000602082015250565b7f53656e646572206973206e6f742061206d656d6265722e000000000000000000600082015250565b7f54686520636f6e747269627574696f6e20697320696e73756666696369656e74600082015250565b7f53656e64657220697320616c72656164792061206d656d6265722e0000000000600082015250565b7f53656e64657220697320746865206f776e65722e000000000000000000000000600082015250565b7f54686520636c6f73652070726f706f73616c206973207374696c6c206f70656e60008201527f20666f7220766f74696e672e0000000000000000000000000000000000000000602082015250565b7f53656e646572206973206e6f7420746865206f776e65722e0000000000000000600082015250565b7f5468652070726f706f73616c20697320636c6f736520666f7220766f74696e6760008201527f2e00000000000000000000000000000000000000000000000000000000000000602082015250565b7f54686520666f756e64732061726520696e73756666696369656e740000000000600082015250565b7f54686520636c6f73652070726f706f73616c20697320636c6f736520666f722060008201527f766f74696e672e00000000000000000000000000000000000000000000000000602082015250565b7f5061796d656e742063616e2774206265206d6f7265207468616e2062616c616e60008201527f63652e0000000000000000000000000000000000000000000000000000000000602082015250565b7f5468652070726f706f73616c206973206e6f7420617070726f7665642e000000600082015250565b7f54686520636f6e747269627574696f6e732061726520696e737566666963696560008201527f6e74000000000000000000000000000000000000000000000000000000000000602082015250565b7f5468652063616d706169676e20737461747573206973206e6f7420616374697660008201527f652e000000000000000000000000000000000000000000000000000000000000602082015250565b7f5468652070726f706f73616c20686173206265656e20616c726561647920766f60008201527f746564206279207468652073656e646572000000000000000000000000000000602082015250565b7f5468652063616d706169676e20737461747573206973206e6f7420636c6f736560008201527f207965742e000000000000000000000000000000000000000000000000000000602082015250565b7f53656e64657220616c72656164792077697468647261772068697320666f756e60008201527f64732e0000000000000000000000000000000000000000000000000000000000602082015250565b7f54686520636c6f73652070726f706f73616c20686173206265656e20616c726560008201527f61647920766f746564206279207468652073656e646572000000000000000000602082015250565b7f5468652063616d706169676e20737461747573206973206e6f7420637265617460008201527f65642e0000000000000000000000000000000000000000000000000000000000602082015250565b7f5468652063616d706169676e2073746174757320697320434c4f5345442e0000600082015250565b7f5468652070726f706f73616c206973207374696c6c206f70656e20666f72207660008201527f6f74696e672e0000000000000000000000000000000000000000000000000000602082015250565b7f54686520636c6f73652070726f706f73616c206973206e6f74206c6f6e67657260008201527f206163746976652e000000000000000000000000000000000000000000000000602082015250565b7f5468652070726f706f73616c206973206e6f74206c6f6e67657220616374697660008201527f652e000000000000000000000000000000000000000000000000000000000000602082015250565b60048110614b3557614b346144d8565b5b50565b60048110614b4957614b486144d8565b5b50565b614b5581614395565b8114614b6057600080fd5b50565b614b6c816143b3565b8114614b7757600080fd5b50565b614b8381614403565b8114614b8e57600080fd5b5056fea2646970667358221220386fdc6355daa956e264c722f10b426a2ce96ceab32ad63ab6c69b65949bac3a64736f6c63430008060033",
  "immutableReferences": {},
  "source": "//SPDX-License-Identifier: GPL-3.0-only\npragma solidity ^0.8.0;\n\ncontract CrowdfundingCampaign {\n\n    /* Enums */\n\n    enum CampaignStatus { CREATED, ACTIVE, FAIL, SUCCESSFUL }\n    enum ProposalStatus { ACTIVE, APPROVED, DISAPPROVED, SUCCESSFUL }\n\n    \n    /* Structs */\n\n    /** @dev Struct proposal\n        This struct represents the proposals that only owner can make to get more founds.\n    **/\n    struct Proposal {\n        uint value;\n        address recipient;\n        uint approvalsCount;\n        uint disapprovalsCount;\n        mapping(address => bool) voters;\n        ProposalStatus status;\n        uint limitTime;\n    }\n\n    /** @dev Struct close proposal\n        This struct represents the proposal that members can make to get their founds back.\n    **/\n    struct CloseProposal {\n        uint approvalsCount;\n        uint disapprovalsCount;\n        mapping(address => bool) voters;\n        ProposalStatus status;\n        uint limitTime;\n        address author;\n    }\n\n    /* Storage */\n\n    CampaignStatus public status;\n    \n    address public owner;\n    \n    uint public goal;\n    uint public minimunContribution;\n    uint public membersCount;\n    uint public finalContributions;\n    uint public remainingContributions;\n    uint public created_at;\n    \n    mapping(address => uint) public contributions;\n    mapping(address => bool) public withdraws;\n    \n    Proposal[] public proposals;\n    CloseProposal[] public closeProposals;\n    \n\n    /** @dev Constructor.\n     *  @param _minimunContribution minimum contribution in wei that a person has to make to become a member.\n     *  @param _goal goal in wei that the project has to reach to be successful.\n     *  @param _ipfshash The url hash of the campaign data previously stored in IPFS.\n    **/\n    constructor(uint _minimunContribution, uint _goal, bytes32 _ipfshash) {\n        owner = msg.sender;\n        goal = _goal;\n        minimunContribution = _minimunContribution;\n        status = CampaignStatus.CREATED;\n        membersCount = 0;\n        created_at = block.timestamp;\n\n        emit CampaignCreated(_ipfshash);\n    }\n\n\n    /* Modifiers */\n\n    modifier restricted() { \n        require( msg.sender==owner, \"Sender is not the owner.\" ); \n        _; \n    }\n\n    modifier membering() { \n        require( (contributions[msg.sender]>0) || (msg.sender == owner), \n            \"Sender is not a member.\" ); \n        _; \n    }\n\n    modifier notMembering() { \n        require( (contributions[msg.sender]==0) && (msg.sender != owner),\n            \"Sender is already a member.\" );\n         _; \n    }\n\n    modifier statusCreated() { \n        require( status == CampaignStatus.CREATED, \n            \"The campaign status is not created.\" ); \n        _; \n    }\n\n    modifier statusActive() { \n        require( status == CampaignStatus.ACTIVE, \n            \"The campaign status is not active.\" ); \n        _; \n    }\n\n    modifier statusClosed() { \n        require( status == CampaignStatus.SUCCESSFUL || status == CampaignStatus.FAIL, \n            \"The campaign status is not close yet.\" ); \n        _; \n    }\n\n    modifier proposalActive(uint _index) { \n        require( proposals[_index].status == ProposalStatus.ACTIVE, \n            \"The proposal is not longer active.\" ); \n        _; \n    }\n\n    modifier proposalApproved(uint _index) { \n        require( proposals[_index].status == ProposalStatus.APPROVED,\n            \"The proposal is not approved.\" ); \n        _; \n    }\n\n    modifier beInTimeProposal(uint _index) { \n        require ( block.timestamp <= proposals[_index].limitTime, \n            \"The proposal is close for voting.\" ); \n        _; \n    }\n\n    modifier passedTimeProposal(uint _index) { \n        require ( block.timestamp > proposals[_index].limitTime, \n            \"The proposal is still open for voting.\" ); \n        _; \n    }\n    modifier statusNotClosed() {\n        require( status == CampaignStatus.ACTIVE || status == CampaignStatus.CREATED,\n            \"The campaign status is CLOSED.\" );\n        _;\n    }\n\n    modifier closeProposalActive(uint _index) {\n        require( closeProposals[_index].status == ProposalStatus.ACTIVE,\n            \"The close proposal is not longer active.\" );\n        _;\n    }\n\n    modifier closeProposalApproved(uint _index) {\n        require( closeProposals[_index].status == ProposalStatus.APPROVED,\n            \"The close proposal is not approved.\" );\n        _;\n    }\n\n    modifier beInTimeCloseProposal(uint _index) { \n        require ( block.timestamp <= closeProposals[_index].limitTime, \n            \"The close proposal is close for voting.\" ); \n        _; \n    }\n\n    modifier passedTimeCloseProposal(uint _index) { \n        require ( block.timestamp > closeProposals[_index].limitTime, \n            \"The close proposal is still open for voting.\" ); \n        _; \n    }\n\n\n    /* Events */\n\n    /** @dev Emitted when the author creates the campaign.\n     *  @param _ipfshash The url hash of the campaign data stored in IPFS.\n     */\n    event CampaignCreated(bytes32 _ipfshash);\n\n    /** @dev Emitted when a new person contributes with the campaign.\n     */\n    event NewContribution();\n\n    /** @dev Emitted when the author creates a proposal to free founds.\n     *  @param _ipfshash The url hash of the proposal data stored in IPFS.\n     */\n    event ProposalCreated(bytes32 _ipfshash);\n\n     /** @dev Emitted when a proposal is voted.\n     *  @param _index The index of the proposal.\n     */\n    event ProposalVoted(uint _index);\n\n    /** @dev Emitted when a proposal is Closed.\n     *  @param _index The index of the proposal.\n     */\n    event ProposalClosed(uint _index);\n\n    /** @dev Emitted when a proposal is release.\n     *  @param _index The index of the proposal.\n     */\n    event ProposalRelease(uint _index);\n\n     /** @dev Emitted when a member creates a proposal to close the campaign and get the founds back.\n     *  @param _ipfshash The url hash of the close proposal data stored in IPFS.\n     */\n    event CloseProposalCreated(bytes32 _ipfshash);\n\n    /** @dev Emitted when a close proposal is voted.\n     *  @param _index The index of the close proposal.\n     */\n    event CloseProposalVoted(uint _index);\n\n     /** @dev Emitted when a close proposal is dissaproved.\n     *  @param _index The index of the close proposal.\n     */\n    event CloseProposalDissaproved(uint _index);\n\n    /** @dev Emitted when the author creates a progress update to show how the project is going.\n     *  @param _ipfshash The url hash of the progress update data stored in IPFS.\n     */\n    event ProgressUpdate(bytes32 _ipfshash);\n\n    /** @dev Emitted when the status of the campaign change.\n     */\n    event ChangeStatusCampaign(CampaignStatus status);\n\n    /** @dev Emitted when a member withdraw his founds.\n     */\n    event WithdrawFounds(address _member, uint contribution, uint finalContributions, uint256 payment, uint remainingContributions);\n\n\n    /* Functions */\n\n    /** @dev Allow not members to contribute with the campaign and be a member of it.\n     */\n    function contribute() public notMembering statusCreated payable {\n        require(msg.value >= minimunContribution, \"The contribution is insufficient\");\n        contributions[msg.sender] = msg.value;\n        membersCount++;\n        emit NewContribution();\n    }\n\n    /** @dev Allow only owner to change the status of the cCampaign from CREATED to ACTIVE.\n     */\n    function setActive() public restricted statusCreated {\n        \n        require(address(this).balance >= goal,\"The contributions are insufficient\");\n        status = CampaignStatus.ACTIVE;\n        finalContributions = address(this).balance;\n\n        emit ChangeStatusCampaign(status);\n         \n    }\n\n    /** @dev Allow only owner to save a new progress Update data ipfs hash.\n     *  @param _ipfshash url hash of the progress update data (description and pictures) previously stored in IPFS.\n     */\n    function saveProgressUpdate(bytes32 _ipfshash) \n        public restricted statusActive {\n        emit ProgressUpdate(_ipfshash); \n    }\n\n    /** @dev Allow only owner to create a new proposal to get more founds.\n     *  @param _value founds in wei that the owner want to release.\n     *  @param _recipient address where the founds are going to be after release them.\n     *  @param _ipfshash url hash of the proposal data (description and pictures) previously stored in IPFS.\n     */\n    function createProposal(uint _value, address _recipient, bytes32 _ipfshash) \n        public restricted statusActive {\n\n        require(address(this).balance >= _value, \"The founds are insufficient\");\n\n        Proposal storage newProposal = proposals.push();\n        newProposal.recipient = _recipient;\n        newProposal.value = _value;\n        newProposal.approvalsCount = 0;\n        newProposal.disapprovalsCount = 0;\n        newProposal.status = ProposalStatus.ACTIVE;\n        newProposal.limitTime= block.timestamp + 7 days;\n\n        emit ProposalCreated(_ipfshash);\n        \n    }\n\n    /** @dev Allow only members to approve an active proposal that they haven't voted before.\n     *  @param _index index of the proposal the member wants to approve.\n     */\n    function approveProposal(uint _index) public membering statusActive proposalActive(_index) beInTimeProposal(_index) {\n\n        Proposal storage proposal = proposals[_index];\n        require(!proposal.voters[msg.sender], \"The proposal has been already voted by the sender\");\n\n        proposal.voters[msg.sender] = true;\n        proposal.approvalsCount++;\n\n        emit ProposalVoted(_index);        \n    }\n\n    /** @dev Allow only members to disapprove an active proposal that they haven't voted before.\n     *  @param _index index of the proposal the member wants to disapprove.\n     */\n    function disapproveProposal(uint _index) public membering statusActive proposalActive(_index) beInTimeProposal(_index) {\n\n        Proposal storage proposal = proposals[_index];\n        require(!proposal.voters[msg.sender], \"The proposal has been already voted by the sender\");\n\n        proposal.voters[msg.sender] = true;\n        proposal.disapprovalsCount++;\n        \n        emit ProposalVoted(_index);\n    }\n\n    /** @dev Allow only members to close an active proposal that already has its voting time over.\n     *  @param _index index of the proposal the member wants to approve.\n     */\n    function closeProposal(uint _index) public membering statusActive proposalActive(_index) passedTimeProposal(_index) {\n\n        Proposal storage proposal = proposals[_index];\n\n        if (proposal.approvalsCount > proposal.disapprovalsCount) {\n            proposal.status = ProposalStatus.APPROVED; \n        }\n        else {\n            proposal.status = ProposalStatus.DISAPPROVED;\n        }\n\n        emit ProposalClosed(_index);\n    }\n\n    /** @dev Allow only members to close an active proposal that already has its voting time over.\n     *  @param _index index of the proposal the member wants to approve.\n     */\n    function release(uint _index) public restricted statusActive proposalApproved(_index) {\n\n        Proposal storage proposal = proposals[_index];\n        proposal.status = ProposalStatus.SUCCESSFUL; \n        payable(proposal.recipient).transfer(proposal.value);\n        \n        emit ProposalRelease(_index);\n    }\n\n    /** @dev Allow only members to create a new proposal to finish de project and get the founds back.\n     *  @param _ipfshash url hash of the close proposal data (description) previously stored in IPFS.\n     */\n    function createCloseProposal(bytes32 _ipfshash) public membering statusNotClosed {\n\n        bool out_grace_period = ((created_at + 14 days) <= block.timestamp) && status == CampaignStatus.CREATED;\n        require( out_grace_period || status == CampaignStatus.ACTIVE,\n            \"The campaing created must have 14 days old.\" );\n\n        CloseProposal storage newCProposal = closeProposals.push();\n        newCProposal.approvalsCount = 0;\n        newCProposal.disapprovalsCount = 0;\n        newCProposal.status = ProposalStatus.ACTIVE;\n        newCProposal.limitTime= block.timestamp + 7 days;\n        newCProposal.author = msg.sender;\n\n        newCProposal.voters[msg.sender] = true;\n        newCProposal.approvalsCount++;\n\n        emit CloseProposalCreated(_ipfshash);\n         \n    }\n\n    /** @dev Allow only members to approve an active close proposal that they haven't voted before.\n     *  @param _index index of the close proposal the member wants to approve.\n     */\n    function approveCloseProposal(uint _index) public membering statusNotClosed closeProposalActive(_index) beInTimeCloseProposal(_index) {\n\n        CloseProposal storage cProposal = closeProposals[_index];\n        require(!cProposal.voters[msg.sender], \"The close proposal has been already voted by the sender\");\n\n        cProposal.voters[msg.sender] = true;\n        cProposal.approvalsCount++;\n\n        emit CloseProposalVoted(_index);\n        \n    }\n\n    /** @dev Allow only members to disapprove an active close proposal that they haven't voted before.\n     *  @param _index index of the close proposal the member wants to disapprove.\n     */\n    function disapproveCloseProposal(uint _index) public membering statusNotClosed closeProposalActive(_index) beInTimeCloseProposal(_index) {\n\n        CloseProposal storage cProposal = closeProposals[_index];\n        require(!cProposal.voters[msg.sender], \"The close proposal has been already voted by the sender\");\n\n        cProposal.voters[msg.sender] = true;\n        cProposal.disapprovalsCount++;\n\n        emit CloseProposalVoted(_index);\n        \n    }\n\n    /** @dev Allow only members to close an active proposal that already has its voting time over.\n     *  @param _index index of the proposal the member wants to approve.\n     */\n    function closeCloseProposal(uint _index) public membering statusNotClosed closeProposalActive(_index) passedTimeCloseProposal(_index) {\n\n        CloseProposal storage cProposal = closeProposals[_index];\n\n        if (cProposal.approvalsCount > cProposal.disapprovalsCount) {\n            cProposal.status = ProposalStatus.APPROVED; \n            remainingContributions = address(this).balance;\n            if (cProposal.author == owner) {\n                status = CampaignStatus.SUCCESSFUL;\n            } else {\n                status = CampaignStatus.FAIL;\n            }\n            emit ChangeStatusCampaign(status);\n        }\n        else {\n            cProposal.status = ProposalStatus.DISAPPROVED;\n            emit CloseProposalDissaproved(_index);\n        }\n        \n    }\n\n    /** @dev Allow only members to withdraw the remaining founds once the campaign is closed.\n     */\n    function withdraw() public membering statusClosed {\n\n        require( msg.sender != owner, \"Sender is the owner.\" );\n        require( !withdraws[msg.sender], \"Sender already withdraw his founds.\" );\n\n        uint256 payment = ((contributions[msg.sender]*remainingContributions) / finalContributions);\n        \n        require( payment < address(this).balance, \"Payment can't be more than balance.\");\n\n        withdraws[msg.sender] = true;\n        payable(msg.sender).transfer(payment);\n\n        emit WithdrawFounds(msg.sender, contributions[msg.sender], finalContributions, payment, remainingContributions );\n    }\n\n\n     /* Aux functions */\n\n    /** @dev Function to return if someone is member.\n     */\n    function isMember(address _address) public view returns (bool) {\n        return contributions[_address]>0;\n    }\n\n    /** @dev Function to get the actual status of the campaign.\n     */\n    function getStatus() public view returns (CampaignStatus) {\n        return status;\n    }\n\n    /** @dev Function to get the finalContributions of the campaign.\n     */\n    function getFinalContributions() public view returns (uint) {\n        return finalContributions;\n    }\n\n    /** @dev Function to get the remainingContributions of the campaign.\n     */\n    function getRemainingContributions() public view returns (uint) {\n        return remainingContributions;\n    }\n\n    /** @dev Function to get all the balances of the campaign\n     */\n    function getBalancesInfo() public view returns (uint _goal, uint _finalContributions, uint _remainingContributions, uint _balance) {\n        _goal = goal;\n        _finalContributions = finalContributions;\n        _remainingContributions = remainingContributions;\n        _balance = address(this).balance;\n    }\n\n    /** @dev Function to get the data of the campaign\n     */\n    function getCampaignInfo() public view returns (address _owner, CampaignStatus _status, uint _goal, uint _minimunContribution, uint _membersCount, uint _finalContributions, uint _remainingContributions, bool _out_grace_period) {\n        _owner = owner;\n        _status = status;\n        _goal = goal;\n        _minimunContribution = minimunContribution;\n        _membersCount = membersCount;\n        _finalContributions = finalContributions; \n        _remainingContributions = remainingContributions; \n        _out_grace_period = (created_at + 14 days) <= block.timestamp;\n    } \n\n    /** @dev Function to get the data of a proposal.\n     *  @param _index index of the proposal to return\n     */\n    function getProposal(uint _index) public view returns (address _recipient, uint _value, uint _approvalsCount, uint _disapprovalsCount, ProposalStatus _status, uint _limitTime, bool _inTime, bool _senderHasVote) {\n        Proposal storage proposal = proposals[_index];\n\n        _recipient = proposal.recipient; \n        _value = proposal.value;\n        _approvalsCount = proposal.approvalsCount; \n        _disapprovalsCount = proposal.disapprovalsCount;\n        _status = proposal.status;\n        _limitTime = proposal.limitTime;\n        _inTime = block.timestamp <= proposal.limitTime;\n        _senderHasVote = proposal.voters[msg.sender];\n    } \n\n     /** @dev Function to know if a member has already vot a proposal.\n     *  @param _index index of the proposal\n     */\n    function hasVotedProposal(uint _index) public view returns (bool) {\n        Proposal storage proposal = proposals[_index];\n        return proposal.voters[msg.sender];\n    } \n\n    /** @dev Function to get the total number of proposals.\n     */\n    function getProposalsCount() public view returns (uint) {\n        return proposals.length;\n    }\n\n    /** @dev Function to get the data of a close proposal.\n     *  @param _index index of the proposal to return\n     */\n    function getCloseProposal(uint _index) public view returns (uint _approvalsCount, uint _disapprovalsCount, ProposalStatus _status, uint _limitTime, bool _inTime, bool _senderHasVote, address _author) {\n        CloseProposal storage cProposal = closeProposals[_index];\n\n        _approvalsCount = cProposal.approvalsCount;\n        _disapprovalsCount = cProposal.disapprovalsCount;\n        _status = cProposal.status;\n        _limitTime = cProposal.limitTime;\n        _inTime = block.timestamp <= cProposal.limitTime;\n        _senderHasVote = cProposal.voters[msg.sender]; \n        _author = cProposal.author;\n    } \n\n    /** @dev Function to know if a member has already vot a close proposal.\n     *  @param _index index of the proposal\n     */\n    function hasVotedCloseProposal(uint _index) public view returns (bool) {\n        CloseProposal storage cProposal = closeProposals[_index];\n        return cProposal.voters[msg.sender];\n    } \n\n    /** @dev Function to get the total number of close proposals.\n     */\n    function getCloseProposalsCount() public view returns (uint) {\n        return closeProposals.length;\n    }\n\n    /** @dev Function to know if a member has withdraw it's founds \n    */\n    function hasWithdraw() public view returns (bool) {\n        return withdraws[msg.sender];\n    }\n   \n}",
  "sourcePath": "/home/tati/Desktop/personal/Tesina/semideas-crowdfunding/contracts/CrowdfundingCampaign.sol",
  "compiler": {
    "name": "solc",
    "version": "0.8.6+commit.11564f7e.Emscripten.clang"
  },
  "schemaVersion": "3.4.1",
  "updatedAt": "2021-07-31T00:20:57.300Z",
  "networkType": "ethereum",
  "devdoc": {
    "events": {
      "CampaignCreated(bytes32)": {
        "details": "Emitted when the author creates the campaign.",
        "params": {
          "_ipfshash": "The url hash of the campaign data stored in IPFS."
        }
      },
      "ChangeStatusCampaign(uint8)": {
        "details": "Emitted when the status of the campaign change."
      },
      "CloseProposalCreated(bytes32)": {
        "details": "Emitted when a member creates a proposal to close the campaign and get the founds back.",
        "params": {
          "_ipfshash": "The url hash of the close proposal data stored in IPFS."
        }
      },
      "CloseProposalDissaproved(uint256)": {
        "details": "Emitted when a close proposal is dissaproved.",
        "params": {
          "_index": "The index of the close proposal."
        }
      },
      "CloseProposalVoted(uint256)": {
        "details": "Emitted when a close proposal is voted.",
        "params": {
          "_index": "The index of the close proposal."
        }
      },
      "NewContribution()": {
        "details": "Emitted when a new person contributes with the campaign."
      },
      "ProgressUpdate(bytes32)": {
        "details": "Emitted when the author creates a progress update to show how the project is going.",
        "params": {
          "_ipfshash": "The url hash of the progress update data stored in IPFS."
        }
      },
      "ProposalClosed(uint256)": {
        "details": "Emitted when a proposal is Closed.",
        "params": {
          "_index": "The index of the proposal."
        }
      },
      "ProposalCreated(bytes32)": {
        "details": "Emitted when the author creates a proposal to free founds.",
        "params": {
          "_ipfshash": "The url hash of the proposal data stored in IPFS."
        }
      },
      "ProposalRelease(uint256)": {
        "details": "Emitted when a proposal is release.",
        "params": {
          "_index": "The index of the proposal."
        }
      },
      "ProposalVoted(uint256)": {
        "details": "Emitted when a proposal is voted.",
        "params": {
          "_index": "The index of the proposal."
        }
      },
      "WithdrawFounds(address,uint256,uint256,uint256,uint256)": {
        "details": "Emitted when a member withdraw his founds."
      }
    },
    "kind": "dev",
    "methods": {
      "approveCloseProposal(uint256)": {
        "details": "Allow only members to approve an active close proposal that they haven't voted before.",
        "params": {
          "_index": "index of the close proposal the member wants to approve."
        }
      },
      "approveProposal(uint256)": {
        "details": "Allow only members to approve an active proposal that they haven't voted before.",
        "params": {
          "_index": "index of the proposal the member wants to approve."
        }
      },
      "closeCloseProposal(uint256)": {
        "details": "Allow only members to close an active proposal that already has its voting time over.",
        "params": {
          "_index": "index of the proposal the member wants to approve."
        }
      },
      "closeProposal(uint256)": {
        "details": "Allow only members to close an active proposal that already has its voting time over.",
        "params": {
          "_index": "index of the proposal the member wants to approve."
        }
      },
      "constructor": {
        "details": "Constructor.",
        "params": {
          "_goal": "goal in wei that the project has to reach to be successful.",
          "_ipfshash": "The url hash of the campaign data previously stored in IPFS.*",
          "_minimunContribution": "minimum contribution in wei that a person has to make to become a member."
        }
      },
      "contribute()": {
        "details": "Allow not members to contribute with the campaign and be a member of it."
      },
      "createCloseProposal(bytes32)": {
        "details": "Allow only members to create a new proposal to finish de project and get the founds back.",
        "params": {
          "_ipfshash": "url hash of the close proposal data (description) previously stored in IPFS."
        }
      },
      "createProposal(uint256,address,bytes32)": {
        "details": "Allow only owner to create a new proposal to get more founds.",
        "params": {
          "_ipfshash": "url hash of the proposal data (description and pictures) previously stored in IPFS.",
          "_recipient": "address where the founds are going to be after release them.",
          "_value": "founds in wei that the owner want to release."
        }
      },
      "disapproveCloseProposal(uint256)": {
        "details": "Allow only members to disapprove an active close proposal that they haven't voted before.",
        "params": {
          "_index": "index of the close proposal the member wants to disapprove."
        }
      },
      "disapproveProposal(uint256)": {
        "details": "Allow only members to disapprove an active proposal that they haven't voted before.",
        "params": {
          "_index": "index of the proposal the member wants to disapprove."
        }
      },
      "getBalancesInfo()": {
        "details": "Function to get all the balances of the campaign"
      },
      "getCampaignInfo()": {
        "details": "Function to get the data of the campaign"
      },
      "getCloseProposal(uint256)": {
        "details": "Function to get the data of a close proposal.",
        "params": {
          "_index": "index of the proposal to return"
        }
      },
      "getCloseProposalsCount()": {
        "details": "Function to get the total number of close proposals."
      },
      "getFinalContributions()": {
        "details": "Function to get the finalContributions of the campaign."
      },
      "getProposal(uint256)": {
        "details": "Function to get the data of a proposal.",
        "params": {
          "_index": "index of the proposal to return"
        }
      },
      "getProposalsCount()": {
        "details": "Function to get the total number of proposals."
      },
      "getRemainingContributions()": {
        "details": "Function to get the remainingContributions of the campaign."
      },
      "getStatus()": {
        "details": "Function to get the actual status of the campaign."
      },
      "hasVotedCloseProposal(uint256)": {
        "details": "Function to know if a member has already vot a close proposal.",
        "params": {
          "_index": "index of the proposal"
        }
      },
      "hasVotedProposal(uint256)": {
        "details": "Function to know if a member has already vot a proposal.",
        "params": {
          "_index": "index of the proposal"
        }
      },
      "hasWithdraw()": {
        "details": "Function to know if a member has withdraw it's founds "
      },
      "isMember(address)": {
        "details": "Function to return if someone is member."
      },
      "release(uint256)": {
        "details": "Allow only members to close an active proposal that already has its voting time over.",
        "params": {
          "_index": "index of the proposal the member wants to approve."
        }
      },
      "saveProgressUpdate(bytes32)": {
        "details": "Allow only owner to save a new progress Update data ipfs hash.",
        "params": {
          "_ipfshash": "url hash of the progress update data (description and pictures) previously stored in IPFS."
        }
      },
      "setActive()": {
        "details": "Allow only owner to change the status of the cCampaign from CREATED to ACTIVE."
      },
      "withdraw()": {
        "details": "Allow only members to withdraw the remaining founds once the campaign is closed."
      }
    },
    "version": 1
  },
  "userdoc": {
    "kind": "user",
    "methods": {},
    "version": 1
  }
}