{
  "contractName": "CrowdfundingCampaignDemo",
  "abi": [
    {
      "inputs": [
        {
          "internalType": "uint256",
          "name": "_minimunContribution",
          "type": "uint256"
        },
        {
          "internalType": "uint256",
          "name": "_goal",
          "type": "uint256"
        },
        {
          "internalType": "bytes32",
          "name": "_ipfshash",
          "type": "bytes32"
        }
      ],
      "stateMutability": "nonpayable",
      "type": "constructor"
    },
    {
      "anonymous": false,
      "inputs": [
        {
          "indexed": false,
          "internalType": "bytes32",
          "name": "_ipfshash",
          "type": "bytes32"
        }
      ],
      "name": "CampaignCreated",
      "type": "event"
    },
    {
      "anonymous": false,
      "inputs": [],
      "name": "ChangeStatusCampaign",
      "type": "event"
    },
    {
      "anonymous": false,
      "inputs": [
        {
          "indexed": false,
          "internalType": "uint256",
          "name": "_index",
          "type": "uint256"
        }
      ],
      "name": "CloseProposalClosed",
      "type": "event"
    },
    {
      "anonymous": false,
      "inputs": [
        {
          "indexed": false,
          "internalType": "bytes32",
          "name": "_ipfshash",
          "type": "bytes32"
        }
      ],
      "name": "CloseProposalCreated",
      "type": "event"
    },
    {
      "anonymous": false,
      "inputs": [
        {
          "indexed": false,
          "internalType": "uint256",
          "name": "_index",
          "type": "uint256"
        }
      ],
      "name": "CloseProposalVoted",
      "type": "event"
    },
    {
      "anonymous": false,
      "inputs": [],
      "name": "NewContribution",
      "type": "event"
    },
    {
      "anonymous": false,
      "inputs": [
        {
          "indexed": false,
          "internalType": "bytes32",
          "name": "_ipfshash",
          "type": "bytes32"
        }
      ],
      "name": "ProgressUpdate",
      "type": "event"
    },
    {
      "anonymous": false,
      "inputs": [
        {
          "indexed": false,
          "internalType": "uint256",
          "name": "_index",
          "type": "uint256"
        }
      ],
      "name": "ProposalClosed",
      "type": "event"
    },
    {
      "anonymous": false,
      "inputs": [
        {
          "indexed": false,
          "internalType": "bytes32",
          "name": "_ipfshash",
          "type": "bytes32"
        }
      ],
      "name": "ProposalCreated",
      "type": "event"
    },
    {
      "anonymous": false,
      "inputs": [
        {
          "indexed": false,
          "internalType": "uint256",
          "name": "_index",
          "type": "uint256"
        }
      ],
      "name": "ProposalRelease",
      "type": "event"
    },
    {
      "anonymous": false,
      "inputs": [
        {
          "indexed": false,
          "internalType": "uint256",
          "name": "_index",
          "type": "uint256"
        }
      ],
      "name": "ProposalVoted",
      "type": "event"
    },
    {
      "anonymous": false,
      "inputs": [
        {
          "indexed": false,
          "internalType": "address",
          "name": "_member",
          "type": "address"
        },
        {
          "indexed": false,
          "internalType": "uint256",
          "name": "contribution",
          "type": "uint256"
        },
        {
          "indexed": false,
          "internalType": "uint256",
          "name": "goal",
          "type": "uint256"
        },
        {
          "indexed": false,
          "internalType": "uint256",
          "name": "payment",
          "type": "uint256"
        },
        {
          "indexed": false,
          "internalType": "uint256",
          "name": "founds",
          "type": "uint256"
        }
      ],
      "name": "withdrawFounds",
      "type": "event"
    },
    {
      "inputs": [
        {
          "internalType": "uint256",
          "name": "_index",
          "type": "uint256"
        }
      ],
      "name": "approveCloseProposal",
      "outputs": [],
      "stateMutability": "nonpayable",
      "type": "function"
    },
    {
      "inputs": [
        {
          "internalType": "uint256",
          "name": "_index",
          "type": "uint256"
        }
      ],
      "name": "approveProposal",
      "outputs": [],
      "stateMutability": "nonpayable",
      "type": "function"
    },
    {
      "inputs": [
        {
          "internalType": "uint256",
          "name": "_index",
          "type": "uint256"
        }
      ],
      "name": "closeCloseProposal",
      "outputs": [],
      "stateMutability": "nonpayable",
      "type": "function"
    },
    {
      "inputs": [
        {
          "internalType": "uint256",
          "name": "_index",
          "type": "uint256"
        }
      ],
      "name": "closeProposal",
      "outputs": [],
      "stateMutability": "nonpayable",
      "type": "function"
    },
    {
      "inputs": [
        {
          "internalType": "uint256",
          "name": "",
          "type": "uint256"
        }
      ],
      "name": "closeProposals",
      "outputs": [
        {
          "internalType": "uint256",
          "name": "approvalsCount",
          "type": "uint256"
        },
        {
          "internalType": "uint256",
          "name": "disapprovalsCount",
          "type": "uint256"
        },
        {
          "internalType": "enum CrowdfundingCampaign.ProposalStatus",
          "name": "status",
          "type": "uint8"
        },
        {
          "internalType": "uint256",
          "name": "limitTime",
          "type": "uint256"
        },
        {
          "internalType": "address",
          "name": "author",
          "type": "address"
        }
      ],
      "stateMutability": "view",
      "type": "function"
    },
    {
      "inputs": [],
      "name": "contribute",
      "outputs": [],
      "stateMutability": "payable",
      "type": "function"
    },
    {
      "inputs": [
        {
          "internalType": "address",
          "name": "",
          "type": "address"
        }
      ],
      "name": "contributions",
      "outputs": [
        {
          "internalType": "uint256",
          "name": "",
          "type": "uint256"
        }
      ],
      "stateMutability": "view",
      "type": "function"
    },
    {
      "inputs": [
        {
          "internalType": "bytes32",
          "name": "_ipfshash",
          "type": "bytes32"
        }
      ],
      "name": "createCloseProposal",
      "outputs": [],
      "stateMutability": "nonpayable",
      "type": "function"
    },
    {
      "inputs": [
        {
          "internalType": "uint256",
          "name": "_value",
          "type": "uint256"
        },
        {
          "internalType": "address",
          "name": "_recipient",
          "type": "address"
        },
        {
          "internalType": "bytes32",
          "name": "_ipfshash",
          "type": "bytes32"
        }
      ],
      "name": "createProposal",
      "outputs": [],
      "stateMutability": "nonpayable",
      "type": "function"
    },
    {
      "inputs": [],
      "name": "created_at",
      "outputs": [
        {
          "internalType": "uint256",
          "name": "",
          "type": "uint256"
        }
      ],
      "stateMutability": "view",
      "type": "function"
    },
    {
      "inputs": [
        {
          "internalType": "uint256",
          "name": "_index",
          "type": "uint256"
        }
      ],
      "name": "disapproveCloseProposal",
      "outputs": [],
      "stateMutability": "nonpayable",
      "type": "function"
    },
    {
      "inputs": [
        {
          "internalType": "uint256",
          "name": "_index",
          "type": "uint256"
        }
      ],
      "name": "disapproveProposal",
      "outputs": [],
      "stateMutability": "nonpayable",
      "type": "function"
    },
    {
      "inputs": [],
      "name": "finalContributions",
      "outputs": [
        {
          "internalType": "uint256",
          "name": "",
          "type": "uint256"
        }
      ],
      "stateMutability": "view",
      "type": "function"
    },
    {
      "inputs": [],
      "name": "getBalancesInfo",
      "outputs": [
        {
          "internalType": "uint256",
          "name": "",
          "type": "uint256"
        },
        {
          "internalType": "uint256",
          "name": "",
          "type": "uint256"
        },
        {
          "internalType": "uint256",
          "name": "",
          "type": "uint256"
        },
        {
          "internalType": "uint256",
          "name": "",
          "type": "uint256"
        }
      ],
      "stateMutability": "view",
      "type": "function"
    },
    {
      "inputs": [],
      "name": "getCampaignInfo",
      "outputs": [
        {
          "internalType": "address",
          "name": "",
          "type": "address"
        },
        {
          "internalType": "enum CrowdfundingCampaign.CampaignStatus",
          "name": "",
          "type": "uint8"
        },
        {
          "internalType": "uint256",
          "name": "",
          "type": "uint256"
        },
        {
          "internalType": "uint256",
          "name": "",
          "type": "uint256"
        },
        {
          "internalType": "uint256",
          "name": "",
          "type": "uint256"
        },
        {
          "internalType": "uint256",
          "name": "",
          "type": "uint256"
        },
        {
          "internalType": "uint256",
          "name": "",
          "type": "uint256"
        },
        {
          "internalType": "bool",
          "name": "",
          "type": "bool"
        }
      ],
      "stateMutability": "view",
      "type": "function"
    },
    {
      "inputs": [
        {
          "internalType": "uint256",
          "name": "_index",
          "type": "uint256"
        }
      ],
      "name": "getCloseProposal",
      "outputs": [
        {
          "internalType": "uint256",
          "name": "",
          "type": "uint256"
        },
        {
          "internalType": "uint256",
          "name": "",
          "type": "uint256"
        },
        {
          "internalType": "enum CrowdfundingCampaign.ProposalStatus",
          "name": "",
          "type": "uint8"
        },
        {
          "internalType": "uint256",
          "name": "",
          "type": "uint256"
        },
        {
          "internalType": "bool",
          "name": "",
          "type": "bool"
        },
        {
          "internalType": "bool",
          "name": "",
          "type": "bool"
        },
        {
          "internalType": "address",
          "name": "",
          "type": "address"
        }
      ],
      "stateMutability": "view",
      "type": "function"
    },
    {
      "inputs": [],
      "name": "getCloseProposalsCount",
      "outputs": [
        {
          "internalType": "uint256",
          "name": "",
          "type": "uint256"
        }
      ],
      "stateMutability": "view",
      "type": "function"
    },
    {
      "inputs": [],
      "name": "getFinalContributions",
      "outputs": [
        {
          "internalType": "uint256",
          "name": "",
          "type": "uint256"
        }
      ],
      "stateMutability": "view",
      "type": "function"
    },
    {
      "inputs": [
        {
          "internalType": "uint256",
          "name": "_index",
          "type": "uint256"
        }
      ],
      "name": "getProposal",
      "outputs": [
        {
          "internalType": "address",
          "name": "",
          "type": "address"
        },
        {
          "internalType": "uint256",
          "name": "",
          "type": "uint256"
        },
        {
          "internalType": "uint256",
          "name": "",
          "type": "uint256"
        },
        {
          "internalType": "uint256",
          "name": "",
          "type": "uint256"
        },
        {
          "internalType": "enum CrowdfundingCampaign.ProposalStatus",
          "name": "",
          "type": "uint8"
        },
        {
          "internalType": "uint256",
          "name": "",
          "type": "uint256"
        },
        {
          "internalType": "bool",
          "name": "",
          "type": "bool"
        },
        {
          "internalType": "bool",
          "name": "",
          "type": "bool"
        }
      ],
      "stateMutability": "view",
      "type": "function"
    },
    {
      "inputs": [],
      "name": "getProposalsCount",
      "outputs": [
        {
          "internalType": "uint256",
          "name": "",
          "type": "uint256"
        }
      ],
      "stateMutability": "view",
      "type": "function"
    },
    {
      "inputs": [],
      "name": "getRemainingContributions",
      "outputs": [
        {
          "internalType": "uint256",
          "name": "",
          "type": "uint256"
        }
      ],
      "stateMutability": "view",
      "type": "function"
    },
    {
      "inputs": [],
      "name": "getStatus",
      "outputs": [
        {
          "internalType": "enum CrowdfundingCampaign.CampaignStatus",
          "name": "",
          "type": "uint8"
        }
      ],
      "stateMutability": "view",
      "type": "function"
    },
    {
      "inputs": [],
      "name": "goal",
      "outputs": [
        {
          "internalType": "uint256",
          "name": "",
          "type": "uint256"
        }
      ],
      "stateMutability": "view",
      "type": "function"
    },
    {
      "inputs": [
        {
          "internalType": "uint256",
          "name": "_index",
          "type": "uint256"
        }
      ],
      "name": "hasVotedCloseProposal",
      "outputs": [
        {
          "internalType": "bool",
          "name": "",
          "type": "bool"
        }
      ],
      "stateMutability": "view",
      "type": "function"
    },
    {
      "inputs": [
        {
          "internalType": "uint256",
          "name": "_index",
          "type": "uint256"
        }
      ],
      "name": "hasVotedProposal",
      "outputs": [
        {
          "internalType": "bool",
          "name": "",
          "type": "bool"
        }
      ],
      "stateMutability": "view",
      "type": "function"
    },
    {
      "inputs": [
        {
          "internalType": "address",
          "name": "_address",
          "type": "address"
        }
      ],
      "name": "isMember",
      "outputs": [
        {
          "internalType": "bool",
          "name": "",
          "type": "bool"
        }
      ],
      "stateMutability": "view",
      "type": "function"
    },
    {
      "inputs": [],
      "name": "membersCount",
      "outputs": [
        {
          "internalType": "uint256",
          "name": "",
          "type": "uint256"
        }
      ],
      "stateMutability": "view",
      "type": "function"
    },
    {
      "inputs": [],
      "name": "minimunContribution",
      "outputs": [
        {
          "internalType": "uint256",
          "name": "",
          "type": "uint256"
        }
      ],
      "stateMutability": "view",
      "type": "function"
    },
    {
      "inputs": [],
      "name": "owner",
      "outputs": [
        {
          "internalType": "address",
          "name": "",
          "type": "address"
        }
      ],
      "stateMutability": "view",
      "type": "function"
    },
    {
      "inputs": [
        {
          "internalType": "uint256",
          "name": "",
          "type": "uint256"
        }
      ],
      "name": "proposals",
      "outputs": [
        {
          "internalType": "uint256",
          "name": "value",
          "type": "uint256"
        },
        {
          "internalType": "address",
          "name": "recipient",
          "type": "address"
        },
        {
          "internalType": "uint256",
          "name": "approvalsCount",
          "type": "uint256"
        },
        {
          "internalType": "uint256",
          "name": "disapprovalsCount",
          "type": "uint256"
        },
        {
          "internalType": "enum CrowdfundingCampaign.ProposalStatus",
          "name": "status",
          "type": "uint8"
        },
        {
          "internalType": "uint256",
          "name": "limitTime",
          "type": "uint256"
        }
      ],
      "stateMutability": "view",
      "type": "function"
    },
    {
      "inputs": [
        {
          "internalType": "uint256",
          "name": "_index",
          "type": "uint256"
        }
      ],
      "name": "release",
      "outputs": [],
      "stateMutability": "nonpayable",
      "type": "function"
    },
    {
      "inputs": [],
      "name": "remainingContributions",
      "outputs": [
        {
          "internalType": "uint256",
          "name": "",
          "type": "uint256"
        }
      ],
      "stateMutability": "view",
      "type": "function"
    },
    {
      "inputs": [
        {
          "internalType": "bytes32",
          "name": "_ipfshash",
          "type": "bytes32"
        }
      ],
      "name": "saveProgressUpdate",
      "outputs": [],
      "stateMutability": "nonpayable",
      "type": "function"
    },
    {
      "inputs": [],
      "name": "setActive",
      "outputs": [],
      "stateMutability": "nonpayable",
      "type": "function"
    },
    {
      "inputs": [],
      "name": "status",
      "outputs": [
        {
          "internalType": "enum CrowdfundingCampaign.CampaignStatus",
          "name": "",
          "type": "uint8"
        }
      ],
      "stateMutability": "view",
      "type": "function"
    },
    {
      "inputs": [],
      "name": "withdraw",
      "outputs": [],
      "stateMutability": "nonpayable",
      "type": "function"
    },
    {
      "inputs": [
        {
          "internalType": "address",
          "name": "",
          "type": "address"
        }
      ],
      "name": "withdraws",
      "outputs": [
        {
          "internalType": "bool",
          "name": "",
          "type": "bool"
        }
      ],
      "stateMutability": "view",
      "type": "function"
    },
    {
      "inputs": [],
      "name": "changeCreatedAt",
      "outputs": [],
      "stateMutability": "nonpayable",
      "type": "function"
    },
    {
      "inputs": [
        {
          "internalType": "uint256",
          "name": "_index",
          "type": "uint256"
        }
      ],
      "name": "changeLimitProposal",
      "outputs": [],
      "stateMutability": "nonpayable",
      "type": "function"
    },
    {
      "inputs": [
        {
          "internalType": "uint256",
          "name": "_index",
          "type": "uint256"
        }
      ],
      "name": "changeLimitCloseProposal",
      "outputs": [],
      "stateMutability": "nonpayable",
      "type": "function"
    }
  ],
  "bytecode": "0x60806040523480156200001157600080fd5b5060405162004ea338038062004ea3833981810160405281019062000037919062000138565b82828233600060016101000a81548173ffffffffffffffffffffffffffffffffffffffff021916908373ffffffffffffffffffffffffffffffffffffffff160217905550816001819055508260028190555060008060006101000a81548160ff02191690836003811115620000b157620000b0620001d6565b5b02179055506000600381905550426006819055507f0f627713f9c831a1b079924dedde3308e90d22b754bdd481f9b2165aa0f9dfb981604051620000f69190620001a5565b60405180910390a15050505050506200023e565b6000815190506200011b816200020a565b92915050565b600081519050620001328162000224565b92915050565b60008060006060848603121562000154576200015362000205565b5b6000620001648682870162000121565b9350506020620001778682870162000121565b92505060406200018a868287016200010a565b9150509250925092565b6200019f81620001c2565b82525050565b6000602082019050620001bc600083018462000194565b92915050565b6000819050919050565b6000819050919050565b7f4e487b7100000000000000000000000000000000000000000000000000000000600052602160045260246000fd5b600080fd5b6200021581620001c2565b81146200022157600080fd5b50565b6200022f81620001cc565b81146200023b57600080fd5b50565b614c55806200024e6000396000f3fe60806040526004361061023b5760003560e01c806384b519b91161012e578063c7f758a8116100ab578063de3f3ae01161006f578063de3f3ae014610862578063edbd0db81461088b578063eeda0518146108b6578063f7268f2f146108f3578063fa65a1311461091c5761023b565b8063c7f758a81461078e578063c8541fe0146107d2578063d6290cd7146107fb578063d7bb99ba1461082d578063d853ba73146108375761023b565b80639c6f0d85116100f25780639c6f0d85146106a9578063a230c524146106d4578063a7f3371514610711578063b8f02ae11461073c578063c34b69d1146107655761023b565b806384b519b9146105bf5780638da5cb5b146105fc578063950eeba91461062757806398951b561461065557806398e527d31461067e5761023b565b806340193883116101bc5780634e69d560116101805780634e69d560146105005780634f92c9251461052b57806351c36c1e14610556578063760a8c2a1461057f57806384980e83146105965761023b565b806340193883146103d757806342e94c901461040257806343a41c8f1461043f57806348179ee5146104825780634de583fb146104bf5761023b565b8063297f9af011610203578063297f9af01461032c57806333ce6b8a1461035757806337bdc99b1461036e5780633b047a8f146103975780633ccfd60b146103c05761023b565b80630126f61e14610240578063013cf08b1461026b5780630386a016146102ad57806304095005146102d6578063200d2ed214610301575b600080fd5b34801561024c57600080fd5b50610255610945565b604051610262919061417a565b60405180910390f35b34801561027757600080fd5b50610292600480360381019061028d91906138e0565b61094b565b6040516102a496959493929190614195565b60405180910390f35b3480156102b957600080fd5b506102d460048036038101906102cf91906138e0565b6109c4565b005b3480156102e257600080fd5b506102eb610ce7565b6040516102f8919061417a565b60405180910390f35b34801561030d57600080fd5b50610316610cf4565b6040516103239190613e7f565b60405180910390f35b34801561033857600080fd5b50610341610d05565b60405161034e919061417a565b60405180910390f35b34801561036357600080fd5b5061036c610d0b565b005b34801561037a57600080fd5b50610395600480360381019061039091906138e0565b610d24565b005b3480156103a357600080fd5b506103be60048036038101906103b991906138b3565b610fc0565b005b3480156103cc57600080fd5b506103d56110fe565b005b3480156103e357600080fd5b506103ec611569565b6040516103f9919061417a565b60405180910390f35b34801561040e57600080fd5b5061042960048036038101906104249190613886565b61156f565b604051610436919061417a565b60405180910390f35b34801561044b57600080fd5b50610466600480360381019061046191906138e0565b611587565b6040516104799796959493929190614249565b60405180910390f35b34801561048e57600080fd5b506104a960048036038101906104a49190613886565b61167a565b6040516104b69190613e49565b60405180910390f35b3480156104cb57600080fd5b506104e660048036038101906104e191906138e0565b61169a565b6040516104f79594939291906141f6565b60405180910390f35b34801561050c57600080fd5b5061051561170d565b6040516105229190613e7f565b60405180910390f35b34801561053757600080fd5b50610540611723565b60405161054d919061417a565b60405180910390f35b34801561056257600080fd5b5061057d6004803603810190610578919061390d565b61172d565b005b34801561058b57600080fd5b50610594611979565b005b3480156105a257600080fd5b506105bd60048036038101906105b891906138e0565b611b21565b005b3480156105cb57600080fd5b506105e660048036038101906105e191906138e0565b611f14565b6040516105f39190613e49565b60405180910390f35b34801561060857600080fd5b50610611611f92565b60405161061e9190613cdf565b60405180910390f35b34801561063357600080fd5b5061063c611fb8565b60405161064c94939291906142b8565b60405180910390f35b34801561066157600080fd5b5061067c600480360381019061067791906138e0565b611fd6565b005b34801561068a57600080fd5b5061069361238d565b6040516106a0919061417a565b60405180910390f35b3480156106b557600080fd5b506106be61239a565b6040516106cb919061417a565b60405180910390f35b3480156106e057600080fd5b506106fb60048036038101906106f69190613886565b6123a0565b6040516107089190613e49565b60405180910390f35b34801561071d57600080fd5b506107266123eb565b604051610733919061417a565b60405180910390f35b34801561074857600080fd5b50610763600480360381019061075e91906138e0565b6123f1565b005b34801561077157600080fd5b5061078c600480360381019061078791906138e0565b612436565b005b34801561079a57600080fd5b506107b560048036038101906107b091906138e0565b61247b565b6040516107c9989796959493929190613d78565b60405180910390f35b3480156107de57600080fd5b506107f960048036038101906107f491906138e0565b612577565b005b34801561080757600080fd5b5061081061292e565b604051610824989796959493929190613cfa565b60405180910390f35b6108356129ae565b005b34801561084357600080fd5b5061084c612bcd565b604051610859919061417a565b60405180910390f35b34801561086e57600080fd5b50610889600480360381019061088491906138e0565b612bd3565b005b34801561089757600080fd5b506108a0613002565b6040516108ad919061417a565b60405180910390f35b3480156108c257600080fd5b506108dd60048036038101906108d891906138e0565b61300c565b6040516108ea9190613e49565b60405180910390f35b3480156108ff57600080fd5b5061091a600480360381019061091591906138b3565b61308a565b005b34801561092857600080fd5b50610943600480360381019061093e91906138e0565b613454565b005b60045481565b6009818154811061095b57600080fd5b90600052602060002090600702016000915090508060000154908060010160009054906101000a900473ffffffffffffffffffffffffffffffffffffffff16908060020154908060030154908060050160009054906101000a900460ff16908060060154905086565b6000600760003373ffffffffffffffffffffffffffffffffffffffff1673ffffffffffffffffffffffffffffffffffffffff168152602001908152602001600020541180610a5f5750600060019054906101000a900473ffffffffffffffffffffffffffffffffffffffff1673ffffffffffffffffffffffffffffffffffffffff163373ffffffffffffffffffffffffffffffffffffffff16145b610a9e576040517f08c379a0000000000000000000000000000000000000000000000000000000008152600401610a9590613eba565b60405180910390fd5b60016003811115610ab257610ab1614566565b5b60008054906101000a900460ff166003811115610ad257610ad1614566565b5b14610b12576040517f08c379a0000000000000000000000000000000000000000000000000000000008152600401610b099061403a565b60405180910390fd5b8060006003811115610b2757610b26614566565b5b60098281548110610b3b57610b3a614595565b5b906000526020600020906007020160050160009054906101000a900460ff166003811115610b6c57610b6b614566565b5b14610bac576040517f08c379a0000000000000000000000000000000000000000000000000000000008152600401610ba39061415a565b60405180910390fd5b8160098181548110610bc157610bc0614595565b5b9060005260206000209060070201600601544211610c14576040517f08c379a0000000000000000000000000000000000000000000000000000000008152600401610c0b9061411a565b60405180910390fd5b600060098481548110610c2a57610c29614595565b5b90600052602060002090600702019050806003015481600201541115610c7c5760018160050160006101000a81548160ff02191690836003811115610c7257610c71614566565b5b0217905550610caa565b60028160050160006101000a81548160ff02191690836003811115610ca457610ca3614566565b5b02179055505b7f887777ccf43690541bed9e00b10d0fccfa7520b11875f09847a57b3085d8ab9284604051610cd9919061417a565b60405180910390a150505050565b6000600a80549050905090565b60008054906101000a900460ff1681565b60035481565b62127500600654610d1c91906143ef565b600681905550565b600060019054906101000a900473ffffffffffffffffffffffffffffffffffffffff1673ffffffffffffffffffffffffffffffffffffffff163373ffffffffffffffffffffffffffffffffffffffff1614610db4576040517f08c379a0000000000000000000000000000000000000000000000000000000008152600401610dab90613f5a565b60405180910390fd5b60016003811115610dc857610dc7614566565b5b60008054906101000a900460ff166003811115610de857610de7614566565b5b14610e28576040517f08c379a0000000000000000000000000000000000000000000000000000000008152600401610e1f9061403a565b60405180910390fd5b8060016003811115610e3d57610e3c614566565b5b60098281548110610e5157610e50614595565b5b906000526020600020906007020160050160009054906101000a900460ff166003811115610e8257610e81614566565b5b14610ec2576040517f08c379a0000000000000000000000000000000000000000000000000000000008152600401610eb990613ffa565b60405180910390fd5b600060098381548110610ed857610ed7614595565b5b9060005260206000209060070201905060038160050160006101000a81548160ff02191690836003811115610f1057610f0f614566565b5b02179055508060010160009054906101000a900473ffffffffffffffffffffffffffffffffffffffff1673ffffffffffffffffffffffffffffffffffffffff166108fc82600001549081150290604051600060405180830381858888f19350505050158015610f83573d6000803e3d6000fd5b507fe02fec677757e427d1b6e49fcaf5bb9a6dd94e9fed2a2cc3c764c95deceff5b783604051610fb3919061417a565b60405180910390a1505050565b600060019054906101000a900473ffffffffffffffffffffffffffffffffffffffff1673ffffffffffffffffffffffffffffffffffffffff163373ffffffffffffffffffffffffffffffffffffffff1614611050576040517f08c379a000000000000000000000000000000000000000000000000000000000815260040161104790613f5a565b60405180910390fd5b6001600381111561106457611063614566565b5b60008054906101000a900460ff16600381111561108457611083614566565b5b146110c4576040517f08c379a00000000000000000000000000000000000000000000000000000000081526004016110bb9061403a565b60405180910390fd5b7f2f8af70d91e96a23b8111e37a9117f7cfe341f51c17759c36475a1a7698f0dc3816040516110f39190613e64565b60405180910390a150565b6000600760003373ffffffffffffffffffffffffffffffffffffffff1673ffffffffffffffffffffffffffffffffffffffff1681526020019081526020016000205411806111995750600060019054906101000a900473ffffffffffffffffffffffffffffffffffffffff1673ffffffffffffffffffffffffffffffffffffffff163373ffffffffffffffffffffffffffffffffffffffff16145b6111d8576040517f08c379a00000000000000000000000000000000000000000000000000000000081526004016111cf90613eba565b60405180910390fd5b6003808111156111eb576111ea614566565b5b60008054906101000a900460ff16600381111561120b5761120a614566565b5b148061124857506002600381111561122657611225614566565b5b60008054906101000a900460ff16600381111561124657611245614566565b5b145b611287576040517f08c379a000000000000000000000000000000000000000000000000000000000815260040161127e9061407a565b60405180910390fd5b600060019054906101000a900473ffffffffffffffffffffffffffffffffffffffff1673ffffffffffffffffffffffffffffffffffffffff163373ffffffffffffffffffffffffffffffffffffffff161415611318576040517f08c379a000000000000000000000000000000000000000000000000000000000815260040161130f90613f1a565b60405180910390fd5b600860003373ffffffffffffffffffffffffffffffffffffffff1673ffffffffffffffffffffffffffffffffffffffff16815260200190815260200160002060009054906101000a900460ff16156113a5576040517f08c379a000000000000000000000000000000000000000000000000000000000815260040161139c9061409a565b60405180910390fd5b6000600454600554600760003373ffffffffffffffffffffffffffffffffffffffff1673ffffffffffffffffffffffffffffffffffffffff168152602001908152602001600020546113f79190614395565b6114019190614364565b9050478110611445576040517f08c379a000000000000000000000000000000000000000000000000000000000815260040161143c90613fda565b60405180910390fd5b3373ffffffffffffffffffffffffffffffffffffffff166108fc829081150290604051600060405180830381858888f1935050505015801561148b573d6000803e3d6000fd5b506001600860003373ffffffffffffffffffffffffffffffffffffffff1673ffffffffffffffffffffffffffffffffffffffff16815260200190815260200160002060006101000a81548160ff0219169083151502179055507fa4e42298552baa3282225c552bba5a22b3034cdc0e531fe987c8003a44d95e2933600760003373ffffffffffffffffffffffffffffffffffffffff1673ffffffffffffffffffffffffffffffffffffffff168152602001908152602001600020546004548460055460405161155e959493929190613df6565b60405180910390a150565b60015481565b60076020528060005260406000206000915090505481565b600080600080600080600080600a89815481106115a7576115a6614595565b5b9060005260206000209060060201905060008160040154421115905060008260020160003373ffffffffffffffffffffffffffffffffffffffff1673ffffffffffffffffffffffffffffffffffffffff16815260200190815260200160002060009054906101000a900460ff169050826000015483600101548460030160009054906101000a900460ff16856004015485858860050160009054906101000a900473ffffffffffffffffffffffffffffffffffffffff169950995099509950995099509950505050919395979092949650565b60086020528060005260406000206000915054906101000a900460ff1681565b600a81815481106116aa57600080fd5b90600052602060002090600602016000915090508060000154908060010154908060030160009054906101000a900460ff16908060040154908060050160009054906101000a900473ffffffffffffffffffffffffffffffffffffffff16905085565b60008060009054906101000a900460ff16905090565b6000600554905090565b600060019054906101000a900473ffffffffffffffffffffffffffffffffffffffff1673ffffffffffffffffffffffffffffffffffffffff163373ffffffffffffffffffffffffffffffffffffffff16146117bd576040517f08c379a00000000000000000000000000000000000000000000000000000000081526004016117b490613f5a565b60405180910390fd5b600160038111156117d1576117d0614566565b5b60008054906101000a900460ff1660038111156117f1576117f0614566565b5b14611831576040517f08c379a00000000000000000000000000000000000000000000000000000000081526004016118289061403a565b60405180910390fd5b82471015611874576040517f08c379a000000000000000000000000000000000000000000000000000000000815260040161186b90613f9a565b60405180910390fd5b600060096001816001815401808255809150500390600052602060002090600702019050828160010160006101000a81548173ffffffffffffffffffffffffffffffffffffffff021916908373ffffffffffffffffffffffffffffffffffffffff160217905550838160000181905550600081600201819055506000816003018190555060008160050160006101000a81548160ff021916908360038111156119205761191f614566565b5b021790555062093a8042611934919061430e565b81600601819055507f288a29bca04edb18fcdb2c76d6e3b03b8a137c85c70d1a4cb8aacfa868d605108260405161196b9190613e64565b60405180910390a150505050565b600060019054906101000a900473ffffffffffffffffffffffffffffffffffffffff1673ffffffffffffffffffffffffffffffffffffffff163373ffffffffffffffffffffffffffffffffffffffff1614611a09576040517f08c379a0000000000000000000000000000000000000000000000000000000008152600401611a0090613f5a565b60405180910390fd5b60006003811115611a1d57611a1c614566565b5b60008054906101000a900460ff166003811115611a3d57611a3c614566565b5b14611a7d576040517f08c379a0000000000000000000000000000000000000000000000000000000008152600401611a74906140da565b60405180910390fd5b600154471015611ac2576040517f08c379a0000000000000000000000000000000000000000000000000000000008152600401611ab99061401a565b60405180910390fd5b60016000806101000a81548160ff02191690836003811115611ae757611ae6614566565b5b0217905550476004819055507fe283e942d53c4322165eacc7a597c86cdbc698c96321f57a82b29c615810a69560405160405180910390a1565b6000600760003373ffffffffffffffffffffffffffffffffffffffff1673ffffffffffffffffffffffffffffffffffffffff168152602001908152602001600020541180611bbc5750600060019054906101000a900473ffffffffffffffffffffffffffffffffffffffff1673ffffffffffffffffffffffffffffffffffffffff163373ffffffffffffffffffffffffffffffffffffffff16145b611bfb576040517f08c379a0000000000000000000000000000000000000000000000000000000008152600401611bf290613eba565b60405180910390fd5b60016003811115611c0f57611c0e614566565b5b60008054906101000a900460ff166003811115611c2f57611c2e614566565b5b1480611c6c575060006003811115611c4a57611c49614566565b5b60008054906101000a900460ff166003811115611c6a57611c69614566565b5b145b611cab576040517f08c379a0000000000000000000000000000000000000000000000000000000008152600401611ca2906140fa565b60405180910390fd5b8060006003811115611cc057611cbf614566565b5b600a8281548110611cd457611cd3614595565b5b906000526020600020906006020160030160009054906101000a900460ff166003811115611d0557611d04614566565b5b14611d45576040517f08c379a0000000000000000000000000000000000000000000000000000000008152600401611d3c9061413a565b60405180910390fd5b81600a8181548110611d5a57611d59614595565b5b906000526020600020906006020160040154421115611dae576040517f08c379a0000000000000000000000000000000000000000000000000000000008152600401611da590613fba565b60405180910390fd5b6000600a8481548110611dc457611dc3614595565b5b906000526020600020906006020190508060020160003373ffffffffffffffffffffffffffffffffffffffff1673ffffffffffffffffffffffffffffffffffffffff16815260200190815260200160002060009054906101000a900460ff1615611e63576040517f08c379a0000000000000000000000000000000000000000000000000000000008152600401611e5a906140ba565b60405180910390fd5b60018160020160003373ffffffffffffffffffffffffffffffffffffffff1673ffffffffffffffffffffffffffffffffffffffff16815260200190815260200160002060006101000a81548160ff021916908315150217905550806000016000815480929190611ed2906144bf565b91905055507f53c1eb0055cc9dbfe4823171931d9ec63b8682244ed5778661bb94ba2075f8c684604051611f06919061417a565b60405180910390a150505050565b600080600a8381548110611f2b57611f2a614595565b5b906000526020600020906006020190508060020160003373ffffffffffffffffffffffffffffffffffffffff1673ffffffffffffffffffffffffffffffffffffffff16815260200190815260200160002060009054906101000a900460ff16915050919050565b600060019054906101000a900473ffffffffffffffffffffffffffffffffffffffff1681565b60008060008060015460045460055447935093509350935090919293565b6000600760003373ffffffffffffffffffffffffffffffffffffffff1673ffffffffffffffffffffffffffffffffffffffff1681526020019081526020016000205411806120715750600060019054906101000a900473ffffffffffffffffffffffffffffffffffffffff1673ffffffffffffffffffffffffffffffffffffffff163373ffffffffffffffffffffffffffffffffffffffff16145b6120b0576040517f08c379a00000000000000000000000000000000000000000000000000000000081526004016120a790613eba565b60405180910390fd5b600160038111156120c4576120c3614566565b5b60008054906101000a900460ff1660038111156120e4576120e3614566565b5b14612124576040517f08c379a000000000000000000000000000000000000000000000000000000000815260040161211b9061403a565b60405180910390fd5b806000600381111561213957612138614566565b5b6009828154811061214d5761214c614595565b5b906000526020600020906007020160050160009054906101000a900460ff16600381111561217e5761217d614566565b5b146121be576040517f08c379a00000000000000000000000000000000000000000000000000000000081526004016121b59061415a565b60405180910390fd5b81600981815481106121d3576121d2614595565b5b906000526020600020906007020160060154421115612227576040517f08c379a000000000000000000000000000000000000000000000000000000000815260040161221e90613f7a565b60405180910390fd5b60006009848154811061223d5761223c614595565b5b906000526020600020906007020190508060040160003373ffffffffffffffffffffffffffffffffffffffff1673ffffffffffffffffffffffffffffffffffffffff16815260200190815260200160002060009054906101000a900460ff16156122dc576040517f08c379a00000000000000000000000000000000000000000000000000000000081526004016122d39061405a565b60405180910390fd5b60018160040160003373ffffffffffffffffffffffffffffffffffffffff1673ffffffffffffffffffffffffffffffffffffffff16815260200190815260200160002060006101000a81548160ff02191690831515021790555080600201600081548092919061234b906144bf565b91905055507f26b645fdecdf266f3abc5b7ae3e796ffd297febba8bd3a8ad49c68435190fc698460405161237f919061417a565b60405180910390a150505050565b6000600980549050905090565b60065481565b600080600760008473ffffffffffffffffffffffffffffffffffffffff1673ffffffffffffffffffffffffffffffffffffffff16815260200190815260200160002054119050919050565b60025481565b60006009828154811061240757612406614595565b5b9060005260206000209060070201905062093a80816006015461242a91906143ef565b81600601819055505050565b6000600a828154811061244c5761244b614595565b5b9060005260206000209060060201905062093a80816004015461246f91906143ef565b81600401819055505050565b600080600080600080600080600060098a8154811061249d5761249c614595565b5b9060005260206000209060070201905060008160060154421115905060008260040160003373ffffffffffffffffffffffffffffffffffffffff1673ffffffffffffffffffffffffffffffffffffffff16815260200190815260200160002060009054906101000a900460ff1690508260010160009054906101000a900473ffffffffffffffffffffffffffffffffffffffff168360000154846002015485600301548660050160009054906101000a900460ff16876006015487879a509a509a509a509a509a509a509a50505050919395975091939597565b6000600760003373ffffffffffffffffffffffffffffffffffffffff1673ffffffffffffffffffffffffffffffffffffffff1681526020019081526020016000205411806126125750600060019054906101000a900473ffffffffffffffffffffffffffffffffffffffff1673ffffffffffffffffffffffffffffffffffffffff163373ffffffffffffffffffffffffffffffffffffffff16145b612651576040517f08c379a000000000000000000000000000000000000000000000000000000000815260040161264890613eba565b60405180910390fd5b6001600381111561266557612664614566565b5b60008054906101000a900460ff16600381111561268557612684614566565b5b146126c5576040517f08c379a00000000000000000000000000000000000000000000000000000000081526004016126bc9061403a565b60405180910390fd5b80600060038111156126da576126d9614566565b5b600982815481106126ee576126ed614595565b5b906000526020600020906007020160050160009054906101000a900460ff16600381111561271f5761271e614566565b5b1461275f576040517f08c379a00000000000000000000000000000000000000000000000000000000081526004016127569061415a565b60405180910390fd5b816009818154811061277457612773614595565b5b9060005260206000209060070201600601544211156127c8576040517f08c379a00000000000000000000000000000000000000000000000000000000081526004016127bf90613f7a565b60405180910390fd5b6000600984815481106127de576127dd614595565b5b906000526020600020906007020190508060040160003373ffffffffffffffffffffffffffffffffffffffff1673ffffffffffffffffffffffffffffffffffffffff16815260200190815260200160002060009054906101000a900460ff161561287d576040517f08c379a00000000000000000000000000000000000000000000000000000000081526004016128749061405a565b60405180910390fd5b60018160040160003373ffffffffffffffffffffffffffffffffffffffff1673ffffffffffffffffffffffffffffffffffffffff16815260200190815260200160002060006101000a81548160ff0219169083151502179055508060030160008154809291906128ec906144bf565b91905055507f26b645fdecdf266f3abc5b7ae3e796ffd297febba8bd3a8ad49c68435190fc6984604051612920919061417a565b60405180910390a150505050565b6000806000806000806000806000426212750060065461294e919061430e565b11159050600060019054906101000a900473ffffffffffffffffffffffffffffffffffffffff1660008054906101000a900460ff166001546002546003546004546005548798509850985098509850985098509850509091929394959697565b6000600760003373ffffffffffffffffffffffffffffffffffffffff1673ffffffffffffffffffffffffffffffffffffffff16815260200190815260200160002054148015612a4b5750600060019054906101000a900473ffffffffffffffffffffffffffffffffffffffff1673ffffffffffffffffffffffffffffffffffffffff163373ffffffffffffffffffffffffffffffffffffffff1614155b612a8a576040517f08c379a0000000000000000000000000000000000000000000000000000000008152600401612a8190613efa565b60405180910390fd5b60006003811115612a9e57612a9d614566565b5b60008054906101000a900460ff166003811115612abe57612abd614566565b5b14612afe576040517f08c379a0000000000000000000000000000000000000000000000000000000008152600401612af5906140da565b60405180910390fd5b600254341015612b43576040517f08c379a0000000000000000000000000000000000000000000000000000000008152600401612b3a90613eda565b60405180910390fd5b34600760003373ffffffffffffffffffffffffffffffffffffffff1673ffffffffffffffffffffffffffffffffffffffff1681526020019081526020016000208190555060036000815480929190612b9a906144bf565b91905055507f0673e22453ca22ab66c750388a377485c2d57a19fb171f1442f45e933d5e841860405160405180910390a1565b60055481565b6000600760003373ffffffffffffffffffffffffffffffffffffffff1673ffffffffffffffffffffffffffffffffffffffff168152602001908152602001600020541180612c6e5750600060019054906101000a900473ffffffffffffffffffffffffffffffffffffffff1673ffffffffffffffffffffffffffffffffffffffff163373ffffffffffffffffffffffffffffffffffffffff16145b612cad576040517f08c379a0000000000000000000000000000000000000000000000000000000008152600401612ca490613eba565b60405180910390fd5b60016003811115612cc157612cc0614566565b5b60008054906101000a900460ff166003811115612ce157612ce0614566565b5b1480612d1e575060006003811115612cfc57612cfb614566565b5b60008054906101000a900460ff166003811115612d1c57612d1b614566565b5b145b612d5d576040517f08c379a0000000000000000000000000000000000000000000000000000000008152600401612d54906140fa565b60405180910390fd5b8060006003811115612d7257612d71614566565b5b600a8281548110612d8657612d85614595565b5b906000526020600020906006020160030160009054906101000a900460ff166003811115612db757612db6614566565b5b14612df7576040517f08c379a0000000000000000000000000000000000000000000000000000000008152600401612dee9061413a565b60405180910390fd5b81600a8181548110612e0c57612e0b614595565b5b9060005260206000209060060201600401544211612e5f576040517f08c379a0000000000000000000000000000000000000000000000000000000008152600401612e5690613f3a565b60405180910390fd5b6000600a8481548110612e7557612e74614595565b5b90600052602060002090600602019050806001015481600001541115612fa257600060019054906101000a900473ffffffffffffffffffffffffffffffffffffffff1673ffffffffffffffffffffffffffffffffffffffff168160050160009054906101000a900473ffffffffffffffffffffffffffffffffffffffff1673ffffffffffffffffffffffffffffffffffffffff161415612f3e5760036000806101000a81548160ff02191690836003811115612f3457612f33614566565b5b0217905550612f69565b60026000806101000a81548160ff02191690836003811115612f6357612f62614566565b5b02179055505b60018160030160006101000a81548160ff02191690836003811115612f9157612f90614566565b5b021790555047600581905550612fd0565b60028160030160006101000a81548160ff02191690836003811115612fca57612fc9614566565b5b02179055505b7fe283e942d53c4322165eacc7a597c86cdbc698c96321f57a82b29c615810a69560405160405180910390a150505050565b6000600454905090565b6000806009838154811061302357613022614595565b5b906000526020600020906007020190508060040160003373ffffffffffffffffffffffffffffffffffffffff1673ffffffffffffffffffffffffffffffffffffffff16815260200190815260200160002060009054906101000a900460ff16915050919050565b6000600760003373ffffffffffffffffffffffffffffffffffffffff1673ffffffffffffffffffffffffffffffffffffffff1681526020019081526020016000205411806131255750600060019054906101000a900473ffffffffffffffffffffffffffffffffffffffff1673ffffffffffffffffffffffffffffffffffffffff163373ffffffffffffffffffffffffffffffffffffffff16145b613164576040517f08c379a000000000000000000000000000000000000000000000000000000000815260040161315b90613eba565b60405180910390fd5b6001600381111561317857613177614566565b5b60008054906101000a900460ff16600381111561319857613197614566565b5b14806131d55750600060038111156131b3576131b2614566565b5b60008054906101000a900460ff1660038111156131d3576131d2614566565b5b145b613214576040517f08c379a000000000000000000000000000000000000000000000000000000000815260040161320b906140fa565b60405180910390fd5b60004262127500600654613228919061430e565b1115801561326757506000600381111561324557613244614566565b5b60008054906101000a900460ff16600381111561326557613264614566565b5b145b905080806132a657506001600381111561328457613283614566565b5b60008054906101000a900460ff1660038111156132a4576132a3614566565b5b145b6132e5576040517f08c379a00000000000000000000000000000000000000000000000000000000081526004016132dc90613e9a565b60405180910390fd5b6000600a6001816001815401808255809150500390600052602060002090600602019050600081600001819055506000816001018190555060008160030160006101000a81548160ff0219169083600381111561334557613344614566565b5b021790555062093a8042613359919061430e565b8160040181905550338160050160006101000a81548173ffffffffffffffffffffffffffffffffffffffff021916908373ffffffffffffffffffffffffffffffffffffffff16021790555060018160020160003373ffffffffffffffffffffffffffffffffffffffff1673ffffffffffffffffffffffffffffffffffffffff16815260200190815260200160002060006101000a81548160ff021916908315150217905550806000016000815480929190613413906144bf565b91905055507fd652a200abc8c9e3e659b36ee1d1c81a25a3cd454afdb8cede6431e74906497c836040516134479190613e64565b60405180910390a1505050565b6000600760003373ffffffffffffffffffffffffffffffffffffffff1673ffffffffffffffffffffffffffffffffffffffff1681526020019081526020016000205411806134ef5750600060019054906101000a900473ffffffffffffffffffffffffffffffffffffffff1673ffffffffffffffffffffffffffffffffffffffff163373ffffffffffffffffffffffffffffffffffffffff16145b61352e576040517f08c379a000000000000000000000000000000000000000000000000000000000815260040161352590613eba565b60405180910390fd5b6001600381111561354257613541614566565b5b60008054906101000a900460ff16600381111561356257613561614566565b5b148061359f57506000600381111561357d5761357c614566565b5b60008054906101000a900460ff16600381111561359d5761359c614566565b5b145b6135de576040517f08c379a00000000000000000000000000000000000000000000000000000000081526004016135d5906140fa565b60405180910390fd5b80600060038111156135f3576135f2614566565b5b600a828154811061360757613606614595565b5b906000526020600020906006020160030160009054906101000a900460ff16600381111561363857613637614566565b5b14613678576040517f08c379a000000000000000000000000000000000000000000000000000000000815260040161366f9061413a565b60405180910390fd5b81600a818154811061368d5761368c614595565b5b9060005260206000209060060201600401544211156136e1576040517f08c379a00000000000000000000000000000000000000000000000000000000081526004016136d890613fba565b60405180910390fd5b6000600a84815481106136f7576136f6614595565b5b906000526020600020906006020190508060020160003373ffffffffffffffffffffffffffffffffffffffff1673ffffffffffffffffffffffffffffffffffffffff16815260200190815260200160002060009054906101000a900460ff1615613796576040517f08c379a000000000000000000000000000000000000000000000000000000000815260040161378d906140ba565b60405180910390fd5b60018160020160003373ffffffffffffffffffffffffffffffffffffffff1673ffffffffffffffffffffffffffffffffffffffff16815260200190815260200160002060006101000a81548160ff021916908315150217905550806001016000815480929190613805906144bf565b91905055507f53c1eb0055cc9dbfe4823171931d9ec63b8682244ed5778661bb94ba2075f8c684604051613839919061417a565b60405180910390a150505050565b60008135905061385681614bda565b92915050565b60008135905061386b81614bf1565b92915050565b60008135905061388081614c08565b92915050565b60006020828403121561389c5761389b6145c4565b5b60006138aa84828501613847565b91505092915050565b6000602082840312156138c9576138c86145c4565b5b60006138d78482850161385c565b91505092915050565b6000602082840312156138f6576138f56145c4565b5b600061390484828501613871565b91505092915050565b600080600060608486031215613926576139256145c4565b5b600061393486828701613871565b935050602061394586828701613847565b92505060406139568682870161385c565b9150509250925092565b61396981614423565b82525050565b61397881614435565b82525050565b61398781614441565b82525050565b6139968161449b565b82525050565b6139a5816144ad565b82525050565b60006139b8602b836142fd565b91506139c3826145c9565b604082019050919050565b60006139db6017836142fd565b91506139e682614618565b602082019050919050565b60006139fe6020836142fd565b9150613a0982614641565b602082019050919050565b6000613a21601b836142fd565b9150613a2c8261466a565b602082019050919050565b6000613a446014836142fd565b9150613a4f82614693565b602082019050919050565b6000613a67602c836142fd565b9150613a72826146bc565b604082019050919050565b6000613a8a6018836142fd565b9150613a958261470b565b602082019050919050565b6000613aad6021836142fd565b9150613ab882614734565b604082019050919050565b6000613ad0601b836142fd565b9150613adb82614783565b602082019050919050565b6000613af36027836142fd565b9150613afe826147ac565b604082019050919050565b6000613b166023836142fd565b9150613b21826147fb565b604082019050919050565b6000613b39601d836142fd565b9150613b448261484a565b602082019050919050565b6000613b5c6022836142fd565b9150613b6782614873565b604082019050919050565b6000613b7f6022836142fd565b9150613b8a826148c2565b604082019050919050565b6000613ba26031836142fd565b9150613bad82614911565b604082019050919050565b6000613bc56025836142fd565b9150613bd082614960565b604082019050919050565b6000613be86023836142fd565b9150613bf3826149af565b604082019050919050565b6000613c0b6037836142fd565b9150613c16826149fe565b604082019050919050565b6000613c2e6023836142fd565b9150613c3982614a4d565b604082019050919050565b6000613c51601e836142fd565b9150613c5c82614a9c565b602082019050919050565b6000613c746026836142fd565b9150613c7f82614ac5565b604082019050919050565b6000613c976028836142fd565b9150613ca282614b14565b604082019050919050565b6000613cba6022836142fd565b9150613cc582614b63565b604082019050919050565b613cd981614491565b82525050565b6000602082019050613cf46000830184613960565b92915050565b600061010082019050613d10600083018b613960565b613d1d602083018a61398d565b613d2a6040830189613cd0565b613d376060830188613cd0565b613d446080830187613cd0565b613d5160a0830186613cd0565b613d5e60c0830185613cd0565b613d6b60e083018461396f565b9998505050505050505050565b600061010082019050613d8e600083018b613960565b613d9b602083018a613cd0565b613da86040830189613cd0565b613db56060830188613cd0565b613dc2608083018761399c565b613dcf60a0830186613cd0565b613ddc60c083018561396f565b613de960e083018461396f565b9998505050505050505050565b600060a082019050613e0b6000830188613960565b613e186020830187613cd0565b613e256040830186613cd0565b613e326060830185613cd0565b613e3f6080830184613cd0565b9695505050505050565b6000602082019050613e5e600083018461396f565b92915050565b6000602082019050613e79600083018461397e565b92915050565b6000602082019050613e94600083018461398d565b92915050565b60006020820190508181036000830152613eb3816139ab565b9050919050565b60006020820190508181036000830152613ed3816139ce565b9050919050565b60006020820190508181036000830152613ef3816139f1565b9050919050565b60006020820190508181036000830152613f1381613a14565b9050919050565b60006020820190508181036000830152613f3381613a37565b9050919050565b60006020820190508181036000830152613f5381613a5a565b9050919050565b60006020820190508181036000830152613f7381613a7d565b9050919050565b60006020820190508181036000830152613f9381613aa0565b9050919050565b60006020820190508181036000830152613fb381613ac3565b9050919050565b60006020820190508181036000830152613fd381613ae6565b9050919050565b60006020820190508181036000830152613ff381613b09565b9050919050565b6000602082019050818103600083015261401381613b2c565b9050919050565b6000602082019050818103600083015261403381613b4f565b9050919050565b6000602082019050818103600083015261405381613b72565b9050919050565b6000602082019050818103600083015261407381613b95565b9050919050565b6000602082019050818103600083015261409381613bb8565b9050919050565b600060208201905081810360008301526140b381613bdb565b9050919050565b600060208201905081810360008301526140d381613bfe565b9050919050565b600060208201905081810360008301526140f381613c21565b9050919050565b6000602082019050818103600083015261411381613c44565b9050919050565b6000602082019050818103600083015261413381613c67565b9050919050565b6000602082019050818103600083015261415381613c8a565b9050919050565b6000602082019050818103600083015261417381613cad565b9050919050565b600060208201905061418f6000830184613cd0565b92915050565b600060c0820190506141aa6000830189613cd0565b6141b76020830188613960565b6141c46040830187613cd0565b6141d16060830186613cd0565b6141de608083018561399c565b6141eb60a0830184613cd0565b979650505050505050565b600060a08201905061420b6000830188613cd0565b6142186020830187613cd0565b614225604083018661399c565b6142326060830185613cd0565b61423f6080830184613960565b9695505050505050565b600060e08201905061425e600083018a613cd0565b61426b6020830189613cd0565b614278604083018861399c565b6142856060830187613cd0565b614292608083018661396f565b61429f60a083018561396f565b6142ac60c0830184613960565b98975050505050505050565b60006080820190506142cd6000830187613cd0565b6142da6020830186613cd0565b6142e76040830185613cd0565b6142f46060830184613cd0565b95945050505050565b600082825260208201905092915050565b600061431982614491565b915061432483614491565b9250827fffffffffffffffffffffffffffffffffffffffffffffffffffffffffffffffff0382111561435957614358614508565b5b828201905092915050565b600061436f82614491565b915061437a83614491565b92508261438a57614389614537565b5b828204905092915050565b60006143a082614491565b91506143ab83614491565b9250817fffffffffffffffffffffffffffffffffffffffffffffffffffffffffffffffff04831182151516156143e4576143e3614508565b5b828202905092915050565b60006143fa82614491565b915061440583614491565b92508282101561441857614417614508565b5b828203905092915050565b600061442e82614471565b9050919050565b60008115159050919050565b6000819050919050565b600081905061445982614bb2565b919050565b600081905061446c82614bc6565b919050565b600073ffffffffffffffffffffffffffffffffffffffff82169050919050565b6000819050919050565b60006144a68261444b565b9050919050565b60006144b88261445e565b9050919050565b60006144ca82614491565b91507fffffffffffffffffffffffffffffffffffffffffffffffffffffffffffffffff8214156144fd576144fc614508565b5b600182019050919050565b7f4e487b7100000000000000000000000000000000000000000000000000000000600052601160045260246000fd5b7f4e487b7100000000000000000000000000000000000000000000000000000000600052601260045260246000fd5b7f4e487b7100000000000000000000000000000000000000000000000000000000600052602160045260246000fd5b7f4e487b7100000000000000000000000000000000000000000000000000000000600052603260045260246000fd5b600080fd5b7f5468652063616d7061696e672063726561746564206d7573742068617665203160008201527f342064617973206f6c642e000000000000000000000000000000000000000000602082015250565b7f53656e646572206973206e6f742061206d656d6265722e000000000000000000600082015250565b7f54686520636f6e747269627574696f6e20697320696e73756666696369656e74600082015250565b7f53656e64657220697320616c72656164792061206d656d6265722e0000000000600082015250565b7f53656e64657220697320746865206f776e65722e000000000000000000000000600082015250565b7f54686520636c6f73652070726f706f73616c206973207374696c6c206f70656e60008201527f20666f7220766f74696e672e0000000000000000000000000000000000000000602082015250565b7f53656e646572206973206e6f7420746865206f776e65722e0000000000000000600082015250565b7f5468652070726f706f73616c20697320636c6f736520666f7220766f74696e6760008201527f2e00000000000000000000000000000000000000000000000000000000000000602082015250565b7f54686520666f756e64732061726520696e73756666696369656e740000000000600082015250565b7f54686520636c6f73652070726f706f73616c20697320636c6f736520666f722060008201527f766f74696e672e00000000000000000000000000000000000000000000000000602082015250565b7f5061796d656e742063616e2774206265206d6f7265207468616e2062616c616e60008201527f63652e0000000000000000000000000000000000000000000000000000000000602082015250565b7f5468652070726f706f73616c206973206e6f7420617070726f7665642e000000600082015250565b7f54686520636f6e747269627574696f6e732061726520696e737566666963696560008201527f6e74000000000000000000000000000000000000000000000000000000000000602082015250565b7f5468652063616d706169676e20737461747573206973206e6f7420616374697660008201527f652e000000000000000000000000000000000000000000000000000000000000602082015250565b7f5468652070726f706f73616c20686173206265656e20616c726561647920766f60008201527f746564206279207468652073656e646572000000000000000000000000000000602082015250565b7f5468652063616d706169676e20737461747573206973206e6f7420636c6f736560008201527f207965742e000000000000000000000000000000000000000000000000000000602082015250565b7f53656e64657220616c72656164792077697468647261772068697320666f756e60008201527f64732e0000000000000000000000000000000000000000000000000000000000602082015250565b7f54686520636c6f73652070726f706f73616c20686173206265656e20616c726560008201527f61647920766f746564206279207468652073656e646572000000000000000000602082015250565b7f5468652063616d706169676e20737461747573206973206e6f7420637265617460008201527f65642e0000000000000000000000000000000000000000000000000000000000602082015250565b7f5468652063616d706169676e2073746174757320697320434c4f5345442e0000600082015250565b7f5468652070726f706f73616c206973207374696c6c206f70656e20666f72207660008201527f6f74696e672e0000000000000000000000000000000000000000000000000000602082015250565b7f54686520636c6f73652070726f706f73616c206973206e6f74206c6f6e67657260008201527f206163746976652e000000000000000000000000000000000000000000000000602082015250565b7f5468652070726f706f73616c206973206e6f74206c6f6e67657220616374697660008201527f652e000000000000000000000000000000000000000000000000000000000000602082015250565b60048110614bc357614bc2614566565b5b50565b60048110614bd757614bd6614566565b5b50565b614be381614423565b8114614bee57600080fd5b50565b614bfa81614441565b8114614c0557600080fd5b50565b614c1181614491565b8114614c1c57600080fd5b5056fea264697066735822122009db841b28dacfa86b0839121ca7db9271766aa6d6a5794a6882e9315e9f5c4a64736f6c63430008060033",
  "immutableReferences": {},
  "source": "//SPDX-License-Identifier: GPL-3.0-only\npragma solidity ^0.8.0;\n\nimport \"./CrowdfundingCampaign.sol\";\n\ncontract CrowdfundingCampaignDemo is CrowdfundingCampaign {\n\n    /** @dev Constructor.\n     *  @param _minimunContribution minimum contribution in wei that a person has to make to become a member.\n     *  @param _goal goal in wei that the proyect has to reach to be succesfull.\n     *  @param _ipfshash The url hash of the campaign data previusly stored in IPFS.\n    **/\n    constructor(uint _minimunContribution, uint _goal, bytes32 _ipfshash)\n    CrowdfundingCampaign(_minimunContribution, _goal, _ipfshash) {\n\n    }\n\n    /** @dev Allow to change the created_at value to 14 days earlier to allow have close proposals in a CREATED campaign the demo.\n     */\n    function changeCreatedAt() public {\n\n        created_at = created_at - 14 days;\n    }\n      \n    /** @dev Allow to change the proposal limit date to seven days earlier to allow have close proposals in the demo.\n     *  @param _index index of the proposal we want to change the limit date.\n     */\n    function changeLimitProposal(uint _index) public {\n\n        Proposal storage proposal = proposals[_index];\n        proposal.limitTime = proposal.limitTime - 7 days;        \n    }\n\n     /** @dev Allow to change the close proposal limit date to seven days earlier to allow have close proposals in the demo.\n     *  @param _index index of the close proposal we want to change the limit date.\n     */\n    function changeLimitCloseProposal(uint _index) public {\n\n        CloseProposal storage cProposal = closeProposals[_index];\n        cProposal.limitTime = cProposal.limitTime - 7 days;        \n    }\n\n\n}",
  "sourcePath": "/home/tati/Desktop/personal/Tesina/semideas-crowdfunding/contracts/CrowdfundingCampaignDemo.sol",
  "compiler": {
    "name": "solc",
    "version": "0.8.6+commit.11564f7e.Emscripten.clang"
  },
  "schemaVersion": "3.4.1",
  "updatedAt": "2021-07-26T00:01:45.523Z",
  "devdoc": {
    "kind": "dev",
    "methods": {
      "approveCloseProposal(uint256)": {
        "details": "Allow only members to approve an active close proposal that they haven't voted before.",
        "params": {
          "_index": "index of the close proposal the member wants to approve."
        }
      },
      "approveProposal(uint256)": {
        "details": "Allow only members to approve an active proposal that they haven't voted before.",
        "params": {
          "_index": "index of the proposal the member wants to approve."
        }
      },
      "changeCreatedAt()": {
        "details": "Allow to change the created_at value to 14 days earlier to allow have close proposals in a CREATED campaign the demo."
      },
      "changeLimitCloseProposal(uint256)": {
        "details": "Allow to change the close proposal limit date to seven days earlier to allow have close proposals in the demo.",
        "params": {
          "_index": "index of the close proposal we want to change the limit date."
        }
      },
      "changeLimitProposal(uint256)": {
        "details": "Allow to change the proposal limit date to seven days earlier to allow have close proposals in the demo.",
        "params": {
          "_index": "index of the proposal we want to change the limit date."
        }
      },
      "closeCloseProposal(uint256)": {
        "details": "Allow only members to close an active proposal that already has its voting time over.",
        "params": {
          "_index": "index of the proposal the member wants to approve."
        }
      },
      "closeProposal(uint256)": {
        "details": "Allow only members to close an active proposal that already has its voting time over.",
        "params": {
          "_index": "index of the proposal the member wants to approve."
        }
      },
      "constructor": {
        "details": "Constructor.",
        "params": {
          "_goal": "goal in wei that the proyect has to reach to be succesfull.",
          "_ipfshash": "The url hash of the campaign data previusly stored in IPFS.*",
          "_minimunContribution": "minimum contribution in wei that a person has to make to become a member."
        }
      },
      "contribute()": {
        "details": "Allow not members to contribute with the campaign and be a member of it."
      },
      "createCloseProposal(bytes32)": {
        "details": "Allow only members to create a new proposal to finish de project and get the founds back.",
        "params": {
          "_ipfshash": "url hash of the close proposal data (description) previously stored in IPFS."
        }
      },
      "createProposal(uint256,address,bytes32)": {
        "details": "Allow only owner to create a new proposal to get more founds.",
        "params": {
          "_ipfshash": "url hash of the proposal data (description and pictures) previously stored in IPFS.",
          "_recipient": "address where the founds are going to be after release them.",
          "_value": "founds in wei that the owner want to release."
        }
      },
      "disapproveCloseProposal(uint256)": {
        "details": "Allow only members to disapprove an active close proposal that they haven't voted before.",
        "params": {
          "_index": "index of the close proposal the member wants to disapprove."
        }
      },
      "disapproveProposal(uint256)": {
        "details": "Allow only members to disapprove an active proposal that they haven't voted before.",
        "params": {
          "_index": "index of the proposal the member wants to disapprove."
        }
      },
      "getBalancesInfo()": {
        "details": "Function to get all the balances of the campaign"
      },
      "getCampaignInfo()": {
        "details": "Function to get the data of the campaign"
      },
      "getCloseProposal(uint256)": {
        "details": "Function to get the data of a close proposal.",
        "params": {
          "_index": "index of the proposal to return"
        }
      },
      "getCloseProposalsCount()": {
        "details": "Function to get the total number of close proposals."
      },
      "getFinalContributions()": {
        "details": "Function to get the finalContributions of the campaign."
      },
      "getProposal(uint256)": {
        "details": "Function to get the data of a proposal.",
        "params": {
          "_index": "index of the proposal to return"
        }
      },
      "getProposalsCount()": {
        "details": "Function to get the total number of proposals."
      },
      "getRemainingContributions()": {
        "details": "Function to get the remainingContributions of the campaign."
      },
      "getStatus()": {
        "details": "Function to get the actual status of the campaign."
      },
      "hasVotedCloseProposal(uint256)": {
        "details": "Function to know if a member has already vot a close proposal.",
        "params": {
          "_index": "index of the proposal"
        }
      },
      "hasVotedProposal(uint256)": {
        "details": "Function to know if a member has already vot a proposal.",
        "params": {
          "_index": "index of the proposal"
        }
      },
      "isMember(address)": {
        "details": "Function to return if someone is member."
      },
      "release(uint256)": {
        "details": "Allow only members to close an active proposal that already has its voting time over.",
        "params": {
          "_index": "index of the proposal the member wants to approve."
        }
      },
      "saveProgressUpdate(bytes32)": {
        "details": "Allow only owner to save a new progress Update data ipfs hash.",
        "params": {
          "_ipfshash": "url hash of the progress update data (description and pictures) previously stored in IPFS."
        }
      },
      "setActive()": {
        "details": "Allow only owner to change the status of the cCampaign from CREATED to ACTIVE."
      },
      "withdraw()": {
        "details": "Allow only members to withdraw the remaining founds once the campaign is closed."
      }
    },
    "version": 1
  },
  "userdoc": {
    "kind": "user",
    "methods": {},
    "version": 1
  }
}