{
  "contractName": "CrowdfundingCampaign",
  "abi": [
    {
      "inputs": [
        {
          "internalType": "uint256",
          "name": "_minimunContribution",
          "type": "uint256"
        },
        {
          "internalType": "uint256",
          "name": "_goal",
          "type": "uint256"
        },
        {
          "internalType": "bytes32",
          "name": "_ipfshash",
          "type": "bytes32"
        }
      ],
      "stateMutability": "nonpayable",
      "type": "constructor"
    },
    {
      "anonymous": false,
      "inputs": [
        {
          "indexed": false,
          "internalType": "bytes32",
          "name": "_ipfshash",
          "type": "bytes32"
        }
      ],
      "name": "CampaignCreated",
      "type": "event"
    },
    {
      "anonymous": false,
      "inputs": [
        {
          "indexed": false,
          "internalType": "enum CrowdfundingCampaign.CampaignStatus",
          "name": "status",
          "type": "uint8"
        }
      ],
      "name": "ChangeStatusCampaign",
      "type": "event"
    },
    {
      "anonymous": false,
      "inputs": [
        {
          "indexed": false,
          "internalType": "bytes32",
          "name": "_ipfshash",
          "type": "bytes32"
        }
      ],
      "name": "CloseProposalCreated",
      "type": "event"
    },
    {
      "anonymous": false,
      "inputs": [
        {
          "indexed": false,
          "internalType": "uint256",
          "name": "_index",
          "type": "uint256"
        }
      ],
      "name": "CloseProposalVoted",
      "type": "event"
    },
    {
      "anonymous": false,
      "inputs": [],
      "name": "NewContribution",
      "type": "event"
    },
    {
      "anonymous": false,
      "inputs": [
        {
          "indexed": false,
          "internalType": "bytes32",
          "name": "_ipfshash",
          "type": "bytes32"
        }
      ],
      "name": "ProgressUpdate",
      "type": "event"
    },
    {
      "anonymous": false,
      "inputs": [
        {
          "indexed": false,
          "internalType": "uint256",
          "name": "_index",
          "type": "uint256"
        }
      ],
      "name": "ProposalClosed",
      "type": "event"
    },
    {
      "anonymous": false,
      "inputs": [
        {
          "indexed": false,
          "internalType": "bytes32",
          "name": "_ipfshash",
          "type": "bytes32"
        }
      ],
      "name": "ProposalCreated",
      "type": "event"
    },
    {
      "anonymous": false,
      "inputs": [
        {
          "indexed": false,
          "internalType": "uint256",
          "name": "_index",
          "type": "uint256"
        }
      ],
      "name": "ProposalRelease",
      "type": "event"
    },
    {
      "anonymous": false,
      "inputs": [
        {
          "indexed": false,
          "internalType": "uint256",
          "name": "_index",
          "type": "uint256"
        }
      ],
      "name": "ProposalVoted",
      "type": "event"
    },
    {
      "anonymous": false,
      "inputs": [
        {
          "indexed": false,
          "internalType": "address",
          "name": "_member",
          "type": "address"
        },
        {
          "indexed": false,
          "internalType": "uint256",
          "name": "contribution",
          "type": "uint256"
        },
        {
          "indexed": false,
          "internalType": "uint256",
          "name": "finalContributions",
          "type": "uint256"
        },
        {
          "indexed": false,
          "internalType": "uint256",
          "name": "payment",
          "type": "uint256"
        },
        {
          "indexed": false,
          "internalType": "uint256",
          "name": "remainingContributions",
          "type": "uint256"
        }
      ],
      "name": "WithdrawFounds",
      "type": "event"
    },
    {
      "inputs": [
        {
          "internalType": "uint256",
          "name": "",
          "type": "uint256"
        }
      ],
      "name": "closeProposals",
      "outputs": [
        {
          "internalType": "uint256",
          "name": "approvalsCount",
          "type": "uint256"
        },
        {
          "internalType": "uint256",
          "name": "disapprovalsCount",
          "type": "uint256"
        },
        {
          "internalType": "enum CrowdfundingCampaign.ProposalStatus",
          "name": "status",
          "type": "uint8"
        },
        {
          "internalType": "uint256",
          "name": "limitTime",
          "type": "uint256"
        },
        {
          "internalType": "address",
          "name": "author",
          "type": "address"
        }
      ],
      "stateMutability": "view",
      "type": "function"
    },
    {
      "inputs": [
        {
          "internalType": "address",
          "name": "",
          "type": "address"
        }
      ],
      "name": "contributions",
      "outputs": [
        {
          "internalType": "uint256",
          "name": "",
          "type": "uint256"
        }
      ],
      "stateMutability": "view",
      "type": "function"
    },
    {
      "inputs": [],
      "name": "created_at",
      "outputs": [
        {
          "internalType": "uint256",
          "name": "",
          "type": "uint256"
        }
      ],
      "stateMutability": "view",
      "type": "function"
    },
    {
      "inputs": [],
      "name": "finalContributions",
      "outputs": [
        {
          "internalType": "uint256",
          "name": "",
          "type": "uint256"
        }
      ],
      "stateMutability": "view",
      "type": "function"
    },
    {
      "inputs": [],
      "name": "goal",
      "outputs": [
        {
          "internalType": "uint256",
          "name": "",
          "type": "uint256"
        }
      ],
      "stateMutability": "view",
      "type": "function"
    },
    {
      "inputs": [],
      "name": "membersCount",
      "outputs": [
        {
          "internalType": "uint256",
          "name": "",
          "type": "uint256"
        }
      ],
      "stateMutability": "view",
      "type": "function"
    },
    {
      "inputs": [],
      "name": "minimunContribution",
      "outputs": [
        {
          "internalType": "uint256",
          "name": "",
          "type": "uint256"
        }
      ],
      "stateMutability": "view",
      "type": "function"
    },
    {
      "inputs": [],
      "name": "owner",
      "outputs": [
        {
          "internalType": "address",
          "name": "",
          "type": "address"
        }
      ],
      "stateMutability": "view",
      "type": "function"
    },
    {
      "inputs": [
        {
          "internalType": "uint256",
          "name": "",
          "type": "uint256"
        }
      ],
      "name": "proposals",
      "outputs": [
        {
          "internalType": "uint256",
          "name": "value",
          "type": "uint256"
        },
        {
          "internalType": "address",
          "name": "recipient",
          "type": "address"
        },
        {
          "internalType": "uint256",
          "name": "approvalsCount",
          "type": "uint256"
        },
        {
          "internalType": "uint256",
          "name": "disapprovalsCount",
          "type": "uint256"
        },
        {
          "internalType": "enum CrowdfundingCampaign.ProposalStatus",
          "name": "status",
          "type": "uint8"
        },
        {
          "internalType": "uint256",
          "name": "limitTime",
          "type": "uint256"
        }
      ],
      "stateMutability": "view",
      "type": "function"
    },
    {
      "inputs": [],
      "name": "remainingContributions",
      "outputs": [
        {
          "internalType": "uint256",
          "name": "",
          "type": "uint256"
        }
      ],
      "stateMutability": "view",
      "type": "function"
    },
    {
      "inputs": [],
      "name": "status",
      "outputs": [
        {
          "internalType": "enum CrowdfundingCampaign.CampaignStatus",
          "name": "",
          "type": "uint8"
        }
      ],
      "stateMutability": "view",
      "type": "function"
    },
    {
      "inputs": [
        {
          "internalType": "address",
          "name": "",
          "type": "address"
        }
      ],
      "name": "withdraws",
      "outputs": [
        {
          "internalType": "bool",
          "name": "",
          "type": "bool"
        }
      ],
      "stateMutability": "view",
      "type": "function"
    },
    {
      "inputs": [],
      "name": "contribute",
      "outputs": [],
      "stateMutability": "payable",
      "type": "function"
    },
    {
      "inputs": [],
      "name": "setActive",
      "outputs": [],
      "stateMutability": "nonpayable",
      "type": "function"
    },
    {
      "inputs": [
        {
          "internalType": "bytes32",
          "name": "_ipfshash",
          "type": "bytes32"
        }
      ],
      "name": "saveProgressUpdate",
      "outputs": [],
      "stateMutability": "nonpayable",
      "type": "function"
    },
    {
      "inputs": [
        {
          "internalType": "uint256",
          "name": "_value",
          "type": "uint256"
        },
        {
          "internalType": "address",
          "name": "_recipient",
          "type": "address"
        },
        {
          "internalType": "bytes32",
          "name": "_ipfshash",
          "type": "bytes32"
        }
      ],
      "name": "createProposal",
      "outputs": [],
      "stateMutability": "nonpayable",
      "type": "function"
    },
    {
      "inputs": [
        {
          "internalType": "uint256",
          "name": "_index",
          "type": "uint256"
        }
      ],
      "name": "approveProposal",
      "outputs": [],
      "stateMutability": "nonpayable",
      "type": "function"
    },
    {
      "inputs": [
        {
          "internalType": "uint256",
          "name": "_index",
          "type": "uint256"
        }
      ],
      "name": "disapproveProposal",
      "outputs": [],
      "stateMutability": "nonpayable",
      "type": "function"
    },
    {
      "inputs": [
        {
          "internalType": "uint256",
          "name": "_index",
          "type": "uint256"
        }
      ],
      "name": "closeProposal",
      "outputs": [],
      "stateMutability": "nonpayable",
      "type": "function"
    },
    {
      "inputs": [
        {
          "internalType": "uint256",
          "name": "_index",
          "type": "uint256"
        }
      ],
      "name": "release",
      "outputs": [],
      "stateMutability": "nonpayable",
      "type": "function"
    },
    {
      "inputs": [
        {
          "internalType": "bytes32",
          "name": "_ipfshash",
          "type": "bytes32"
        }
      ],
      "name": "createCloseProposal",
      "outputs": [],
      "stateMutability": "nonpayable",
      "type": "function"
    },
    {
      "inputs": [
        {
          "internalType": "uint256",
          "name": "_index",
          "type": "uint256"
        }
      ],
      "name": "approveCloseProposal",
      "outputs": [],
      "stateMutability": "nonpayable",
      "type": "function"
    },
    {
      "inputs": [
        {
          "internalType": "uint256",
          "name": "_index",
          "type": "uint256"
        }
      ],
      "name": "disapproveCloseProposal",
      "outputs": [],
      "stateMutability": "nonpayable",
      "type": "function"
    },
    {
      "inputs": [
        {
          "internalType": "uint256",
          "name": "_index",
          "type": "uint256"
        }
      ],
      "name": "closeCloseProposal",
      "outputs": [],
      "stateMutability": "nonpayable",
      "type": "function"
    },
    {
      "inputs": [],
      "name": "withdraw",
      "outputs": [],
      "stateMutability": "nonpayable",
      "type": "function"
    },
    {
      "inputs": [
        {
          "internalType": "address",
          "name": "_address",
          "type": "address"
        }
      ],
      "name": "isMember",
      "outputs": [
        {
          "internalType": "bool",
          "name": "",
          "type": "bool"
        }
      ],
      "stateMutability": "view",
      "type": "function"
    },
    {
      "inputs": [],
      "name": "getStatus",
      "outputs": [
        {
          "internalType": "enum CrowdfundingCampaign.CampaignStatus",
          "name": "",
          "type": "uint8"
        }
      ],
      "stateMutability": "view",
      "type": "function"
    },
    {
      "inputs": [],
      "name": "getFinalContributions",
      "outputs": [
        {
          "internalType": "uint256",
          "name": "",
          "type": "uint256"
        }
      ],
      "stateMutability": "view",
      "type": "function"
    },
    {
      "inputs": [],
      "name": "getRemainingContributions",
      "outputs": [
        {
          "internalType": "uint256",
          "name": "",
          "type": "uint256"
        }
      ],
      "stateMutability": "view",
      "type": "function"
    },
    {
      "inputs": [],
      "name": "getBalancesInfo",
      "outputs": [
        {
          "internalType": "uint256",
          "name": "",
          "type": "uint256"
        },
        {
          "internalType": "uint256",
          "name": "",
          "type": "uint256"
        },
        {
          "internalType": "uint256",
          "name": "",
          "type": "uint256"
        },
        {
          "internalType": "uint256",
          "name": "",
          "type": "uint256"
        }
      ],
      "stateMutability": "view",
      "type": "function"
    },
    {
      "inputs": [],
      "name": "getCampaignInfo",
      "outputs": [
        {
          "internalType": "address",
          "name": "",
          "type": "address"
        },
        {
          "internalType": "enum CrowdfundingCampaign.CampaignStatus",
          "name": "",
          "type": "uint8"
        },
        {
          "internalType": "uint256",
          "name": "",
          "type": "uint256"
        },
        {
          "internalType": "uint256",
          "name": "",
          "type": "uint256"
        },
        {
          "internalType": "uint256",
          "name": "",
          "type": "uint256"
        },
        {
          "internalType": "uint256",
          "name": "",
          "type": "uint256"
        },
        {
          "internalType": "uint256",
          "name": "",
          "type": "uint256"
        },
        {
          "internalType": "bool",
          "name": "",
          "type": "bool"
        }
      ],
      "stateMutability": "view",
      "type": "function"
    },
    {
      "inputs": [
        {
          "internalType": "uint256",
          "name": "_index",
          "type": "uint256"
        }
      ],
      "name": "getProposal",
      "outputs": [
        {
          "internalType": "address",
          "name": "",
          "type": "address"
        },
        {
          "internalType": "uint256",
          "name": "",
          "type": "uint256"
        },
        {
          "internalType": "uint256",
          "name": "",
          "type": "uint256"
        },
        {
          "internalType": "uint256",
          "name": "",
          "type": "uint256"
        },
        {
          "internalType": "enum CrowdfundingCampaign.ProposalStatus",
          "name": "",
          "type": "uint8"
        },
        {
          "internalType": "uint256",
          "name": "",
          "type": "uint256"
        },
        {
          "internalType": "bool",
          "name": "",
          "type": "bool"
        },
        {
          "internalType": "bool",
          "name": "",
          "type": "bool"
        }
      ],
      "stateMutability": "view",
      "type": "function"
    },
    {
      "inputs": [
        {
          "internalType": "uint256",
          "name": "_index",
          "type": "uint256"
        }
      ],
      "name": "hasVotedProposal",
      "outputs": [
        {
          "internalType": "bool",
          "name": "",
          "type": "bool"
        }
      ],
      "stateMutability": "view",
      "type": "function"
    },
    {
      "inputs": [],
      "name": "getProposalsCount",
      "outputs": [
        {
          "internalType": "uint256",
          "name": "",
          "type": "uint256"
        }
      ],
      "stateMutability": "view",
      "type": "function"
    },
    {
      "inputs": [
        {
          "internalType": "uint256",
          "name": "_index",
          "type": "uint256"
        }
      ],
      "name": "getCloseProposal",
      "outputs": [
        {
          "internalType": "uint256",
          "name": "",
          "type": "uint256"
        },
        {
          "internalType": "uint256",
          "name": "",
          "type": "uint256"
        },
        {
          "internalType": "enum CrowdfundingCampaign.ProposalStatus",
          "name": "",
          "type": "uint8"
        },
        {
          "internalType": "uint256",
          "name": "",
          "type": "uint256"
        },
        {
          "internalType": "bool",
          "name": "",
          "type": "bool"
        },
        {
          "internalType": "bool",
          "name": "",
          "type": "bool"
        },
        {
          "internalType": "address",
          "name": "",
          "type": "address"
        }
      ],
      "stateMutability": "view",
      "type": "function"
    },
    {
      "inputs": [
        {
          "internalType": "uint256",
          "name": "_index",
          "type": "uint256"
        }
      ],
      "name": "hasVotedCloseProposal",
      "outputs": [
        {
          "internalType": "bool",
          "name": "",
          "type": "bool"
        }
      ],
      "stateMutability": "view",
      "type": "function"
    },
    {
      "inputs": [],
      "name": "getCloseProposalsCount",
      "outputs": [
        {
          "internalType": "uint256",
          "name": "",
          "type": "uint256"
        }
      ],
      "stateMutability": "view",
      "type": "function"
    },
    {
      "inputs": [],
      "name": "hasWithdraw",
      "outputs": [
        {
          "internalType": "bool",
          "name": "",
          "type": "bool"
        }
      ],
      "stateMutability": "view",
      "type": "function"
    }
  ],
  "bytecode": "0x60806040523480156200001157600080fd5b5060405162004df638038062004df6833981810160405281019062000037919062000132565b33600060016101000a81548173ffffffffffffffffffffffffffffffffffffffff021916908373ffffffffffffffffffffffffffffffffffffffff160217905550816001819055508260028190555060008060006101000a81548160ff02191690836003811115620000ae57620000ad620001d0565b5b02179055506000600381905550426006819055507f0f627713f9c831a1b079924dedde3308e90d22b754bdd481f9b2165aa0f9dfb981604051620000f391906200019f565b60405180910390a150505062000238565b600081519050620001158162000204565b92915050565b6000815190506200012c816200021e565b92915050565b6000806000606084860312156200014e576200014d620001ff565b5b60006200015e868287016200011b565b935050602062000171868287016200011b565b9250506040620001848682870162000104565b9150509250925092565b6200019981620001bc565b82525050565b6000602082019050620001b660008301846200018e565b92915050565b6000819050919050565b6000819050919050565b7f4e487b7100000000000000000000000000000000000000000000000000000000600052602160045260246000fd5b600080fd5b6200020f81620001bc565b81146200021b57600080fd5b50565b6200022981620001c6565b81146200023557600080fd5b50565b614bae80620002486000396000f3fe6080604052600436106102255760003560e01c806384b519b911610123578063c7f758a8116100ab578063de3f3ae01161006f578063de3f3ae01461080e578063edbd0db814610837578063eeda051814610862578063f7268f2f1461089f578063fa65a131146108c857610225565b8063c7f758a81461073a578063c8541fe01461077e578063d6290cd7146107a7578063d7bb99ba146107d9578063d853ba73146107e357610225565b806398951b56116100f257806398951b561461065357806398e527d31461067c5780639c6f0d85146106a7578063a230c524146106d2578063a7f337151461070f57610225565b806384b519b9146105925780638da5cb5b146105cf578063917d3a4f146105fa578063950eeba91461062557610225565b806340193883116101b15780634e69d560116101755780634e69d560146104d35780634f92c925146104fe57806351c36c1e14610529578063760a8c2a1461055257806384980e831461056957610225565b806340193883146103aa57806342e94c90146103d557806343a41c8f1461041257806348179ee5146104555780634de583fb1461049257610225565b8063200d2ed2116101f8578063200d2ed2146102eb578063297f9af01461031657806337bdc99b146103415780633b047a8f1461036a5780633ccfd60b1461039357610225565b80630126f61e1461022a578063013cf08b146102555780630386a0161461029757806304095005146102c0575b600080fd5b34801561023657600080fd5b5061023f6108f1565b60405161024c9190614107565b60405180910390f35b34801561026157600080fd5b5061027c6004803603810190610277919061386d565b6108f7565b60405161028e96959493929190614122565b60405180910390f35b3480156102a357600080fd5b506102be60048036038101906102b9919061386d565b610970565b005b3480156102cc57600080fd5b506102d5610c93565b6040516102e29190614107565b60405180910390f35b3480156102f757600080fd5b50610300610ca0565b60405161030d9190613e0c565b60405180910390f35b34801561032257600080fd5b5061032b610cb1565b6040516103389190614107565b60405180910390f35b34801561034d57600080fd5b506103686004803603810190610363919061386d565b610cb7565b005b34801561037657600080fd5b50610391600480360381019061038c9190613840565b610f53565b005b34801561039f57600080fd5b506103a8611091565b005b3480156103b657600080fd5b506103bf6114fc565b6040516103cc9190614107565b60405180910390f35b3480156103e157600080fd5b506103fc60048036038101906103f79190613813565b611502565b6040516104099190614107565b60405180910390f35b34801561041e57600080fd5b506104396004803603810190610434919061386d565b61151a565b60405161044c97969594939291906141d6565b60405180910390f35b34801561046157600080fd5b5061047c60048036038101906104779190613813565b61160d565b6040516104899190613dd6565b60405180910390f35b34801561049e57600080fd5b506104b960048036038101906104b4919061386d565b61162d565b6040516104ca959493929190614183565b60405180910390f35b3480156104df57600080fd5b506104e86116a0565b6040516104f59190613e0c565b60405180910390f35b34801561050a57600080fd5b506105136116b6565b6040516105209190614107565b60405180910390f35b34801561053557600080fd5b50610550600480360381019061054b919061389a565b6116c0565b005b34801561055e57600080fd5b5061056761190c565b005b34801561057557600080fd5b50610590600480360381019061058b919061386d565b611acc565b005b34801561059e57600080fd5b506105b960048036038101906105b4919061386d565b611ebf565b6040516105c69190613dd6565b60405180910390f35b3480156105db57600080fd5b506105e4611f3d565b6040516105f19190613c6c565b60405180910390f35b34801561060657600080fd5b5061060f611f63565b60405161061c9190613dd6565b60405180910390f35b34801561063157600080fd5b5061063a611fb7565b60405161064a9493929190614245565b60405180910390f35b34801561065f57600080fd5b5061067a6004803603810190610675919061386d565b611fd5565b005b34801561068857600080fd5b5061069161238c565b60405161069e9190614107565b60405180910390f35b3480156106b357600080fd5b506106bc612399565b6040516106c99190614107565b60405180910390f35b3480156106de57600080fd5b506106f960048036038101906106f49190613813565b61239f565b6040516107069190613dd6565b60405180910390f35b34801561071b57600080fd5b506107246123ea565b6040516107319190614107565b60405180910390f35b34801561074657600080fd5b50610761600480360381019061075c919061386d565b6123f0565b604051610775989796959493929190613d05565b60405180910390f35b34801561078a57600080fd5b506107a560048036038101906107a0919061386d565b6124ec565b005b3480156107b357600080fd5b506107bc6128a3565b6040516107d0989796959493929190613c87565b60405180910390f35b6107e1612923565b005b3480156107ef57600080fd5b506107f8612b42565b6040516108059190614107565b60405180910390f35b34801561081a57600080fd5b506108356004803603810190610830919061386d565b612b48565b005b34801561084357600080fd5b5061084c612f8f565b6040516108599190614107565b60405180910390f35b34801561086e57600080fd5b506108896004803603810190610884919061386d565b612f99565b6040516108969190613dd6565b60405180910390f35b3480156108ab57600080fd5b506108c660048036038101906108c19190613840565b613017565b005b3480156108d457600080fd5b506108ef60048036038101906108ea919061386d565b6133e1565b005b60045481565b6009818154811061090757600080fd5b90600052602060002090600702016000915090508060000154908060010160009054906101000a900473ffffffffffffffffffffffffffffffffffffffff16908060020154908060030154908060050160009054906101000a900460ff16908060060154905086565b6000600760003373ffffffffffffffffffffffffffffffffffffffff1673ffffffffffffffffffffffffffffffffffffffff168152602001908152602001600020541180610a0b5750600060019054906101000a900473ffffffffffffffffffffffffffffffffffffffff1673ffffffffffffffffffffffffffffffffffffffff163373ffffffffffffffffffffffffffffffffffffffff16145b610a4a576040517f08c379a0000000000000000000000000000000000000000000000000000000008152600401610a4190613e47565b60405180910390fd5b60016003811115610a5e57610a5d6144bf565b5b60008054906101000a900460ff166003811115610a7e57610a7d6144bf565b5b14610abe576040517f08c379a0000000000000000000000000000000000000000000000000000000008152600401610ab590613fc7565b60405180910390fd5b8060006003811115610ad357610ad26144bf565b5b60098281548110610ae757610ae66144ee565b5b906000526020600020906007020160050160009054906101000a900460ff166003811115610b1857610b176144bf565b5b14610b58576040517f08c379a0000000000000000000000000000000000000000000000000000000008152600401610b4f906140e7565b60405180910390fd5b8160098181548110610b6d57610b6c6144ee565b5b9060005260206000209060070201600601544211610bc0576040517f08c379a0000000000000000000000000000000000000000000000000000000008152600401610bb7906140a7565b60405180910390fd5b600060098481548110610bd657610bd56144ee565b5b90600052602060002090600702019050806003015481600201541115610c285760018160050160006101000a81548160ff02191690836003811115610c1e57610c1d6144bf565b5b0217905550610c56565b60028160050160006101000a81548160ff02191690836003811115610c5057610c4f6144bf565b5b02179055505b7f887777ccf43690541bed9e00b10d0fccfa7520b11875f09847a57b3085d8ab9284604051610c859190614107565b60405180910390a150505050565b6000600a80549050905090565b60008054906101000a900460ff1681565b60035481565b600060019054906101000a900473ffffffffffffffffffffffffffffffffffffffff1673ffffffffffffffffffffffffffffffffffffffff163373ffffffffffffffffffffffffffffffffffffffff1614610d47576040517f08c379a0000000000000000000000000000000000000000000000000000000008152600401610d3e90613ee7565b60405180910390fd5b60016003811115610d5b57610d5a6144bf565b5b60008054906101000a900460ff166003811115610d7b57610d7a6144bf565b5b14610dbb576040517f08c379a0000000000000000000000000000000000000000000000000000000008152600401610db290613fc7565b60405180910390fd5b8060016003811115610dd057610dcf6144bf565b5b60098281548110610de457610de36144ee565b5b906000526020600020906007020160050160009054906101000a900460ff166003811115610e1557610e146144bf565b5b14610e55576040517f08c379a0000000000000000000000000000000000000000000000000000000008152600401610e4c90613f87565b60405180910390fd5b600060098381548110610e6b57610e6a6144ee565b5b9060005260206000209060070201905060038160050160006101000a81548160ff02191690836003811115610ea357610ea26144bf565b5b02179055508060010160009054906101000a900473ffffffffffffffffffffffffffffffffffffffff1673ffffffffffffffffffffffffffffffffffffffff166108fc82600001549081150290604051600060405180830381858888f19350505050158015610f16573d6000803e3d6000fd5b507fe02fec677757e427d1b6e49fcaf5bb9a6dd94e9fed2a2cc3c764c95deceff5b783604051610f469190614107565b60405180910390a1505050565b600060019054906101000a900473ffffffffffffffffffffffffffffffffffffffff1673ffffffffffffffffffffffffffffffffffffffff163373ffffffffffffffffffffffffffffffffffffffff1614610fe3576040517f08c379a0000000000000000000000000000000000000000000000000000000008152600401610fda90613ee7565b60405180910390fd5b60016003811115610ff757610ff66144bf565b5b60008054906101000a900460ff166003811115611017576110166144bf565b5b14611057576040517f08c379a000000000000000000000000000000000000000000000000000000000815260040161104e90613fc7565b60405180910390fd5b7f2f8af70d91e96a23b8111e37a9117f7cfe341f51c17759c36475a1a7698f0dc3816040516110869190613df1565b60405180910390a150565b6000600760003373ffffffffffffffffffffffffffffffffffffffff1673ffffffffffffffffffffffffffffffffffffffff16815260200190815260200160002054118061112c5750600060019054906101000a900473ffffffffffffffffffffffffffffffffffffffff1673ffffffffffffffffffffffffffffffffffffffff163373ffffffffffffffffffffffffffffffffffffffff16145b61116b576040517f08c379a000000000000000000000000000000000000000000000000000000000815260040161116290613e47565b60405180910390fd5b60038081111561117e5761117d6144bf565b5b60008054906101000a900460ff16600381111561119e5761119d6144bf565b5b14806111db5750600260038111156111b9576111b86144bf565b5b60008054906101000a900460ff1660038111156111d9576111d86144bf565b5b145b61121a576040517f08c379a000000000000000000000000000000000000000000000000000000000815260040161121190614007565b60405180910390fd5b600060019054906101000a900473ffffffffffffffffffffffffffffffffffffffff1673ffffffffffffffffffffffffffffffffffffffff163373ffffffffffffffffffffffffffffffffffffffff1614156112ab576040517f08c379a00000000000000000000000000000000000000000000000000000000081526004016112a290613ea7565b60405180910390fd5b600860003373ffffffffffffffffffffffffffffffffffffffff1673ffffffffffffffffffffffffffffffffffffffff16815260200190815260200160002060009054906101000a900460ff1615611338576040517f08c379a000000000000000000000000000000000000000000000000000000000815260040161132f90614027565b60405180910390fd5b6000600454600554600760003373ffffffffffffffffffffffffffffffffffffffff1673ffffffffffffffffffffffffffffffffffffffff1681526020019081526020016000205461138a9190614322565b61139491906142f1565b90504781106113d8576040517f08c379a00000000000000000000000000000000000000000000000000000000081526004016113cf90613f67565b60405180910390fd5b6001600860003373ffffffffffffffffffffffffffffffffffffffff1673ffffffffffffffffffffffffffffffffffffffff16815260200190815260200160002060006101000a81548160ff0219169083151502179055503373ffffffffffffffffffffffffffffffffffffffff166108fc829081150290604051600060405180830381858888f19350505050158015611476573d6000803e3d6000fd5b507fd909df4e8579b4c6decf4c3bb6d9fa1ada906d6befef28e61a368945105568a033600760003373ffffffffffffffffffffffffffffffffffffffff1673ffffffffffffffffffffffffffffffffffffffff16815260200190815260200160002054600454846005546040516114f1959493929190613d83565b60405180910390a150565b60015481565b60076020528060005260406000206000915090505481565b600080600080600080600080600a898154811061153a576115396144ee565b5b9060005260206000209060060201905060008160040154421115905060008260020160003373ffffffffffffffffffffffffffffffffffffffff1673ffffffffffffffffffffffffffffffffffffffff16815260200190815260200160002060009054906101000a900460ff169050826000015483600101548460030160009054906101000a900460ff16856004015485858860050160009054906101000a900473ffffffffffffffffffffffffffffffffffffffff169950995099509950995099509950505050919395979092949650565b60086020528060005260406000206000915054906101000a900460ff1681565b600a818154811061163d57600080fd5b90600052602060002090600602016000915090508060000154908060010154908060030160009054906101000a900460ff16908060040154908060050160009054906101000a900473ffffffffffffffffffffffffffffffffffffffff16905085565b60008060009054906101000a900460ff16905090565b6000600554905090565b600060019054906101000a900473ffffffffffffffffffffffffffffffffffffffff1673ffffffffffffffffffffffffffffffffffffffff163373ffffffffffffffffffffffffffffffffffffffff1614611750576040517f08c379a000000000000000000000000000000000000000000000000000000000815260040161174790613ee7565b60405180910390fd5b60016003811115611764576117636144bf565b5b60008054906101000a900460ff166003811115611784576117836144bf565b5b146117c4576040517f08c379a00000000000000000000000000000000000000000000000000000000081526004016117bb90613fc7565b60405180910390fd5b82471015611807576040517f08c379a00000000000000000000000000000000000000000000000000000000081526004016117fe90613f27565b60405180910390fd5b600060096001816001815401808255809150500390600052602060002090600702019050828160010160006101000a81548173ffffffffffffffffffffffffffffffffffffffff021916908373ffffffffffffffffffffffffffffffffffffffff160217905550838160000181905550600081600201819055506000816003018190555060008160050160006101000a81548160ff021916908360038111156118b3576118b26144bf565b5b021790555062093a80426118c7919061429b565b81600601819055507f288a29bca04edb18fcdb2c76d6e3b03b8a137c85c70d1a4cb8aacfa868d60510826040516118fe9190613df1565b60405180910390a150505050565b600060019054906101000a900473ffffffffffffffffffffffffffffffffffffffff1673ffffffffffffffffffffffffffffffffffffffff163373ffffffffffffffffffffffffffffffffffffffff161461199c576040517f08c379a000000000000000000000000000000000000000000000000000000000815260040161199390613ee7565b60405180910390fd5b600060038111156119b0576119af6144bf565b5b60008054906101000a900460ff1660038111156119d0576119cf6144bf565b5b14611a10576040517f08c379a0000000000000000000000000000000000000000000000000000000008152600401611a0790614067565b60405180910390fd5b600154471015611a55576040517f08c379a0000000000000000000000000000000000000000000000000000000008152600401611a4c90613fa7565b60405180910390fd5b60016000806101000a81548160ff02191690836003811115611a7a57611a796144bf565b5b0217905550476004819055507fce02f1b75f3f35b42d342c4fb8e7e8020a8beafd3103a6b554207caaedd3c4aa60008054906101000a900460ff16604051611ac29190613e0c565b60405180910390a1565b6000600760003373ffffffffffffffffffffffffffffffffffffffff1673ffffffffffffffffffffffffffffffffffffffff168152602001908152602001600020541180611b675750600060019054906101000a900473ffffffffffffffffffffffffffffffffffffffff1673ffffffffffffffffffffffffffffffffffffffff163373ffffffffffffffffffffffffffffffffffffffff16145b611ba6576040517f08c379a0000000000000000000000000000000000000000000000000000000008152600401611b9d90613e47565b60405180910390fd5b60016003811115611bba57611bb96144bf565b5b60008054906101000a900460ff166003811115611bda57611bd96144bf565b5b1480611c17575060006003811115611bf557611bf46144bf565b5b60008054906101000a900460ff166003811115611c1557611c146144bf565b5b145b611c56576040517f08c379a0000000000000000000000000000000000000000000000000000000008152600401611c4d90614087565b60405180910390fd5b8060006003811115611c6b57611c6a6144bf565b5b600a8281548110611c7f57611c7e6144ee565b5b906000526020600020906006020160030160009054906101000a900460ff166003811115611cb057611caf6144bf565b5b14611cf0576040517f08c379a0000000000000000000000000000000000000000000000000000000008152600401611ce7906140c7565b60405180910390fd5b81600a8181548110611d0557611d046144ee565b5b906000526020600020906006020160040154421115611d59576040517f08c379a0000000000000000000000000000000000000000000000000000000008152600401611d5090613f47565b60405180910390fd5b6000600a8481548110611d6f57611d6e6144ee565b5b906000526020600020906006020190508060020160003373ffffffffffffffffffffffffffffffffffffffff1673ffffffffffffffffffffffffffffffffffffffff16815260200190815260200160002060009054906101000a900460ff1615611e0e576040517f08c379a0000000000000000000000000000000000000000000000000000000008152600401611e0590614047565b60405180910390fd5b60018160020160003373ffffffffffffffffffffffffffffffffffffffff1673ffffffffffffffffffffffffffffffffffffffff16815260200190815260200160002060006101000a81548160ff021916908315150217905550806000016000815480929190611e7d90614418565b91905055507f53c1eb0055cc9dbfe4823171931d9ec63b8682244ed5778661bb94ba2075f8c684604051611eb19190614107565b60405180910390a150505050565b600080600a8381548110611ed657611ed56144ee565b5b906000526020600020906006020190508060020160003373ffffffffffffffffffffffffffffffffffffffff1673ffffffffffffffffffffffffffffffffffffffff16815260200190815260200160002060009054906101000a900460ff16915050919050565b600060019054906101000a900473ffffffffffffffffffffffffffffffffffffffff1681565b6000600860003373ffffffffffffffffffffffffffffffffffffffff1673ffffffffffffffffffffffffffffffffffffffff16815260200190815260200160002060009054906101000a900460ff16905090565b60008060008060015460045460055447935093509350935090919293565b6000600760003373ffffffffffffffffffffffffffffffffffffffff1673ffffffffffffffffffffffffffffffffffffffff1681526020019081526020016000205411806120705750600060019054906101000a900473ffffffffffffffffffffffffffffffffffffffff1673ffffffffffffffffffffffffffffffffffffffff163373ffffffffffffffffffffffffffffffffffffffff16145b6120af576040517f08c379a00000000000000000000000000000000000000000000000000000000081526004016120a690613e47565b60405180910390fd5b600160038111156120c3576120c26144bf565b5b60008054906101000a900460ff1660038111156120e3576120e26144bf565b5b14612123576040517f08c379a000000000000000000000000000000000000000000000000000000000815260040161211a90613fc7565b60405180910390fd5b8060006003811115612138576121376144bf565b5b6009828154811061214c5761214b6144ee565b5b906000526020600020906007020160050160009054906101000a900460ff16600381111561217d5761217c6144bf565b5b146121bd576040517f08c379a00000000000000000000000000000000000000000000000000000000081526004016121b4906140e7565b60405180910390fd5b81600981815481106121d2576121d16144ee565b5b906000526020600020906007020160060154421115612226576040517f08c379a000000000000000000000000000000000000000000000000000000000815260040161221d90613f07565b60405180910390fd5b60006009848154811061223c5761223b6144ee565b5b906000526020600020906007020190508060040160003373ffffffffffffffffffffffffffffffffffffffff1673ffffffffffffffffffffffffffffffffffffffff16815260200190815260200160002060009054906101000a900460ff16156122db576040517f08c379a00000000000000000000000000000000000000000000000000000000081526004016122d290613fe7565b60405180910390fd5b60018160040160003373ffffffffffffffffffffffffffffffffffffffff1673ffffffffffffffffffffffffffffffffffffffff16815260200190815260200160002060006101000a81548160ff02191690831515021790555080600201600081548092919061234a90614418565b91905055507f26b645fdecdf266f3abc5b7ae3e796ffd297febba8bd3a8ad49c68435190fc698460405161237e9190614107565b60405180910390a150505050565b6000600980549050905090565b60065481565b600080600760008473ffffffffffffffffffffffffffffffffffffffff1673ffffffffffffffffffffffffffffffffffffffff16815260200190815260200160002054119050919050565b60025481565b600080600080600080600080600060098a81548110612412576124116144ee565b5b9060005260206000209060070201905060008160060154421115905060008260040160003373ffffffffffffffffffffffffffffffffffffffff1673ffffffffffffffffffffffffffffffffffffffff16815260200190815260200160002060009054906101000a900460ff1690508260010160009054906101000a900473ffffffffffffffffffffffffffffffffffffffff168360000154846002015485600301548660050160009054906101000a900460ff16876006015487879a509a509a509a509a509a509a509a50505050919395975091939597565b6000600760003373ffffffffffffffffffffffffffffffffffffffff1673ffffffffffffffffffffffffffffffffffffffff1681526020019081526020016000205411806125875750600060019054906101000a900473ffffffffffffffffffffffffffffffffffffffff1673ffffffffffffffffffffffffffffffffffffffff163373ffffffffffffffffffffffffffffffffffffffff16145b6125c6576040517f08c379a00000000000000000000000000000000000000000000000000000000081526004016125bd90613e47565b60405180910390fd5b600160038111156125da576125d96144bf565b5b60008054906101000a900460ff1660038111156125fa576125f96144bf565b5b1461263a576040517f08c379a000000000000000000000000000000000000000000000000000000000815260040161263190613fc7565b60405180910390fd5b806000600381111561264f5761264e6144bf565b5b60098281548110612663576126626144ee565b5b906000526020600020906007020160050160009054906101000a900460ff166003811115612694576126936144bf565b5b146126d4576040517f08c379a00000000000000000000000000000000000000000000000000000000081526004016126cb906140e7565b60405180910390fd5b81600981815481106126e9576126e86144ee565b5b90600052602060002090600702016006015442111561273d576040517f08c379a000000000000000000000000000000000000000000000000000000000815260040161273490613f07565b60405180910390fd5b600060098481548110612753576127526144ee565b5b906000526020600020906007020190508060040160003373ffffffffffffffffffffffffffffffffffffffff1673ffffffffffffffffffffffffffffffffffffffff16815260200190815260200160002060009054906101000a900460ff16156127f2576040517f08c379a00000000000000000000000000000000000000000000000000000000081526004016127e990613fe7565b60405180910390fd5b60018160040160003373ffffffffffffffffffffffffffffffffffffffff1673ffffffffffffffffffffffffffffffffffffffff16815260200190815260200160002060006101000a81548160ff02191690831515021790555080600301600081548092919061286190614418565b91905055507f26b645fdecdf266f3abc5b7ae3e796ffd297febba8bd3a8ad49c68435190fc69846040516128959190614107565b60405180910390a150505050565b600080600080600080600080600042621275006006546128c3919061429b565b11159050600060019054906101000a900473ffffffffffffffffffffffffffffffffffffffff1660008054906101000a900460ff166001546002546003546004546005548798509850985098509850985098509850509091929394959697565b6000600760003373ffffffffffffffffffffffffffffffffffffffff1673ffffffffffffffffffffffffffffffffffffffff168152602001908152602001600020541480156129c05750600060019054906101000a900473ffffffffffffffffffffffffffffffffffffffff1673ffffffffffffffffffffffffffffffffffffffff163373ffffffffffffffffffffffffffffffffffffffff1614155b6129ff576040517f08c379a00000000000000000000000000000000000000000000000000000000081526004016129f690613e87565b60405180910390fd5b60006003811115612a1357612a126144bf565b5b60008054906101000a900460ff166003811115612a3357612a326144bf565b5b14612a73576040517f08c379a0000000000000000000000000000000000000000000000000000000008152600401612a6a90614067565b60405180910390fd5b600254341015612ab8576040517f08c379a0000000000000000000000000000000000000000000000000000000008152600401612aaf90613e67565b60405180910390fd5b34600760003373ffffffffffffffffffffffffffffffffffffffff1673ffffffffffffffffffffffffffffffffffffffff1681526020019081526020016000208190555060036000815480929190612b0f90614418565b91905055507f0673e22453ca22ab66c750388a377485c2d57a19fb171f1442f45e933d5e841860405160405180910390a1565b60055481565b6000600760003373ffffffffffffffffffffffffffffffffffffffff1673ffffffffffffffffffffffffffffffffffffffff168152602001908152602001600020541180612be35750600060019054906101000a900473ffffffffffffffffffffffffffffffffffffffff1673ffffffffffffffffffffffffffffffffffffffff163373ffffffffffffffffffffffffffffffffffffffff16145b612c22576040517f08c379a0000000000000000000000000000000000000000000000000000000008152600401612c1990613e47565b60405180910390fd5b60016003811115612c3657612c356144bf565b5b60008054906101000a900460ff166003811115612c5657612c556144bf565b5b1480612c93575060006003811115612c7157612c706144bf565b5b60008054906101000a900460ff166003811115612c9157612c906144bf565b5b145b612cd2576040517f08c379a0000000000000000000000000000000000000000000000000000000008152600401612cc990614087565b60405180910390fd5b8060006003811115612ce757612ce66144bf565b5b600a8281548110612cfb57612cfa6144ee565b5b906000526020600020906006020160030160009054906101000a900460ff166003811115612d2c57612d2b6144bf565b5b14612d6c576040517f08c379a0000000000000000000000000000000000000000000000000000000008152600401612d63906140c7565b60405180910390fd5b81600a8181548110612d8157612d806144ee565b5b9060005260206000209060060201600401544211612dd4576040517f08c379a0000000000000000000000000000000000000000000000000000000008152600401612dcb90613ec7565b60405180910390fd5b6000600a8481548110612dea57612de96144ee565b5b90600052602060002090600602019050806001015481600001541115612f1757600060019054906101000a900473ffffffffffffffffffffffffffffffffffffffff1673ffffffffffffffffffffffffffffffffffffffff168160050160009054906101000a900473ffffffffffffffffffffffffffffffffffffffff1673ffffffffffffffffffffffffffffffffffffffff161415612eb35760036000806101000a81548160ff02191690836003811115612ea957612ea86144bf565b5b0217905550612ede565b60026000806101000a81548160ff02191690836003811115612ed857612ed76144bf565b5b02179055505b60018160030160006101000a81548160ff02191690836003811115612f0657612f056144bf565b5b021790555047600581905550612f45565b60028160030160006101000a81548160ff02191690836003811115612f3f57612f3e6144bf565b5b02179055505b7fce02f1b75f3f35b42d342c4fb8e7e8020a8beafd3103a6b554207caaedd3c4aa60008054906101000a900460ff16604051612f819190613e0c565b60405180910390a150505050565b6000600454905090565b60008060098381548110612fb057612faf6144ee565b5b906000526020600020906007020190508060040160003373ffffffffffffffffffffffffffffffffffffffff1673ffffffffffffffffffffffffffffffffffffffff16815260200190815260200160002060009054906101000a900460ff16915050919050565b6000600760003373ffffffffffffffffffffffffffffffffffffffff1673ffffffffffffffffffffffffffffffffffffffff1681526020019081526020016000205411806130b25750600060019054906101000a900473ffffffffffffffffffffffffffffffffffffffff1673ffffffffffffffffffffffffffffffffffffffff163373ffffffffffffffffffffffffffffffffffffffff16145b6130f1576040517f08c379a00000000000000000000000000000000000000000000000000000000081526004016130e890613e47565b60405180910390fd5b60016003811115613105576131046144bf565b5b60008054906101000a900460ff166003811115613125576131246144bf565b5b14806131625750600060038111156131405761313f6144bf565b5b60008054906101000a900460ff1660038111156131605761315f6144bf565b5b145b6131a1576040517f08c379a000000000000000000000000000000000000000000000000000000000815260040161319890614087565b60405180910390fd5b600042621275006006546131b5919061429b565b111580156131f45750600060038111156131d2576131d16144bf565b5b60008054906101000a900460ff1660038111156131f2576131f16144bf565b5b145b90508080613233575060016003811115613211576132106144bf565b5b60008054906101000a900460ff166003811115613231576132306144bf565b5b145b613272576040517f08c379a000000000000000000000000000000000000000000000000000000000815260040161326990613e27565b60405180910390fd5b6000600a6001816001815401808255809150500390600052602060002090600602019050600081600001819055506000816001018190555060008160030160006101000a81548160ff021916908360038111156132d2576132d16144bf565b5b021790555062093a80426132e6919061429b565b8160040181905550338160050160006101000a81548173ffffffffffffffffffffffffffffffffffffffff021916908373ffffffffffffffffffffffffffffffffffffffff16021790555060018160020160003373ffffffffffffffffffffffffffffffffffffffff1673ffffffffffffffffffffffffffffffffffffffff16815260200190815260200160002060006101000a81548160ff0219169083151502179055508060000160008154809291906133a090614418565b91905055507fd652a200abc8c9e3e659b36ee1d1c81a25a3cd454afdb8cede6431e74906497c836040516133d49190613df1565b60405180910390a1505050565b6000600760003373ffffffffffffffffffffffffffffffffffffffff1673ffffffffffffffffffffffffffffffffffffffff16815260200190815260200160002054118061347c5750600060019054906101000a900473ffffffffffffffffffffffffffffffffffffffff1673ffffffffffffffffffffffffffffffffffffffff163373ffffffffffffffffffffffffffffffffffffffff16145b6134bb576040517f08c379a00000000000000000000000000000000000000000000000000000000081526004016134b290613e47565b60405180910390fd5b600160038111156134cf576134ce6144bf565b5b60008054906101000a900460ff1660038111156134ef576134ee6144bf565b5b148061352c57506000600381111561350a576135096144bf565b5b60008054906101000a900460ff16600381111561352a576135296144bf565b5b145b61356b576040517f08c379a000000000000000000000000000000000000000000000000000000000815260040161356290614087565b60405180910390fd5b80600060038111156135805761357f6144bf565b5b600a8281548110613594576135936144ee565b5b906000526020600020906006020160030160009054906101000a900460ff1660038111156135c5576135c46144bf565b5b14613605576040517f08c379a00000000000000000000000000000000000000000000000000000000081526004016135fc906140c7565b60405180910390fd5b81600a818154811061361a576136196144ee565b5b90600052602060002090600602016004015442111561366e576040517f08c379a000000000000000000000000000000000000000000000000000000000815260040161366590613f47565b60405180910390fd5b6000600a8481548110613684576136836144ee565b5b906000526020600020906006020190508060020160003373ffffffffffffffffffffffffffffffffffffffff1673ffffffffffffffffffffffffffffffffffffffff16815260200190815260200160002060009054906101000a900460ff1615613723576040517f08c379a000000000000000000000000000000000000000000000000000000000815260040161371a90614047565b60405180910390fd5b60018160020160003373ffffffffffffffffffffffffffffffffffffffff1673ffffffffffffffffffffffffffffffffffffffff16815260200190815260200160002060006101000a81548160ff02191690831515021790555080600101600081548092919061379290614418565b91905055507f53c1eb0055cc9dbfe4823171931d9ec63b8682244ed5778661bb94ba2075f8c6846040516137c69190614107565b60405180910390a150505050565b6000813590506137e381614b33565b92915050565b6000813590506137f881614b4a565b92915050565b60008135905061380d81614b61565b92915050565b6000602082840312156138295761382861451d565b5b6000613837848285016137d4565b91505092915050565b6000602082840312156138565761385561451d565b5b6000613864848285016137e9565b91505092915050565b6000602082840312156138835761388261451d565b5b6000613891848285016137fe565b91505092915050565b6000806000606084860312156138b3576138b261451d565b5b60006138c1868287016137fe565b93505060206138d2868287016137d4565b92505060406138e3868287016137e9565b9150509250925092565b6138f68161437c565b82525050565b6139058161438e565b82525050565b6139148161439a565b82525050565b613923816143f4565b82525050565b61393281614406565b82525050565b6000613945602b8361428a565b915061395082614522565b604082019050919050565b600061396860178361428a565b915061397382614571565b602082019050919050565b600061398b60208361428a565b91506139968261459a565b602082019050919050565b60006139ae601b8361428a565b91506139b9826145c3565b602082019050919050565b60006139d160148361428a565b91506139dc826145ec565b602082019050919050565b60006139f4602c8361428a565b91506139ff82614615565b604082019050919050565b6000613a1760188361428a565b9150613a2282614664565b602082019050919050565b6000613a3a60218361428a565b9150613a458261468d565b604082019050919050565b6000613a5d601b8361428a565b9150613a68826146dc565b602082019050919050565b6000613a8060278361428a565b9150613a8b82614705565b604082019050919050565b6000613aa360238361428a565b9150613aae82614754565b604082019050919050565b6000613ac6601d8361428a565b9150613ad1826147a3565b602082019050919050565b6000613ae960228361428a565b9150613af4826147cc565b604082019050919050565b6000613b0c60228361428a565b9150613b178261481b565b604082019050919050565b6000613b2f60318361428a565b9150613b3a8261486a565b604082019050919050565b6000613b5260258361428a565b9150613b5d826148b9565b604082019050919050565b6000613b7560238361428a565b9150613b8082614908565b604082019050919050565b6000613b9860378361428a565b9150613ba382614957565b604082019050919050565b6000613bbb60238361428a565b9150613bc6826149a6565b604082019050919050565b6000613bde601e8361428a565b9150613be9826149f5565b602082019050919050565b6000613c0160268361428a565b9150613c0c82614a1e565b604082019050919050565b6000613c2460288361428a565b9150613c2f82614a6d565b604082019050919050565b6000613c4760228361428a565b9150613c5282614abc565b604082019050919050565b613c66816143ea565b82525050565b6000602082019050613c8160008301846138ed565b92915050565b600061010082019050613c9d600083018b6138ed565b613caa602083018a61391a565b613cb76040830189613c5d565b613cc46060830188613c5d565b613cd16080830187613c5d565b613cde60a0830186613c5d565b613ceb60c0830185613c5d565b613cf860e08301846138fc565b9998505050505050505050565b600061010082019050613d1b600083018b6138ed565b613d28602083018a613c5d565b613d356040830189613c5d565b613d426060830188613c5d565b613d4f6080830187613929565b613d5c60a0830186613c5d565b613d6960c08301856138fc565b613d7660e08301846138fc565b9998505050505050505050565b600060a082019050613d9860008301886138ed565b613da56020830187613c5d565b613db26040830186613c5d565b613dbf6060830185613c5d565b613dcc6080830184613c5d565b9695505050505050565b6000602082019050613deb60008301846138fc565b92915050565b6000602082019050613e06600083018461390b565b92915050565b6000602082019050613e21600083018461391a565b92915050565b60006020820190508181036000830152613e4081613938565b9050919050565b60006020820190508181036000830152613e608161395b565b9050919050565b60006020820190508181036000830152613e808161397e565b9050919050565b60006020820190508181036000830152613ea0816139a1565b9050919050565b60006020820190508181036000830152613ec0816139c4565b9050919050565b60006020820190508181036000830152613ee0816139e7565b9050919050565b60006020820190508181036000830152613f0081613a0a565b9050919050565b60006020820190508181036000830152613f2081613a2d565b9050919050565b60006020820190508181036000830152613f4081613a50565b9050919050565b60006020820190508181036000830152613f6081613a73565b9050919050565b60006020820190508181036000830152613f8081613a96565b9050919050565b60006020820190508181036000830152613fa081613ab9565b9050919050565b60006020820190508181036000830152613fc081613adc565b9050919050565b60006020820190508181036000830152613fe081613aff565b9050919050565b6000602082019050818103600083015261400081613b22565b9050919050565b6000602082019050818103600083015261402081613b45565b9050919050565b6000602082019050818103600083015261404081613b68565b9050919050565b6000602082019050818103600083015261406081613b8b565b9050919050565b6000602082019050818103600083015261408081613bae565b9050919050565b600060208201905081810360008301526140a081613bd1565b9050919050565b600060208201905081810360008301526140c081613bf4565b9050919050565b600060208201905081810360008301526140e081613c17565b9050919050565b6000602082019050818103600083015261410081613c3a565b9050919050565b600060208201905061411c6000830184613c5d565b92915050565b600060c0820190506141376000830189613c5d565b61414460208301886138ed565b6141516040830187613c5d565b61415e6060830186613c5d565b61416b6080830185613929565b61417860a0830184613c5d565b979650505050505050565b600060a0820190506141986000830188613c5d565b6141a56020830187613c5d565b6141b26040830186613929565b6141bf6060830185613c5d565b6141cc60808301846138ed565b9695505050505050565b600060e0820190506141eb600083018a613c5d565b6141f86020830189613c5d565b6142056040830188613929565b6142126060830187613c5d565b61421f60808301866138fc565b61422c60a08301856138fc565b61423960c08301846138ed565b98975050505050505050565b600060808201905061425a6000830187613c5d565b6142676020830186613c5d565b6142746040830185613c5d565b6142816060830184613c5d565b95945050505050565b600082825260208201905092915050565b60006142a6826143ea565b91506142b1836143ea565b9250827fffffffffffffffffffffffffffffffffffffffffffffffffffffffffffffffff038211156142e6576142e5614461565b5b828201905092915050565b60006142fc826143ea565b9150614307836143ea565b92508261431757614316614490565b5b828204905092915050565b600061432d826143ea565b9150614338836143ea565b9250817fffffffffffffffffffffffffffffffffffffffffffffffffffffffffffffffff048311821515161561437157614370614461565b5b828202905092915050565b6000614387826143ca565b9050919050565b60008115159050919050565b6000819050919050565b60008190506143b282614b0b565b919050565b60008190506143c582614b1f565b919050565b600073ffffffffffffffffffffffffffffffffffffffff82169050919050565b6000819050919050565b60006143ff826143a4565b9050919050565b6000614411826143b7565b9050919050565b6000614423826143ea565b91507fffffffffffffffffffffffffffffffffffffffffffffffffffffffffffffffff82141561445657614455614461565b5b600182019050919050565b7f4e487b7100000000000000000000000000000000000000000000000000000000600052601160045260246000fd5b7f4e487b7100000000000000000000000000000000000000000000000000000000600052601260045260246000fd5b7f4e487b7100000000000000000000000000000000000000000000000000000000600052602160045260246000fd5b7f4e487b7100000000000000000000000000000000000000000000000000000000600052603260045260246000fd5b600080fd5b7f5468652063616d7061696e672063726561746564206d7573742068617665203160008201527f342064617973206f6c642e000000000000000000000000000000000000000000602082015250565b7f53656e646572206973206e6f742061206d656d6265722e000000000000000000600082015250565b7f54686520636f6e747269627574696f6e20697320696e73756666696369656e74600082015250565b7f53656e64657220697320616c72656164792061206d656d6265722e0000000000600082015250565b7f53656e64657220697320746865206f776e65722e000000000000000000000000600082015250565b7f54686520636c6f73652070726f706f73616c206973207374696c6c206f70656e60008201527f20666f7220766f74696e672e0000000000000000000000000000000000000000602082015250565b7f53656e646572206973206e6f7420746865206f776e65722e0000000000000000600082015250565b7f5468652070726f706f73616c20697320636c6f736520666f7220766f74696e6760008201527f2e00000000000000000000000000000000000000000000000000000000000000602082015250565b7f54686520666f756e64732061726520696e73756666696369656e740000000000600082015250565b7f54686520636c6f73652070726f706f73616c20697320636c6f736520666f722060008201527f766f74696e672e00000000000000000000000000000000000000000000000000602082015250565b7f5061796d656e742063616e2774206265206d6f7265207468616e2062616c616e60008201527f63652e0000000000000000000000000000000000000000000000000000000000602082015250565b7f5468652070726f706f73616c206973206e6f7420617070726f7665642e000000600082015250565b7f54686520636f6e747269627574696f6e732061726520696e737566666963696560008201527f6e74000000000000000000000000000000000000000000000000000000000000602082015250565b7f5468652063616d706169676e20737461747573206973206e6f7420616374697660008201527f652e000000000000000000000000000000000000000000000000000000000000602082015250565b7f5468652070726f706f73616c20686173206265656e20616c726561647920766f60008201527f746564206279207468652073656e646572000000000000000000000000000000602082015250565b7f5468652063616d706169676e20737461747573206973206e6f7420636c6f736560008201527f207965742e000000000000000000000000000000000000000000000000000000602082015250565b7f53656e64657220616c72656164792077697468647261772068697320666f756e60008201527f64732e0000000000000000000000000000000000000000000000000000000000602082015250565b7f54686520636c6f73652070726f706f73616c20686173206265656e20616c726560008201527f61647920766f746564206279207468652073656e646572000000000000000000602082015250565b7f5468652063616d706169676e20737461747573206973206e6f7420637265617460008201527f65642e0000000000000000000000000000000000000000000000000000000000602082015250565b7f5468652063616d706169676e2073746174757320697320434c4f5345442e0000600082015250565b7f5468652070726f706f73616c206973207374696c6c206f70656e20666f72207660008201527f6f74696e672e0000000000000000000000000000000000000000000000000000602082015250565b7f54686520636c6f73652070726f706f73616c206973206e6f74206c6f6e67657260008201527f206163746976652e000000000000000000000000000000000000000000000000602082015250565b7f5468652070726f706f73616c206973206e6f74206c6f6e67657220616374697660008201527f652e000000000000000000000000000000000000000000000000000000000000602082015250565b60048110614b1c57614b1b6144bf565b5b50565b60048110614b3057614b2f6144bf565b5b50565b614b3c8161437c565b8114614b4757600080fd5b50565b614b538161439a565b8114614b5e57600080fd5b50565b614b6a816143ea565b8114614b7557600080fd5b5056fea26469706673582212207d8a8b3a1c27c54feba04734b5875d88daab187e128c8cf0df71f1d8d1e9ff5864736f6c63430008060033",
  "immutableReferences": {},
  "source": "//SPDX-License-Identifier: GPL-3.0-only\npragma solidity ^0.8.0;\n\ncontract CrowdfundingCampaign {\n\n    /* Enums */\n\n    enum CampaignStatus { CREATED, ACTIVE, FAIL, SUCCESSFUL }\n    enum ProposalStatus { ACTIVE, APPROVED, DISAPPROVED, SUCCESSFUL }\n\n    \n    /* Structs */\n\n    /** @dev Struct proposal\n        This struct represents the proposals that only owner can make to get more founds.\n    **/\n    struct Proposal {\n        uint value;\n        address recipient;\n        uint approvalsCount;\n        uint disapprovalsCount;\n        mapping(address => bool) voters;\n        ProposalStatus status;\n        uint limitTime;\n    }\n\n    /** @dev Struct close proposal\n        This struct represents the proposal that members can make to get their founds back.\n    **/\n    struct CloseProposal {\n        uint approvalsCount;\n        uint disapprovalsCount;\n        mapping(address => bool) voters;\n        ProposalStatus status;\n        uint limitTime;\n        address author;\n    }\n\n    /* Storage */\n\n    CampaignStatus public status;\n    \n    address public owner;\n    \n    uint public goal;\n    uint public minimunContribution;\n    uint public membersCount;\n    uint public finalContributions;\n    uint public remainingContributions;\n    uint public created_at;\n    \n    mapping(address => uint) public contributions;\n    mapping(address => bool) public withdraws;\n    \n    Proposal[] public proposals;\n    CloseProposal[] public closeProposals;\n    \n\n    /** @dev Constructor.\n     *  @param _minimunContribution minimum contribution in wei that a person has to make to become a member.\n     *  @param _goal goal in wei that the project has to reach to be successful.\n     *  @param _ipfshash The url hash of the campaign data previously stored in IPFS.\n    **/\n    constructor(uint _minimunContribution, uint _goal, bytes32 _ipfshash) {\n        owner = msg.sender;\n        goal = _goal;\n        minimunContribution = _minimunContribution;\n        status = CampaignStatus.CREATED;\n        membersCount = 0;\n        created_at = block.timestamp;\n\n        emit CampaignCreated(_ipfshash);\n    }\n\n\n    /* Modifiers */\n\n    modifier restricted() { \n        require( msg.sender==owner, \"Sender is not the owner.\" ); \n        _; \n    }\n\n    modifier membering() { \n        require( (contributions[msg.sender]>0) || (msg.sender == owner), \n            \"Sender is not a member.\" ); \n        _; \n    }\n\n    modifier notMembering() { \n        require( (contributions[msg.sender]==0) && (msg.sender != owner),\n            \"Sender is already a member.\" );\n         _; \n    }\n\n    modifier statusCreated() { \n        require( status == CampaignStatus.CREATED, \n            \"The campaign status is not created.\" ); \n        _; \n    }\n\n    modifier statusActive() { \n        require( status == CampaignStatus.ACTIVE, \n            \"The campaign status is not active.\" ); \n        _; \n    }\n\n    modifier statusClosed() { \n        require( status == CampaignStatus.SUCCESSFUL || status == CampaignStatus.FAIL, \n            \"The campaign status is not close yet.\" ); \n        _; \n    }\n\n    modifier proposalActive(uint _index) { \n        require( proposals[_index].status == ProposalStatus.ACTIVE, \n            \"The proposal is not longer active.\" ); \n        _; \n    }\n\n    modifier proposalApproved(uint _index) { \n        require( proposals[_index].status == ProposalStatus.APPROVED,\n            \"The proposal is not approved.\" ); \n        _; \n    }\n\n    modifier beInTimeProposal(uint _index) { \n        require ( block.timestamp <= proposals[_index].limitTime, \n            \"The proposal is close for voting.\" ); \n        _; \n    }\n\n    modifier passedTimeProposal(uint _index) { \n        require ( block.timestamp > proposals[_index].limitTime, \n            \"The proposal is still open for voting.\" ); \n        _; \n    }\n    modifier statusNotClosed() {\n        require( status == CampaignStatus.ACTIVE || status == CampaignStatus.CREATED,\n            \"The campaign status is CLOSED.\" );\n        _;\n    }\n\n    modifier closeProposalActive(uint _index) {\n        require( closeProposals[_index].status == ProposalStatus.ACTIVE,\n            \"The close proposal is not longer active.\" );\n        _;\n    }\n\n    modifier closeProposalApproved(uint _index) {\n        require( closeProposals[_index].status == ProposalStatus.APPROVED,\n            \"The close proposal is not approved.\" );\n        _;\n    }\n\n    modifier beInTimeCloseProposal(uint _index) { \n        require ( block.timestamp <= closeProposals[_index].limitTime, \n            \"The close proposal is close for voting.\" ); \n        _; \n    }\n\n    modifier passedTimeCloseProposal(uint _index) { \n        require ( block.timestamp > closeProposals[_index].limitTime, \n            \"The close proposal is still open for voting.\" ); \n        _; \n    }\n\n\n    /* Events */\n\n    /** @dev Emitted when the author creates the campaign.\n     *  @param _ipfshash The url hash of the campaign data stored in IPFS.\n     */\n    event CampaignCreated(bytes32 _ipfshash);\n\n    /** @dev Emitted when a new person contributes with the campaign.\n     */\n    event NewContribution();\n\n    /** @dev Emitted when the author creates a proposal to free founds.\n     *  @param _ipfshash The url hash of the proposal data stored in IPFS.\n     */\n    event ProposalCreated(bytes32 _ipfshash);\n\n     /** @dev Emitted when a proposal is voted.\n     *  @param _index The index of the proposal.\n     */\n    event ProposalVoted(uint _index);\n\n    /** @dev Emitted when a proposal is Closed.\n     *  @param _index The index of the proposal.\n     */\n    event ProposalClosed(uint _index);\n\n    /** @dev Emitted when a proposal is release.\n     *  @param _index The index of the proposal.\n     */\n    event ProposalRelease(uint _index);\n\n     /** @dev Emitted when a member creates a proposal to close the campaign and get the founds back.\n     *  @param _ipfshash The url hash of the close proposal data stored in IPFS.\n     */\n    event CloseProposalCreated(bytes32 _ipfshash);\n\n    /** @dev Emitted when a close proposal is voted.\n     *  @param _index The index of the close proposal.\n     */\n    event CloseProposalVoted(uint _index);\n\n    /** @dev Emitted when the author creates a progress update to show how the project is going.\n     *  @param _ipfshash The url hash of the progress update data stored in IPFS.\n     */\n    event ProgressUpdate(bytes32 _ipfshash);\n\n    /** @dev Emitted when the status of the campaign change.\n     */\n    event ChangeStatusCampaign(CampaignStatus status);\n\n    /** @dev Emitted when a member withdraw his founds.\n     */\n    event WithdrawFounds(address _member, uint contribution, uint finalContributions, uint256 payment, uint remainingContributions);\n\n\n    /* Functions */\n\n    /** @dev Allow not members to contribute with the campaign and be a member of it.\n     */\n    function contribute() public notMembering statusCreated payable {\n        require(msg.value >= minimunContribution, \"The contribution is insufficient\");\n        contributions[msg.sender] = msg.value;\n        membersCount++;\n        emit NewContribution();\n    }\n\n    /** @dev Allow only owner to change the status of the cCampaign from CREATED to ACTIVE.\n     */\n    function setActive() public restricted statusCreated {\n        \n        require(address(this).balance >= goal,\"The contributions are insufficient\");\n        status = CampaignStatus.ACTIVE;\n        finalContributions = address(this).balance;\n\n        emit ChangeStatusCampaign(status);\n         \n    }\n\n    /** @dev Allow only owner to save a new progress Update data ipfs hash.\n     *  @param _ipfshash url hash of the progress update data (description and pictures) previously stored in IPFS.\n     */\n    function saveProgressUpdate(bytes32 _ipfshash) \n        public restricted statusActive {\n        emit ProgressUpdate(_ipfshash); \n    }\n\n    /** @dev Allow only owner to create a new proposal to get more founds.\n     *  @param _value founds in wei that the owner want to release.\n     *  @param _recipient address where the founds are going to be after release them.\n     *  @param _ipfshash url hash of the proposal data (description and pictures) previously stored in IPFS.\n     */\n    function createProposal(uint _value, address _recipient, bytes32 _ipfshash) \n        public restricted statusActive {\n\n        require(address(this).balance >= _value, \"The founds are insufficient\");\n\n        Proposal storage newProposal = proposals.push();\n        newProposal.recipient = _recipient;\n        newProposal.value = _value;\n        newProposal.approvalsCount = 0;\n        newProposal.disapprovalsCount = 0;\n        newProposal.status = ProposalStatus.ACTIVE;\n        newProposal.limitTime= block.timestamp + 7 days;\n\n        emit ProposalCreated(_ipfshash);\n        \n    }\n\n    /** @dev Allow only members to approve an active proposal that they haven't voted before.\n     *  @param _index index of the proposal the member wants to approve.\n     */\n    function approveProposal(uint _index) public membering statusActive proposalActive(_index) beInTimeProposal(_index) {\n\n        Proposal storage proposal = proposals[_index];\n        require(!proposal.voters[msg.sender], \"The proposal has been already voted by the sender\");\n\n        proposal.voters[msg.sender] = true;\n        proposal.approvalsCount++;\n\n        emit ProposalVoted(_index);        \n    }\n\n    /** @dev Allow only members to disapprove an active proposal that they haven't voted before.\n     *  @param _index index of the proposal the member wants to disapprove.\n     */\n    function disapproveProposal(uint _index) public membering statusActive proposalActive(_index) beInTimeProposal(_index) {\n\n        Proposal storage proposal = proposals[_index];\n        require(!proposal.voters[msg.sender], \"The proposal has been already voted by the sender\");\n\n        proposal.voters[msg.sender] = true;\n        proposal.disapprovalsCount++;\n        \n        emit ProposalVoted(_index);\n    }\n\n    /** @dev Allow only members to close an active proposal that already has its voting time over.\n     *  @param _index index of the proposal the member wants to approve.\n     */\n    function closeProposal(uint _index) public membering statusActive proposalActive(_index) passedTimeProposal(_index) {\n\n        Proposal storage proposal = proposals[_index];\n\n        if (proposal.approvalsCount > proposal.disapprovalsCount) {\n            proposal.status = ProposalStatus.APPROVED; \n        }\n        else {\n            proposal.status = ProposalStatus.DISAPPROVED;\n        }\n\n        emit ProposalClosed(_index);\n    }\n\n    /** @dev Allow only members to close an active proposal that already has its voting time over.\n     *  @param _index index of the proposal the member wants to approve.\n     */\n    function release(uint _index) public restricted statusActive proposalApproved(_index) {\n\n        Proposal storage proposal = proposals[_index];\n        proposal.status = ProposalStatus.SUCCESSFUL; \n        payable(proposal.recipient).transfer(proposal.value);\n        \n        emit ProposalRelease(_index);\n    }\n\n    /** @dev Allow only members to create a new proposal to finish de project and get the founds back.\n     *  @param _ipfshash url hash of the close proposal data (description) previously stored in IPFS.\n     */\n    function createCloseProposal(bytes32 _ipfshash) public membering statusNotClosed {\n\n        bool out_grace_period = ((created_at + 14 days) <= block.timestamp) && status == CampaignStatus.CREATED;\n        require( out_grace_period || status == CampaignStatus.ACTIVE,\n            \"The campaing created must have 14 days old.\" );\n\n        CloseProposal storage newCProposal = closeProposals.push();\n        newCProposal.approvalsCount = 0;\n        newCProposal.disapprovalsCount = 0;\n        newCProposal.status = ProposalStatus.ACTIVE;\n        newCProposal.limitTime= block.timestamp + 7 days;\n        newCProposal.author = msg.sender;\n\n        newCProposal.voters[msg.sender] = true;\n        newCProposal.approvalsCount++;\n\n        emit CloseProposalCreated(_ipfshash);\n         \n    }\n\n    /** @dev Allow only members to approve an active close proposal that they haven't voted before.\n     *  @param _index index of the close proposal the member wants to approve.\n     */\n    function approveCloseProposal(uint _index) public membering statusNotClosed closeProposalActive(_index) beInTimeCloseProposal(_index) {\n\n        CloseProposal storage cProposal = closeProposals[_index];\n        require(!cProposal.voters[msg.sender], \"The close proposal has been already voted by the sender\");\n\n        cProposal.voters[msg.sender] = true;\n        cProposal.approvalsCount++;\n\n        emit CloseProposalVoted(_index);\n        \n    }\n\n    /** @dev Allow only members to disapprove an active close proposal that they haven't voted before.\n     *  @param _index index of the close proposal the member wants to disapprove.\n     */\n    function disapproveCloseProposal(uint _index) public membering statusNotClosed closeProposalActive(_index) beInTimeCloseProposal(_index) {\n\n        CloseProposal storage cProposal = closeProposals[_index];\n        require(!cProposal.voters[msg.sender], \"The close proposal has been already voted by the sender\");\n\n        cProposal.voters[msg.sender] = true;\n        cProposal.disapprovalsCount++;\n\n        emit CloseProposalVoted(_index);\n        \n    }\n\n    /** @dev Allow only members to close an active proposal that already has its voting time over.\n     *  @param _index index of the proposal the member wants to approve.\n     */\n    function closeCloseProposal(uint _index) public membering statusNotClosed closeProposalActive(_index) passedTimeCloseProposal(_index) {\n\n        CloseProposal storage cProposal = closeProposals[_index];\n\n        if (cProposal.approvalsCount > cProposal.disapprovalsCount) {\n            if (cProposal.author == owner) {\n                status = CampaignStatus.SUCCESSFUL;\n            } else {\n                status = CampaignStatus.FAIL;\n            }\n            cProposal.status = ProposalStatus.APPROVED; \n            remainingContributions = address(this).balance;\n        }\n        else {\n            cProposal.status = ProposalStatus.DISAPPROVED;\n        }\n\n        emit ChangeStatusCampaign(status);\n    }\n\n    /** @dev Allow only members to withdraw the remaining founds once the campaign is closed.\n     */\n    function withdraw() public membering statusClosed {\n\n        require( msg.sender != owner, \"Sender is the owner.\" );\n        require( !withdraws[msg.sender], \"Sender already withdraw his founds.\" );\n\n        uint256 payment = ((contributions[msg.sender]*remainingContributions) / finalContributions);\n        \n        require( payment < address(this).balance, \"Payment can't be more than balance.\");\n\n        withdraws[msg.sender] = true;\n        payable(msg.sender).transfer(payment);\n\n        emit WithdrawFounds(msg.sender, contributions[msg.sender], finalContributions, payment, remainingContributions );\n    }\n\n\n     /* Aux functions */\n\n    /** @dev Function to return if someone is member.\n     */\n    function isMember(address _address) public view returns (bool) {\n        return contributions[_address]>0;\n    }\n\n    /** @dev Function to get the actual status of the campaign.\n     */\n    function getStatus() public view returns (CampaignStatus) {\n        return status;\n    }\n\n    /** @dev Function to get the finalContributions of the campaign.\n     */\n    function getFinalContributions() public view returns (uint) {\n        return finalContributions;\n    }\n\n    /** @dev Function to get the remainingContributions of the campaign.\n     */\n    function getRemainingContributions() public view returns (uint) {\n        return remainingContributions;\n    }\n\n    /** @dev Function to get all the balances of the campaign\n     */\n    function getBalancesInfo() public view returns (uint, uint, uint, uint) {\n        return (goal, finalContributions, remainingContributions, address(this).balance);\n    }\n\n    /** @dev Function to get the data of the campaign\n     */\n    function getCampaignInfo() public view returns (address, CampaignStatus, uint, uint, uint, uint, uint, bool) {\n        bool out_grace_period = (created_at + 14 days) <= block.timestamp;\n        return (owner, status, goal, minimunContribution, membersCount, finalContributions, remainingContributions, out_grace_period);\n    } \n\n    /** @dev Function to get the data of a proposal.\n     *  @param _index index of the proposal to return\n     */\n    function getProposal(uint _index) public view returns (address, uint, uint, uint, ProposalStatus, uint, bool, bool) {\n        Proposal storage proposal = proposals[_index];\n        bool inTime = block.timestamp <= proposal.limitTime;\n        bool senderHasVote = proposal.voters[msg.sender];\n        return (proposal.recipient, proposal.value, proposal.approvalsCount, proposal.disapprovalsCount, proposal.status, proposal.limitTime, inTime, senderHasVote);\n    } \n\n     /** @dev Function to know if a member has already vot a proposal.\n     *  @param _index index of the proposal\n     */\n    function hasVotedProposal(uint _index) public view returns (bool) {\n        Proposal storage proposal = proposals[_index];\n        return proposal.voters[msg.sender];\n    } \n\n    /** @dev Function to get the total number of proposals.\n     */\n    function getProposalsCount() public view returns (uint) {\n        return proposals.length;\n    }\n\n    /** @dev Function to get the data of a close proposal.\n     *  @param _index index of the proposal to return\n     */\n    function getCloseProposal(uint _index) public view returns (uint, uint, ProposalStatus, uint, bool, bool, address) {\n        CloseProposal storage cProposal = closeProposals[_index];\n        bool inTime = block.timestamp <= cProposal.limitTime;\n        bool senderHasVote = cProposal.voters[msg.sender];\n        return (cProposal.approvalsCount, cProposal.disapprovalsCount, cProposal.status, cProposal.limitTime, inTime, senderHasVote, cProposal.author);\n    } \n\n    /** @dev Function to know if a member has already vot a close proposal.\n     *  @param _index index of the proposal\n     */\n    function hasVotedCloseProposal(uint _index) public view returns (bool) {\n        CloseProposal storage cProposal = closeProposals[_index];\n        return cProposal.voters[msg.sender];\n    } \n\n    /** @dev Function to get the total number of close proposals.\n     */\n    function getCloseProposalsCount() public view returns (uint) {\n        return closeProposals.length;\n    }\n\n    /** @dev Function to know if a member has withdraw it's founds \n    */\n    function hasWithdraw() public view returns (bool) {\n        return withdraws[msg.sender];\n    }\n   \n}",
  "sourcePath": "/home/tati/Desktop/personal/Tesina/semideas-crowdfunding/contracts/CrowdfundingCampaign.sol",
  "compiler": {
    "name": "solc",
    "version": "0.8.6+commit.11564f7e.Emscripten.clang"
  },
  "schemaVersion": "3.4.1",
  "updatedAt": "2021-07-27T23:55:09.474Z",
  "devdoc": {
    "events": {
      "CampaignCreated(bytes32)": {
        "details": "Emitted when the author creates the campaign.",
        "params": {
          "_ipfshash": "The url hash of the campaign data stored in IPFS."
        }
      },
      "ChangeStatusCampaign(uint8)": {
        "details": "Emitted when the status of the campaign change."
      },
      "CloseProposalCreated(bytes32)": {
        "details": "Emitted when a member creates a proposal to close the campaign and get the founds back.",
        "params": {
          "_ipfshash": "The url hash of the close proposal data stored in IPFS."
        }
      },
      "CloseProposalVoted(uint256)": {
        "details": "Emitted when a close proposal is voted.",
        "params": {
          "_index": "The index of the close proposal."
        }
      },
      "NewContribution()": {
        "details": "Emitted when a new person contributes with the campaign."
      },
      "ProgressUpdate(bytes32)": {
        "details": "Emitted when the author creates a progress update to show how the project is going.",
        "params": {
          "_ipfshash": "The url hash of the progress update data stored in IPFS."
        }
      },
      "ProposalClosed(uint256)": {
        "details": "Emitted when a proposal is Closed.",
        "params": {
          "_index": "The index of the proposal."
        }
      },
      "ProposalCreated(bytes32)": {
        "details": "Emitted when the author creates a proposal to free founds.",
        "params": {
          "_ipfshash": "The url hash of the proposal data stored in IPFS."
        }
      },
      "ProposalRelease(uint256)": {
        "details": "Emitted when a proposal is release.",
        "params": {
          "_index": "The index of the proposal."
        }
      },
      "ProposalVoted(uint256)": {
        "details": "Emitted when a proposal is voted.",
        "params": {
          "_index": "The index of the proposal."
        }
      },
      "WithdrawFounds(address,uint256,uint256,uint256,uint256)": {
        "details": "Emitted when a member withdraw his founds."
      }
    },
    "kind": "dev",
    "methods": {
      "approveCloseProposal(uint256)": {
        "details": "Allow only members to approve an active close proposal that they haven't voted before.",
        "params": {
          "_index": "index of the close proposal the member wants to approve."
        }
      },
      "approveProposal(uint256)": {
        "details": "Allow only members to approve an active proposal that they haven't voted before.",
        "params": {
          "_index": "index of the proposal the member wants to approve."
        }
      },
      "closeCloseProposal(uint256)": {
        "details": "Allow only members to close an active proposal that already has its voting time over.",
        "params": {
          "_index": "index of the proposal the member wants to approve."
        }
      },
      "closeProposal(uint256)": {
        "details": "Allow only members to close an active proposal that already has its voting time over.",
        "params": {
          "_index": "index of the proposal the member wants to approve."
        }
      },
      "constructor": {
        "details": "Constructor.",
        "params": {
          "_goal": "goal in wei that the project has to reach to be successful.",
          "_ipfshash": "The url hash of the campaign data previously stored in IPFS.*",
          "_minimunContribution": "minimum contribution in wei that a person has to make to become a member."
        }
      },
      "contribute()": {
        "details": "Allow not members to contribute with the campaign and be a member of it."
      },
      "createCloseProposal(bytes32)": {
        "details": "Allow only members to create a new proposal to finish de project and get the founds back.",
        "params": {
          "_ipfshash": "url hash of the close proposal data (description) previously stored in IPFS."
        }
      },
      "createProposal(uint256,address,bytes32)": {
        "details": "Allow only owner to create a new proposal to get more founds.",
        "params": {
          "_ipfshash": "url hash of the proposal data (description and pictures) previously stored in IPFS.",
          "_recipient": "address where the founds are going to be after release them.",
          "_value": "founds in wei that the owner want to release."
        }
      },
      "disapproveCloseProposal(uint256)": {
        "details": "Allow only members to disapprove an active close proposal that they haven't voted before.",
        "params": {
          "_index": "index of the close proposal the member wants to disapprove."
        }
      },
      "disapproveProposal(uint256)": {
        "details": "Allow only members to disapprove an active proposal that they haven't voted before.",
        "params": {
          "_index": "index of the proposal the member wants to disapprove."
        }
      },
      "getBalancesInfo()": {
        "details": "Function to get all the balances of the campaign"
      },
      "getCampaignInfo()": {
        "details": "Function to get the data of the campaign"
      },
      "getCloseProposal(uint256)": {
        "details": "Function to get the data of a close proposal.",
        "params": {
          "_index": "index of the proposal to return"
        }
      },
      "getCloseProposalsCount()": {
        "details": "Function to get the total number of close proposals."
      },
      "getFinalContributions()": {
        "details": "Function to get the finalContributions of the campaign."
      },
      "getProposal(uint256)": {
        "details": "Function to get the data of a proposal.",
        "params": {
          "_index": "index of the proposal to return"
        }
      },
      "getProposalsCount()": {
        "details": "Function to get the total number of proposals."
      },
      "getRemainingContributions()": {
        "details": "Function to get the remainingContributions of the campaign."
      },
      "getStatus()": {
        "details": "Function to get the actual status of the campaign."
      },
      "hasVotedCloseProposal(uint256)": {
        "details": "Function to know if a member has already vot a close proposal.",
        "params": {
          "_index": "index of the proposal"
        }
      },
      "hasVotedProposal(uint256)": {
        "details": "Function to know if a member has already vot a proposal.",
        "params": {
          "_index": "index of the proposal"
        }
      },
      "hasWithdraw()": {
        "details": "Function to know if a member has withdraw it's founds "
      },
      "isMember(address)": {
        "details": "Function to return if someone is member."
      },
      "release(uint256)": {
        "details": "Allow only members to close an active proposal that already has its voting time over.",
        "params": {
          "_index": "index of the proposal the member wants to approve."
        }
      },
      "saveProgressUpdate(bytes32)": {
        "details": "Allow only owner to save a new progress Update data ipfs hash.",
        "params": {
          "_ipfshash": "url hash of the progress update data (description and pictures) previously stored in IPFS."
        }
      },
      "setActive()": {
        "details": "Allow only owner to change the status of the cCampaign from CREATED to ACTIVE."
      },
      "withdraw()": {
        "details": "Allow only members to withdraw the remaining founds once the campaign is closed."
      }
    },
    "version": 1
  },
  "userdoc": {
    "kind": "user",
    "methods": {},
    "version": 1
  }
}