{
  "contractName": "CrowdfundingCampaignDemo",
  "abi": [
    {
      "inputs": [
        {
          "internalType": "uint256",
          "name": "_minimunContribution",
          "type": "uint256"
        },
        {
          "internalType": "uint256",
          "name": "_goal",
          "type": "uint256"
        },
        {
          "internalType": "bytes32",
          "name": "_ipfshash",
          "type": "bytes32"
        }
      ],
      "stateMutability": "nonpayable",
      "type": "constructor"
    },
    {
      "anonymous": false,
      "inputs": [
        {
          "indexed": true,
          "internalType": "bytes32",
          "name": "_ipfshash",
          "type": "bytes32"
        }
      ],
      "name": "campaignCreated",
      "type": "event"
    },
    {
      "anonymous": false,
      "inputs": [],
      "name": "changeStatusCampaign",
      "type": "event"
    },
    {
      "anonymous": false,
      "inputs": [],
      "name": "destructProposalClosed",
      "type": "event"
    },
    {
      "anonymous": false,
      "inputs": [
        {
          "indexed": true,
          "internalType": "bytes32",
          "name": "_ipfshash",
          "type": "bytes32"
        }
      ],
      "name": "destructProposalCreated",
      "type": "event"
    },
    {
      "anonymous": false,
      "inputs": [],
      "name": "newContribution",
      "type": "event"
    },
    {
      "anonymous": false,
      "inputs": [
        {
          "indexed": true,
          "internalType": "bytes32",
          "name": "_ipfshash",
          "type": "bytes32"
        }
      ],
      "name": "progressUpdate",
      "type": "event"
    },
    {
      "anonymous": false,
      "inputs": [],
      "name": "proposalClosed",
      "type": "event"
    },
    {
      "anonymous": false,
      "inputs": [
        {
          "indexed": true,
          "internalType": "bytes32",
          "name": "_ipfshash",
          "type": "bytes32"
        }
      ],
      "name": "proposalCreated",
      "type": "event"
    },
    {
      "inputs": [
        {
          "internalType": "uint256",
          "name": "_index",
          "type": "uint256"
        }
      ],
      "name": "approveProposal",
      "outputs": [],
      "stateMutability": "nonpayable",
      "type": "function"
    },
    {
      "inputs": [
        {
          "internalType": "uint256",
          "name": "_index",
          "type": "uint256"
        }
      ],
      "name": "aproveDestructProposal",
      "outputs": [],
      "stateMutability": "nonpayable",
      "type": "function"
    },
    {
      "inputs": [
        {
          "internalType": "uint256",
          "name": "_index",
          "type": "uint256"
        }
      ],
      "name": "closeDestructProposal",
      "outputs": [],
      "stateMutability": "nonpayable",
      "type": "function"
    },
    {
      "inputs": [
        {
          "internalType": "uint256",
          "name": "_index",
          "type": "uint256"
        }
      ],
      "name": "closeProposal",
      "outputs": [],
      "stateMutability": "nonpayable",
      "type": "function"
    },
    {
      "inputs": [],
      "name": "contribute",
      "outputs": [],
      "stateMutability": "payable",
      "type": "function",
      "payable": true
    },
    {
      "inputs": [
        {
          "internalType": "address",
          "name": "",
          "type": "address"
        }
      ],
      "name": "contributions",
      "outputs": [
        {
          "internalType": "uint256",
          "name": "",
          "type": "uint256"
        }
      ],
      "stateMutability": "view",
      "type": "function",
      "constant": true
    },
    {
      "inputs": [
        {
          "internalType": "bytes32",
          "name": "_ipfshash",
          "type": "bytes32"
        }
      ],
      "name": "createDestructProposal",
      "outputs": [],
      "stateMutability": "nonpayable",
      "type": "function"
    },
    {
      "inputs": [
        {
          "internalType": "uint256",
          "name": "_value",
          "type": "uint256"
        },
        {
          "internalType": "address",
          "name": "_recipient",
          "type": "address"
        },
        {
          "internalType": "bytes32",
          "name": "_ipfshash",
          "type": "bytes32"
        }
      ],
      "name": "createProposal",
      "outputs": [],
      "stateMutability": "nonpayable",
      "type": "function"
    },
    {
      "inputs": [
        {
          "internalType": "uint256",
          "name": "",
          "type": "uint256"
        }
      ],
      "name": "destructProposals",
      "outputs": [
        {
          "internalType": "uint256",
          "name": "approvalsCount",
          "type": "uint256"
        },
        {
          "internalType": "uint256",
          "name": "disapprovalsCount",
          "type": "uint256"
        },
        {
          "internalType": "enum CrowdfundingCampaign.Status",
          "name": "status",
          "type": "uint8"
        },
        {
          "internalType": "uint256",
          "name": "limitTime",
          "type": "uint256"
        }
      ],
      "stateMutability": "view",
      "type": "function",
      "constant": true
    },
    {
      "inputs": [
        {
          "internalType": "uint256",
          "name": "_index",
          "type": "uint256"
        }
      ],
      "name": "disapproveDestructProposal",
      "outputs": [],
      "stateMutability": "nonpayable",
      "type": "function"
    },
    {
      "inputs": [
        {
          "internalType": "uint256",
          "name": "_index",
          "type": "uint256"
        }
      ],
      "name": "disapproveProposal",
      "outputs": [],
      "stateMutability": "nonpayable",
      "type": "function"
    },
    {
      "inputs": [],
      "name": "getCampaignInfo",
      "outputs": [
        {
          "internalType": "address",
          "name": "",
          "type": "address"
        },
        {
          "internalType": "enum CrowdfundingCampaign.Status",
          "name": "",
          "type": "uint8"
        },
        {
          "internalType": "uint256",
          "name": "",
          "type": "uint256"
        },
        {
          "internalType": "uint256",
          "name": "",
          "type": "uint256"
        },
        {
          "internalType": "uint256",
          "name": "",
          "type": "uint256"
        }
      ],
      "stateMutability": "view",
      "type": "function",
      "constant": true
    },
    {
      "inputs": [
        {
          "internalType": "uint256",
          "name": "_index",
          "type": "uint256"
        }
      ],
      "name": "getDestructProposal",
      "outputs": [
        {
          "internalType": "uint256",
          "name": "",
          "type": "uint256"
        },
        {
          "internalType": "uint256",
          "name": "",
          "type": "uint256"
        },
        {
          "internalType": "enum CrowdfundingCampaign.Status",
          "name": "",
          "type": "uint8"
        },
        {
          "internalType": "uint256",
          "name": "",
          "type": "uint256"
        }
      ],
      "stateMutability": "view",
      "type": "function",
      "constant": true
    },
    {
      "inputs": [],
      "name": "getDestructProposalsCount",
      "outputs": [
        {
          "internalType": "uint256",
          "name": "",
          "type": "uint256"
        }
      ],
      "stateMutability": "view",
      "type": "function",
      "constant": true
    },
    {
      "inputs": [
        {
          "internalType": "uint256",
          "name": "_index",
          "type": "uint256"
        }
      ],
      "name": "getProposal",
      "outputs": [
        {
          "internalType": "address",
          "name": "",
          "type": "address"
        },
        {
          "internalType": "uint256",
          "name": "",
          "type": "uint256"
        },
        {
          "internalType": "uint256",
          "name": "",
          "type": "uint256"
        },
        {
          "internalType": "uint256",
          "name": "",
          "type": "uint256"
        },
        {
          "internalType": "enum CrowdfundingCampaign.Status",
          "name": "",
          "type": "uint8"
        },
        {
          "internalType": "uint256",
          "name": "",
          "type": "uint256"
        }
      ],
      "stateMutability": "view",
      "type": "function",
      "constant": true
    },
    {
      "inputs": [],
      "name": "getProposalsCount",
      "outputs": [
        {
          "internalType": "uint256",
          "name": "",
          "type": "uint256"
        }
      ],
      "stateMutability": "view",
      "type": "function",
      "constant": true
    },
    {
      "inputs": [],
      "name": "getStatus",
      "outputs": [
        {
          "internalType": "enum CrowdfundingCampaign.Status",
          "name": "",
          "type": "uint8"
        }
      ],
      "stateMutability": "view",
      "type": "function",
      "constant": true
    },
    {
      "inputs": [],
      "name": "goal",
      "outputs": [
        {
          "internalType": "uint256",
          "name": "",
          "type": "uint256"
        }
      ],
      "stateMutability": "view",
      "type": "function",
      "constant": true
    },
    {
      "inputs": [
        {
          "internalType": "address",
          "name": "_address",
          "type": "address"
        }
      ],
      "name": "isMember",
      "outputs": [
        {
          "internalType": "bool",
          "name": "",
          "type": "bool"
        }
      ],
      "stateMutability": "view",
      "type": "function",
      "constant": true
    },
    {
      "inputs": [],
      "name": "membersCount",
      "outputs": [
        {
          "internalType": "uint256",
          "name": "",
          "type": "uint256"
        }
      ],
      "stateMutability": "view",
      "type": "function",
      "constant": true
    },
    {
      "inputs": [],
      "name": "minimunContribution",
      "outputs": [
        {
          "internalType": "uint256",
          "name": "",
          "type": "uint256"
        }
      ],
      "stateMutability": "view",
      "type": "function",
      "constant": true
    },
    {
      "inputs": [],
      "name": "owner",
      "outputs": [
        {
          "internalType": "address",
          "name": "",
          "type": "address"
        }
      ],
      "stateMutability": "view",
      "type": "function",
      "constant": true
    },
    {
      "inputs": [
        {
          "internalType": "uint256",
          "name": "",
          "type": "uint256"
        }
      ],
      "name": "proposals",
      "outputs": [
        {
          "internalType": "uint256",
          "name": "value",
          "type": "uint256"
        },
        {
          "internalType": "address",
          "name": "recipient",
          "type": "address"
        },
        {
          "internalType": "uint256",
          "name": "approvalsCount",
          "type": "uint256"
        },
        {
          "internalType": "uint256",
          "name": "disapprovalsCount",
          "type": "uint256"
        },
        {
          "internalType": "enum CrowdfundingCampaign.Status",
          "name": "status",
          "type": "uint8"
        },
        {
          "internalType": "uint256",
          "name": "limitTime",
          "type": "uint256"
        }
      ],
      "stateMutability": "view",
      "type": "function",
      "constant": true
    },
    {
      "inputs": [
        {
          "internalType": "bytes32",
          "name": "_ipfshash",
          "type": "bytes32"
        }
      ],
      "name": "saveProgressUpdate",
      "outputs": [],
      "stateMutability": "nonpayable",
      "type": "function"
    },
    {
      "inputs": [],
      "name": "setActive",
      "outputs": [],
      "stateMutability": "nonpayable",
      "type": "function"
    },
    {
      "inputs": [],
      "name": "status",
      "outputs": [
        {
          "internalType": "enum CrowdfundingCampaign.Status",
          "name": "",
          "type": "uint8"
        }
      ],
      "stateMutability": "view",
      "type": "function",
      "constant": true
    }
  ],
  "bytecode": "0x608060405234801561001057600080fd5b5060405161304b38038061304b8339818101604052606081101561003357600080fd5b8101908080519060200190929190805190602001909291908051906020019092919050505082828233600060016101000a81548173ffffffffffffffffffffffffffffffffffffffff021916908373ffffffffffffffffffffffffffffffffffffffff160217905550816001819055508260028190555060008060006101000a81548160ff021916908360048111156100c857fe5b02179055506000600481905550807f7a0ced2ebfa0348c1bb2ad8b93cccf47c0327bcce7d31ef5bbf1df0963de236e60405160405180910390a2505050505050612f34806101176000396000f3fe6080604052600436106101815760003560e01c8063923a64fb116100d1578063c7f758a81161008a578063d7bb99ba11610064578063d7bb99ba146107b1578063e966670a146107bb578063ef978ecb1461082a578063f049a60c1461086557610181565b8063c7f758a81461067b578063c8541fe01461070e578063d6290cd71461074957610181565b8063923a64fb146104d957806398951b561461051457806398e527d31461054f578063a230c5241461057a578063a7f33715146105e1578063b1a6f6a91461060c57610181565b80633b047a8f1161013e5780634e69d560116101185780634e69d560146103e657806351c36c1e1461041c578063760a8c2a146104815780638da5cb5b1461049857610181565b80633b047a8f1461031b578063401938831461035657806342e94c901461038157610181565b8063013cf08b146101865780630386a016146102195780631ec0b7ba14610254578063200d2ed21461027f578063297f9af0146102b55780633912fbe5146102e0575b600080fd5b34801561019257600080fd5b506101bf600480360360208110156101a957600080fd5b81019080803590602001909291905050506108a0565b604051808781526020018673ffffffffffffffffffffffffffffffffffffffff1681526020018581526020018481526020018360048111156101fd57fe5b8152602001828152602001965050505050505060405180910390f35b34801561022557600080fd5b506102526004803603602081101561023c57600080fd5b8101908080359060200190929190505050610916565b005b34801561026057600080fd5b50610269610c64565b6040518082815260200191505060405180910390f35b34801561028b57600080fd5b50610294610c71565b604051808260048111156102a457fe5b815260200191505060405180910390f35b3480156102c157600080fd5b506102ca610c82565b6040518082815260200191505060405180910390f35b3480156102ec57600080fd5b506103196004803603602081101561030357600080fd5b8101908080359060200190929190505050610c88565b005b34801561032757600080fd5b506103546004803603602081101561033e57600080fd5b8101908080359060200190929190505050610fd6565b005b34801561036257600080fd5b5061036b611145565b6040518082815260200191505060405180910390f35b34801561038d57600080fd5b506103d0600480360360208110156103a457600080fd5b81019080803573ffffffffffffffffffffffffffffffffffffffff16906020019092919050505061114b565b6040518082815260200191505060405180910390f35b3480156103f257600080fd5b506103fb611163565b6040518082600481111561040b57fe5b815260200191505060405180910390f35b34801561042857600080fd5b5061047f6004803603606081101561043f57600080fd5b8101908080359060200190929190803573ffffffffffffffffffffffffffffffffffffffff16906020019092919080359060200190929190505050611179565b005b34801561048d57600080fd5b50610496611487565b005b3480156104a457600080fd5b506104ad611672565b604051808273ffffffffffffffffffffffffffffffffffffffff16815260200191505060405180910390f35b3480156104e557600080fd5b50610512600480360360208110156104fc57600080fd5b8101908080359060200190929190505050611698565b005b34801561052057600080fd5b5061054d6004803603602081101561053757600080fd5b8101908080359060200190929190505050611905565b005b34801561055b57600080fd5b50610564611cd9565b6040518082815260200191505060405180910390f35b34801561058657600080fd5b506105c96004803603602081101561059d57600080fd5b81019080803573ffffffffffffffffffffffffffffffffffffffff169060200190929190505050611ce6565b60405180821515815260200191505060405180910390f35b3480156105ed57600080fd5b506105f6611d31565b6040518082815260200191505060405180910390f35b34801561061857600080fd5b506106456004803603602081101561062f57600080fd5b8101908080359060200190929190505050611d37565b6040518085815260200184815260200183600481111561066157fe5b815260200182815260200194505050505060405180910390f35b34801561068757600080fd5b506106b46004803603602081101561069e57600080fd5b8101908080359060200190929190505050611d81565b604051808773ffffffffffffffffffffffffffffffffffffffff1681526020018681526020018581526020018481526020018360048111156106f257fe5b8152602001828152602001965050505050505060405180910390f35b34801561071a57600080fd5b506107476004803603602081101561073157600080fd5b8101908080359060200190929190505050611e0a565b005b34801561075557600080fd5b5061075e6121de565b604051808673ffffffffffffffffffffffffffffffffffffffff16815260200185600481111561078a57fe5b81526020018481526020018381526020018281526020019550505050505060405180910390f35b6107b9612230565b005b3480156107c757600080fd5b506107f4600480360360208110156107de57600080fd5b81019080803590602001909291905050506124b7565b6040518085815260200184815260200183600481111561081057fe5b815260200182815260200194505050505060405180910390f35b34801561083657600080fd5b506108636004803603602081101561084d57600080fd5b810190808035906020019092919050505061250d565b005b34801561087157600080fd5b5061089e6004803603602081101561088857600080fd5b81019080803590602001909291905050506128e1565b005b600581815481106108ad57fe5b90600052602060002090600702016000915090508060000154908060010160009054906101000a900473ffffffffffffffffffffffffffffffffffffffff16908060020154908060030154908060050160009054906101000a900460ff16908060060154905086565b6000600360003373ffffffffffffffffffffffffffffffffffffffff1673ffffffffffffffffffffffffffffffffffffffff1681526020019081526020016000205411806109b15750600060019054906101000a900473ffffffffffffffffffffffffffffffffffffffff1673ffffffffffffffffffffffffffffffffffffffff163373ffffffffffffffffffffffffffffffffffffffff16145b610a23576040517f08c379a00000000000000000000000000000000000000000000000000000000081526004018080602001828103825260178152602001807f53656e646572206973206e6f742061206d656d6265722e00000000000000000081525060200191505060405180910390fd5b60036004811115610a3057fe5b60008054906101000a900460ff166004811115610a4957fe5b14610a9f576040517f08c379a0000000000000000000000000000000000000000000000000000000008152600401808060200182810382526022815260200180612e176022913960400191505060405180910390fd5b8060036004811115610aad57fe5b60058281548110610aba57fe5b906000526020600020906007020160050160009054906101000a900460ff166004811115610ae457fe5b14610b3a576040517f08c379a0000000000000000000000000000000000000000000000000000000008152600401808060200182810382526022815260200180612edd6022913960400191505060405180910390fd5b8160058181548110610b4857fe5b9060005260206000209060070201600601544211610bb1576040517f08c379a0000000000000000000000000000000000000000000000000000000008152600401808060200182810382526026815260200180612eb76026913960400191505060405180910390fd5b600060058481548110610bc057fe5b90600052602060002090600702019050806003015481600201541115610c0b5760018160050160006101000a81548160ff02191690836004811115610c0157fe5b0217905550610c32565b60028160050160006101000a81548160ff02191690836004811115610c2c57fe5b02179055505b7f2e20d5cd32b3aa7244354e7d69d7411ab9a7a120dc27be987fde4a616a0006c560405160405180910390a150505050565b6000600680549050905090565b60008054906101000a900460ff1681565b60045481565b6000600360003373ffffffffffffffffffffffffffffffffffffffff1673ffffffffffffffffffffffffffffffffffffffff168152602001908152602001600020541180610d235750600060019054906101000a900473ffffffffffffffffffffffffffffffffffffffff1673ffffffffffffffffffffffffffffffffffffffff163373ffffffffffffffffffffffffffffffffffffffff16145b610d95576040517f08c379a00000000000000000000000000000000000000000000000000000000081526004018080602001828103825260178152602001807f53656e646572206973206e6f742061206d656d6265722e00000000000000000081525060200191505060405180910390fd5b60036004811115610da257fe5b60008054906101000a900460ff166004811115610dbb57fe5b14610e11576040517f08c379a0000000000000000000000000000000000000000000000000000000008152600401808060200182810382526022815260200180612e176022913960400191505060405180910390fd5b8060036004811115610e1f57fe5b60068281548110610e2c57fe5b906000526020600020906005020160030160009054906101000a900460ff166004811115610e5657fe5b14610eac576040517f08c379a000000000000000000000000000000000000000000000000000000000815260040180806020018281038252602b815260200180612da9602b913960400191505060405180910390fd5b8160068181548110610eba57fe5b9060005260206000209060050201600401544211610f23576040517f08c379a000000000000000000000000000000000000000000000000000000000815260040180806020018281038252602f815260200180612d7a602f913960400191505060405180910390fd5b600060068481548110610f3257fe5b90600052602060002090600502019050806001015481600001541115610f7d5760018160030160006101000a81548160ff02191690836004811115610f7357fe5b0217905550610fa4565b60028160030160006101000a81548160ff02191690836004811115610f9e57fe5b02179055505b7f51555d6e6fc56ffb6d8e28c9129f22ceabaa8b290219efa9cba8704908046df760405160405180910390a150505050565b600060019054906101000a900473ffffffffffffffffffffffffffffffffffffffff1673ffffffffffffffffffffffffffffffffffffffff163373ffffffffffffffffffffffffffffffffffffffff1614611099576040517f08c379a00000000000000000000000000000000000000000000000000000000081526004018080602001828103825260188152602001807f53656e646572206973206e6f7420746865206f776e65722e000000000000000081525060200191505060405180910390fd5b600360048111156110a657fe5b60008054906101000a900460ff1660048111156110bf57fe5b14611115576040517f08c379a0000000000000000000000000000000000000000000000000000000008152600401808060200182810382526022815260200180612e176022913960400191505060405180910390fd5b807f47aac9c0b41a2c10c090f2fb431f4ca2fffb55452918ebc47f7b4b160b178b5560405160405180910390a250565b60015481565b60036020528060005260406000206000915090505481565b60008060009054906101000a900460ff16905090565b600060019054906101000a900473ffffffffffffffffffffffffffffffffffffffff1673ffffffffffffffffffffffffffffffffffffffff163373ffffffffffffffffffffffffffffffffffffffff161461123c576040517f08c379a00000000000000000000000000000000000000000000000000000000081526004018080602001828103825260188152602001807f53656e646572206973206e6f7420746865206f776e65722e000000000000000081525060200191505060405180910390fd5b6003600481111561124957fe5b60008054906101000a900460ff16600481111561126257fe5b146112b8576040517f08c379a0000000000000000000000000000000000000000000000000000000008152600401808060200182810382526022815260200180612e176022913960400191505060405180910390fd5b8247101561132e576040517f08c379a000000000000000000000000000000000000000000000000000000000815260040180806020018281038252601b8152602001807f54686520666f756e64732061726520696e73756666696369656e74000000000081525060200191505060405180910390fd5b611336612cb5565b6040518060c001604052808581526020018473ffffffffffffffffffffffffffffffffffffffff16815260200160008152602001600081526020016003600481111561137e57fe5b815260200162093a804201815250905060058190806001815401808255809150506001900390600052602060002090600702016000909190919091506000820151816000015560208201518160010160006101000a81548173ffffffffffffffffffffffffffffffffffffffff021916908373ffffffffffffffffffffffffffffffffffffffff160217905550604082015181600201556060820151816003015560808201518160050160006101000a81548160ff0219169083600481111561144357fe5b021790555060a082015181600601555050817fdf3af04813197e32521106616bbfaf01af69d2e70f2f872720142b52953414e360405160405180910390a250505050565b600060019054906101000a900473ffffffffffffffffffffffffffffffffffffffff1673ffffffffffffffffffffffffffffffffffffffff163373ffffffffffffffffffffffffffffffffffffffff161461154a576040517f08c379a00000000000000000000000000000000000000000000000000000000081526004018080602001828103825260188152602001807f53656e646572206973206e6f7420746865206f776e65722e000000000000000081525060200191505060405180910390fd5b6000600481111561155757fe5b60008054906101000a900460ff16600481111561157057fe5b146115c6576040517f08c379a0000000000000000000000000000000000000000000000000000000008152600401808060200182810382526023815260200180612e946023913960400191505060405180910390fd5b600154471015611621576040517f08c379a0000000000000000000000000000000000000000000000000000000008152600401808060200182810382526022815260200180612df56022913960400191505060405180910390fd5b60036000806101000a81548160ff0219169083600481111561163f57fe5b02179055507f91eece65bbb3195524f803743167f72997d625af1d1698c2eff3d0a54e22945c60405160405180910390a1565b600060019054906101000a900473ffffffffffffffffffffffffffffffffffffffff1681565b6000600360003373ffffffffffffffffffffffffffffffffffffffff1673ffffffffffffffffffffffffffffffffffffffff1681526020019081526020016000205411806117335750600060019054906101000a900473ffffffffffffffffffffffffffffffffffffffff1673ffffffffffffffffffffffffffffffffffffffff163373ffffffffffffffffffffffffffffffffffffffff16145b6117a5576040517f08c379a00000000000000000000000000000000000000000000000000000000081526004018080602001828103825260178152602001807f53656e646572206973206e6f742061206d656d6265722e00000000000000000081525060200191505060405180910390fd5b600360048111156117b257fe5b60008054906101000a900460ff1660048111156117cb57fe5b14611821576040517f08c379a0000000000000000000000000000000000000000000000000000000008152600401808060200182810382526022815260200180612e176022913960400191505060405180910390fd5b611829612d0c565b604051806080016040528060008152602001600081526020016003600481111561184f57fe5b815260200162093a80420181525090506006819080600181540180825580915050600190039060005260206000209060050201600090919091909150600082015181600001556020820151816001015560408201518160030160006101000a81548160ff021916908360048111156118c357fe5b0217905550606082015181600401555050817fc95a86df0db5b70c1293ecf6809b04b1e69f91ddaa05b8912d28dbf59047755360405160405180910390a25050565b6000600360003373ffffffffffffffffffffffffffffffffffffffff1673ffffffffffffffffffffffffffffffffffffffff1681526020019081526020016000205411806119a05750600060019054906101000a900473ffffffffffffffffffffffffffffffffffffffff1673ffffffffffffffffffffffffffffffffffffffff163373ffffffffffffffffffffffffffffffffffffffff16145b611a12576040517f08c379a00000000000000000000000000000000000000000000000000000000081526004018080602001828103825260178152602001807f53656e646572206973206e6f742061206d656d6265722e00000000000000000081525060200191505060405180910390fd5b60036004811115611a1f57fe5b60008054906101000a900460ff166004811115611a3857fe5b14611a8e576040517f08c379a0000000000000000000000000000000000000000000000000000000008152600401808060200182810382526022815260200180612e176022913960400191505060405180910390fd5b8060036004811115611a9c57fe5b60058281548110611aa957fe5b906000526020600020906007020160050160009054906101000a900460ff166004811115611ad357fe5b14611b29576040517f08c379a0000000000000000000000000000000000000000000000000000000008152600401808060200182810382526022815260200180612edd6022913960400191505060405180910390fd5b8160058181548110611b3757fe5b906000526020600020906007020160060154421115611ba1576040517f08c379a0000000000000000000000000000000000000000000000000000000008152600401808060200182810382526021815260200180612dd46021913960400191505060405180910390fd5b600060058481548110611bb057fe5b906000526020600020906007020190508060040160003373ffffffffffffffffffffffffffffffffffffffff1673ffffffffffffffffffffffffffffffffffffffff16815260200190815260200160002060009054906101000a900460ff1615611c65576040517f08c379a0000000000000000000000000000000000000000000000000000000008152600401808060200182810382526031815260200180612e396031913960400191505060405180910390fd5b60018160040160003373ffffffffffffffffffffffffffffffffffffffff1673ffffffffffffffffffffffffffffffffffffffff16815260200190815260200160002060006101000a81548160ff021916908315150217905550806002016000815480929190600101919050555050505050565b6000600580549050905090565b600080600360008473ffffffffffffffffffffffffffffffffffffffff1673ffffffffffffffffffffffffffffffffffffffff16815260200190815260200160002054119050919050565b60025481565b60068181548110611d4457fe5b90600052602060002090600502016000915090508060000154908060010154908060030160009054906101000a900460ff16908060040154905084565b600080600080600080600060058881548110611d9957fe5b906000526020600020906007020190508060010160009054906101000a900473ffffffffffffffffffffffffffffffffffffffff168160000154826002015483600301548460050160009054906101000a900460ff1685600601549650965096509650965096505091939550919395565b6000600360003373ffffffffffffffffffffffffffffffffffffffff1673ffffffffffffffffffffffffffffffffffffffff168152602001908152602001600020541180611ea55750600060019054906101000a900473ffffffffffffffffffffffffffffffffffffffff1673ffffffffffffffffffffffffffffffffffffffff163373ffffffffffffffffffffffffffffffffffffffff16145b611f17576040517f08c379a00000000000000000000000000000000000000000000000000000000081526004018080602001828103825260178152602001807f53656e646572206973206e6f742061206d656d6265722e00000000000000000081525060200191505060405180910390fd5b60036004811115611f2457fe5b60008054906101000a900460ff166004811115611f3d57fe5b14611f93576040517f08c379a0000000000000000000000000000000000000000000000000000000008152600401808060200182810382526022815260200180612e176022913960400191505060405180910390fd5b8060036004811115611fa157fe5b60058281548110611fae57fe5b906000526020600020906007020160050160009054906101000a900460ff166004811115611fd857fe5b1461202e576040517f08c379a0000000000000000000000000000000000000000000000000000000008152600401808060200182810382526022815260200180612edd6022913960400191505060405180910390fd5b816005818154811061203c57fe5b9060005260206000209060070201600601544211156120a6576040517f08c379a0000000000000000000000000000000000000000000000000000000008152600401808060200182810382526021815260200180612dd46021913960400191505060405180910390fd5b6000600584815481106120b557fe5b906000526020600020906007020190508060040160003373ffffffffffffffffffffffffffffffffffffffff1673ffffffffffffffffffffffffffffffffffffffff16815260200190815260200160002060009054906101000a900460ff161561216a576040517f08c379a0000000000000000000000000000000000000000000000000000000008152600401808060200182810382526031815260200180612e396031913960400191505060405180910390fd5b60018160040160003373ffffffffffffffffffffffffffffffffffffffff1673ffffffffffffffffffffffffffffffffffffffff16815260200190815260200160002060006101000a81548160ff021916908315150217905550806003016000815480929190600101919050555050505050565b60008060008060008060019054906101000a900473ffffffffffffffffffffffffffffffffffffffff1660008054906101000a900460ff16600154600254600454945094509450945094509091929394565b6000600360003373ffffffffffffffffffffffffffffffffffffffff1673ffffffffffffffffffffffffffffffffffffffff168152602001908152602001600020541480156122cd5750600060019054906101000a900473ffffffffffffffffffffffffffffffffffffffff1673ffffffffffffffffffffffffffffffffffffffff163373ffffffffffffffffffffffffffffffffffffffff1614155b61233f576040517f08c379a000000000000000000000000000000000000000000000000000000000815260040180806020018281038252601b8152602001807f53656e64657220697320616c72656164792061206d656d6265722e000000000081525060200191505060405180910390fd5b6000600481111561234c57fe5b60008054906101000a900460ff16600481111561236557fe5b146123bb576040517f08c379a0000000000000000000000000000000000000000000000000000000008152600401808060200182810382526023815260200180612e946023913960400191505060405180910390fd5b600254341015612433576040517f08c379a000000000000000000000000000000000000000000000000000000000815260040180806020018281038252601f8152602001807f54686520636f6e747269627574696f6e20697320696e737566696369656e740081525060200191505060405180910390fd5b34600360003373ffffffffffffffffffffffffffffffffffffffff1673ffffffffffffffffffffffffffffffffffffffff168152602001908152602001600020819055506004600081548092919060010191905055507f645665e8674f75953a5c3a468125fb84ae3b8b3fa0fcec823b34b6421cd800ca60405160405180910390a1565b6000806000806000600686815481106124cc57fe5b90600052602060002090600502019050806000015481600101548260030160009054906101000a900460ff1683600401549450945094509450509193509193565b6000600360003373ffffffffffffffffffffffffffffffffffffffff1673ffffffffffffffffffffffffffffffffffffffff1681526020019081526020016000205411806125a85750600060019054906101000a900473ffffffffffffffffffffffffffffffffffffffff1673ffffffffffffffffffffffffffffffffffffffff163373ffffffffffffffffffffffffffffffffffffffff16145b61261a576040517f08c379a00000000000000000000000000000000000000000000000000000000081526004018080602001828103825260178152602001807f53656e646572206973206e6f742061206d656d6265722e00000000000000000081525060200191505060405180910390fd5b6003600481111561262757fe5b60008054906101000a900460ff16600481111561264057fe5b14612696576040517f08c379a0000000000000000000000000000000000000000000000000000000008152600401808060200182810382526022815260200180612e176022913960400191505060405180910390fd5b80600360048111156126a457fe5b600682815481106126b157fe5b906000526020600020906005020160030160009054906101000a900460ff1660048111156126db57fe5b14612731576040517f08c379a000000000000000000000000000000000000000000000000000000000815260040180806020018281038252602b815260200180612da9602b913960400191505060405180910390fd5b816006818154811061273f57fe5b9060005260206000209060050201600401544211156127a9576040517f08c379a000000000000000000000000000000000000000000000000000000000815260040180806020018281038252602a815260200180612e6a602a913960400191505060405180910390fd5b6000600684815481106127b857fe5b906000526020600020906005020190508060020160003373ffffffffffffffffffffffffffffffffffffffff1673ffffffffffffffffffffffffffffffffffffffff16815260200190815260200160002060009054906101000a900460ff161561286d576040517f08c379a000000000000000000000000000000000000000000000000000000000815260040180806020018281038252603a815260200180612d40603a913960400191505060405180910390fd5b60018160020160003373ffffffffffffffffffffffffffffffffffffffff1673ffffffffffffffffffffffffffffffffffffffff16815260200190815260200160002060006101000a81548160ff021916908315150217905550806001016000815480929190600101919050555050505050565b6000600360003373ffffffffffffffffffffffffffffffffffffffff1673ffffffffffffffffffffffffffffffffffffffff16815260200190815260200160002054118061297c5750600060019054906101000a900473ffffffffffffffffffffffffffffffffffffffff1673ffffffffffffffffffffffffffffffffffffffff163373ffffffffffffffffffffffffffffffffffffffff16145b6129ee576040517f08c379a00000000000000000000000000000000000000000000000000000000081526004018080602001828103825260178152602001807f53656e646572206973206e6f742061206d656d6265722e00000000000000000081525060200191505060405180910390fd5b600360048111156129fb57fe5b60008054906101000a900460ff166004811115612a1457fe5b14612a6a576040517f08c379a0000000000000000000000000000000000000000000000000000000008152600401808060200182810382526022815260200180612e176022913960400191505060405180910390fd5b8060036004811115612a7857fe5b60068281548110612a8557fe5b906000526020600020906005020160030160009054906101000a900460ff166004811115612aaf57fe5b14612b05576040517f08c379a000000000000000000000000000000000000000000000000000000000815260040180806020018281038252602b815260200180612da9602b913960400191505060405180910390fd5b8160068181548110612b1357fe5b906000526020600020906005020160040154421115612b7d576040517f08c379a000000000000000000000000000000000000000000000000000000000815260040180806020018281038252602a815260200180612e6a602a913960400191505060405180910390fd5b600060068481548110612b8c57fe5b906000526020600020906005020190508060020160003373ffffffffffffffffffffffffffffffffffffffff1673ffffffffffffffffffffffffffffffffffffffff16815260200190815260200160002060009054906101000a900460ff1615612c41576040517f08c379a000000000000000000000000000000000000000000000000000000000815260040180806020018281038252603a815260200180612d40603a913960400191505060405180910390fd5b60018160020160003373ffffffffffffffffffffffffffffffffffffffff1673ffffffffffffffffffffffffffffffffffffffff16815260200190815260200160002060006101000a81548160ff021916908315150217905550806000016000815480929190600101919050555050505050565b6040518060c0016040528060008152602001600073ffffffffffffffffffffffffffffffffffffffff168152602001600081526020016000815260200160006004811115612cff57fe5b8152602001600081525090565b6040518060800160405280600081526020016000815260200160006004811115612d3257fe5b815260200160008152509056fe5468652064657374727563742070726f706f73616c20686173206265656e20616c726561647920766f746564206279207468652073656e6465725468652064657374727563742070726f706f73616c206973207374696c6c206f70656e20666f7220766f74696e672e5468652064657374727563742070726f706f73616c206973206e6f74206c6f6e676572206163746976652e5468652070726f706f73616c20697320636c6f736520666f7220766f74696e672e54686520636f6e747269627574696f6e732061726520696e73756666696369656e745468652063616d706169676e20737461747573206973206e6f74206163746976652e5468652070726f706f73616c20686173206265656e20616c726561647920766f746564206279207468652073656e6465725468652064657374727563742070726f706f73616c20697320636c6f736520666f7220766f74696e672e5468652063616d706169676e20737461747573206973206e6f7420637265617465642e5468652070726f706f73616c206973207374696c6c206f70656e20666f7220766f74696e672e5468652070726f706f73616c206973206e6f74206c6f6e676572206163746976652ea264697066735822122023af9368a967e60d245a6d79197bd63076d5150e7acef538073f65129ea266f864736f6c634300060c0033",
  "immutableReferences": {},
  "source": "pragma solidity ^0.6.0;\n\nimport \"./CrowdfundingCampaign.sol\";\n\ncontract CrowdfundingCampaignDemo is CrowdfundingCampaign {\n\n    /** @dev Constructor.\n     *  @param _minimunContribution minimum contribution in wei that a person has to make to become a member.\n     *  @param _goal goal in wei that the proyect has to reach to be succesfull.\n     *  @param _ipfshash The url hash of the campaign data previusly stored in IPFS.\n    **/\n    constructor(uint _minimunContribution, uint _goal, bytes32 _ipfshash)\n    CrowdfundingCampaign(_minimunContribution, _goal, _ipfshash) public {\n\n    }\n\n\n}",
  "sourcePath": "/home/tati/Desktop/personal/Tesina/semideas-crowdfunding/contracts/CrowdfundingCampaignDemo.sol",
  "compiler": {
    "name": "solc",
    "version": "0.6.12+commit.27d51765.Emscripten.clang"
  },
  "schemaVersion": "3.4.1",
  "updatedAt": "2021-06-27T16:40:37.580Z",
  "networkType": "ethereum",
  "devdoc": {
    "kind": "dev",
    "methods": {
      "approveProposal(uint256)": {
        "details": "Allow only members to approve an active proposal that they haven't voted before.",
        "params": {
          "_index": "index of the proposal the member wants to approve."
        }
      },
      "aproveDestructProposal(uint256)": {
        "details": "Allow only members to approve an active destruct proposal that they haven't voted before.",
        "params": {
          "_index": "index of the destruct proposal the member wants to approve."
        }
      },
      "closeDestructProposal(uint256)": {
        "details": "Allow only members to close an active proposal that already has its voting time over.",
        "params": {
          "_index": "index of the proposal the member wants to approve."
        }
      },
      "closeProposal(uint256)": {
        "details": "Allow only members to close an active proposal that already has its voting time over.",
        "params": {
          "_index": "index of the proposal the member wants to approve."
        }
      },
      "constructor": {
        "details": "Constructor.",
        "params": {
          "_goal": "goal in wei that the proyect has to reach to be succesfull.",
          "_ipfshash": "The url hash of the campaign data previusly stored in IPFS.*",
          "_minimunContribution": "minimum contribution in wei that a person has to make to become a member."
        }
      },
      "contribute()": {
        "details": "Allow not members to contribute with the campaign and be a member of it."
      },
      "createDestructProposal(bytes32)": {
        "details": "Allow only members to create a new proposal to finish de proyect and get the founds back.",
        "params": {
          "_ipfshash": "url hash of the destruct proposal data (description) previusly stored in IPFS."
        }
      },
      "createProposal(uint256,address,bytes32)": {
        "details": "Allow only owner to create a new proposal to get more founds.",
        "params": {
          "_ipfshash": "url hash of the proposal data (description and pictures) previusly stored in IPFS.",
          "_recipient": "address where the founds are going to be after withdraw them.",
          "_value": "founds in wei that the owner want to withdraw."
        }
      },
      "disapproveDestructProposal(uint256)": {
        "details": "Allow only members to disapprove an active destruct proposal that they haven't voted before.",
        "params": {
          "_index": "index of the destruct proposal the member wants to disapprove."
        }
      },
      "disapproveProposal(uint256)": {
        "details": "Allow only members to disapprove an active proposal that they haven't voted before.",
        "params": {
          "_index": "index of the proposal the member wants to disapprove."
        }
      },
      "getCampaignInfo()": {
        "details": "Function to get the data of the campaign"
      },
      "getDestructProposal(uint256)": {
        "details": "Function to get the data of destruct proposal.",
        "params": {
          "_index": "index of the destruct proposal to return"
        }
      },
      "getDestructProposalsCount()": {
        "details": "Function to get the total number of destruct proposals."
      },
      "getProposal(uint256)": {
        "details": "Function to get the data of a proposal.",
        "params": {
          "_index": "index of the proposal to return"
        }
      },
      "getProposalsCount()": {
        "details": "Function to get the total number of proposals."
      },
      "getStatus()": {
        "details": "Function to get the actual status of the campaign."
      },
      "isMember(address)": {
        "details": "Function to return if someone is member."
      },
      "saveProgressUpdate(bytes32)": {
        "details": "Allow only owner to save a new progress Update data ipfs hash.",
        "params": {
          "_ipfshash": "url hash of the progress update data (description and pictures) previusly stored in IPFS."
        }
      },
      "setActive()": {
        "details": "Allow only owner to change the status of the cCampaign from CREATED to ACTIVE."
      }
    },
    "version": 1
  },
  "userdoc": {
    "kind": "user",
    "methods": {},
    "version": 1
  }
}