{
  "contractName": "CrowdfundingCampaignDemo",
  "abi": [
    {
      "inputs": [
        {
          "internalType": "uint256",
          "name": "_minimunContribution",
          "type": "uint256"
        },
        {
          "internalType": "uint256",
          "name": "_goal",
          "type": "uint256"
        },
        {
          "internalType": "bytes32",
          "name": "_ipfshash",
          "type": "bytes32"
        }
      ],
      "stateMutability": "nonpayable",
      "type": "constructor"
    },
    {
      "anonymous": false,
      "inputs": [
        {
          "indexed": false,
          "internalType": "bytes32",
          "name": "_ipfshash",
          "type": "bytes32"
        }
      ],
      "name": "CampaignCreated",
      "type": "event"
    },
    {
      "anonymous": false,
      "inputs": [],
      "name": "ChangeStatusCampaign",
      "type": "event"
    },
    {
      "anonymous": false,
      "inputs": [
        {
          "indexed": false,
          "internalType": "uint256",
          "name": "_index",
          "type": "uint256"
        }
      ],
      "name": "DestructProposalClosed",
      "type": "event"
    },
    {
      "anonymous": false,
      "inputs": [
        {
          "indexed": false,
          "internalType": "bytes32",
          "name": "_ipfshash",
          "type": "bytes32"
        }
      ],
      "name": "DestructProposalCreated",
      "type": "event"
    },
    {
      "anonymous": false,
      "inputs": [
        {
          "indexed": false,
          "internalType": "uint256",
          "name": "_index",
          "type": "uint256"
        }
      ],
      "name": "DestructProposalVoted",
      "type": "event"
    },
    {
      "anonymous": false,
      "inputs": [],
      "name": "NewContribution",
      "type": "event"
    },
    {
      "anonymous": false,
      "inputs": [
        {
          "indexed": false,
          "internalType": "bytes32",
          "name": "_ipfshash",
          "type": "bytes32"
        }
      ],
      "name": "ProgressUpdate",
      "type": "event"
    },
    {
      "anonymous": false,
      "inputs": [
        {
          "indexed": false,
          "internalType": "uint256",
          "name": "_index",
          "type": "uint256"
        }
      ],
      "name": "ProposalClosed",
      "type": "event"
    },
    {
      "anonymous": false,
      "inputs": [
        {
          "indexed": false,
          "internalType": "bytes32",
          "name": "_ipfshash",
          "type": "bytes32"
        }
      ],
      "name": "ProposalCreated",
      "type": "event"
    },
    {
      "anonymous": false,
      "inputs": [
        {
          "indexed": false,
          "internalType": "uint256",
          "name": "_index",
          "type": "uint256"
        }
      ],
      "name": "ProposalRelease",
      "type": "event"
    },
    {
      "anonymous": false,
      "inputs": [
        {
          "indexed": false,
          "internalType": "uint256",
          "name": "_index",
          "type": "uint256"
        }
      ],
      "name": "ProposalVoted",
      "type": "event"
    },
    {
      "anonymous": false,
      "inputs": [
        {
          "indexed": false,
          "internalType": "address",
          "name": "_member",
          "type": "address"
        },
        {
          "indexed": false,
          "internalType": "uint256",
          "name": "contribution",
          "type": "uint256"
        },
        {
          "indexed": false,
          "internalType": "uint256",
          "name": "goal",
          "type": "uint256"
        },
        {
          "indexed": false,
          "internalType": "uint256",
          "name": "payment",
          "type": "uint256"
        },
        {
          "indexed": false,
          "internalType": "uint256",
          "name": "founds",
          "type": "uint256"
        }
      ],
      "name": "withdrawFounds",
      "type": "event"
    },
    {
      "inputs": [
        {
          "internalType": "uint256",
          "name": "_index",
          "type": "uint256"
        }
      ],
      "name": "approveProposal",
      "outputs": [],
      "stateMutability": "nonpayable",
      "type": "function"
    },
    {
      "inputs": [
        {
          "internalType": "uint256",
          "name": "_index",
          "type": "uint256"
        }
      ],
      "name": "aproveDestructProposal",
      "outputs": [],
      "stateMutability": "nonpayable",
      "type": "function"
    },
    {
      "inputs": [
        {
          "internalType": "uint256",
          "name": "_index",
          "type": "uint256"
        }
      ],
      "name": "closeDestructProposal",
      "outputs": [],
      "stateMutability": "nonpayable",
      "type": "function"
    },
    {
      "inputs": [
        {
          "internalType": "uint256",
          "name": "_index",
          "type": "uint256"
        }
      ],
      "name": "closeProposal",
      "outputs": [],
      "stateMutability": "nonpayable",
      "type": "function"
    },
    {
      "inputs": [],
      "name": "contribute",
      "outputs": [],
      "stateMutability": "payable",
      "type": "function"
    },
    {
      "inputs": [
        {
          "internalType": "address",
          "name": "",
          "type": "address"
        }
      ],
      "name": "contributions",
      "outputs": [
        {
          "internalType": "uint256",
          "name": "",
          "type": "uint256"
        }
      ],
      "stateMutability": "view",
      "type": "function"
    },
    {
      "inputs": [
        {
          "internalType": "bytes32",
          "name": "_ipfshash",
          "type": "bytes32"
        }
      ],
      "name": "createDestructProposal",
      "outputs": [],
      "stateMutability": "nonpayable",
      "type": "function"
    },
    {
      "inputs": [
        {
          "internalType": "uint256",
          "name": "_value",
          "type": "uint256"
        },
        {
          "internalType": "address",
          "name": "_recipient",
          "type": "address"
        },
        {
          "internalType": "bytes32",
          "name": "_ipfshash",
          "type": "bytes32"
        }
      ],
      "name": "createProposal",
      "outputs": [],
      "stateMutability": "nonpayable",
      "type": "function"
    },
    {
      "inputs": [
        {
          "internalType": "uint256",
          "name": "",
          "type": "uint256"
        }
      ],
      "name": "destructProposals",
      "outputs": [
        {
          "internalType": "uint256",
          "name": "approvalsCount",
          "type": "uint256"
        },
        {
          "internalType": "uint256",
          "name": "disapprovalsCount",
          "type": "uint256"
        },
        {
          "internalType": "enum CrowdfundingCampaign.ProposalStatus",
          "name": "status",
          "type": "uint8"
        },
        {
          "internalType": "uint256",
          "name": "limitTime",
          "type": "uint256"
        },
        {
          "internalType": "address",
          "name": "author",
          "type": "address"
        }
      ],
      "stateMutability": "view",
      "type": "function"
    },
    {
      "inputs": [
        {
          "internalType": "uint256",
          "name": "_index",
          "type": "uint256"
        }
      ],
      "name": "disapproveDestructProposal",
      "outputs": [],
      "stateMutability": "nonpayable",
      "type": "function"
    },
    {
      "inputs": [
        {
          "internalType": "uint256",
          "name": "_index",
          "type": "uint256"
        }
      ],
      "name": "disapproveProposal",
      "outputs": [],
      "stateMutability": "nonpayable",
      "type": "function"
    },
    {
      "inputs": [],
      "name": "finalContributions",
      "outputs": [
        {
          "internalType": "uint256",
          "name": "",
          "type": "uint256"
        }
      ],
      "stateMutability": "view",
      "type": "function"
    },
    {
      "inputs": [],
      "name": "getCampaignInfo",
      "outputs": [
        {
          "internalType": "address",
          "name": "",
          "type": "address"
        },
        {
          "internalType": "enum CrowdfundingCampaign.CampaignStatus",
          "name": "",
          "type": "uint8"
        },
        {
          "internalType": "uint256",
          "name": "",
          "type": "uint256"
        },
        {
          "internalType": "uint256",
          "name": "",
          "type": "uint256"
        },
        {
          "internalType": "uint256",
          "name": "",
          "type": "uint256"
        },
        {
          "internalType": "uint256",
          "name": "",
          "type": "uint256"
        },
        {
          "internalType": "uint256",
          "name": "",
          "type": "uint256"
        }
      ],
      "stateMutability": "view",
      "type": "function"
    },
    {
      "inputs": [
        {
          "internalType": "uint256",
          "name": "_index",
          "type": "uint256"
        }
      ],
      "name": "getDestructProposal",
      "outputs": [
        {
          "internalType": "uint256",
          "name": "",
          "type": "uint256"
        },
        {
          "internalType": "uint256",
          "name": "",
          "type": "uint256"
        },
        {
          "internalType": "enum CrowdfundingCampaign.ProposalStatus",
          "name": "",
          "type": "uint8"
        },
        {
          "internalType": "uint256",
          "name": "",
          "type": "uint256"
        },
        {
          "internalType": "bool",
          "name": "",
          "type": "bool"
        },
        {
          "internalType": "bool",
          "name": "",
          "type": "bool"
        },
        {
          "internalType": "address",
          "name": "",
          "type": "address"
        }
      ],
      "stateMutability": "view",
      "type": "function"
    },
    {
      "inputs": [],
      "name": "getDestructProposalsCount",
      "outputs": [
        {
          "internalType": "uint256",
          "name": "",
          "type": "uint256"
        }
      ],
      "stateMutability": "view",
      "type": "function"
    },
    {
      "inputs": [],
      "name": "getFinalContributions",
      "outputs": [
        {
          "internalType": "uint256",
          "name": "",
          "type": "uint256"
        }
      ],
      "stateMutability": "view",
      "type": "function"
    },
    {
      "inputs": [
        {
          "internalType": "uint256",
          "name": "_index",
          "type": "uint256"
        }
      ],
      "name": "getProposal",
      "outputs": [
        {
          "internalType": "address",
          "name": "",
          "type": "address"
        },
        {
          "internalType": "uint256",
          "name": "",
          "type": "uint256"
        },
        {
          "internalType": "uint256",
          "name": "",
          "type": "uint256"
        },
        {
          "internalType": "uint256",
          "name": "",
          "type": "uint256"
        },
        {
          "internalType": "enum CrowdfundingCampaign.ProposalStatus",
          "name": "",
          "type": "uint8"
        },
        {
          "internalType": "uint256",
          "name": "",
          "type": "uint256"
        },
        {
          "internalType": "bool",
          "name": "",
          "type": "bool"
        },
        {
          "internalType": "bool",
          "name": "",
          "type": "bool"
        }
      ],
      "stateMutability": "view",
      "type": "function"
    },
    {
      "inputs": [],
      "name": "getProposalsCount",
      "outputs": [
        {
          "internalType": "uint256",
          "name": "",
          "type": "uint256"
        }
      ],
      "stateMutability": "view",
      "type": "function"
    },
    {
      "inputs": [],
      "name": "getRemainingContributions",
      "outputs": [
        {
          "internalType": "uint256",
          "name": "",
          "type": "uint256"
        }
      ],
      "stateMutability": "view",
      "type": "function"
    },
    {
      "inputs": [],
      "name": "getStatus",
      "outputs": [
        {
          "internalType": "enum CrowdfundingCampaign.CampaignStatus",
          "name": "",
          "type": "uint8"
        }
      ],
      "stateMutability": "view",
      "type": "function"
    },
    {
      "inputs": [],
      "name": "goal",
      "outputs": [
        {
          "internalType": "uint256",
          "name": "",
          "type": "uint256"
        }
      ],
      "stateMutability": "view",
      "type": "function"
    },
    {
      "inputs": [
        {
          "internalType": "uint256",
          "name": "_index",
          "type": "uint256"
        }
      ],
      "name": "hasVotedDestructProposal",
      "outputs": [
        {
          "internalType": "bool",
          "name": "",
          "type": "bool"
        }
      ],
      "stateMutability": "view",
      "type": "function"
    },
    {
      "inputs": [
        {
          "internalType": "uint256",
          "name": "_index",
          "type": "uint256"
        }
      ],
      "name": "hasVotedProposal",
      "outputs": [
        {
          "internalType": "bool",
          "name": "",
          "type": "bool"
        }
      ],
      "stateMutability": "view",
      "type": "function"
    },
    {
      "inputs": [
        {
          "internalType": "address",
          "name": "_address",
          "type": "address"
        }
      ],
      "name": "isMember",
      "outputs": [
        {
          "internalType": "bool",
          "name": "",
          "type": "bool"
        }
      ],
      "stateMutability": "view",
      "type": "function"
    },
    {
      "inputs": [],
      "name": "membersCount",
      "outputs": [
        {
          "internalType": "uint256",
          "name": "",
          "type": "uint256"
        }
      ],
      "stateMutability": "view",
      "type": "function"
    },
    {
      "inputs": [],
      "name": "minimunContribution",
      "outputs": [
        {
          "internalType": "uint256",
          "name": "",
          "type": "uint256"
        }
      ],
      "stateMutability": "view",
      "type": "function"
    },
    {
      "inputs": [],
      "name": "owner",
      "outputs": [
        {
          "internalType": "address",
          "name": "",
          "type": "address"
        }
      ],
      "stateMutability": "view",
      "type": "function"
    },
    {
      "inputs": [
        {
          "internalType": "uint256",
          "name": "",
          "type": "uint256"
        }
      ],
      "name": "proposals",
      "outputs": [
        {
          "internalType": "uint256",
          "name": "value",
          "type": "uint256"
        },
        {
          "internalType": "address",
          "name": "recipient",
          "type": "address"
        },
        {
          "internalType": "uint256",
          "name": "approvalsCount",
          "type": "uint256"
        },
        {
          "internalType": "uint256",
          "name": "disapprovalsCount",
          "type": "uint256"
        },
        {
          "internalType": "enum CrowdfundingCampaign.ProposalStatus",
          "name": "status",
          "type": "uint8"
        },
        {
          "internalType": "uint256",
          "name": "limitTime",
          "type": "uint256"
        }
      ],
      "stateMutability": "view",
      "type": "function"
    },
    {
      "inputs": [
        {
          "internalType": "uint256",
          "name": "_index",
          "type": "uint256"
        }
      ],
      "name": "release",
      "outputs": [],
      "stateMutability": "nonpayable",
      "type": "function"
    },
    {
      "inputs": [],
      "name": "remainingContributions",
      "outputs": [
        {
          "internalType": "uint256",
          "name": "",
          "type": "uint256"
        }
      ],
      "stateMutability": "view",
      "type": "function"
    },
    {
      "inputs": [
        {
          "internalType": "bytes32",
          "name": "_ipfshash",
          "type": "bytes32"
        }
      ],
      "name": "saveProgressUpdate",
      "outputs": [],
      "stateMutability": "nonpayable",
      "type": "function"
    },
    {
      "inputs": [],
      "name": "setActive",
      "outputs": [],
      "stateMutability": "nonpayable",
      "type": "function"
    },
    {
      "inputs": [],
      "name": "status",
      "outputs": [
        {
          "internalType": "enum CrowdfundingCampaign.CampaignStatus",
          "name": "",
          "type": "uint8"
        }
      ],
      "stateMutability": "view",
      "type": "function"
    },
    {
      "inputs": [],
      "name": "withdraw",
      "outputs": [],
      "stateMutability": "nonpayable",
      "type": "function"
    },
    {
      "inputs": [
        {
          "internalType": "address",
          "name": "",
          "type": "address"
        }
      ],
      "name": "withdraws",
      "outputs": [
        {
          "internalType": "bool",
          "name": "",
          "type": "bool"
        }
      ],
      "stateMutability": "view",
      "type": "function"
    },
    {
      "inputs": [
        {
          "internalType": "uint256",
          "name": "_index",
          "type": "uint256"
        }
      ],
      "name": "changeLimitProposal",
      "outputs": [],
      "stateMutability": "nonpayable",
      "type": "function"
    },
    {
      "inputs": [
        {
          "internalType": "uint256",
          "name": "_index",
          "type": "uint256"
        }
      ],
      "name": "changeLimitDestructProposal",
      "outputs": [],
      "stateMutability": "nonpayable",
      "type": "function"
    }
  ],
  "bytecode": "0x60806040523480156200001157600080fd5b5060405162004ad138038062004ad1833981810160405281019062000037919062000131565b82828233600060016101000a81548173ffffffffffffffffffffffffffffffffffffffff021916908373ffffffffffffffffffffffffffffffffffffffff160217905550816001819055508260028190555060008060006101000a81548160ff02191690836003811115620000b157620000b0620001cf565b5b021790555060006003819055507f0f627713f9c831a1b079924dedde3308e90d22b754bdd481f9b2165aa0f9dfb981604051620000ef91906200019e565b60405180910390a150505050505062000237565b600081519050620001148162000203565b92915050565b6000815190506200012b816200021d565b92915050565b6000806000606084860312156200014d576200014c620001fe565b5b60006200015d868287016200011a565b935050602062000170868287016200011a565b9250506040620001838682870162000103565b9150509250925092565b6200019881620001bb565b82525050565b6000602082019050620001b560008301846200018d565b92915050565b6000819050919050565b6000819050919050565b7f4e487b7100000000000000000000000000000000000000000000000000000000600052602160045260246000fd5b600080fd5b6200020e81620001bb565b81146200021a57600080fd5b50565b6200022881620001c5565b81146200023457600080fd5b50565b61488a80620002476000396000f3fe60806040526004361061021a5760003560e01c80638da5cb5b11610123578063c8541fe0116100ab578063e966670a1161006f578063e966670a146107b6578063edbd0db8146107f9578063eeda051814610824578063ef978ecb14610861578063f049a60c1461088a5761021a565b8063c8541fe0146106ea578063d6290cd714610713578063d7bb99ba14610744578063d853ba731461074e578063e5069726146107795761021a565b8063a230c524116100f2578063a230c524146105d4578063a7f3371514610611578063b1a6f6a91461063c578063b8f02ae11461067d578063c7f758a8146106a65761021a565b80638da5cb5b1461052c578063923a64fb1461055757806398951b561461058057806398e527d3146105a95761021a565b80633b047a8f116101a657806348179ee51161017557806348179ee5146104595780634e69d560146104965780634f92c925146104c157806351c36c1e146104ec578063760a8c2a146105155761021a565b80633b047a8f146103b15780633ccfd60b146103da57806340193883146103f157806342e94c901461041c5761021a565b8063200d2ed2116101ed578063200d2ed2146102e0578063297f9af01461030b57806337bdc99b14610336578063381707181461035f5780633912fbe5146103885761021a565b80630126f61e1461021f578063013cf08b1461024a5780630386a0161461028c5780631ec0b7ba146102b5575b600080fd5b34801561022b57600080fd5b506102346108b3565b6040516102419190613e6c565b60405180910390f35b34801561025657600080fd5b50610271600480360381019061026c9190613667565b6108b9565b60405161028396959493929190613e87565b60405180910390f35b34801561029857600080fd5b506102b360048036038101906102ae9190613667565b610932565b005b3480156102c157600080fd5b506102ca610c55565b6040516102d79190613e6c565b60405180910390f35b3480156102ec57600080fd5b506102f5610c62565b6040516103029190613bb1565b60405180910390f35b34801561031757600080fd5b50610320610c73565b60405161032d9190613e6c565b60405180910390f35b34801561034257600080fd5b5061035d60048036038101906103589190613667565b610c79565b005b34801561036b57600080fd5b5061038660048036038101906103819190613667565b610f15565b005b34801561039457600080fd5b506103af60048036038101906103aa9190613667565b610f5a565b005b3480156103bd57600080fd5b506103d860048036038101906103d3919061363a565b611384565b005b3480156103e657600080fd5b506103ef6114c2565b005b3480156103fd57600080fd5b5061040661192d565b6040516104139190613e6c565b60405180910390f35b34801561042857600080fd5b50610443600480360381019061043e919061360d565b611933565b6040516104509190613e6c565b60405180910390f35b34801561046557600080fd5b50610480600480360381019061047b919061360d565b61194b565b60405161048d9190613b7b565b60405180910390f35b3480156104a257600080fd5b506104ab61196b565b6040516104b89190613bb1565b60405180910390f35b3480156104cd57600080fd5b506104d6611981565b6040516104e39190613e6c565b60405180910390f35b3480156104f857600080fd5b50610513600480360381019061050e9190613694565b61198b565b005b34801561052157600080fd5b5061052a611bd7565b005b34801561053857600080fd5b50610541611d7f565b60405161054e9190613a20565b60405180910390f35b34801561056357600080fd5b5061057e6004803603810190610579919061363a565b611da5565b005b34801561058c57600080fd5b506105a760048036038101906105a29190613667565b612061565b005b3480156105b557600080fd5b506105be612418565b6040516105cb9190613e6c565b60405180910390f35b3480156105e057600080fd5b506105fb60048036038101906105f6919061360d565b612425565b6040516106089190613b7b565b60405180910390f35b34801561061d57600080fd5b50610626612470565b6040516106339190613e6c565b60405180910390f35b34801561064857600080fd5b50610663600480360381019061065e9190613667565b612476565b604051610674959493929190613ee8565b60405180910390f35b34801561068957600080fd5b506106a4600480360381019061069f9190613667565b6124e9565b005b3480156106b257600080fd5b506106cd60048036038101906106c89190613667565b61252e565b6040516106e1989796959493929190613aaa565b60405180910390f35b3480156106f657600080fd5b50610711600480360381019061070c9190613667565b61262a565b005b34801561071f57600080fd5b506107286129e1565b60405161073b9796959493929190613a3b565b60405180910390f35b61074c612a42565b005b34801561075a57600080fd5b50610763612c61565b6040516107709190613e6c565b60405180910390f35b34801561078557600080fd5b506107a0600480360381019061079b9190613667565b612c67565b6040516107ad9190613b7b565b60405180910390f35b3480156107c257600080fd5b506107dd60048036038101906107d89190613667565b612ce5565b6040516107f09796959493929190613f3b565b60405180910390f35b34801561080557600080fd5b5061080e612dd8565b60405161081b9190613e6c565b60405180910390f35b34801561083057600080fd5b5061084b60048036038101906108469190613667565b612de2565b6040516108589190613b7b565b60405180910390f35b34801561086d57600080fd5b5061088860048036038101906108839190613667565b612e60565b005b34801561089657600080fd5b506108b160048036038101906108ac9190613667565b613217565b005b60045481565b600881815481106108c957600080fd5b90600052602060002090600702016000915090508060000154908060010160009054906101000a900473ffffffffffffffffffffffffffffffffffffffff16908060020154908060030154908060050160009054906101000a900460ff16908060060154905086565b6000600660003373ffffffffffffffffffffffffffffffffffffffff1673ffffffffffffffffffffffffffffffffffffffff1681526020019081526020016000205411806109cd5750600060019054906101000a900473ffffffffffffffffffffffffffffffffffffffff1673ffffffffffffffffffffffffffffffffffffffff163373ffffffffffffffffffffffffffffffffffffffff16145b610a0c576040517f08c379a0000000000000000000000000000000000000000000000000000000008152600401610a0390613bec565b60405180910390fd5b60016003811115610a2057610a1f614213565b5b60008054906101000a900460ff166003811115610a4057610a3f614213565b5b14610a80576040517f08c379a0000000000000000000000000000000000000000000000000000000008152600401610a7790613d6c565b60405180910390fd5b8060006003811115610a9557610a94614213565b5b60088281548110610aa957610aa8614242565b5b906000526020600020906007020160050160009054906101000a900460ff166003811115610ada57610ad9614213565b5b14610b1a576040517f08c379a0000000000000000000000000000000000000000000000000000000008152600401610b1190613e4c565b60405180910390fd5b8160088181548110610b2f57610b2e614242565b5b9060005260206000209060070201600601544211610b82576040517f08c379a0000000000000000000000000000000000000000000000000000000008152600401610b7990613e2c565b60405180910390fd5b600060088481548110610b9857610b97614242565b5b90600052602060002090600702019050806003015481600201541115610bea5760018160050160006101000a81548160ff02191690836003811115610be057610bdf614213565b5b0217905550610c18565b60028160050160006101000a81548160ff02191690836003811115610c1257610c11614213565b5b02179055505b7f887777ccf43690541bed9e00b10d0fccfa7520b11875f09847a57b3085d8ab9284604051610c479190613e6c565b60405180910390a150505050565b6000600980549050905090565b60008054906101000a900460ff1681565b60035481565b600060019054906101000a900473ffffffffffffffffffffffffffffffffffffffff1673ffffffffffffffffffffffffffffffffffffffff163373ffffffffffffffffffffffffffffffffffffffff1614610d09576040517f08c379a0000000000000000000000000000000000000000000000000000000008152600401610d0090613cac565b60405180910390fd5b60016003811115610d1d57610d1c614213565b5b60008054906101000a900460ff166003811115610d3d57610d3c614213565b5b14610d7d576040517f08c379a0000000000000000000000000000000000000000000000000000000008152600401610d7490613d6c565b60405180910390fd5b8060016003811115610d9257610d91614213565b5b60088281548110610da657610da5614242565b5b906000526020600020906007020160050160009054906101000a900460ff166003811115610dd757610dd6614213565b5b14610e17576040517f08c379a0000000000000000000000000000000000000000000000000000000008152600401610e0e90613d2c565b60405180910390fd5b600060088381548110610e2d57610e2c614242565b5b9060005260206000209060070201905060038160050160006101000a81548160ff02191690836003811115610e6557610e64614213565b5b02179055508060010160009054906101000a900473ffffffffffffffffffffffffffffffffffffffff1673ffffffffffffffffffffffffffffffffffffffff166108fc82600001549081150290604051600060405180830381858888f19350505050158015610ed8573d6000803e3d6000fd5b507fe02fec677757e427d1b6e49fcaf5bb9a6dd94e9fed2a2cc3c764c95deceff5b783604051610f089190613e6c565b60405180910390a1505050565b600060098281548110610f2b57610f2a614242565b5b9060005260206000209060060201905062093a808160040154610f4e919061409c565b81600401819055505050565b6000600660003373ffffffffffffffffffffffffffffffffffffffff1673ffffffffffffffffffffffffffffffffffffffff168152602001908152602001600020541180610ff55750600060019054906101000a900473ffffffffffffffffffffffffffffffffffffffff1673ffffffffffffffffffffffffffffffffffffffff163373ffffffffffffffffffffffffffffffffffffffff16145b611034576040517f08c379a000000000000000000000000000000000000000000000000000000000815260040161102b90613bec565b60405180910390fd5b6001600381111561104857611047614213565b5b60008054906101000a900460ff16600381111561106857611067614213565b5b146110a8576040517f08c379a000000000000000000000000000000000000000000000000000000000815260040161109f90613d6c565b60405180910390fd5b80600060038111156110bd576110bc614213565b5b600982815481106110d1576110d0614242565b5b906000526020600020906006020160030160009054906101000a900460ff16600381111561110257611101614213565b5b14611142576040517f08c379a000000000000000000000000000000000000000000000000000000000815260040161113990613c8c565b60405180910390fd5b816009818154811061115757611156614242565b5b90600052602060002090600602016004015442116111aa576040517f08c379a00000000000000000000000000000000000000000000000000000000081526004016111a190613c4c565b60405180910390fd5b6000600984815481106111c0576111bf614242565b5b906000526020600020906006020190508060010154816000015411156112ed57600060019054906101000a900473ffffffffffffffffffffffffffffffffffffffff1673ffffffffffffffffffffffffffffffffffffffff168160050160009054906101000a900473ffffffffffffffffffffffffffffffffffffffff1673ffffffffffffffffffffffffffffffffffffffff1614156112895760036000806101000a81548160ff0219169083600381111561127f5761127e614213565b5b02179055506112b4565b60026000806101000a81548160ff021916908360038111156112ae576112ad614213565b5b02179055505b60018160030160006101000a81548160ff021916908360038111156112dc576112db614213565b5b02179055504760058190555061131b565b60028160030160006101000a81548160ff0219169083600381111561131557611314614213565b5b02179055505b7f9d503d9b21cff0a224a831dabbf5fd2856219a4555ba61c71bd702a02dd717d68460405161134a9190613e6c565b60405180910390a17fe283e942d53c4322165eacc7a597c86cdbc698c96321f57a82b29c615810a69560405160405180910390a150505050565b600060019054906101000a900473ffffffffffffffffffffffffffffffffffffffff1673ffffffffffffffffffffffffffffffffffffffff163373ffffffffffffffffffffffffffffffffffffffff1614611414576040517f08c379a000000000000000000000000000000000000000000000000000000000815260040161140b90613cac565b60405180910390fd5b6001600381111561142857611427614213565b5b60008054906101000a900460ff16600381111561144857611447614213565b5b14611488576040517f08c379a000000000000000000000000000000000000000000000000000000000815260040161147f90613d6c565b60405180910390fd5b7f2f8af70d91e96a23b8111e37a9117f7cfe341f51c17759c36475a1a7698f0dc3816040516114b79190613b96565b60405180910390a150565b6000600660003373ffffffffffffffffffffffffffffffffffffffff1673ffffffffffffffffffffffffffffffffffffffff16815260200190815260200160002054118061155d5750600060019054906101000a900473ffffffffffffffffffffffffffffffffffffffff1673ffffffffffffffffffffffffffffffffffffffff163373ffffffffffffffffffffffffffffffffffffffff16145b61159c576040517f08c379a000000000000000000000000000000000000000000000000000000000815260040161159390613bec565b60405180910390fd5b6003808111156115af576115ae614213565b5b60008054906101000a900460ff1660038111156115cf576115ce614213565b5b148061160c5750600260038111156115ea576115e9614213565b5b60008054906101000a900460ff16600381111561160a57611609614213565b5b145b61164b576040517f08c379a000000000000000000000000000000000000000000000000000000000815260040161164290613dac565b60405180910390fd5b600060019054906101000a900473ffffffffffffffffffffffffffffffffffffffff1673ffffffffffffffffffffffffffffffffffffffff163373ffffffffffffffffffffffffffffffffffffffff1614156116dc576040517f08c379a00000000000000000000000000000000000000000000000000000000081526004016116d390613c6c565b60405180910390fd5b600760003373ffffffffffffffffffffffffffffffffffffffff1673ffffffffffffffffffffffffffffffffffffffff16815260200190815260200160002060009054906101000a900460ff1615611769576040517f08c379a000000000000000000000000000000000000000000000000000000000815260040161176090613dcc565b60405180910390fd5b6000600454600554600660003373ffffffffffffffffffffffffffffffffffffffff1673ffffffffffffffffffffffffffffffffffffffff168152602001908152602001600020546117bb9190614042565b6117c59190614011565b9050478110611809576040517f08c379a000000000000000000000000000000000000000000000000000000000815260040161180090613d0c565b60405180910390fd5b3373ffffffffffffffffffffffffffffffffffffffff166108fc829081150290604051600060405180830381858888f1935050505015801561184f573d6000803e3d6000fd5b506001600760003373ffffffffffffffffffffffffffffffffffffffff1673ffffffffffffffffffffffffffffffffffffffff16815260200190815260200160002060006101000a81548160ff0219169083151502179055507fa4e42298552baa3282225c552bba5a22b3034cdc0e531fe987c8003a44d95e2933600660003373ffffffffffffffffffffffffffffffffffffffff1673ffffffffffffffffffffffffffffffffffffffff1681526020019081526020016000205460045484600554604051611922959493929190613b28565b60405180910390a150565b60015481565b60066020528060005260406000206000915090505481565b60076020528060005260406000206000915054906101000a900460ff1681565b60008060009054906101000a900460ff16905090565b6000600554905090565b600060019054906101000a900473ffffffffffffffffffffffffffffffffffffffff1673ffffffffffffffffffffffffffffffffffffffff163373ffffffffffffffffffffffffffffffffffffffff1614611a1b576040517f08c379a0000000000000000000000000000000000000000000000000000000008152600401611a1290613cac565b60405180910390fd5b60016003811115611a2f57611a2e614213565b5b60008054906101000a900460ff166003811115611a4f57611a4e614213565b5b14611a8f576040517f08c379a0000000000000000000000000000000000000000000000000000000008152600401611a8690613d6c565b60405180910390fd5b82471015611ad2576040517f08c379a0000000000000000000000000000000000000000000000000000000008152600401611ac990613cec565b60405180910390fd5b600060086001816001815401808255809150500390600052602060002090600702019050828160010160006101000a81548173ffffffffffffffffffffffffffffffffffffffff021916908373ffffffffffffffffffffffffffffffffffffffff160217905550838160000181905550600081600201819055506000816003018190555060008160050160006101000a81548160ff02191690836003811115611b7e57611b7d614213565b5b021790555062093a8042611b929190613fbb565b81600601819055507f288a29bca04edb18fcdb2c76d6e3b03b8a137c85c70d1a4cb8aacfa868d6051082604051611bc99190613b96565b60405180910390a150505050565b600060019054906101000a900473ffffffffffffffffffffffffffffffffffffffff1673ffffffffffffffffffffffffffffffffffffffff163373ffffffffffffffffffffffffffffffffffffffff1614611c67576040517f08c379a0000000000000000000000000000000000000000000000000000000008152600401611c5e90613cac565b60405180910390fd5b60006003811115611c7b57611c7a614213565b5b60008054906101000a900460ff166003811115611c9b57611c9a614213565b5b14611cdb576040517f08c379a0000000000000000000000000000000000000000000000000000000008152600401611cd290613e0c565b60405180910390fd5b600154471015611d20576040517f08c379a0000000000000000000000000000000000000000000000000000000008152600401611d1790613d4c565b60405180910390fd5b60016000806101000a81548160ff02191690836003811115611d4557611d44614213565b5b0217905550476004819055507fe283e942d53c4322165eacc7a597c86cdbc698c96321f57a82b29c615810a69560405160405180910390a1565b600060019054906101000a900473ffffffffffffffffffffffffffffffffffffffff1681565b6000600660003373ffffffffffffffffffffffffffffffffffffffff1673ffffffffffffffffffffffffffffffffffffffff168152602001908152602001600020541180611e405750600060019054906101000a900473ffffffffffffffffffffffffffffffffffffffff1673ffffffffffffffffffffffffffffffffffffffff163373ffffffffffffffffffffffffffffffffffffffff16145b611e7f576040517f08c379a0000000000000000000000000000000000000000000000000000000008152600401611e7690613bec565b60405180910390fd5b60016003811115611e9357611e92614213565b5b60008054906101000a900460ff166003811115611eb357611eb2614213565b5b14611ef3576040517f08c379a0000000000000000000000000000000000000000000000000000000008152600401611eea90613d6c565b60405180910390fd5b600060096001816001815401808255809150500390600052602060002090600602019050600081600001819055506000816001018190555060008160030160006101000a81548160ff02191690836003811115611f5357611f52614213565b5b021790555062093a8042611f679190613fbb565b8160040181905550338160050160006101000a81548173ffffffffffffffffffffffffffffffffffffffff021916908373ffffffffffffffffffffffffffffffffffffffff16021790555060018160020160003373ffffffffffffffffffffffffffffffffffffffff1673ffffffffffffffffffffffffffffffffffffffff16815260200190815260200160002060006101000a81548160ff0219169083151502179055508060000160008154809291906120219061416c565b91905055507ff58a42dcfacfd41fd5d3681beb4755c6023d9bd2d5c1ae46e8866ece6463cee7826040516120559190613b96565b60405180910390a15050565b6000600660003373ffffffffffffffffffffffffffffffffffffffff1673ffffffffffffffffffffffffffffffffffffffff1681526020019081526020016000205411806120fc5750600060019054906101000a900473ffffffffffffffffffffffffffffffffffffffff1673ffffffffffffffffffffffffffffffffffffffff163373ffffffffffffffffffffffffffffffffffffffff16145b61213b576040517f08c379a000000000000000000000000000000000000000000000000000000000815260040161213290613bec565b60405180910390fd5b6001600381111561214f5761214e614213565b5b60008054906101000a900460ff16600381111561216f5761216e614213565b5b146121af576040517f08c379a00000000000000000000000000000000000000000000000000000000081526004016121a690613d6c565b60405180910390fd5b80600060038111156121c4576121c3614213565b5b600882815481106121d8576121d7614242565b5b906000526020600020906007020160050160009054906101000a900460ff16600381111561220957612208614213565b5b14612249576040517f08c379a000000000000000000000000000000000000000000000000000000000815260040161224090613e4c565b60405180910390fd5b816008818154811061225e5761225d614242565b5b9060005260206000209060070201600601544211156122b2576040517f08c379a00000000000000000000000000000000000000000000000000000000081526004016122a990613ccc565b60405180910390fd5b6000600884815481106122c8576122c7614242565b5b906000526020600020906007020190508060040160003373ffffffffffffffffffffffffffffffffffffffff1673ffffffffffffffffffffffffffffffffffffffff16815260200190815260200160002060009054906101000a900460ff1615612367576040517f08c379a000000000000000000000000000000000000000000000000000000000815260040161235e90613d8c565b60405180910390fd5b60018160040160003373ffffffffffffffffffffffffffffffffffffffff1673ffffffffffffffffffffffffffffffffffffffff16815260200190815260200160002060006101000a81548160ff0219169083151502179055508060020160008154809291906123d69061416c565b91905055507f26b645fdecdf266f3abc5b7ae3e796ffd297febba8bd3a8ad49c68435190fc698460405161240a9190613e6c565b60405180910390a150505050565b6000600880549050905090565b600080600660008473ffffffffffffffffffffffffffffffffffffffff1673ffffffffffffffffffffffffffffffffffffffff16815260200190815260200160002054119050919050565b60025481565b6009818154811061248657600080fd5b90600052602060002090600602016000915090508060000154908060010154908060030160009054906101000a900460ff16908060040154908060050160009054906101000a900473ffffffffffffffffffffffffffffffffffffffff16905085565b6000600882815481106124ff576124fe614242565b5b9060005260206000209060070201905062093a808160060154612522919061409c565b81600601819055505050565b600080600080600080600080600060088a815481106125505761254f614242565b5b9060005260206000209060070201905060008160060154421115905060008260040160003373ffffffffffffffffffffffffffffffffffffffff1673ffffffffffffffffffffffffffffffffffffffff16815260200190815260200160002060009054906101000a900460ff1690508260010160009054906101000a900473ffffffffffffffffffffffffffffffffffffffff168360000154846002015485600301548660050160009054906101000a900460ff16876006015487879a509a509a509a509a509a509a509a50505050919395975091939597565b6000600660003373ffffffffffffffffffffffffffffffffffffffff1673ffffffffffffffffffffffffffffffffffffffff1681526020019081526020016000205411806126c55750600060019054906101000a900473ffffffffffffffffffffffffffffffffffffffff1673ffffffffffffffffffffffffffffffffffffffff163373ffffffffffffffffffffffffffffffffffffffff16145b612704576040517f08c379a00000000000000000000000000000000000000000000000000000000081526004016126fb90613bec565b60405180910390fd5b6001600381111561271857612717614213565b5b60008054906101000a900460ff16600381111561273857612737614213565b5b14612778576040517f08c379a000000000000000000000000000000000000000000000000000000000815260040161276f90613d6c565b60405180910390fd5b806000600381111561278d5761278c614213565b5b600882815481106127a1576127a0614242565b5b906000526020600020906007020160050160009054906101000a900460ff1660038111156127d2576127d1614213565b5b14612812576040517f08c379a000000000000000000000000000000000000000000000000000000000815260040161280990613e4c565b60405180910390fd5b816008818154811061282757612826614242565b5b90600052602060002090600702016006015442111561287b576040517f08c379a000000000000000000000000000000000000000000000000000000000815260040161287290613ccc565b60405180910390fd5b60006008848154811061289157612890614242565b5b906000526020600020906007020190508060040160003373ffffffffffffffffffffffffffffffffffffffff1673ffffffffffffffffffffffffffffffffffffffff16815260200190815260200160002060009054906101000a900460ff1615612930576040517f08c379a000000000000000000000000000000000000000000000000000000000815260040161292790613d8c565b60405180910390fd5b60018160040160003373ffffffffffffffffffffffffffffffffffffffff1673ffffffffffffffffffffffffffffffffffffffff16815260200190815260200160002060006101000a81548160ff02191690831515021790555080600301600081548092919061299f9061416c565b91905055507f26b645fdecdf266f3abc5b7ae3e796ffd297febba8bd3a8ad49c68435190fc69846040516129d39190613e6c565b60405180910390a150505050565b60008060008060008060008060019054906101000a900473ffffffffffffffffffffffffffffffffffffffff1660008054906101000a900460ff16600154600254600354600454600554965096509650965096509650965090919293949596565b6000600660003373ffffffffffffffffffffffffffffffffffffffff1673ffffffffffffffffffffffffffffffffffffffff16815260200190815260200160002054148015612adf5750600060019054906101000a900473ffffffffffffffffffffffffffffffffffffffff1673ffffffffffffffffffffffffffffffffffffffff163373ffffffffffffffffffffffffffffffffffffffff1614155b612b1e576040517f08c379a0000000000000000000000000000000000000000000000000000000008152600401612b1590613c2c565b60405180910390fd5b60006003811115612b3257612b31614213565b5b60008054906101000a900460ff166003811115612b5257612b51614213565b5b14612b92576040517f08c379a0000000000000000000000000000000000000000000000000000000008152600401612b8990613e0c565b60405180910390fd5b600254341015612bd7576040517f08c379a0000000000000000000000000000000000000000000000000000000008152600401612bce90613bcc565b60405180910390fd5b34600660003373ffffffffffffffffffffffffffffffffffffffff1673ffffffffffffffffffffffffffffffffffffffff1681526020019081526020016000208190555060036000815480929190612c2e9061416c565b91905055507f0673e22453ca22ab66c750388a377485c2d57a19fb171f1442f45e933d5e841860405160405180910390a1565b60055481565b60008060098381548110612c7e57612c7d614242565b5b906000526020600020906006020190508060020160003373ffffffffffffffffffffffffffffffffffffffff1673ffffffffffffffffffffffffffffffffffffffff16815260200190815260200160002060009054906101000a900460ff16915050919050565b60008060008060008060008060098981548110612d0557612d04614242565b5b9060005260206000209060060201905060008160040154421115905060008260020160003373ffffffffffffffffffffffffffffffffffffffff1673ffffffffffffffffffffffffffffffffffffffff16815260200190815260200160002060009054906101000a900460ff169050826000015483600101548460030160009054906101000a900460ff16856004015485858860050160009054906101000a900473ffffffffffffffffffffffffffffffffffffffff169950995099509950995099509950505050919395979092949650565b6000600454905090565b60008060088381548110612df957612df8614242565b5b906000526020600020906007020190508060040160003373ffffffffffffffffffffffffffffffffffffffff1673ffffffffffffffffffffffffffffffffffffffff16815260200190815260200160002060009054906101000a900460ff16915050919050565b6000600660003373ffffffffffffffffffffffffffffffffffffffff1673ffffffffffffffffffffffffffffffffffffffff168152602001908152602001600020541180612efb5750600060019054906101000a900473ffffffffffffffffffffffffffffffffffffffff1673ffffffffffffffffffffffffffffffffffffffff163373ffffffffffffffffffffffffffffffffffffffff16145b612f3a576040517f08c379a0000000000000000000000000000000000000000000000000000000008152600401612f3190613bec565b60405180910390fd5b60016003811115612f4e57612f4d614213565b5b60008054906101000a900460ff166003811115612f6e57612f6d614213565b5b14612fae576040517f08c379a0000000000000000000000000000000000000000000000000000000008152600401612fa590613d6c565b60405180910390fd5b8060006003811115612fc357612fc2614213565b5b60098281548110612fd757612fd6614242565b5b906000526020600020906006020160030160009054906101000a900460ff16600381111561300857613007614213565b5b14613048576040517f08c379a000000000000000000000000000000000000000000000000000000000815260040161303f90613c8c565b60405180910390fd5b816009818154811061305d5761305c614242565b5b9060005260206000209060060201600401544211156130b1576040517f08c379a00000000000000000000000000000000000000000000000000000000081526004016130a890613dec565b60405180910390fd5b6000600984815481106130c7576130c6614242565b5b906000526020600020906006020190508060020160003373ffffffffffffffffffffffffffffffffffffffff1673ffffffffffffffffffffffffffffffffffffffff16815260200190815260200160002060009054906101000a900460ff1615613166576040517f08c379a000000000000000000000000000000000000000000000000000000000815260040161315d90613c0c565b60405180910390fd5b60018160020160003373ffffffffffffffffffffffffffffffffffffffff1673ffffffffffffffffffffffffffffffffffffffff16815260200190815260200160002060006101000a81548160ff0219169083151502179055508060010160008154809291906131d59061416c565b91905055507fe409ecf780dc6e9443c4a40dc179eff049a4aad25fac7d4f6024f787b6216622846040516132099190613e6c565b60405180910390a150505050565b6000600660003373ffffffffffffffffffffffffffffffffffffffff1673ffffffffffffffffffffffffffffffffffffffff1681526020019081526020016000205411806132b25750600060019054906101000a900473ffffffffffffffffffffffffffffffffffffffff1673ffffffffffffffffffffffffffffffffffffffff163373ffffffffffffffffffffffffffffffffffffffff16145b6132f1576040517f08c379a00000000000000000000000000000000000000000000000000000000081526004016132e890613bec565b60405180910390fd5b6001600381111561330557613304614213565b5b60008054906101000a900460ff16600381111561332557613324614213565b5b14613365576040517f08c379a000000000000000000000000000000000000000000000000000000000815260040161335c90613d6c565b60405180910390fd5b806000600381111561337a57613379614213565b5b6009828154811061338e5761338d614242565b5b906000526020600020906006020160030160009054906101000a900460ff1660038111156133bf576133be614213565b5b146133ff576040517f08c379a00000000000000000000000000000000000000000000000000000000081526004016133f690613c8c565b60405180910390fd5b816009818154811061341457613413614242565b5b906000526020600020906006020160040154421115613468576040517f08c379a000000000000000000000000000000000000000000000000000000000815260040161345f90613dec565b60405180910390fd5b60006009848154811061347e5761347d614242565b5b906000526020600020906006020190508060020160003373ffffffffffffffffffffffffffffffffffffffff1673ffffffffffffffffffffffffffffffffffffffff16815260200190815260200160002060009054906101000a900460ff161561351d576040517f08c379a000000000000000000000000000000000000000000000000000000000815260040161351490613c0c565b60405180910390fd5b60018160020160003373ffffffffffffffffffffffffffffffffffffffff1673ffffffffffffffffffffffffffffffffffffffff16815260200190815260200160002060006101000a81548160ff02191690831515021790555080600001600081548092919061358c9061416c565b91905055507fe409ecf780dc6e9443c4a40dc179eff049a4aad25fac7d4f6024f787b6216622846040516135c09190613e6c565b60405180910390a150505050565b6000813590506135dd8161480f565b92915050565b6000813590506135f281614826565b92915050565b6000813590506136078161483d565b92915050565b60006020828403121561362357613622614271565b5b6000613631848285016135ce565b91505092915050565b6000602082840312156136505761364f614271565b5b600061365e848285016135e3565b91505092915050565b60006020828403121561367d5761367c614271565b5b600061368b848285016135f8565b91505092915050565b6000806000606084860312156136ad576136ac614271565b5b60006136bb868287016135f8565b93505060206136cc868287016135ce565b92505060406136dd868287016135e3565b9150509250925092565b6136f0816140d0565b82525050565b6136ff816140e2565b82525050565b61370e816140ee565b82525050565b61371d81614148565b82525050565b61372c8161415a565b82525050565b600061373f601f83613faa565b915061374a82614276565b602082019050919050565b6000613762601783613faa565b915061376d8261429f565b602082019050919050565b6000613785603a83613faa565b9150613790826142c8565b604082019050919050565b60006137a8601b83613faa565b91506137b382614317565b602082019050919050565b60006137cb602f83613faa565b91506137d682614340565b604082019050919050565b60006137ee601483613faa565b91506137f98261438f565b602082019050919050565b6000613811602b83613faa565b915061381c826143b8565b604082019050919050565b6000613834601883613faa565b915061383f82614407565b602082019050919050565b6000613857602183613faa565b915061386282614430565b604082019050919050565b600061387a601b83613faa565b91506138858261447f565b602082019050919050565b600061389d602383613faa565b91506138a8826144a8565b604082019050919050565b60006138c0601d83613faa565b91506138cb826144f7565b602082019050919050565b60006138e3602283613faa565b91506138ee82614520565b604082019050919050565b6000613906602283613faa565b91506139118261456f565b604082019050919050565b6000613929603183613faa565b9150613934826145be565b604082019050919050565b600061394c602583613faa565b91506139578261460d565b604082019050919050565b600061396f602383613faa565b915061397a8261465c565b604082019050919050565b6000613992602a83613faa565b915061399d826146ab565b604082019050919050565b60006139b5602383613faa565b91506139c0826146fa565b604082019050919050565b60006139d8602683613faa565b91506139e382614749565b604082019050919050565b60006139fb602283613faa565b9150613a0682614798565b604082019050919050565b613a1a8161413e565b82525050565b6000602082019050613a3560008301846136e7565b92915050565b600060e082019050613a50600083018a6136e7565b613a5d6020830189613714565b613a6a6040830188613a11565b613a776060830187613a11565b613a846080830186613a11565b613a9160a0830185613a11565b613a9e60c0830184613a11565b98975050505050505050565b600061010082019050613ac0600083018b6136e7565b613acd602083018a613a11565b613ada6040830189613a11565b613ae76060830188613a11565b613af46080830187613723565b613b0160a0830186613a11565b613b0e60c08301856136f6565b613b1b60e08301846136f6565b9998505050505050505050565b600060a082019050613b3d60008301886136e7565b613b4a6020830187613a11565b613b576040830186613a11565b613b646060830185613a11565b613b716080830184613a11565b9695505050505050565b6000602082019050613b9060008301846136f6565b92915050565b6000602082019050613bab6000830184613705565b92915050565b6000602082019050613bc66000830184613714565b92915050565b60006020820190508181036000830152613be581613732565b9050919050565b60006020820190508181036000830152613c0581613755565b9050919050565b60006020820190508181036000830152613c2581613778565b9050919050565b60006020820190508181036000830152613c458161379b565b9050919050565b60006020820190508181036000830152613c65816137be565b9050919050565b60006020820190508181036000830152613c85816137e1565b9050919050565b60006020820190508181036000830152613ca581613804565b9050919050565b60006020820190508181036000830152613cc581613827565b9050919050565b60006020820190508181036000830152613ce58161384a565b9050919050565b60006020820190508181036000830152613d058161386d565b9050919050565b60006020820190508181036000830152613d2581613890565b9050919050565b60006020820190508181036000830152613d45816138b3565b9050919050565b60006020820190508181036000830152613d65816138d6565b9050919050565b60006020820190508181036000830152613d85816138f9565b9050919050565b60006020820190508181036000830152613da58161391c565b9050919050565b60006020820190508181036000830152613dc58161393f565b9050919050565b60006020820190508181036000830152613de581613962565b9050919050565b60006020820190508181036000830152613e0581613985565b9050919050565b60006020820190508181036000830152613e25816139a8565b9050919050565b60006020820190508181036000830152613e45816139cb565b9050919050565b60006020820190508181036000830152613e65816139ee565b9050919050565b6000602082019050613e816000830184613a11565b92915050565b600060c082019050613e9c6000830189613a11565b613ea960208301886136e7565b613eb66040830187613a11565b613ec36060830186613a11565b613ed06080830185613723565b613edd60a0830184613a11565b979650505050505050565b600060a082019050613efd6000830188613a11565b613f0a6020830187613a11565b613f176040830186613723565b613f246060830185613a11565b613f3160808301846136e7565b9695505050505050565b600060e082019050613f50600083018a613a11565b613f5d6020830189613a11565b613f6a6040830188613723565b613f776060830187613a11565b613f8460808301866136f6565b613f9160a08301856136f6565b613f9e60c08301846136e7565b98975050505050505050565b600082825260208201905092915050565b6000613fc68261413e565b9150613fd18361413e565b9250827fffffffffffffffffffffffffffffffffffffffffffffffffffffffffffffffff03821115614006576140056141b5565b5b828201905092915050565b600061401c8261413e565b91506140278361413e565b925082614037576140366141e4565b5b828204905092915050565b600061404d8261413e565b91506140588361413e565b9250817fffffffffffffffffffffffffffffffffffffffffffffffffffffffffffffffff0483118215151615614091576140906141b5565b5b828202905092915050565b60006140a78261413e565b91506140b28361413e565b9250828210156140c5576140c46141b5565b5b828203905092915050565b60006140db8261411e565b9050919050565b60008115159050919050565b6000819050919050565b6000819050614106826147e7565b919050565b6000819050614119826147fb565b919050565b600073ffffffffffffffffffffffffffffffffffffffff82169050919050565b6000819050919050565b6000614153826140f8565b9050919050565b60006141658261410b565b9050919050565b60006141778261413e565b91507fffffffffffffffffffffffffffffffffffffffffffffffffffffffffffffffff8214156141aa576141a96141b5565b5b600182019050919050565b7f4e487b7100000000000000000000000000000000000000000000000000000000600052601160045260246000fd5b7f4e487b7100000000000000000000000000000000000000000000000000000000600052601260045260246000fd5b7f4e487b7100000000000000000000000000000000000000000000000000000000600052602160045260246000fd5b7f4e487b7100000000000000000000000000000000000000000000000000000000600052603260045260246000fd5b600080fd5b7f54686520636f6e747269627574696f6e20697320696e737566696369656e7400600082015250565b7f53656e646572206973206e6f742061206d656d6265722e000000000000000000600082015250565b7f5468652064657374727563742070726f706f73616c20686173206265656e206160008201527f6c726561647920766f746564206279207468652073656e646572000000000000602082015250565b7f53656e64657220697320616c72656164792061206d656d6265722e0000000000600082015250565b7f5468652064657374727563742070726f706f73616c206973207374696c6c206f60008201527f70656e20666f7220766f74696e672e0000000000000000000000000000000000602082015250565b7f53656e64657220697320746865206f776e65722e000000000000000000000000600082015250565b7f5468652064657374727563742070726f706f73616c206973206e6f74206c6f6e60008201527f676572206163746976652e000000000000000000000000000000000000000000602082015250565b7f53656e646572206973206e6f7420746865206f776e65722e0000000000000000600082015250565b7f5468652070726f706f73616c20697320636c6f736520666f7220766f74696e6760008201527f2e00000000000000000000000000000000000000000000000000000000000000602082015250565b7f54686520666f756e64732061726520696e73756666696369656e740000000000600082015250565b7f5061796d656e742063616e2774206265206d6f7265207468616e2062616c616e60008201527f63652e0000000000000000000000000000000000000000000000000000000000602082015250565b7f5468652070726f706f73616c206973206e6f7420617070726f7665642e000000600082015250565b7f54686520636f6e747269627574696f6e732061726520696e737566666963696560008201527f6e74000000000000000000000000000000000000000000000000000000000000602082015250565b7f5468652063616d706169676e20737461747573206973206e6f7420616374697660008201527f652e000000000000000000000000000000000000000000000000000000000000602082015250565b7f5468652070726f706f73616c20686173206265656e20616c726561647920766f60008201527f746564206279207468652073656e646572000000000000000000000000000000602082015250565b7f5468652063616d706169676e20737461747573206973206e6f7420636c6f736560008201527f207965742e000000000000000000000000000000000000000000000000000000602082015250565b7f53656e64657220616c72656164792077697468647261772068697320666f756e60008201527f64732e0000000000000000000000000000000000000000000000000000000000602082015250565b7f5468652064657374727563742070726f706f73616c20697320636c6f7365206660008201527f6f7220766f74696e672e00000000000000000000000000000000000000000000602082015250565b7f5468652063616d706169676e20737461747573206973206e6f7420637265617460008201527f65642e0000000000000000000000000000000000000000000000000000000000602082015250565b7f5468652070726f706f73616c206973207374696c6c206f70656e20666f72207660008201527f6f74696e672e0000000000000000000000000000000000000000000000000000602082015250565b7f5468652070726f706f73616c206973206e6f74206c6f6e67657220616374697660008201527f652e000000000000000000000000000000000000000000000000000000000000602082015250565b600481106147f8576147f7614213565b5b50565b6004811061480c5761480b614213565b5b50565b614818816140d0565b811461482357600080fd5b50565b61482f816140ee565b811461483a57600080fd5b50565b6148468161413e565b811461485157600080fd5b5056fea264697066735822122021b231f8148b0915e65152318a7236f48403036d1e9cfaaae247c921103d7c6c64736f6c63430008060033",
  "immutableReferences": {},
  "source": "//SPDX-License-Identifier: GPL-3.0-only\npragma solidity ^0.8.0;\n\nimport \"./CrowdfundingCampaign.sol\";\n\ncontract CrowdfundingCampaignDemo is CrowdfundingCampaign {\n\n    /** @dev Constructor.\n     *  @param _minimunContribution minimum contribution in wei that a person has to make to become a member.\n     *  @param _goal goal in wei that the proyect has to reach to be succesfull.\n     *  @param _ipfshash The url hash of the campaign data previusly stored in IPFS.\n    **/\n    constructor(uint _minimunContribution, uint _goal, bytes32 _ipfshash)\n    CrowdfundingCampaign(_minimunContribution, _goal, _ipfshash) {\n\n    }\n\n    /** @dev Allow to change the proposal limit date to seven days earlier to allow have close proposals in the demo.\n     *  @param _index index of the proposal we want to change the limit date.\n     */\n    function changeLimitProposal(uint _index) public {\n\n        Proposal storage proposal = proposals[_index];\n        proposal.limitTime = proposal.limitTime - 604800;        \n    }\n\n     /** @dev Allow to change the proposal limit date to seven days earlier to allow have close proposals in the demo.\n     *  @param _index index of the proposal we want to change the limit date.\n     */\n    function changeLimitDestructProposal(uint _index) public {\n\n        DestructProposal storage dProposal = destructProposals[_index];\n        dProposal.limitTime = dProposal.limitTime - 604800;        \n    }\n\n\n}",
  "sourcePath": "/home/tati/Desktop/personal/Tesina/semideas-crowdfunding/contracts/CrowdfundingCampaignDemo.sol",
  "compiler": {
    "name": "solc",
    "version": "0.8.6+commit.11564f7e.Emscripten.clang"
  },
  "schemaVersion": "3.4.1",
  "updatedAt": "2021-07-11T18:24:23.928Z",
  "devdoc": {
    "kind": "dev",
    "methods": {
      "approveProposal(uint256)": {
        "details": "Allow only members to approve an active proposal that they haven't voted before.",
        "params": {
          "_index": "index of the proposal the member wants to approve."
        }
      },
      "aproveDestructProposal(uint256)": {
        "details": "Allow only members to approve an active destruct proposal that they haven't voted before.",
        "params": {
          "_index": "index of the destruct proposal the member wants to approve."
        }
      },
      "changeLimitDestructProposal(uint256)": {
        "details": "Allow to change the proposal limit date to seven days earlier to allow have close proposals in the demo.",
        "params": {
          "_index": "index of the proposal we want to change the limit date."
        }
      },
      "changeLimitProposal(uint256)": {
        "details": "Allow to change the proposal limit date to seven days earlier to allow have close proposals in the demo.",
        "params": {
          "_index": "index of the proposal we want to change the limit date."
        }
      },
      "closeDestructProposal(uint256)": {
        "details": "Allow only members to close an active proposal that already has its voting time over.",
        "params": {
          "_index": "index of the proposal the member wants to approve."
        }
      },
      "closeProposal(uint256)": {
        "details": "Allow only members to close an active proposal that already has its voting time over.",
        "params": {
          "_index": "index of the proposal the member wants to approve."
        }
      },
      "constructor": {
        "details": "Constructor.",
        "params": {
          "_goal": "goal in wei that the proyect has to reach to be succesfull.",
          "_ipfshash": "The url hash of the campaign data previusly stored in IPFS.*",
          "_minimunContribution": "minimum contribution in wei that a person has to make to become a member."
        }
      },
      "contribute()": {
        "details": "Allow not members to contribute with the campaign and be a member of it."
      },
      "createDestructProposal(bytes32)": {
        "details": "Allow only members to create a new proposal to finish de proyect and get the founds back.",
        "params": {
          "_ipfshash": "url hash of the destruct proposal data (description) previusly stored in IPFS."
        }
      },
      "createProposal(uint256,address,bytes32)": {
        "details": "Allow only owner to create a new proposal to get more founds.",
        "params": {
          "_ipfshash": "url hash of the proposal data (description and pictures) previusly stored in IPFS.",
          "_recipient": "address where the founds are going to be after release them.",
          "_value": "founds in wei that the owner want to release."
        }
      },
      "disapproveDestructProposal(uint256)": {
        "details": "Allow only members to disapprove an active destruct proposal that they haven't voted before.",
        "params": {
          "_index": "index of the destruct proposal the member wants to disapprove."
        }
      },
      "disapproveProposal(uint256)": {
        "details": "Allow only members to disapprove an active proposal that they haven't voted before.",
        "params": {
          "_index": "index of the proposal the member wants to disapprove."
        }
      },
      "getCampaignInfo()": {
        "details": "Function to get the data of the campaign"
      },
      "getDestructProposal(uint256)": {
        "details": "Function to get the data of a destruct proposal.",
        "params": {
          "_index": "index of the proposal to return"
        }
      },
      "getDestructProposalsCount()": {
        "details": "Function to get the total number of destruct proposals."
      },
      "getFinalContributions()": {
        "details": "Function to get the finalContributions of the campaign."
      },
      "getProposal(uint256)": {
        "details": "Function to get the data of a proposal.",
        "params": {
          "_index": "index of the proposal to return"
        }
      },
      "getProposalsCount()": {
        "details": "Function to get the total number of proposals."
      },
      "getRemainingContributions()": {
        "details": "Function to get the remainingContributions of the campaign."
      },
      "getStatus()": {
        "details": "Function to get the actual status of the campaign."
      },
      "hasVotedDestructProposal(uint256)": {
        "details": "Function to know if a member has already vot a destruct proposal.",
        "params": {
          "_index": "index of the proposal"
        }
      },
      "hasVotedProposal(uint256)": {
        "details": "Function to know if a member has already vot a proposal.",
        "params": {
          "_index": "index of the proposal"
        }
      },
      "isMember(address)": {
        "details": "Function to return if someone is member."
      },
      "release(uint256)": {
        "details": "Allow only members to close an active proposal that already has its voting time over.",
        "params": {
          "_index": "index of the proposal the member wants to approve."
        }
      },
      "saveProgressUpdate(bytes32)": {
        "details": "Allow only owner to save a new progress Update data ipfs hash.",
        "params": {
          "_ipfshash": "url hash of the progress update data (description and pictures) previusly stored in IPFS."
        }
      },
      "setActive()": {
        "details": "Allow only owner to change the status of the cCampaign from CREATED to ACTIVE."
      },
      "withdraw()": {
        "details": "Allow only members to withdraw the remaining founds once the campaign is closed."
      }
    },
    "version": 1
  },
  "userdoc": {
    "kind": "user",
    "methods": {},
    "version": 1
  }
}