{
  "contractName": "CrowdfundingCampaignDemo",
  "abi": [
    {
      "inputs": [
        {
          "internalType": "uint256",
          "name": "_minimunContribution",
          "type": "uint256"
        },
        {
          "internalType": "uint256",
          "name": "_goal",
          "type": "uint256"
        },
        {
          "internalType": "bytes32",
          "name": "_ipfshash",
          "type": "bytes32"
        }
      ],
      "stateMutability": "nonpayable",
      "type": "constructor"
    },
    {
      "anonymous": false,
      "inputs": [
        {
          "indexed": false,
          "internalType": "bytes32",
          "name": "_ipfshash",
          "type": "bytes32"
        }
      ],
      "name": "CampaignCreated",
      "type": "event"
    },
    {
      "anonymous": false,
      "inputs": [],
      "name": "ChangeStatusCampaign",
      "type": "event"
    },
    {
      "anonymous": false,
      "inputs": [
        {
          "indexed": false,
          "internalType": "uint256",
          "name": "_index",
          "type": "uint256"
        }
      ],
      "name": "CloseProposalClosed",
      "type": "event"
    },
    {
      "anonymous": false,
      "inputs": [
        {
          "indexed": false,
          "internalType": "bytes32",
          "name": "_ipfshash",
          "type": "bytes32"
        }
      ],
      "name": "CloseProposalCreated",
      "type": "event"
    },
    {
      "anonymous": false,
      "inputs": [
        {
          "indexed": false,
          "internalType": "uint256",
          "name": "_index",
          "type": "uint256"
        }
      ],
      "name": "CloseProposalVoted",
      "type": "event"
    },
    {
      "anonymous": false,
      "inputs": [],
      "name": "NewContribution",
      "type": "event"
    },
    {
      "anonymous": false,
      "inputs": [
        {
          "indexed": false,
          "internalType": "bytes32",
          "name": "_ipfshash",
          "type": "bytes32"
        }
      ],
      "name": "ProgressUpdate",
      "type": "event"
    },
    {
      "anonymous": false,
      "inputs": [
        {
          "indexed": false,
          "internalType": "uint256",
          "name": "_index",
          "type": "uint256"
        }
      ],
      "name": "ProposalClosed",
      "type": "event"
    },
    {
      "anonymous": false,
      "inputs": [
        {
          "indexed": false,
          "internalType": "bytes32",
          "name": "_ipfshash",
          "type": "bytes32"
        }
      ],
      "name": "ProposalCreated",
      "type": "event"
    },
    {
      "anonymous": false,
      "inputs": [
        {
          "indexed": false,
          "internalType": "uint256",
          "name": "_index",
          "type": "uint256"
        }
      ],
      "name": "ProposalRelease",
      "type": "event"
    },
    {
      "anonymous": false,
      "inputs": [
        {
          "indexed": false,
          "internalType": "uint256",
          "name": "_index",
          "type": "uint256"
        }
      ],
      "name": "ProposalVoted",
      "type": "event"
    },
    {
      "anonymous": false,
      "inputs": [
        {
          "indexed": false,
          "internalType": "address",
          "name": "_member",
          "type": "address"
        },
        {
          "indexed": false,
          "internalType": "uint256",
          "name": "contribution",
          "type": "uint256"
        },
        {
          "indexed": false,
          "internalType": "uint256",
          "name": "goal",
          "type": "uint256"
        },
        {
          "indexed": false,
          "internalType": "uint256",
          "name": "payment",
          "type": "uint256"
        },
        {
          "indexed": false,
          "internalType": "uint256",
          "name": "founds",
          "type": "uint256"
        }
      ],
      "name": "withdrawFounds",
      "type": "event"
    },
    {
      "inputs": [
        {
          "internalType": "uint256",
          "name": "_index",
          "type": "uint256"
        }
      ],
      "name": "approveCloseProposal",
      "outputs": [],
      "stateMutability": "nonpayable",
      "type": "function"
    },
    {
      "inputs": [
        {
          "internalType": "uint256",
          "name": "_index",
          "type": "uint256"
        }
      ],
      "name": "approveProposal",
      "outputs": [],
      "stateMutability": "nonpayable",
      "type": "function"
    },
    {
      "inputs": [
        {
          "internalType": "uint256",
          "name": "_index",
          "type": "uint256"
        }
      ],
      "name": "closeCloseProposal",
      "outputs": [],
      "stateMutability": "nonpayable",
      "type": "function"
    },
    {
      "inputs": [
        {
          "internalType": "uint256",
          "name": "_index",
          "type": "uint256"
        }
      ],
      "name": "closeProposal",
      "outputs": [],
      "stateMutability": "nonpayable",
      "type": "function"
    },
    {
      "inputs": [
        {
          "internalType": "uint256",
          "name": "",
          "type": "uint256"
        }
      ],
      "name": "closeProposals",
      "outputs": [
        {
          "internalType": "uint256",
          "name": "approvalsCount",
          "type": "uint256"
        },
        {
          "internalType": "uint256",
          "name": "disapprovalsCount",
          "type": "uint256"
        },
        {
          "internalType": "enum CrowdfundingCampaign.ProposalStatus",
          "name": "status",
          "type": "uint8"
        },
        {
          "internalType": "uint256",
          "name": "limitTime",
          "type": "uint256"
        },
        {
          "internalType": "address",
          "name": "author",
          "type": "address"
        }
      ],
      "stateMutability": "view",
      "type": "function"
    },
    {
      "inputs": [],
      "name": "contribute",
      "outputs": [],
      "stateMutability": "payable",
      "type": "function"
    },
    {
      "inputs": [
        {
          "internalType": "address",
          "name": "",
          "type": "address"
        }
      ],
      "name": "contributions",
      "outputs": [
        {
          "internalType": "uint256",
          "name": "",
          "type": "uint256"
        }
      ],
      "stateMutability": "view",
      "type": "function"
    },
    {
      "inputs": [
        {
          "internalType": "bytes32",
          "name": "_ipfshash",
          "type": "bytes32"
        }
      ],
      "name": "createCloseProposal",
      "outputs": [],
      "stateMutability": "nonpayable",
      "type": "function"
    },
    {
      "inputs": [
        {
          "internalType": "uint256",
          "name": "_value",
          "type": "uint256"
        },
        {
          "internalType": "address",
          "name": "_recipient",
          "type": "address"
        },
        {
          "internalType": "bytes32",
          "name": "_ipfshash",
          "type": "bytes32"
        }
      ],
      "name": "createProposal",
      "outputs": [],
      "stateMutability": "nonpayable",
      "type": "function"
    },
    {
      "inputs": [
        {
          "internalType": "uint256",
          "name": "_index",
          "type": "uint256"
        }
      ],
      "name": "disapproveCloseProposal",
      "outputs": [],
      "stateMutability": "nonpayable",
      "type": "function"
    },
    {
      "inputs": [
        {
          "internalType": "uint256",
          "name": "_index",
          "type": "uint256"
        }
      ],
      "name": "disapproveProposal",
      "outputs": [],
      "stateMutability": "nonpayable",
      "type": "function"
    },
    {
      "inputs": [],
      "name": "finalContributions",
      "outputs": [
        {
          "internalType": "uint256",
          "name": "",
          "type": "uint256"
        }
      ],
      "stateMutability": "view",
      "type": "function"
    },
    {
      "inputs": [],
      "name": "getCampaignInfo",
      "outputs": [
        {
          "internalType": "address",
          "name": "",
          "type": "address"
        },
        {
          "internalType": "enum CrowdfundingCampaign.CampaignStatus",
          "name": "",
          "type": "uint8"
        },
        {
          "internalType": "uint256",
          "name": "",
          "type": "uint256"
        },
        {
          "internalType": "uint256",
          "name": "",
          "type": "uint256"
        },
        {
          "internalType": "uint256",
          "name": "",
          "type": "uint256"
        },
        {
          "internalType": "uint256",
          "name": "",
          "type": "uint256"
        },
        {
          "internalType": "uint256",
          "name": "",
          "type": "uint256"
        }
      ],
      "stateMutability": "view",
      "type": "function"
    },
    {
      "inputs": [
        {
          "internalType": "uint256",
          "name": "_index",
          "type": "uint256"
        }
      ],
      "name": "getCloseProposal",
      "outputs": [
        {
          "internalType": "uint256",
          "name": "",
          "type": "uint256"
        },
        {
          "internalType": "uint256",
          "name": "",
          "type": "uint256"
        },
        {
          "internalType": "enum CrowdfundingCampaign.ProposalStatus",
          "name": "",
          "type": "uint8"
        },
        {
          "internalType": "uint256",
          "name": "",
          "type": "uint256"
        },
        {
          "internalType": "bool",
          "name": "",
          "type": "bool"
        },
        {
          "internalType": "bool",
          "name": "",
          "type": "bool"
        },
        {
          "internalType": "address",
          "name": "",
          "type": "address"
        }
      ],
      "stateMutability": "view",
      "type": "function"
    },
    {
      "inputs": [],
      "name": "getCloseProposalsCount",
      "outputs": [
        {
          "internalType": "uint256",
          "name": "",
          "type": "uint256"
        }
      ],
      "stateMutability": "view",
      "type": "function"
    },
    {
      "inputs": [],
      "name": "getFinalContributions",
      "outputs": [
        {
          "internalType": "uint256",
          "name": "",
          "type": "uint256"
        }
      ],
      "stateMutability": "view",
      "type": "function"
    },
    {
      "inputs": [
        {
          "internalType": "uint256",
          "name": "_index",
          "type": "uint256"
        }
      ],
      "name": "getProposal",
      "outputs": [
        {
          "internalType": "address",
          "name": "",
          "type": "address"
        },
        {
          "internalType": "uint256",
          "name": "",
          "type": "uint256"
        },
        {
          "internalType": "uint256",
          "name": "",
          "type": "uint256"
        },
        {
          "internalType": "uint256",
          "name": "",
          "type": "uint256"
        },
        {
          "internalType": "enum CrowdfundingCampaign.ProposalStatus",
          "name": "",
          "type": "uint8"
        },
        {
          "internalType": "uint256",
          "name": "",
          "type": "uint256"
        },
        {
          "internalType": "bool",
          "name": "",
          "type": "bool"
        },
        {
          "internalType": "bool",
          "name": "",
          "type": "bool"
        }
      ],
      "stateMutability": "view",
      "type": "function"
    },
    {
      "inputs": [],
      "name": "getProposalsCount",
      "outputs": [
        {
          "internalType": "uint256",
          "name": "",
          "type": "uint256"
        }
      ],
      "stateMutability": "view",
      "type": "function"
    },
    {
      "inputs": [],
      "name": "getRemainingContributions",
      "outputs": [
        {
          "internalType": "uint256",
          "name": "",
          "type": "uint256"
        }
      ],
      "stateMutability": "view",
      "type": "function"
    },
    {
      "inputs": [],
      "name": "getStatus",
      "outputs": [
        {
          "internalType": "enum CrowdfundingCampaign.CampaignStatus",
          "name": "",
          "type": "uint8"
        }
      ],
      "stateMutability": "view",
      "type": "function"
    },
    {
      "inputs": [],
      "name": "goal",
      "outputs": [
        {
          "internalType": "uint256",
          "name": "",
          "type": "uint256"
        }
      ],
      "stateMutability": "view",
      "type": "function"
    },
    {
      "inputs": [
        {
          "internalType": "uint256",
          "name": "_index",
          "type": "uint256"
        }
      ],
      "name": "hasVotedCloseProposal",
      "outputs": [
        {
          "internalType": "bool",
          "name": "",
          "type": "bool"
        }
      ],
      "stateMutability": "view",
      "type": "function"
    },
    {
      "inputs": [
        {
          "internalType": "uint256",
          "name": "_index",
          "type": "uint256"
        }
      ],
      "name": "hasVotedProposal",
      "outputs": [
        {
          "internalType": "bool",
          "name": "",
          "type": "bool"
        }
      ],
      "stateMutability": "view",
      "type": "function"
    },
    {
      "inputs": [
        {
          "internalType": "address",
          "name": "_address",
          "type": "address"
        }
      ],
      "name": "isMember",
      "outputs": [
        {
          "internalType": "bool",
          "name": "",
          "type": "bool"
        }
      ],
      "stateMutability": "view",
      "type": "function"
    },
    {
      "inputs": [],
      "name": "membersCount",
      "outputs": [
        {
          "internalType": "uint256",
          "name": "",
          "type": "uint256"
        }
      ],
      "stateMutability": "view",
      "type": "function"
    },
    {
      "inputs": [],
      "name": "minimunContribution",
      "outputs": [
        {
          "internalType": "uint256",
          "name": "",
          "type": "uint256"
        }
      ],
      "stateMutability": "view",
      "type": "function"
    },
    {
      "inputs": [],
      "name": "owner",
      "outputs": [
        {
          "internalType": "address",
          "name": "",
          "type": "address"
        }
      ],
      "stateMutability": "view",
      "type": "function"
    },
    {
      "inputs": [
        {
          "internalType": "uint256",
          "name": "",
          "type": "uint256"
        }
      ],
      "name": "proposals",
      "outputs": [
        {
          "internalType": "uint256",
          "name": "value",
          "type": "uint256"
        },
        {
          "internalType": "address",
          "name": "recipient",
          "type": "address"
        },
        {
          "internalType": "uint256",
          "name": "approvalsCount",
          "type": "uint256"
        },
        {
          "internalType": "uint256",
          "name": "disapprovalsCount",
          "type": "uint256"
        },
        {
          "internalType": "enum CrowdfundingCampaign.ProposalStatus",
          "name": "status",
          "type": "uint8"
        },
        {
          "internalType": "uint256",
          "name": "limitTime",
          "type": "uint256"
        }
      ],
      "stateMutability": "view",
      "type": "function"
    },
    {
      "inputs": [
        {
          "internalType": "uint256",
          "name": "_index",
          "type": "uint256"
        }
      ],
      "name": "release",
      "outputs": [],
      "stateMutability": "nonpayable",
      "type": "function"
    },
    {
      "inputs": [],
      "name": "remainingContributions",
      "outputs": [
        {
          "internalType": "uint256",
          "name": "",
          "type": "uint256"
        }
      ],
      "stateMutability": "view",
      "type": "function"
    },
    {
      "inputs": [
        {
          "internalType": "bytes32",
          "name": "_ipfshash",
          "type": "bytes32"
        }
      ],
      "name": "saveProgressUpdate",
      "outputs": [],
      "stateMutability": "nonpayable",
      "type": "function"
    },
    {
      "inputs": [],
      "name": "setActive",
      "outputs": [],
      "stateMutability": "nonpayable",
      "type": "function"
    },
    {
      "inputs": [],
      "name": "status",
      "outputs": [
        {
          "internalType": "enum CrowdfundingCampaign.CampaignStatus",
          "name": "",
          "type": "uint8"
        }
      ],
      "stateMutability": "view",
      "type": "function"
    },
    {
      "inputs": [],
      "name": "withdraw",
      "outputs": [],
      "stateMutability": "nonpayable",
      "type": "function"
    },
    {
      "inputs": [
        {
          "internalType": "address",
          "name": "",
          "type": "address"
        }
      ],
      "name": "withdraws",
      "outputs": [
        {
          "internalType": "bool",
          "name": "",
          "type": "bool"
        }
      ],
      "stateMutability": "view",
      "type": "function"
    },
    {
      "inputs": [
        {
          "internalType": "uint256",
          "name": "_index",
          "type": "uint256"
        }
      ],
      "name": "changeLimitProposal",
      "outputs": [],
      "stateMutability": "nonpayable",
      "type": "function"
    },
    {
      "inputs": [
        {
          "internalType": "uint256",
          "name": "_index",
          "type": "uint256"
        }
      ],
      "name": "changeLimitCloseProposal",
      "outputs": [],
      "stateMutability": "nonpayable",
      "type": "function"
    }
  ],
  "bytecode": "0x60806040523480156200001157600080fd5b5060405162004ad138038062004ad1833981810160405281019062000037919062000131565b82828233600060016101000a81548173ffffffffffffffffffffffffffffffffffffffff021916908373ffffffffffffffffffffffffffffffffffffffff160217905550816001819055508260028190555060008060006101000a81548160ff02191690836003811115620000b157620000b0620001cf565b5b021790555060006003819055507f0f627713f9c831a1b079924dedde3308e90d22b754bdd481f9b2165aa0f9dfb981604051620000ef91906200019e565b60405180910390a150505050505062000237565b600081519050620001148162000203565b92915050565b6000815190506200012b816200021d565b92915050565b6000806000606084860312156200014d576200014c620001fe565b5b60006200015d868287016200011a565b935050602062000170868287016200011a565b9250506040620001838682870162000103565b9150509250925092565b6200019881620001bb565b82525050565b6000602082019050620001b560008301846200018d565b92915050565b6000819050919050565b6000819050919050565b7f4e487b7100000000000000000000000000000000000000000000000000000000600052602160045260246000fd5b600080fd5b6200020e81620001bb565b81146200021a57600080fd5b50565b6200022881620001c5565b81146200023457600080fd5b50565b61488a80620002476000396000f3fe60806040526004361061021a5760003560e01c806384980e8311610123578063c7f758a8116100ab578063de3f3ae01161006f578063de3f3ae0146107d0578063edbd0db8146107f9578063eeda051814610824578063f7268f2f14610861578063fa65a1311461088a5761021a565b8063c7f758a8146106fd578063c8541fe014610741578063d6290cd71461076a578063d7bb99ba1461079b578063d853ba73146107a55761021a565b806398e527d3116100f257806398e527d314610618578063a230c52414610643578063a7f3371514610680578063b8f02ae1146106ab578063c34b69d1146106d45761021a565b806384980e831461055e57806384b519b9146105875780638da5cb5b146105c457806398951b56146105ef5761021a565b806340193883116101a65780634de583fb116101755780634de583fb146104875780634e69d560146104c85780634f92c925146104f357806351c36c1e1461051e578063760a8c2a146105475761021a565b8063401938831461039f57806342e94c90146103ca57806343a41c8f1461040757806348179ee51461044a5761021a565b8063200d2ed2116101ed578063200d2ed2146102e0578063297f9af01461030b57806337bdc99b146103365780633b047a8f1461035f5780633ccfd60b146103885761021a565b80630126f61e1461021f578063013cf08b1461024a5780630386a0161461028c57806304095005146102b5575b600080fd5b34801561022b57600080fd5b506102346108b3565b6040516102419190613e6c565b60405180910390f35b34801561025657600080fd5b50610271600480360381019061026c9190613667565b6108b9565b60405161028396959493929190613e87565b60405180910390f35b34801561029857600080fd5b506102b360048036038101906102ae9190613667565b610932565b005b3480156102c157600080fd5b506102ca610c55565b6040516102d79190613e6c565b60405180910390f35b3480156102ec57600080fd5b506102f5610c62565b6040516103029190613bb1565b60405180910390f35b34801561031757600080fd5b50610320610c73565b60405161032d9190613e6c565b60405180910390f35b34801561034257600080fd5b5061035d60048036038101906103589190613667565b610c79565b005b34801561036b57600080fd5b506103866004803603810190610381919061363a565b610f15565b005b34801561039457600080fd5b5061039d611053565b005b3480156103ab57600080fd5b506103b46114be565b6040516103c19190613e6c565b60405180910390f35b3480156103d657600080fd5b506103f160048036038101906103ec919061360d565b6114c4565b6040516103fe9190613e6c565b60405180910390f35b34801561041357600080fd5b5061042e60048036038101906104299190613667565b6114dc565b6040516104419796959493929190613f3b565b60405180910390f35b34801561045657600080fd5b50610471600480360381019061046c919061360d565b6115cf565b60405161047e9190613b7b565b60405180910390f35b34801561049357600080fd5b506104ae60048036038101906104a99190613667565b6115ef565b6040516104bf959493929190613ee8565b60405180910390f35b3480156104d457600080fd5b506104dd611662565b6040516104ea9190613bb1565b60405180910390f35b3480156104ff57600080fd5b50610508611678565b6040516105159190613e6c565b60405180910390f35b34801561052a57600080fd5b5061054560048036038101906105409190613694565b611682565b005b34801561055357600080fd5b5061055c6118ce565b005b34801561056a57600080fd5b5061058560048036038101906105809190613667565b611a76565b005b34801561059357600080fd5b506105ae60048036038101906105a99190613667565b611e2d565b6040516105bb9190613b7b565b60405180910390f35b3480156105d057600080fd5b506105d9611eab565b6040516105e69190613a20565b60405180910390f35b3480156105fb57600080fd5b5061061660048036038101906106119190613667565b611ed1565b005b34801561062457600080fd5b5061062d612288565b60405161063a9190613e6c565b60405180910390f35b34801561064f57600080fd5b5061066a6004803603810190610665919061360d565b612295565b6040516106779190613b7b565b60405180910390f35b34801561068c57600080fd5b506106956122e0565b6040516106a29190613e6c565b60405180910390f35b3480156106b757600080fd5b506106d260048036038101906106cd9190613667565b6122e6565b005b3480156106e057600080fd5b506106fb60048036038101906106f69190613667565b61232b565b005b34801561070957600080fd5b50610724600480360381019061071f9190613667565b612370565b604051610738989796959493929190613aaa565b60405180910390f35b34801561074d57600080fd5b5061076860048036038101906107639190613667565b61246c565b005b34801561077657600080fd5b5061077f612823565b6040516107929796959493929190613a3b565b60405180910390f35b6107a3612884565b005b3480156107b157600080fd5b506107ba612aa3565b6040516107c79190613e6c565b60405180910390f35b3480156107dc57600080fd5b506107f760048036038101906107f29190613667565b612aa9565b005b34801561080557600080fd5b5061080e612ed3565b60405161081b9190613e6c565b60405180910390f35b34801561083057600080fd5b5061084b60048036038101906108469190613667565b612edd565b6040516108589190613b7b565b60405180910390f35b34801561086d57600080fd5b506108886004803603810190610883919061363a565b612f5b565b005b34801561089657600080fd5b506108b160048036038101906108ac9190613667565b613217565b005b60045481565b600881815481106108c957600080fd5b90600052602060002090600702016000915090508060000154908060010160009054906101000a900473ffffffffffffffffffffffffffffffffffffffff16908060020154908060030154908060050160009054906101000a900460ff16908060060154905086565b6000600660003373ffffffffffffffffffffffffffffffffffffffff1673ffffffffffffffffffffffffffffffffffffffff1681526020019081526020016000205411806109cd5750600060019054906101000a900473ffffffffffffffffffffffffffffffffffffffff1673ffffffffffffffffffffffffffffffffffffffff163373ffffffffffffffffffffffffffffffffffffffff16145b610a0c576040517f08c379a0000000000000000000000000000000000000000000000000000000008152600401610a0390613bec565b60405180910390fd5b60016003811115610a2057610a1f614213565b5b60008054906101000a900460ff166003811115610a4057610a3f614213565b5b14610a80576040517f08c379a0000000000000000000000000000000000000000000000000000000008152600401610a7790613d4c565b60405180910390fd5b8060006003811115610a9557610a94614213565b5b60088281548110610aa957610aa8614242565b5b906000526020600020906007020160050160009054906101000a900460ff166003811115610ada57610ad9614213565b5b14610b1a576040517f08c379a0000000000000000000000000000000000000000000000000000000008152600401610b1190613e4c565b60405180910390fd5b8160088181548110610b2f57610b2e614242565b5b9060005260206000209060070201600601544211610b82576040517f08c379a0000000000000000000000000000000000000000000000000000000008152600401610b7990613e0c565b60405180910390fd5b600060088481548110610b9857610b97614242565b5b90600052602060002090600702019050806003015481600201541115610bea5760018160050160006101000a81548160ff02191690836003811115610be057610bdf614213565b5b0217905550610c18565b60028160050160006101000a81548160ff02191690836003811115610c1257610c11614213565b5b02179055505b7f887777ccf43690541bed9e00b10d0fccfa7520b11875f09847a57b3085d8ab9284604051610c479190613e6c565b60405180910390a150505050565b6000600980549050905090565b60008054906101000a900460ff1681565b60035481565b600060019054906101000a900473ffffffffffffffffffffffffffffffffffffffff1673ffffffffffffffffffffffffffffffffffffffff163373ffffffffffffffffffffffffffffffffffffffff1614610d09576040517f08c379a0000000000000000000000000000000000000000000000000000000008152600401610d0090613c6c565b60405180910390fd5b60016003811115610d1d57610d1c614213565b5b60008054906101000a900460ff166003811115610d3d57610d3c614213565b5b14610d7d576040517f08c379a0000000000000000000000000000000000000000000000000000000008152600401610d7490613d4c565b60405180910390fd5b8060016003811115610d9257610d91614213565b5b60088281548110610da657610da5614242565b5b906000526020600020906007020160050160009054906101000a900460ff166003811115610dd757610dd6614213565b5b14610e17576040517f08c379a0000000000000000000000000000000000000000000000000000000008152600401610e0e90613d0c565b60405180910390fd5b600060088381548110610e2d57610e2c614242565b5b9060005260206000209060070201905060038160050160006101000a81548160ff02191690836003811115610e6557610e64614213565b5b02179055508060010160009054906101000a900473ffffffffffffffffffffffffffffffffffffffff1673ffffffffffffffffffffffffffffffffffffffff166108fc82600001549081150290604051600060405180830381858888f19350505050158015610ed8573d6000803e3d6000fd5b507fe02fec677757e427d1b6e49fcaf5bb9a6dd94e9fed2a2cc3c764c95deceff5b783604051610f089190613e6c565b60405180910390a1505050565b600060019054906101000a900473ffffffffffffffffffffffffffffffffffffffff1673ffffffffffffffffffffffffffffffffffffffff163373ffffffffffffffffffffffffffffffffffffffff1614610fa5576040517f08c379a0000000000000000000000000000000000000000000000000000000008152600401610f9c90613c6c565b60405180910390fd5b60016003811115610fb957610fb8614213565b5b60008054906101000a900460ff166003811115610fd957610fd8614213565b5b14611019576040517f08c379a000000000000000000000000000000000000000000000000000000000815260040161101090613d4c565b60405180910390fd5b7f2f8af70d91e96a23b8111e37a9117f7cfe341f51c17759c36475a1a7698f0dc3816040516110489190613b96565b60405180910390a150565b6000600660003373ffffffffffffffffffffffffffffffffffffffff1673ffffffffffffffffffffffffffffffffffffffff1681526020019081526020016000205411806110ee5750600060019054906101000a900473ffffffffffffffffffffffffffffffffffffffff1673ffffffffffffffffffffffffffffffffffffffff163373ffffffffffffffffffffffffffffffffffffffff16145b61112d576040517f08c379a000000000000000000000000000000000000000000000000000000000815260040161112490613bec565b60405180910390fd5b6003808111156111405761113f614213565b5b60008054906101000a900460ff1660038111156111605761115f614213565b5b148061119d57506002600381111561117b5761117a614213565b5b60008054906101000a900460ff16600381111561119b5761119a614213565b5b145b6111dc576040517f08c379a00000000000000000000000000000000000000000000000000000000081526004016111d390613d8c565b60405180910390fd5b600060019054906101000a900473ffffffffffffffffffffffffffffffffffffffff1673ffffffffffffffffffffffffffffffffffffffff163373ffffffffffffffffffffffffffffffffffffffff16141561126d576040517f08c379a000000000000000000000000000000000000000000000000000000000815260040161126490613c2c565b60405180910390fd5b600760003373ffffffffffffffffffffffffffffffffffffffff1673ffffffffffffffffffffffffffffffffffffffff16815260200190815260200160002060009054906101000a900460ff16156112fa576040517f08c379a00000000000000000000000000000000000000000000000000000000081526004016112f190613dac565b60405180910390fd5b6000600454600554600660003373ffffffffffffffffffffffffffffffffffffffff1673ffffffffffffffffffffffffffffffffffffffff1681526020019081526020016000205461134c9190614042565b6113569190614011565b905047811061139a576040517f08c379a000000000000000000000000000000000000000000000000000000000815260040161139190613cec565b60405180910390fd5b3373ffffffffffffffffffffffffffffffffffffffff166108fc829081150290604051600060405180830381858888f193505050501580156113e0573d6000803e3d6000fd5b506001600760003373ffffffffffffffffffffffffffffffffffffffff1673ffffffffffffffffffffffffffffffffffffffff16815260200190815260200160002060006101000a81548160ff0219169083151502179055507fa4e42298552baa3282225c552bba5a22b3034cdc0e531fe987c8003a44d95e2933600660003373ffffffffffffffffffffffffffffffffffffffff1673ffffffffffffffffffffffffffffffffffffffff16815260200190815260200160002054600454846005546040516114b3959493929190613b28565b60405180910390a150565b60015481565b60066020528060005260406000206000915090505481565b600080600080600080600080600989815481106114fc576114fb614242565b5b9060005260206000209060060201905060008160040154421115905060008260020160003373ffffffffffffffffffffffffffffffffffffffff1673ffffffffffffffffffffffffffffffffffffffff16815260200190815260200160002060009054906101000a900460ff169050826000015483600101548460030160009054906101000a900460ff16856004015485858860050160009054906101000a900473ffffffffffffffffffffffffffffffffffffffff169950995099509950995099509950505050919395979092949650565b60076020528060005260406000206000915054906101000a900460ff1681565b600981815481106115ff57600080fd5b90600052602060002090600602016000915090508060000154908060010154908060030160009054906101000a900460ff16908060040154908060050160009054906101000a900473ffffffffffffffffffffffffffffffffffffffff16905085565b60008060009054906101000a900460ff16905090565b6000600554905090565b600060019054906101000a900473ffffffffffffffffffffffffffffffffffffffff1673ffffffffffffffffffffffffffffffffffffffff163373ffffffffffffffffffffffffffffffffffffffff1614611712576040517f08c379a000000000000000000000000000000000000000000000000000000000815260040161170990613c6c565b60405180910390fd5b6001600381111561172657611725614213565b5b60008054906101000a900460ff16600381111561174657611745614213565b5b14611786576040517f08c379a000000000000000000000000000000000000000000000000000000000815260040161177d90613d4c565b60405180910390fd5b824710156117c9576040517f08c379a00000000000000000000000000000000000000000000000000000000081526004016117c090613cac565b60405180910390fd5b600060086001816001815401808255809150500390600052602060002090600702019050828160010160006101000a81548173ffffffffffffffffffffffffffffffffffffffff021916908373ffffffffffffffffffffffffffffffffffffffff160217905550838160000181905550600081600201819055506000816003018190555060008160050160006101000a81548160ff0219169083600381111561187557611874614213565b5b021790555062093a80426118899190613fbb565b81600601819055507f288a29bca04edb18fcdb2c76d6e3b03b8a137c85c70d1a4cb8aacfa868d60510826040516118c09190613b96565b60405180910390a150505050565b600060019054906101000a900473ffffffffffffffffffffffffffffffffffffffff1673ffffffffffffffffffffffffffffffffffffffff163373ffffffffffffffffffffffffffffffffffffffff161461195e576040517f08c379a000000000000000000000000000000000000000000000000000000000815260040161195590613c6c565b60405180910390fd5b6000600381111561197257611971614213565b5b60008054906101000a900460ff16600381111561199257611991614213565b5b146119d2576040517f08c379a00000000000000000000000000000000000000000000000000000000081526004016119c990613dec565b60405180910390fd5b600154471015611a17576040517f08c379a0000000000000000000000000000000000000000000000000000000008152600401611a0e90613d2c565b60405180910390fd5b60016000806101000a81548160ff02191690836003811115611a3c57611a3b614213565b5b0217905550476004819055507fe283e942d53c4322165eacc7a597c86cdbc698c96321f57a82b29c615810a69560405160405180910390a1565b6000600660003373ffffffffffffffffffffffffffffffffffffffff1673ffffffffffffffffffffffffffffffffffffffff168152602001908152602001600020541180611b115750600060019054906101000a900473ffffffffffffffffffffffffffffffffffffffff1673ffffffffffffffffffffffffffffffffffffffff163373ffffffffffffffffffffffffffffffffffffffff16145b611b50576040517f08c379a0000000000000000000000000000000000000000000000000000000008152600401611b4790613bec565b60405180910390fd5b60016003811115611b6457611b63614213565b5b60008054906101000a900460ff166003811115611b8457611b83614213565b5b14611bc4576040517f08c379a0000000000000000000000000000000000000000000000000000000008152600401611bbb90613d4c565b60405180910390fd5b8060006003811115611bd957611bd8614213565b5b60098281548110611bed57611bec614242565b5b906000526020600020906006020160030160009054906101000a900460ff166003811115611c1e57611c1d614213565b5b14611c5e576040517f08c379a0000000000000000000000000000000000000000000000000000000008152600401611c5590613e2c565b60405180910390fd5b8160098181548110611c7357611c72614242565b5b906000526020600020906006020160040154421115611cc7576040517f08c379a0000000000000000000000000000000000000000000000000000000008152600401611cbe90613ccc565b60405180910390fd5b600060098481548110611cdd57611cdc614242565b5b906000526020600020906006020190508060020160003373ffffffffffffffffffffffffffffffffffffffff1673ffffffffffffffffffffffffffffffffffffffff16815260200190815260200160002060009054906101000a900460ff1615611d7c576040517f08c379a0000000000000000000000000000000000000000000000000000000008152600401611d7390613dcc565b60405180910390fd5b60018160020160003373ffffffffffffffffffffffffffffffffffffffff1673ffffffffffffffffffffffffffffffffffffffff16815260200190815260200160002060006101000a81548160ff021916908315150217905550806000016000815480929190611deb9061416c565b91905055507f53c1eb0055cc9dbfe4823171931d9ec63b8682244ed5778661bb94ba2075f8c684604051611e1f9190613e6c565b60405180910390a150505050565b60008060098381548110611e4457611e43614242565b5b906000526020600020906006020190508060020160003373ffffffffffffffffffffffffffffffffffffffff1673ffffffffffffffffffffffffffffffffffffffff16815260200190815260200160002060009054906101000a900460ff16915050919050565b600060019054906101000a900473ffffffffffffffffffffffffffffffffffffffff1681565b6000600660003373ffffffffffffffffffffffffffffffffffffffff1673ffffffffffffffffffffffffffffffffffffffff168152602001908152602001600020541180611f6c5750600060019054906101000a900473ffffffffffffffffffffffffffffffffffffffff1673ffffffffffffffffffffffffffffffffffffffff163373ffffffffffffffffffffffffffffffffffffffff16145b611fab576040517f08c379a0000000000000000000000000000000000000000000000000000000008152600401611fa290613bec565b60405180910390fd5b60016003811115611fbf57611fbe614213565b5b60008054906101000a900460ff166003811115611fdf57611fde614213565b5b1461201f576040517f08c379a000000000000000000000000000000000000000000000000000000000815260040161201690613d4c565b60405180910390fd5b806000600381111561203457612033614213565b5b6008828154811061204857612047614242565b5b906000526020600020906007020160050160009054906101000a900460ff16600381111561207957612078614213565b5b146120b9576040517f08c379a00000000000000000000000000000000000000000000000000000000081526004016120b090613e4c565b60405180910390fd5b81600881815481106120ce576120cd614242565b5b906000526020600020906007020160060154421115612122576040517f08c379a000000000000000000000000000000000000000000000000000000000815260040161211990613c8c565b60405180910390fd5b60006008848154811061213857612137614242565b5b906000526020600020906007020190508060040160003373ffffffffffffffffffffffffffffffffffffffff1673ffffffffffffffffffffffffffffffffffffffff16815260200190815260200160002060009054906101000a900460ff16156121d7576040517f08c379a00000000000000000000000000000000000000000000000000000000081526004016121ce90613d6c565b60405180910390fd5b60018160040160003373ffffffffffffffffffffffffffffffffffffffff1673ffffffffffffffffffffffffffffffffffffffff16815260200190815260200160002060006101000a81548160ff0219169083151502179055508060020160008154809291906122469061416c565b91905055507f26b645fdecdf266f3abc5b7ae3e796ffd297febba8bd3a8ad49c68435190fc698460405161227a9190613e6c565b60405180910390a150505050565b6000600880549050905090565b600080600660008473ffffffffffffffffffffffffffffffffffffffff1673ffffffffffffffffffffffffffffffffffffffff16815260200190815260200160002054119050919050565b60025481565b6000600882815481106122fc576122fb614242565b5b9060005260206000209060070201905062093a80816006015461231f919061409c565b81600601819055505050565b60006009828154811061234157612340614242565b5b9060005260206000209060060201905062093a808160040154612364919061409c565b81600401819055505050565b600080600080600080600080600060088a8154811061239257612391614242565b5b9060005260206000209060070201905060008160060154421115905060008260040160003373ffffffffffffffffffffffffffffffffffffffff1673ffffffffffffffffffffffffffffffffffffffff16815260200190815260200160002060009054906101000a900460ff1690508260010160009054906101000a900473ffffffffffffffffffffffffffffffffffffffff168360000154846002015485600301548660050160009054906101000a900460ff16876006015487879a509a509a509a509a509a509a509a50505050919395975091939597565b6000600660003373ffffffffffffffffffffffffffffffffffffffff1673ffffffffffffffffffffffffffffffffffffffff1681526020019081526020016000205411806125075750600060019054906101000a900473ffffffffffffffffffffffffffffffffffffffff1673ffffffffffffffffffffffffffffffffffffffff163373ffffffffffffffffffffffffffffffffffffffff16145b612546576040517f08c379a000000000000000000000000000000000000000000000000000000000815260040161253d90613bec565b60405180910390fd5b6001600381111561255a57612559614213565b5b60008054906101000a900460ff16600381111561257a57612579614213565b5b146125ba576040517f08c379a00000000000000000000000000000000000000000000000000000000081526004016125b190613d4c565b60405180910390fd5b80600060038111156125cf576125ce614213565b5b600882815481106125e3576125e2614242565b5b906000526020600020906007020160050160009054906101000a900460ff16600381111561261457612613614213565b5b14612654576040517f08c379a000000000000000000000000000000000000000000000000000000000815260040161264b90613e4c565b60405180910390fd5b816008818154811061266957612668614242565b5b9060005260206000209060070201600601544211156126bd576040517f08c379a00000000000000000000000000000000000000000000000000000000081526004016126b490613c8c565b60405180910390fd5b6000600884815481106126d3576126d2614242565b5b906000526020600020906007020190508060040160003373ffffffffffffffffffffffffffffffffffffffff1673ffffffffffffffffffffffffffffffffffffffff16815260200190815260200160002060009054906101000a900460ff1615612772576040517f08c379a000000000000000000000000000000000000000000000000000000000815260040161276990613d6c565b60405180910390fd5b60018160040160003373ffffffffffffffffffffffffffffffffffffffff1673ffffffffffffffffffffffffffffffffffffffff16815260200190815260200160002060006101000a81548160ff0219169083151502179055508060030160008154809291906127e19061416c565b91905055507f26b645fdecdf266f3abc5b7ae3e796ffd297febba8bd3a8ad49c68435190fc69846040516128159190613e6c565b60405180910390a150505050565b60008060008060008060008060019054906101000a900473ffffffffffffffffffffffffffffffffffffffff1660008054906101000a900460ff16600154600254600354600454600554965096509650965096509650965090919293949596565b6000600660003373ffffffffffffffffffffffffffffffffffffffff1673ffffffffffffffffffffffffffffffffffffffff168152602001908152602001600020541480156129215750600060019054906101000a900473ffffffffffffffffffffffffffffffffffffffff1673ffffffffffffffffffffffffffffffffffffffff163373ffffffffffffffffffffffffffffffffffffffff1614155b612960576040517f08c379a000000000000000000000000000000000000000000000000000000000815260040161295790613c0c565b60405180910390fd5b6000600381111561297457612973614213565b5b60008054906101000a900460ff16600381111561299457612993614213565b5b146129d4576040517f08c379a00000000000000000000000000000000000000000000000000000000081526004016129cb90613dec565b60405180910390fd5b600254341015612a19576040517f08c379a0000000000000000000000000000000000000000000000000000000008152600401612a1090613bcc565b60405180910390fd5b34600660003373ffffffffffffffffffffffffffffffffffffffff1673ffffffffffffffffffffffffffffffffffffffff1681526020019081526020016000208190555060036000815480929190612a709061416c565b91905055507f0673e22453ca22ab66c750388a377485c2d57a19fb171f1442f45e933d5e841860405160405180910390a1565b60055481565b6000600660003373ffffffffffffffffffffffffffffffffffffffff1673ffffffffffffffffffffffffffffffffffffffff168152602001908152602001600020541180612b445750600060019054906101000a900473ffffffffffffffffffffffffffffffffffffffff1673ffffffffffffffffffffffffffffffffffffffff163373ffffffffffffffffffffffffffffffffffffffff16145b612b83576040517f08c379a0000000000000000000000000000000000000000000000000000000008152600401612b7a90613bec565b60405180910390fd5b60016003811115612b9757612b96614213565b5b60008054906101000a900460ff166003811115612bb757612bb6614213565b5b14612bf7576040517f08c379a0000000000000000000000000000000000000000000000000000000008152600401612bee90613d4c565b60405180910390fd5b8060006003811115612c0c57612c0b614213565b5b60098281548110612c2057612c1f614242565b5b906000526020600020906006020160030160009054906101000a900460ff166003811115612c5157612c50614213565b5b14612c91576040517f08c379a0000000000000000000000000000000000000000000000000000000008152600401612c8890613e2c565b60405180910390fd5b8160098181548110612ca657612ca5614242565b5b9060005260206000209060060201600401544211612cf9576040517f08c379a0000000000000000000000000000000000000000000000000000000008152600401612cf090613c4c565b60405180910390fd5b600060098481548110612d0f57612d0e614242565b5b90600052602060002090600602019050806001015481600001541115612e3c57600060019054906101000a900473ffffffffffffffffffffffffffffffffffffffff1673ffffffffffffffffffffffffffffffffffffffff168160050160009054906101000a900473ffffffffffffffffffffffffffffffffffffffff1673ffffffffffffffffffffffffffffffffffffffff161415612dd85760036000806101000a81548160ff02191690836003811115612dce57612dcd614213565b5b0217905550612e03565b60026000806101000a81548160ff02191690836003811115612dfd57612dfc614213565b5b02179055505b60018160030160006101000a81548160ff02191690836003811115612e2b57612e2a614213565b5b021790555047600581905550612e6a565b60028160030160006101000a81548160ff02191690836003811115612e6457612e63614213565b5b02179055505b7f73f2945afe9ca15803fdd3eee06f885f71638426c3775f68cbf42918f508507284604051612e999190613e6c565b60405180910390a17fe283e942d53c4322165eacc7a597c86cdbc698c96321f57a82b29c615810a69560405160405180910390a150505050565b6000600454905090565b60008060088381548110612ef457612ef3614242565b5b906000526020600020906007020190508060040160003373ffffffffffffffffffffffffffffffffffffffff1673ffffffffffffffffffffffffffffffffffffffff16815260200190815260200160002060009054906101000a900460ff16915050919050565b6000600660003373ffffffffffffffffffffffffffffffffffffffff1673ffffffffffffffffffffffffffffffffffffffff168152602001908152602001600020541180612ff65750600060019054906101000a900473ffffffffffffffffffffffffffffffffffffffff1673ffffffffffffffffffffffffffffffffffffffff163373ffffffffffffffffffffffffffffffffffffffff16145b613035576040517f08c379a000000000000000000000000000000000000000000000000000000000815260040161302c90613bec565b60405180910390fd5b6001600381111561304957613048614213565b5b60008054906101000a900460ff16600381111561306957613068614213565b5b146130a9576040517f08c379a00000000000000000000000000000000000000000000000000000000081526004016130a090613d4c565b60405180910390fd5b600060096001816001815401808255809150500390600052602060002090600602019050600081600001819055506000816001018190555060008160030160006101000a81548160ff0219169083600381111561310957613108614213565b5b021790555062093a804261311d9190613fbb565b8160040181905550338160050160006101000a81548173ffffffffffffffffffffffffffffffffffffffff021916908373ffffffffffffffffffffffffffffffffffffffff16021790555060018160020160003373ffffffffffffffffffffffffffffffffffffffff1673ffffffffffffffffffffffffffffffffffffffff16815260200190815260200160002060006101000a81548160ff0219169083151502179055508060000160008154809291906131d79061416c565b91905055507fd652a200abc8c9e3e659b36ee1d1c81a25a3cd454afdb8cede6431e74906497c8260405161320b9190613b96565b60405180910390a15050565b6000600660003373ffffffffffffffffffffffffffffffffffffffff1673ffffffffffffffffffffffffffffffffffffffff1681526020019081526020016000205411806132b25750600060019054906101000a900473ffffffffffffffffffffffffffffffffffffffff1673ffffffffffffffffffffffffffffffffffffffff163373ffffffffffffffffffffffffffffffffffffffff16145b6132f1576040517f08c379a00000000000000000000000000000000000000000000000000000000081526004016132e890613bec565b60405180910390fd5b6001600381111561330557613304614213565b5b60008054906101000a900460ff16600381111561332557613324614213565b5b14613365576040517f08c379a000000000000000000000000000000000000000000000000000000000815260040161335c90613d4c565b60405180910390fd5b806000600381111561337a57613379614213565b5b6009828154811061338e5761338d614242565b5b906000526020600020906006020160030160009054906101000a900460ff1660038111156133bf576133be614213565b5b146133ff576040517f08c379a00000000000000000000000000000000000000000000000000000000081526004016133f690613e2c565b60405180910390fd5b816009818154811061341457613413614242565b5b906000526020600020906006020160040154421115613468576040517f08c379a000000000000000000000000000000000000000000000000000000000815260040161345f90613ccc565b60405180910390fd5b60006009848154811061347e5761347d614242565b5b906000526020600020906006020190508060020160003373ffffffffffffffffffffffffffffffffffffffff1673ffffffffffffffffffffffffffffffffffffffff16815260200190815260200160002060009054906101000a900460ff161561351d576040517f08c379a000000000000000000000000000000000000000000000000000000000815260040161351490613dcc565b60405180910390fd5b60018160020160003373ffffffffffffffffffffffffffffffffffffffff1673ffffffffffffffffffffffffffffffffffffffff16815260200190815260200160002060006101000a81548160ff02191690831515021790555080600101600081548092919061358c9061416c565b91905055507f53c1eb0055cc9dbfe4823171931d9ec63b8682244ed5778661bb94ba2075f8c6846040516135c09190613e6c565b60405180910390a150505050565b6000813590506135dd8161480f565b92915050565b6000813590506135f281614826565b92915050565b6000813590506136078161483d565b92915050565b60006020828403121561362357613622614271565b5b6000613631848285016135ce565b91505092915050565b6000602082840312156136505761364f614271565b5b600061365e848285016135e3565b91505092915050565b60006020828403121561367d5761367c614271565b5b600061368b848285016135f8565b91505092915050565b6000806000606084860312156136ad576136ac614271565b5b60006136bb868287016135f8565b93505060206136cc868287016135ce565b92505060406136dd868287016135e3565b9150509250925092565b6136f0816140d0565b82525050565b6136ff816140e2565b82525050565b61370e816140ee565b82525050565b61371d81614148565b82525050565b61372c8161415a565b82525050565b600061373f601f83613faa565b915061374a82614276565b602082019050919050565b6000613762601783613faa565b915061376d8261429f565b602082019050919050565b6000613785601b83613faa565b9150613790826142c8565b602082019050919050565b60006137a8601483613faa565b91506137b3826142f1565b602082019050919050565b60006137cb602c83613faa565b91506137d68261431a565b604082019050919050565b60006137ee601883613faa565b91506137f982614369565b602082019050919050565b6000613811602183613faa565b915061381c82614392565b604082019050919050565b6000613834601b83613faa565b915061383f826143e1565b602082019050919050565b6000613857602783613faa565b91506138628261440a565b604082019050919050565b600061387a602383613faa565b915061388582614459565b604082019050919050565b600061389d601d83613faa565b91506138a8826144a8565b602082019050919050565b60006138c0602283613faa565b91506138cb826144d1565b604082019050919050565b60006138e3602283613faa565b91506138ee82614520565b604082019050919050565b6000613906603183613faa565b91506139118261456f565b604082019050919050565b6000613929602583613faa565b9150613934826145be565b604082019050919050565b600061394c602383613faa565b91506139578261460d565b604082019050919050565b600061396f603783613faa565b915061397a8261465c565b604082019050919050565b6000613992602383613faa565b915061399d826146ab565b604082019050919050565b60006139b5602683613faa565b91506139c0826146fa565b604082019050919050565b60006139d8602883613faa565b91506139e382614749565b604082019050919050565b60006139fb602283613faa565b9150613a0682614798565b604082019050919050565b613a1a8161413e565b82525050565b6000602082019050613a3560008301846136e7565b92915050565b600060e082019050613a50600083018a6136e7565b613a5d6020830189613714565b613a6a6040830188613a11565b613a776060830187613a11565b613a846080830186613a11565b613a9160a0830185613a11565b613a9e60c0830184613a11565b98975050505050505050565b600061010082019050613ac0600083018b6136e7565b613acd602083018a613a11565b613ada6040830189613a11565b613ae76060830188613a11565b613af46080830187613723565b613b0160a0830186613a11565b613b0e60c08301856136f6565b613b1b60e08301846136f6565b9998505050505050505050565b600060a082019050613b3d60008301886136e7565b613b4a6020830187613a11565b613b576040830186613a11565b613b646060830185613a11565b613b716080830184613a11565b9695505050505050565b6000602082019050613b9060008301846136f6565b92915050565b6000602082019050613bab6000830184613705565b92915050565b6000602082019050613bc66000830184613714565b92915050565b60006020820190508181036000830152613be581613732565b9050919050565b60006020820190508181036000830152613c0581613755565b9050919050565b60006020820190508181036000830152613c2581613778565b9050919050565b60006020820190508181036000830152613c458161379b565b9050919050565b60006020820190508181036000830152613c65816137be565b9050919050565b60006020820190508181036000830152613c85816137e1565b9050919050565b60006020820190508181036000830152613ca581613804565b9050919050565b60006020820190508181036000830152613cc581613827565b9050919050565b60006020820190508181036000830152613ce58161384a565b9050919050565b60006020820190508181036000830152613d058161386d565b9050919050565b60006020820190508181036000830152613d2581613890565b9050919050565b60006020820190508181036000830152613d45816138b3565b9050919050565b60006020820190508181036000830152613d65816138d6565b9050919050565b60006020820190508181036000830152613d85816138f9565b9050919050565b60006020820190508181036000830152613da58161391c565b9050919050565b60006020820190508181036000830152613dc58161393f565b9050919050565b60006020820190508181036000830152613de581613962565b9050919050565b60006020820190508181036000830152613e0581613985565b9050919050565b60006020820190508181036000830152613e25816139a8565b9050919050565b60006020820190508181036000830152613e45816139cb565b9050919050565b60006020820190508181036000830152613e65816139ee565b9050919050565b6000602082019050613e816000830184613a11565b92915050565b600060c082019050613e9c6000830189613a11565b613ea960208301886136e7565b613eb66040830187613a11565b613ec36060830186613a11565b613ed06080830185613723565b613edd60a0830184613a11565b979650505050505050565b600060a082019050613efd6000830188613a11565b613f0a6020830187613a11565b613f176040830186613723565b613f246060830185613a11565b613f3160808301846136e7565b9695505050505050565b600060e082019050613f50600083018a613a11565b613f5d6020830189613a11565b613f6a6040830188613723565b613f776060830187613a11565b613f8460808301866136f6565b613f9160a08301856136f6565b613f9e60c08301846136e7565b98975050505050505050565b600082825260208201905092915050565b6000613fc68261413e565b9150613fd18361413e565b9250827fffffffffffffffffffffffffffffffffffffffffffffffffffffffffffffffff03821115614006576140056141b5565b5b828201905092915050565b600061401c8261413e565b91506140278361413e565b925082614037576140366141e4565b5b828204905092915050565b600061404d8261413e565b91506140588361413e565b9250817fffffffffffffffffffffffffffffffffffffffffffffffffffffffffffffffff0483118215151615614091576140906141b5565b5b828202905092915050565b60006140a78261413e565b91506140b28361413e565b9250828210156140c5576140c46141b5565b5b828203905092915050565b60006140db8261411e565b9050919050565b60008115159050919050565b6000819050919050565b6000819050614106826147e7565b919050565b6000819050614119826147fb565b919050565b600073ffffffffffffffffffffffffffffffffffffffff82169050919050565b6000819050919050565b6000614153826140f8565b9050919050565b60006141658261410b565b9050919050565b60006141778261413e565b91507fffffffffffffffffffffffffffffffffffffffffffffffffffffffffffffffff8214156141aa576141a96141b5565b5b600182019050919050565b7f4e487b7100000000000000000000000000000000000000000000000000000000600052601160045260246000fd5b7f4e487b7100000000000000000000000000000000000000000000000000000000600052601260045260246000fd5b7f4e487b7100000000000000000000000000000000000000000000000000000000600052602160045260246000fd5b7f4e487b7100000000000000000000000000000000000000000000000000000000600052603260045260246000fd5b600080fd5b7f54686520636f6e747269627574696f6e20697320696e737566696369656e7400600082015250565b7f53656e646572206973206e6f742061206d656d6265722e000000000000000000600082015250565b7f53656e64657220697320616c72656164792061206d656d6265722e0000000000600082015250565b7f53656e64657220697320746865206f776e65722e000000000000000000000000600082015250565b7f54686520636c6f73652070726f706f73616c206973207374696c6c206f70656e60008201527f20666f7220766f74696e672e0000000000000000000000000000000000000000602082015250565b7f53656e646572206973206e6f7420746865206f776e65722e0000000000000000600082015250565b7f5468652070726f706f73616c20697320636c6f736520666f7220766f74696e6760008201527f2e00000000000000000000000000000000000000000000000000000000000000602082015250565b7f54686520666f756e64732061726520696e73756666696369656e740000000000600082015250565b7f54686520636c6f73652070726f706f73616c20697320636c6f736520666f722060008201527f766f74696e672e00000000000000000000000000000000000000000000000000602082015250565b7f5061796d656e742063616e2774206265206d6f7265207468616e2062616c616e60008201527f63652e0000000000000000000000000000000000000000000000000000000000602082015250565b7f5468652070726f706f73616c206973206e6f7420617070726f7665642e000000600082015250565b7f54686520636f6e747269627574696f6e732061726520696e737566666963696560008201527f6e74000000000000000000000000000000000000000000000000000000000000602082015250565b7f5468652063616d706169676e20737461747573206973206e6f7420616374697660008201527f652e000000000000000000000000000000000000000000000000000000000000602082015250565b7f5468652070726f706f73616c20686173206265656e20616c726561647920766f60008201527f746564206279207468652073656e646572000000000000000000000000000000602082015250565b7f5468652063616d706169676e20737461747573206973206e6f7420636c6f736560008201527f207965742e000000000000000000000000000000000000000000000000000000602082015250565b7f53656e64657220616c72656164792077697468647261772068697320666f756e60008201527f64732e0000000000000000000000000000000000000000000000000000000000602082015250565b7f54686520636c6f73652070726f706f73616c20686173206265656e20616c726560008201527f61647920766f746564206279207468652073656e646572000000000000000000602082015250565b7f5468652063616d706169676e20737461747573206973206e6f7420637265617460008201527f65642e0000000000000000000000000000000000000000000000000000000000602082015250565b7f5468652070726f706f73616c206973207374696c6c206f70656e20666f72207660008201527f6f74696e672e0000000000000000000000000000000000000000000000000000602082015250565b7f54686520636c6f73652070726f706f73616c206973206e6f74206c6f6e67657260008201527f206163746976652e000000000000000000000000000000000000000000000000602082015250565b7f5468652070726f706f73616c206973206e6f74206c6f6e67657220616374697660008201527f652e000000000000000000000000000000000000000000000000000000000000602082015250565b600481106147f8576147f7614213565b5b50565b6004811061480c5761480b614213565b5b50565b614818816140d0565b811461482357600080fd5b50565b61482f816140ee565b811461483a57600080fd5b50565b6148468161413e565b811461485157600080fd5b5056fea2646970667358221220472cdc6f24388a1e9d31956860ae115de8a00f90c08f2ec14ec450b294b7187c64736f6c63430008060033",
  "immutableReferences": {},
  "source": "//SPDX-License-Identifier: GPL-3.0-only\npragma solidity ^0.8.0;\n\nimport \"./CrowdfundingCampaign.sol\";\n\ncontract CrowdfundingCampaignDemo is CrowdfundingCampaign {\n\n    /** @dev Constructor.\n     *  @param _minimunContribution minimum contribution in wei that a person has to make to become a member.\n     *  @param _goal goal in wei that the proyect has to reach to be succesfull.\n     *  @param _ipfshash The url hash of the campaign data previusly stored in IPFS.\n    **/\n    constructor(uint _minimunContribution, uint _goal, bytes32 _ipfshash)\n    CrowdfundingCampaign(_minimunContribution, _goal, _ipfshash) {\n\n    }\n\n    /** @dev Allow to change the proposal limit date to seven days earlier to allow have close proposals in the demo.\n     *  @param _index index of the proposal we want to change the limit date.\n     */\n    function changeLimitProposal(uint _index) public {\n\n        Proposal storage proposal = proposals[_index];\n        proposal.limitTime = proposal.limitTime - 604800;        \n    }\n\n     /** @dev Allow to change the close proposal limit date to seven days earlier to allow have close proposals in the demo.\n     *  @param _index index of the close proposal we want to change the limit date.\n     */\n    function changeLimitCloseProposal(uint _index) public {\n\n        CloseProposal storage cProposal = closeProposals[_index];\n        cProposal.limitTime = cProposal.limitTime - 604800;        \n    }\n\n\n}",
  "sourcePath": "/home/tati/Desktop/personal/Tesina/semideas-crowdfunding/contracts/CrowdfundingCampaignDemo.sol",
  "compiler": {
    "name": "solc",
    "version": "0.8.6+commit.11564f7e.Emscripten.clang"
  },
  "schemaVersion": "3.4.1",
  "updatedAt": "2021-07-12T00:39:08.876Z",
  "devdoc": {
    "kind": "dev",
    "methods": {
      "approveCloseProposal(uint256)": {
        "details": "Allow only members to approve an active close proposal that they haven't voted before.",
        "params": {
          "_index": "index of the close proposal the member wants to approve."
        }
      },
      "approveProposal(uint256)": {
        "details": "Allow only members to approve an active proposal that they haven't voted before.",
        "params": {
          "_index": "index of the proposal the member wants to approve."
        }
      },
      "changeLimitCloseProposal(uint256)": {
        "details": "Allow to change the close proposal limit date to seven days earlier to allow have close proposals in the demo.",
        "params": {
          "_index": "index of the close proposal we want to change the limit date."
        }
      },
      "changeLimitProposal(uint256)": {
        "details": "Allow to change the proposal limit date to seven days earlier to allow have close proposals in the demo.",
        "params": {
          "_index": "index of the proposal we want to change the limit date."
        }
      },
      "closeCloseProposal(uint256)": {
        "details": "Allow only members to close an active proposal that already has its voting time over.",
        "params": {
          "_index": "index of the proposal the member wants to approve."
        }
      },
      "closeProposal(uint256)": {
        "details": "Allow only members to close an active proposal that already has its voting time over.",
        "params": {
          "_index": "index of the proposal the member wants to approve."
        }
      },
      "constructor": {
        "details": "Constructor.",
        "params": {
          "_goal": "goal in wei that the proyect has to reach to be succesfull.",
          "_ipfshash": "The url hash of the campaign data previusly stored in IPFS.*",
          "_minimunContribution": "minimum contribution in wei that a person has to make to become a member."
        }
      },
      "contribute()": {
        "details": "Allow not members to contribute with the campaign and be a member of it."
      },
      "createCloseProposal(bytes32)": {
        "details": "Allow only members to create a new proposal to finish de proyect and get the founds back.",
        "params": {
          "_ipfshash": "url hash of the close proposal data (description) previusly stored in IPFS."
        }
      },
      "createProposal(uint256,address,bytes32)": {
        "details": "Allow only owner to create a new proposal to get more founds.",
        "params": {
          "_ipfshash": "url hash of the proposal data (description and pictures) previusly stored in IPFS.",
          "_recipient": "address where the founds are going to be after release them.",
          "_value": "founds in wei that the owner want to release."
        }
      },
      "disapproveCloseProposal(uint256)": {
        "details": "Allow only members to disapprove an active close proposal that they haven't voted before.",
        "params": {
          "_index": "index of the close proposal the member wants to disapprove."
        }
      },
      "disapproveProposal(uint256)": {
        "details": "Allow only members to disapprove an active proposal that they haven't voted before.",
        "params": {
          "_index": "index of the proposal the member wants to disapprove."
        }
      },
      "getCampaignInfo()": {
        "details": "Function to get the data of the campaign"
      },
      "getCloseProposal(uint256)": {
        "details": "Function to get the data of a close proposal.",
        "params": {
          "_index": "index of the proposal to return"
        }
      },
      "getCloseProposalsCount()": {
        "details": "Function to get the total number of close proposals."
      },
      "getFinalContributions()": {
        "details": "Function to get the finalContributions of the campaign."
      },
      "getProposal(uint256)": {
        "details": "Function to get the data of a proposal.",
        "params": {
          "_index": "index of the proposal to return"
        }
      },
      "getProposalsCount()": {
        "details": "Function to get the total number of proposals."
      },
      "getRemainingContributions()": {
        "details": "Function to get the remainingContributions of the campaign."
      },
      "getStatus()": {
        "details": "Function to get the actual status of the campaign."
      },
      "hasVotedCloseProposal(uint256)": {
        "details": "Function to know if a member has already vot a close proposal.",
        "params": {
          "_index": "index of the proposal"
        }
      },
      "hasVotedProposal(uint256)": {
        "details": "Function to know if a member has already vot a proposal.",
        "params": {
          "_index": "index of the proposal"
        }
      },
      "isMember(address)": {
        "details": "Function to return if someone is member."
      },
      "release(uint256)": {
        "details": "Allow only members to close an active proposal that already has its voting time over.",
        "params": {
          "_index": "index of the proposal the member wants to approve."
        }
      },
      "saveProgressUpdate(bytes32)": {
        "details": "Allow only owner to save a new progress Update data ipfs hash.",
        "params": {
          "_ipfshash": "url hash of the progress update data (description and pictures) previusly stored in IPFS."
        }
      },
      "setActive()": {
        "details": "Allow only owner to change the status of the cCampaign from CREATED to ACTIVE."
      },
      "withdraw()": {
        "details": "Allow only members to withdraw the remaining founds once the campaign is closed."
      }
    },
    "version": 1
  },
  "userdoc": {
    "kind": "user",
    "methods": {},
    "version": 1
  }
}