{
  "contractName": "CrowdfundingCampaign",
  "abi": [
    {
      "inputs": [
        {
          "internalType": "uint256",
          "name": "_minimunContribution",
          "type": "uint256"
        },
        {
          "internalType": "uint256",
          "name": "_goal",
          "type": "uint256"
        },
        {
          "internalType": "bytes32",
          "name": "_ipfshash",
          "type": "bytes32"
        }
      ],
      "stateMutability": "nonpayable",
      "type": "constructor"
    },
    {
      "anonymous": false,
      "inputs": [
        {
          "indexed": false,
          "internalType": "bytes32",
          "name": "_ipfshash",
          "type": "bytes32"
        }
      ],
      "name": "CampaignCreated",
      "type": "event"
    },
    {
      "anonymous": false,
      "inputs": [],
      "name": "ChangeStatusCampaign",
      "type": "event"
    },
    {
      "anonymous": false,
      "inputs": [
        {
          "indexed": false,
          "internalType": "uint256",
          "name": "_index",
          "type": "uint256"
        }
      ],
      "name": "CloseProposalClosed",
      "type": "event"
    },
    {
      "anonymous": false,
      "inputs": [
        {
          "indexed": false,
          "internalType": "bytes32",
          "name": "_ipfshash",
          "type": "bytes32"
        }
      ],
      "name": "CloseProposalCreated",
      "type": "event"
    },
    {
      "anonymous": false,
      "inputs": [
        {
          "indexed": false,
          "internalType": "uint256",
          "name": "_index",
          "type": "uint256"
        }
      ],
      "name": "CloseProposalVoted",
      "type": "event"
    },
    {
      "anonymous": false,
      "inputs": [],
      "name": "NewContribution",
      "type": "event"
    },
    {
      "anonymous": false,
      "inputs": [
        {
          "indexed": false,
          "internalType": "bytes32",
          "name": "_ipfshash",
          "type": "bytes32"
        }
      ],
      "name": "ProgressUpdate",
      "type": "event"
    },
    {
      "anonymous": false,
      "inputs": [
        {
          "indexed": false,
          "internalType": "uint256",
          "name": "_index",
          "type": "uint256"
        }
      ],
      "name": "ProposalClosed",
      "type": "event"
    },
    {
      "anonymous": false,
      "inputs": [
        {
          "indexed": false,
          "internalType": "bytes32",
          "name": "_ipfshash",
          "type": "bytes32"
        }
      ],
      "name": "ProposalCreated",
      "type": "event"
    },
    {
      "anonymous": false,
      "inputs": [
        {
          "indexed": false,
          "internalType": "uint256",
          "name": "_index",
          "type": "uint256"
        }
      ],
      "name": "ProposalRelease",
      "type": "event"
    },
    {
      "anonymous": false,
      "inputs": [
        {
          "indexed": false,
          "internalType": "uint256",
          "name": "_index",
          "type": "uint256"
        }
      ],
      "name": "ProposalVoted",
      "type": "event"
    },
    {
      "anonymous": false,
      "inputs": [
        {
          "indexed": false,
          "internalType": "address",
          "name": "_member",
          "type": "address"
        },
        {
          "indexed": false,
          "internalType": "uint256",
          "name": "contribution",
          "type": "uint256"
        },
        {
          "indexed": false,
          "internalType": "uint256",
          "name": "goal",
          "type": "uint256"
        },
        {
          "indexed": false,
          "internalType": "uint256",
          "name": "payment",
          "type": "uint256"
        },
        {
          "indexed": false,
          "internalType": "uint256",
          "name": "founds",
          "type": "uint256"
        }
      ],
      "name": "withdrawFounds",
      "type": "event"
    },
    {
      "inputs": [
        {
          "internalType": "uint256",
          "name": "",
          "type": "uint256"
        }
      ],
      "name": "closeProposals",
      "outputs": [
        {
          "internalType": "uint256",
          "name": "approvalsCount",
          "type": "uint256"
        },
        {
          "internalType": "uint256",
          "name": "disapprovalsCount",
          "type": "uint256"
        },
        {
          "internalType": "enum CrowdfundingCampaign.ProposalStatus",
          "name": "status",
          "type": "uint8"
        },
        {
          "internalType": "uint256",
          "name": "limitTime",
          "type": "uint256"
        },
        {
          "internalType": "address",
          "name": "author",
          "type": "address"
        }
      ],
      "stateMutability": "view",
      "type": "function",
      "constant": true
    },
    {
      "inputs": [
        {
          "internalType": "address",
          "name": "",
          "type": "address"
        }
      ],
      "name": "contributions",
      "outputs": [
        {
          "internalType": "uint256",
          "name": "",
          "type": "uint256"
        }
      ],
      "stateMutability": "view",
      "type": "function",
      "constant": true
    },
    {
      "inputs": [],
      "name": "created_at",
      "outputs": [
        {
          "internalType": "uint256",
          "name": "",
          "type": "uint256"
        }
      ],
      "stateMutability": "view",
      "type": "function",
      "constant": true
    },
    {
      "inputs": [],
      "name": "finalContributions",
      "outputs": [
        {
          "internalType": "uint256",
          "name": "",
          "type": "uint256"
        }
      ],
      "stateMutability": "view",
      "type": "function",
      "constant": true
    },
    {
      "inputs": [],
      "name": "goal",
      "outputs": [
        {
          "internalType": "uint256",
          "name": "",
          "type": "uint256"
        }
      ],
      "stateMutability": "view",
      "type": "function",
      "constant": true
    },
    {
      "inputs": [],
      "name": "membersCount",
      "outputs": [
        {
          "internalType": "uint256",
          "name": "",
          "type": "uint256"
        }
      ],
      "stateMutability": "view",
      "type": "function",
      "constant": true
    },
    {
      "inputs": [],
      "name": "minimunContribution",
      "outputs": [
        {
          "internalType": "uint256",
          "name": "",
          "type": "uint256"
        }
      ],
      "stateMutability": "view",
      "type": "function",
      "constant": true
    },
    {
      "inputs": [],
      "name": "owner",
      "outputs": [
        {
          "internalType": "address",
          "name": "",
          "type": "address"
        }
      ],
      "stateMutability": "view",
      "type": "function",
      "constant": true
    },
    {
      "inputs": [
        {
          "internalType": "uint256",
          "name": "",
          "type": "uint256"
        }
      ],
      "name": "proposals",
      "outputs": [
        {
          "internalType": "uint256",
          "name": "value",
          "type": "uint256"
        },
        {
          "internalType": "address",
          "name": "recipient",
          "type": "address"
        },
        {
          "internalType": "uint256",
          "name": "approvalsCount",
          "type": "uint256"
        },
        {
          "internalType": "uint256",
          "name": "disapprovalsCount",
          "type": "uint256"
        },
        {
          "internalType": "enum CrowdfundingCampaign.ProposalStatus",
          "name": "status",
          "type": "uint8"
        },
        {
          "internalType": "uint256",
          "name": "limitTime",
          "type": "uint256"
        }
      ],
      "stateMutability": "view",
      "type": "function",
      "constant": true
    },
    {
      "inputs": [],
      "name": "remainingContributions",
      "outputs": [
        {
          "internalType": "uint256",
          "name": "",
          "type": "uint256"
        }
      ],
      "stateMutability": "view",
      "type": "function",
      "constant": true
    },
    {
      "inputs": [],
      "name": "status",
      "outputs": [
        {
          "internalType": "enum CrowdfundingCampaign.CampaignStatus",
          "name": "",
          "type": "uint8"
        }
      ],
      "stateMutability": "view",
      "type": "function",
      "constant": true
    },
    {
      "inputs": [
        {
          "internalType": "address",
          "name": "",
          "type": "address"
        }
      ],
      "name": "withdraws",
      "outputs": [
        {
          "internalType": "bool",
          "name": "",
          "type": "bool"
        }
      ],
      "stateMutability": "view",
      "type": "function",
      "constant": true
    },
    {
      "inputs": [],
      "name": "contribute",
      "outputs": [],
      "stateMutability": "payable",
      "type": "function",
      "payable": true
    },
    {
      "inputs": [],
      "name": "setActive",
      "outputs": [],
      "stateMutability": "nonpayable",
      "type": "function"
    },
    {
      "inputs": [
        {
          "internalType": "bytes32",
          "name": "_ipfshash",
          "type": "bytes32"
        }
      ],
      "name": "saveProgressUpdate",
      "outputs": [],
      "stateMutability": "nonpayable",
      "type": "function"
    },
    {
      "inputs": [
        {
          "internalType": "uint256",
          "name": "_value",
          "type": "uint256"
        },
        {
          "internalType": "address",
          "name": "_recipient",
          "type": "address"
        },
        {
          "internalType": "bytes32",
          "name": "_ipfshash",
          "type": "bytes32"
        }
      ],
      "name": "createProposal",
      "outputs": [],
      "stateMutability": "nonpayable",
      "type": "function"
    },
    {
      "inputs": [
        {
          "internalType": "uint256",
          "name": "_index",
          "type": "uint256"
        }
      ],
      "name": "approveProposal",
      "outputs": [],
      "stateMutability": "nonpayable",
      "type": "function"
    },
    {
      "inputs": [
        {
          "internalType": "uint256",
          "name": "_index",
          "type": "uint256"
        }
      ],
      "name": "disapproveProposal",
      "outputs": [],
      "stateMutability": "nonpayable",
      "type": "function"
    },
    {
      "inputs": [
        {
          "internalType": "uint256",
          "name": "_index",
          "type": "uint256"
        }
      ],
      "name": "closeProposal",
      "outputs": [],
      "stateMutability": "nonpayable",
      "type": "function"
    },
    {
      "inputs": [
        {
          "internalType": "uint256",
          "name": "_index",
          "type": "uint256"
        }
      ],
      "name": "release",
      "outputs": [],
      "stateMutability": "nonpayable",
      "type": "function"
    },
    {
      "inputs": [
        {
          "internalType": "bytes32",
          "name": "_ipfshash",
          "type": "bytes32"
        }
      ],
      "name": "createCloseProposal",
      "outputs": [],
      "stateMutability": "nonpayable",
      "type": "function"
    },
    {
      "inputs": [
        {
          "internalType": "uint256",
          "name": "_index",
          "type": "uint256"
        }
      ],
      "name": "approveCloseProposal",
      "outputs": [],
      "stateMutability": "nonpayable",
      "type": "function"
    },
    {
      "inputs": [
        {
          "internalType": "uint256",
          "name": "_index",
          "type": "uint256"
        }
      ],
      "name": "disapproveCloseProposal",
      "outputs": [],
      "stateMutability": "nonpayable",
      "type": "function"
    },
    {
      "inputs": [
        {
          "internalType": "uint256",
          "name": "_index",
          "type": "uint256"
        }
      ],
      "name": "closeCloseProposal",
      "outputs": [],
      "stateMutability": "nonpayable",
      "type": "function"
    },
    {
      "inputs": [],
      "name": "withdraw",
      "outputs": [],
      "stateMutability": "nonpayable",
      "type": "function"
    },
    {
      "inputs": [
        {
          "internalType": "address",
          "name": "_address",
          "type": "address"
        }
      ],
      "name": "isMember",
      "outputs": [
        {
          "internalType": "bool",
          "name": "",
          "type": "bool"
        }
      ],
      "stateMutability": "view",
      "type": "function",
      "constant": true
    },
    {
      "inputs": [],
      "name": "getStatus",
      "outputs": [
        {
          "internalType": "enum CrowdfundingCampaign.CampaignStatus",
          "name": "",
          "type": "uint8"
        }
      ],
      "stateMutability": "view",
      "type": "function",
      "constant": true
    },
    {
      "inputs": [],
      "name": "getFinalContributions",
      "outputs": [
        {
          "internalType": "uint256",
          "name": "",
          "type": "uint256"
        }
      ],
      "stateMutability": "view",
      "type": "function",
      "constant": true
    },
    {
      "inputs": [],
      "name": "getRemainingContributions",
      "outputs": [
        {
          "internalType": "uint256",
          "name": "",
          "type": "uint256"
        }
      ],
      "stateMutability": "view",
      "type": "function",
      "constant": true
    },
    {
      "inputs": [],
      "name": "getCampaignInfo",
      "outputs": [
        {
          "internalType": "address",
          "name": "",
          "type": "address"
        },
        {
          "internalType": "enum CrowdfundingCampaign.CampaignStatus",
          "name": "",
          "type": "uint8"
        },
        {
          "internalType": "uint256",
          "name": "",
          "type": "uint256"
        },
        {
          "internalType": "uint256",
          "name": "",
          "type": "uint256"
        },
        {
          "internalType": "uint256",
          "name": "",
          "type": "uint256"
        },
        {
          "internalType": "uint256",
          "name": "",
          "type": "uint256"
        },
        {
          "internalType": "uint256",
          "name": "",
          "type": "uint256"
        },
        {
          "internalType": "bool",
          "name": "",
          "type": "bool"
        }
      ],
      "stateMutability": "view",
      "type": "function",
      "constant": true
    },
    {
      "inputs": [
        {
          "internalType": "uint256",
          "name": "_index",
          "type": "uint256"
        }
      ],
      "name": "getProposal",
      "outputs": [
        {
          "internalType": "address",
          "name": "",
          "type": "address"
        },
        {
          "internalType": "uint256",
          "name": "",
          "type": "uint256"
        },
        {
          "internalType": "uint256",
          "name": "",
          "type": "uint256"
        },
        {
          "internalType": "uint256",
          "name": "",
          "type": "uint256"
        },
        {
          "internalType": "enum CrowdfundingCampaign.ProposalStatus",
          "name": "",
          "type": "uint8"
        },
        {
          "internalType": "uint256",
          "name": "",
          "type": "uint256"
        },
        {
          "internalType": "bool",
          "name": "",
          "type": "bool"
        },
        {
          "internalType": "bool",
          "name": "",
          "type": "bool"
        }
      ],
      "stateMutability": "view",
      "type": "function",
      "constant": true
    },
    {
      "inputs": [
        {
          "internalType": "uint256",
          "name": "_index",
          "type": "uint256"
        }
      ],
      "name": "hasVotedProposal",
      "outputs": [
        {
          "internalType": "bool",
          "name": "",
          "type": "bool"
        }
      ],
      "stateMutability": "view",
      "type": "function",
      "constant": true
    },
    {
      "inputs": [],
      "name": "getProposalsCount",
      "outputs": [
        {
          "internalType": "uint256",
          "name": "",
          "type": "uint256"
        }
      ],
      "stateMutability": "view",
      "type": "function",
      "constant": true
    },
    {
      "inputs": [
        {
          "internalType": "uint256",
          "name": "_index",
          "type": "uint256"
        }
      ],
      "name": "getCloseProposal",
      "outputs": [
        {
          "internalType": "uint256",
          "name": "",
          "type": "uint256"
        },
        {
          "internalType": "uint256",
          "name": "",
          "type": "uint256"
        },
        {
          "internalType": "enum CrowdfundingCampaign.ProposalStatus",
          "name": "",
          "type": "uint8"
        },
        {
          "internalType": "uint256",
          "name": "",
          "type": "uint256"
        },
        {
          "internalType": "bool",
          "name": "",
          "type": "bool"
        },
        {
          "internalType": "bool",
          "name": "",
          "type": "bool"
        },
        {
          "internalType": "address",
          "name": "",
          "type": "address"
        }
      ],
      "stateMutability": "view",
      "type": "function",
      "constant": true
    },
    {
      "inputs": [
        {
          "internalType": "uint256",
          "name": "_index",
          "type": "uint256"
        }
      ],
      "name": "hasVotedCloseProposal",
      "outputs": [
        {
          "internalType": "bool",
          "name": "",
          "type": "bool"
        }
      ],
      "stateMutability": "view",
      "type": "function",
      "constant": true
    },
    {
      "inputs": [],
      "name": "getCloseProposalsCount",
      "outputs": [
        {
          "internalType": "uint256",
          "name": "",
          "type": "uint256"
        }
      ],
      "stateMutability": "view",
      "type": "function",
      "constant": true
    }
  ],
  "bytecode": "0x60806040523480156200001157600080fd5b5060405162004ca038038062004ca0833981810160405281019062000037919062000132565b33600060016101000a81548173ffffffffffffffffffffffffffffffffffffffff021916908373ffffffffffffffffffffffffffffffffffffffff160217905550816001819055508260028190555060008060006101000a81548160ff02191690836003811115620000ae57620000ad620001d0565b5b02179055506000600381905550426006819055507f0f627713f9c831a1b079924dedde3308e90d22b754bdd481f9b2165aa0f9dfb981604051620000f391906200019f565b60405180910390a150505062000238565b600081519050620001158162000204565b92915050565b6000815190506200012c816200021e565b92915050565b6000806000606084860312156200014e576200014d620001ff565b5b60006200015e868287016200011b565b935050602062000171868287016200011b565b9250506040620001848682870162000104565b9150509250925092565b6200019981620001bc565b82525050565b6000602082019050620001b660008301846200018e565b92915050565b6000819050919050565b6000819050919050565b7f4e487b7100000000000000000000000000000000000000000000000000000000600052602160045260246000fd5b600080fd5b6200020f81620001bc565b81146200021b57600080fd5b50565b6200022981620001c6565b81146200023557600080fd5b50565b614a5880620002486000396000f3fe60806040526004361061020f5760003560e01c806384980e8311610118578063c8541fe0116100a0578063de3f3ae01161006f578063de3f3ae01461079f578063edbd0db8146107c8578063eeda0518146107f3578063f7268f2f14610830578063fa65a131146108595761020f565b8063c8541fe01461070f578063d6290cd714610738578063d7bb99ba1461076a578063d853ba73146107745761020f565b806398e527d3116100e757806398e527d31461060d5780639c6f0d8514610638578063a230c52414610663578063a7f33715146106a0578063c7f758a8146106cb5761020f565b806384980e831461055357806384b519b91461057c5780638da5cb5b146105b957806398951b56146105e45761020f565b8063401938831161019b5780634de583fb1161016a5780634de583fb1461047c5780634e69d560146104bd5780634f92c925146104e857806351c36c1e14610513578063760a8c2a1461053c5761020f565b8063401938831461039457806342e94c90146103bf57806343a41c8f146103fc57806348179ee51461043f5761020f565b8063200d2ed2116101e2578063200d2ed2146102d5578063297f9af01461030057806337bdc99b1461032b5780633b047a8f146103545780633ccfd60b1461037d5761020f565b80630126f61e14610214578063013cf08b1461023f5780630386a0161461028157806304095005146102aa575b600080fd5b34801561022057600080fd5b50610229610882565b6040516102369190613ff6565b60405180910390f35b34801561024b57600080fd5b506102666004803603810190610261919061375c565b610888565b60405161027896959493929190614011565b60405180910390f35b34801561028d57600080fd5b506102a860048036038101906102a3919061375c565b610901565b005b3480156102b657600080fd5b506102bf610c24565b6040516102cc9190613ff6565b60405180910390f35b3480156102e157600080fd5b506102ea610c31565b6040516102f79190613cfb565b60405180910390f35b34801561030c57600080fd5b50610315610c42565b6040516103229190613ff6565b60405180910390f35b34801561033757600080fd5b50610352600480360381019061034d919061375c565b610c48565b005b34801561036057600080fd5b5061037b6004803603810190610376919061372f565b610ee4565b005b34801561038957600080fd5b50610392611022565b005b3480156103a057600080fd5b506103a961148d565b6040516103b69190613ff6565b60405180910390f35b3480156103cb57600080fd5b506103e660048036038101906103e19190613702565b611493565b6040516103f39190613ff6565b60405180910390f35b34801561040857600080fd5b50610423600480360381019061041e919061375c565b6114ab565b60405161043697969594939291906140c5565b60405180910390f35b34801561044b57600080fd5b5061046660048036038101906104619190613702565b61159e565b6040516104739190613cc5565b60405180910390f35b34801561048857600080fd5b506104a3600480360381019061049e919061375c565b6115be565b6040516104b4959493929190614072565b60405180910390f35b3480156104c957600080fd5b506104d2611631565b6040516104df9190613cfb565b60405180910390f35b3480156104f457600080fd5b506104fd611647565b60405161050a9190613ff6565b60405180910390f35b34801561051f57600080fd5b5061053a60048036038101906105359190613789565b611651565b005b34801561054857600080fd5b5061055161189d565b005b34801561055f57600080fd5b5061057a6004803603810190610575919061375c565b611a45565b005b34801561058857600080fd5b506105a3600480360381019061059e919061375c565b611e38565b6040516105b09190613cc5565b60405180910390f35b3480156105c557600080fd5b506105ce611eb6565b6040516105db9190613b5b565b60405180910390f35b3480156105f057600080fd5b5061060b6004803603810190610606919061375c565b611edc565b005b34801561061957600080fd5b50610622612293565b60405161062f9190613ff6565b60405180910390f35b34801561064457600080fd5b5061064d6122a0565b60405161065a9190613ff6565b60405180910390f35b34801561066f57600080fd5b5061068a60048036038101906106859190613702565b6122a6565b6040516106979190613cc5565b60405180910390f35b3480156106ac57600080fd5b506106b56122f1565b6040516106c29190613ff6565b60405180910390f35b3480156106d757600080fd5b506106f260048036038101906106ed919061375c565b6122f7565b604051610706989796959493929190613bf4565b60405180910390f35b34801561071b57600080fd5b506107366004803603810190610731919061375c565b6123f3565b005b34801561074457600080fd5b5061074d6127aa565b604051610761989796959493929190613b76565b60405180910390f35b61077261282a565b005b34801561078057600080fd5b50610789612a49565b6040516107969190613ff6565b60405180910390f35b3480156107ab57600080fd5b506107c660048036038101906107c1919061375c565b612a4f565b005b3480156107d457600080fd5b506107dd612e7e565b6040516107ea9190613ff6565b60405180910390f35b3480156107ff57600080fd5b5061081a6004803603810190610815919061375c565b612e88565b6040516108279190613cc5565b60405180910390f35b34801561083c57600080fd5b506108576004803603810190610852919061372f565b612f06565b005b34801561086557600080fd5b50610880600480360381019061087b919061375c565b6132d0565b005b60045481565b6009818154811061089857600080fd5b90600052602060002090600702016000915090508060000154908060010160009054906101000a900473ffffffffffffffffffffffffffffffffffffffff16908060020154908060030154908060050160009054906101000a900460ff16908060060154905086565b6000600760003373ffffffffffffffffffffffffffffffffffffffff1673ffffffffffffffffffffffffffffffffffffffff16815260200190815260200160002054118061099c5750600060019054906101000a900473ffffffffffffffffffffffffffffffffffffffff1673ffffffffffffffffffffffffffffffffffffffff163373ffffffffffffffffffffffffffffffffffffffff16145b6109db576040517f08c379a00000000000000000000000000000000000000000000000000000000081526004016109d290613d56565b60405180910390fd5b600160038111156109ef576109ee614369565b5b60008054906101000a900460ff166003811115610a0f57610a0e614369565b5b14610a4f576040517f08c379a0000000000000000000000000000000000000000000000000000000008152600401610a4690613eb6565b60405180910390fd5b8060006003811115610a6457610a63614369565b5b60098281548110610a7857610a77614398565b5b906000526020600020906007020160050160009054906101000a900460ff166003811115610aa957610aa8614369565b5b14610ae9576040517f08c379a0000000000000000000000000000000000000000000000000000000008152600401610ae090613fd6565b60405180910390fd5b8160098181548110610afe57610afd614398565b5b9060005260206000209060070201600601544211610b51576040517f08c379a0000000000000000000000000000000000000000000000000000000008152600401610b4890613f96565b60405180910390fd5b600060098481548110610b6757610b66614398565b5b90600052602060002090600702019050806003015481600201541115610bb95760018160050160006101000a81548160ff02191690836003811115610baf57610bae614369565b5b0217905550610be7565b60028160050160006101000a81548160ff02191690836003811115610be157610be0614369565b5b02179055505b7f887777ccf43690541bed9e00b10d0fccfa7520b11875f09847a57b3085d8ab9284604051610c169190613ff6565b60405180910390a150505050565b6000600a80549050905090565b60008054906101000a900460ff1681565b60035481565b600060019054906101000a900473ffffffffffffffffffffffffffffffffffffffff1673ffffffffffffffffffffffffffffffffffffffff163373ffffffffffffffffffffffffffffffffffffffff1614610cd8576040517f08c379a0000000000000000000000000000000000000000000000000000000008152600401610ccf90613dd6565b60405180910390fd5b60016003811115610cec57610ceb614369565b5b60008054906101000a900460ff166003811115610d0c57610d0b614369565b5b14610d4c576040517f08c379a0000000000000000000000000000000000000000000000000000000008152600401610d4390613eb6565b60405180910390fd5b8060016003811115610d6157610d60614369565b5b60098281548110610d7557610d74614398565b5b906000526020600020906007020160050160009054906101000a900460ff166003811115610da657610da5614369565b5b14610de6576040517f08c379a0000000000000000000000000000000000000000000000000000000008152600401610ddd90613e76565b60405180910390fd5b600060098381548110610dfc57610dfb614398565b5b9060005260206000209060070201905060038160050160006101000a81548160ff02191690836003811115610e3457610e33614369565b5b02179055508060010160009054906101000a900473ffffffffffffffffffffffffffffffffffffffff1673ffffffffffffffffffffffffffffffffffffffff166108fc82600001549081150290604051600060405180830381858888f19350505050158015610ea7573d6000803e3d6000fd5b507fe02fec677757e427d1b6e49fcaf5bb9a6dd94e9fed2a2cc3c764c95deceff5b783604051610ed79190613ff6565b60405180910390a1505050565b600060019054906101000a900473ffffffffffffffffffffffffffffffffffffffff1673ffffffffffffffffffffffffffffffffffffffff163373ffffffffffffffffffffffffffffffffffffffff1614610f74576040517f08c379a0000000000000000000000000000000000000000000000000000000008152600401610f6b90613dd6565b60405180910390fd5b60016003811115610f8857610f87614369565b5b60008054906101000a900460ff166003811115610fa857610fa7614369565b5b14610fe8576040517f08c379a0000000000000000000000000000000000000000000000000000000008152600401610fdf90613eb6565b60405180910390fd5b7f2f8af70d91e96a23b8111e37a9117f7cfe341f51c17759c36475a1a7698f0dc3816040516110179190613ce0565b60405180910390a150565b6000600760003373ffffffffffffffffffffffffffffffffffffffff1673ffffffffffffffffffffffffffffffffffffffff1681526020019081526020016000205411806110bd5750600060019054906101000a900473ffffffffffffffffffffffffffffffffffffffff1673ffffffffffffffffffffffffffffffffffffffff163373ffffffffffffffffffffffffffffffffffffffff16145b6110fc576040517f08c379a00000000000000000000000000000000000000000000000000000000081526004016110f390613d56565b60405180910390fd5b60038081111561110f5761110e614369565b5b60008054906101000a900460ff16600381111561112f5761112e614369565b5b148061116c57506002600381111561114a57611149614369565b5b60008054906101000a900460ff16600381111561116a57611169614369565b5b145b6111ab576040517f08c379a00000000000000000000000000000000000000000000000000000000081526004016111a290613ef6565b60405180910390fd5b600060019054906101000a900473ffffffffffffffffffffffffffffffffffffffff1673ffffffffffffffffffffffffffffffffffffffff163373ffffffffffffffffffffffffffffffffffffffff16141561123c576040517f08c379a000000000000000000000000000000000000000000000000000000000815260040161123390613d96565b60405180910390fd5b600860003373ffffffffffffffffffffffffffffffffffffffff1673ffffffffffffffffffffffffffffffffffffffff16815260200190815260200160002060009054906101000a900460ff16156112c9576040517f08c379a00000000000000000000000000000000000000000000000000000000081526004016112c090613f16565b60405180910390fd5b6000600454600554600760003373ffffffffffffffffffffffffffffffffffffffff1673ffffffffffffffffffffffffffffffffffffffff1681526020019081526020016000205461131b91906141cc565b611325919061419b565b9050478110611369576040517f08c379a000000000000000000000000000000000000000000000000000000000815260040161136090613e56565b60405180910390fd5b3373ffffffffffffffffffffffffffffffffffffffff166108fc829081150290604051600060405180830381858888f193505050501580156113af573d6000803e3d6000fd5b506001600860003373ffffffffffffffffffffffffffffffffffffffff1673ffffffffffffffffffffffffffffffffffffffff16815260200190815260200160002060006101000a81548160ff0219169083151502179055507fa4e42298552baa3282225c552bba5a22b3034cdc0e531fe987c8003a44d95e2933600760003373ffffffffffffffffffffffffffffffffffffffff1673ffffffffffffffffffffffffffffffffffffffff1681526020019081526020016000205460045484600554604051611482959493929190613c72565b60405180910390a150565b60015481565b60076020528060005260406000206000915090505481565b600080600080600080600080600a89815481106114cb576114ca614398565b5b9060005260206000209060060201905060008160040154421115905060008260020160003373ffffffffffffffffffffffffffffffffffffffff1673ffffffffffffffffffffffffffffffffffffffff16815260200190815260200160002060009054906101000a900460ff169050826000015483600101548460030160009054906101000a900460ff16856004015485858860050160009054906101000a900473ffffffffffffffffffffffffffffffffffffffff169950995099509950995099509950505050919395979092949650565b60086020528060005260406000206000915054906101000a900460ff1681565b600a81815481106115ce57600080fd5b90600052602060002090600602016000915090508060000154908060010154908060030160009054906101000a900460ff16908060040154908060050160009054906101000a900473ffffffffffffffffffffffffffffffffffffffff16905085565b60008060009054906101000a900460ff16905090565b6000600554905090565b600060019054906101000a900473ffffffffffffffffffffffffffffffffffffffff1673ffffffffffffffffffffffffffffffffffffffff163373ffffffffffffffffffffffffffffffffffffffff16146116e1576040517f08c379a00000000000000000000000000000000000000000000000000000000081526004016116d890613dd6565b60405180910390fd5b600160038111156116f5576116f4614369565b5b60008054906101000a900460ff16600381111561171557611714614369565b5b14611755576040517f08c379a000000000000000000000000000000000000000000000000000000000815260040161174c90613eb6565b60405180910390fd5b82471015611798576040517f08c379a000000000000000000000000000000000000000000000000000000000815260040161178f90613e16565b60405180910390fd5b600060096001816001815401808255809150500390600052602060002090600702019050828160010160006101000a81548173ffffffffffffffffffffffffffffffffffffffff021916908373ffffffffffffffffffffffffffffffffffffffff160217905550838160000181905550600081600201819055506000816003018190555060008160050160006101000a81548160ff0219169083600381111561184457611843614369565b5b021790555062093a80426118589190614145565b81600601819055507f288a29bca04edb18fcdb2c76d6e3b03b8a137c85c70d1a4cb8aacfa868d605108260405161188f9190613ce0565b60405180910390a150505050565b600060019054906101000a900473ffffffffffffffffffffffffffffffffffffffff1673ffffffffffffffffffffffffffffffffffffffff163373ffffffffffffffffffffffffffffffffffffffff161461192d576040517f08c379a000000000000000000000000000000000000000000000000000000000815260040161192490613dd6565b60405180910390fd5b6000600381111561194157611940614369565b5b60008054906101000a900460ff16600381111561196157611960614369565b5b146119a1576040517f08c379a000000000000000000000000000000000000000000000000000000000815260040161199890613f56565b60405180910390fd5b6001544710156119e6576040517f08c379a00000000000000000000000000000000000000000000000000000000081526004016119dd90613e96565b60405180910390fd5b60016000806101000a81548160ff02191690836003811115611a0b57611a0a614369565b5b0217905550476004819055507fe283e942d53c4322165eacc7a597c86cdbc698c96321f57a82b29c615810a69560405160405180910390a1565b6000600760003373ffffffffffffffffffffffffffffffffffffffff1673ffffffffffffffffffffffffffffffffffffffff168152602001908152602001600020541180611ae05750600060019054906101000a900473ffffffffffffffffffffffffffffffffffffffff1673ffffffffffffffffffffffffffffffffffffffff163373ffffffffffffffffffffffffffffffffffffffff16145b611b1f576040517f08c379a0000000000000000000000000000000000000000000000000000000008152600401611b1690613d56565b60405180910390fd5b60016003811115611b3357611b32614369565b5b60008054906101000a900460ff166003811115611b5357611b52614369565b5b1480611b90575060006003811115611b6e57611b6d614369565b5b60008054906101000a900460ff166003811115611b8e57611b8d614369565b5b145b611bcf576040517f08c379a0000000000000000000000000000000000000000000000000000000008152600401611bc690613f76565b60405180910390fd5b8060006003811115611be457611be3614369565b5b600a8281548110611bf857611bf7614398565b5b906000526020600020906006020160030160009054906101000a900460ff166003811115611c2957611c28614369565b5b14611c69576040517f08c379a0000000000000000000000000000000000000000000000000000000008152600401611c6090613fb6565b60405180910390fd5b81600a8181548110611c7e57611c7d614398565b5b906000526020600020906006020160040154421115611cd2576040517f08c379a0000000000000000000000000000000000000000000000000000000008152600401611cc990613e36565b60405180910390fd5b6000600a8481548110611ce857611ce7614398565b5b906000526020600020906006020190508060020160003373ffffffffffffffffffffffffffffffffffffffff1673ffffffffffffffffffffffffffffffffffffffff16815260200190815260200160002060009054906101000a900460ff1615611d87576040517f08c379a0000000000000000000000000000000000000000000000000000000008152600401611d7e90613f36565b60405180910390fd5b60018160020160003373ffffffffffffffffffffffffffffffffffffffff1673ffffffffffffffffffffffffffffffffffffffff16815260200190815260200160002060006101000a81548160ff021916908315150217905550806000016000815480929190611df6906142c2565b91905055507f53c1eb0055cc9dbfe4823171931d9ec63b8682244ed5778661bb94ba2075f8c684604051611e2a9190613ff6565b60405180910390a150505050565b600080600a8381548110611e4f57611e4e614398565b5b906000526020600020906006020190508060020160003373ffffffffffffffffffffffffffffffffffffffff1673ffffffffffffffffffffffffffffffffffffffff16815260200190815260200160002060009054906101000a900460ff16915050919050565b600060019054906101000a900473ffffffffffffffffffffffffffffffffffffffff1681565b6000600760003373ffffffffffffffffffffffffffffffffffffffff1673ffffffffffffffffffffffffffffffffffffffff168152602001908152602001600020541180611f775750600060019054906101000a900473ffffffffffffffffffffffffffffffffffffffff1673ffffffffffffffffffffffffffffffffffffffff163373ffffffffffffffffffffffffffffffffffffffff16145b611fb6576040517f08c379a0000000000000000000000000000000000000000000000000000000008152600401611fad90613d56565b60405180910390fd5b60016003811115611fca57611fc9614369565b5b60008054906101000a900460ff166003811115611fea57611fe9614369565b5b1461202a576040517f08c379a000000000000000000000000000000000000000000000000000000000815260040161202190613eb6565b60405180910390fd5b806000600381111561203f5761203e614369565b5b6009828154811061205357612052614398565b5b906000526020600020906007020160050160009054906101000a900460ff16600381111561208457612083614369565b5b146120c4576040517f08c379a00000000000000000000000000000000000000000000000000000000081526004016120bb90613fd6565b60405180910390fd5b81600981815481106120d9576120d8614398565b5b90600052602060002090600702016006015442111561212d576040517f08c379a000000000000000000000000000000000000000000000000000000000815260040161212490613df6565b60405180910390fd5b60006009848154811061214357612142614398565b5b906000526020600020906007020190508060040160003373ffffffffffffffffffffffffffffffffffffffff1673ffffffffffffffffffffffffffffffffffffffff16815260200190815260200160002060009054906101000a900460ff16156121e2576040517f08c379a00000000000000000000000000000000000000000000000000000000081526004016121d990613ed6565b60405180910390fd5b60018160040160003373ffffffffffffffffffffffffffffffffffffffff1673ffffffffffffffffffffffffffffffffffffffff16815260200190815260200160002060006101000a81548160ff021916908315150217905550806002016000815480929190612251906142c2565b91905055507f26b645fdecdf266f3abc5b7ae3e796ffd297febba8bd3a8ad49c68435190fc69846040516122859190613ff6565b60405180910390a150505050565b6000600980549050905090565b60065481565b600080600760008473ffffffffffffffffffffffffffffffffffffffff1673ffffffffffffffffffffffffffffffffffffffff16815260200190815260200160002054119050919050565b60025481565b600080600080600080600080600060098a8154811061231957612318614398565b5b9060005260206000209060070201905060008160060154421115905060008260040160003373ffffffffffffffffffffffffffffffffffffffff1673ffffffffffffffffffffffffffffffffffffffff16815260200190815260200160002060009054906101000a900460ff1690508260010160009054906101000a900473ffffffffffffffffffffffffffffffffffffffff168360000154846002015485600301548660050160009054906101000a900460ff16876006015487879a509a509a509a509a509a509a509a50505050919395975091939597565b6000600760003373ffffffffffffffffffffffffffffffffffffffff1673ffffffffffffffffffffffffffffffffffffffff16815260200190815260200160002054118061248e5750600060019054906101000a900473ffffffffffffffffffffffffffffffffffffffff1673ffffffffffffffffffffffffffffffffffffffff163373ffffffffffffffffffffffffffffffffffffffff16145b6124cd576040517f08c379a00000000000000000000000000000000000000000000000000000000081526004016124c490613d56565b60405180910390fd5b600160038111156124e1576124e0614369565b5b60008054906101000a900460ff16600381111561250157612500614369565b5b14612541576040517f08c379a000000000000000000000000000000000000000000000000000000000815260040161253890613eb6565b60405180910390fd5b806000600381111561255657612555614369565b5b6009828154811061256a57612569614398565b5b906000526020600020906007020160050160009054906101000a900460ff16600381111561259b5761259a614369565b5b146125db576040517f08c379a00000000000000000000000000000000000000000000000000000000081526004016125d290613fd6565b60405180910390fd5b81600981815481106125f0576125ef614398565b5b906000526020600020906007020160060154421115612644576040517f08c379a000000000000000000000000000000000000000000000000000000000815260040161263b90613df6565b60405180910390fd5b60006009848154811061265a57612659614398565b5b906000526020600020906007020190508060040160003373ffffffffffffffffffffffffffffffffffffffff1673ffffffffffffffffffffffffffffffffffffffff16815260200190815260200160002060009054906101000a900460ff16156126f9576040517f08c379a00000000000000000000000000000000000000000000000000000000081526004016126f090613ed6565b60405180910390fd5b60018160040160003373ffffffffffffffffffffffffffffffffffffffff1673ffffffffffffffffffffffffffffffffffffffff16815260200190815260200160002060006101000a81548160ff021916908315150217905550806003016000815480929190612768906142c2565b91905055507f26b645fdecdf266f3abc5b7ae3e796ffd297febba8bd3a8ad49c68435190fc698460405161279c9190613ff6565b60405180910390a150505050565b600080600080600080600080600042621275006006546127ca9190614145565b11159050600060019054906101000a900473ffffffffffffffffffffffffffffffffffffffff1660008054906101000a900460ff166001546002546003546004546005548798509850985098509850985098509850509091929394959697565b6000600760003373ffffffffffffffffffffffffffffffffffffffff1673ffffffffffffffffffffffffffffffffffffffff168152602001908152602001600020541480156128c75750600060019054906101000a900473ffffffffffffffffffffffffffffffffffffffff1673ffffffffffffffffffffffffffffffffffffffff163373ffffffffffffffffffffffffffffffffffffffff1614155b612906576040517f08c379a00000000000000000000000000000000000000000000000000000000081526004016128fd90613d76565b60405180910390fd5b6000600381111561291a57612919614369565b5b60008054906101000a900460ff16600381111561293a57612939614369565b5b1461297a576040517f08c379a000000000000000000000000000000000000000000000000000000000815260040161297190613f56565b60405180910390fd5b6002543410156129bf576040517f08c379a00000000000000000000000000000000000000000000000000000000081526004016129b690613d36565b60405180910390fd5b34600760003373ffffffffffffffffffffffffffffffffffffffff1673ffffffffffffffffffffffffffffffffffffffff1681526020019081526020016000208190555060036000815480929190612a16906142c2565b91905055507f0673e22453ca22ab66c750388a377485c2d57a19fb171f1442f45e933d5e841860405160405180910390a1565b60055481565b6000600760003373ffffffffffffffffffffffffffffffffffffffff1673ffffffffffffffffffffffffffffffffffffffff168152602001908152602001600020541180612aea5750600060019054906101000a900473ffffffffffffffffffffffffffffffffffffffff1673ffffffffffffffffffffffffffffffffffffffff163373ffffffffffffffffffffffffffffffffffffffff16145b612b29576040517f08c379a0000000000000000000000000000000000000000000000000000000008152600401612b2090613d56565b60405180910390fd5b60016003811115612b3d57612b3c614369565b5b60008054906101000a900460ff166003811115612b5d57612b5c614369565b5b1480612b9a575060006003811115612b7857612b77614369565b5b60008054906101000a900460ff166003811115612b9857612b97614369565b5b145b612bd9576040517f08c379a0000000000000000000000000000000000000000000000000000000008152600401612bd090613f76565b60405180910390fd5b8060006003811115612bee57612bed614369565b5b600a8281548110612c0257612c01614398565b5b906000526020600020906006020160030160009054906101000a900460ff166003811115612c3357612c32614369565b5b14612c73576040517f08c379a0000000000000000000000000000000000000000000000000000000008152600401612c6a90613fb6565b60405180910390fd5b81600a8181548110612c8857612c87614398565b5b9060005260206000209060060201600401544211612cdb576040517f08c379a0000000000000000000000000000000000000000000000000000000008152600401612cd290613db6565b60405180910390fd5b6000600a8481548110612cf157612cf0614398565b5b90600052602060002090600602019050806001015481600001541115612e1e57600060019054906101000a900473ffffffffffffffffffffffffffffffffffffffff1673ffffffffffffffffffffffffffffffffffffffff168160050160009054906101000a900473ffffffffffffffffffffffffffffffffffffffff1673ffffffffffffffffffffffffffffffffffffffff161415612dba5760036000806101000a81548160ff02191690836003811115612db057612daf614369565b5b0217905550612de5565b60026000806101000a81548160ff02191690836003811115612ddf57612dde614369565b5b02179055505b60018160030160006101000a81548160ff02191690836003811115612e0d57612e0c614369565b5b021790555047600581905550612e4c565b60028160030160006101000a81548160ff02191690836003811115612e4657612e45614369565b5b02179055505b7fe283e942d53c4322165eacc7a597c86cdbc698c96321f57a82b29c615810a69560405160405180910390a150505050565b6000600454905090565b60008060098381548110612e9f57612e9e614398565b5b906000526020600020906007020190508060040160003373ffffffffffffffffffffffffffffffffffffffff1673ffffffffffffffffffffffffffffffffffffffff16815260200190815260200160002060009054906101000a900460ff16915050919050565b6000600760003373ffffffffffffffffffffffffffffffffffffffff1673ffffffffffffffffffffffffffffffffffffffff168152602001908152602001600020541180612fa15750600060019054906101000a900473ffffffffffffffffffffffffffffffffffffffff1673ffffffffffffffffffffffffffffffffffffffff163373ffffffffffffffffffffffffffffffffffffffff16145b612fe0576040517f08c379a0000000000000000000000000000000000000000000000000000000008152600401612fd790613d56565b60405180910390fd5b60016003811115612ff457612ff3614369565b5b60008054906101000a900460ff16600381111561301457613013614369565b5b148061305157506000600381111561302f5761302e614369565b5b60008054906101000a900460ff16600381111561304f5761304e614369565b5b145b613090576040517f08c379a000000000000000000000000000000000000000000000000000000000815260040161308790613f76565b60405180910390fd5b600042621275006006546130a49190614145565b111580156130e35750600060038111156130c1576130c0614369565b5b60008054906101000a900460ff1660038111156130e1576130e0614369565b5b145b90508080613122575060016003811115613100576130ff614369565b5b60008054906101000a900460ff1660038111156131205761311f614369565b5b145b613161576040517f08c379a000000000000000000000000000000000000000000000000000000000815260040161315890613d16565b60405180910390fd5b6000600a6001816001815401808255809150500390600052602060002090600602019050600081600001819055506000816001018190555060008160030160006101000a81548160ff021916908360038111156131c1576131c0614369565b5b021790555062093a80426131d59190614145565b8160040181905550338160050160006101000a81548173ffffffffffffffffffffffffffffffffffffffff021916908373ffffffffffffffffffffffffffffffffffffffff16021790555060018160020160003373ffffffffffffffffffffffffffffffffffffffff1673ffffffffffffffffffffffffffffffffffffffff16815260200190815260200160002060006101000a81548160ff02191690831515021790555080600001600081548092919061328f906142c2565b91905055507fd652a200abc8c9e3e659b36ee1d1c81a25a3cd454afdb8cede6431e74906497c836040516132c39190613ce0565b60405180910390a1505050565b6000600760003373ffffffffffffffffffffffffffffffffffffffff1673ffffffffffffffffffffffffffffffffffffffff16815260200190815260200160002054118061336b5750600060019054906101000a900473ffffffffffffffffffffffffffffffffffffffff1673ffffffffffffffffffffffffffffffffffffffff163373ffffffffffffffffffffffffffffffffffffffff16145b6133aa576040517f08c379a00000000000000000000000000000000000000000000000000000000081526004016133a190613d56565b60405180910390fd5b600160038111156133be576133bd614369565b5b60008054906101000a900460ff1660038111156133de576133dd614369565b5b148061341b5750600060038111156133f9576133f8614369565b5b60008054906101000a900460ff16600381111561341957613418614369565b5b145b61345a576040517f08c379a000000000000000000000000000000000000000000000000000000000815260040161345190613f76565b60405180910390fd5b806000600381111561346f5761346e614369565b5b600a828154811061348357613482614398565b5b906000526020600020906006020160030160009054906101000a900460ff1660038111156134b4576134b3614369565b5b146134f4576040517f08c379a00000000000000000000000000000000000000000000000000000000081526004016134eb90613fb6565b60405180910390fd5b81600a818154811061350957613508614398565b5b90600052602060002090600602016004015442111561355d576040517f08c379a000000000000000000000000000000000000000000000000000000000815260040161355490613e36565b60405180910390fd5b6000600a848154811061357357613572614398565b5b906000526020600020906006020190508060020160003373ffffffffffffffffffffffffffffffffffffffff1673ffffffffffffffffffffffffffffffffffffffff16815260200190815260200160002060009054906101000a900460ff1615613612576040517f08c379a000000000000000000000000000000000000000000000000000000000815260040161360990613f36565b60405180910390fd5b60018160020160003373ffffffffffffffffffffffffffffffffffffffff1673ffffffffffffffffffffffffffffffffffffffff16815260200190815260200160002060006101000a81548160ff021916908315150217905550806001016000815480929190613681906142c2565b91905055507f53c1eb0055cc9dbfe4823171931d9ec63b8682244ed5778661bb94ba2075f8c6846040516136b59190613ff6565b60405180910390a150505050565b6000813590506136d2816149dd565b92915050565b6000813590506136e7816149f4565b92915050565b6000813590506136fc81614a0b565b92915050565b600060208284031215613718576137176143c7565b5b6000613726848285016136c3565b91505092915050565b600060208284031215613745576137446143c7565b5b6000613753848285016136d8565b91505092915050565b600060208284031215613772576137716143c7565b5b6000613780848285016136ed565b91505092915050565b6000806000606084860312156137a2576137a16143c7565b5b60006137b0868287016136ed565b93505060206137c1868287016136c3565b92505060406137d2868287016136d8565b9150509250925092565b6137e581614226565b82525050565b6137f481614238565b82525050565b61380381614244565b82525050565b6138128161429e565b82525050565b613821816142b0565b82525050565b6000613834602b83614134565b915061383f826143cc565b604082019050919050565b6000613857601f83614134565b91506138628261441b565b602082019050919050565b600061387a601783614134565b915061388582614444565b602082019050919050565b600061389d601b83614134565b91506138a88261446d565b602082019050919050565b60006138c0601483614134565b91506138cb82614496565b602082019050919050565b60006138e3602c83614134565b91506138ee826144bf565b604082019050919050565b6000613906601883614134565b91506139118261450e565b602082019050919050565b6000613929602183614134565b915061393482614537565b604082019050919050565b600061394c601b83614134565b915061395782614586565b602082019050919050565b600061396f602783614134565b915061397a826145af565b604082019050919050565b6000613992602383614134565b915061399d826145fe565b604082019050919050565b60006139b5601d83614134565b91506139c08261464d565b602082019050919050565b60006139d8602283614134565b91506139e382614676565b604082019050919050565b60006139fb602283614134565b9150613a06826146c5565b604082019050919050565b6000613a1e603183614134565b9150613a2982614714565b604082019050919050565b6000613a41602583614134565b9150613a4c82614763565b604082019050919050565b6000613a64602383614134565b9150613a6f826147b2565b604082019050919050565b6000613a87603783614134565b9150613a9282614801565b604082019050919050565b6000613aaa602383614134565b9150613ab582614850565b604082019050919050565b6000613acd601e83614134565b9150613ad88261489f565b602082019050919050565b6000613af0602683614134565b9150613afb826148c8565b604082019050919050565b6000613b13602883614134565b9150613b1e82614917565b604082019050919050565b6000613b36602283614134565b9150613b4182614966565b604082019050919050565b613b5581614294565b82525050565b6000602082019050613b7060008301846137dc565b92915050565b600061010082019050613b8c600083018b6137dc565b613b99602083018a613809565b613ba66040830189613b4c565b613bb36060830188613b4c565b613bc06080830187613b4c565b613bcd60a0830186613b4c565b613bda60c0830185613b4c565b613be760e08301846137eb565b9998505050505050505050565b600061010082019050613c0a600083018b6137dc565b613c17602083018a613b4c565b613c246040830189613b4c565b613c316060830188613b4c565b613c3e6080830187613818565b613c4b60a0830186613b4c565b613c5860c08301856137eb565b613c6560e08301846137eb565b9998505050505050505050565b600060a082019050613c8760008301886137dc565b613c946020830187613b4c565b613ca16040830186613b4c565b613cae6060830185613b4c565b613cbb6080830184613b4c565b9695505050505050565b6000602082019050613cda60008301846137eb565b92915050565b6000602082019050613cf560008301846137fa565b92915050565b6000602082019050613d106000830184613809565b92915050565b60006020820190508181036000830152613d2f81613827565b9050919050565b60006020820190508181036000830152613d4f8161384a565b9050919050565b60006020820190508181036000830152613d6f8161386d565b9050919050565b60006020820190508181036000830152613d8f81613890565b9050919050565b60006020820190508181036000830152613daf816138b3565b9050919050565b60006020820190508181036000830152613dcf816138d6565b9050919050565b60006020820190508181036000830152613def816138f9565b9050919050565b60006020820190508181036000830152613e0f8161391c565b9050919050565b60006020820190508181036000830152613e2f8161393f565b9050919050565b60006020820190508181036000830152613e4f81613962565b9050919050565b60006020820190508181036000830152613e6f81613985565b9050919050565b60006020820190508181036000830152613e8f816139a8565b9050919050565b60006020820190508181036000830152613eaf816139cb565b9050919050565b60006020820190508181036000830152613ecf816139ee565b9050919050565b60006020820190508181036000830152613eef81613a11565b9050919050565b60006020820190508181036000830152613f0f81613a34565b9050919050565b60006020820190508181036000830152613f2f81613a57565b9050919050565b60006020820190508181036000830152613f4f81613a7a565b9050919050565b60006020820190508181036000830152613f6f81613a9d565b9050919050565b60006020820190508181036000830152613f8f81613ac0565b9050919050565b60006020820190508181036000830152613faf81613ae3565b9050919050565b60006020820190508181036000830152613fcf81613b06565b9050919050565b60006020820190508181036000830152613fef81613b29565b9050919050565b600060208201905061400b6000830184613b4c565b92915050565b600060c0820190506140266000830189613b4c565b61403360208301886137dc565b6140406040830187613b4c565b61404d6060830186613b4c565b61405a6080830185613818565b61406760a0830184613b4c565b979650505050505050565b600060a0820190506140876000830188613b4c565b6140946020830187613b4c565b6140a16040830186613818565b6140ae6060830185613b4c565b6140bb60808301846137dc565b9695505050505050565b600060e0820190506140da600083018a613b4c565b6140e76020830189613b4c565b6140f46040830188613818565b6141016060830187613b4c565b61410e60808301866137eb565b61411b60a08301856137eb565b61412860c08301846137dc565b98975050505050505050565b600082825260208201905092915050565b600061415082614294565b915061415b83614294565b9250827fffffffffffffffffffffffffffffffffffffffffffffffffffffffffffffffff038211156141905761418f61430b565b5b828201905092915050565b60006141a682614294565b91506141b183614294565b9250826141c1576141c061433a565b5b828204905092915050565b60006141d782614294565b91506141e283614294565b9250817fffffffffffffffffffffffffffffffffffffffffffffffffffffffffffffffff048311821515161561421b5761421a61430b565b5b828202905092915050565b600061423182614274565b9050919050565b60008115159050919050565b6000819050919050565b600081905061425c826149b5565b919050565b600081905061426f826149c9565b919050565b600073ffffffffffffffffffffffffffffffffffffffff82169050919050565b6000819050919050565b60006142a98261424e565b9050919050565b60006142bb82614261565b9050919050565b60006142cd82614294565b91507fffffffffffffffffffffffffffffffffffffffffffffffffffffffffffffffff821415614300576142ff61430b565b5b600182019050919050565b7f4e487b7100000000000000000000000000000000000000000000000000000000600052601160045260246000fd5b7f4e487b7100000000000000000000000000000000000000000000000000000000600052601260045260246000fd5b7f4e487b7100000000000000000000000000000000000000000000000000000000600052602160045260246000fd5b7f4e487b7100000000000000000000000000000000000000000000000000000000600052603260045260246000fd5b600080fd5b7f5468652063616d7061696e672063726561746564206d7573742068617665203160008201527f342064617973206f6c642e000000000000000000000000000000000000000000602082015250565b7f54686520636f6e747269627574696f6e20697320696e737566696369656e7400600082015250565b7f53656e646572206973206e6f742061206d656d6265722e000000000000000000600082015250565b7f53656e64657220697320616c72656164792061206d656d6265722e0000000000600082015250565b7f53656e64657220697320746865206f776e65722e000000000000000000000000600082015250565b7f54686520636c6f73652070726f706f73616c206973207374696c6c206f70656e60008201527f20666f7220766f74696e672e0000000000000000000000000000000000000000602082015250565b7f53656e646572206973206e6f7420746865206f776e65722e0000000000000000600082015250565b7f5468652070726f706f73616c20697320636c6f736520666f7220766f74696e6760008201527f2e00000000000000000000000000000000000000000000000000000000000000602082015250565b7f54686520666f756e64732061726520696e73756666696369656e740000000000600082015250565b7f54686520636c6f73652070726f706f73616c20697320636c6f736520666f722060008201527f766f74696e672e00000000000000000000000000000000000000000000000000602082015250565b7f5061796d656e742063616e2774206265206d6f7265207468616e2062616c616e60008201527f63652e0000000000000000000000000000000000000000000000000000000000602082015250565b7f5468652070726f706f73616c206973206e6f7420617070726f7665642e000000600082015250565b7f54686520636f6e747269627574696f6e732061726520696e737566666963696560008201527f6e74000000000000000000000000000000000000000000000000000000000000602082015250565b7f5468652063616d706169676e20737461747573206973206e6f7420616374697660008201527f652e000000000000000000000000000000000000000000000000000000000000602082015250565b7f5468652070726f706f73616c20686173206265656e20616c726561647920766f60008201527f746564206279207468652073656e646572000000000000000000000000000000602082015250565b7f5468652063616d706169676e20737461747573206973206e6f7420636c6f736560008201527f207965742e000000000000000000000000000000000000000000000000000000602082015250565b7f53656e64657220616c72656164792077697468647261772068697320666f756e60008201527f64732e0000000000000000000000000000000000000000000000000000000000602082015250565b7f54686520636c6f73652070726f706f73616c20686173206265656e20616c726560008201527f61647920766f746564206279207468652073656e646572000000000000000000602082015250565b7f5468652063616d706169676e20737461747573206973206e6f7420637265617460008201527f65642e0000000000000000000000000000000000000000000000000000000000602082015250565b7f5468652063616d706169676e2073746174757320697320434c4f5345442e0000600082015250565b7f5468652070726f706f73616c206973207374696c6c206f70656e20666f72207660008201527f6f74696e672e0000000000000000000000000000000000000000000000000000602082015250565b7f54686520636c6f73652070726f706f73616c206973206e6f74206c6f6e67657260008201527f206163746976652e000000000000000000000000000000000000000000000000602082015250565b7f5468652070726f706f73616c206973206e6f74206c6f6e67657220616374697660008201527f652e000000000000000000000000000000000000000000000000000000000000602082015250565b600481106149c6576149c5614369565b5b50565b600481106149da576149d9614369565b5b50565b6149e681614226565b81146149f157600080fd5b50565b6149fd81614244565b8114614a0857600080fd5b50565b614a1481614294565b8114614a1f57600080fd5b5056fea2646970667358221220b22a55e13a972d07464fe5e483aef17da39667b961d08375e5fc32e55dc81ed964736f6c63430008060033",
  "immutableReferences": {},
  "source": "//SPDX-License-Identifier: GPL-3.0-only\npragma solidity ^0.8.0;\n\ncontract CrowdfundingCampaign {\n\n    /* Enums */\n\n    enum CampaignStatus { CREATED, ACTIVE, FAIL, SUCCESSFUL }\n    enum ProposalStatus { ACTIVE, APPROVED, DISAPPROVED, SUCCESSFUL }\n\n    \n    /* Structs */\n\n    /** @dev Struct proposal\n        This struct represents the proposals that only owner can make to get more founds.\n    **/\n    struct Proposal {\n        uint value;\n        address recipient;\n        uint approvalsCount;\n        uint disapprovalsCount;\n        mapping(address => bool) voters;\n        ProposalStatus status;\n        uint limitTime;\n    }\n\n    /** @dev Struct close proposal\n        This struct represents the proposal that members can make to get their founds back.\n    **/\n    struct CloseProposal {\n        uint approvalsCount;\n        uint disapprovalsCount;\n        mapping(address => bool) voters;\n        ProposalStatus status;\n        uint limitTime;\n        address author;\n    }\n\n    /* Storage */\n\n    CampaignStatus public status;\n    \n    address public owner;\n    \n    uint public goal;\n    uint public minimunContribution;\n    uint public membersCount;\n    uint public finalContributions;\n    uint public remainingContributions;\n    uint public created_at;\n    \n    mapping(address => uint) public contributions;\n    mapping(address => bool) public withdraws;\n    \n    Proposal[] public proposals;\n    CloseProposal[] public closeProposals;\n    \n\n    /** @dev Constructor.\n     *  @param _minimunContribution minimum contribution in wei that a person has to make to become a member.\n     *  @param _goal goal in wei that the proyect has to reach to be succesfull.\n     *  @param _ipfshash The url hash of the campaign data previusly stored in IPFS.\n    **/\n    constructor(uint _minimunContribution, uint _goal, bytes32 _ipfshash) {\n        owner = msg.sender;\n        goal = _goal;\n        minimunContribution = _minimunContribution;\n        status = CampaignStatus.CREATED;\n        membersCount = 0;\n        created_at = block.timestamp;\n\n        emit CampaignCreated(_ipfshash);\n    }\n\n\n    /* Modifiers */\n\n    modifier restricted() { \n        require( msg.sender==owner, \"Sender is not the owner.\" ); \n        _; \n    }\n\n    modifier membering() { \n        require( (contributions[msg.sender]>0) || (msg.sender == owner), \n            \"Sender is not a member.\" ); \n        _; \n    }\n\n    modifier notMembering() { \n        require( (contributions[msg.sender]==0) && (msg.sender != owner),\n            \"Sender is already a member.\" );\n         _; \n    }\n\n    modifier statusCreated() { \n        require( status == CampaignStatus.CREATED, \n            \"The campaign status is not created.\" ); \n        _; \n    }\n\n    modifier statusActive() { \n        require( status == CampaignStatus.ACTIVE, \n            \"The campaign status is not active.\" ); \n        _; \n    }\n\n    modifier statusClosed() { \n        require( status == CampaignStatus.SUCCESSFUL || status == CampaignStatus.FAIL, \n            \"The campaign status is not close yet.\" ); \n        _; \n    }\n\n    modifier proposalActive(uint _index) { \n        require( proposals[_index].status == ProposalStatus.ACTIVE, \n            \"The proposal is not longer active.\" ); \n        _; \n    }\n\n    modifier proposalApproved(uint _index) { \n        require( proposals[_index].status == ProposalStatus.APPROVED,\n            \"The proposal is not approved.\" ); \n        _; \n    }\n\n    modifier beInTimeProposal(uint _index) { \n        require ( block.timestamp <= proposals[_index].limitTime, \n            \"The proposal is close for voting.\" ); \n        _; \n    }\n\n    modifier passedTimeProposal(uint _index) { \n        require ( block.timestamp > proposals[_index].limitTime, \n            \"The proposal is still open for voting.\" ); \n        _; \n    }\n    modifier statusNotClosed() {\n        require( status == CampaignStatus.ACTIVE || status == CampaignStatus.CREATED,\n            \"The campaign status is CLOSED.\" );\n        _;\n    }\n\n    modifier closeProposalActive(uint _index) {\n        require( closeProposals[_index].status == ProposalStatus.ACTIVE,\n            \"The close proposal is not longer active.\" );\n        _;\n    }\n\n    modifier closeProposalApproved(uint _index) {\n        require( closeProposals[_index].status == ProposalStatus.APPROVED,\n            \"The close proposal is not approved.\" );\n        _;\n    }\n\n    modifier beInTimeCloseProposal(uint _index) { \n        require ( block.timestamp <= closeProposals[_index].limitTime, \n            \"The close proposal is close for voting.\" ); \n        _; \n    }\n\n    modifier passedTimeCloseProposal(uint _index) { \n        require ( block.timestamp > closeProposals[_index].limitTime, \n            \"The close proposal is still open for voting.\" ); \n        _; \n    }\n\n\n    /* Events */\n\n    /** @dev Emitted when the author creates the campaign.\n     *  @param _ipfshash The url hash of the campaign data stored in IPFS.\n     */\n    event CampaignCreated(bytes32 _ipfshash);\n\n    /** @dev Emitted when a new person contributes with the campaign.\n     */\n    event NewContribution();\n\n    /** @dev Emitted when the author creates a proposal to free founds.\n     *  @param _ipfshash The url hash of the proposal data stored in IPFS.\n     */\n    event ProposalCreated(bytes32 _ipfshash);\n\n     /** @dev Emitted when a proposal is voted.\n     *  @param _index The index of the proposal.\n     */\n    event ProposalVoted(uint _index);\n\n    /** @dev Emitted when a proposal is Closed.\n     *  @param _index The index of the proposal.\n     */\n    event ProposalClosed(uint _index);\n\n    /** @dev Emitted when a proposal was release.\n     *  @param _index The index of the proposal.\n     */\n    event ProposalRelease(uint _index);\n\n     /** @dev Emitted when a member creates a proposal to close the campaign and get the founds back.\n     *  @param _ipfshash The url hash of the close proposal data stored in IPFS.\n     */\n    event CloseProposalCreated(bytes32 _ipfshash);\n\n    /** @dev Emitted when a close proposal is voted.\n     *  @param _index The index of the close proposal.\n     */\n    event CloseProposalVoted(uint _index);\n\n    /** @dev Emitted when a  close proposal is Closed.\n     *  @param _index The index of the close proposal.\n     */\n    event CloseProposalClosed(uint _index);\n\n    /** @dev Emitted when the author creates a progress update to show how the proyect is going.\n     *  @param _ipfshash The url hash of the progress update data stored in IPFS.\n     */\n    event ProgressUpdate(bytes32 _ipfshash);\n\n    /** @dev Emitted when the status of the campaign change.\n     */\n    event ChangeStatusCampaign();\n\n    /** @dev Emitted when a member withdraw his founds.\n     */\n    event withdrawFounds(address _member, uint contribution, uint goal, uint256 payment, uint founds);\n\n\n    /* Functions */\n\n    /** @dev Allow not members to contribute with the campaign and be a member of it.\n     */\n    function contribute() public notMembering statusCreated payable {\n        require(msg.value >= minimunContribution, \"The contribution is insuficient\");\n        contributions[msg.sender] = msg.value;\n        membersCount++;\n        emit NewContribution();\n    }\n\n    /** @dev Allow only owner to change the status of the cCampaign from CREATED to ACTIVE.\n     */\n    function setActive() public restricted statusCreated {\n        \n        require(address(this).balance >= goal,\"The contributions are insufficient\");\n        status = CampaignStatus.ACTIVE;\n        finalContributions = address(this).balance;\n\n        emit ChangeStatusCampaign();\n         \n    }\n\n    /** @dev Allow only owner to save a new progress Update data ipfs hash.\n     *  @param _ipfshash url hash of the progress update data (description and pictures) previusly stored in IPFS.\n     */\n    function saveProgressUpdate(bytes32 _ipfshash) \n        public restricted statusActive {\n        emit ProgressUpdate(_ipfshash); \n    }\n\n    /** @dev Allow only owner to create a new proposal to get more founds.\n     *  @param _value founds in wei that the owner want to release.\n     *  @param _recipient address where the founds are going to be after release them.\n     *  @param _ipfshash url hash of the proposal data (description and pictures) previusly stored in IPFS.\n     */\n    function createProposal(uint _value, address _recipient, bytes32 _ipfshash) \n        public restricted statusActive {\n\n        require(address(this).balance >= _value, \"The founds are insufficient\");\n\n        Proposal storage newProposal = proposals.push();\n        newProposal.recipient = _recipient;\n        newProposal.value = _value;\n        newProposal.approvalsCount = 0;\n        newProposal.disapprovalsCount = 0;\n        newProposal.status = ProposalStatus.ACTIVE;\n        newProposal.limitTime= block.timestamp + 7 days;\n\n        emit ProposalCreated(_ipfshash);\n        \n    }\n\n    /** @dev Allow only members to approve an active proposal that they haven't voted before.\n     *  @param _index index of the proposal the member wants to approve.\n     */\n    function approveProposal(uint _index) public membering statusActive proposalActive(_index) beInTimeProposal(_index) {\n\n        Proposal storage proposal = proposals[_index];\n        require(!proposal.voters[msg.sender], \"The proposal has been already voted by the sender\");\n\n        proposal.voters[msg.sender] = true;\n        proposal.approvalsCount++;\n\n        emit ProposalVoted(_index);        \n    }\n\n    /** @dev Allow only members to disapprove an active proposal that they haven't voted before.\n     *  @param _index index of the proposal the member wants to disapprove.\n     */\n    function disapproveProposal(uint _index) public membering statusActive proposalActive(_index) beInTimeProposal(_index) {\n\n        Proposal storage proposal = proposals[_index];\n        require(!proposal.voters[msg.sender], \"The proposal has been already voted by the sender\");\n\n        proposal.voters[msg.sender] = true;\n        proposal.disapprovalsCount++;\n        \n        emit ProposalVoted(_index);\n    }\n\n    /** @dev Allow only members to close an active proposal that already has its voting time over.\n     *  @param _index index of the proposal the member wants to approve.\n     */\n    function closeProposal(uint _index) public membering statusActive proposalActive(_index) passedTimeProposal(_index) {\n\n        Proposal storage proposal = proposals[_index];\n\n        if (proposal.approvalsCount > proposal.disapprovalsCount) {\n            proposal.status = ProposalStatus.APPROVED; \n        }\n        else {\n            proposal.status = ProposalStatus.DISAPPROVED;\n        }\n\n        emit ProposalClosed(_index);\n    }\n\n    /** @dev Allow only members to close an active proposal that already has its voting time over.\n     *  @param _index index of the proposal the member wants to approve.\n     */\n    function release(uint _index) public restricted statusActive proposalApproved(_index) {\n\n        Proposal storage proposal = proposals[_index];\n        proposal.status = ProposalStatus.SUCCESSFUL; \n        payable(proposal.recipient).transfer(proposal.value);\n        \n        emit ProposalRelease(_index);\n    }\n\n    /** @dev Allow only members to create a new proposal to finish de proyect and get the founds back.\n     *  @param _ipfshash url hash of the close proposal data (description) previusly stored in IPFS.\n     */\n    function createCloseProposal(bytes32 _ipfshash) public membering statusNotClosed {\n\n        bool out_grace_period = ((created_at + 14 days) <= block.timestamp) && status == CampaignStatus.CREATED;\n        require( out_grace_period || status == CampaignStatus.ACTIVE,\n            \"The campaing created must have 14 days old.\" );\n\n        CloseProposal storage newCProposal = closeProposals.push();\n        newCProposal.approvalsCount = 0;\n        newCProposal.disapprovalsCount = 0;\n        newCProposal.status = ProposalStatus.ACTIVE;\n        newCProposal.limitTime= block.timestamp + 7 days;\n        newCProposal.author = msg.sender;\n\n        newCProposal.voters[msg.sender] = true;\n        newCProposal.approvalsCount++;\n\n        emit CloseProposalCreated(_ipfshash);\n         \n    }\n\n    /** @dev Allow only members to approve an active close proposal that they haven't voted before.\n     *  @param _index index of the close proposal the member wants to approve.\n     */\n    function approveCloseProposal(uint _index) public membering statusNotClosed closeProposalActive(_index) beInTimeCloseProposal(_index) {\n\n        CloseProposal storage cProposal = closeProposals[_index];\n        require(!cProposal.voters[msg.sender], \"The close proposal has been already voted by the sender\");\n\n        cProposal.voters[msg.sender] = true;\n        cProposal.approvalsCount++;\n\n        emit CloseProposalVoted(_index);\n        \n    }\n\n    /** @dev Allow only members to disapprove an active close proposal that they haven't voted before.\n     *  @param _index index of the close proposal the member wants to disapprove.\n     */\n    function disapproveCloseProposal(uint _index) public membering statusNotClosed closeProposalActive(_index) beInTimeCloseProposal(_index) {\n\n        CloseProposal storage cProposal = closeProposals[_index];\n        require(!cProposal.voters[msg.sender], \"The close proposal has been already voted by the sender\");\n\n        cProposal.voters[msg.sender] = true;\n        cProposal.disapprovalsCount++;\n\n        emit CloseProposalVoted(_index);\n        \n    }\n\n    /** @dev Allow only members to close an active proposal that already has its voting time over.\n     *  @param _index index of the proposal the member wants to approve.\n     */\n    function closeCloseProposal(uint _index) public membering statusNotClosed closeProposalActive(_index) passedTimeCloseProposal(_index) {\n\n        CloseProposal storage cProposal = closeProposals[_index];\n\n        if (cProposal.approvalsCount > cProposal.disapprovalsCount) {\n            if (cProposal.author == owner) {\n                status = CampaignStatus.SUCCESSFUL;\n            } else {\n                status = CampaignStatus.FAIL;\n            }\n            cProposal.status = ProposalStatus.APPROVED; \n            remainingContributions = address(this).balance;\n        }\n        else {\n            cProposal.status = ProposalStatus.DISAPPROVED;\n        }\n\n        //emit CloseProposalClosed(_index);\n        emit ChangeStatusCampaign();\n    }\n\n    /** @dev Allow only members to withdraw the remaining founds once the campaign is closed.\n     */\n    function withdraw() public membering statusClosed {\n\n        require( msg.sender != owner, \"Sender is the owner.\" );\n        require( !withdraws[msg.sender], \"Sender already withdraw his founds.\" );\n\n        uint256 payment = ((contributions[msg.sender]*remainingContributions) / finalContributions);\n        \n        require( payment < address(this).balance, \"Payment can't be more than balance.\");\n\n        payable(msg.sender).transfer(payment);\n        withdraws[msg.sender] = true;\n\n        emit withdrawFounds(msg.sender, contributions[msg.sender], finalContributions, payment, remainingContributions );\n    }\n\n\n     /* Aux functions */\n\n    /** @dev Function to return if someone is member.\n     */\n    function isMember(address _address) public view returns (bool) {\n        return contributions[_address]>0;\n    }\n\n    /** @dev Function to get the actual status of the campaign.\n     */\n    function getStatus() public view returns (CampaignStatus) {\n        return status;\n    }\n\n    /** @dev Function to get the finalContributions of the campaign.\n     */\n    function getFinalContributions() public view returns (uint) {\n        return finalContributions;\n    }\n\n    /** @dev Function to get the remainingContributions of the campaign.\n     */\n    function getRemainingContributions() public view returns (uint) {\n        return remainingContributions;\n    }\n\n    /** @dev Function to get the data of the campaign\n     */\n    function getCampaignInfo() public view returns (address, CampaignStatus, uint, uint, uint, uint, uint, bool) {\n        bool out_grace_period = (created_at + 14 days) <= block.timestamp;\n        return (owner, status, goal, minimunContribution, membersCount, finalContributions, remainingContributions, out_grace_period);\n    } \n\n    /** @dev Function to get the data of a proposal.\n     *  @param _index index of the proposal to return\n     */\n    function getProposal(uint _index) public view returns (address, uint, uint, uint, ProposalStatus, uint, bool, bool) {\n        Proposal storage proposal = proposals[_index];\n        bool inTime = block.timestamp <= proposal.limitTime;\n        bool senderHasVote = proposal.voters[msg.sender];\n        return (proposal.recipient, proposal.value, proposal.approvalsCount, proposal.disapprovalsCount, proposal.status, proposal.limitTime, inTime, senderHasVote);\n    } \n\n     /** @dev Function to know if a member has already vot a proposal.\n     *  @param _index index of the proposal\n     */\n    function hasVotedProposal(uint _index) public view returns (bool) {\n        Proposal storage proposal = proposals[_index];\n        return proposal.voters[msg.sender];\n    } \n\n    /** @dev Function to get the total number of proposals.\n     */\n    function getProposalsCount() public view returns (uint) {\n        return proposals.length;\n    }\n\n    /** @dev Function to get the data of a close proposal.\n     *  @param _index index of the proposal to return\n     */\n    function getCloseProposal(uint _index) public view returns (uint, uint, ProposalStatus, uint, bool, bool, address) {\n        CloseProposal storage cProposal = closeProposals[_index];\n        bool inTime = block.timestamp <= cProposal.limitTime;\n        bool senderHasVote = cProposal.voters[msg.sender];\n        return (cProposal.approvalsCount, cProposal.disapprovalsCount, cProposal.status, cProposal.limitTime, inTime, senderHasVote, cProposal.author);\n    } \n\n    /** @dev Function to know if a member has already vot a close proposal.\n     *  @param _index index of the proposal\n     */\n    function hasVotedCloseProposal(uint _index) public view returns (bool) {\n        CloseProposal storage cProposal = closeProposals[_index];\n        return cProposal.voters[msg.sender];\n    } \n\n    /** @dev Function to get the total number of close proposals.\n     */\n    function getCloseProposalsCount() public view returns (uint) {\n        return closeProposals.length;\n    }\n   \n}",
  "sourcePath": "/home/tati/Desktop/personal/Tesina/semideas-crowdfunding/contracts/CrowdfundingCampaign.sol",
  "compiler": {
    "name": "solc",
    "version": "0.8.6+commit.11564f7e.Emscripten.clang"
  },
  "schemaVersion": "3.4.1",
  "updatedAt": "2021-07-19T20:11:12.103Z",
  "networkType": "ethereum",
  "devdoc": {
    "events": {
      "CampaignCreated(bytes32)": {
        "details": "Emitted when the author creates the campaign.",
        "params": {
          "_ipfshash": "The url hash of the campaign data stored in IPFS."
        }
      },
      "ChangeStatusCampaign()": {
        "details": "Emitted when the status of the campaign change."
      },
      "CloseProposalClosed(uint256)": {
        "details": "Emitted when a  close proposal is Closed.",
        "params": {
          "_index": "The index of the close proposal."
        }
      },
      "CloseProposalCreated(bytes32)": {
        "details": "Emitted when a member creates a proposal to close the campaign and get the founds back.",
        "params": {
          "_ipfshash": "The url hash of the close proposal data stored in IPFS."
        }
      },
      "CloseProposalVoted(uint256)": {
        "details": "Emitted when a close proposal is voted.",
        "params": {
          "_index": "The index of the close proposal."
        }
      },
      "NewContribution()": {
        "details": "Emitted when a new person contributes with the campaign."
      },
      "ProgressUpdate(bytes32)": {
        "details": "Emitted when the author creates a progress update to show how the proyect is going.",
        "params": {
          "_ipfshash": "The url hash of the progress update data stored in IPFS."
        }
      },
      "ProposalClosed(uint256)": {
        "details": "Emitted when a proposal is Closed.",
        "params": {
          "_index": "The index of the proposal."
        }
      },
      "ProposalCreated(bytes32)": {
        "details": "Emitted when the author creates a proposal to free founds.",
        "params": {
          "_ipfshash": "The url hash of the proposal data stored in IPFS."
        }
      },
      "ProposalRelease(uint256)": {
        "details": "Emitted when a proposal was release.",
        "params": {
          "_index": "The index of the proposal."
        }
      },
      "ProposalVoted(uint256)": {
        "details": "Emitted when a proposal is voted.",
        "params": {
          "_index": "The index of the proposal."
        }
      },
      "withdrawFounds(address,uint256,uint256,uint256,uint256)": {
        "details": "Emitted when a member withdraw his founds."
      }
    },
    "kind": "dev",
    "methods": {
      "approveCloseProposal(uint256)": {
        "details": "Allow only members to approve an active close proposal that they haven't voted before.",
        "params": {
          "_index": "index of the close proposal the member wants to approve."
        }
      },
      "approveProposal(uint256)": {
        "details": "Allow only members to approve an active proposal that they haven't voted before.",
        "params": {
          "_index": "index of the proposal the member wants to approve."
        }
      },
      "closeCloseProposal(uint256)": {
        "details": "Allow only members to close an active proposal that already has its voting time over.",
        "params": {
          "_index": "index of the proposal the member wants to approve."
        }
      },
      "closeProposal(uint256)": {
        "details": "Allow only members to close an active proposal that already has its voting time over.",
        "params": {
          "_index": "index of the proposal the member wants to approve."
        }
      },
      "constructor": {
        "details": "Constructor.",
        "params": {
          "_goal": "goal in wei that the proyect has to reach to be succesfull.",
          "_ipfshash": "The url hash of the campaign data previusly stored in IPFS.*",
          "_minimunContribution": "minimum contribution in wei that a person has to make to become a member."
        }
      },
      "contribute()": {
        "details": "Allow not members to contribute with the campaign and be a member of it."
      },
      "createCloseProposal(bytes32)": {
        "details": "Allow only members to create a new proposal to finish de proyect and get the founds back.",
        "params": {
          "_ipfshash": "url hash of the close proposal data (description) previusly stored in IPFS."
        }
      },
      "createProposal(uint256,address,bytes32)": {
        "details": "Allow only owner to create a new proposal to get more founds.",
        "params": {
          "_ipfshash": "url hash of the proposal data (description and pictures) previusly stored in IPFS.",
          "_recipient": "address where the founds are going to be after release them.",
          "_value": "founds in wei that the owner want to release."
        }
      },
      "disapproveCloseProposal(uint256)": {
        "details": "Allow only members to disapprove an active close proposal that they haven't voted before.",
        "params": {
          "_index": "index of the close proposal the member wants to disapprove."
        }
      },
      "disapproveProposal(uint256)": {
        "details": "Allow only members to disapprove an active proposal that they haven't voted before.",
        "params": {
          "_index": "index of the proposal the member wants to disapprove."
        }
      },
      "getCampaignInfo()": {
        "details": "Function to get the data of the campaign"
      },
      "getCloseProposal(uint256)": {
        "details": "Function to get the data of a close proposal.",
        "params": {
          "_index": "index of the proposal to return"
        }
      },
      "getCloseProposalsCount()": {
        "details": "Function to get the total number of close proposals."
      },
      "getFinalContributions()": {
        "details": "Function to get the finalContributions of the campaign."
      },
      "getProposal(uint256)": {
        "details": "Function to get the data of a proposal.",
        "params": {
          "_index": "index of the proposal to return"
        }
      },
      "getProposalsCount()": {
        "details": "Function to get the total number of proposals."
      },
      "getRemainingContributions()": {
        "details": "Function to get the remainingContributions of the campaign."
      },
      "getStatus()": {
        "details": "Function to get the actual status of the campaign."
      },
      "hasVotedCloseProposal(uint256)": {
        "details": "Function to know if a member has already vot a close proposal.",
        "params": {
          "_index": "index of the proposal"
        }
      },
      "hasVotedProposal(uint256)": {
        "details": "Function to know if a member has already vot a proposal.",
        "params": {
          "_index": "index of the proposal"
        }
      },
      "isMember(address)": {
        "details": "Function to return if someone is member."
      },
      "release(uint256)": {
        "details": "Allow only members to close an active proposal that already has its voting time over.",
        "params": {
          "_index": "index of the proposal the member wants to approve."
        }
      },
      "saveProgressUpdate(bytes32)": {
        "details": "Allow only owner to save a new progress Update data ipfs hash.",
        "params": {
          "_ipfshash": "url hash of the progress update data (description and pictures) previusly stored in IPFS."
        }
      },
      "setActive()": {
        "details": "Allow only owner to change the status of the cCampaign from CREATED to ACTIVE."
      },
      "withdraw()": {
        "details": "Allow only members to withdraw the remaining founds once the campaign is closed."
      }
    },
    "version": 1
  },
  "userdoc": {
    "kind": "user",
    "methods": {},
    "version": 1
  }
}