{
  "contractName": "CrowdFundingCampaing",
  "abi": [
    {
      "inputs": [
        {
          "internalType": "uint256",
          "name": "_minimunContribution",
          "type": "uint256"
        },
        {
          "internalType": "uint256",
          "name": "_goal",
          "type": "uint256"
        },
        {
          "internalType": "bytes32",
          "name": "_ipfshash",
          "type": "bytes32"
        }
      ],
      "stateMutability": "nonpayable",
      "type": "constructor"
    },
    {
      "anonymous": false,
      "inputs": [
        {
          "indexed": true,
          "internalType": "bytes32",
          "name": "_ipfshash",
          "type": "bytes32"
        }
      ],
      "name": "campaingCreated",
      "type": "event"
    },
    {
      "anonymous": false,
      "inputs": [
        {
          "indexed": true,
          "internalType": "bytes32",
          "name": "_ipfshash",
          "type": "bytes32"
        }
      ],
      "name": "destructProposalCreated",
      "type": "event"
    },
    {
      "anonymous": false,
      "inputs": [
        {
          "indexed": true,
          "internalType": "bytes32",
          "name": "_ipfshash",
          "type": "bytes32"
        }
      ],
      "name": "progressUpdate",
      "type": "event"
    },
    {
      "anonymous": false,
      "inputs": [
        {
          "indexed": true,
          "internalType": "bytes32",
          "name": "_ipfshash",
          "type": "bytes32"
        }
      ],
      "name": "proposalCreated",
      "type": "event"
    },
    {
      "inputs": [
        {
          "internalType": "address",
          "name": "",
          "type": "address"
        }
      ],
      "name": "contributions",
      "outputs": [
        {
          "internalType": "uint256",
          "name": "",
          "type": "uint256"
        }
      ],
      "stateMutability": "view",
      "type": "function"
    },
    {
      "inputs": [
        {
          "internalType": "uint256",
          "name": "",
          "type": "uint256"
        }
      ],
      "name": "destructProposals",
      "outputs": [
        {
          "internalType": "uint256",
          "name": "approvalsCount",
          "type": "uint256"
        },
        {
          "internalType": "enum CrowdFundingCampaing.Status",
          "name": "status",
          "type": "uint8"
        }
      ],
      "stateMutability": "view",
      "type": "function"
    },
    {
      "inputs": [],
      "name": "goal",
      "outputs": [
        {
          "internalType": "uint256",
          "name": "",
          "type": "uint256"
        }
      ],
      "stateMutability": "view",
      "type": "function"
    },
    {
      "inputs": [
        {
          "internalType": "address",
          "name": "",
          "type": "address"
        }
      ],
      "name": "members",
      "outputs": [
        {
          "internalType": "bool",
          "name": "",
          "type": "bool"
        }
      ],
      "stateMutability": "view",
      "type": "function"
    },
    {
      "inputs": [],
      "name": "membersCount",
      "outputs": [
        {
          "internalType": "uint256",
          "name": "",
          "type": "uint256"
        }
      ],
      "stateMutability": "view",
      "type": "function"
    },
    {
      "inputs": [],
      "name": "minimunContribution",
      "outputs": [
        {
          "internalType": "uint256",
          "name": "",
          "type": "uint256"
        }
      ],
      "stateMutability": "view",
      "type": "function"
    },
    {
      "inputs": [],
      "name": "owner",
      "outputs": [
        {
          "internalType": "address",
          "name": "",
          "type": "address"
        }
      ],
      "stateMutability": "view",
      "type": "function"
    },
    {
      "inputs": [
        {
          "internalType": "uint256",
          "name": "",
          "type": "uint256"
        }
      ],
      "name": "proposals",
      "outputs": [
        {
          "internalType": "uint256",
          "name": "value",
          "type": "uint256"
        },
        {
          "internalType": "address",
          "name": "recipient",
          "type": "address"
        },
        {
          "internalType": "uint256",
          "name": "approvalsCount",
          "type": "uint256"
        },
        {
          "internalType": "enum CrowdFundingCampaing.Status",
          "name": "status",
          "type": "uint8"
        }
      ],
      "stateMutability": "view",
      "type": "function"
    },
    {
      "inputs": [],
      "name": "status",
      "outputs": [
        {
          "internalType": "enum CrowdFundingCampaing.Status",
          "name": "",
          "type": "uint8"
        }
      ],
      "stateMutability": "view",
      "type": "function"
    },
    {
      "inputs": [],
      "name": "contribute",
      "outputs": [],
      "stateMutability": "payable",
      "type": "function"
    },
    {
      "inputs": [],
      "name": "setActive",
      "outputs": [],
      "stateMutability": "nonpayable",
      "type": "function"
    },
    {
      "inputs": [
        {
          "internalType": "uint256",
          "name": "_value",
          "type": "uint256"
        },
        {
          "internalType": "address",
          "name": "_recipient",
          "type": "address"
        },
        {
          "internalType": "bytes32",
          "name": "_ipfshash",
          "type": "bytes32"
        }
      ],
      "name": "createProposal",
      "outputs": [],
      "stateMutability": "nonpayable",
      "type": "function"
    },
    {
      "inputs": [
        {
          "internalType": "uint256",
          "name": "_index",
          "type": "uint256"
        }
      ],
      "name": "aproveProposal",
      "outputs": [],
      "stateMutability": "nonpayable",
      "type": "function"
    },
    {
      "inputs": [
        {
          "internalType": "bytes32",
          "name": "_ipfshash",
          "type": "bytes32"
        }
      ],
      "name": "createDestructProposal",
      "outputs": [],
      "stateMutability": "nonpayable",
      "type": "function"
    },
    {
      "inputs": [
        {
          "internalType": "uint256",
          "name": "_index",
          "type": "uint256"
        }
      ],
      "name": "aproveDestructProposal",
      "outputs": [],
      "stateMutability": "nonpayable",
      "type": "function"
    },
    {
      "inputs": [
        {
          "internalType": "address",
          "name": "_address",
          "type": "address"
        }
      ],
      "name": "isMember",
      "outputs": [
        {
          "internalType": "bool",
          "name": "",
          "type": "bool"
        }
      ],
      "stateMutability": "view",
      "type": "function"
    },
    {
      "inputs": [],
      "name": "getCampaingInfo",
      "outputs": [
        {
          "internalType": "address",
          "name": "",
          "type": "address"
        },
        {
          "internalType": "enum CrowdFundingCampaing.Status",
          "name": "",
          "type": "uint8"
        },
        {
          "internalType": "uint256",
          "name": "",
          "type": "uint256"
        },
        {
          "internalType": "uint256",
          "name": "",
          "type": "uint256"
        },
        {
          "internalType": "uint256",
          "name": "",
          "type": "uint256"
        }
      ],
      "stateMutability": "view",
      "type": "function"
    },
    {
      "inputs": [
        {
          "internalType": "uint256",
          "name": "_index",
          "type": "uint256"
        }
      ],
      "name": "getProposal",
      "outputs": [
        {
          "internalType": "address",
          "name": "",
          "type": "address"
        },
        {
          "internalType": "uint256",
          "name": "",
          "type": "uint256"
        },
        {
          "internalType": "uint256",
          "name": "",
          "type": "uint256"
        },
        {
          "internalType": "enum CrowdFundingCampaing.Status",
          "name": "",
          "type": "uint8"
        }
      ],
      "stateMutability": "view",
      "type": "function"
    },
    {
      "inputs": [],
      "name": "getProposalsCount",
      "outputs": [
        {
          "internalType": "uint256",
          "name": "",
          "type": "uint256"
        }
      ],
      "stateMutability": "view",
      "type": "function"
    },
    {
      "inputs": [
        {
          "internalType": "uint256",
          "name": "_index",
          "type": "uint256"
        }
      ],
      "name": "getDestuctProposal",
      "outputs": [
        {
          "internalType": "uint256",
          "name": "",
          "type": "uint256"
        },
        {
          "internalType": "enum CrowdFundingCampaing.Status",
          "name": "",
          "type": "uint8"
        }
      ],
      "stateMutability": "view",
      "type": "function"
    },
    {
      "inputs": [],
      "name": "getDestructProposalsCount",
      "outputs": [
        {
          "internalType": "uint256",
          "name": "",
          "type": "uint256"
        }
      ],
      "stateMutability": "view",
      "type": "function"
    },
    {
      "inputs": [],
      "name": "getStatus",
      "outputs": [
        {
          "internalType": "enum CrowdFundingCampaing.Status",
          "name": "",
          "type": "uint8"
        }
      ],
      "stateMutability": "view",
      "type": "function"
    }
  ],
  "bytecode": "0x608060405234801561001057600080fd5b50604051611bfe380380611bfe8339818101604052606081101561003357600080fd5b8101908080519060200190929190805190602001909291908051906020019092919050505033600060016101000a81548173ffffffffffffffffffffffffffffffffffffffff021916908373ffffffffffffffffffffffffffffffffffffffff1602179055506001600360003373ffffffffffffffffffffffffffffffffffffffff1673ffffffffffffffffffffffffffffffffffffffff16815260200190815260200160002060006101000a81548160ff021916908315150217905550816001819055508260028190555060008060006101000a81548160ff0219169083600481111561011d57fe5b02179055506000600581905550807f48f68e6260e3e2a8af0e46c03a53a45fbce8542d7500757dea19a44beb97fe9a60405160405180910390a2505050611a95806101696000396000f3fe6080604052600436106101355760003560e01c80638da5cb5b116100ab578063b1a6f6a91161006f578063b1a6f6a914610595578063bb2cfe80146105f6578063c7f758a814610631578063d7bb99ba146106b6578063e78201b3146106c0578063f049a60c1461072157610135565b80638da5cb5b1461045c578063923a64fb1461049d57806398e527d3146104d8578063a230c52414610503578063a7f337151461056a57610135565b8063297f9af0116100fd578063297f9af0146102ef578063401938831461031a57806342e94c90146103455780634e69d560146103aa57806351c36c1e146103e0578063760a8c2a1461044557610135565b8063013cf08b1461013a57806308ae4b0c146101bf5780631ec0b7ba14610226578063200d2ed2146102515780632974560a14610287575b600080fd5b34801561014657600080fd5b506101736004803603602081101561015d57600080fd5b810190808035906020019092919050505061075c565b604051808581526020018473ffffffffffffffffffffffffffffffffffffffff1681526020018381526020018260048111156101ab57fe5b815260200194505050505060405180910390f35b3480156101cb57600080fd5b5061020e600480360360208110156101e257600080fd5b81019080803573ffffffffffffffffffffffffffffffffffffffff1690602001909291905050506107c6565b60405180821515815260200191505060405180910390f35b34801561023257600080fd5b5061023b6107e6565b6040518082815260200191505060405180910390f35b34801561025d57600080fd5b506102666107f3565b6040518082600481111561027657fe5b815260200191505060405180910390f35b34801561029357600080fd5b5061029c610804565b604051808673ffffffffffffffffffffffffffffffffffffffff1681526020018560048111156102c857fe5b81526020018481526020018381526020018281526020019550505050505060405180910390f35b3480156102fb57600080fd5b50610304610856565b6040518082815260200191505060405180910390f35b34801561032657600080fd5b5061032f61085c565b6040518082815260200191505060405180910390f35b34801561035157600080fd5b506103946004803603602081101561036857600080fd5b81019080803573ffffffffffffffffffffffffffffffffffffffff169060200190929190505050610862565b6040518082815260200191505060405180910390f35b3480156103b657600080fd5b506103bf61087a565b604051808260048111156103cf57fe5b815260200191505060405180910390f35b3480156103ec57600080fd5b506104436004803603606081101561040357600080fd5b8101908080359060200190929190803573ffffffffffffffffffffffffffffffffffffffff16906020019092919080359060200190929190505050610890565b005b34801561045157600080fd5b5061045a610b78565b005b34801561046857600080fd5b50610471610d37565b604051808273ffffffffffffffffffffffffffffffffffffffff16815260200191505060405180910390f35b3480156104a957600080fd5b506104d6600480360360208110156104c057600080fd5b8101908080359060200190929190505050610d5d565b005b3480156104e457600080fd5b506104ed610f56565b6040518082815260200191505060405180910390f35b34801561050f57600080fd5b506105526004803603602081101561052657600080fd5b81019080803573ffffffffffffffffffffffffffffffffffffffff169060200190929190505050610f63565b60405180821515815260200191505060405180910390f35b34801561057657600080fd5b5061057f610fb9565b6040518082815260200191505060405180910390f35b3480156105a157600080fd5b506105ce600480360360208110156105b857600080fd5b8101908080359060200190929190505050610fbf565b604051808381526020018260048111156105e457fe5b81526020019250505060405180910390f35b34801561060257600080fd5b5061062f6004803603602081101561061957600080fd5b8101908080359060200190929190505050610ffd565b005b34801561063d57600080fd5b5061066a6004803603602081101561065457600080fd5b810190808035906020019092919050505061130a565b604051808573ffffffffffffffffffffffffffffffffffffffff1681526020018481526020018381526020018260048111156106a257fe5b815260200194505050505060405180910390f35b6106be611380565b005b3480156106cc57600080fd5b506106f9600480360360208110156106e357600080fd5b81019080803590602001909291905050506115e4565b6040518083815260200182600481111561070f57fe5b81526020019250505060405180910390f35b34801561072d57600080fd5b5061075a6004803603602081101561074457600080fd5b8101908080359060200190929190505050611627565b005b6006818154811061076957fe5b90600052602060002090600502016000915090508060000154908060010160009054906101000a900473ffffffffffffffffffffffffffffffffffffffff16908060020154908060040160009054906101000a900460ff16905084565b60036020528060005260406000206000915054906101000a900460ff1681565b6000600780549050905090565b60008054906101000a900460ff1681565b60008060008060008060019054906101000a900473ffffffffffffffffffffffffffffffffffffffff1660008054906101000a900460ff16600154600254600554945094509450945094509091929394565b60055481565b60015481565b60046020528060005260406000206000915090505481565b60008060009054906101000a900460ff16905090565b600060019054906101000a900473ffffffffffffffffffffffffffffffffffffffff1673ffffffffffffffffffffffffffffffffffffffff163373ffffffffffffffffffffffffffffffffffffffff1614610953576040517f08c379a00000000000000000000000000000000000000000000000000000000081526004018080602001828103825260188152602001807f53656e646572206973206e6f7420746865206f776e65722e000000000000000081525060200191505060405180910390fd5b6003600481111561096057fe5b60008054906101000a900460ff16600481111561097957fe5b146109cf576040517f08c379a0000000000000000000000000000000000000000000000000000000008152600401808060200182810382526022815260200180611a1c6022913960400191505060405180910390fd5b82471015610a45576040517f08c379a000000000000000000000000000000000000000000000000000000000815260040180806020018281038252601b8152602001807f54686520666f756e64732061726520696e73756666696369656e74000000000081525060200191505060405180910390fd5b610a4d611934565b60405180608001604052808581526020018473ffffffffffffffffffffffffffffffffffffffff1681526020016000815260200160036004811115610a8e57fe5b815250905060068190806001815401808255809150506001900390600052602060002090600502016000909190919091506000820151816000015560208201518160010160006101000a81548173ffffffffffffffffffffffffffffffffffffffff021916908373ffffffffffffffffffffffffffffffffffffffff1602179055506040820151816002015560608201518160040160006101000a81548160ff02191690836004811115610b3e57fe5b02179055505050817fdf3af04813197e32521106616bbfaf01af69d2e70f2f872720142b52953414e360405160405180910390a250505050565b600060019054906101000a900473ffffffffffffffffffffffffffffffffffffffff1673ffffffffffffffffffffffffffffffffffffffff163373ffffffffffffffffffffffffffffffffffffffff1614610c3b576040517f08c379a00000000000000000000000000000000000000000000000000000000081526004018080602001828103825260188152602001807f53656e646572206973206e6f7420746865206f776e65722e000000000000000081525060200191505060405180910390fd5b60006004811115610c4857fe5b60008054906101000a900460ff166004811115610c6157fe5b14610cb7576040517f08c379a00000000000000000000000000000000000000000000000000000000081526004018080602001828103825260238152602001806119a36023913960400191505060405180910390fd5b600154471015610d12576040517f08c379a00000000000000000000000000000000000000000000000000000000081526004018080602001828103825260228152602001806119c66022913960400191505060405180910390fd5b60036000806101000a81548160ff02191690836004811115610d3057fe5b0217905550565b600060019054906101000a900473ffffffffffffffffffffffffffffffffffffffff1681565b600360003373ffffffffffffffffffffffffffffffffffffffff1673ffffffffffffffffffffffffffffffffffffffff16815260200190815260200160002060009054906101000a900460ff16610e1c576040517f08c379a00000000000000000000000000000000000000000000000000000000081526004018080602001828103825260178152602001807f53656e646572206973206e6f742061206d656d6265722e00000000000000000081525060200191505060405180910390fd5b60036004811115610e2957fe5b60008054906101000a900460ff166004811115610e4257fe5b14610e98576040517f08c379a0000000000000000000000000000000000000000000000000000000008152600401808060200182810382526022815260200180611a1c6022913960400191505060405180910390fd5b610ea061197d565b60405180604001604052806000815260200160036004811115610ebf57fe5b815250905060078190806001815401808255809150506001900390600052602060002090600302016000909190919091506000820151816000015560208201518160020160006101000a81548160ff02191690836004811115610f1e57fe5b02179055505050817fc95a86df0db5b70c1293ecf6809b04b1e69f91ddaa05b8912d28dbf59047755360405160405180910390a25050565b6000600680549050905090565b6000600360008373ffffffffffffffffffffffffffffffffffffffff1673ffffffffffffffffffffffffffffffffffffffff16815260200190815260200160002060009054906101000a900460ff169050919050565b60025481565b60078181548110610fcc57fe5b90600052602060002090600302016000915090508060000154908060020160009054906101000a900460ff16905082565b600360003373ffffffffffffffffffffffffffffffffffffffff1673ffffffffffffffffffffffffffffffffffffffff16815260200190815260200160002060009054906101000a900460ff166110bc576040517f08c379a00000000000000000000000000000000000000000000000000000000081526004018080602001828103825260178152602001807f53656e646572206973206e6f742061206d656d6265722e00000000000000000081525060200191505060405180910390fd5b600360048111156110c957fe5b60008054906101000a900460ff1660048111156110e257fe5b14611138576040517f08c379a0000000000000000000000000000000000000000000000000000000008152600401808060200182810382526022815260200180611a1c6022913960400191505060405180910390fd5b806003600481111561114657fe5b6006828154811061115357fe5b906000526020600020906005020160040160009054906101000a900460ff16600481111561117d57fe5b146111d3576040517f08c379a0000000000000000000000000000000000000000000000000000000008152600401808060200182810382526022815260200180611a3e6022913960400191505060405180910390fd5b6000600683815481106111e257fe5b906000526020600020906005020190508060030160003373ffffffffffffffffffffffffffffffffffffffff1673ffffffffffffffffffffffffffffffffffffffff16815260200190815260200160002060009054906101000a900460ff1615611297576040517f08c379a00000000000000000000000000000000000000000000000000000000081526004018080602001828103825260348152602001806119e86034913960400191505060405180910390fd5b60018160030160003373ffffffffffffffffffffffffffffffffffffffff1673ffffffffffffffffffffffffffffffffffffffff16815260200190815260200160002060006101000a81548160ff0219169083151502179055508060020160008154809291906001019190505550505050565b60008060008060006006868154811061131f57fe5b906000526020600020906005020190508060010160009054906101000a900473ffffffffffffffffffffffffffffffffffffffff16816000015482600201548360040160009054906101000a900460ff169450945094509450509193509193565b600360003373ffffffffffffffffffffffffffffffffffffffff1673ffffffffffffffffffffffffffffffffffffffff16815260200190815260200160002060009054906101000a900460ff1615611440576040517f08c379a000000000000000000000000000000000000000000000000000000000815260040180806020018281038252601b8152602001807f53656e64657220697320616c72656164792061206d656d6265722e000000000081525060200191505060405180910390fd5b6000600481111561144d57fe5b60008054906101000a900460ff16600481111561146657fe5b146114bc576040517f08c379a00000000000000000000000000000000000000000000000000000000081526004018080602001828103825260238152602001806119a36023913960400191505060405180910390fd5b600254341015611534576040517f08c379a000000000000000000000000000000000000000000000000000000000815260040180806020018281038252601f8152602001807f54686520636f6e747269627574696f6e20697320696e737566696369656e740081525060200191505060405180910390fd5b6001600360003373ffffffffffffffffffffffffffffffffffffffff1673ffffffffffffffffffffffffffffffffffffffff16815260200190815260200160002060006101000a81548160ff02191690831515021790555034600460003373ffffffffffffffffffffffffffffffffffffffff1673ffffffffffffffffffffffffffffffffffffffff16815260200190815260200160002081905550600560008154809291906001019190505550565b6000806000600784815481106115f657fe5b9060005260206000209060030201905080600001548160020160009054906101000a900460ff169250925050915091565b600360003373ffffffffffffffffffffffffffffffffffffffff1673ffffffffffffffffffffffffffffffffffffffff16815260200190815260200160002060009054906101000a900460ff166116e6576040517f08c379a00000000000000000000000000000000000000000000000000000000081526004018080602001828103825260178152602001807f53656e646572206973206e6f742061206d656d6265722e00000000000000000081525060200191505060405180910390fd5b600360048111156116f357fe5b60008054906101000a900460ff16600481111561170c57fe5b14611762576040517f08c379a0000000000000000000000000000000000000000000000000000000008152600401808060200182810382526022815260200180611a1c6022913960400191505060405180910390fd5b806003600481111561177057fe5b6006828154811061177d57fe5b906000526020600020906005020160040160009054906101000a900460ff1660048111156117a757fe5b146117fd576040517f08c379a0000000000000000000000000000000000000000000000000000000008152600401808060200182810382526022815260200180611a3e6022913960400191505060405180910390fd5b60006007838154811061180c57fe5b906000526020600020906003020190508060010160003373ffffffffffffffffffffffffffffffffffffffff1673ffffffffffffffffffffffffffffffffffffffff16815260200190815260200160002060009054906101000a900460ff16156118c1576040517f08c379a00000000000000000000000000000000000000000000000000000000081526004018080602001828103825260348152602001806119e86034913960400191505060405180910390fd5b60018160010160003373ffffffffffffffffffffffffffffffffffffffff1673ffffffffffffffffffffffffffffffffffffffff16815260200190815260200160002060006101000a81548160ff0219169083151502179055508060000160008154809291906001019190505550505050565b604051806080016040528060008152602001600073ffffffffffffffffffffffffffffffffffffffff168152602001600081526020016000600481111561197757fe5b81525090565b6040518060400160405280600081526020016000600481111561199c57fe5b8152509056fe5468652063616d7061696e6720737461747573206973206e6f7420637265617465642e54686520636f6e747269627574696f6e732061726520696e73756666696369656e745468652070726f706f73616c20686173206265656e20616c726561647920617070726f766564206279207468652073656e6465725468652063616d7061696e6720737461747573206973206e6f74206163746976652e5468652070726f706f73616c206973206e6f74206c6f6e676572206163746976652ea2646970667358221220a67eb0da2016559ebc5a58d2f58e49a6d288f85946970b707d80cf5afbcc637a64736f6c634300060c0033",
  "source": "pragma solidity ^0.6.0;\n\ncontract CrowdFundingCampaing {\n\n    /* Enums */\n\n    enum Status { CREATED, APPROVED, DISAPPROVED, ACTIVE, DESTROYED }\n\n    \n    /* Structs */\n\n    /** @dev Struct proposal\n        This struct represents the proposals that only owner can make to get more founds.\n    **/\n    struct Proposal{\n        uint value;\n        address recipient;\n        uint approvalsCount;\n        mapping(address => bool) approvals;\n        Status status;\n    }\n\n    /** @dev Struct destruct proposal\n        This struct represents the proposals that members can make to get their founds back.\n    **/\n    struct DestructProposal{\n        uint approvalsCount;\n        mapping(address => bool) approvals;\n        Status status;\n    }\n\n\n    /* Storage */\n\n    Status public status;\n    address public owner;\n    uint public goal;\n    uint public minimunContribution;\n    mapping(address => bool) public members;\n    mapping(address => uint) public contributions;\n    uint public membersCount;\n    Proposal[] public proposals;\n    DestructProposal[] public destructProposals;\n    \n\n    /** @dev Constructor.\n     *  @param _minimunContribution minimum contribution in wei that a person has to make to become a member.\n     *  @param _goal goal in wei that the proyect has to reach to be succesfull.\n     *  @param _ipfshash The url hash of the campaing data previusly stored in IPFS.\n    **/\n    constructor(uint _minimunContribution, uint _goal, bytes32 _ipfshash) public {\n        owner = msg.sender;\n        members[msg.sender] = true;\n        goal = _goal;\n        minimunContribution = _minimunContribution;\n        status = Status.CREATED;\n        membersCount = 0;\n\n        emit campaingCreated(_ipfshash);\n    }\n\n\n    /* Modifiers */\n\n    modifier restricted() { require(msg.sender==owner, \"Sender is not the owner.\"); _; }\n\n    modifier membering() { require(members[msg.sender], \"Sender is not a member.\"); _; }\n\n    modifier notMembering() { require(!members[msg.sender], \"Sender is already a member.\"); _; }\n\n    modifier statusCreated() \n        { require(status == Status.CREATED, \"The campaing status is not created.\"); _; }\n\n    modifier statusActive()\n        { require(status == Status.ACTIVE, \"The campaing status is not active.\"); _; }\n\n    modifier proposalActive(uint _index) \n        { require(proposals[_index].status == Status.ACTIVE, \"The proposal is not longer active.\"); _; }\n\n    modifier proposalApproved(uint _index) \n        { require(proposals[_index].status == Status.APPROVED, \"The proposal is not approved.\" ); _; }\n\n    modifier destructProposalActive(uint _index) {\n        require(\n            destructProposals[_index].status == Status.ACTIVE,\n            \"The destruct proposal is not longer active.\");\n        _;\n    }\n\n    modifier destructProposalApproved(uint _index) {\n        require(\n            destructProposals[_index].status == Status.APPROVED,\n            \"The destruct proposal is not approved.\");\n        _;\n    }\n\n\n    /* Events */\n\n    /** @dev Emitted when the author creates the campaing.\n     *  @param _ipfshash The url hash of the campaing data stored in IPFS.\n     */\n    event campaingCreated(bytes32 indexed _ipfshash);\n\n    /** @dev Emitted when the author creates a proposal to free founds.\n     *  @param _ipfshash The url hash of the proposal data stored in IPFS.\n     */\n    event proposalCreated(bytes32 indexed _ipfshash);\n\n     /** @dev Emitted when a member creates a proposal to destruct the campaing and get the founds back.\n     *  @param _ipfshash The url hash of the destruct proposal data stored in IPFS.\n     */\n    event destructProposalCreated(bytes32 indexed _ipfshash);\n\n    /** @dev Emitted when the author creates a progress update to show how the proyect is going.\n     *  @param _ipfshash The url hash of the progress update data stored in IPFS.\n     */\n    event progressUpdate(bytes32 indexed _ipfshash);\n\n\n    /* Functions */\n\n    /** @dev Allow not members to contribute with the campaing and be a member of it.\n     */\n    function contribute() public notMembering statusCreated payable {\n        require(msg.value >= minimunContribution, \"The contribution is insuficient\");\n        members[msg.sender] = true;\n        contributions[msg.sender] = msg.value;\n        membersCount++;\n    }\n\n    /** @dev Allow only owner to change the status of the campaing from CREATED to ACTIVE.\n     */\n    function setActive() public restricted statusCreated {\n        \n        require(address(this).balance >= goal,\"The contributions are insufficient\");\n        status = Status.ACTIVE;\n         \n    }\n\n    /** @dev Allow only owner to create a new proposal to get more founds.\n     *  @param _value founds in wei that the owner want to withdraw.\n     *  @param _recipient address where the founds are going to be after withdraw them.\n     *  @param _ipfshash url hash of the proposal data (description and pictures) previusly stored in IPFS.\n     */\n    function createProposal(uint _value, address _recipient, bytes32 _ipfshash) \n        public restricted statusActive {\n\n        require(address(this).balance >= _value, \"The founds are insufficient\");\n        \n        Proposal memory newProposal = Proposal({\n            recipient : _recipient,\n            value : _value,\n            approvalsCount : 0,\n            status: Status.ACTIVE\n        });\n\n        proposals.push(newProposal);\n        emit proposalCreated(_ipfshash);\n         \n    }\n\n    /** @dev Allow only members to approve an active proposal that they haven't approved before.\n     *  @param _index index of the proposal the member wants to approve.\n     */\n    function aproveProposal(uint _index) public membering statusActive proposalActive(_index) {\n\n        Proposal storage proposal = proposals[_index];\n        require(!proposal.approvals[msg.sender], \"The proposal has been already approved by the sender\");\n\n        proposal.approvals[msg.sender] = true;\n        proposal.approvalsCount++;\n        \n    }\n\n    /** @dev Allow only members to create a new proposal to finish de proyect and get the founds back.\n     *  @param _ipfshash url hash of the destruct proposal data (description) previusly stored in IPFS.\n     */\n    function createDestructProposal(bytes32 _ipfshash) public membering statusActive {\n        \n        DestructProposal memory newDProposal = DestructProposal({\n            approvalsCount : 0,\n            status: Status.ACTIVE\n        });\n\n        destructProposals.push(newDProposal);\n        emit destructProposalCreated(_ipfshash);\n         \n    }\n\n    /** @dev Allow only members to approve an active destrcut proposal that they haven't approved before.\n     *  @param _index index of the destrcut proposal the member wants to approve.\n     */\n    function aproveDestructProposal(uint _index) public membering statusActive proposalActive(_index) {\n\n        DestructProposal storage dProposal = destructProposals[_index];\n        require(!dProposal.approvals[msg.sender], \"The proposal has been already approved by the sender\");\n\n        dProposal.approvals[msg.sender] = true;\n        dProposal.approvalsCount++;\n        \n    }\n\n     /* Aux functions */\n\n    /** @dev Function to return if someone is member.\n     */\n    function isMember(address _address) public view returns (bool) {\n        return members[_address];\n    }\n\n    /** @dev Function to get the data of the campaing\n     */\n    function getCampaingInfo() public view returns (address, Status, uint, uint, uint) {\n        return (owner, status, goal, minimunContribution, membersCount);\n    } \n\n    /** @dev Function to get the data of a proposal.\n     *  @param _index index of the proposal to return\n     */\n    function getProposal(uint _index) public view returns (address, uint, uint, Status) {\n        Proposal storage proposal = proposals[_index];\n        return (proposal.recipient, proposal.value, proposal.approvalsCount, proposal.status);\n    } \n\n    /** @dev Function to get the total number of proposals.\n     */\n    function getProposalsCount() public view returns (uint) {\n        return proposals.length;\n    }\n\n     /** @dev Function to get the data of destruct proposal.\n     *  @param _index index of the destruct proposal to return\n     */\n    function getDestuctProposal(uint _index) public view returns (uint, Status) {\n        DestructProposal storage dProposal = destructProposals[_index];\n        return (dProposal.approvalsCount, dProposal.status);\n    } \n\n    /** @dev Function to get the total number of destruct proposals.\n     */\n    function getDestructProposalsCount() public view returns (uint) {\n        return destructProposals.length;\n    }\n\n    /** @dev Function to get the actual status of the campaing.\n     */\n    function getStatus() public view returns (Status) {\n        return status;\n    }\n   \n}",
  "sourcePath": "/home/tati/Desktop/personal/Tesina/tesina-crowdfunding/contracts/CrowdFundingCampaing.sol",
  "compiler": {
    "name": "solc",
    "version": "0.6.12+commit.27d51765.Emscripten.clang"
  },
  "schemaVersion": "3.0.23",
  "updatedAt": "2021-05-13T22:56:44.159Z",
  "devdoc": {
    "events": {
      "campaingCreated(bytes32)": {
        "details": "Emitted when the author creates the campaing.",
        "params": {
          "_ipfshash": "The url hash of the campaing data stored in IPFS."
        }
      },
      "destructProposalCreated(bytes32)": {
        "details": "Emitted when a member creates a proposal to destruct the campaing and get the founds back.",
        "params": {
          "_ipfshash": "The url hash of the destruct proposal data stored in IPFS."
        }
      },
      "progressUpdate(bytes32)": {
        "details": "Emitted when the author creates a progress update to show how the proyect is going.",
        "params": {
          "_ipfshash": "The url hash of the progress update data stored in IPFS."
        }
      },
      "proposalCreated(bytes32)": {
        "details": "Emitted when the author creates a proposal to free founds.",
        "params": {
          "_ipfshash": "The url hash of the proposal data stored in IPFS."
        }
      }
    },
    "kind": "dev",
    "methods": {
      "aproveDestructProposal(uint256)": {
        "details": "Allow only members to approve an active destrcut proposal that they haven't approved before.",
        "params": {
          "_index": "index of the destrcut proposal the member wants to approve."
        }
      },
      "aproveProposal(uint256)": {
        "details": "Allow only members to approve an active proposal that they haven't approved before.",
        "params": {
          "_index": "index of the proposal the member wants to approve."
        }
      },
      "constructor": {
        "details": "Constructor.",
        "params": {
          "_goal": "goal in wei that the proyect has to reach to be succesfull.",
          "_ipfshash": "The url hash of the campaing data previusly stored in IPFS.*",
          "_minimunContribution": "minimum contribution in wei that a person has to make to become a member."
        }
      },
      "contribute()": {
        "details": "Allow not members to contribute with the campaing and be a member of it."
      },
      "createDestructProposal(bytes32)": {
        "details": "Allow only members to create a new proposal to finish de proyect and get the founds back.",
        "params": {
          "_ipfshash": "url hash of the destruct proposal data (description) previusly stored in IPFS."
        }
      },
      "createProposal(uint256,address,bytes32)": {
        "details": "Allow only owner to create a new proposal to get more founds.",
        "params": {
          "_ipfshash": "url hash of the proposal data (description and pictures) previusly stored in IPFS.",
          "_recipient": "address where the founds are going to be after withdraw them.",
          "_value": "founds in wei that the owner want to withdraw."
        }
      },
      "getCampaingInfo()": {
        "details": "Function to get the data of the campaing"
      },
      "getDestructProposalsCount()": {
        "details": "Function to get the total number of destruct proposals."
      },
      "getDestuctProposal(uint256)": {
        "details": "Function to get the data of destruct proposal.",
        "params": {
          "_index": "index of the destruct proposal to return"
        }
      },
      "getProposal(uint256)": {
        "details": "Function to get the data of a proposal.",
        "params": {
          "_index": "index of the proposal to return"
        }
      },
      "getProposalsCount()": {
        "details": "Function to get the total number of proposals."
      },
      "getStatus()": {
        "details": "Function to get the actual status of the campaing."
      },
      "isMember(address)": {
        "details": "Function to return if someone is member."
      },
      "setActive()": {
        "details": "Allow only owner to change the status of the campaing from CREATED to ACTIVE."
      }
    },
    "version": 1
  },
  "userdoc": {
    "kind": "user",
    "methods": {},
    "version": 1
  }
}