{
  "contractName": "CrowdfundingCampaignDemo",
  "abi": [
    {
      "inputs": [
        {
          "internalType": "uint256",
          "name": "_minimunContribution",
          "type": "uint256"
        },
        {
          "internalType": "uint256",
          "name": "_goal",
          "type": "uint256"
        },
        {
          "internalType": "bytes32",
          "name": "_ipfshash",
          "type": "bytes32"
        }
      ],
      "stateMutability": "nonpayable",
      "type": "constructor"
    },
    {
      "anonymous": false,
      "inputs": [
        {
          "indexed": false,
          "internalType": "bytes32",
          "name": "_ipfshash",
          "type": "bytes32"
        }
      ],
      "name": "CampaignCreated",
      "type": "event"
    },
    {
      "anonymous": false,
      "inputs": [],
      "name": "ChangeStatusCampaign",
      "type": "event"
    },
    {
      "anonymous": false,
      "inputs": [
        {
          "indexed": false,
          "internalType": "uint256",
          "name": "_index",
          "type": "uint256"
        }
      ],
      "name": "CloseProposalClosed",
      "type": "event"
    },
    {
      "anonymous": false,
      "inputs": [
        {
          "indexed": false,
          "internalType": "bytes32",
          "name": "_ipfshash",
          "type": "bytes32"
        }
      ],
      "name": "CloseProposalCreated",
      "type": "event"
    },
    {
      "anonymous": false,
      "inputs": [
        {
          "indexed": false,
          "internalType": "uint256",
          "name": "_index",
          "type": "uint256"
        }
      ],
      "name": "CloseProposalVoted",
      "type": "event"
    },
    {
      "anonymous": false,
      "inputs": [],
      "name": "NewContribution",
      "type": "event"
    },
    {
      "anonymous": false,
      "inputs": [
        {
          "indexed": false,
          "internalType": "bytes32",
          "name": "_ipfshash",
          "type": "bytes32"
        }
      ],
      "name": "ProgressUpdate",
      "type": "event"
    },
    {
      "anonymous": false,
      "inputs": [
        {
          "indexed": false,
          "internalType": "uint256",
          "name": "_index",
          "type": "uint256"
        }
      ],
      "name": "ProposalClosed",
      "type": "event"
    },
    {
      "anonymous": false,
      "inputs": [
        {
          "indexed": false,
          "internalType": "bytes32",
          "name": "_ipfshash",
          "type": "bytes32"
        }
      ],
      "name": "ProposalCreated",
      "type": "event"
    },
    {
      "anonymous": false,
      "inputs": [
        {
          "indexed": false,
          "internalType": "uint256",
          "name": "_index",
          "type": "uint256"
        }
      ],
      "name": "ProposalRelease",
      "type": "event"
    },
    {
      "anonymous": false,
      "inputs": [
        {
          "indexed": false,
          "internalType": "uint256",
          "name": "_index",
          "type": "uint256"
        }
      ],
      "name": "ProposalVoted",
      "type": "event"
    },
    {
      "anonymous": false,
      "inputs": [
        {
          "indexed": false,
          "internalType": "address",
          "name": "_member",
          "type": "address"
        },
        {
          "indexed": false,
          "internalType": "uint256",
          "name": "contribution",
          "type": "uint256"
        },
        {
          "indexed": false,
          "internalType": "uint256",
          "name": "goal",
          "type": "uint256"
        },
        {
          "indexed": false,
          "internalType": "uint256",
          "name": "payment",
          "type": "uint256"
        },
        {
          "indexed": false,
          "internalType": "uint256",
          "name": "founds",
          "type": "uint256"
        }
      ],
      "name": "withdrawFounds",
      "type": "event"
    },
    {
      "inputs": [
        {
          "internalType": "uint256",
          "name": "_index",
          "type": "uint256"
        }
      ],
      "name": "approveCloseProposal",
      "outputs": [],
      "stateMutability": "nonpayable",
      "type": "function"
    },
    {
      "inputs": [
        {
          "internalType": "uint256",
          "name": "_index",
          "type": "uint256"
        }
      ],
      "name": "approveProposal",
      "outputs": [],
      "stateMutability": "nonpayable",
      "type": "function"
    },
    {
      "inputs": [
        {
          "internalType": "uint256",
          "name": "_index",
          "type": "uint256"
        }
      ],
      "name": "closeCloseProposal",
      "outputs": [],
      "stateMutability": "nonpayable",
      "type": "function"
    },
    {
      "inputs": [
        {
          "internalType": "uint256",
          "name": "_index",
          "type": "uint256"
        }
      ],
      "name": "closeProposal",
      "outputs": [],
      "stateMutability": "nonpayable",
      "type": "function"
    },
    {
      "inputs": [
        {
          "internalType": "uint256",
          "name": "",
          "type": "uint256"
        }
      ],
      "name": "closeProposals",
      "outputs": [
        {
          "internalType": "uint256",
          "name": "approvalsCount",
          "type": "uint256"
        },
        {
          "internalType": "uint256",
          "name": "disapprovalsCount",
          "type": "uint256"
        },
        {
          "internalType": "enum CrowdfundingCampaign.ProposalStatus",
          "name": "status",
          "type": "uint8"
        },
        {
          "internalType": "uint256",
          "name": "limitTime",
          "type": "uint256"
        },
        {
          "internalType": "address",
          "name": "author",
          "type": "address"
        }
      ],
      "stateMutability": "view",
      "type": "function",
      "constant": true
    },
    {
      "inputs": [],
      "name": "contribute",
      "outputs": [],
      "stateMutability": "payable",
      "type": "function",
      "payable": true
    },
    {
      "inputs": [
        {
          "internalType": "address",
          "name": "",
          "type": "address"
        }
      ],
      "name": "contributions",
      "outputs": [
        {
          "internalType": "uint256",
          "name": "",
          "type": "uint256"
        }
      ],
      "stateMutability": "view",
      "type": "function",
      "constant": true
    },
    {
      "inputs": [
        {
          "internalType": "bytes32",
          "name": "_ipfshash",
          "type": "bytes32"
        }
      ],
      "name": "createCloseProposal",
      "outputs": [],
      "stateMutability": "nonpayable",
      "type": "function"
    },
    {
      "inputs": [
        {
          "internalType": "uint256",
          "name": "_value",
          "type": "uint256"
        },
        {
          "internalType": "address",
          "name": "_recipient",
          "type": "address"
        },
        {
          "internalType": "bytes32",
          "name": "_ipfshash",
          "type": "bytes32"
        }
      ],
      "name": "createProposal",
      "outputs": [],
      "stateMutability": "nonpayable",
      "type": "function"
    },
    {
      "inputs": [],
      "name": "created_at",
      "outputs": [
        {
          "internalType": "uint256",
          "name": "",
          "type": "uint256"
        }
      ],
      "stateMutability": "view",
      "type": "function",
      "constant": true
    },
    {
      "inputs": [
        {
          "internalType": "uint256",
          "name": "_index",
          "type": "uint256"
        }
      ],
      "name": "disapproveCloseProposal",
      "outputs": [],
      "stateMutability": "nonpayable",
      "type": "function"
    },
    {
      "inputs": [
        {
          "internalType": "uint256",
          "name": "_index",
          "type": "uint256"
        }
      ],
      "name": "disapproveProposal",
      "outputs": [],
      "stateMutability": "nonpayable",
      "type": "function"
    },
    {
      "inputs": [],
      "name": "finalContributions",
      "outputs": [
        {
          "internalType": "uint256",
          "name": "",
          "type": "uint256"
        }
      ],
      "stateMutability": "view",
      "type": "function",
      "constant": true
    },
    {
      "inputs": [],
      "name": "getCampaignInfo",
      "outputs": [
        {
          "internalType": "address",
          "name": "",
          "type": "address"
        },
        {
          "internalType": "enum CrowdfundingCampaign.CampaignStatus",
          "name": "",
          "type": "uint8"
        },
        {
          "internalType": "uint256",
          "name": "",
          "type": "uint256"
        },
        {
          "internalType": "uint256",
          "name": "",
          "type": "uint256"
        },
        {
          "internalType": "uint256",
          "name": "",
          "type": "uint256"
        },
        {
          "internalType": "uint256",
          "name": "",
          "type": "uint256"
        },
        {
          "internalType": "uint256",
          "name": "",
          "type": "uint256"
        },
        {
          "internalType": "bool",
          "name": "",
          "type": "bool"
        }
      ],
      "stateMutability": "view",
      "type": "function",
      "constant": true
    },
    {
      "inputs": [
        {
          "internalType": "uint256",
          "name": "_index",
          "type": "uint256"
        }
      ],
      "name": "getCloseProposal",
      "outputs": [
        {
          "internalType": "uint256",
          "name": "",
          "type": "uint256"
        },
        {
          "internalType": "uint256",
          "name": "",
          "type": "uint256"
        },
        {
          "internalType": "enum CrowdfundingCampaign.ProposalStatus",
          "name": "",
          "type": "uint8"
        },
        {
          "internalType": "uint256",
          "name": "",
          "type": "uint256"
        },
        {
          "internalType": "bool",
          "name": "",
          "type": "bool"
        },
        {
          "internalType": "bool",
          "name": "",
          "type": "bool"
        },
        {
          "internalType": "address",
          "name": "",
          "type": "address"
        }
      ],
      "stateMutability": "view",
      "type": "function",
      "constant": true
    },
    {
      "inputs": [],
      "name": "getCloseProposalsCount",
      "outputs": [
        {
          "internalType": "uint256",
          "name": "",
          "type": "uint256"
        }
      ],
      "stateMutability": "view",
      "type": "function",
      "constant": true
    },
    {
      "inputs": [],
      "name": "getFinalContributions",
      "outputs": [
        {
          "internalType": "uint256",
          "name": "",
          "type": "uint256"
        }
      ],
      "stateMutability": "view",
      "type": "function",
      "constant": true
    },
    {
      "inputs": [
        {
          "internalType": "uint256",
          "name": "_index",
          "type": "uint256"
        }
      ],
      "name": "getProposal",
      "outputs": [
        {
          "internalType": "address",
          "name": "",
          "type": "address"
        },
        {
          "internalType": "uint256",
          "name": "",
          "type": "uint256"
        },
        {
          "internalType": "uint256",
          "name": "",
          "type": "uint256"
        },
        {
          "internalType": "uint256",
          "name": "",
          "type": "uint256"
        },
        {
          "internalType": "enum CrowdfundingCampaign.ProposalStatus",
          "name": "",
          "type": "uint8"
        },
        {
          "internalType": "uint256",
          "name": "",
          "type": "uint256"
        },
        {
          "internalType": "bool",
          "name": "",
          "type": "bool"
        },
        {
          "internalType": "bool",
          "name": "",
          "type": "bool"
        }
      ],
      "stateMutability": "view",
      "type": "function",
      "constant": true
    },
    {
      "inputs": [],
      "name": "getProposalsCount",
      "outputs": [
        {
          "internalType": "uint256",
          "name": "",
          "type": "uint256"
        }
      ],
      "stateMutability": "view",
      "type": "function",
      "constant": true
    },
    {
      "inputs": [],
      "name": "getRemainingContributions",
      "outputs": [
        {
          "internalType": "uint256",
          "name": "",
          "type": "uint256"
        }
      ],
      "stateMutability": "view",
      "type": "function",
      "constant": true
    },
    {
      "inputs": [],
      "name": "getStatus",
      "outputs": [
        {
          "internalType": "enum CrowdfundingCampaign.CampaignStatus",
          "name": "",
          "type": "uint8"
        }
      ],
      "stateMutability": "view",
      "type": "function",
      "constant": true
    },
    {
      "inputs": [],
      "name": "goal",
      "outputs": [
        {
          "internalType": "uint256",
          "name": "",
          "type": "uint256"
        }
      ],
      "stateMutability": "view",
      "type": "function",
      "constant": true
    },
    {
      "inputs": [
        {
          "internalType": "uint256",
          "name": "_index",
          "type": "uint256"
        }
      ],
      "name": "hasVotedCloseProposal",
      "outputs": [
        {
          "internalType": "bool",
          "name": "",
          "type": "bool"
        }
      ],
      "stateMutability": "view",
      "type": "function",
      "constant": true
    },
    {
      "inputs": [
        {
          "internalType": "uint256",
          "name": "_index",
          "type": "uint256"
        }
      ],
      "name": "hasVotedProposal",
      "outputs": [
        {
          "internalType": "bool",
          "name": "",
          "type": "bool"
        }
      ],
      "stateMutability": "view",
      "type": "function",
      "constant": true
    },
    {
      "inputs": [
        {
          "internalType": "address",
          "name": "_address",
          "type": "address"
        }
      ],
      "name": "isMember",
      "outputs": [
        {
          "internalType": "bool",
          "name": "",
          "type": "bool"
        }
      ],
      "stateMutability": "view",
      "type": "function",
      "constant": true
    },
    {
      "inputs": [],
      "name": "membersCount",
      "outputs": [
        {
          "internalType": "uint256",
          "name": "",
          "type": "uint256"
        }
      ],
      "stateMutability": "view",
      "type": "function",
      "constant": true
    },
    {
      "inputs": [],
      "name": "minimunContribution",
      "outputs": [
        {
          "internalType": "uint256",
          "name": "",
          "type": "uint256"
        }
      ],
      "stateMutability": "view",
      "type": "function",
      "constant": true
    },
    {
      "inputs": [],
      "name": "owner",
      "outputs": [
        {
          "internalType": "address",
          "name": "",
          "type": "address"
        }
      ],
      "stateMutability": "view",
      "type": "function",
      "constant": true
    },
    {
      "inputs": [
        {
          "internalType": "uint256",
          "name": "",
          "type": "uint256"
        }
      ],
      "name": "proposals",
      "outputs": [
        {
          "internalType": "uint256",
          "name": "value",
          "type": "uint256"
        },
        {
          "internalType": "address",
          "name": "recipient",
          "type": "address"
        },
        {
          "internalType": "uint256",
          "name": "approvalsCount",
          "type": "uint256"
        },
        {
          "internalType": "uint256",
          "name": "disapprovalsCount",
          "type": "uint256"
        },
        {
          "internalType": "enum CrowdfundingCampaign.ProposalStatus",
          "name": "status",
          "type": "uint8"
        },
        {
          "internalType": "uint256",
          "name": "limitTime",
          "type": "uint256"
        }
      ],
      "stateMutability": "view",
      "type": "function",
      "constant": true
    },
    {
      "inputs": [
        {
          "internalType": "uint256",
          "name": "_index",
          "type": "uint256"
        }
      ],
      "name": "release",
      "outputs": [],
      "stateMutability": "nonpayable",
      "type": "function"
    },
    {
      "inputs": [],
      "name": "remainingContributions",
      "outputs": [
        {
          "internalType": "uint256",
          "name": "",
          "type": "uint256"
        }
      ],
      "stateMutability": "view",
      "type": "function",
      "constant": true
    },
    {
      "inputs": [
        {
          "internalType": "bytes32",
          "name": "_ipfshash",
          "type": "bytes32"
        }
      ],
      "name": "saveProgressUpdate",
      "outputs": [],
      "stateMutability": "nonpayable",
      "type": "function"
    },
    {
      "inputs": [],
      "name": "setActive",
      "outputs": [],
      "stateMutability": "nonpayable",
      "type": "function"
    },
    {
      "inputs": [],
      "name": "status",
      "outputs": [
        {
          "internalType": "enum CrowdfundingCampaign.CampaignStatus",
          "name": "",
          "type": "uint8"
        }
      ],
      "stateMutability": "view",
      "type": "function",
      "constant": true
    },
    {
      "inputs": [],
      "name": "withdraw",
      "outputs": [],
      "stateMutability": "nonpayable",
      "type": "function"
    },
    {
      "inputs": [
        {
          "internalType": "address",
          "name": "",
          "type": "address"
        }
      ],
      "name": "withdraws",
      "outputs": [
        {
          "internalType": "bool",
          "name": "",
          "type": "bool"
        }
      ],
      "stateMutability": "view",
      "type": "function",
      "constant": true
    },
    {
      "inputs": [],
      "name": "changeCreatedAt",
      "outputs": [],
      "stateMutability": "nonpayable",
      "type": "function"
    },
    {
      "inputs": [
        {
          "internalType": "uint256",
          "name": "_index",
          "type": "uint256"
        }
      ],
      "name": "changeLimitProposal",
      "outputs": [],
      "stateMutability": "nonpayable",
      "type": "function"
    },
    {
      "inputs": [
        {
          "internalType": "uint256",
          "name": "_index",
          "type": "uint256"
        }
      ],
      "name": "changeLimitCloseProposal",
      "outputs": [],
      "stateMutability": "nonpayable",
      "type": "function"
    }
  ],
  "bytecode": "0x60806040523480156200001157600080fd5b5060405162004e3e38038062004e3e833981810160405281019062000037919062000138565b82828233600060016101000a81548173ffffffffffffffffffffffffffffffffffffffff021916908373ffffffffffffffffffffffffffffffffffffffff160217905550816001819055508260028190555060008060006101000a81548160ff02191690836003811115620000b157620000b0620001d6565b5b02179055506000600381905550426006819055507f0f627713f9c831a1b079924dedde3308e90d22b754bdd481f9b2165aa0f9dfb981604051620000f69190620001a5565b60405180910390a15050505050506200023e565b6000815190506200011b816200020a565b92915050565b600081519050620001328162000224565b92915050565b60008060006060848603121562000154576200015362000205565b5b6000620001648682870162000121565b9350506020620001778682870162000121565b92505060406200018a868287016200010a565b9150509250925092565b6200019f81620001c2565b82525050565b6000602082019050620001bc600083018462000194565b92915050565b6000819050919050565b6000819050919050565b7f4e487b7100000000000000000000000000000000000000000000000000000000600052602160045260246000fd5b600080fd5b6200021581620001c2565b81146200022157600080fd5b50565b6200022f81620001cc565b81146200023b57600080fd5b50565b614bf0806200024e6000396000f3fe6080604052600436106102305760003560e01c806384980e831161012e578063c7f758a8116100ab578063de3f3ae01161006f578063de3f3ae014610829578063edbd0db814610852578063eeda05181461087d578063f7268f2f146108ba578063fa65a131146108e357610230565b8063c7f758a814610755578063c8541fe014610799578063d6290cd7146107c2578063d7bb99ba146107f4578063d853ba73146107fe57610230565b80639c6f0d85116100f25780639c6f0d8514610670578063a230c5241461069b578063a7f33715146106d8578063b8f02ae114610703578063c34b69d11461072c57610230565b806384980e831461058b57806384b519b9146105b45780638da5cb5b146105f157806398951b561461061c57806398e527d31461064557610230565b80633ccfd60b116101bc5780634de583fb116101805780634de583fb146104b45780634e69d560146104f55780634f92c9251461052057806351c36c1e1461054b578063760a8c2a1461057457610230565b80633ccfd60b146103b557806340193883146103cc57806342e94c90146103f757806343a41c8f1461043457806348179ee51461047757610230565b8063200d2ed211610203578063200d2ed2146102f6578063297f9af01461032157806333ce6b8a1461034c57806337bdc99b146103635780633b047a8f1461038c57610230565b80630126f61e14610235578063013cf08b146102605780630386a016146102a257806304095005146102cb575b600080fd5b34801561024157600080fd5b5061024a61090c565b604051610257919061415a565b60405180910390f35b34801561026c57600080fd5b50610287600480360381019061028291906138c0565b610912565b60405161029996959493929190614175565b60405180910390f35b3480156102ae57600080fd5b506102c960048036038101906102c491906138c0565b61098b565b005b3480156102d757600080fd5b506102e0610cae565b6040516102ed919061415a565b60405180910390f35b34801561030257600080fd5b5061030b610cbb565b6040516103189190613e5f565b60405180910390f35b34801561032d57600080fd5b50610336610ccc565b604051610343919061415a565b60405180910390f35b34801561035857600080fd5b50610361610cd2565b005b34801561036f57600080fd5b5061038a600480360381019061038591906138c0565b610ceb565b005b34801561039857600080fd5b506103b360048036038101906103ae9190613893565b610f87565b005b3480156103c157600080fd5b506103ca6110c5565b005b3480156103d857600080fd5b506103e1611530565b6040516103ee919061415a565b60405180910390f35b34801561040357600080fd5b5061041e60048036038101906104199190613866565b611536565b60405161042b919061415a565b60405180910390f35b34801561044057600080fd5b5061045b600480360381019061045691906138c0565b61154e565b60405161046e9796959493929190614229565b60405180910390f35b34801561048357600080fd5b5061049e60048036038101906104999190613866565b611641565b6040516104ab9190613e29565b60405180910390f35b3480156104c057600080fd5b506104db60048036038101906104d691906138c0565b611661565b6040516104ec9594939291906141d6565b60405180910390f35b34801561050157600080fd5b5061050a6116d4565b6040516105179190613e5f565b60405180910390f35b34801561052c57600080fd5b506105356116ea565b604051610542919061415a565b60405180910390f35b34801561055757600080fd5b50610572600480360381019061056d91906138ed565b6116f4565b005b34801561058057600080fd5b50610589611940565b005b34801561059757600080fd5b506105b260048036038101906105ad91906138c0565b611ae8565b005b3480156105c057600080fd5b506105db60048036038101906105d691906138c0565b611edb565b6040516105e89190613e29565b60405180910390f35b3480156105fd57600080fd5b50610606611f59565b6040516106139190613cbf565b60405180910390f35b34801561062857600080fd5b50610643600480360381019061063e91906138c0565b611f7f565b005b34801561065157600080fd5b5061065a612336565b604051610667919061415a565b60405180910390f35b34801561067c57600080fd5b50610685612343565b604051610692919061415a565b60405180910390f35b3480156106a757600080fd5b506106c260048036038101906106bd9190613866565b612349565b6040516106cf9190613e29565b60405180910390f35b3480156106e457600080fd5b506106ed612394565b6040516106fa919061415a565b60405180910390f35b34801561070f57600080fd5b5061072a600480360381019061072591906138c0565b61239a565b005b34801561073857600080fd5b50610753600480360381019061074e91906138c0565b6123df565b005b34801561076157600080fd5b5061077c600480360381019061077791906138c0565b612424565b604051610790989796959493929190613d58565b60405180910390f35b3480156107a557600080fd5b506107c060048036038101906107bb91906138c0565b612520565b005b3480156107ce57600080fd5b506107d76128d7565b6040516107eb989796959493929190613cda565b60405180910390f35b6107fc612957565b005b34801561080a57600080fd5b50610813612b76565b604051610820919061415a565b60405180910390f35b34801561083557600080fd5b50610850600480360381019061084b91906138c0565b612b7c565b005b34801561085e57600080fd5b50610867612fe2565b604051610874919061415a565b60405180910390f35b34801561088957600080fd5b506108a4600480360381019061089f91906138c0565b612fec565b6040516108b19190613e29565b60405180910390f35b3480156108c657600080fd5b506108e160048036038101906108dc9190613893565b61306a565b005b3480156108ef57600080fd5b5061090a600480360381019061090591906138c0565b613434565b005b60045481565b6009818154811061092257600080fd5b90600052602060002090600702016000915090508060000154908060010160009054906101000a900473ffffffffffffffffffffffffffffffffffffffff16908060020154908060030154908060050160009054906101000a900460ff16908060060154905086565b6000600760003373ffffffffffffffffffffffffffffffffffffffff1673ffffffffffffffffffffffffffffffffffffffff168152602001908152602001600020541180610a265750600060019054906101000a900473ffffffffffffffffffffffffffffffffffffffff1673ffffffffffffffffffffffffffffffffffffffff163373ffffffffffffffffffffffffffffffffffffffff16145b610a65576040517f08c379a0000000000000000000000000000000000000000000000000000000008152600401610a5c90613eba565b60405180910390fd5b60016003811115610a7957610a78614501565b5b60008054906101000a900460ff166003811115610a9957610a98614501565b5b14610ad9576040517f08c379a0000000000000000000000000000000000000000000000000000000008152600401610ad09061401a565b60405180910390fd5b8060006003811115610aee57610aed614501565b5b60098281548110610b0257610b01614530565b5b906000526020600020906007020160050160009054906101000a900460ff166003811115610b3357610b32614501565b5b14610b73576040517f08c379a0000000000000000000000000000000000000000000000000000000008152600401610b6a9061413a565b60405180910390fd5b8160098181548110610b8857610b87614530565b5b9060005260206000209060070201600601544211610bdb576040517f08c379a0000000000000000000000000000000000000000000000000000000008152600401610bd2906140fa565b60405180910390fd5b600060098481548110610bf157610bf0614530565b5b90600052602060002090600702019050806003015481600201541115610c435760018160050160006101000a81548160ff02191690836003811115610c3957610c38614501565b5b0217905550610c71565b60028160050160006101000a81548160ff02191690836003811115610c6b57610c6a614501565b5b02179055505b7f887777ccf43690541bed9e00b10d0fccfa7520b11875f09847a57b3085d8ab9284604051610ca0919061415a565b60405180910390a150505050565b6000600a80549050905090565b60008054906101000a900460ff1681565b60035481565b62127500600654610ce3919061438a565b600681905550565b600060019054906101000a900473ffffffffffffffffffffffffffffffffffffffff1673ffffffffffffffffffffffffffffffffffffffff163373ffffffffffffffffffffffffffffffffffffffff1614610d7b576040517f08c379a0000000000000000000000000000000000000000000000000000000008152600401610d7290613f3a565b60405180910390fd5b60016003811115610d8f57610d8e614501565b5b60008054906101000a900460ff166003811115610daf57610dae614501565b5b14610def576040517f08c379a0000000000000000000000000000000000000000000000000000000008152600401610de69061401a565b60405180910390fd5b8060016003811115610e0457610e03614501565b5b60098281548110610e1857610e17614530565b5b906000526020600020906007020160050160009054906101000a900460ff166003811115610e4957610e48614501565b5b14610e89576040517f08c379a0000000000000000000000000000000000000000000000000000000008152600401610e8090613fda565b60405180910390fd5b600060098381548110610e9f57610e9e614530565b5b9060005260206000209060070201905060038160050160006101000a81548160ff02191690836003811115610ed757610ed6614501565b5b02179055508060010160009054906101000a900473ffffffffffffffffffffffffffffffffffffffff1673ffffffffffffffffffffffffffffffffffffffff166108fc82600001549081150290604051600060405180830381858888f19350505050158015610f4a573d6000803e3d6000fd5b507fe02fec677757e427d1b6e49fcaf5bb9a6dd94e9fed2a2cc3c764c95deceff5b783604051610f7a919061415a565b60405180910390a1505050565b600060019054906101000a900473ffffffffffffffffffffffffffffffffffffffff1673ffffffffffffffffffffffffffffffffffffffff163373ffffffffffffffffffffffffffffffffffffffff1614611017576040517f08c379a000000000000000000000000000000000000000000000000000000000815260040161100e90613f3a565b60405180910390fd5b6001600381111561102b5761102a614501565b5b60008054906101000a900460ff16600381111561104b5761104a614501565b5b1461108b576040517f08c379a00000000000000000000000000000000000000000000000000000000081526004016110829061401a565b60405180910390fd5b7f2f8af70d91e96a23b8111e37a9117f7cfe341f51c17759c36475a1a7698f0dc3816040516110ba9190613e44565b60405180910390a150565b6000600760003373ffffffffffffffffffffffffffffffffffffffff1673ffffffffffffffffffffffffffffffffffffffff1681526020019081526020016000205411806111605750600060019054906101000a900473ffffffffffffffffffffffffffffffffffffffff1673ffffffffffffffffffffffffffffffffffffffff163373ffffffffffffffffffffffffffffffffffffffff16145b61119f576040517f08c379a000000000000000000000000000000000000000000000000000000000815260040161119690613eba565b60405180910390fd5b6003808111156111b2576111b1614501565b5b60008054906101000a900460ff1660038111156111d2576111d1614501565b5b148061120f5750600260038111156111ed576111ec614501565b5b60008054906101000a900460ff16600381111561120d5761120c614501565b5b145b61124e576040517f08c379a00000000000000000000000000000000000000000000000000000000081526004016112459061405a565b60405180910390fd5b600060019054906101000a900473ffffffffffffffffffffffffffffffffffffffff1673ffffffffffffffffffffffffffffffffffffffff163373ffffffffffffffffffffffffffffffffffffffff1614156112df576040517f08c379a00000000000000000000000000000000000000000000000000000000081526004016112d690613efa565b60405180910390fd5b600860003373ffffffffffffffffffffffffffffffffffffffff1673ffffffffffffffffffffffffffffffffffffffff16815260200190815260200160002060009054906101000a900460ff161561136c576040517f08c379a00000000000000000000000000000000000000000000000000000000081526004016113639061407a565b60405180910390fd5b6000600454600554600760003373ffffffffffffffffffffffffffffffffffffffff1673ffffffffffffffffffffffffffffffffffffffff168152602001908152602001600020546113be9190614330565b6113c891906142ff565b905047811061140c576040517f08c379a000000000000000000000000000000000000000000000000000000000815260040161140390613fba565b60405180910390fd5b3373ffffffffffffffffffffffffffffffffffffffff166108fc829081150290604051600060405180830381858888f19350505050158015611452573d6000803e3d6000fd5b506001600860003373ffffffffffffffffffffffffffffffffffffffff1673ffffffffffffffffffffffffffffffffffffffff16815260200190815260200160002060006101000a81548160ff0219169083151502179055507fa4e42298552baa3282225c552bba5a22b3034cdc0e531fe987c8003a44d95e2933600760003373ffffffffffffffffffffffffffffffffffffffff1673ffffffffffffffffffffffffffffffffffffffff1681526020019081526020016000205460045484600554604051611525959493929190613dd6565b60405180910390a150565b60015481565b60076020528060005260406000206000915090505481565b600080600080600080600080600a898154811061156e5761156d614530565b5b9060005260206000209060060201905060008160040154421115905060008260020160003373ffffffffffffffffffffffffffffffffffffffff1673ffffffffffffffffffffffffffffffffffffffff16815260200190815260200160002060009054906101000a900460ff169050826000015483600101548460030160009054906101000a900460ff16856004015485858860050160009054906101000a900473ffffffffffffffffffffffffffffffffffffffff169950995099509950995099509950505050919395979092949650565b60086020528060005260406000206000915054906101000a900460ff1681565b600a818154811061167157600080fd5b90600052602060002090600602016000915090508060000154908060010154908060030160009054906101000a900460ff16908060040154908060050160009054906101000a900473ffffffffffffffffffffffffffffffffffffffff16905085565b60008060009054906101000a900460ff16905090565b6000600554905090565b600060019054906101000a900473ffffffffffffffffffffffffffffffffffffffff1673ffffffffffffffffffffffffffffffffffffffff163373ffffffffffffffffffffffffffffffffffffffff1614611784576040517f08c379a000000000000000000000000000000000000000000000000000000000815260040161177b90613f3a565b60405180910390fd5b6001600381111561179857611797614501565b5b60008054906101000a900460ff1660038111156117b8576117b7614501565b5b146117f8576040517f08c379a00000000000000000000000000000000000000000000000000000000081526004016117ef9061401a565b60405180910390fd5b8247101561183b576040517f08c379a000000000000000000000000000000000000000000000000000000000815260040161183290613f7a565b60405180910390fd5b600060096001816001815401808255809150500390600052602060002090600702019050828160010160006101000a81548173ffffffffffffffffffffffffffffffffffffffff021916908373ffffffffffffffffffffffffffffffffffffffff160217905550838160000181905550600081600201819055506000816003018190555060008160050160006101000a81548160ff021916908360038111156118e7576118e6614501565b5b021790555062093a80426118fb91906142a9565b81600601819055507f288a29bca04edb18fcdb2c76d6e3b03b8a137c85c70d1a4cb8aacfa868d60510826040516119329190613e44565b60405180910390a150505050565b600060019054906101000a900473ffffffffffffffffffffffffffffffffffffffff1673ffffffffffffffffffffffffffffffffffffffff163373ffffffffffffffffffffffffffffffffffffffff16146119d0576040517f08c379a00000000000000000000000000000000000000000000000000000000081526004016119c790613f3a565b60405180910390fd5b600060038111156119e4576119e3614501565b5b60008054906101000a900460ff166003811115611a0457611a03614501565b5b14611a44576040517f08c379a0000000000000000000000000000000000000000000000000000000008152600401611a3b906140ba565b60405180910390fd5b600154471015611a89576040517f08c379a0000000000000000000000000000000000000000000000000000000008152600401611a8090613ffa565b60405180910390fd5b60016000806101000a81548160ff02191690836003811115611aae57611aad614501565b5b0217905550476004819055507fe283e942d53c4322165eacc7a597c86cdbc698c96321f57a82b29c615810a69560405160405180910390a1565b6000600760003373ffffffffffffffffffffffffffffffffffffffff1673ffffffffffffffffffffffffffffffffffffffff168152602001908152602001600020541180611b835750600060019054906101000a900473ffffffffffffffffffffffffffffffffffffffff1673ffffffffffffffffffffffffffffffffffffffff163373ffffffffffffffffffffffffffffffffffffffff16145b611bc2576040517f08c379a0000000000000000000000000000000000000000000000000000000008152600401611bb990613eba565b60405180910390fd5b60016003811115611bd657611bd5614501565b5b60008054906101000a900460ff166003811115611bf657611bf5614501565b5b1480611c33575060006003811115611c1157611c10614501565b5b60008054906101000a900460ff166003811115611c3157611c30614501565b5b145b611c72576040517f08c379a0000000000000000000000000000000000000000000000000000000008152600401611c69906140da565b60405180910390fd5b8060006003811115611c8757611c86614501565b5b600a8281548110611c9b57611c9a614530565b5b906000526020600020906006020160030160009054906101000a900460ff166003811115611ccc57611ccb614501565b5b14611d0c576040517f08c379a0000000000000000000000000000000000000000000000000000000008152600401611d039061411a565b60405180910390fd5b81600a8181548110611d2157611d20614530565b5b906000526020600020906006020160040154421115611d75576040517f08c379a0000000000000000000000000000000000000000000000000000000008152600401611d6c90613f9a565b60405180910390fd5b6000600a8481548110611d8b57611d8a614530565b5b906000526020600020906006020190508060020160003373ffffffffffffffffffffffffffffffffffffffff1673ffffffffffffffffffffffffffffffffffffffff16815260200190815260200160002060009054906101000a900460ff1615611e2a576040517f08c379a0000000000000000000000000000000000000000000000000000000008152600401611e219061409a565b60405180910390fd5b60018160020160003373ffffffffffffffffffffffffffffffffffffffff1673ffffffffffffffffffffffffffffffffffffffff16815260200190815260200160002060006101000a81548160ff021916908315150217905550806000016000815480929190611e999061445a565b91905055507f53c1eb0055cc9dbfe4823171931d9ec63b8682244ed5778661bb94ba2075f8c684604051611ecd919061415a565b60405180910390a150505050565b600080600a8381548110611ef257611ef1614530565b5b906000526020600020906006020190508060020160003373ffffffffffffffffffffffffffffffffffffffff1673ffffffffffffffffffffffffffffffffffffffff16815260200190815260200160002060009054906101000a900460ff16915050919050565b600060019054906101000a900473ffffffffffffffffffffffffffffffffffffffff1681565b6000600760003373ffffffffffffffffffffffffffffffffffffffff1673ffffffffffffffffffffffffffffffffffffffff16815260200190815260200160002054118061201a5750600060019054906101000a900473ffffffffffffffffffffffffffffffffffffffff1673ffffffffffffffffffffffffffffffffffffffff163373ffffffffffffffffffffffffffffffffffffffff16145b612059576040517f08c379a000000000000000000000000000000000000000000000000000000000815260040161205090613eba565b60405180910390fd5b6001600381111561206d5761206c614501565b5b60008054906101000a900460ff16600381111561208d5761208c614501565b5b146120cd576040517f08c379a00000000000000000000000000000000000000000000000000000000081526004016120c49061401a565b60405180910390fd5b80600060038111156120e2576120e1614501565b5b600982815481106120f6576120f5614530565b5b906000526020600020906007020160050160009054906101000a900460ff16600381111561212757612126614501565b5b14612167576040517f08c379a000000000000000000000000000000000000000000000000000000000815260040161215e9061413a565b60405180910390fd5b816009818154811061217c5761217b614530565b5b9060005260206000209060070201600601544211156121d0576040517f08c379a00000000000000000000000000000000000000000000000000000000081526004016121c790613f5a565b60405180910390fd5b6000600984815481106121e6576121e5614530565b5b906000526020600020906007020190508060040160003373ffffffffffffffffffffffffffffffffffffffff1673ffffffffffffffffffffffffffffffffffffffff16815260200190815260200160002060009054906101000a900460ff1615612285576040517f08c379a000000000000000000000000000000000000000000000000000000000815260040161227c9061403a565b60405180910390fd5b60018160040160003373ffffffffffffffffffffffffffffffffffffffff1673ffffffffffffffffffffffffffffffffffffffff16815260200190815260200160002060006101000a81548160ff0219169083151502179055508060020160008154809291906122f49061445a565b91905055507f26b645fdecdf266f3abc5b7ae3e796ffd297febba8bd3a8ad49c68435190fc6984604051612328919061415a565b60405180910390a150505050565b6000600980549050905090565b60065481565b600080600760008473ffffffffffffffffffffffffffffffffffffffff1673ffffffffffffffffffffffffffffffffffffffff16815260200190815260200160002054119050919050565b60025481565b6000600982815481106123b0576123af614530565b5b9060005260206000209060070201905062093a8081600601546123d3919061438a565b81600601819055505050565b6000600a82815481106123f5576123f4614530565b5b9060005260206000209060060201905062093a808160040154612418919061438a565b81600401819055505050565b600080600080600080600080600060098a8154811061244657612445614530565b5b9060005260206000209060070201905060008160060154421115905060008260040160003373ffffffffffffffffffffffffffffffffffffffff1673ffffffffffffffffffffffffffffffffffffffff16815260200190815260200160002060009054906101000a900460ff1690508260010160009054906101000a900473ffffffffffffffffffffffffffffffffffffffff168360000154846002015485600301548660050160009054906101000a900460ff16876006015487879a509a509a509a509a509a509a509a50505050919395975091939597565b6000600760003373ffffffffffffffffffffffffffffffffffffffff1673ffffffffffffffffffffffffffffffffffffffff1681526020019081526020016000205411806125bb5750600060019054906101000a900473ffffffffffffffffffffffffffffffffffffffff1673ffffffffffffffffffffffffffffffffffffffff163373ffffffffffffffffffffffffffffffffffffffff16145b6125fa576040517f08c379a00000000000000000000000000000000000000000000000000000000081526004016125f190613eba565b60405180910390fd5b6001600381111561260e5761260d614501565b5b60008054906101000a900460ff16600381111561262e5761262d614501565b5b1461266e576040517f08c379a00000000000000000000000000000000000000000000000000000000081526004016126659061401a565b60405180910390fd5b806000600381111561268357612682614501565b5b6009828154811061269757612696614530565b5b906000526020600020906007020160050160009054906101000a900460ff1660038111156126c8576126c7614501565b5b14612708576040517f08c379a00000000000000000000000000000000000000000000000000000000081526004016126ff9061413a565b60405180910390fd5b816009818154811061271d5761271c614530565b5b906000526020600020906007020160060154421115612771576040517f08c379a000000000000000000000000000000000000000000000000000000000815260040161276890613f5a565b60405180910390fd5b60006009848154811061278757612786614530565b5b906000526020600020906007020190508060040160003373ffffffffffffffffffffffffffffffffffffffff1673ffffffffffffffffffffffffffffffffffffffff16815260200190815260200160002060009054906101000a900460ff1615612826576040517f08c379a000000000000000000000000000000000000000000000000000000000815260040161281d9061403a565b60405180910390fd5b60018160040160003373ffffffffffffffffffffffffffffffffffffffff1673ffffffffffffffffffffffffffffffffffffffff16815260200190815260200160002060006101000a81548160ff0219169083151502179055508060030160008154809291906128959061445a565b91905055507f26b645fdecdf266f3abc5b7ae3e796ffd297febba8bd3a8ad49c68435190fc69846040516128c9919061415a565b60405180910390a150505050565b600080600080600080600080600042621275006006546128f791906142a9565b11159050600060019054906101000a900473ffffffffffffffffffffffffffffffffffffffff1660008054906101000a900460ff166001546002546003546004546005548798509850985098509850985098509850509091929394959697565b6000600760003373ffffffffffffffffffffffffffffffffffffffff1673ffffffffffffffffffffffffffffffffffffffff168152602001908152602001600020541480156129f45750600060019054906101000a900473ffffffffffffffffffffffffffffffffffffffff1673ffffffffffffffffffffffffffffffffffffffff163373ffffffffffffffffffffffffffffffffffffffff1614155b612a33576040517f08c379a0000000000000000000000000000000000000000000000000000000008152600401612a2a90613eda565b60405180910390fd5b60006003811115612a4757612a46614501565b5b60008054906101000a900460ff166003811115612a6757612a66614501565b5b14612aa7576040517f08c379a0000000000000000000000000000000000000000000000000000000008152600401612a9e906140ba565b60405180910390fd5b600254341015612aec576040517f08c379a0000000000000000000000000000000000000000000000000000000008152600401612ae390613e9a565b60405180910390fd5b34600760003373ffffffffffffffffffffffffffffffffffffffff1673ffffffffffffffffffffffffffffffffffffffff1681526020019081526020016000208190555060036000815480929190612b439061445a565b91905055507f0673e22453ca22ab66c750388a377485c2d57a19fb171f1442f45e933d5e841860405160405180910390a1565b60055481565b6000600760003373ffffffffffffffffffffffffffffffffffffffff1673ffffffffffffffffffffffffffffffffffffffff168152602001908152602001600020541180612c175750600060019054906101000a900473ffffffffffffffffffffffffffffffffffffffff1673ffffffffffffffffffffffffffffffffffffffff163373ffffffffffffffffffffffffffffffffffffffff16145b612c56576040517f08c379a0000000000000000000000000000000000000000000000000000000008152600401612c4d90613eba565b60405180910390fd5b60016003811115612c6a57612c69614501565b5b60008054906101000a900460ff166003811115612c8a57612c89614501565b5b1480612cc7575060006003811115612ca557612ca4614501565b5b60008054906101000a900460ff166003811115612cc557612cc4614501565b5b145b612d06576040517f08c379a0000000000000000000000000000000000000000000000000000000008152600401612cfd906140da565b60405180910390fd5b8060006003811115612d1b57612d1a614501565b5b600a8281548110612d2f57612d2e614530565b5b906000526020600020906006020160030160009054906101000a900460ff166003811115612d6057612d5f614501565b5b14612da0576040517f08c379a0000000000000000000000000000000000000000000000000000000008152600401612d979061411a565b60405180910390fd5b81600a8181548110612db557612db4614530565b5b9060005260206000209060060201600401544211612e08576040517f08c379a0000000000000000000000000000000000000000000000000000000008152600401612dff90613f1a565b60405180910390fd5b6000600a8481548110612e1e57612e1d614530565b5b90600052602060002090600602019050806001015481600001541115612f4b57600060019054906101000a900473ffffffffffffffffffffffffffffffffffffffff1673ffffffffffffffffffffffffffffffffffffffff168160050160009054906101000a900473ffffffffffffffffffffffffffffffffffffffff1673ffffffffffffffffffffffffffffffffffffffff161415612ee75760036000806101000a81548160ff02191690836003811115612edd57612edc614501565b5b0217905550612f12565b60026000806101000a81548160ff02191690836003811115612f0c57612f0b614501565b5b02179055505b60018160030160006101000a81548160ff02191690836003811115612f3a57612f39614501565b5b021790555047600581905550612f79565b60028160030160006101000a81548160ff02191690836003811115612f7357612f72614501565b5b02179055505b7f73f2945afe9ca15803fdd3eee06f885f71638426c3775f68cbf42918f508507284604051612fa8919061415a565b60405180910390a17fe283e942d53c4322165eacc7a597c86cdbc698c96321f57a82b29c615810a69560405160405180910390a150505050565b6000600454905090565b6000806009838154811061300357613002614530565b5b906000526020600020906007020190508060040160003373ffffffffffffffffffffffffffffffffffffffff1673ffffffffffffffffffffffffffffffffffffffff16815260200190815260200160002060009054906101000a900460ff16915050919050565b6000600760003373ffffffffffffffffffffffffffffffffffffffff1673ffffffffffffffffffffffffffffffffffffffff1681526020019081526020016000205411806131055750600060019054906101000a900473ffffffffffffffffffffffffffffffffffffffff1673ffffffffffffffffffffffffffffffffffffffff163373ffffffffffffffffffffffffffffffffffffffff16145b613144576040517f08c379a000000000000000000000000000000000000000000000000000000000815260040161313b90613eba565b60405180910390fd5b6001600381111561315857613157614501565b5b60008054906101000a900460ff16600381111561317857613177614501565b5b14806131b557506000600381111561319357613192614501565b5b60008054906101000a900460ff1660038111156131b3576131b2614501565b5b145b6131f4576040517f08c379a00000000000000000000000000000000000000000000000000000000081526004016131eb906140da565b60405180910390fd5b6000426212750060065461320891906142a9565b1115801561324757506000600381111561322557613224614501565b5b60008054906101000a900460ff16600381111561324557613244614501565b5b145b9050808061328657506001600381111561326457613263614501565b5b60008054906101000a900460ff16600381111561328457613283614501565b5b145b6132c5576040517f08c379a00000000000000000000000000000000000000000000000000000000081526004016132bc90613e7a565b60405180910390fd5b6000600a6001816001815401808255809150500390600052602060002090600602019050600081600001819055506000816001018190555060008160030160006101000a81548160ff0219169083600381111561332557613324614501565b5b021790555062093a804261333991906142a9565b8160040181905550338160050160006101000a81548173ffffffffffffffffffffffffffffffffffffffff021916908373ffffffffffffffffffffffffffffffffffffffff16021790555060018160020160003373ffffffffffffffffffffffffffffffffffffffff1673ffffffffffffffffffffffffffffffffffffffff16815260200190815260200160002060006101000a81548160ff0219169083151502179055508060000160008154809291906133f39061445a565b91905055507fd652a200abc8c9e3e659b36ee1d1c81a25a3cd454afdb8cede6431e74906497c836040516134279190613e44565b60405180910390a1505050565b6000600760003373ffffffffffffffffffffffffffffffffffffffff1673ffffffffffffffffffffffffffffffffffffffff1681526020019081526020016000205411806134cf5750600060019054906101000a900473ffffffffffffffffffffffffffffffffffffffff1673ffffffffffffffffffffffffffffffffffffffff163373ffffffffffffffffffffffffffffffffffffffff16145b61350e576040517f08c379a000000000000000000000000000000000000000000000000000000000815260040161350590613eba565b60405180910390fd5b6001600381111561352257613521614501565b5b60008054906101000a900460ff16600381111561354257613541614501565b5b148061357f57506000600381111561355d5761355c614501565b5b60008054906101000a900460ff16600381111561357d5761357c614501565b5b145b6135be576040517f08c379a00000000000000000000000000000000000000000000000000000000081526004016135b5906140da565b60405180910390fd5b80600060038111156135d3576135d2614501565b5b600a82815481106135e7576135e6614530565b5b906000526020600020906006020160030160009054906101000a900460ff16600381111561361857613617614501565b5b14613658576040517f08c379a000000000000000000000000000000000000000000000000000000000815260040161364f9061411a565b60405180910390fd5b81600a818154811061366d5761366c614530565b5b9060005260206000209060060201600401544211156136c1576040517f08c379a00000000000000000000000000000000000000000000000000000000081526004016136b890613f9a565b60405180910390fd5b6000600a84815481106136d7576136d6614530565b5b906000526020600020906006020190508060020160003373ffffffffffffffffffffffffffffffffffffffff1673ffffffffffffffffffffffffffffffffffffffff16815260200190815260200160002060009054906101000a900460ff1615613776576040517f08c379a000000000000000000000000000000000000000000000000000000000815260040161376d9061409a565b60405180910390fd5b60018160020160003373ffffffffffffffffffffffffffffffffffffffff1673ffffffffffffffffffffffffffffffffffffffff16815260200190815260200160002060006101000a81548160ff0219169083151502179055508060010160008154809291906137e59061445a565b91905055507f53c1eb0055cc9dbfe4823171931d9ec63b8682244ed5778661bb94ba2075f8c684604051613819919061415a565b60405180910390a150505050565b60008135905061383681614b75565b92915050565b60008135905061384b81614b8c565b92915050565b60008135905061386081614ba3565b92915050565b60006020828403121561387c5761387b61455f565b5b600061388a84828501613827565b91505092915050565b6000602082840312156138a9576138a861455f565b5b60006138b78482850161383c565b91505092915050565b6000602082840312156138d6576138d561455f565b5b60006138e484828501613851565b91505092915050565b6000806000606084860312156139065761390561455f565b5b600061391486828701613851565b935050602061392586828701613827565b92505060406139368682870161383c565b9150509250925092565b613949816143be565b82525050565b613958816143d0565b82525050565b613967816143dc565b82525050565b61397681614436565b82525050565b61398581614448565b82525050565b6000613998602b83614298565b91506139a382614564565b604082019050919050565b60006139bb601f83614298565b91506139c6826145b3565b602082019050919050565b60006139de601783614298565b91506139e9826145dc565b602082019050919050565b6000613a01601b83614298565b9150613a0c82614605565b602082019050919050565b6000613a24601483614298565b9150613a2f8261462e565b602082019050919050565b6000613a47602c83614298565b9150613a5282614657565b604082019050919050565b6000613a6a601883614298565b9150613a75826146a6565b602082019050919050565b6000613a8d602183614298565b9150613a98826146cf565b604082019050919050565b6000613ab0601b83614298565b9150613abb8261471e565b602082019050919050565b6000613ad3602783614298565b9150613ade82614747565b604082019050919050565b6000613af6602383614298565b9150613b0182614796565b604082019050919050565b6000613b19601d83614298565b9150613b24826147e5565b602082019050919050565b6000613b3c602283614298565b9150613b478261480e565b604082019050919050565b6000613b5f602283614298565b9150613b6a8261485d565b604082019050919050565b6000613b82603183614298565b9150613b8d826148ac565b604082019050919050565b6000613ba5602583614298565b9150613bb0826148fb565b604082019050919050565b6000613bc8602383614298565b9150613bd38261494a565b604082019050919050565b6000613beb603783614298565b9150613bf682614999565b604082019050919050565b6000613c0e602383614298565b9150613c19826149e8565b604082019050919050565b6000613c31601e83614298565b9150613c3c82614a37565b602082019050919050565b6000613c54602683614298565b9150613c5f82614a60565b604082019050919050565b6000613c77602883614298565b9150613c8282614aaf565b604082019050919050565b6000613c9a602283614298565b9150613ca582614afe565b604082019050919050565b613cb98161442c565b82525050565b6000602082019050613cd46000830184613940565b92915050565b600061010082019050613cf0600083018b613940565b613cfd602083018a61396d565b613d0a6040830189613cb0565b613d176060830188613cb0565b613d246080830187613cb0565b613d3160a0830186613cb0565b613d3e60c0830185613cb0565b613d4b60e083018461394f565b9998505050505050505050565b600061010082019050613d6e600083018b613940565b613d7b602083018a613cb0565b613d886040830189613cb0565b613d956060830188613cb0565b613da2608083018761397c565b613daf60a0830186613cb0565b613dbc60c083018561394f565b613dc960e083018461394f565b9998505050505050505050565b600060a082019050613deb6000830188613940565b613df86020830187613cb0565b613e056040830186613cb0565b613e126060830185613cb0565b613e1f6080830184613cb0565b9695505050505050565b6000602082019050613e3e600083018461394f565b92915050565b6000602082019050613e59600083018461395e565b92915050565b6000602082019050613e74600083018461396d565b92915050565b60006020820190508181036000830152613e938161398b565b9050919050565b60006020820190508181036000830152613eb3816139ae565b9050919050565b60006020820190508181036000830152613ed3816139d1565b9050919050565b60006020820190508181036000830152613ef3816139f4565b9050919050565b60006020820190508181036000830152613f1381613a17565b9050919050565b60006020820190508181036000830152613f3381613a3a565b9050919050565b60006020820190508181036000830152613f5381613a5d565b9050919050565b60006020820190508181036000830152613f7381613a80565b9050919050565b60006020820190508181036000830152613f9381613aa3565b9050919050565b60006020820190508181036000830152613fb381613ac6565b9050919050565b60006020820190508181036000830152613fd381613ae9565b9050919050565b60006020820190508181036000830152613ff381613b0c565b9050919050565b6000602082019050818103600083015261401381613b2f565b9050919050565b6000602082019050818103600083015261403381613b52565b9050919050565b6000602082019050818103600083015261405381613b75565b9050919050565b6000602082019050818103600083015261407381613b98565b9050919050565b6000602082019050818103600083015261409381613bbb565b9050919050565b600060208201905081810360008301526140b381613bde565b9050919050565b600060208201905081810360008301526140d381613c01565b9050919050565b600060208201905081810360008301526140f381613c24565b9050919050565b6000602082019050818103600083015261411381613c47565b9050919050565b6000602082019050818103600083015261413381613c6a565b9050919050565b6000602082019050818103600083015261415381613c8d565b9050919050565b600060208201905061416f6000830184613cb0565b92915050565b600060c08201905061418a6000830189613cb0565b6141976020830188613940565b6141a46040830187613cb0565b6141b16060830186613cb0565b6141be608083018561397c565b6141cb60a0830184613cb0565b979650505050505050565b600060a0820190506141eb6000830188613cb0565b6141f86020830187613cb0565b614205604083018661397c565b6142126060830185613cb0565b61421f6080830184613940565b9695505050505050565b600060e08201905061423e600083018a613cb0565b61424b6020830189613cb0565b614258604083018861397c565b6142656060830187613cb0565b614272608083018661394f565b61427f60a083018561394f565b61428c60c0830184613940565b98975050505050505050565b600082825260208201905092915050565b60006142b48261442c565b91506142bf8361442c565b9250827fffffffffffffffffffffffffffffffffffffffffffffffffffffffffffffffff038211156142f4576142f36144a3565b5b828201905092915050565b600061430a8261442c565b91506143158361442c565b925082614325576143246144d2565b5b828204905092915050565b600061433b8261442c565b91506143468361442c565b9250817fffffffffffffffffffffffffffffffffffffffffffffffffffffffffffffffff048311821515161561437f5761437e6144a3565b5b828202905092915050565b60006143958261442c565b91506143a08361442c565b9250828210156143b3576143b26144a3565b5b828203905092915050565b60006143c98261440c565b9050919050565b60008115159050919050565b6000819050919050565b60008190506143f482614b4d565b919050565b600081905061440782614b61565b919050565b600073ffffffffffffffffffffffffffffffffffffffff82169050919050565b6000819050919050565b6000614441826143e6565b9050919050565b6000614453826143f9565b9050919050565b60006144658261442c565b91507fffffffffffffffffffffffffffffffffffffffffffffffffffffffffffffffff821415614498576144976144a3565b5b600182019050919050565b7f4e487b7100000000000000000000000000000000000000000000000000000000600052601160045260246000fd5b7f4e487b7100000000000000000000000000000000000000000000000000000000600052601260045260246000fd5b7f4e487b7100000000000000000000000000000000000000000000000000000000600052602160045260246000fd5b7f4e487b7100000000000000000000000000000000000000000000000000000000600052603260045260246000fd5b600080fd5b7f5468652063616d7061696e672063726561746564206d7573742068617665203160008201527f342064617973206f6c642e000000000000000000000000000000000000000000602082015250565b7f54686520636f6e747269627574696f6e20697320696e737566696369656e7400600082015250565b7f53656e646572206973206e6f742061206d656d6265722e000000000000000000600082015250565b7f53656e64657220697320616c72656164792061206d656d6265722e0000000000600082015250565b7f53656e64657220697320746865206f776e65722e000000000000000000000000600082015250565b7f54686520636c6f73652070726f706f73616c206973207374696c6c206f70656e60008201527f20666f7220766f74696e672e0000000000000000000000000000000000000000602082015250565b7f53656e646572206973206e6f7420746865206f776e65722e0000000000000000600082015250565b7f5468652070726f706f73616c20697320636c6f736520666f7220766f74696e6760008201527f2e00000000000000000000000000000000000000000000000000000000000000602082015250565b7f54686520666f756e64732061726520696e73756666696369656e740000000000600082015250565b7f54686520636c6f73652070726f706f73616c20697320636c6f736520666f722060008201527f766f74696e672e00000000000000000000000000000000000000000000000000602082015250565b7f5061796d656e742063616e2774206265206d6f7265207468616e2062616c616e60008201527f63652e0000000000000000000000000000000000000000000000000000000000602082015250565b7f5468652070726f706f73616c206973206e6f7420617070726f7665642e000000600082015250565b7f54686520636f6e747269627574696f6e732061726520696e737566666963696560008201527f6e74000000000000000000000000000000000000000000000000000000000000602082015250565b7f5468652063616d706169676e20737461747573206973206e6f7420616374697660008201527f652e000000000000000000000000000000000000000000000000000000000000602082015250565b7f5468652070726f706f73616c20686173206265656e20616c726561647920766f60008201527f746564206279207468652073656e646572000000000000000000000000000000602082015250565b7f5468652063616d706169676e20737461747573206973206e6f7420636c6f736560008201527f207965742e000000000000000000000000000000000000000000000000000000602082015250565b7f53656e64657220616c72656164792077697468647261772068697320666f756e60008201527f64732e0000000000000000000000000000000000000000000000000000000000602082015250565b7f54686520636c6f73652070726f706f73616c20686173206265656e20616c726560008201527f61647920766f746564206279207468652073656e646572000000000000000000602082015250565b7f5468652063616d706169676e20737461747573206973206e6f7420637265617460008201527f65642e0000000000000000000000000000000000000000000000000000000000602082015250565b7f5468652063616d706169676e2073746174757320697320434c4f5345442e0000600082015250565b7f5468652070726f706f73616c206973207374696c6c206f70656e20666f72207660008201527f6f74696e672e0000000000000000000000000000000000000000000000000000602082015250565b7f54686520636c6f73652070726f706f73616c206973206e6f74206c6f6e67657260008201527f206163746976652e000000000000000000000000000000000000000000000000602082015250565b7f5468652070726f706f73616c206973206e6f74206c6f6e67657220616374697660008201527f652e000000000000000000000000000000000000000000000000000000000000602082015250565b60048110614b5e57614b5d614501565b5b50565b60048110614b7257614b71614501565b5b50565b614b7e816143be565b8114614b8957600080fd5b50565b614b95816143dc565b8114614ba057600080fd5b50565b614bac8161442c565b8114614bb757600080fd5b5056fea2646970667358221220499dd0b1b34c02b605970ef217d9f7e4ae6b8192e8f0bc332447ec66167986a864736f6c63430008060033",
  "immutableReferences": {},
  "source": "//SPDX-License-Identifier: GPL-3.0-only\npragma solidity ^0.8.0;\n\nimport \"./CrowdfundingCampaign.sol\";\n\ncontract CrowdfundingCampaignDemo is CrowdfundingCampaign {\n\n    /** @dev Constructor.\n     *  @param _minimunContribution minimum contribution in wei that a person has to make to become a member.\n     *  @param _goal goal in wei that the proyect has to reach to be succesfull.\n     *  @param _ipfshash The url hash of the campaign data previusly stored in IPFS.\n    **/\n    constructor(uint _minimunContribution, uint _goal, bytes32 _ipfshash)\n    CrowdfundingCampaign(_minimunContribution, _goal, _ipfshash) {\n\n    }\n\n    /** @dev Allow to change the created_at value to 14 days earlier to allow have close proposals in a CREATED campaign the demo.\n     */\n    function changeCreatedAt() public {\n\n        created_at = created_at - 14 days;\n    }\n      \n    /** @dev Allow to change the proposal limit date to seven days earlier to allow have close proposals in the demo.\n     *  @param _index index of the proposal we want to change the limit date.\n     */\n    function changeLimitProposal(uint _index) public {\n\n        Proposal storage proposal = proposals[_index];\n        proposal.limitTime = proposal.limitTime - 7 days;        \n    }\n\n     /** @dev Allow to change the close proposal limit date to seven days earlier to allow have close proposals in the demo.\n     *  @param _index index of the close proposal we want to change the limit date.\n     */\n    function changeLimitCloseProposal(uint _index) public {\n\n        CloseProposal storage cProposal = closeProposals[_index];\n        cProposal.limitTime = cProposal.limitTime - 7 days;        \n    }\n\n\n}",
  "sourcePath": "/home/tati/Desktop/personal/Tesina/semideas-crowdfunding/contracts/CrowdfundingCampaignDemo.sol",
  "compiler": {
    "name": "solc",
    "version": "0.8.6+commit.11564f7e.Emscripten.clang"
  },
  "schemaVersion": "3.4.1",
  "updatedAt": "2021-07-16T19:43:09.688Z",
  "networkType": "ethereum",
  "devdoc": {
    "kind": "dev",
    "methods": {
      "approveCloseProposal(uint256)": {
        "details": "Allow only members to approve an active close proposal that they haven't voted before.",
        "params": {
          "_index": "index of the close proposal the member wants to approve."
        }
      },
      "approveProposal(uint256)": {
        "details": "Allow only members to approve an active proposal that they haven't voted before.",
        "params": {
          "_index": "index of the proposal the member wants to approve."
        }
      },
      "changeCreatedAt()": {
        "details": "Allow to change the created_at value to 14 days earlier to allow have close proposals in a CREATED campaign the demo."
      },
      "changeLimitCloseProposal(uint256)": {
        "details": "Allow to change the close proposal limit date to seven days earlier to allow have close proposals in the demo.",
        "params": {
          "_index": "index of the close proposal we want to change the limit date."
        }
      },
      "changeLimitProposal(uint256)": {
        "details": "Allow to change the proposal limit date to seven days earlier to allow have close proposals in the demo.",
        "params": {
          "_index": "index of the proposal we want to change the limit date."
        }
      },
      "closeCloseProposal(uint256)": {
        "details": "Allow only members to close an active proposal that already has its voting time over.",
        "params": {
          "_index": "index of the proposal the member wants to approve."
        }
      },
      "closeProposal(uint256)": {
        "details": "Allow only members to close an active proposal that already has its voting time over.",
        "params": {
          "_index": "index of the proposal the member wants to approve."
        }
      },
      "constructor": {
        "details": "Constructor.",
        "params": {
          "_goal": "goal in wei that the proyect has to reach to be succesfull.",
          "_ipfshash": "The url hash of the campaign data previusly stored in IPFS.*",
          "_minimunContribution": "minimum contribution in wei that a person has to make to become a member."
        }
      },
      "contribute()": {
        "details": "Allow not members to contribute with the campaign and be a member of it."
      },
      "createCloseProposal(bytes32)": {
        "details": "Allow only members to create a new proposal to finish de proyect and get the founds back.",
        "params": {
          "_ipfshash": "url hash of the close proposal data (description) previusly stored in IPFS."
        }
      },
      "createProposal(uint256,address,bytes32)": {
        "details": "Allow only owner to create a new proposal to get more founds.",
        "params": {
          "_ipfshash": "url hash of the proposal data (description and pictures) previusly stored in IPFS.",
          "_recipient": "address where the founds are going to be after release them.",
          "_value": "founds in wei that the owner want to release."
        }
      },
      "disapproveCloseProposal(uint256)": {
        "details": "Allow only members to disapprove an active close proposal that they haven't voted before.",
        "params": {
          "_index": "index of the close proposal the member wants to disapprove."
        }
      },
      "disapproveProposal(uint256)": {
        "details": "Allow only members to disapprove an active proposal that they haven't voted before.",
        "params": {
          "_index": "index of the proposal the member wants to disapprove."
        }
      },
      "getCampaignInfo()": {
        "details": "Function to get the data of the campaign"
      },
      "getCloseProposal(uint256)": {
        "details": "Function to get the data of a close proposal.",
        "params": {
          "_index": "index of the proposal to return"
        }
      },
      "getCloseProposalsCount()": {
        "details": "Function to get the total number of close proposals."
      },
      "getFinalContributions()": {
        "details": "Function to get the finalContributions of the campaign."
      },
      "getProposal(uint256)": {
        "details": "Function to get the data of a proposal.",
        "params": {
          "_index": "index of the proposal to return"
        }
      },
      "getProposalsCount()": {
        "details": "Function to get the total number of proposals."
      },
      "getRemainingContributions()": {
        "details": "Function to get the remainingContributions of the campaign."
      },
      "getStatus()": {
        "details": "Function to get the actual status of the campaign."
      },
      "hasVotedCloseProposal(uint256)": {
        "details": "Function to know if a member has already vot a close proposal.",
        "params": {
          "_index": "index of the proposal"
        }
      },
      "hasVotedProposal(uint256)": {
        "details": "Function to know if a member has already vot a proposal.",
        "params": {
          "_index": "index of the proposal"
        }
      },
      "isMember(address)": {
        "details": "Function to return if someone is member."
      },
      "release(uint256)": {
        "details": "Allow only members to close an active proposal that already has its voting time over.",
        "params": {
          "_index": "index of the proposal the member wants to approve."
        }
      },
      "saveProgressUpdate(bytes32)": {
        "details": "Allow only owner to save a new progress Update data ipfs hash.",
        "params": {
          "_ipfshash": "url hash of the progress update data (description and pictures) previusly stored in IPFS."
        }
      },
      "setActive()": {
        "details": "Allow only owner to change the status of the cCampaign from CREATED to ACTIVE."
      },
      "withdraw()": {
        "details": "Allow only members to withdraw the remaining founds once the campaign is closed."
      }
    },
    "version": 1
  },
  "userdoc": {
    "kind": "user",
    "methods": {},
    "version": 1
  }
}