{
  "contractName": "CrowdfundingCampaign",
  "abi": [
    {
      "inputs": [
        {
          "internalType": "uint256",
          "name": "_minimunContribution",
          "type": "uint256"
        },
        {
          "internalType": "uint256",
          "name": "_goal",
          "type": "uint256"
        },
        {
          "internalType": "bytes32",
          "name": "_ipfshash",
          "type": "bytes32"
        }
      ],
      "stateMutability": "nonpayable",
      "type": "constructor"
    },
    {
      "anonymous": false,
      "inputs": [
        {
          "indexed": false,
          "internalType": "bytes32",
          "name": "_ipfshash",
          "type": "bytes32"
        }
      ],
      "name": "CampaignCreated",
      "type": "event"
    },
    {
      "anonymous": false,
      "inputs": [],
      "name": "ChangeStatusCampaign",
      "type": "event"
    },
    {
      "anonymous": false,
      "inputs": [
        {
          "indexed": false,
          "internalType": "uint256",
          "name": "_index",
          "type": "uint256"
        }
      ],
      "name": "DestructProposalClosed",
      "type": "event"
    },
    {
      "anonymous": false,
      "inputs": [
        {
          "indexed": false,
          "internalType": "bytes32",
          "name": "_ipfshash",
          "type": "bytes32"
        }
      ],
      "name": "DestructProposalCreated",
      "type": "event"
    },
    {
      "anonymous": false,
      "inputs": [
        {
          "indexed": false,
          "internalType": "uint256",
          "name": "_index",
          "type": "uint256"
        }
      ],
      "name": "DestructProposalVoted",
      "type": "event"
    },
    {
      "anonymous": false,
      "inputs": [],
      "name": "NewContribution",
      "type": "event"
    },
    {
      "anonymous": false,
      "inputs": [
        {
          "indexed": false,
          "internalType": "bytes32",
          "name": "_ipfshash",
          "type": "bytes32"
        }
      ],
      "name": "ProgressUpdate",
      "type": "event"
    },
    {
      "anonymous": false,
      "inputs": [
        {
          "indexed": false,
          "internalType": "uint256",
          "name": "_index",
          "type": "uint256"
        }
      ],
      "name": "ProposalClosed",
      "type": "event"
    },
    {
      "anonymous": false,
      "inputs": [
        {
          "indexed": false,
          "internalType": "bytes32",
          "name": "_ipfshash",
          "type": "bytes32"
        }
      ],
      "name": "ProposalCreated",
      "type": "event"
    },
    {
      "anonymous": false,
      "inputs": [
        {
          "indexed": false,
          "internalType": "uint256",
          "name": "_index",
          "type": "uint256"
        }
      ],
      "name": "ProposalVoted",
      "type": "event"
    },
    {
      "anonymous": false,
      "inputs": [
        {
          "indexed": false,
          "internalType": "uint256",
          "name": "_index",
          "type": "uint256"
        }
      ],
      "name": "ProposalWithdraw",
      "type": "event"
    },
    {
      "inputs": [
        {
          "internalType": "address",
          "name": "",
          "type": "address"
        }
      ],
      "name": "contributions",
      "outputs": [
        {
          "internalType": "uint256",
          "name": "",
          "type": "uint256"
        }
      ],
      "stateMutability": "view",
      "type": "function",
      "constant": true
    },
    {
      "inputs": [
        {
          "internalType": "uint256",
          "name": "",
          "type": "uint256"
        }
      ],
      "name": "destructProposals",
      "outputs": [
        {
          "internalType": "uint256",
          "name": "approvalsCount",
          "type": "uint256"
        },
        {
          "internalType": "uint256",
          "name": "disapprovalsCount",
          "type": "uint256"
        },
        {
          "internalType": "enum CrowdfundingCampaign.ProposalStatus",
          "name": "status",
          "type": "uint8"
        },
        {
          "internalType": "uint256",
          "name": "limitTime",
          "type": "uint256"
        },
        {
          "internalType": "address",
          "name": "author",
          "type": "address"
        }
      ],
      "stateMutability": "view",
      "type": "function",
      "constant": true
    },
    {
      "inputs": [],
      "name": "finalContributions",
      "outputs": [
        {
          "internalType": "uint256",
          "name": "",
          "type": "uint256"
        }
      ],
      "stateMutability": "view",
      "type": "function",
      "constant": true
    },
    {
      "inputs": [],
      "name": "goal",
      "outputs": [
        {
          "internalType": "uint256",
          "name": "",
          "type": "uint256"
        }
      ],
      "stateMutability": "view",
      "type": "function",
      "constant": true
    },
    {
      "inputs": [],
      "name": "membersCount",
      "outputs": [
        {
          "internalType": "uint256",
          "name": "",
          "type": "uint256"
        }
      ],
      "stateMutability": "view",
      "type": "function",
      "constant": true
    },
    {
      "inputs": [],
      "name": "minimunContribution",
      "outputs": [
        {
          "internalType": "uint256",
          "name": "",
          "type": "uint256"
        }
      ],
      "stateMutability": "view",
      "type": "function",
      "constant": true
    },
    {
      "inputs": [],
      "name": "owner",
      "outputs": [
        {
          "internalType": "address",
          "name": "",
          "type": "address"
        }
      ],
      "stateMutability": "view",
      "type": "function",
      "constant": true
    },
    {
      "inputs": [
        {
          "internalType": "uint256",
          "name": "",
          "type": "uint256"
        }
      ],
      "name": "proposals",
      "outputs": [
        {
          "internalType": "uint256",
          "name": "value",
          "type": "uint256"
        },
        {
          "internalType": "address",
          "name": "recipient",
          "type": "address"
        },
        {
          "internalType": "uint256",
          "name": "approvalsCount",
          "type": "uint256"
        },
        {
          "internalType": "uint256",
          "name": "disapprovalsCount",
          "type": "uint256"
        },
        {
          "internalType": "enum CrowdfundingCampaign.ProposalStatus",
          "name": "status",
          "type": "uint8"
        },
        {
          "internalType": "uint256",
          "name": "limitTime",
          "type": "uint256"
        }
      ],
      "stateMutability": "view",
      "type": "function",
      "constant": true
    },
    {
      "inputs": [],
      "name": "remainingContributions",
      "outputs": [
        {
          "internalType": "uint256",
          "name": "",
          "type": "uint256"
        }
      ],
      "stateMutability": "view",
      "type": "function",
      "constant": true
    },
    {
      "inputs": [],
      "name": "status",
      "outputs": [
        {
          "internalType": "enum CrowdfundingCampaign.CampaignStatus",
          "name": "",
          "type": "uint8"
        }
      ],
      "stateMutability": "view",
      "type": "function",
      "constant": true
    },
    {
      "inputs": [
        {
          "internalType": "address",
          "name": "",
          "type": "address"
        }
      ],
      "name": "withdraws",
      "outputs": [
        {
          "internalType": "bool",
          "name": "",
          "type": "bool"
        }
      ],
      "stateMutability": "view",
      "type": "function",
      "constant": true
    },
    {
      "inputs": [],
      "name": "contribute",
      "outputs": [],
      "stateMutability": "payable",
      "type": "function",
      "payable": true
    },
    {
      "inputs": [],
      "name": "setActive",
      "outputs": [],
      "stateMutability": "nonpayable",
      "type": "function"
    },
    {
      "inputs": [
        {
          "internalType": "bytes32",
          "name": "_ipfshash",
          "type": "bytes32"
        }
      ],
      "name": "saveProgressUpdate",
      "outputs": [],
      "stateMutability": "nonpayable",
      "type": "function"
    },
    {
      "inputs": [
        {
          "internalType": "uint256",
          "name": "_value",
          "type": "uint256"
        },
        {
          "internalType": "address",
          "name": "_recipient",
          "type": "address"
        },
        {
          "internalType": "bytes32",
          "name": "_ipfshash",
          "type": "bytes32"
        }
      ],
      "name": "createProposal",
      "outputs": [],
      "stateMutability": "nonpayable",
      "type": "function"
    },
    {
      "inputs": [
        {
          "internalType": "uint256",
          "name": "_index",
          "type": "uint256"
        }
      ],
      "name": "approveProposal",
      "outputs": [],
      "stateMutability": "nonpayable",
      "type": "function"
    },
    {
      "inputs": [
        {
          "internalType": "uint256",
          "name": "_index",
          "type": "uint256"
        }
      ],
      "name": "disapproveProposal",
      "outputs": [],
      "stateMutability": "nonpayable",
      "type": "function"
    },
    {
      "inputs": [
        {
          "internalType": "uint256",
          "name": "_index",
          "type": "uint256"
        }
      ],
      "name": "closeProposal",
      "outputs": [],
      "stateMutability": "nonpayable",
      "type": "function"
    },
    {
      "inputs": [
        {
          "internalType": "uint256",
          "name": "_index",
          "type": "uint256"
        }
      ],
      "name": "withdraw",
      "outputs": [],
      "stateMutability": "nonpayable",
      "type": "function"
    },
    {
      "inputs": [
        {
          "internalType": "bytes32",
          "name": "_ipfshash",
          "type": "bytes32"
        }
      ],
      "name": "createDestructProposal",
      "outputs": [],
      "stateMutability": "nonpayable",
      "type": "function"
    },
    {
      "inputs": [
        {
          "internalType": "uint256",
          "name": "_index",
          "type": "uint256"
        }
      ],
      "name": "aproveDestructProposal",
      "outputs": [],
      "stateMutability": "nonpayable",
      "type": "function"
    },
    {
      "inputs": [
        {
          "internalType": "uint256",
          "name": "_index",
          "type": "uint256"
        }
      ],
      "name": "disapproveDestructProposal",
      "outputs": [],
      "stateMutability": "nonpayable",
      "type": "function"
    },
    {
      "inputs": [
        {
          "internalType": "uint256",
          "name": "_index",
          "type": "uint256"
        }
      ],
      "name": "closeDestructProposal",
      "outputs": [],
      "stateMutability": "nonpayable",
      "type": "function"
    },
    {
      "inputs": [
        {
          "internalType": "address",
          "name": "_address",
          "type": "address"
        }
      ],
      "name": "isMember",
      "outputs": [
        {
          "internalType": "bool",
          "name": "",
          "type": "bool"
        }
      ],
      "stateMutability": "view",
      "type": "function",
      "constant": true
    },
    {
      "inputs": [],
      "name": "getStatus",
      "outputs": [
        {
          "internalType": "enum CrowdfundingCampaign.CampaignStatus",
          "name": "",
          "type": "uint8"
        }
      ],
      "stateMutability": "view",
      "type": "function",
      "constant": true
    },
    {
      "inputs": [],
      "name": "getFinalContributions",
      "outputs": [
        {
          "internalType": "uint256",
          "name": "",
          "type": "uint256"
        }
      ],
      "stateMutability": "view",
      "type": "function",
      "constant": true
    },
    {
      "inputs": [],
      "name": "getRemainingContributions",
      "outputs": [
        {
          "internalType": "uint256",
          "name": "",
          "type": "uint256"
        }
      ],
      "stateMutability": "view",
      "type": "function",
      "constant": true
    },
    {
      "inputs": [],
      "name": "getCampaignInfo",
      "outputs": [
        {
          "internalType": "address",
          "name": "",
          "type": "address"
        },
        {
          "internalType": "enum CrowdfundingCampaign.CampaignStatus",
          "name": "",
          "type": "uint8"
        },
        {
          "internalType": "uint256",
          "name": "",
          "type": "uint256"
        },
        {
          "internalType": "uint256",
          "name": "",
          "type": "uint256"
        },
        {
          "internalType": "uint256",
          "name": "",
          "type": "uint256"
        },
        {
          "internalType": "uint256",
          "name": "",
          "type": "uint256"
        },
        {
          "internalType": "uint256",
          "name": "",
          "type": "uint256"
        }
      ],
      "stateMutability": "view",
      "type": "function",
      "constant": true
    },
    {
      "inputs": [
        {
          "internalType": "uint256",
          "name": "_index",
          "type": "uint256"
        }
      ],
      "name": "getProposal",
      "outputs": [
        {
          "internalType": "address",
          "name": "",
          "type": "address"
        },
        {
          "internalType": "uint256",
          "name": "",
          "type": "uint256"
        },
        {
          "internalType": "uint256",
          "name": "",
          "type": "uint256"
        },
        {
          "internalType": "uint256",
          "name": "",
          "type": "uint256"
        },
        {
          "internalType": "enum CrowdfundingCampaign.ProposalStatus",
          "name": "",
          "type": "uint8"
        },
        {
          "internalType": "uint256",
          "name": "",
          "type": "uint256"
        },
        {
          "internalType": "bool",
          "name": "",
          "type": "bool"
        },
        {
          "internalType": "bool",
          "name": "",
          "type": "bool"
        }
      ],
      "stateMutability": "view",
      "type": "function",
      "constant": true
    },
    {
      "inputs": [
        {
          "internalType": "uint256",
          "name": "_index",
          "type": "uint256"
        }
      ],
      "name": "hasVotedProposal",
      "outputs": [
        {
          "internalType": "bool",
          "name": "",
          "type": "bool"
        }
      ],
      "stateMutability": "view",
      "type": "function",
      "constant": true
    },
    {
      "inputs": [],
      "name": "getProposalsCount",
      "outputs": [
        {
          "internalType": "uint256",
          "name": "",
          "type": "uint256"
        }
      ],
      "stateMutability": "view",
      "type": "function",
      "constant": true
    },
    {
      "inputs": [
        {
          "internalType": "uint256",
          "name": "_index",
          "type": "uint256"
        }
      ],
      "name": "getDestructProposal",
      "outputs": [
        {
          "internalType": "uint256",
          "name": "",
          "type": "uint256"
        },
        {
          "internalType": "uint256",
          "name": "",
          "type": "uint256"
        },
        {
          "internalType": "enum CrowdfundingCampaign.ProposalStatus",
          "name": "",
          "type": "uint8"
        },
        {
          "internalType": "uint256",
          "name": "",
          "type": "uint256"
        },
        {
          "internalType": "bool",
          "name": "",
          "type": "bool"
        },
        {
          "internalType": "bool",
          "name": "",
          "type": "bool"
        },
        {
          "internalType": "address",
          "name": "",
          "type": "address"
        }
      ],
      "stateMutability": "view",
      "type": "function",
      "constant": true
    },
    {
      "inputs": [
        {
          "internalType": "uint256",
          "name": "_index",
          "type": "uint256"
        }
      ],
      "name": "hasVotedDestructProposal",
      "outputs": [
        {
          "internalType": "bool",
          "name": "",
          "type": "bool"
        }
      ],
      "stateMutability": "view",
      "type": "function",
      "constant": true
    },
    {
      "inputs": [],
      "name": "getDestructProposalsCount",
      "outputs": [
        {
          "internalType": "uint256",
          "name": "",
          "type": "uint256"
        }
      ],
      "stateMutability": "view",
      "type": "function",
      "constant": true
    }
  ],
  "bytecode": "0x60806040523480156200001157600080fd5b50604051620041bd380380620041bd83398181016040528101906200003791906200012b565b33600060016101000a81548173ffffffffffffffffffffffffffffffffffffffff021916908373ffffffffffffffffffffffffffffffffffffffff160217905550816001819055508260028190555060008060006101000a81548160ff02191690836003811115620000ae57620000ad620001c9565b5b021790555060006003819055507f0f627713f9c831a1b079924dedde3308e90d22b754bdd481f9b2165aa0f9dfb981604051620000ec919062000198565b60405180910390a150505062000231565b6000815190506200010e81620001fd565b92915050565b600081519050620001258162000217565b92915050565b600080600060608486031215620001475762000146620001f8565b5b6000620001578682870162000114565b93505060206200016a8682870162000114565b92505060406200017d86828701620000fd565b9150509250925092565b6200019281620001b5565b82525050565b6000602082019050620001af600083018462000187565b92915050565b6000819050919050565b6000819050919050565b7f4e487b7100000000000000000000000000000000000000000000000000000000600052602160045260246000fd5b600080fd5b6200020881620001b5565b81146200021457600080fd5b50565b6200022281620001bf565b81146200022e57600080fd5b50565b613f7c80620002416000396000f3fe6080604052600436106101f95760003560e01c8063923a64fb1161010d578063d6290cd7116100a0578063e966670a1161006f578063e966670a1461072c578063edbd0db81461076f578063eeda05181461079a578063ef978ecb146107d7578063f049a60c14610800576101f9565b8063d6290cd714610689578063d7bb99ba146106ba578063d853ba73146106c4578063e5069726146106ef576101f9565b8063a7f33715116100dc578063a7f33715146105b0578063b1a6f6a9146105db578063c7f758a81461061c578063c8541fe014610660576101f9565b8063923a64fb146104f657806398951b561461051f57806398e527d314610548578063a230c52414610573576101f9565b80633b047a8f116101905780634e69d5601161015f5780634e69d560146104355780634f92c9251461046057806351c36c1e1461048b578063760a8c2a146104b45780638da5cb5b146104cb576101f9565b80633b047a8f14610367578063401938831461039057806342e94c90146103bb57806348179ee5146103f8576101f9565b8063200d2ed2116101cc578063200d2ed2146102bf578063297f9af0146102ea5780632e1a7d4d146103155780633912fbe51461033e576101f9565b80630126f61e146101fe578063013cf08b146102295780630386a0161461026b5780631ec0b7ba14610294575b600080fd5b34801561020a57600080fd5b50610213610829565b6040516102209190613762565b60405180910390f35b34801561023557600080fd5b50610250600480360381019061024b91906130bc565b61082f565b6040516102629695949392919061377d565b60405180910390f35b34801561027757600080fd5b50610292600480360381019061028d91906130bc565b6108a8565b005b3480156102a057600080fd5b506102a9610bcb565b6040516102b69190613762565b60405180910390f35b3480156102cb57600080fd5b506102d4610bd8565b6040516102e19190613527565b60405180910390f35b3480156102f657600080fd5b506102ff610be9565b60405161030c9190613762565b60405180910390f35b34801561032157600080fd5b5061033c600480360381019061033791906130bc565b610bef565b005b34801561034a57600080fd5b50610365600480360381019061036091906130bc565b610e8b565b005b34801561037357600080fd5b5061038e6004803603810190610389919061308f565b611289565b005b34801561039c57600080fd5b506103a56113c7565b6040516103b29190613762565b60405180910390f35b3480156103c757600080fd5b506103e260048036038101906103dd9190613062565b6113cd565b6040516103ef9190613762565b60405180910390f35b34801561040457600080fd5b5061041f600480360381019061041a9190613062565b6113e5565b60405161042c91906134f1565b60405180910390f35b34801561044157600080fd5b5061044a611405565b6040516104579190613527565b60405180910390f35b34801561046c57600080fd5b5061047561141b565b6040516104829190613762565b60405180910390f35b34801561049757600080fd5b506104b260048036038101906104ad91906130e9565b611425565b005b3480156104c057600080fd5b506104c9611671565b005b3480156104d757600080fd5b506104e0611819565b6040516104ed91906133e9565b60405180910390f35b34801561050257600080fd5b5061051d6004803603810190610518919061308f565b61183f565b005b34801561052b57600080fd5b50610546600480360381019061054191906130bc565b611afb565b005b34801561055457600080fd5b5061055d611eb2565b60405161056a9190613762565b60405180910390f35b34801561057f57600080fd5b5061059a60048036038101906105959190613062565b611ebf565b6040516105a791906134f1565b60405180910390f35b3480156105bc57600080fd5b506105c5611f0a565b6040516105d29190613762565b60405180910390f35b3480156105e757600080fd5b5061060260048036038101906105fd91906130bc565b611f10565b6040516106139594939291906137de565b60405180910390f35b34801561062857600080fd5b50610643600480360381019061063e91906130bc565b611f83565b604051610657989796959493929190613473565b60405180910390f35b34801561066c57600080fd5b50610687600480360381019061068291906130bc565b61207f565b005b34801561069557600080fd5b5061069e612436565b6040516106b19796959493929190613404565b60405180910390f35b6106c2612497565b005b3480156106d057600080fd5b506106d96126b6565b6040516106e69190613762565b60405180910390f35b3480156106fb57600080fd5b50610716600480360381019061071191906130bc565b6126bc565b60405161072391906134f1565b60405180910390f35b34801561073857600080fd5b50610753600480360381019061074e91906130bc565b61273a565b6040516107669796959493929190613831565b60405180910390f35b34801561077b57600080fd5b5061078461282d565b6040516107919190613762565b60405180910390f35b3480156107a657600080fd5b506107c160048036038101906107bc91906130bc565b612837565b6040516107ce91906134f1565b60405180910390f35b3480156107e357600080fd5b506107fe60048036038101906107f991906130bc565b6128b5565b005b34801561080c57600080fd5b50610827600480360381019061082291906130bc565b612c6c565b005b60045481565b6008818154811061083f57600080fd5b90600052602060002090600702016000915090508060000154908060010160009054906101000a900473ffffffffffffffffffffffffffffffffffffffff16908060020154908060030154908060050160009054906101000a900460ff16908060060154905086565b6000600660003373ffffffffffffffffffffffffffffffffffffffff1673ffffffffffffffffffffffffffffffffffffffff1681526020019081526020016000205411806109435750600060019054906101000a900473ffffffffffffffffffffffffffffffffffffffff1673ffffffffffffffffffffffffffffffffffffffff163373ffffffffffffffffffffffffffffffffffffffff16145b610982576040517f08c379a000000000000000000000000000000000000000000000000000000000815260040161097990613562565b60405180910390fd5b6001600381111561099657610995613a1b565b5b60008054906101000a900460ff1660038111156109b6576109b5613a1b565b5b146109f6576040517f08c379a00000000000000000000000000000000000000000000000000000000081526004016109ed906136a2565b60405180910390fd5b8060006003811115610a0b57610a0a613a1b565b5b60088281548110610a1f57610a1e613a4a565b5b906000526020600020906007020160050160009054906101000a900460ff166003811115610a5057610a4f613a1b565b5b14610a90576040517f08c379a0000000000000000000000000000000000000000000000000000000008152600401610a8790613742565b60405180910390fd5b8160088181548110610aa557610aa4613a4a565b5b9060005260206000209060070201600601544211610af8576040517f08c379a0000000000000000000000000000000000000000000000000000000008152600401610aef90613722565b60405180910390fd5b600060088481548110610b0e57610b0d613a4a565b5b90600052602060002090600702019050806003015481600201541115610b605760018160050160006101000a81548160ff02191690836003811115610b5657610b55613a1b565b5b0217905550610b8e565b60028160050160006101000a81548160ff02191690836003811115610b8857610b87613a1b565b5b02179055505b7f887777ccf43690541bed9e00b10d0fccfa7520b11875f09847a57b3085d8ab9284604051610bbd9190613762565b60405180910390a150505050565b6000600980549050905090565b60008054906101000a900460ff1681565b60035481565b600060019054906101000a900473ffffffffffffffffffffffffffffffffffffffff1673ffffffffffffffffffffffffffffffffffffffff163373ffffffffffffffffffffffffffffffffffffffff1614610c7f576040517f08c379a0000000000000000000000000000000000000000000000000000000008152600401610c7690613602565b60405180910390fd5b60016003811115610c9357610c92613a1b565b5b60008054906101000a900460ff166003811115610cb357610cb2613a1b565b5b14610cf3576040517f08c379a0000000000000000000000000000000000000000000000000000000008152600401610cea906136a2565b60405180910390fd5b8060016003811115610d0857610d07613a1b565b5b60088281548110610d1c57610d1b613a4a565b5b906000526020600020906007020160050160009054906101000a900460ff166003811115610d4d57610d4c613a1b565b5b14610d8d576040517f08c379a0000000000000000000000000000000000000000000000000000000008152600401610d8490613662565b60405180910390fd5b600060088381548110610da357610da2613a4a565b5b9060005260206000209060070201905060038160050160006101000a81548160ff02191690836003811115610ddb57610dda613a1b565b5b02179055508060010160009054906101000a900473ffffffffffffffffffffffffffffffffffffffff1673ffffffffffffffffffffffffffffffffffffffff166108fc82600001549081150290604051600060405180830381858888f19350505050158015610e4e573d6000803e3d6000fd5b507fff1ae7486a09c668cb67e3cbd767e6eca296bcffbd5171b289407f7d714dc50283604051610e7e9190613762565b60405180910390a1505050565b6000600660003373ffffffffffffffffffffffffffffffffffffffff1673ffffffffffffffffffffffffffffffffffffffff168152602001908152602001600020541180610f265750600060019054906101000a900473ffffffffffffffffffffffffffffffffffffffff1673ffffffffffffffffffffffffffffffffffffffff163373ffffffffffffffffffffffffffffffffffffffff16145b610f65576040517f08c379a0000000000000000000000000000000000000000000000000000000008152600401610f5c90613562565b60405180910390fd5b60016003811115610f7957610f78613a1b565b5b60008054906101000a900460ff166003811115610f9957610f98613a1b565b5b14610fd9576040517f08c379a0000000000000000000000000000000000000000000000000000000008152600401610fd0906136a2565b60405180910390fd5b8060006003811115610fee57610fed613a1b565b5b6009828154811061100257611001613a4a565b5b906000526020600020906006020160030160009054906101000a900460ff16600381111561103357611032613a1b565b5b14611073576040517f08c379a000000000000000000000000000000000000000000000000000000000815260040161106a906135e2565b60405180910390fd5b816009818154811061108857611087613a4a565b5b90600052602060002090600602016004015442116110db576040517f08c379a00000000000000000000000000000000000000000000000000000000081526004016110d2906135c2565b60405180910390fd5b6000600984815481106110f1576110f0613a4a565b5b9060005260206000209060060201905080600101548160000154111561121e57600060019054906101000a900473ffffffffffffffffffffffffffffffffffffffff1673ffffffffffffffffffffffffffffffffffffffff168160050160009054906101000a900473ffffffffffffffffffffffffffffffffffffffff1673ffffffffffffffffffffffffffffffffffffffff1614156111ba5760036000806101000a81548160ff021916908360038111156111b0576111af613a1b565b5b02179055506111e5565b60026000806101000a81548160ff021916908360038111156111df576111de613a1b565b5b02179055505b60018160030160006101000a81548160ff0219169083600381111561120d5761120c613a1b565b5b02179055504760058190555061124c565b60028160030160006101000a81548160ff0219169083600381111561124657611245613a1b565b5b02179055505b7f9d503d9b21cff0a224a831dabbf5fd2856219a4555ba61c71bd702a02dd717d68460405161127b9190613762565b60405180910390a150505050565b600060019054906101000a900473ffffffffffffffffffffffffffffffffffffffff1673ffffffffffffffffffffffffffffffffffffffff163373ffffffffffffffffffffffffffffffffffffffff1614611319576040517f08c379a000000000000000000000000000000000000000000000000000000000815260040161131090613602565b60405180910390fd5b6001600381111561132d5761132c613a1b565b5b60008054906101000a900460ff16600381111561134d5761134c613a1b565b5b1461138d576040517f08c379a0000000000000000000000000000000000000000000000000000000008152600401611384906136a2565b60405180910390fd5b7f2f8af70d91e96a23b8111e37a9117f7cfe341f51c17759c36475a1a7698f0dc3816040516113bc919061350c565b60405180910390a150565b60015481565b60066020528060005260406000206000915090505481565b60076020528060005260406000206000915054906101000a900460ff1681565b60008060009054906101000a900460ff16905090565b6000600554905090565b600060019054906101000a900473ffffffffffffffffffffffffffffffffffffffff1673ffffffffffffffffffffffffffffffffffffffff163373ffffffffffffffffffffffffffffffffffffffff16146114b5576040517f08c379a00000000000000000000000000000000000000000000000000000000081526004016114ac90613602565b60405180910390fd5b600160038111156114c9576114c8613a1b565b5b60008054906101000a900460ff1660038111156114e9576114e8613a1b565b5b14611529576040517f08c379a0000000000000000000000000000000000000000000000000000000008152600401611520906136a2565b60405180910390fd5b8247101561156c576040517f08c379a000000000000000000000000000000000000000000000000000000000815260040161156390613642565b60405180910390fd5b600060086001816001815401808255809150500390600052602060002090600702019050828160010160006101000a81548173ffffffffffffffffffffffffffffffffffffffff021916908373ffffffffffffffffffffffffffffffffffffffff160217905550838160000181905550600081600201819055506000816003018190555060008160050160006101000a81548160ff0219169083600381111561161857611617613a1b565b5b021790555062093a804261162c91906138b1565b81600601819055507f288a29bca04edb18fcdb2c76d6e3b03b8a137c85c70d1a4cb8aacfa868d6051082604051611663919061350c565b60405180910390a150505050565b600060019054906101000a900473ffffffffffffffffffffffffffffffffffffffff1673ffffffffffffffffffffffffffffffffffffffff163373ffffffffffffffffffffffffffffffffffffffff1614611701576040517f08c379a00000000000000000000000000000000000000000000000000000000081526004016116f890613602565b60405180910390fd5b6000600381111561171557611714613a1b565b5b60008054906101000a900460ff16600381111561173557611734613a1b565b5b14611775576040517f08c379a000000000000000000000000000000000000000000000000000000000815260040161176c90613702565b60405180910390fd5b6001544710156117ba576040517f08c379a00000000000000000000000000000000000000000000000000000000081526004016117b190613682565b60405180910390fd5b60016000806101000a81548160ff021916908360038111156117df576117de613a1b565b5b0217905550476004819055507fe283e942d53c4322165eacc7a597c86cdbc698c96321f57a82b29c615810a69560405160405180910390a1565b600060019054906101000a900473ffffffffffffffffffffffffffffffffffffffff1681565b6000600660003373ffffffffffffffffffffffffffffffffffffffff1673ffffffffffffffffffffffffffffffffffffffff1681526020019081526020016000205411806118da5750600060019054906101000a900473ffffffffffffffffffffffffffffffffffffffff1673ffffffffffffffffffffffffffffffffffffffff163373ffffffffffffffffffffffffffffffffffffffff16145b611919576040517f08c379a000000000000000000000000000000000000000000000000000000000815260040161191090613562565b60405180910390fd5b6001600381111561192d5761192c613a1b565b5b60008054906101000a900460ff16600381111561194d5761194c613a1b565b5b1461198d576040517f08c379a0000000000000000000000000000000000000000000000000000000008152600401611984906136a2565b60405180910390fd5b600060096001816001815401808255809150500390600052602060002090600602019050600081600001819055506000816001018190555060008160030160006101000a81548160ff021916908360038111156119ed576119ec613a1b565b5b021790555062093a8042611a0191906138b1565b8160040181905550338160050160006101000a81548173ffffffffffffffffffffffffffffffffffffffff021916908373ffffffffffffffffffffffffffffffffffffffff16021790555060018160020160003373ffffffffffffffffffffffffffffffffffffffff1673ffffffffffffffffffffffffffffffffffffffff16815260200190815260200160002060006101000a81548160ff021916908315150217905550806000016000815480929190611abb906139a3565b91905055507ff58a42dcfacfd41fd5d3681beb4755c6023d9bd2d5c1ae46e8866ece6463cee782604051611aef919061350c565b60405180910390a15050565b6000600660003373ffffffffffffffffffffffffffffffffffffffff1673ffffffffffffffffffffffffffffffffffffffff168152602001908152602001600020541180611b965750600060019054906101000a900473ffffffffffffffffffffffffffffffffffffffff1673ffffffffffffffffffffffffffffffffffffffff163373ffffffffffffffffffffffffffffffffffffffff16145b611bd5576040517f08c379a0000000000000000000000000000000000000000000000000000000008152600401611bcc90613562565b60405180910390fd5b60016003811115611be957611be8613a1b565b5b60008054906101000a900460ff166003811115611c0957611c08613a1b565b5b14611c49576040517f08c379a0000000000000000000000000000000000000000000000000000000008152600401611c40906136a2565b60405180910390fd5b8060006003811115611c5e57611c5d613a1b565b5b60088281548110611c7257611c71613a4a565b5b906000526020600020906007020160050160009054906101000a900460ff166003811115611ca357611ca2613a1b565b5b14611ce3576040517f08c379a0000000000000000000000000000000000000000000000000000000008152600401611cda90613742565b60405180910390fd5b8160088181548110611cf857611cf7613a4a565b5b906000526020600020906007020160060154421115611d4c576040517f08c379a0000000000000000000000000000000000000000000000000000000008152600401611d4390613622565b60405180910390fd5b600060088481548110611d6257611d61613a4a565b5b906000526020600020906007020190508060040160003373ffffffffffffffffffffffffffffffffffffffff1673ffffffffffffffffffffffffffffffffffffffff16815260200190815260200160002060009054906101000a900460ff1615611e01576040517f08c379a0000000000000000000000000000000000000000000000000000000008152600401611df8906136c2565b60405180910390fd5b60018160040160003373ffffffffffffffffffffffffffffffffffffffff1673ffffffffffffffffffffffffffffffffffffffff16815260200190815260200160002060006101000a81548160ff021916908315150217905550806002016000815480929190611e70906139a3565b91905055507f26b645fdecdf266f3abc5b7ae3e796ffd297febba8bd3a8ad49c68435190fc6984604051611ea49190613762565b60405180910390a150505050565b6000600880549050905090565b600080600660008473ffffffffffffffffffffffffffffffffffffffff1673ffffffffffffffffffffffffffffffffffffffff16815260200190815260200160002054119050919050565b60025481565b60098181548110611f2057600080fd5b90600052602060002090600602016000915090508060000154908060010154908060030160009054906101000a900460ff16908060040154908060050160009054906101000a900473ffffffffffffffffffffffffffffffffffffffff16905085565b600080600080600080600080600060088a81548110611fa557611fa4613a4a565b5b9060005260206000209060070201905060008160060154421115905060008260040160003373ffffffffffffffffffffffffffffffffffffffff1673ffffffffffffffffffffffffffffffffffffffff16815260200190815260200160002060009054906101000a900460ff1690508260010160009054906101000a900473ffffffffffffffffffffffffffffffffffffffff168360000154846002015485600301548660050160009054906101000a900460ff16876006015487879a509a509a509a509a509a509a509a50505050919395975091939597565b6000600660003373ffffffffffffffffffffffffffffffffffffffff1673ffffffffffffffffffffffffffffffffffffffff16815260200190815260200160002054118061211a5750600060019054906101000a900473ffffffffffffffffffffffffffffffffffffffff1673ffffffffffffffffffffffffffffffffffffffff163373ffffffffffffffffffffffffffffffffffffffff16145b612159576040517f08c379a000000000000000000000000000000000000000000000000000000000815260040161215090613562565b60405180910390fd5b6001600381111561216d5761216c613a1b565b5b60008054906101000a900460ff16600381111561218d5761218c613a1b565b5b146121cd576040517f08c379a00000000000000000000000000000000000000000000000000000000081526004016121c4906136a2565b60405180910390fd5b80600060038111156121e2576121e1613a1b565b5b600882815481106121f6576121f5613a4a565b5b906000526020600020906007020160050160009054906101000a900460ff16600381111561222757612226613a1b565b5b14612267576040517f08c379a000000000000000000000000000000000000000000000000000000000815260040161225e90613742565b60405180910390fd5b816008818154811061227c5761227b613a4a565b5b9060005260206000209060070201600601544211156122d0576040517f08c379a00000000000000000000000000000000000000000000000000000000081526004016122c790613622565b60405180910390fd5b6000600884815481106122e6576122e5613a4a565b5b906000526020600020906007020190508060040160003373ffffffffffffffffffffffffffffffffffffffff1673ffffffffffffffffffffffffffffffffffffffff16815260200190815260200160002060009054906101000a900460ff1615612385576040517f08c379a000000000000000000000000000000000000000000000000000000000815260040161237c906136c2565b60405180910390fd5b60018160040160003373ffffffffffffffffffffffffffffffffffffffff1673ffffffffffffffffffffffffffffffffffffffff16815260200190815260200160002060006101000a81548160ff0219169083151502179055508060030160008154809291906123f4906139a3565b91905055507f26b645fdecdf266f3abc5b7ae3e796ffd297febba8bd3a8ad49c68435190fc69846040516124289190613762565b60405180910390a150505050565b60008060008060008060008060019054906101000a900473ffffffffffffffffffffffffffffffffffffffff1660008054906101000a900460ff16600154600254600354600454600554965096509650965096509650965090919293949596565b6000600660003373ffffffffffffffffffffffffffffffffffffffff1673ffffffffffffffffffffffffffffffffffffffff168152602001908152602001600020541480156125345750600060019054906101000a900473ffffffffffffffffffffffffffffffffffffffff1673ffffffffffffffffffffffffffffffffffffffff163373ffffffffffffffffffffffffffffffffffffffff1614155b612573576040517f08c379a000000000000000000000000000000000000000000000000000000000815260040161256a906135a2565b60405180910390fd5b6000600381111561258757612586613a1b565b5b60008054906101000a900460ff1660038111156125a7576125a6613a1b565b5b146125e7576040517f08c379a00000000000000000000000000000000000000000000000000000000081526004016125de90613702565b60405180910390fd5b60025434101561262c576040517f08c379a000000000000000000000000000000000000000000000000000000000815260040161262390613542565b60405180910390fd5b34600660003373ffffffffffffffffffffffffffffffffffffffff1673ffffffffffffffffffffffffffffffffffffffff1681526020019081526020016000208190555060036000815480929190612683906139a3565b91905055507f0673e22453ca22ab66c750388a377485c2d57a19fb171f1442f45e933d5e841860405160405180910390a1565b60055481565b600080600983815481106126d3576126d2613a4a565b5b906000526020600020906006020190508060020160003373ffffffffffffffffffffffffffffffffffffffff1673ffffffffffffffffffffffffffffffffffffffff16815260200190815260200160002060009054906101000a900460ff16915050919050565b6000806000806000806000806009898154811061275a57612759613a4a565b5b9060005260206000209060060201905060008160040154421115905060008260020160003373ffffffffffffffffffffffffffffffffffffffff1673ffffffffffffffffffffffffffffffffffffffff16815260200190815260200160002060009054906101000a900460ff169050826000015483600101548460030160009054906101000a900460ff16856004015485858860050160009054906101000a900473ffffffffffffffffffffffffffffffffffffffff169950995099509950995099509950505050919395979092949650565b6000600454905090565b6000806008838154811061284e5761284d613a4a565b5b906000526020600020906007020190508060040160003373ffffffffffffffffffffffffffffffffffffffff1673ffffffffffffffffffffffffffffffffffffffff16815260200190815260200160002060009054906101000a900460ff16915050919050565b6000600660003373ffffffffffffffffffffffffffffffffffffffff1673ffffffffffffffffffffffffffffffffffffffff1681526020019081526020016000205411806129505750600060019054906101000a900473ffffffffffffffffffffffffffffffffffffffff1673ffffffffffffffffffffffffffffffffffffffff163373ffffffffffffffffffffffffffffffffffffffff16145b61298f576040517f08c379a000000000000000000000000000000000000000000000000000000000815260040161298690613562565b60405180910390fd5b600160038111156129a3576129a2613a1b565b5b60008054906101000a900460ff1660038111156129c3576129c2613a1b565b5b14612a03576040517f08c379a00000000000000000000000000000000000000000000000000000000081526004016129fa906136a2565b60405180910390fd5b8060006003811115612a1857612a17613a1b565b5b60098281548110612a2c57612a2b613a4a565b5b906000526020600020906006020160030160009054906101000a900460ff166003811115612a5d57612a5c613a1b565b5b14612a9d576040517f08c379a0000000000000000000000000000000000000000000000000000000008152600401612a94906135e2565b60405180910390fd5b8160098181548110612ab257612ab1613a4a565b5b906000526020600020906006020160040154421115612b06576040517f08c379a0000000000000000000000000000000000000000000000000000000008152600401612afd906136e2565b60405180910390fd5b600060098481548110612b1c57612b1b613a4a565b5b906000526020600020906006020190508060020160003373ffffffffffffffffffffffffffffffffffffffff1673ffffffffffffffffffffffffffffffffffffffff16815260200190815260200160002060009054906101000a900460ff1615612bbb576040517f08c379a0000000000000000000000000000000000000000000000000000000008152600401612bb290613582565b60405180910390fd5b60018160020160003373ffffffffffffffffffffffffffffffffffffffff1673ffffffffffffffffffffffffffffffffffffffff16815260200190815260200160002060006101000a81548160ff021916908315150217905550806001016000815480929190612c2a906139a3565b91905055507fe409ecf780dc6e9443c4a40dc179eff049a4aad25fac7d4f6024f787b621662284604051612c5e9190613762565b60405180910390a150505050565b6000600660003373ffffffffffffffffffffffffffffffffffffffff1673ffffffffffffffffffffffffffffffffffffffff168152602001908152602001600020541180612d075750600060019054906101000a900473ffffffffffffffffffffffffffffffffffffffff1673ffffffffffffffffffffffffffffffffffffffff163373ffffffffffffffffffffffffffffffffffffffff16145b612d46576040517f08c379a0000000000000000000000000000000000000000000000000000000008152600401612d3d90613562565b60405180910390fd5b60016003811115612d5a57612d59613a1b565b5b60008054906101000a900460ff166003811115612d7a57612d79613a1b565b5b14612dba576040517f08c379a0000000000000000000000000000000000000000000000000000000008152600401612db1906136a2565b60405180910390fd5b8060006003811115612dcf57612dce613a1b565b5b60098281548110612de357612de2613a4a565b5b906000526020600020906006020160030160009054906101000a900460ff166003811115612e1457612e13613a1b565b5b14612e54576040517f08c379a0000000000000000000000000000000000000000000000000000000008152600401612e4b906135e2565b60405180910390fd5b8160098181548110612e6957612e68613a4a565b5b906000526020600020906006020160040154421115612ebd576040517f08c379a0000000000000000000000000000000000000000000000000000000008152600401612eb4906136e2565b60405180910390fd5b600060098481548110612ed357612ed2613a4a565b5b906000526020600020906006020190508060020160003373ffffffffffffffffffffffffffffffffffffffff1673ffffffffffffffffffffffffffffffffffffffff16815260200190815260200160002060009054906101000a900460ff1615612f72576040517f08c379a0000000000000000000000000000000000000000000000000000000008152600401612f6990613582565b60405180910390fd5b60018160020160003373ffffffffffffffffffffffffffffffffffffffff1673ffffffffffffffffffffffffffffffffffffffff16815260200190815260200160002060006101000a81548160ff021916908315150217905550806000016000815480929190612fe1906139a3565b91905055507fe409ecf780dc6e9443c4a40dc179eff049a4aad25fac7d4f6024f787b6216622846040516130159190613762565b60405180910390a150505050565b60008135905061303281613f01565b92915050565b60008135905061304781613f18565b92915050565b60008135905061305c81613f2f565b92915050565b60006020828403121561307857613077613a79565b5b600061308684828501613023565b91505092915050565b6000602082840312156130a5576130a4613a79565b5b60006130b384828501613038565b91505092915050565b6000602082840312156130d2576130d1613a79565b5b60006130e08482850161304d565b91505092915050565b60008060006060848603121561310257613101613a79565b5b60006131108682870161304d565b935050602061312186828701613023565b925050604061313286828701613038565b9150509250925092565b61314581613907565b82525050565b61315481613919565b82525050565b61316381613925565b82525050565b6131728161397f565b82525050565b61318181613991565b82525050565b6000613194601f836138a0565b915061319f82613a7e565b602082019050919050565b60006131b76017836138a0565b91506131c282613aa7565b602082019050919050565b60006131da603a836138a0565b91506131e582613ad0565b604082019050919050565b60006131fd601b836138a0565b915061320882613b1f565b602082019050919050565b6000613220602f836138a0565b915061322b82613b48565b604082019050919050565b6000613243602b836138a0565b915061324e82613b97565b604082019050919050565b60006132666018836138a0565b915061327182613be6565b602082019050919050565b60006132896021836138a0565b915061329482613c0f565b604082019050919050565b60006132ac601b836138a0565b91506132b782613c5e565b602082019050919050565b60006132cf601d836138a0565b91506132da82613c87565b602082019050919050565b60006132f26022836138a0565b91506132fd82613cb0565b604082019050919050565b60006133156022836138a0565b915061332082613cff565b604082019050919050565b60006133386031836138a0565b915061334382613d4e565b604082019050919050565b600061335b602a836138a0565b915061336682613d9d565b604082019050919050565b600061337e6023836138a0565b915061338982613dec565b604082019050919050565b60006133a16026836138a0565b91506133ac82613e3b565b604082019050919050565b60006133c46022836138a0565b91506133cf82613e8a565b604082019050919050565b6133e381613975565b82525050565b60006020820190506133fe600083018461313c565b92915050565b600060e082019050613419600083018a61313c565b6134266020830189613169565b61343360408301886133da565b61344060608301876133da565b61344d60808301866133da565b61345a60a08301856133da565b61346760c08301846133da565b98975050505050505050565b600061010082019050613489600083018b61313c565b613496602083018a6133da565b6134a360408301896133da565b6134b060608301886133da565b6134bd6080830187613178565b6134ca60a08301866133da565b6134d760c083018561314b565b6134e460e083018461314b565b9998505050505050505050565b6000602082019050613506600083018461314b565b92915050565b6000602082019050613521600083018461315a565b92915050565b600060208201905061353c6000830184613169565b92915050565b6000602082019050818103600083015261355b81613187565b9050919050565b6000602082019050818103600083015261357b816131aa565b9050919050565b6000602082019050818103600083015261359b816131cd565b9050919050565b600060208201905081810360008301526135bb816131f0565b9050919050565b600060208201905081810360008301526135db81613213565b9050919050565b600060208201905081810360008301526135fb81613236565b9050919050565b6000602082019050818103600083015261361b81613259565b9050919050565b6000602082019050818103600083015261363b8161327c565b9050919050565b6000602082019050818103600083015261365b8161329f565b9050919050565b6000602082019050818103600083015261367b816132c2565b9050919050565b6000602082019050818103600083015261369b816132e5565b9050919050565b600060208201905081810360008301526136bb81613308565b9050919050565b600060208201905081810360008301526136db8161332b565b9050919050565b600060208201905081810360008301526136fb8161334e565b9050919050565b6000602082019050818103600083015261371b81613371565b9050919050565b6000602082019050818103600083015261373b81613394565b9050919050565b6000602082019050818103600083015261375b816133b7565b9050919050565b600060208201905061377760008301846133da565b92915050565b600060c08201905061379260008301896133da565b61379f602083018861313c565b6137ac60408301876133da565b6137b960608301866133da565b6137c66080830185613178565b6137d360a08301846133da565b979650505050505050565b600060a0820190506137f360008301886133da565b61380060208301876133da565b61380d6040830186613178565b61381a60608301856133da565b613827608083018461313c565b9695505050505050565b600060e082019050613846600083018a6133da565b61385360208301896133da565b6138606040830188613178565b61386d60608301876133da565b61387a608083018661314b565b61388760a083018561314b565b61389460c083018461313c565b98975050505050505050565b600082825260208201905092915050565b60006138bc82613975565b91506138c783613975565b9250827fffffffffffffffffffffffffffffffffffffffffffffffffffffffffffffffff038211156138fc576138fb6139ec565b5b828201905092915050565b600061391282613955565b9050919050565b60008115159050919050565b6000819050919050565b600081905061393d82613ed9565b919050565b600081905061395082613eed565b919050565b600073ffffffffffffffffffffffffffffffffffffffff82169050919050565b6000819050919050565b600061398a8261392f565b9050919050565b600061399c82613942565b9050919050565b60006139ae82613975565b91507fffffffffffffffffffffffffffffffffffffffffffffffffffffffffffffffff8214156139e1576139e06139ec565b5b600182019050919050565b7f4e487b7100000000000000000000000000000000000000000000000000000000600052601160045260246000fd5b7f4e487b7100000000000000000000000000000000000000000000000000000000600052602160045260246000fd5b7f4e487b7100000000000000000000000000000000000000000000000000000000600052603260045260246000fd5b600080fd5b7f54686520636f6e747269627574696f6e20697320696e737566696369656e7400600082015250565b7f53656e646572206973206e6f742061206d656d6265722e000000000000000000600082015250565b7f5468652064657374727563742070726f706f73616c20686173206265656e206160008201527f6c726561647920766f746564206279207468652073656e646572000000000000602082015250565b7f53656e64657220697320616c72656164792061206d656d6265722e0000000000600082015250565b7f5468652064657374727563742070726f706f73616c206973207374696c6c206f60008201527f70656e20666f7220766f74696e672e0000000000000000000000000000000000602082015250565b7f5468652064657374727563742070726f706f73616c206973206e6f74206c6f6e60008201527f676572206163746976652e000000000000000000000000000000000000000000602082015250565b7f53656e646572206973206e6f7420746865206f776e65722e0000000000000000600082015250565b7f5468652070726f706f73616c20697320636c6f736520666f7220766f74696e6760008201527f2e00000000000000000000000000000000000000000000000000000000000000602082015250565b7f54686520666f756e64732061726520696e73756666696369656e740000000000600082015250565b7f5468652070726f706f73616c206973206e6f7420617070726f7665642e000000600082015250565b7f54686520636f6e747269627574696f6e732061726520696e737566666963696560008201527f6e74000000000000000000000000000000000000000000000000000000000000602082015250565b7f5468652063616d706169676e20737461747573206973206e6f7420616374697660008201527f652e000000000000000000000000000000000000000000000000000000000000602082015250565b7f5468652070726f706f73616c20686173206265656e20616c726561647920766f60008201527f746564206279207468652073656e646572000000000000000000000000000000602082015250565b7f5468652064657374727563742070726f706f73616c20697320636c6f7365206660008201527f6f7220766f74696e672e00000000000000000000000000000000000000000000602082015250565b7f5468652063616d706169676e20737461747573206973206e6f7420637265617460008201527f65642e0000000000000000000000000000000000000000000000000000000000602082015250565b7f5468652070726f706f73616c206973207374696c6c206f70656e20666f72207660008201527f6f74696e672e0000000000000000000000000000000000000000000000000000602082015250565b7f5468652070726f706f73616c206973206e6f74206c6f6e67657220616374697660008201527f652e000000000000000000000000000000000000000000000000000000000000602082015250565b60048110613eea57613ee9613a1b565b5b50565b60048110613efe57613efd613a1b565b5b50565b613f0a81613907565b8114613f1557600080fd5b50565b613f2181613925565b8114613f2c57600080fd5b50565b613f3881613975565b8114613f4357600080fd5b5056fea2646970667358221220b336746a81bb2c1ec894be3fcfd08b577fa4225e744aef6c4bbacc48f62557d064736f6c63430008060033",
  "immutableReferences": {},
  "source": "//SPDX-License-Identifier: GPL-3.0-only\npragma solidity ^0.8.0;\n\ncontract CrowdfundingCampaign {\n\n    /* Enums */\n\n    enum CampaignStatus { CREATED, ACTIVE, FAIL, SUCCESSFUL }\n    enum ProposalStatus { ACTIVE, APPROVED, DISAPPROVED, SUCCESSFUL }\n\n    \n    /* Structs */\n\n    /** @dev Struct proposal\n        This struct represents the proposals that only owner can make to get more founds.\n    **/\n    struct Proposal {\n        uint value;\n        address recipient;\n        uint approvalsCount;\n        uint disapprovalsCount;\n        mapping(address => bool) voters;\n        ProposalStatus status;\n        uint limitTime;\n    }\n\n    /** @dev Struct destruct proposal\n        This struct represents the proposal that members can make to get their founds back.\n    **/\n    struct DestructProposal {\n        uint approvalsCount;\n        uint disapprovalsCount;\n        mapping(address => bool) voters;\n        ProposalStatus status;\n        uint limitTime;\n        address author;\n    }\n\n    /* Storage */\n\n    CampaignStatus public status;\n    \n    address public owner;\n    \n    uint public goal;\n    uint public minimunContribution;\n    uint public membersCount;\n    uint public finalContributions;\n    uint public remainingContributions;\n    \n    mapping(address => uint) public contributions;\n    mapping(address => bool) public withdraws;\n    \n    Proposal[] public proposals;\n    DestructProposal[] public destructProposals;\n    \n\n    /** @dev Constructor.\n     *  @param _minimunContribution minimum contribution in wei that a person has to make to become a member.\n     *  @param _goal goal in wei that the proyect has to reach to be succesfull.\n     *  @param _ipfshash The url hash of the campaign data previusly stored in IPFS.\n    **/\n    constructor(uint _minimunContribution, uint _goal, bytes32 _ipfshash) {\n        owner = msg.sender;\n        goal = _goal;\n        minimunContribution = _minimunContribution;\n        status = CampaignStatus.CREATED;\n        membersCount = 0;\n\n        emit CampaignCreated(_ipfshash);\n    }\n\n\n    /* Modifiers */\n\n    modifier restricted() { require(msg.sender==owner, \"Sender is not the owner.\"); _; }\n\n    modifier membering() { require( (contributions[msg.sender]>0) || (msg.sender == owner), \"Sender is not a member.\"); _; }\n\n    modifier notMembering() { require( (contributions[msg.sender]==0) && (msg.sender != owner) , \"Sender is already a member.\"); _; }\n\n    modifier statusCreated() \n        { require(status == CampaignStatus.CREATED, \"The campaign status is not created.\"); _; }\n\n    modifier statusActive()\n        { require(status == CampaignStatus.ACTIVE, \"The campaign status is not active.\"); _; }\n\n    modifier proposalActive(uint _index) \n        { require(proposals[_index].status == ProposalStatus.ACTIVE, \"The proposal is not longer active.\"); _; }\n\n    modifier proposalApproved(uint _index) \n        { require(proposals[_index].status == ProposalStatus.APPROVED, \"The proposal is not approved.\" ); _; }\n\n    modifier beInTimeProposal(uint _index)\n        { require (block.timestamp <= proposals[_index].limitTime, \"The proposal is close for voting.\"); _; }\n\n    modifier passedTimeProposal(uint _index)\n        { require (block.timestamp > proposals[_index].limitTime, \"The proposal is still open for voting.\"); _; }\n\n    modifier destructProposalActive(uint _index) {\n        require(\n            destructProposals[_index].status == ProposalStatus.ACTIVE,\n            \"The destruct proposal is not longer active.\");\n        _;\n    }\n\n    modifier destructProposalApproved(uint _index) {\n        require(\n            destructProposals[_index].status == ProposalStatus.APPROVED,\n            \"The destruct proposal is not approved.\");\n        _;\n    }\n\n    modifier beInTimeDestructProposal(uint _index) { \n        require (block.timestamp <= destructProposals[_index].limitTime, \"The destruct proposal is close for voting.\"); _; \n    }\n\n    modifier passedTimeDestructProposal(uint _index) { \n        require (block.timestamp > destructProposals[_index].limitTime, \"The destruct proposal is still open for voting.\"); _; \n    }\n\n\n    /* Events */\n\n    /** @dev Emitted when the author creates the campaign.\n     *  @param _ipfshash The url hash of the campaign data stored in IPFS.\n     */\n    event CampaignCreated(bytes32 _ipfshash);\n\n    /** @dev Emitted when a new person contributes with the campaign.\n     */\n    event NewContribution();\n\n    /** @dev Emitted when the author creates a proposal to free founds.\n     *  @param _ipfshash The url hash of the proposal data stored in IPFS.\n     */\n    event ProposalCreated(bytes32 _ipfshash);\n\n     /** @dev Emitted when a proposal is voted.\n     *  @param _index The index of the proposal.\n     */\n    event ProposalVoted(uint _index);\n\n    /** @dev Emitted when a proposal is Closed.\n     *  @param _index The index of the proposal.\n     */\n    event ProposalClosed(uint _index);\n\n    /** @dev Emitted when a proposal was withdraw.\n     *  @param _index The index of the proposal.\n     */\n    event ProposalWithdraw(uint _index);\n\n     /** @dev Emitted when a member creates a proposal to destruct the campaign and get the founds back.\n     *  @param _ipfshash The url hash of the destruct proposal data stored in IPFS.\n     */\n    event DestructProposalCreated(bytes32 _ipfshash);\n\n    /** @dev Emitted when a destruct proposal is voted.\n     *  @param _index The index of the destruct proposal.\n     */\n    event DestructProposalVoted(uint _index);\n\n    /** @dev Emitted when a  destruct proposal is Closed.\n     *  @param _index The index of the destruct proposal.\n     */\n    event DestructProposalClosed(uint _index);\n\n    /** @dev Emitted when the author creates a progress update to show how the proyect is going.\n     *  @param _ipfshash The url hash of the progress update data stored in IPFS.\n     */\n    event ProgressUpdate(bytes32 _ipfshash);\n\n    /** @dev Emitted when the status of the campaign change.\n     */\n    event ChangeStatusCampaign();\n\n\n    /* Functions */\n\n    /** @dev Allow not members to contribute with the campaign and be a member of it.\n     */\n    function contribute() public notMembering statusCreated payable {\n        require(msg.value >= minimunContribution, \"The contribution is insuficient\");\n        contributions[msg.sender] = msg.value;\n        membersCount++;\n        emit NewContribution();\n    }\n\n    /** @dev Allow only owner to change the status of the cCampaign from CREATED to ACTIVE.\n     */\n    function setActive() public restricted statusCreated {\n        \n        require(address(this).balance >= goal,\"The contributions are insufficient\");\n        status = CampaignStatus.ACTIVE;\n        finalContributions = address(this).balance;\n\n        emit ChangeStatusCampaign();\n         \n    }\n\n    /** @dev Allow only owner to save a new progress Update data ipfs hash.\n     *  @param _ipfshash url hash of the progress update data (description and pictures) previusly stored in IPFS.\n     */\n    function saveProgressUpdate(bytes32 _ipfshash) \n        public restricted statusActive {\n        emit ProgressUpdate(_ipfshash); \n    }\n\n    /** @dev Allow only owner to create a new proposal to get more founds.\n     *  @param _value founds in wei that the owner want to withdraw.\n     *  @param _recipient address where the founds are going to be after withdraw them.\n     *  @param _ipfshash url hash of the proposal data (description and pictures) previusly stored in IPFS.\n     */\n    function createProposal(uint _value, address _recipient, bytes32 _ipfshash) \n        public restricted statusActive {\n\n        require(address(this).balance >= _value, \"The founds are insufficient\");\n\n        Proposal storage newProposal = proposals.push();\n        newProposal.recipient = _recipient;\n        newProposal.value = _value;\n        newProposal.approvalsCount = 0;\n        newProposal.disapprovalsCount = 0;\n        newProposal.status = ProposalStatus.ACTIVE;\n        newProposal.limitTime= block.timestamp + 7 days;\n\n        emit ProposalCreated(_ipfshash);\n        \n    }\n\n    /** @dev Allow only members to approve an active proposal that they haven't voted before.\n     *  @param _index index of the proposal the member wants to approve.\n     */\n    function approveProposal(uint _index) public membering statusActive proposalActive(_index) beInTimeProposal(_index) {\n\n        Proposal storage proposal = proposals[_index];\n        require(!proposal.voters[msg.sender], \"The proposal has been already voted by the sender\");\n\n        proposal.voters[msg.sender] = true;\n        proposal.approvalsCount++;\n\n        emit ProposalVoted(_index);        \n    }\n\n    /** @dev Allow only members to disapprove an active proposal that they haven't voted before.\n     *  @param _index index of the proposal the member wants to disapprove.\n     */\n    function disapproveProposal(uint _index) public membering statusActive proposalActive(_index) beInTimeProposal(_index) {\n\n        Proposal storage proposal = proposals[_index];\n        require(!proposal.voters[msg.sender], \"The proposal has been already voted by the sender\");\n\n        proposal.voters[msg.sender] = true;\n        proposal.disapprovalsCount++;\n        \n        emit ProposalVoted(_index);\n    }\n\n    /** @dev Allow only members to close an active proposal that already has its voting time over.\n     *  @param _index index of the proposal the member wants to approve.\n     */\n    function closeProposal(uint _index) public membering statusActive proposalActive(_index) passedTimeProposal(_index) {\n\n        Proposal storage proposal = proposals[_index];\n\n        if (proposal.approvalsCount > proposal.disapprovalsCount) {\n            proposal.status = ProposalStatus.APPROVED; \n        }\n        else {\n            proposal.status = ProposalStatus.DISAPPROVED;\n        }\n\n        emit ProposalClosed(_index);\n    }\n\n    /** @dev Allow only members to close an active proposal that already has its voting time over.\n     *  @param _index index of the proposal the member wants to approve.\n     */\n    function withdraw(uint _index) public restricted statusActive proposalApproved(_index) {\n\n        Proposal storage proposal = proposals[_index];\n        proposal.status = ProposalStatus.SUCCESSFUL; \n        payable(proposal.recipient).transfer(proposal.value);\n        \n        emit ProposalWithdraw(_index);\n    }\n\n    /** @dev Allow only members to create a new proposal to finish de proyect and get the founds back.\n     *  @param _ipfshash url hash of the destruct proposal data (description) previusly stored in IPFS.\n     */\n    function createDestructProposal(bytes32 _ipfshash) public membering statusActive {\n\n        DestructProposal storage newDProposal = destructProposals.push();\n        newDProposal.approvalsCount = 0;\n        newDProposal.disapprovalsCount = 0;\n        newDProposal.status = ProposalStatus.ACTIVE;\n        newDProposal.limitTime= block.timestamp + 7 days;\n        newDProposal.author = msg.sender;\n\n        newDProposal.voters[msg.sender] = true;\n        newDProposal.approvalsCount++;\n\n        emit DestructProposalCreated(_ipfshash);\n         \n    }\n\n    /** @dev Allow only members to approve an active destruct proposal that they haven't voted before.\n     *  @param _index index of the destruct proposal the member wants to approve.\n     */\n    function aproveDestructProposal(uint _index) public membering statusActive destructProposalActive(_index) beInTimeDestructProposal(_index) {\n\n        DestructProposal storage dProposal = destructProposals[_index];\n        require(!dProposal.voters[msg.sender], \"The destruct proposal has been already voted by the sender\");\n\n        dProposal.voters[msg.sender] = true;\n        dProposal.approvalsCount++;\n\n        emit DestructProposalVoted(_index);\n        \n    }\n\n    /** @dev Allow only members to disapprove an active destruct proposal that they haven't voted before.\n     *  @param _index index of the destruct proposal the member wants to disapprove.\n     */\n    function disapproveDestructProposal(uint _index) public membering statusActive destructProposalActive(_index) beInTimeDestructProposal(_index) {\n\n        DestructProposal storage dProposal = destructProposals[_index];\n        require(!dProposal.voters[msg.sender], \"The destruct proposal has been already voted by the sender\");\n\n        dProposal.voters[msg.sender] = true;\n        dProposal.disapprovalsCount++;\n\n        emit DestructProposalVoted(_index);\n        \n    }\n\n    /** @dev Allow only members to close an active proposal that already has its voting time over.\n     *  @param _index index of the proposal the member wants to approve.\n     */\n    function closeDestructProposal(uint _index) public membering statusActive destructProposalActive(_index) passedTimeDestructProposal(_index) {\n\n        DestructProposal storage dProposal = destructProposals[_index];\n\n        if (dProposal.approvalsCount > dProposal.disapprovalsCount) {\n            if (dProposal.author == owner) {\n                status = CampaignStatus.SUCCESSFUL;\n            } else {\n                status = CampaignStatus.FAIL;\n            }\n            dProposal.status = ProposalStatus.APPROVED; \n            remainingContributions = address(this).balance;\n        }\n        else {\n            dProposal.status = ProposalStatus.DISAPPROVED;\n        }\n\n        emit DestructProposalClosed(_index);\n    }\n\n     /* Aux functions */\n\n    /** @dev Function to return if someone is member.\n     */\n    function isMember(address _address) public view returns (bool) {\n        return contributions[_address]>0;\n    }\n\n    /** @dev Function to get the actual status of the campaign.\n     */\n    function getStatus() public view returns (CampaignStatus) {\n        return status;\n    }\n\n    /** @dev Function to get the finalContributions of the campaign.\n     */\n    function getFinalContributions() public view returns (uint) {\n        return finalContributions;\n    }\n\n    /** @dev Function to get the remainingContributions of the campaign.\n     */\n    function getRemainingContributions() public view returns (uint) {\n        return remainingContributions;\n    }\n\n    /** @dev Function to get the data of the campaign\n     */\n    function getCampaignInfo() public view returns (address, CampaignStatus, uint, uint, uint, uint, uint) {\n        return (owner, status, goal, minimunContribution, membersCount, finalContributions, remainingContributions);\n    } \n\n    /** @dev Function to get the data of a proposal.\n     *  @param _index index of the proposal to return\n     */\n    function getProposal(uint _index) public view returns (address, uint, uint, uint, ProposalStatus, uint, bool, bool) {\n        Proposal storage proposal = proposals[_index];\n        bool inTime = block.timestamp <= proposal.limitTime;\n        bool senderHasVote = proposal.voters[msg.sender];\n        return (proposal.recipient, proposal.value, proposal.approvalsCount, proposal.disapprovalsCount, proposal.status, proposal.limitTime, inTime, senderHasVote);\n    } \n\n     /** @dev Function to know if a member has already vot a proposal.\n     *  @param _index index of the proposal\n     */\n    function hasVotedProposal(uint _index) public view returns (bool) {\n        Proposal storage proposal = proposals[_index];\n        return proposal.voters[msg.sender];\n    } \n\n    /** @dev Function to get the total number of proposals.\n     */\n    function getProposalsCount() public view returns (uint) {\n        return proposals.length;\n    }\n\n    /** @dev Function to get the data of a destruct proposal.\n     *  @param _index index of the proposal to return\n     */\n    function getDestructProposal(uint _index) public view returns (uint, uint, ProposalStatus, uint, bool, bool, address) {\n        DestructProposal storage dProposal = destructProposals[_index];\n        bool inTime = block.timestamp <= dProposal.limitTime;\n        bool senderHasVote = dProposal.voters[msg.sender];\n        return (dProposal.approvalsCount, dProposal.disapprovalsCount, dProposal.status, dProposal.limitTime, inTime, senderHasVote, dProposal.author);\n    } \n\n    /** @dev Function to know if a member has already vot a destruct proposal.\n     *  @param _index index of the proposal\n     */\n    function hasVotedDestructProposal(uint _index) public view returns (bool) {\n        DestructProposal storage dProposal = destructProposals[_index];\n        return dProposal.voters[msg.sender];\n    } \n\n    /** @dev Function to get the total number of destruct proposals.\n     */\n    function getDestructProposalsCount() public view returns (uint) {\n        return destructProposals.length;\n    }\n   \n}",
  "sourcePath": "/home/tati/Desktop/personal/Tesina/semideas-crowdfunding/contracts/CrowdfundingCampaign.sol",
  "compiler": {
    "name": "solc",
    "version": "0.8.6+commit.11564f7e.Emscripten.clang"
  },
  "schemaVersion": "3.4.1",
  "updatedAt": "2021-07-10T02:02:23.598Z",
  "networkType": "ethereum",
  "devdoc": {
    "events": {
      "CampaignCreated(bytes32)": {
        "details": "Emitted when the author creates the campaign.",
        "params": {
          "_ipfshash": "The url hash of the campaign data stored in IPFS."
        }
      },
      "ChangeStatusCampaign()": {
        "details": "Emitted when the status of the campaign change."
      },
      "DestructProposalClosed(uint256)": {
        "details": "Emitted when a  destruct proposal is Closed.",
        "params": {
          "_index": "The index of the destruct proposal."
        }
      },
      "DestructProposalCreated(bytes32)": {
        "details": "Emitted when a member creates a proposal to destruct the campaign and get the founds back.",
        "params": {
          "_ipfshash": "The url hash of the destruct proposal data stored in IPFS."
        }
      },
      "DestructProposalVoted(uint256)": {
        "details": "Emitted when a destruct proposal is voted.",
        "params": {
          "_index": "The index of the destruct proposal."
        }
      },
      "NewContribution()": {
        "details": "Emitted when a new person contributes with the campaign."
      },
      "ProgressUpdate(bytes32)": {
        "details": "Emitted when the author creates a progress update to show how the proyect is going.",
        "params": {
          "_ipfshash": "The url hash of the progress update data stored in IPFS."
        }
      },
      "ProposalClosed(uint256)": {
        "details": "Emitted when a proposal is Closed.",
        "params": {
          "_index": "The index of the proposal."
        }
      },
      "ProposalCreated(bytes32)": {
        "details": "Emitted when the author creates a proposal to free founds.",
        "params": {
          "_ipfshash": "The url hash of the proposal data stored in IPFS."
        }
      },
      "ProposalVoted(uint256)": {
        "details": "Emitted when a proposal is voted.",
        "params": {
          "_index": "The index of the proposal."
        }
      },
      "ProposalWithdraw(uint256)": {
        "details": "Emitted when a proposal was withdraw.",
        "params": {
          "_index": "The index of the proposal."
        }
      }
    },
    "kind": "dev",
    "methods": {
      "approveProposal(uint256)": {
        "details": "Allow only members to approve an active proposal that they haven't voted before.",
        "params": {
          "_index": "index of the proposal the member wants to approve."
        }
      },
      "aproveDestructProposal(uint256)": {
        "details": "Allow only members to approve an active destruct proposal that they haven't voted before.",
        "params": {
          "_index": "index of the destruct proposal the member wants to approve."
        }
      },
      "closeDestructProposal(uint256)": {
        "details": "Allow only members to close an active proposal that already has its voting time over.",
        "params": {
          "_index": "index of the proposal the member wants to approve."
        }
      },
      "closeProposal(uint256)": {
        "details": "Allow only members to close an active proposal that already has its voting time over.",
        "params": {
          "_index": "index of the proposal the member wants to approve."
        }
      },
      "constructor": {
        "details": "Constructor.",
        "params": {
          "_goal": "goal in wei that the proyect has to reach to be succesfull.",
          "_ipfshash": "The url hash of the campaign data previusly stored in IPFS.*",
          "_minimunContribution": "minimum contribution in wei that a person has to make to become a member."
        }
      },
      "contribute()": {
        "details": "Allow not members to contribute with the campaign and be a member of it."
      },
      "createDestructProposal(bytes32)": {
        "details": "Allow only members to create a new proposal to finish de proyect and get the founds back.",
        "params": {
          "_ipfshash": "url hash of the destruct proposal data (description) previusly stored in IPFS."
        }
      },
      "createProposal(uint256,address,bytes32)": {
        "details": "Allow only owner to create a new proposal to get more founds.",
        "params": {
          "_ipfshash": "url hash of the proposal data (description and pictures) previusly stored in IPFS.",
          "_recipient": "address where the founds are going to be after withdraw them.",
          "_value": "founds in wei that the owner want to withdraw."
        }
      },
      "disapproveDestructProposal(uint256)": {
        "details": "Allow only members to disapprove an active destruct proposal that they haven't voted before.",
        "params": {
          "_index": "index of the destruct proposal the member wants to disapprove."
        }
      },
      "disapproveProposal(uint256)": {
        "details": "Allow only members to disapprove an active proposal that they haven't voted before.",
        "params": {
          "_index": "index of the proposal the member wants to disapprove."
        }
      },
      "getCampaignInfo()": {
        "details": "Function to get the data of the campaign"
      },
      "getDestructProposal(uint256)": {
        "details": "Function to get the data of a destruct proposal.",
        "params": {
          "_index": "index of the proposal to return"
        }
      },
      "getDestructProposalsCount()": {
        "details": "Function to get the total number of destruct proposals."
      },
      "getFinalContributions()": {
        "details": "Function to get the finalContributions of the campaign."
      },
      "getProposal(uint256)": {
        "details": "Function to get the data of a proposal.",
        "params": {
          "_index": "index of the proposal to return"
        }
      },
      "getProposalsCount()": {
        "details": "Function to get the total number of proposals."
      },
      "getRemainingContributions()": {
        "details": "Function to get the remainingContributions of the campaign."
      },
      "getStatus()": {
        "details": "Function to get the actual status of the campaign."
      },
      "hasVotedDestructProposal(uint256)": {
        "details": "Function to know if a member has already vot a destruct proposal.",
        "params": {
          "_index": "index of the proposal"
        }
      },
      "hasVotedProposal(uint256)": {
        "details": "Function to know if a member has already vot a proposal.",
        "params": {
          "_index": "index of the proposal"
        }
      },
      "isMember(address)": {
        "details": "Function to return if someone is member."
      },
      "saveProgressUpdate(bytes32)": {
        "details": "Allow only owner to save a new progress Update data ipfs hash.",
        "params": {
          "_ipfshash": "url hash of the progress update data (description and pictures) previusly stored in IPFS."
        }
      },
      "setActive()": {
        "details": "Allow only owner to change the status of the cCampaign from CREATED to ACTIVE."
      },
      "withdraw(uint256)": {
        "details": "Allow only members to close an active proposal that already has its voting time over.",
        "params": {
          "_index": "index of the proposal the member wants to approve."
        }
      }
    },
    "version": 1
  },
  "userdoc": {
    "kind": "user",
    "methods": {},
    "version": 1
  }
}