{
  "contractName": "CrowdfundingCampaign",
  "abi": [
    {
      "inputs": [
        {
          "internalType": "uint256",
          "name": "_minimunContribution",
          "type": "uint256"
        },
        {
          "internalType": "uint256",
          "name": "_goal",
          "type": "uint256"
        },
        {
          "internalType": "bytes32",
          "name": "_ipfshash",
          "type": "bytes32"
        }
      ],
      "stateMutability": "nonpayable",
      "type": "constructor"
    },
    {
      "anonymous": false,
      "inputs": [
        {
          "indexed": true,
          "internalType": "bytes32",
          "name": "_ipfshash",
          "type": "bytes32"
        }
      ],
      "name": "campaignCreated",
      "type": "event"
    },
    {
      "anonymous": false,
      "inputs": [],
      "name": "changeStatusCampaign",
      "type": "event"
    },
    {
      "anonymous": false,
      "inputs": [],
      "name": "destructProposalClosed",
      "type": "event"
    },
    {
      "anonymous": false,
      "inputs": [
        {
          "indexed": true,
          "internalType": "bytes32",
          "name": "_ipfshash",
          "type": "bytes32"
        }
      ],
      "name": "destructProposalCreated",
      "type": "event"
    },
    {
      "anonymous": false,
      "inputs": [],
      "name": "newContribution",
      "type": "event"
    },
    {
      "anonymous": false,
      "inputs": [
        {
          "indexed": true,
          "internalType": "bytes32",
          "name": "_ipfshash",
          "type": "bytes32"
        }
      ],
      "name": "progressUpdate",
      "type": "event"
    },
    {
      "anonymous": false,
      "inputs": [],
      "name": "proposalClosed",
      "type": "event"
    },
    {
      "anonymous": false,
      "inputs": [
        {
          "indexed": true,
          "internalType": "bytes32",
          "name": "_ipfshash",
          "type": "bytes32"
        }
      ],
      "name": "proposalCreated",
      "type": "event"
    },
    {
      "anonymous": false,
      "inputs": [],
      "name": "proposalVoted",
      "type": "event"
    },
    {
      "anonymous": false,
      "inputs": [],
      "name": "proposalWithdraw",
      "type": "event"
    },
    {
      "inputs": [
        {
          "internalType": "address",
          "name": "",
          "type": "address"
        }
      ],
      "name": "contributions",
      "outputs": [
        {
          "internalType": "uint256",
          "name": "",
          "type": "uint256"
        }
      ],
      "stateMutability": "view",
      "type": "function",
      "constant": true
    },
    {
      "inputs": [
        {
          "internalType": "uint256",
          "name": "",
          "type": "uint256"
        }
      ],
      "name": "destructProposals",
      "outputs": [
        {
          "internalType": "uint256",
          "name": "approvalsCount",
          "type": "uint256"
        },
        {
          "internalType": "uint256",
          "name": "disapprovalsCount",
          "type": "uint256"
        },
        {
          "internalType": "enum CrowdfundingCampaign.Status",
          "name": "status",
          "type": "uint8"
        },
        {
          "internalType": "uint256",
          "name": "limitTime",
          "type": "uint256"
        }
      ],
      "stateMutability": "view",
      "type": "function",
      "constant": true
    },
    {
      "inputs": [],
      "name": "goal",
      "outputs": [
        {
          "internalType": "uint256",
          "name": "",
          "type": "uint256"
        }
      ],
      "stateMutability": "view",
      "type": "function",
      "constant": true
    },
    {
      "inputs": [],
      "name": "membersCount",
      "outputs": [
        {
          "internalType": "uint256",
          "name": "",
          "type": "uint256"
        }
      ],
      "stateMutability": "view",
      "type": "function",
      "constant": true
    },
    {
      "inputs": [],
      "name": "minimunContribution",
      "outputs": [
        {
          "internalType": "uint256",
          "name": "",
          "type": "uint256"
        }
      ],
      "stateMutability": "view",
      "type": "function",
      "constant": true
    },
    {
      "inputs": [],
      "name": "owner",
      "outputs": [
        {
          "internalType": "address",
          "name": "",
          "type": "address"
        }
      ],
      "stateMutability": "view",
      "type": "function",
      "constant": true
    },
    {
      "inputs": [
        {
          "internalType": "uint256",
          "name": "",
          "type": "uint256"
        }
      ],
      "name": "proposals",
      "outputs": [
        {
          "internalType": "uint256",
          "name": "value",
          "type": "uint256"
        },
        {
          "internalType": "address",
          "name": "recipient",
          "type": "address"
        },
        {
          "internalType": "uint256",
          "name": "approvalsCount",
          "type": "uint256"
        },
        {
          "internalType": "uint256",
          "name": "disapprovalsCount",
          "type": "uint256"
        },
        {
          "internalType": "enum CrowdfundingCampaign.Status",
          "name": "status",
          "type": "uint8"
        },
        {
          "internalType": "uint256",
          "name": "limitTime",
          "type": "uint256"
        }
      ],
      "stateMutability": "view",
      "type": "function",
      "constant": true
    },
    {
      "inputs": [],
      "name": "status",
      "outputs": [
        {
          "internalType": "enum CrowdfundingCampaign.Status",
          "name": "",
          "type": "uint8"
        }
      ],
      "stateMutability": "view",
      "type": "function",
      "constant": true
    },
    {
      "inputs": [],
      "name": "contribute",
      "outputs": [],
      "stateMutability": "payable",
      "type": "function",
      "payable": true
    },
    {
      "inputs": [],
      "name": "setActive",
      "outputs": [],
      "stateMutability": "nonpayable",
      "type": "function"
    },
    {
      "inputs": [
        {
          "internalType": "bytes32",
          "name": "_ipfshash",
          "type": "bytes32"
        }
      ],
      "name": "saveProgressUpdate",
      "outputs": [],
      "stateMutability": "nonpayable",
      "type": "function"
    },
    {
      "inputs": [
        {
          "internalType": "uint256",
          "name": "_value",
          "type": "uint256"
        },
        {
          "internalType": "address",
          "name": "_recipient",
          "type": "address"
        },
        {
          "internalType": "bytes32",
          "name": "_ipfshash",
          "type": "bytes32"
        }
      ],
      "name": "createProposal",
      "outputs": [],
      "stateMutability": "nonpayable",
      "type": "function"
    },
    {
      "inputs": [
        {
          "internalType": "uint256",
          "name": "_index",
          "type": "uint256"
        }
      ],
      "name": "approveProposal",
      "outputs": [],
      "stateMutability": "nonpayable",
      "type": "function"
    },
    {
      "inputs": [
        {
          "internalType": "uint256",
          "name": "_index",
          "type": "uint256"
        }
      ],
      "name": "disapproveProposal",
      "outputs": [],
      "stateMutability": "nonpayable",
      "type": "function"
    },
    {
      "inputs": [
        {
          "internalType": "uint256",
          "name": "_index",
          "type": "uint256"
        }
      ],
      "name": "closeProposal",
      "outputs": [],
      "stateMutability": "nonpayable",
      "type": "function"
    },
    {
      "inputs": [
        {
          "internalType": "uint256",
          "name": "_index",
          "type": "uint256"
        }
      ],
      "name": "withdraw",
      "outputs": [],
      "stateMutability": "nonpayable",
      "type": "function"
    },
    {
      "inputs": [
        {
          "internalType": "bytes32",
          "name": "_ipfshash",
          "type": "bytes32"
        }
      ],
      "name": "createDestructProposal",
      "outputs": [],
      "stateMutability": "nonpayable",
      "type": "function"
    },
    {
      "inputs": [
        {
          "internalType": "uint256",
          "name": "_index",
          "type": "uint256"
        }
      ],
      "name": "aproveDestructProposal",
      "outputs": [],
      "stateMutability": "nonpayable",
      "type": "function"
    },
    {
      "inputs": [
        {
          "internalType": "uint256",
          "name": "_index",
          "type": "uint256"
        }
      ],
      "name": "disapproveDestructProposal",
      "outputs": [],
      "stateMutability": "nonpayable",
      "type": "function"
    },
    {
      "inputs": [
        {
          "internalType": "uint256",
          "name": "_index",
          "type": "uint256"
        }
      ],
      "name": "closeDestructProposal",
      "outputs": [],
      "stateMutability": "nonpayable",
      "type": "function"
    },
    {
      "inputs": [
        {
          "internalType": "address",
          "name": "_address",
          "type": "address"
        }
      ],
      "name": "isMember",
      "outputs": [
        {
          "internalType": "bool",
          "name": "",
          "type": "bool"
        }
      ],
      "stateMutability": "view",
      "type": "function",
      "constant": true
    },
    {
      "inputs": [],
      "name": "getStatus",
      "outputs": [
        {
          "internalType": "enum CrowdfundingCampaign.Status",
          "name": "",
          "type": "uint8"
        }
      ],
      "stateMutability": "view",
      "type": "function",
      "constant": true
    },
    {
      "inputs": [],
      "name": "getCampaignInfo",
      "outputs": [
        {
          "internalType": "address",
          "name": "",
          "type": "address"
        },
        {
          "internalType": "enum CrowdfundingCampaign.Status",
          "name": "",
          "type": "uint8"
        },
        {
          "internalType": "uint256",
          "name": "",
          "type": "uint256"
        },
        {
          "internalType": "uint256",
          "name": "",
          "type": "uint256"
        },
        {
          "internalType": "uint256",
          "name": "",
          "type": "uint256"
        }
      ],
      "stateMutability": "view",
      "type": "function",
      "constant": true
    },
    {
      "inputs": [
        {
          "internalType": "uint256",
          "name": "_index",
          "type": "uint256"
        }
      ],
      "name": "getProposal",
      "outputs": [
        {
          "internalType": "address",
          "name": "",
          "type": "address"
        },
        {
          "internalType": "uint256",
          "name": "",
          "type": "uint256"
        },
        {
          "internalType": "uint256",
          "name": "",
          "type": "uint256"
        },
        {
          "internalType": "uint256",
          "name": "",
          "type": "uint256"
        },
        {
          "internalType": "enum CrowdfundingCampaign.Status",
          "name": "",
          "type": "uint8"
        },
        {
          "internalType": "uint256",
          "name": "",
          "type": "uint256"
        },
        {
          "internalType": "bool",
          "name": "",
          "type": "bool"
        },
        {
          "internalType": "bool",
          "name": "",
          "type": "bool"
        }
      ],
      "stateMutability": "view",
      "type": "function",
      "constant": true
    },
    {
      "inputs": [
        {
          "internalType": "uint256",
          "name": "_index",
          "type": "uint256"
        }
      ],
      "name": "hasVotedProposal",
      "outputs": [
        {
          "internalType": "bool",
          "name": "",
          "type": "bool"
        }
      ],
      "stateMutability": "view",
      "type": "function",
      "constant": true
    },
    {
      "inputs": [],
      "name": "getProposalsCount",
      "outputs": [
        {
          "internalType": "uint256",
          "name": "",
          "type": "uint256"
        }
      ],
      "stateMutability": "view",
      "type": "function",
      "constant": true
    },
    {
      "inputs": [
        {
          "internalType": "uint256",
          "name": "_index",
          "type": "uint256"
        }
      ],
      "name": "getDestructProposal",
      "outputs": [
        {
          "internalType": "uint256",
          "name": "",
          "type": "uint256"
        },
        {
          "internalType": "uint256",
          "name": "",
          "type": "uint256"
        },
        {
          "internalType": "enum CrowdfundingCampaign.Status",
          "name": "",
          "type": "uint8"
        },
        {
          "internalType": "uint256",
          "name": "",
          "type": "uint256"
        },
        {
          "internalType": "bool",
          "name": "",
          "type": "bool"
        },
        {
          "internalType": "bool",
          "name": "",
          "type": "bool"
        }
      ],
      "stateMutability": "view",
      "type": "function",
      "constant": true
    },
    {
      "inputs": [
        {
          "internalType": "uint256",
          "name": "_index",
          "type": "uint256"
        }
      ],
      "name": "hasVotedDestructProposal",
      "outputs": [
        {
          "internalType": "bool",
          "name": "",
          "type": "bool"
        }
      ],
      "stateMutability": "view",
      "type": "function",
      "constant": true
    },
    {
      "inputs": [],
      "name": "getDestructProposalsCount",
      "outputs": [
        {
          "internalType": "uint256",
          "name": "",
          "type": "uint256"
        }
      ],
      "stateMutability": "view",
      "type": "function",
      "constant": true
    }
  ],
  "bytecode": "0x608060405234801561001057600080fd5b5060405162003684380380620036848339818101604052606081101561003557600080fd5b8101908080519060200190929190805190602001909291908051906020019092919050505033600060016101000a81548173ffffffffffffffffffffffffffffffffffffffff021916908373ffffffffffffffffffffffffffffffffffffffff160217905550816001819055508260028190555060008060006101000a81548160ff021916908360058111156100c757fe5b02179055506000600481905550807f7a0ced2ebfa0348c1bb2ad8b93cccf47c0327bcce7d31ef5bbf1df0963de236e60405160405180910390a250505061357080620001146000396000f3fe6080604052600436106101c25760003560e01c8063923a64fb116100f7578063c8541fe011610095578063e966670a11610064578063e966670a1461089a578063eeda05181461091b578063ef978ecb1461096c578063f049a60c146109a7576101c2565b8063c8541fe01461079c578063d6290cd7146107d7578063d7bb99ba1461083f578063e506972614610849576101c2565b8063a230c524116100d1578063a230c524146105f6578063a7f337151461065d578063b1a6f6a914610688578063c7f758a8146106f7576101c2565b8063923a64fb1461055557806398951b561461059057806398e527d3146105cb576101c2565b80633b047a8f116101645780634e69d5601161013e5780634e69d5601461046257806351c36c1e14610498578063760a8c2a146104fd5780638da5cb5b14610514576101c2565b80633b047a8f1461039757806340193883146103d257806342e94c90146103fd576101c2565b8063200d2ed2116101a0578063200d2ed2146102c0578063297f9af0146102f65780632e1a7d4d146103215780633912fbe51461035c576101c2565b8063013cf08b146101c75780630386a0161461025a5780631ec0b7ba14610295575b600080fd5b3480156101d357600080fd5b50610200600480360360208110156101ea57600080fd5b81019080803590602001909291905050506109e2565b604051808781526020018673ffffffffffffffffffffffffffffffffffffffff16815260200185815260200184815260200183600581111561023e57fe5b8152602001828152602001965050505050505060405180910390f35b34801561026657600080fd5b506102936004803603602081101561027d57600080fd5b8101908080359060200190929190505050610a58565b005b3480156102a157600080fd5b506102aa610da6565b6040518082815260200191505060405180910390f35b3480156102cc57600080fd5b506102d5610db3565b604051808260058111156102e557fe5b815260200191505060405180910390f35b34801561030257600080fd5b5061030b610dc4565b6040518082815260200191505060405180910390f35b34801561032d57600080fd5b5061035a6004803603602081101561034457600080fd5b8101908080359060200190929190505050610dca565b005b34801561036857600080fd5b506103956004803603602081101561037f57600080fd5b81019080803590602001909291905050506110a6565b005b3480156103a357600080fd5b506103d0600480360360208110156103ba57600080fd5b81019080803590602001909291905050506113f4565b005b3480156103de57600080fd5b506103e7611563565b6040518082815260200191505060405180910390f35b34801561040957600080fd5b5061044c6004803603602081101561042057600080fd5b81019080803573ffffffffffffffffffffffffffffffffffffffff169060200190929190505050611569565b6040518082815260200191505060405180910390f35b34801561046e57600080fd5b50610477611581565b6040518082600581111561048757fe5b815260200191505060405180910390f35b3480156104a457600080fd5b506104fb600480360360608110156104bb57600080fd5b8101908080359060200190929190803573ffffffffffffffffffffffffffffffffffffffff16906020019092919080359060200190929190505050611597565b005b34801561050957600080fd5b506105126118a5565b005b34801561052057600080fd5b50610529611a90565b604051808273ffffffffffffffffffffffffffffffffffffffff16815260200191505060405180910390f35b34801561056157600080fd5b5061058e6004803603602081101561057857600080fd5b8101908080359060200190929190505050611ab6565b005b34801561059c57600080fd5b506105c9600480360360208110156105b357600080fd5b8101908080359060200190929190505050611d23565b005b3480156105d757600080fd5b506105e0612123565b6040518082815260200191505060405180910390f35b34801561060257600080fd5b506106456004803603602081101561061957600080fd5b81019080803573ffffffffffffffffffffffffffffffffffffffff169060200190929190505050612130565b60405180821515815260200191505060405180910390f35b34801561066957600080fd5b5061067261217b565b6040518082815260200191505060405180910390f35b34801561069457600080fd5b506106c1600480360360208110156106ab57600080fd5b8101908080359060200190929190505050612181565b604051808581526020018481526020018360058111156106dd57fe5b815260200182815260200194505050505060405180910390f35b34801561070357600080fd5b506107306004803603602081101561071a57600080fd5b81019080803590602001909291905050506121cb565b604051808973ffffffffffffffffffffffffffffffffffffffff16815260200188815260200187815260200186815260200185600581111561076e57fe5b8152602001848152602001831515815260200182151581526020019850505050505050505060405180910390f35b3480156107a857600080fd5b506107d5600480360360208110156107bf57600080fd5b81019080803590602001909291905050506122c0565b005b3480156107e357600080fd5b506107ec6126c0565b604051808673ffffffffffffffffffffffffffffffffffffffff16815260200185600581111561081857fe5b81526020018481526020018381526020018281526020019550505050505060405180910390f35b610847612712565b005b34801561085557600080fd5b506108826004803603602081101561086c57600080fd5b8101908080359060200190929190505050612999565b60405180821515815260200191505060405180910390f35b3480156108a657600080fd5b506108d3600480360360208110156108bd57600080fd5b8101908080359060200190929190505050612a10565b604051808781526020018681526020018560058111156108ef57fe5b815260200184815260200183151581526020018215158152602001965050505050505060405180910390f35b34801561092757600080fd5b506109546004803603602081101561093e57600080fd5b8101908080359060200190929190505050612ad2565b60405180821515815260200191505060405180910390f35b34801561097857600080fd5b506109a56004803603602081101561098f57600080fd5b8101908080359060200190929190505050612b49565b005b3480156109b357600080fd5b506109e0600480360360208110156109ca57600080fd5b8101908080359060200190929190505050612f1d565b005b600581815481106109ef57fe5b90600052602060002090600702016000915090508060000154908060010160009054906101000a900473ffffffffffffffffffffffffffffffffffffffff16908060020154908060030154908060050160009054906101000a900460ff16908060060154905086565b6000600360003373ffffffffffffffffffffffffffffffffffffffff1673ffffffffffffffffffffffffffffffffffffffff168152602001908152602001600020541180610af35750600060019054906101000a900473ffffffffffffffffffffffffffffffffffffffff1673ffffffffffffffffffffffffffffffffffffffff163373ffffffffffffffffffffffffffffffffffffffff16145b610b65576040517f08c379a00000000000000000000000000000000000000000000000000000000081526004018080602001828103825260178152602001807f53656e646572206973206e6f742061206d656d6265722e00000000000000000081525060200191505060405180910390fd5b60036005811115610b7257fe5b60008054906101000a900460ff166005811115610b8b57fe5b14610be1576040517f08c379a00000000000000000000000000000000000000000000000000000000081526004018080602001828103825260228152602001806134536022913960400191505060405180910390fd5b8060036005811115610bef57fe5b60058281548110610bfc57fe5b906000526020600020906007020160050160009054906101000a900460ff166005811115610c2657fe5b14610c7c576040517f08c379a00000000000000000000000000000000000000000000000000000000081526004018080602001828103825260228152602001806135196022913960400191505060405180910390fd5b8160058181548110610c8a57fe5b9060005260206000209060070201600601544211610cf3576040517f08c379a00000000000000000000000000000000000000000000000000000000081526004018080602001828103825260268152602001806134f36026913960400191505060405180910390fd5b600060058481548110610d0257fe5b90600052602060002090600702019050806003015481600201541115610d4d5760018160050160006101000a81548160ff02191690836005811115610d4357fe5b0217905550610d74565b60028160050160006101000a81548160ff02191690836005811115610d6e57fe5b02179055505b7f2e20d5cd32b3aa7244354e7d69d7411ab9a7a120dc27be987fde4a616a0006c560405160405180910390a150505050565b6000600680549050905090565b60008054906101000a900460ff1681565b60045481565b600060019054906101000a900473ffffffffffffffffffffffffffffffffffffffff1673ffffffffffffffffffffffffffffffffffffffff163373ffffffffffffffffffffffffffffffffffffffff1614610e8d576040517f08c379a00000000000000000000000000000000000000000000000000000000081526004018080602001828103825260188152602001807f53656e646572206973206e6f7420746865206f776e65722e000000000000000081525060200191505060405180910390fd5b60036005811115610e9a57fe5b60008054906101000a900460ff166005811115610eb357fe5b14610f09576040517f08c379a00000000000000000000000000000000000000000000000000000000081526004018080602001828103825260228152602001806134536022913960400191505060405180910390fd5b8060016005811115610f1757fe5b60058281548110610f2457fe5b906000526020600020906007020160050160009054906101000a900460ff166005811115610f4e57fe5b14610fc1576040517f08c379a000000000000000000000000000000000000000000000000000000000815260040180806020018281038252601d8152602001807f5468652070726f706f73616c206973206e6f7420617070726f7665642e00000081525060200191505060405180910390fd5b600060058381548110610fd057fe5b9060005260206000209060070201905060058160050160006101000a81548160ff0219169083600581111561100157fe5b02179055508060010160009054906101000a900473ffffffffffffffffffffffffffffffffffffffff1673ffffffffffffffffffffffffffffffffffffffff166108fc82600001549081150290604051600060405180830381858888f19350505050158015611074573d6000803e3d6000fd5b507fc75929ff035b39d8b3933294d0f2f4d5626edbd9b146114978c8ef2904159e5360405160405180910390a1505050565b6000600360003373ffffffffffffffffffffffffffffffffffffffff1673ffffffffffffffffffffffffffffffffffffffff1681526020019081526020016000205411806111415750600060019054906101000a900473ffffffffffffffffffffffffffffffffffffffff1673ffffffffffffffffffffffffffffffffffffffff163373ffffffffffffffffffffffffffffffffffffffff16145b6111b3576040517f08c379a00000000000000000000000000000000000000000000000000000000081526004018080602001828103825260178152602001807f53656e646572206973206e6f742061206d656d6265722e00000000000000000081525060200191505060405180910390fd5b600360058111156111c057fe5b60008054906101000a900460ff1660058111156111d957fe5b1461122f576040517f08c379a00000000000000000000000000000000000000000000000000000000081526004018080602001828103825260228152602001806134536022913960400191505060405180910390fd5b806003600581111561123d57fe5b6006828154811061124a57fe5b906000526020600020906006020160040160009054906101000a900460ff16600581111561127457fe5b146112ca576040517f08c379a000000000000000000000000000000000000000000000000000000000815260040180806020018281038252602b8152602001806133e5602b913960400191505060405180910390fd5b81600681815481106112d857fe5b9060005260206000209060060201600501544211611341576040517f08c379a000000000000000000000000000000000000000000000000000000000815260040180806020018281038252602f8152602001806133b6602f913960400191505060405180910390fd5b60006006848154811061135057fe5b9060005260206000209060060201905080600101548160000154111561139b5760018160040160006101000a81548160ff0219169083600581111561139157fe5b02179055506113c2565b60028160040160006101000a81548160ff021916908360058111156113bc57fe5b02179055505b7f51555d6e6fc56ffb6d8e28c9129f22ceabaa8b290219efa9cba8704908046df760405160405180910390a150505050565b600060019054906101000a900473ffffffffffffffffffffffffffffffffffffffff1673ffffffffffffffffffffffffffffffffffffffff163373ffffffffffffffffffffffffffffffffffffffff16146114b7576040517f08c379a00000000000000000000000000000000000000000000000000000000081526004018080602001828103825260188152602001807f53656e646572206973206e6f7420746865206f776e65722e000000000000000081525060200191505060405180910390fd5b600360058111156114c457fe5b60008054906101000a900460ff1660058111156114dd57fe5b14611533576040517f08c379a00000000000000000000000000000000000000000000000000000000081526004018080602001828103825260228152602001806134536022913960400191505060405180910390fd5b807f47aac9c0b41a2c10c090f2fb431f4ca2fffb55452918ebc47f7b4b160b178b5560405160405180910390a250565b60015481565b60036020528060005260406000206000915090505481565b60008060009054906101000a900460ff16905090565b600060019054906101000a900473ffffffffffffffffffffffffffffffffffffffff1673ffffffffffffffffffffffffffffffffffffffff163373ffffffffffffffffffffffffffffffffffffffff161461165a576040517f08c379a00000000000000000000000000000000000000000000000000000000081526004018080602001828103825260188152602001807f53656e646572206973206e6f7420746865206f776e65722e000000000000000081525060200191505060405180910390fd5b6003600581111561166757fe5b60008054906101000a900460ff16600581111561168057fe5b146116d6576040517f08c379a00000000000000000000000000000000000000000000000000000000081526004018080602001828103825260228152602001806134536022913960400191505060405180910390fd5b8247101561174c576040517f08c379a000000000000000000000000000000000000000000000000000000000815260040180806020018281038252601b8152602001807f54686520666f756e64732061726520696e73756666696369656e74000000000081525060200191505060405180910390fd5b6117546132f1565b6040518060c001604052808581526020018473ffffffffffffffffffffffffffffffffffffffff16815260200160008152602001600081526020016003600581111561179c57fe5b815260200162093a804201815250905060058190806001815401808255809150506001900390600052602060002090600702016000909190919091506000820151816000015560208201518160010160006101000a81548173ffffffffffffffffffffffffffffffffffffffff021916908373ffffffffffffffffffffffffffffffffffffffff160217905550604082015181600201556060820151816003015560808201518160050160006101000a81548160ff0219169083600581111561186157fe5b021790555060a082015181600601555050817fdf3af04813197e32521106616bbfaf01af69d2e70f2f872720142b52953414e360405160405180910390a250505050565b600060019054906101000a900473ffffffffffffffffffffffffffffffffffffffff1673ffffffffffffffffffffffffffffffffffffffff163373ffffffffffffffffffffffffffffffffffffffff1614611968576040517f08c379a00000000000000000000000000000000000000000000000000000000081526004018080602001828103825260188152602001807f53656e646572206973206e6f7420746865206f776e65722e000000000000000081525060200191505060405180910390fd5b6000600581111561197557fe5b60008054906101000a900460ff16600581111561198e57fe5b146119e4576040517f08c379a00000000000000000000000000000000000000000000000000000000081526004018080602001828103825260238152602001806134d06023913960400191505060405180910390fd5b600154471015611a3f576040517f08c379a00000000000000000000000000000000000000000000000000000000081526004018080602001828103825260228152602001806134316022913960400191505060405180910390fd5b60036000806101000a81548160ff02191690836005811115611a5d57fe5b02179055507f91eece65bbb3195524f803743167f72997d625af1d1698c2eff3d0a54e22945c60405160405180910390a1565b600060019054906101000a900473ffffffffffffffffffffffffffffffffffffffff1681565b6000600360003373ffffffffffffffffffffffffffffffffffffffff1673ffffffffffffffffffffffffffffffffffffffff168152602001908152602001600020541180611b515750600060019054906101000a900473ffffffffffffffffffffffffffffffffffffffff1673ffffffffffffffffffffffffffffffffffffffff163373ffffffffffffffffffffffffffffffffffffffff16145b611bc3576040517f08c379a00000000000000000000000000000000000000000000000000000000081526004018080602001828103825260178152602001807f53656e646572206973206e6f742061206d656d6265722e00000000000000000081525060200191505060405180910390fd5b60036005811115611bd057fe5b60008054906101000a900460ff166005811115611be957fe5b14611c3f576040517f08c379a00000000000000000000000000000000000000000000000000000000081526004018080602001828103825260228152602001806134536022913960400191505060405180910390fd5b611c47613348565b6040518060800160405280600081526020016000815260200160036005811115611c6d57fe5b815260200162093a80420181525090506006819080600181540180825580915050600190039060005260206000209060060201600090919091909150600082015181600001556020820151816001015560408201518160040160006101000a81548160ff02191690836005811115611ce157fe5b0217905550606082015181600501555050817fc95a86df0db5b70c1293ecf6809b04b1e69f91ddaa05b8912d28dbf59047755360405160405180910390a25050565b6000600360003373ffffffffffffffffffffffffffffffffffffffff1673ffffffffffffffffffffffffffffffffffffffff168152602001908152602001600020541180611dbe5750600060019054906101000a900473ffffffffffffffffffffffffffffffffffffffff1673ffffffffffffffffffffffffffffffffffffffff163373ffffffffffffffffffffffffffffffffffffffff16145b611e30576040517f08c379a00000000000000000000000000000000000000000000000000000000081526004018080602001828103825260178152602001807f53656e646572206973206e6f742061206d656d6265722e00000000000000000081525060200191505060405180910390fd5b60036005811115611e3d57fe5b60008054906101000a900460ff166005811115611e5657fe5b14611eac576040517f08c379a00000000000000000000000000000000000000000000000000000000081526004018080602001828103825260228152602001806134536022913960400191505060405180910390fd5b8060036005811115611eba57fe5b60058281548110611ec757fe5b906000526020600020906007020160050160009054906101000a900460ff166005811115611ef157fe5b14611f47576040517f08c379a00000000000000000000000000000000000000000000000000000000081526004018080602001828103825260228152602001806135196022913960400191505060405180910390fd5b8160058181548110611f5557fe5b906000526020600020906007020160060154421115611fbf576040517f08c379a00000000000000000000000000000000000000000000000000000000081526004018080602001828103825260218152602001806134106021913960400191505060405180910390fd5b600060058481548110611fce57fe5b906000526020600020906007020190508060040160003373ffffffffffffffffffffffffffffffffffffffff1673ffffffffffffffffffffffffffffffffffffffff16815260200190815260200160002060009054906101000a900460ff1615612083576040517f08c379a00000000000000000000000000000000000000000000000000000000081526004018080602001828103825260318152602001806134756031913960400191505060405180910390fd5b60018160040160003373ffffffffffffffffffffffffffffffffffffffff1673ffffffffffffffffffffffffffffffffffffffff16815260200190815260200160002060006101000a81548160ff02191690831515021790555080600201600081548092919060010191905055507f5969cc780297d77eeec2af210cfa3a74f4936710f75c9e4be7be9288ccca7dc560405160405180910390a150505050565b6000600580549050905090565b600080600360008473ffffffffffffffffffffffffffffffffffffffff1673ffffffffffffffffffffffffffffffffffffffff16815260200190815260200160002054119050919050565b60025481565b6006818154811061218e57fe5b90600052602060002090600602016000915090508060000154908060010154908060040160009054906101000a900460ff16908060050154905084565b600080600080600080600080600060058a815481106121e657fe5b9060005260206000209060070201905060008160060154421115905060008260040160003373ffffffffffffffffffffffffffffffffffffffff1673ffffffffffffffffffffffffffffffffffffffff16815260200190815260200160002060009054906101000a900460ff1690508260010160009054906101000a900473ffffffffffffffffffffffffffffffffffffffff168360000154846002015485600301548660050160009054906101000a900460ff16876006015487879a509a509a509a509a509a509a509a50505050919395975091939597565b6000600360003373ffffffffffffffffffffffffffffffffffffffff1673ffffffffffffffffffffffffffffffffffffffff16815260200190815260200160002054118061235b5750600060019054906101000a900473ffffffffffffffffffffffffffffffffffffffff1673ffffffffffffffffffffffffffffffffffffffff163373ffffffffffffffffffffffffffffffffffffffff16145b6123cd576040517f08c379a00000000000000000000000000000000000000000000000000000000081526004018080602001828103825260178152602001807f53656e646572206973206e6f742061206d656d6265722e00000000000000000081525060200191505060405180910390fd5b600360058111156123da57fe5b60008054906101000a900460ff1660058111156123f357fe5b14612449576040517f08c379a00000000000000000000000000000000000000000000000000000000081526004018080602001828103825260228152602001806134536022913960400191505060405180910390fd5b806003600581111561245757fe5b6005828154811061246457fe5b906000526020600020906007020160050160009054906101000a900460ff16600581111561248e57fe5b146124e4576040517f08c379a00000000000000000000000000000000000000000000000000000000081526004018080602001828103825260228152602001806135196022913960400191505060405180910390fd5b81600581815481106124f257fe5b90600052602060002090600702016006015442111561255c576040517f08c379a00000000000000000000000000000000000000000000000000000000081526004018080602001828103825260218152602001806134106021913960400191505060405180910390fd5b60006005848154811061256b57fe5b906000526020600020906007020190508060040160003373ffffffffffffffffffffffffffffffffffffffff1673ffffffffffffffffffffffffffffffffffffffff16815260200190815260200160002060009054906101000a900460ff1615612620576040517f08c379a00000000000000000000000000000000000000000000000000000000081526004018080602001828103825260318152602001806134756031913960400191505060405180910390fd5b60018160040160003373ffffffffffffffffffffffffffffffffffffffff1673ffffffffffffffffffffffffffffffffffffffff16815260200190815260200160002060006101000a81548160ff02191690831515021790555080600301600081548092919060010191905055507f5969cc780297d77eeec2af210cfa3a74f4936710f75c9e4be7be9288ccca7dc560405160405180910390a150505050565b60008060008060008060019054906101000a900473ffffffffffffffffffffffffffffffffffffffff1660008054906101000a900460ff16600154600254600454945094509450945094509091929394565b6000600360003373ffffffffffffffffffffffffffffffffffffffff1673ffffffffffffffffffffffffffffffffffffffff168152602001908152602001600020541480156127af5750600060019054906101000a900473ffffffffffffffffffffffffffffffffffffffff1673ffffffffffffffffffffffffffffffffffffffff163373ffffffffffffffffffffffffffffffffffffffff1614155b612821576040517f08c379a000000000000000000000000000000000000000000000000000000000815260040180806020018281038252601b8152602001807f53656e64657220697320616c72656164792061206d656d6265722e000000000081525060200191505060405180910390fd5b6000600581111561282e57fe5b60008054906101000a900460ff16600581111561284757fe5b1461289d576040517f08c379a00000000000000000000000000000000000000000000000000000000081526004018080602001828103825260238152602001806134d06023913960400191505060405180910390fd5b600254341015612915576040517f08c379a000000000000000000000000000000000000000000000000000000000815260040180806020018281038252601f8152602001807f54686520636f6e747269627574696f6e20697320696e737566696369656e740081525060200191505060405180910390fd5b34600360003373ffffffffffffffffffffffffffffffffffffffff1673ffffffffffffffffffffffffffffffffffffffff168152602001908152602001600020819055506004600081548092919060010191905055507f645665e8674f75953a5c3a468125fb84ae3b8b3fa0fcec823b34b6421cd800ca60405160405180910390a1565b600080600683815481106129a957fe5b906000526020600020906006020190508060020160003373ffffffffffffffffffffffffffffffffffffffff1673ffffffffffffffffffffffffffffffffffffffff16815260200190815260200160002060009054906101000a900460ff16915050919050565b600080600080600080600060068881548110612a2857fe5b9060005260206000209060060201905060008160050154421115905060008260020160003373ffffffffffffffffffffffffffffffffffffffff1673ffffffffffffffffffffffffffffffffffffffff16815260200190815260200160002060009054906101000a900460ff169050826000015483600101548460040160009054906101000a900460ff168560050154858598509850985098509850985050505091939550919395565b60008060058381548110612ae257fe5b906000526020600020906007020190508060040160003373ffffffffffffffffffffffffffffffffffffffff1673ffffffffffffffffffffffffffffffffffffffff16815260200190815260200160002060009054906101000a900460ff16915050919050565b6000600360003373ffffffffffffffffffffffffffffffffffffffff1673ffffffffffffffffffffffffffffffffffffffff168152602001908152602001600020541180612be45750600060019054906101000a900473ffffffffffffffffffffffffffffffffffffffff1673ffffffffffffffffffffffffffffffffffffffff163373ffffffffffffffffffffffffffffffffffffffff16145b612c56576040517f08c379a00000000000000000000000000000000000000000000000000000000081526004018080602001828103825260178152602001807f53656e646572206973206e6f742061206d656d6265722e00000000000000000081525060200191505060405180910390fd5b60036005811115612c6357fe5b60008054906101000a900460ff166005811115612c7c57fe5b14612cd2576040517f08c379a00000000000000000000000000000000000000000000000000000000081526004018080602001828103825260228152602001806134536022913960400191505060405180910390fd5b8060036005811115612ce057fe5b60068281548110612ced57fe5b906000526020600020906006020160040160009054906101000a900460ff166005811115612d1757fe5b14612d6d576040517f08c379a000000000000000000000000000000000000000000000000000000000815260040180806020018281038252602b8152602001806133e5602b913960400191505060405180910390fd5b8160068181548110612d7b57fe5b906000526020600020906006020160050154421115612de5576040517f08c379a000000000000000000000000000000000000000000000000000000000815260040180806020018281038252602a8152602001806134a6602a913960400191505060405180910390fd5b600060068481548110612df457fe5b906000526020600020906006020190508060020160003373ffffffffffffffffffffffffffffffffffffffff1673ffffffffffffffffffffffffffffffffffffffff16815260200190815260200160002060009054906101000a900460ff1615612ea9576040517f08c379a000000000000000000000000000000000000000000000000000000000815260040180806020018281038252603a81526020018061337c603a913960400191505060405180910390fd5b60018160020160003373ffffffffffffffffffffffffffffffffffffffff1673ffffffffffffffffffffffffffffffffffffffff16815260200190815260200160002060006101000a81548160ff021916908315150217905550806001016000815480929190600101919050555050505050565b6000600360003373ffffffffffffffffffffffffffffffffffffffff1673ffffffffffffffffffffffffffffffffffffffff168152602001908152602001600020541180612fb85750600060019054906101000a900473ffffffffffffffffffffffffffffffffffffffff1673ffffffffffffffffffffffffffffffffffffffff163373ffffffffffffffffffffffffffffffffffffffff16145b61302a576040517f08c379a00000000000000000000000000000000000000000000000000000000081526004018080602001828103825260178152602001807f53656e646572206973206e6f742061206d656d6265722e00000000000000000081525060200191505060405180910390fd5b6003600581111561303757fe5b60008054906101000a900460ff16600581111561305057fe5b146130a6576040517f08c379a00000000000000000000000000000000000000000000000000000000081526004018080602001828103825260228152602001806134536022913960400191505060405180910390fd5b80600360058111156130b457fe5b600682815481106130c157fe5b906000526020600020906006020160040160009054906101000a900460ff1660058111156130eb57fe5b14613141576040517f08c379a000000000000000000000000000000000000000000000000000000000815260040180806020018281038252602b8152602001806133e5602b913960400191505060405180910390fd5b816006818154811061314f57fe5b9060005260206000209060060201600501544211156131b9576040517f08c379a000000000000000000000000000000000000000000000000000000000815260040180806020018281038252602a8152602001806134a6602a913960400191505060405180910390fd5b6000600684815481106131c857fe5b906000526020600020906006020190508060020160003373ffffffffffffffffffffffffffffffffffffffff1673ffffffffffffffffffffffffffffffffffffffff16815260200190815260200160002060009054906101000a900460ff161561327d576040517f08c379a000000000000000000000000000000000000000000000000000000000815260040180806020018281038252603a81526020018061337c603a913960400191505060405180910390fd5b60018160020160003373ffffffffffffffffffffffffffffffffffffffff1673ffffffffffffffffffffffffffffffffffffffff16815260200190815260200160002060006101000a81548160ff021916908315150217905550806000016000815480929190600101919050555050505050565b6040518060c0016040528060008152602001600073ffffffffffffffffffffffffffffffffffffffff16815260200160008152602001600081526020016000600581111561333b57fe5b8152602001600081525090565b604051806080016040528060008152602001600081526020016000600581111561336e57fe5b815260200160008152509056fe5468652064657374727563742070726f706f73616c20686173206265656e20616c726561647920766f746564206279207468652073656e6465725468652064657374727563742070726f706f73616c206973207374696c6c206f70656e20666f7220766f74696e672e5468652064657374727563742070726f706f73616c206973206e6f74206c6f6e676572206163746976652e5468652070726f706f73616c20697320636c6f736520666f7220766f74696e672e54686520636f6e747269627574696f6e732061726520696e73756666696369656e745468652063616d706169676e20737461747573206973206e6f74206163746976652e5468652070726f706f73616c20686173206265656e20616c726561647920766f746564206279207468652073656e6465725468652064657374727563742070726f706f73616c20697320636c6f736520666f7220766f74696e672e5468652063616d706169676e20737461747573206973206e6f7420637265617465642e5468652070726f706f73616c206973207374696c6c206f70656e20666f7220766f74696e672e5468652070726f706f73616c206973206e6f74206c6f6e676572206163746976652ea2646970667358221220fedb8efc00dd7435f73c65d1f63bea1a2b7acfc89b3fe18c0dd0e2e27ba27cd864736f6c634300060c0033",
  "immutableReferences": {},
  "source": "pragma solidity ^0.6.0;\n\ncontract CrowdfundingCampaign {\n\n    /* Enums */\n\n    enum Status { CREATED, APPROVED, DISAPPROVED, ACTIVE, DESTROYED, SUCCESSFUL }\n\n    \n    /* Structs */\n\n    /** @dev Struct proposal\n        This struct represents the proposals that only owner can make to get more founds.\n    **/\n    struct Proposal {\n        uint value;\n        address recipient;\n        uint approvalsCount;\n        uint disapprovalsCount;\n        mapping(address => bool) voters;\n        Status status;\n        uint limitTime;\n    }\n\n    /** @dev Struct destruct proposal\n        This struct represents the proposal that members can make to get their founds back.\n    **/\n    struct DestructProposal {\n        uint approvalsCount;\n        uint disapprovalsCount;\n        mapping(address => bool) voters;\n        mapping(address => bool) withdraws;\n        Status status;\n        uint limitTime;\n    }\n\n    /* Storage */\n\n    Status public status;\n    address public owner;\n    uint public goal;\n    uint public minimunContribution;\n    mapping(address => uint) public contributions;\n    uint public membersCount;\n    Proposal[] public proposals;\n    DestructProposal[] public destructProposals;\n    \n\n    /** @dev Constructor.\n     *  @param _minimunContribution minimum contribution in wei that a person has to make to become a member.\n     *  @param _goal goal in wei that the proyect has to reach to be succesfull.\n     *  @param _ipfshash The url hash of the campaign data previusly stored in IPFS.\n    **/\n    constructor(uint _minimunContribution, uint _goal, bytes32 _ipfshash) public {\n        owner = msg.sender;\n        goal = _goal;\n        minimunContribution = _minimunContribution;\n        status = Status.CREATED;\n        membersCount = 0;\n\n        emit campaignCreated(_ipfshash);\n    }\n\n\n    /* Modifiers */\n\n    modifier restricted() { require(msg.sender==owner, \"Sender is not the owner.\"); _; }\n\n    modifier membering() { require( (contributions[msg.sender]>0) || (msg.sender == owner), \"Sender is not a member.\"); _; }\n\n    modifier notMembering() { require( (contributions[msg.sender]==0) && (msg.sender != owner) , \"Sender is already a member.\"); _; }\n\n    modifier statusCreated() \n        { require(status == Status.CREATED, \"The campaign status is not created.\"); _; }\n\n    modifier statusActive()\n        { require(status == Status.ACTIVE, \"The campaign status is not active.\"); _; }\n\n    modifier proposalActive(uint _index) \n        { require(proposals[_index].status == Status.ACTIVE, \"The proposal is not longer active.\"); _; }\n\n    modifier proposalApproved(uint _index) \n        { require(proposals[_index].status == Status.APPROVED, \"The proposal is not approved.\" ); _; }\n\n    modifier beInTimeProposal(uint _index)\n        { require (now <= proposals[_index].limitTime, \"The proposal is close for voting.\"); _; }\n\n    modifier passedTimeProposal(uint _index)\n        { require (now > proposals[_index].limitTime, \"The proposal is still open for voting.\"); _; }\n\n    modifier destructProposalActive(uint _index) {\n        require(\n            destructProposals[_index].status == Status.ACTIVE,\n            \"The destruct proposal is not longer active.\");\n        _;\n    }\n\n    modifier destructProposalApproved(uint _index) {\n        require(\n            destructProposals[_index].status == Status.APPROVED,\n            \"The destruct proposal is not approved.\");\n        _;\n    }\n\n    modifier beInTimeDestructProposal(uint _index) { \n        require (now <= destructProposals[_index].limitTime, \"The destruct proposal is close for voting.\"); _; \n    }\n\n    modifier passedTimeDestructProposal(uint _index) { \n        require (now > destructProposals[_index].limitTime, \"The destruct proposal is still open for voting.\"); _; \n    }\n\n\n    /* Events */\n\n    /** @dev Emitted when the author creates the campaign.\n     *  @param _ipfshash The url hash of the campaign data stored in IPFS.\n     */\n    event campaignCreated(bytes32 indexed _ipfshash);\n\n    /** @dev Emitted when a new person contributes with the campaign.\n     */\n    event newContribution();\n\n    /** @dev Emitted when the author creates a proposal to free founds.\n     *  @param _ipfshash The url hash of the proposal data stored in IPFS.\n     */\n    event proposalCreated(bytes32 indexed _ipfshash);\n\n     /** @dev Emitted when a proposal is voted.\n     */\n    event proposalVoted();\n\n    /** @dev Emitted when a proposal is Closed.\n     */\n    event proposalClosed();\n\n    /** @dev Emitted when a proposal was withdraw.\n     */\n    event proposalWithdraw();\n\n     /** @dev Emitted when a member creates a proposal to destruct the campaign and get the founds back.\n     *  @param _ipfshash The url hash of the destruct proposal data stored in IPFS.\n     */\n    event destructProposalCreated(bytes32 indexed _ipfshash);\n\n    /** @dev Emitted when a  destruct proposal is Closed.\n     */\n    event destructProposalClosed();\n\n    /** @dev Emitted when the author creates a progress update to show how the proyect is going.\n     *  @param _ipfshash The url hash of the progress update data stored in IPFS.\n     */\n    event progressUpdate(bytes32 indexed _ipfshash);\n\n    /** @dev Emitted when the status of the campaign change.\n     */\n    event changeStatusCampaign();\n\n\n    /* Functions */\n\n    /** @dev Allow not members to contribute with the campaign and be a member of it.\n     */\n    function contribute() public notMembering statusCreated payable {\n        require(msg.value >= minimunContribution, \"The contribution is insuficient\");\n        contributions[msg.sender] = msg.value;\n        membersCount++;\n        emit newContribution();\n    }\n\n    /** @dev Allow only owner to change the status of the cCampaign from CREATED to ACTIVE.\n     */\n    function setActive() public restricted statusCreated {\n        \n        require(address(this).balance >= goal,\"The contributions are insufficient\");\n        status = Status.ACTIVE;\n\n        emit changeStatusCampaign();\n         \n    }\n\n    /** @dev Allow only owner to save a new progress Update data ipfs hash.\n     *  @param _ipfshash url hash of the progress update data (description and pictures) previusly stored in IPFS.\n     */\n    function saveProgressUpdate(bytes32 _ipfshash) \n        public restricted statusActive {\n        emit progressUpdate(_ipfshash); \n    }\n\n    /** @dev Allow only owner to create a new proposal to get more founds.\n     *  @param _value founds in wei that the owner want to withdraw.\n     *  @param _recipient address where the founds are going to be after withdraw them.\n     *  @param _ipfshash url hash of the proposal data (description and pictures) previusly stored in IPFS.\n     */\n    function createProposal(uint _value, address _recipient, bytes32 _ipfshash) \n        public restricted statusActive {\n\n        require(address(this).balance >= _value, \"The founds are insufficient\");\n        \n        Proposal memory newProposal = Proposal({\n            recipient : _recipient,\n            value : _value,\n            approvalsCount : 0,\n            disapprovalsCount: 0,\n            status: Status.ACTIVE,\n            limitTime: now + 604800 // 7 days\n        });\n\n        proposals.push(newProposal);\n        emit proposalCreated(_ipfshash);\n         \n    }\n\n    /** @dev Allow only members to approve an active proposal that they haven't voted before.\n     *  @param _index index of the proposal the member wants to approve.\n     */\n    function approveProposal(uint _index) public membering statusActive proposalActive(_index) beInTimeProposal(_index) {\n\n        Proposal storage proposal = proposals[_index];\n        require(!proposal.voters[msg.sender], \"The proposal has been already voted by the sender\");\n\n        proposal.voters[msg.sender] = true;\n        proposal.approvalsCount++;\n\n        emit proposalVoted();        \n    }\n\n    /** @dev Allow only members to disapprove an active proposal that they haven't voted before.\n     *  @param _index index of the proposal the member wants to disapprove.\n     */\n    function disapproveProposal(uint _index) public membering statusActive proposalActive(_index) beInTimeProposal(_index) {\n\n        Proposal storage proposal = proposals[_index];\n        require(!proposal.voters[msg.sender], \"The proposal has been already voted by the sender\");\n\n        proposal.voters[msg.sender] = true;\n        proposal.disapprovalsCount++;\n        \n        emit proposalVoted();\n    }\n\n    /** @dev Allow only members to close an active proposal that already has its voting time over.\n     *  @param _index index of the proposal the member wants to approve.\n     */\n    function closeProposal(uint _index) public membering statusActive proposalActive(_index) passedTimeProposal(_index) {\n\n        Proposal storage proposal = proposals[_index];\n\n        if (proposal.approvalsCount > proposal.disapprovalsCount) {\n            proposal.status = Status.APPROVED; \n        }\n        else {\n            proposal.status = Status.DISAPPROVED;\n        }\n\n        emit proposalClosed();\n    }\n\n    /** @dev Allow only members to close an active proposal that already has its voting time over.\n     *  @param _index index of the proposal the member wants to approve.\n     */\n    function withdraw(uint _index) public restricted statusActive proposalApproved(_index) {\n\n        Proposal storage proposal = proposals[_index];\n        proposal.status = Status.SUCCESSFUL; \n        payable(proposal.recipient).transfer(proposal.value);\n        \n        emit proposalWithdraw();\n    }\n\n    /** @dev Allow only members to create a new proposal to finish de proyect and get the founds back.\n     *  @param _ipfshash url hash of the destruct proposal data (description) previusly stored in IPFS.\n     */\n    function createDestructProposal(bytes32 _ipfshash) public membering statusActive {\n        \n        DestructProposal memory newDProposal = DestructProposal({\n            approvalsCount : 0,\n            disapprovalsCount: 0,\n            status: Status.ACTIVE,\n            limitTime: now + 604800 // 7 days\n        });\n\n        destructProposals.push(newDProposal);\n        emit destructProposalCreated(_ipfshash);\n         \n    }\n\n    /** @dev Allow only members to approve an active destruct proposal that they haven't voted before.\n     *  @param _index index of the destruct proposal the member wants to approve.\n     */\n    function aproveDestructProposal(uint _index) public membering statusActive destructProposalActive(_index) beInTimeDestructProposal(_index) {\n\n        DestructProposal storage dProposal = destructProposals[_index];\n        require(!dProposal.voters[msg.sender], \"The destruct proposal has been already voted by the sender\");\n\n        dProposal.voters[msg.sender] = true;\n        dProposal.approvalsCount++;\n        \n    }\n\n    /** @dev Allow only members to disapprove an active destruct proposal that they haven't voted before.\n     *  @param _index index of the destruct proposal the member wants to disapprove.\n     */\n    function disapproveDestructProposal(uint _index) public membering statusActive destructProposalActive(_index) beInTimeDestructProposal(_index) {\n\n        DestructProposal storage dProposal = destructProposals[_index];\n        require(!dProposal.voters[msg.sender], \"The destruct proposal has been already voted by the sender\");\n\n        dProposal.voters[msg.sender] = true;\n        dProposal.disapprovalsCount++;\n        \n    }\n\n    /** @dev Allow only members to close an active proposal that already has its voting time over.\n     *  @param _index index of the proposal the member wants to approve.\n     */\n    function closeDestructProposal(uint _index) public membering statusActive destructProposalActive(_index) passedTimeDestructProposal(_index) {\n\n        DestructProposal storage dProposal = destructProposals[_index];\n\n        if (dProposal.approvalsCount > dProposal.disapprovalsCount) {\n            dProposal.status = Status.APPROVED; \n        }\n        else {\n            dProposal.status = Status.DISAPPROVED;\n        }\n\n        emit destructProposalClosed();\n    }\n\n     /* Aux functions */\n\n    /** @dev Function to return if someone is member.\n     */\n    function isMember(address _address) public view returns (bool) {\n        return contributions[_address]>0;\n    }\n\n    /** @dev Function to get the actual status of the campaign.\n     */\n    function getStatus() public view returns (Status) {\n        return status;\n    }\n\n    /** @dev Function to get the data of the campaign\n     */\n    function getCampaignInfo() public view returns (address, Status, uint, uint, uint ) {\n        return (owner, status, goal, minimunContribution, membersCount);\n    } \n\n    /** @dev Function to get the data of a proposal.\n     *  @param _index index of the proposal to return\n     */\n    function getProposal(uint _index) public view returns (address, uint, uint, uint, Status, uint, bool, bool) {\n        Proposal storage proposal = proposals[_index];\n        bool inTime = now <= proposal.limitTime;\n        bool senderHasVote = proposal.voters[msg.sender];\n        return (proposal.recipient, proposal.value, proposal.approvalsCount, proposal.disapprovalsCount, proposal.status, proposal.limitTime, inTime, senderHasVote);\n    } \n\n     /** @dev Function to know if a member has already vot a proposal.\n     *  @param _index index of the proposal\n     */\n    function hasVotedProposal(uint _index) public view returns (bool) {\n        Proposal storage proposal = proposals[_index];\n        return proposal.voters[msg.sender];\n    } \n\n    /** @dev Function to get the total number of proposals.\n     */\n    function getProposalsCount() public view returns (uint) {\n        return proposals.length;\n    }\n\n     /** @dev Function to get the data of destruct proposal.\n     *  @param _index index of the destruct proposal to return\n     */\n    function getDestructProposal(uint _index) public view returns (uint, uint, Status, uint, bool, bool) {\n        DestructProposal storage dProposal = destructProposals[_index];\n        bool inTime = now <= dProposal.limitTime;\n        bool senderHasVote = dProposal.voters[msg.sender];\n        return (dProposal.approvalsCount, dProposal.disapprovalsCount, dProposal.status, dProposal.limitTime, inTime, senderHasVote);\n    } \n\n    /** @dev Function to know if a member has already vot a destruct proposal.\n     *  @param _index index of the proposal\n     */\n    function hasVotedDestructProposal(uint _index) public view returns (bool) {\n        DestructProposal storage dProposal = destructProposals[_index];\n        return dProposal.voters[msg.sender];\n    } \n\n    /** @dev Function to get the total number of destruct proposals.\n     */\n    function getDestructProposalsCount() public view returns (uint) {\n        return destructProposals.length;\n    }\n   \n}",
  "sourcePath": "/home/tati/Desktop/personal/Tesina/semideas-crowdfunding/contracts/CrowdfundingCampaign.sol",
  "compiler": {
    "name": "solc",
    "version": "0.6.12+commit.27d51765.Emscripten.clang"
  },
  "schemaVersion": "3.4.1",
  "updatedAt": "2021-07-05T18:59:32.168Z",
  "networkType": "ethereum",
  "devdoc": {
    "events": {
      "campaignCreated(bytes32)": {
        "details": "Emitted when the author creates the campaign.",
        "params": {
          "_ipfshash": "The url hash of the campaign data stored in IPFS."
        }
      },
      "changeStatusCampaign()": {
        "details": "Emitted when the status of the campaign change."
      },
      "destructProposalClosed()": {
        "details": "Emitted when a  destruct proposal is Closed."
      },
      "destructProposalCreated(bytes32)": {
        "details": "Emitted when a member creates a proposal to destruct the campaign and get the founds back.",
        "params": {
          "_ipfshash": "The url hash of the destruct proposal data stored in IPFS."
        }
      },
      "newContribution()": {
        "details": "Emitted when a new person contributes with the campaign."
      },
      "progressUpdate(bytes32)": {
        "details": "Emitted when the author creates a progress update to show how the proyect is going.",
        "params": {
          "_ipfshash": "The url hash of the progress update data stored in IPFS."
        }
      },
      "proposalClosed()": {
        "details": "Emitted when a proposal is Closed."
      },
      "proposalCreated(bytes32)": {
        "details": "Emitted when the author creates a proposal to free founds.",
        "params": {
          "_ipfshash": "The url hash of the proposal data stored in IPFS."
        }
      },
      "proposalVoted()": {
        "details": "Emitted when a proposal is voted."
      },
      "proposalWithdraw()": {
        "details": "Emitted when a proposal was withdraw."
      }
    },
    "kind": "dev",
    "methods": {
      "approveProposal(uint256)": {
        "details": "Allow only members to approve an active proposal that they haven't voted before.",
        "params": {
          "_index": "index of the proposal the member wants to approve."
        }
      },
      "aproveDestructProposal(uint256)": {
        "details": "Allow only members to approve an active destruct proposal that they haven't voted before.",
        "params": {
          "_index": "index of the destruct proposal the member wants to approve."
        }
      },
      "closeDestructProposal(uint256)": {
        "details": "Allow only members to close an active proposal that already has its voting time over.",
        "params": {
          "_index": "index of the proposal the member wants to approve."
        }
      },
      "closeProposal(uint256)": {
        "details": "Allow only members to close an active proposal that already has its voting time over.",
        "params": {
          "_index": "index of the proposal the member wants to approve."
        }
      },
      "constructor": {
        "details": "Constructor.",
        "params": {
          "_goal": "goal in wei that the proyect has to reach to be succesfull.",
          "_ipfshash": "The url hash of the campaign data previusly stored in IPFS.*",
          "_minimunContribution": "minimum contribution in wei that a person has to make to become a member."
        }
      },
      "contribute()": {
        "details": "Allow not members to contribute with the campaign and be a member of it."
      },
      "createDestructProposal(bytes32)": {
        "details": "Allow only members to create a new proposal to finish de proyect and get the founds back.",
        "params": {
          "_ipfshash": "url hash of the destruct proposal data (description) previusly stored in IPFS."
        }
      },
      "createProposal(uint256,address,bytes32)": {
        "details": "Allow only owner to create a new proposal to get more founds.",
        "params": {
          "_ipfshash": "url hash of the proposal data (description and pictures) previusly stored in IPFS.",
          "_recipient": "address where the founds are going to be after withdraw them.",
          "_value": "founds in wei that the owner want to withdraw."
        }
      },
      "disapproveDestructProposal(uint256)": {
        "details": "Allow only members to disapprove an active destruct proposal that they haven't voted before.",
        "params": {
          "_index": "index of the destruct proposal the member wants to disapprove."
        }
      },
      "disapproveProposal(uint256)": {
        "details": "Allow only members to disapprove an active proposal that they haven't voted before.",
        "params": {
          "_index": "index of the proposal the member wants to disapprove."
        }
      },
      "getCampaignInfo()": {
        "details": "Function to get the data of the campaign"
      },
      "getDestructProposal(uint256)": {
        "details": "Function to get the data of destruct proposal.",
        "params": {
          "_index": "index of the destruct proposal to return"
        }
      },
      "getDestructProposalsCount()": {
        "details": "Function to get the total number of destruct proposals."
      },
      "getProposal(uint256)": {
        "details": "Function to get the data of a proposal.",
        "params": {
          "_index": "index of the proposal to return"
        }
      },
      "getProposalsCount()": {
        "details": "Function to get the total number of proposals."
      },
      "getStatus()": {
        "details": "Function to get the actual status of the campaign."
      },
      "hasVotedDestructProposal(uint256)": {
        "details": "Function to know if a member has already vot a destruct proposal.",
        "params": {
          "_index": "index of the proposal"
        }
      },
      "hasVotedProposal(uint256)": {
        "details": "Function to know if a member has already vot a proposal.",
        "params": {
          "_index": "index of the proposal"
        }
      },
      "isMember(address)": {
        "details": "Function to return if someone is member."
      },
      "saveProgressUpdate(bytes32)": {
        "details": "Allow only owner to save a new progress Update data ipfs hash.",
        "params": {
          "_ipfshash": "url hash of the progress update data (description and pictures) previusly stored in IPFS."
        }
      },
      "setActive()": {
        "details": "Allow only owner to change the status of the cCampaign from CREATED to ACTIVE."
      },
      "withdraw(uint256)": {
        "details": "Allow only members to close an active proposal that already has its voting time over.",
        "params": {
          "_index": "index of the proposal the member wants to approve."
        }
      }
    },
    "version": 1
  },
  "userdoc": {
    "kind": "user",
    "methods": {},
    "version": 1
  }
}