{
  "contractName": "CrowdfundingCampaignDemo",
  "abi": [
    {
      "inputs": [
        {
          "internalType": "uint256",
          "name": "_minimunContribution",
          "type": "uint256"
        },
        {
          "internalType": "uint256",
          "name": "_goal",
          "type": "uint256"
        },
        {
          "internalType": "bytes32",
          "name": "_ipfshash",
          "type": "bytes32"
        }
      ],
      "stateMutability": "nonpayable",
      "type": "constructor"
    },
    {
      "anonymous": false,
      "inputs": [
        {
          "indexed": false,
          "internalType": "bytes32",
          "name": "_ipfshash",
          "type": "bytes32"
        }
      ],
      "name": "CampaignCreated",
      "type": "event"
    },
    {
      "anonymous": false,
      "inputs": [],
      "name": "ChangeStatusCampaign",
      "type": "event"
    },
    {
      "anonymous": false,
      "inputs": [
        {
          "indexed": false,
          "internalType": "uint256",
          "name": "_index",
          "type": "uint256"
        }
      ],
      "name": "DestructProposalClosed",
      "type": "event"
    },
    {
      "anonymous": false,
      "inputs": [
        {
          "indexed": false,
          "internalType": "bytes32",
          "name": "_ipfshash",
          "type": "bytes32"
        }
      ],
      "name": "DestructProposalCreated",
      "type": "event"
    },
    {
      "anonymous": false,
      "inputs": [],
      "name": "NewContribution",
      "type": "event"
    },
    {
      "anonymous": false,
      "inputs": [
        {
          "indexed": false,
          "internalType": "bytes32",
          "name": "_ipfshash",
          "type": "bytes32"
        }
      ],
      "name": "ProgressUpdate",
      "type": "event"
    },
    {
      "anonymous": false,
      "inputs": [
        {
          "indexed": false,
          "internalType": "uint256",
          "name": "_index",
          "type": "uint256"
        }
      ],
      "name": "ProposalClosed",
      "type": "event"
    },
    {
      "anonymous": false,
      "inputs": [
        {
          "indexed": false,
          "internalType": "bytes32",
          "name": "_ipfshash",
          "type": "bytes32"
        }
      ],
      "name": "ProposalCreated",
      "type": "event"
    },
    {
      "anonymous": false,
      "inputs": [
        {
          "indexed": false,
          "internalType": "uint256",
          "name": "_index",
          "type": "uint256"
        }
      ],
      "name": "ProposalVoted",
      "type": "event"
    },
    {
      "anonymous": false,
      "inputs": [
        {
          "indexed": false,
          "internalType": "uint256",
          "name": "_index",
          "type": "uint256"
        }
      ],
      "name": "ProposalWithdraw",
      "type": "event"
    },
    {
      "inputs": [
        {
          "internalType": "uint256",
          "name": "_index",
          "type": "uint256"
        }
      ],
      "name": "approveProposal",
      "outputs": [],
      "stateMutability": "nonpayable",
      "type": "function"
    },
    {
      "inputs": [
        {
          "internalType": "uint256",
          "name": "_index",
          "type": "uint256"
        }
      ],
      "name": "aproveDestructProposal",
      "outputs": [],
      "stateMutability": "nonpayable",
      "type": "function"
    },
    {
      "inputs": [
        {
          "internalType": "uint256",
          "name": "_index",
          "type": "uint256"
        }
      ],
      "name": "closeDestructProposal",
      "outputs": [],
      "stateMutability": "nonpayable",
      "type": "function"
    },
    {
      "inputs": [
        {
          "internalType": "uint256",
          "name": "_index",
          "type": "uint256"
        }
      ],
      "name": "closeProposal",
      "outputs": [],
      "stateMutability": "nonpayable",
      "type": "function"
    },
    {
      "inputs": [],
      "name": "contribute",
      "outputs": [],
      "stateMutability": "payable",
      "type": "function"
    },
    {
      "inputs": [
        {
          "internalType": "address",
          "name": "",
          "type": "address"
        }
      ],
      "name": "contributions",
      "outputs": [
        {
          "internalType": "uint256",
          "name": "",
          "type": "uint256"
        }
      ],
      "stateMutability": "view",
      "type": "function"
    },
    {
      "inputs": [
        {
          "internalType": "bytes32",
          "name": "_ipfshash",
          "type": "bytes32"
        }
      ],
      "name": "createDestructProposal",
      "outputs": [],
      "stateMutability": "nonpayable",
      "type": "function"
    },
    {
      "inputs": [
        {
          "internalType": "uint256",
          "name": "_value",
          "type": "uint256"
        },
        {
          "internalType": "address",
          "name": "_recipient",
          "type": "address"
        },
        {
          "internalType": "bytes32",
          "name": "_ipfshash",
          "type": "bytes32"
        }
      ],
      "name": "createProposal",
      "outputs": [],
      "stateMutability": "nonpayable",
      "type": "function"
    },
    {
      "inputs": [
        {
          "internalType": "uint256",
          "name": "",
          "type": "uint256"
        }
      ],
      "name": "destructProposals",
      "outputs": [
        {
          "internalType": "uint256",
          "name": "approvalsCount",
          "type": "uint256"
        },
        {
          "internalType": "uint256",
          "name": "disapprovalsCount",
          "type": "uint256"
        },
        {
          "internalType": "enum CrowdfundingCampaign.ProposalStatus",
          "name": "status",
          "type": "uint8"
        },
        {
          "internalType": "uint256",
          "name": "limitTime",
          "type": "uint256"
        }
      ],
      "stateMutability": "view",
      "type": "function"
    },
    {
      "inputs": [
        {
          "internalType": "uint256",
          "name": "_index",
          "type": "uint256"
        }
      ],
      "name": "disapproveDestructProposal",
      "outputs": [],
      "stateMutability": "nonpayable",
      "type": "function"
    },
    {
      "inputs": [
        {
          "internalType": "uint256",
          "name": "_index",
          "type": "uint256"
        }
      ],
      "name": "disapproveProposal",
      "outputs": [],
      "stateMutability": "nonpayable",
      "type": "function"
    },
    {
      "inputs": [],
      "name": "getCampaignInfo",
      "outputs": [
        {
          "internalType": "address",
          "name": "",
          "type": "address"
        },
        {
          "internalType": "enum CrowdfundingCampaign.CampaignStatus",
          "name": "",
          "type": "uint8"
        },
        {
          "internalType": "uint256",
          "name": "",
          "type": "uint256"
        },
        {
          "internalType": "uint256",
          "name": "",
          "type": "uint256"
        },
        {
          "internalType": "uint256",
          "name": "",
          "type": "uint256"
        }
      ],
      "stateMutability": "view",
      "type": "function"
    },
    {
      "inputs": [
        {
          "internalType": "uint256",
          "name": "_index",
          "type": "uint256"
        }
      ],
      "name": "getDestructProposal",
      "outputs": [
        {
          "internalType": "uint256",
          "name": "",
          "type": "uint256"
        },
        {
          "internalType": "uint256",
          "name": "",
          "type": "uint256"
        },
        {
          "internalType": "enum CrowdfundingCampaign.ProposalStatus",
          "name": "",
          "type": "uint8"
        },
        {
          "internalType": "uint256",
          "name": "",
          "type": "uint256"
        },
        {
          "internalType": "bool",
          "name": "",
          "type": "bool"
        },
        {
          "internalType": "bool",
          "name": "",
          "type": "bool"
        }
      ],
      "stateMutability": "view",
      "type": "function"
    },
    {
      "inputs": [],
      "name": "getDestructProposalsCount",
      "outputs": [
        {
          "internalType": "uint256",
          "name": "",
          "type": "uint256"
        }
      ],
      "stateMutability": "view",
      "type": "function"
    },
    {
      "inputs": [
        {
          "internalType": "uint256",
          "name": "_index",
          "type": "uint256"
        }
      ],
      "name": "getProposal",
      "outputs": [
        {
          "internalType": "address",
          "name": "",
          "type": "address"
        },
        {
          "internalType": "uint256",
          "name": "",
          "type": "uint256"
        },
        {
          "internalType": "uint256",
          "name": "",
          "type": "uint256"
        },
        {
          "internalType": "uint256",
          "name": "",
          "type": "uint256"
        },
        {
          "internalType": "enum CrowdfundingCampaign.ProposalStatus",
          "name": "",
          "type": "uint8"
        },
        {
          "internalType": "uint256",
          "name": "",
          "type": "uint256"
        },
        {
          "internalType": "bool",
          "name": "",
          "type": "bool"
        },
        {
          "internalType": "bool",
          "name": "",
          "type": "bool"
        }
      ],
      "stateMutability": "view",
      "type": "function"
    },
    {
      "inputs": [],
      "name": "getProposalsCount",
      "outputs": [
        {
          "internalType": "uint256",
          "name": "",
          "type": "uint256"
        }
      ],
      "stateMutability": "view",
      "type": "function"
    },
    {
      "inputs": [],
      "name": "getStatus",
      "outputs": [
        {
          "internalType": "enum CrowdfundingCampaign.CampaignStatus",
          "name": "",
          "type": "uint8"
        }
      ],
      "stateMutability": "view",
      "type": "function"
    },
    {
      "inputs": [],
      "name": "goal",
      "outputs": [
        {
          "internalType": "uint256",
          "name": "",
          "type": "uint256"
        }
      ],
      "stateMutability": "view",
      "type": "function"
    },
    {
      "inputs": [
        {
          "internalType": "uint256",
          "name": "_index",
          "type": "uint256"
        }
      ],
      "name": "hasVotedDestructProposal",
      "outputs": [
        {
          "internalType": "bool",
          "name": "",
          "type": "bool"
        }
      ],
      "stateMutability": "view",
      "type": "function"
    },
    {
      "inputs": [
        {
          "internalType": "uint256",
          "name": "_index",
          "type": "uint256"
        }
      ],
      "name": "hasVotedProposal",
      "outputs": [
        {
          "internalType": "bool",
          "name": "",
          "type": "bool"
        }
      ],
      "stateMutability": "view",
      "type": "function"
    },
    {
      "inputs": [
        {
          "internalType": "address",
          "name": "_address",
          "type": "address"
        }
      ],
      "name": "isMember",
      "outputs": [
        {
          "internalType": "bool",
          "name": "",
          "type": "bool"
        }
      ],
      "stateMutability": "view",
      "type": "function"
    },
    {
      "inputs": [],
      "name": "membersCount",
      "outputs": [
        {
          "internalType": "uint256",
          "name": "",
          "type": "uint256"
        }
      ],
      "stateMutability": "view",
      "type": "function"
    },
    {
      "inputs": [],
      "name": "minimunContribution",
      "outputs": [
        {
          "internalType": "uint256",
          "name": "",
          "type": "uint256"
        }
      ],
      "stateMutability": "view",
      "type": "function"
    },
    {
      "inputs": [],
      "name": "owner",
      "outputs": [
        {
          "internalType": "address",
          "name": "",
          "type": "address"
        }
      ],
      "stateMutability": "view",
      "type": "function"
    },
    {
      "inputs": [
        {
          "internalType": "uint256",
          "name": "",
          "type": "uint256"
        }
      ],
      "name": "proposals",
      "outputs": [
        {
          "internalType": "uint256",
          "name": "value",
          "type": "uint256"
        },
        {
          "internalType": "address",
          "name": "recipient",
          "type": "address"
        },
        {
          "internalType": "uint256",
          "name": "approvalsCount",
          "type": "uint256"
        },
        {
          "internalType": "uint256",
          "name": "disapprovalsCount",
          "type": "uint256"
        },
        {
          "internalType": "enum CrowdfundingCampaign.ProposalStatus",
          "name": "status",
          "type": "uint8"
        },
        {
          "internalType": "uint256",
          "name": "limitTime",
          "type": "uint256"
        }
      ],
      "stateMutability": "view",
      "type": "function"
    },
    {
      "inputs": [
        {
          "internalType": "bytes32",
          "name": "_ipfshash",
          "type": "bytes32"
        }
      ],
      "name": "saveProgressUpdate",
      "outputs": [],
      "stateMutability": "nonpayable",
      "type": "function"
    },
    {
      "inputs": [],
      "name": "setActive",
      "outputs": [],
      "stateMutability": "nonpayable",
      "type": "function"
    },
    {
      "inputs": [],
      "name": "status",
      "outputs": [
        {
          "internalType": "enum CrowdfundingCampaign.CampaignStatus",
          "name": "",
          "type": "uint8"
        }
      ],
      "stateMutability": "view",
      "type": "function"
    },
    {
      "inputs": [
        {
          "internalType": "uint256",
          "name": "_index",
          "type": "uint256"
        }
      ],
      "name": "withdraw",
      "outputs": [],
      "stateMutability": "nonpayable",
      "type": "function"
    },
    {
      "inputs": [
        {
          "internalType": "uint256",
          "name": "_index",
          "type": "uint256"
        }
      ],
      "name": "changeLimitProposal",
      "outputs": [],
      "stateMutability": "nonpayable",
      "type": "function"
    },
    {
      "inputs": [
        {
          "internalType": "uint256",
          "name": "_index",
          "type": "uint256"
        }
      ],
      "name": "changeLimitDestructProposal",
      "outputs": [],
      "stateMutability": "nonpayable",
      "type": "function"
    }
  ],
  "bytecode": "0x60806040523480156200001157600080fd5b5060405162003ee738038062003ee7833981810160405281019062000037919062000131565b82828233600060016101000a81548173ffffffffffffffffffffffffffffffffffffffff021916908373ffffffffffffffffffffffffffffffffffffffff160217905550816001819055508260028190555060008060006101000a81548160ff02191690836003811115620000b157620000b0620001cf565b5b021790555060006005819055507f0f627713f9c831a1b079924dedde3308e90d22b754bdd481f9b2165aa0f9dfb981604051620000ef91906200019e565b60405180910390a150505050505062000237565b600081519050620001148162000203565b92915050565b6000815190506200012b816200021d565b92915050565b6000806000606084860312156200014d576200014c620001fe565b5b60006200015d868287016200011a565b935050602062000170868287016200011a565b9250506040620001838682870162000103565b9150509250925092565b6200019881620001bb565b82525050565b6000602082019050620001b560008301846200018d565b92915050565b6000819050919050565b6000819050919050565b7f4e487b7100000000000000000000000000000000000000000000000000000000600052602160045260246000fd5b600080fd5b6200020e81620001bb565b81146200021a57600080fd5b50565b6200022881620001c5565b81146200023457600080fd5b50565b613ca080620002476000396000f3fe6080604052600436106101d85760003560e01c8063923a64fb11610102578063c8541fe011610095578063e966670a11610064578063e966670a1461069c578063eeda0518146106de578063ef978ecb1461071b578063f049a60c14610744576101d8565b8063c8541fe0146105fd578063d6290cd714610626578063d7bb99ba14610655578063e50697261461065f576101d8565b8063a7f33715116100d1578063a7f3371514610525578063b1a6f6a914610550578063b8f02ae114610590578063c7f758a8146105b9576101d8565b8063923a64fb1461046b57806398951b561461049457806398e527d3146104bd578063a230c524146104e8576101d8565b80633912fbe51161017a5780634e69d560116101495780634e69d560146103d557806351c36c1e14610400578063760a8c2a146104295780638da5cb5b14610440576101d8565b80633912fbe51461031b5780633b047a8f14610344578063401938831461036d57806342e94c9014610398576101d8565b8063200d2ed2116101b6578063200d2ed214610273578063297f9af01461029e5780632e1a7d4d146102c957806338170718146102f2576101d8565b8063013cf08b146101dd5780630386a0161461021f5780631ec0b7ba14610248575b600080fd5b3480156101e957600080fd5b5061020460048036038101906101ff9190612de4565b61076d565b60405161021696959493929190613489565b60405180910390f35b34801561022b57600080fd5b5061024660048036038101906102419190612de4565b6107e6565b005b34801561025457600080fd5b5061025d610b09565b60405161026a919061346e565b60405180910390f35b34801561027f57600080fd5b50610288610b16565b6040516102959190613233565b60405180910390f35b3480156102aa57600080fd5b506102b3610b27565b6040516102c0919061346e565b60405180910390f35b3480156102d557600080fd5b506102f060048036038101906102eb9190612de4565b610b2d565b005b3480156102fe57600080fd5b5061031960048036038101906103149190612de4565b610dc9565b005b34801561032757600080fd5b50610342600480360381019061033d9190612de4565b610e0e565b005b34801561035057600080fd5b5061036b60048036038101906103669190612db7565b611131565b005b34801561037957600080fd5b5061038261126f565b60405161038f919061346e565b60405180910390f35b3480156103a457600080fd5b506103bf60048036038101906103ba9190612d8a565b611275565b6040516103cc919061346e565b60405180910390f35b3480156103e157600080fd5b506103ea61128d565b6040516103f79190613233565b60405180910390f35b34801561040c57600080fd5b5061042760048036038101906104229190612e11565b6112a3565b005b34801561043557600080fd5b5061043e6114ef565b005b34801561044c57600080fd5b50610455611690565b6040516104629190613111565b60405180910390f35b34801561047757600080fd5b50610492600480360381019061048d9190612db7565b6116b6565b005b3480156104a057600080fd5b506104bb60048036038101906104b69190612de4565b6118bb565b005b3480156104c957600080fd5b506104d2611c72565b6040516104df919061346e565b60405180910390f35b3480156104f457600080fd5b5061050f600480360381019061050a9190612d8a565b611c7f565b60405161051c91906131fd565b60405180910390f35b34801561053157600080fd5b5061053a611cca565b604051610547919061346e565b60405180910390f35b34801561055c57600080fd5b5061057760048036038101906105729190612de4565b611cd0565b60405161058794939291906134ea565b60405180910390f35b34801561059c57600080fd5b506105b760048036038101906105b29190612de4565b611d1d565b005b3480156105c557600080fd5b506105e060048036038101906105db9190612de4565b611d62565b6040516105f498979695949392919061317f565b60405180910390f35b34801561060957600080fd5b50610624600480360381019061061f9190612de4565b611e5e565b005b34801561063257600080fd5b5061063b612215565b60405161064c95949392919061312c565b60405180910390f35b61065d612267565b005b34801561066b57600080fd5b5061068660048036038101906106819190612de4565b612486565b60405161069391906131fd565b60405180910390f35b3480156106a857600080fd5b506106c360048036038101906106be9190612de4565b612504565b6040516106d59695949392919061352f565b60405180910390f35b3480156106ea57600080fd5b5061070560048036038101906107009190612de4565b6125cd565b60405161071291906131fd565b60405180910390f35b34801561072757600080fd5b50610742600480360381019061073d9190612de4565b61264b565b005b34801561075057600080fd5b5061076b60048036038101906107669190612de4565b6129cb565b005b6006818154811061077d57600080fd5b90600052602060002090600702016000915090508060000154908060010160009054906101000a900473ffffffffffffffffffffffffffffffffffffffff16908060020154908060030154908060050160009054906101000a900460ff16908060060154905086565b6000600360003373ffffffffffffffffffffffffffffffffffffffff1673ffffffffffffffffffffffffffffffffffffffff1681526020019081526020016000205411806108815750600060019054906101000a900473ffffffffffffffffffffffffffffffffffffffff1673ffffffffffffffffffffffffffffffffffffffff163373ffffffffffffffffffffffffffffffffffffffff16145b6108c0576040517f08c379a00000000000000000000000000000000000000000000000000000000081526004016108b79061326e565b60405180910390fd5b600160038111156108d4576108d361373f565b5b60008054906101000a900460ff1660038111156108f4576108f361373f565b5b14610934576040517f08c379a000000000000000000000000000000000000000000000000000000000815260040161092b906133ae565b60405180910390fd5b80600060038111156109495761094861373f565b5b6006828154811061095d5761095c61376e565b5b906000526020600020906007020160050160009054906101000a900460ff16600381111561098e5761098d61373f565b5b146109ce576040517f08c379a00000000000000000000000000000000000000000000000000000000081526004016109c59061344e565b60405180910390fd5b81600681815481106109e3576109e261376e565b5b9060005260206000209060070201600601544211610a36576040517f08c379a0000000000000000000000000000000000000000000000000000000008152600401610a2d9061342e565b60405180910390fd5b600060068481548110610a4c57610a4b61376e565b5b90600052602060002090600702019050806003015481600201541115610a9e5760018160050160006101000a81548160ff02191690836003811115610a9457610a9361373f565b5b0217905550610acc565b60028160050160006101000a81548160ff02191690836003811115610ac657610ac561373f565b5b02179055505b7f887777ccf43690541bed9e00b10d0fccfa7520b11875f09847a57b3085d8ab9284604051610afb919061346e565b60405180910390a150505050565b6000600780549050905090565b60008054906101000a900460ff1681565b60055481565b600060019054906101000a900473ffffffffffffffffffffffffffffffffffffffff1673ffffffffffffffffffffffffffffffffffffffff163373ffffffffffffffffffffffffffffffffffffffff1614610bbd576040517f08c379a0000000000000000000000000000000000000000000000000000000008152600401610bb49061330e565b60405180910390fd5b60016003811115610bd157610bd061373f565b5b60008054906101000a900460ff166003811115610bf157610bf061373f565b5b14610c31576040517f08c379a0000000000000000000000000000000000000000000000000000000008152600401610c28906133ae565b60405180910390fd5b8060016003811115610c4657610c4561373f565b5b60068281548110610c5a57610c5961376e565b5b906000526020600020906007020160050160009054906101000a900460ff166003811115610c8b57610c8a61373f565b5b14610ccb576040517f08c379a0000000000000000000000000000000000000000000000000000000008152600401610cc29061336e565b60405180910390fd5b600060068381548110610ce157610ce061376e565b5b9060005260206000209060070201905060038160050160006101000a81548160ff02191690836003811115610d1957610d1861373f565b5b02179055508060010160009054906101000a900473ffffffffffffffffffffffffffffffffffffffff1673ffffffffffffffffffffffffffffffffffffffff166108fc82600001549081150290604051600060405180830381858888f19350505050158015610d8c573d6000803e3d6000fd5b507fff1ae7486a09c668cb67e3cbd767e6eca296bcffbd5171b289407f7d714dc50283604051610dbc919061346e565b60405180910390a1505050565b600060078281548110610ddf57610dde61376e565b5b9060005260206000209060050201905062093a808160040154610e0291906135f7565b81600401819055505050565b6000600360003373ffffffffffffffffffffffffffffffffffffffff1673ffffffffffffffffffffffffffffffffffffffff168152602001908152602001600020541180610ea95750600060019054906101000a900473ffffffffffffffffffffffffffffffffffffffff1673ffffffffffffffffffffffffffffffffffffffff163373ffffffffffffffffffffffffffffffffffffffff16145b610ee8576040517f08c379a0000000000000000000000000000000000000000000000000000000008152600401610edf9061326e565b60405180910390fd5b60016003811115610efc57610efb61373f565b5b60008054906101000a900460ff166003811115610f1c57610f1b61373f565b5b14610f5c576040517f08c379a0000000000000000000000000000000000000000000000000000000008152600401610f53906133ae565b60405180910390fd5b8060006003811115610f7157610f7061373f565b5b60078281548110610f8557610f8461376e565b5b906000526020600020906005020160030160009054906101000a900460ff166003811115610fb657610fb561373f565b5b14610ff6576040517f08c379a0000000000000000000000000000000000000000000000000000000008152600401610fed906132ee565b60405180910390fd5b816007818154811061100b5761100a61376e565b5b906000526020600020906005020160040154421161105e576040517f08c379a0000000000000000000000000000000000000000000000000000000008152600401611055906132ce565b60405180910390fd5b6000600784815481106110745761107361376e565b5b906000526020600020906005020190508060010154816000015411156110c65760018160030160006101000a81548160ff021916908360038111156110bc576110bb61373f565b5b02179055506110f4565b60028160030160006101000a81548160ff021916908360038111156110ee576110ed61373f565b5b02179055505b7f9d503d9b21cff0a224a831dabbf5fd2856219a4555ba61c71bd702a02dd717d684604051611123919061346e565b60405180910390a150505050565b600060019054906101000a900473ffffffffffffffffffffffffffffffffffffffff1673ffffffffffffffffffffffffffffffffffffffff163373ffffffffffffffffffffffffffffffffffffffff16146111c1576040517f08c379a00000000000000000000000000000000000000000000000000000000081526004016111b89061330e565b60405180910390fd5b600160038111156111d5576111d461373f565b5b60008054906101000a900460ff1660038111156111f5576111f461373f565b5b14611235576040517f08c379a000000000000000000000000000000000000000000000000000000000815260040161122c906133ae565b60405180910390fd5b7f2f8af70d91e96a23b8111e37a9117f7cfe341f51c17759c36475a1a7698f0dc3816040516112649190613218565b60405180910390a150565b60015481565b60036020528060005260406000206000915090505481565b60008060009054906101000a900460ff16905090565b600060019054906101000a900473ffffffffffffffffffffffffffffffffffffffff1673ffffffffffffffffffffffffffffffffffffffff163373ffffffffffffffffffffffffffffffffffffffff1614611333576040517f08c379a000000000000000000000000000000000000000000000000000000000815260040161132a9061330e565b60405180910390fd5b600160038111156113475761134661373f565b5b60008054906101000a900460ff1660038111156113675761136661373f565b5b146113a7576040517f08c379a000000000000000000000000000000000000000000000000000000000815260040161139e906133ae565b60405180910390fd5b824710156113ea576040517f08c379a00000000000000000000000000000000000000000000000000000000081526004016113e19061334e565b60405180910390fd5b600060066001816001815401808255809150500390600052602060002090600702019050828160010160006101000a81548173ffffffffffffffffffffffffffffffffffffffff021916908373ffffffffffffffffffffffffffffffffffffffff160217905550838160000181905550600081600201819055506000816003018190555060008160050160006101000a81548160ff021916908360038111156114965761149561373f565b5b021790555062093a80426114aa91906135a1565b81600601819055507f288a29bca04edb18fcdb2c76d6e3b03b8a137c85c70d1a4cb8aacfa868d60510826040516114e19190613218565b60405180910390a150505050565b600060019054906101000a900473ffffffffffffffffffffffffffffffffffffffff1673ffffffffffffffffffffffffffffffffffffffff163373ffffffffffffffffffffffffffffffffffffffff161461157f576040517f08c379a00000000000000000000000000000000000000000000000000000000081526004016115769061330e565b60405180910390fd5b600060038111156115935761159261373f565b5b60008054906101000a900460ff1660038111156115b3576115b261373f565b5b146115f3576040517f08c379a00000000000000000000000000000000000000000000000000000000081526004016115ea9061340e565b60405180910390fd5b600154471015611638576040517f08c379a000000000000000000000000000000000000000000000000000000000815260040161162f9061338e565b60405180910390fd5b60016000806101000a81548160ff0219169083600381111561165d5761165c61373f565b5b02179055507fe283e942d53c4322165eacc7a597c86cdbc698c96321f57a82b29c615810a69560405160405180910390a1565b600060019054906101000a900473ffffffffffffffffffffffffffffffffffffffff1681565b6000600360003373ffffffffffffffffffffffffffffffffffffffff1673ffffffffffffffffffffffffffffffffffffffff1681526020019081526020016000205411806117515750600060019054906101000a900473ffffffffffffffffffffffffffffffffffffffff1673ffffffffffffffffffffffffffffffffffffffff163373ffffffffffffffffffffffffffffffffffffffff16145b611790576040517f08c379a00000000000000000000000000000000000000000000000000000000081526004016117879061326e565b60405180910390fd5b600160038111156117a4576117a361373f565b5b60008054906101000a900460ff1660038111156117c4576117c361373f565b5b14611804576040517f08c379a00000000000000000000000000000000000000000000000000000000081526004016117fb906133ae565b60405180910390fd5b600060076001816001815401808255809150500390600052602060002090600502019050600081600001819055506000816001018190555060008160030160006101000a81548160ff021916908360038111156118645761186361373f565b5b021790555062093a804261187891906135a1565b81600401819055507ff58a42dcfacfd41fd5d3681beb4755c6023d9bd2d5c1ae46e8866ece6463cee7826040516118af9190613218565b60405180910390a15050565b6000600360003373ffffffffffffffffffffffffffffffffffffffff1673ffffffffffffffffffffffffffffffffffffffff1681526020019081526020016000205411806119565750600060019054906101000a900473ffffffffffffffffffffffffffffffffffffffff1673ffffffffffffffffffffffffffffffffffffffff163373ffffffffffffffffffffffffffffffffffffffff16145b611995576040517f08c379a000000000000000000000000000000000000000000000000000000000815260040161198c9061326e565b60405180910390fd5b600160038111156119a9576119a861373f565b5b60008054906101000a900460ff1660038111156119c9576119c861373f565b5b14611a09576040517f08c379a0000000000000000000000000000000000000000000000000000000008152600401611a00906133ae565b60405180910390fd5b8060006003811115611a1e57611a1d61373f565b5b60068281548110611a3257611a3161376e565b5b906000526020600020906007020160050160009054906101000a900460ff166003811115611a6357611a6261373f565b5b14611aa3576040517f08c379a0000000000000000000000000000000000000000000000000000000008152600401611a9a9061344e565b60405180910390fd5b8160068181548110611ab857611ab761376e565b5b906000526020600020906007020160060154421115611b0c576040517f08c379a0000000000000000000000000000000000000000000000000000000008152600401611b039061332e565b60405180910390fd5b600060068481548110611b2257611b2161376e565b5b906000526020600020906007020190508060040160003373ffffffffffffffffffffffffffffffffffffffff1673ffffffffffffffffffffffffffffffffffffffff16815260200190815260200160002060009054906101000a900460ff1615611bc1576040517f08c379a0000000000000000000000000000000000000000000000000000000008152600401611bb8906133ce565b60405180910390fd5b60018160040160003373ffffffffffffffffffffffffffffffffffffffff1673ffffffffffffffffffffffffffffffffffffffff16815260200190815260200160002060006101000a81548160ff021916908315150217905550806002016000815480929190611c30906136c7565b91905055507f26b645fdecdf266f3abc5b7ae3e796ffd297febba8bd3a8ad49c68435190fc6984604051611c64919061346e565b60405180910390a150505050565b6000600680549050905090565b600080600360008473ffffffffffffffffffffffffffffffffffffffff1673ffffffffffffffffffffffffffffffffffffffff16815260200190815260200160002054119050919050565b60025481565b60078181548110611ce057600080fd5b90600052602060002090600502016000915090508060000154908060010154908060030160009054906101000a900460ff16908060040154905084565b600060068281548110611d3357611d3261376e565b5b9060005260206000209060070201905062093a808160060154611d5691906135f7565b81600601819055505050565b600080600080600080600080600060068a81548110611d8457611d8361376e565b5b9060005260206000209060070201905060008160060154421115905060008260040160003373ffffffffffffffffffffffffffffffffffffffff1673ffffffffffffffffffffffffffffffffffffffff16815260200190815260200160002060009054906101000a900460ff1690508260010160009054906101000a900473ffffffffffffffffffffffffffffffffffffffff168360000154846002015485600301548660050160009054906101000a900460ff16876006015487879a509a509a509a509a509a509a509a50505050919395975091939597565b6000600360003373ffffffffffffffffffffffffffffffffffffffff1673ffffffffffffffffffffffffffffffffffffffff168152602001908152602001600020541180611ef95750600060019054906101000a900473ffffffffffffffffffffffffffffffffffffffff1673ffffffffffffffffffffffffffffffffffffffff163373ffffffffffffffffffffffffffffffffffffffff16145b611f38576040517f08c379a0000000000000000000000000000000000000000000000000000000008152600401611f2f9061326e565b60405180910390fd5b60016003811115611f4c57611f4b61373f565b5b60008054906101000a900460ff166003811115611f6c57611f6b61373f565b5b14611fac576040517f08c379a0000000000000000000000000000000000000000000000000000000008152600401611fa3906133ae565b60405180910390fd5b8060006003811115611fc157611fc061373f565b5b60068281548110611fd557611fd461376e565b5b906000526020600020906007020160050160009054906101000a900460ff1660038111156120065761200561373f565b5b14612046576040517f08c379a000000000000000000000000000000000000000000000000000000000815260040161203d9061344e565b60405180910390fd5b816006818154811061205b5761205a61376e565b5b9060005260206000209060070201600601544211156120af576040517f08c379a00000000000000000000000000000000000000000000000000000000081526004016120a69061332e565b60405180910390fd5b6000600684815481106120c5576120c461376e565b5b906000526020600020906007020190508060040160003373ffffffffffffffffffffffffffffffffffffffff1673ffffffffffffffffffffffffffffffffffffffff16815260200190815260200160002060009054906101000a900460ff1615612164576040517f08c379a000000000000000000000000000000000000000000000000000000000815260040161215b906133ce565b60405180910390fd5b60018160040160003373ffffffffffffffffffffffffffffffffffffffff1673ffffffffffffffffffffffffffffffffffffffff16815260200190815260200160002060006101000a81548160ff0219169083151502179055508060030160008154809291906121d3906136c7565b91905055507f26b645fdecdf266f3abc5b7ae3e796ffd297febba8bd3a8ad49c68435190fc6984604051612207919061346e565b60405180910390a150505050565b60008060008060008060019054906101000a900473ffffffffffffffffffffffffffffffffffffffff1660008054906101000a900460ff16600154600254600554945094509450945094509091929394565b6000600360003373ffffffffffffffffffffffffffffffffffffffff1673ffffffffffffffffffffffffffffffffffffffff168152602001908152602001600020541480156123045750600060019054906101000a900473ffffffffffffffffffffffffffffffffffffffff1673ffffffffffffffffffffffffffffffffffffffff163373ffffffffffffffffffffffffffffffffffffffff1614155b612343576040517f08c379a000000000000000000000000000000000000000000000000000000000815260040161233a906132ae565b60405180910390fd5b600060038111156123575761235661373f565b5b60008054906101000a900460ff1660038111156123775761237661373f565b5b146123b7576040517f08c379a00000000000000000000000000000000000000000000000000000000081526004016123ae9061340e565b60405180910390fd5b6002543410156123fc576040517f08c379a00000000000000000000000000000000000000000000000000000000081526004016123f39061324e565b60405180910390fd5b34600360003373ffffffffffffffffffffffffffffffffffffffff1673ffffffffffffffffffffffffffffffffffffffff1681526020019081526020016000208190555060056000815480929190612453906136c7565b91905055507f0673e22453ca22ab66c750388a377485c2d57a19fb171f1442f45e933d5e841860405160405180910390a1565b6000806007838154811061249d5761249c61376e565b5b906000526020600020906005020190508060020160003373ffffffffffffffffffffffffffffffffffffffff1673ffffffffffffffffffffffffffffffffffffffff16815260200190815260200160002060009054906101000a900460ff16915050919050565b6000806000806000806000600788815481106125235761252261376e565b5b9060005260206000209060050201905060008160040154421115905060008260020160003373ffffffffffffffffffffffffffffffffffffffff1673ffffffffffffffffffffffffffffffffffffffff16815260200190815260200160002060009054906101000a900460ff169050826000015483600101548460030160009054906101000a900460ff168560040154858598509850985098509850985050505091939550919395565b600080600683815481106125e4576125e361376e565b5b906000526020600020906007020190508060040160003373ffffffffffffffffffffffffffffffffffffffff1673ffffffffffffffffffffffffffffffffffffffff16815260200190815260200160002060009054906101000a900460ff16915050919050565b6000600360003373ffffffffffffffffffffffffffffffffffffffff1673ffffffffffffffffffffffffffffffffffffffff1681526020019081526020016000205411806126e65750600060019054906101000a900473ffffffffffffffffffffffffffffffffffffffff1673ffffffffffffffffffffffffffffffffffffffff163373ffffffffffffffffffffffffffffffffffffffff16145b612725576040517f08c379a000000000000000000000000000000000000000000000000000000000815260040161271c9061326e565b60405180910390fd5b600160038111156127395761273861373f565b5b60008054906101000a900460ff1660038111156127595761275861373f565b5b14612799576040517f08c379a0000000000000000000000000000000000000000000000000000000008152600401612790906133ae565b60405180910390fd5b80600060038111156127ae576127ad61373f565b5b600782815481106127c2576127c161376e565b5b906000526020600020906005020160030160009054906101000a900460ff1660038111156127f3576127f261373f565b5b14612833576040517f08c379a000000000000000000000000000000000000000000000000000000000815260040161282a906132ee565b60405180910390fd5b81600781815481106128485761284761376e565b5b90600052602060002090600502016004015442111561289c576040517f08c379a0000000000000000000000000000000000000000000000000000000008152600401612893906133ee565b60405180910390fd5b6000600784815481106128b2576128b161376e565b5b906000526020600020906005020190508060020160003373ffffffffffffffffffffffffffffffffffffffff1673ffffffffffffffffffffffffffffffffffffffff16815260200190815260200160002060009054906101000a900460ff1615612951576040517f08c379a00000000000000000000000000000000000000000000000000000000081526004016129489061328e565b60405180910390fd5b60018160020160003373ffffffffffffffffffffffffffffffffffffffff1673ffffffffffffffffffffffffffffffffffffffff16815260200190815260200160002060006101000a81548160ff0219169083151502179055508060010160008154809291906129c0906136c7565b919050555050505050565b6000600360003373ffffffffffffffffffffffffffffffffffffffff1673ffffffffffffffffffffffffffffffffffffffff168152602001908152602001600020541180612a665750600060019054906101000a900473ffffffffffffffffffffffffffffffffffffffff1673ffffffffffffffffffffffffffffffffffffffff163373ffffffffffffffffffffffffffffffffffffffff16145b612aa5576040517f08c379a0000000000000000000000000000000000000000000000000000000008152600401612a9c9061326e565b60405180910390fd5b60016003811115612ab957612ab861373f565b5b60008054906101000a900460ff166003811115612ad957612ad861373f565b5b14612b19576040517f08c379a0000000000000000000000000000000000000000000000000000000008152600401612b10906133ae565b60405180910390fd5b8060006003811115612b2e57612b2d61373f565b5b60078281548110612b4257612b4161376e565b5b906000526020600020906005020160030160009054906101000a900460ff166003811115612b7357612b7261373f565b5b14612bb3576040517f08c379a0000000000000000000000000000000000000000000000000000000008152600401612baa906132ee565b60405180910390fd5b8160078181548110612bc857612bc761376e565b5b906000526020600020906005020160040154421115612c1c576040517f08c379a0000000000000000000000000000000000000000000000000000000008152600401612c13906133ee565b60405180910390fd5b600060078481548110612c3257612c3161376e565b5b906000526020600020906005020190508060020160003373ffffffffffffffffffffffffffffffffffffffff1673ffffffffffffffffffffffffffffffffffffffff16815260200190815260200160002060009054906101000a900460ff1615612cd1576040517f08c379a0000000000000000000000000000000000000000000000000000000008152600401612cc89061328e565b60405180910390fd5b60018160020160003373ffffffffffffffffffffffffffffffffffffffff1673ffffffffffffffffffffffffffffffffffffffff16815260200190815260200160002060006101000a81548160ff021916908315150217905550806000016000815480929190612d40906136c7565b919050555050505050565b600081359050612d5a81613c25565b92915050565b600081359050612d6f81613c3c565b92915050565b600081359050612d8481613c53565b92915050565b600060208284031215612da057612d9f61379d565b5b6000612dae84828501612d4b565b91505092915050565b600060208284031215612dcd57612dcc61379d565b5b6000612ddb84828501612d60565b91505092915050565b600060208284031215612dfa57612df961379d565b5b6000612e0884828501612d75565b91505092915050565b600080600060608486031215612e2a57612e2961379d565b5b6000612e3886828701612d75565b9350506020612e4986828701612d4b565b9250506040612e5a86828701612d60565b9150509250925092565b612e6d8161362b565b82525050565b612e7c8161363d565b82525050565b612e8b81613649565b82525050565b612e9a816136a3565b82525050565b612ea9816136b5565b82525050565b6000612ebc601f83613590565b9150612ec7826137a2565b602082019050919050565b6000612edf601783613590565b9150612eea826137cb565b602082019050919050565b6000612f02603a83613590565b9150612f0d826137f4565b604082019050919050565b6000612f25601b83613590565b9150612f3082613843565b602082019050919050565b6000612f48602f83613590565b9150612f538261386c565b604082019050919050565b6000612f6b602b83613590565b9150612f76826138bb565b604082019050919050565b6000612f8e601883613590565b9150612f998261390a565b602082019050919050565b6000612fb1602183613590565b9150612fbc82613933565b604082019050919050565b6000612fd4601b83613590565b9150612fdf82613982565b602082019050919050565b6000612ff7601d83613590565b9150613002826139ab565b602082019050919050565b600061301a602283613590565b9150613025826139d4565b604082019050919050565b600061303d602283613590565b915061304882613a23565b604082019050919050565b6000613060603183613590565b915061306b82613a72565b604082019050919050565b6000613083602a83613590565b915061308e82613ac1565b604082019050919050565b60006130a6602383613590565b91506130b182613b10565b604082019050919050565b60006130c9602683613590565b91506130d482613b5f565b604082019050919050565b60006130ec602283613590565b91506130f782613bae565b604082019050919050565b61310b81613699565b82525050565b60006020820190506131266000830184612e64565b92915050565b600060a0820190506131416000830188612e64565b61314e6020830187612e91565b61315b6040830186613102565b6131686060830185613102565b6131756080830184613102565b9695505050505050565b600061010082019050613195600083018b612e64565b6131a2602083018a613102565b6131af6040830189613102565b6131bc6060830188613102565b6131c96080830187612ea0565b6131d660a0830186613102565b6131e360c0830185612e73565b6131f060e0830184612e73565b9998505050505050505050565b60006020820190506132126000830184612e73565b92915050565b600060208201905061322d6000830184612e82565b92915050565b60006020820190506132486000830184612e91565b92915050565b6000602082019050818103600083015261326781612eaf565b9050919050565b6000602082019050818103600083015261328781612ed2565b9050919050565b600060208201905081810360008301526132a781612ef5565b9050919050565b600060208201905081810360008301526132c781612f18565b9050919050565b600060208201905081810360008301526132e781612f3b565b9050919050565b6000602082019050818103600083015261330781612f5e565b9050919050565b6000602082019050818103600083015261332781612f81565b9050919050565b6000602082019050818103600083015261334781612fa4565b9050919050565b6000602082019050818103600083015261336781612fc7565b9050919050565b6000602082019050818103600083015261338781612fea565b9050919050565b600060208201905081810360008301526133a78161300d565b9050919050565b600060208201905081810360008301526133c781613030565b9050919050565b600060208201905081810360008301526133e781613053565b9050919050565b6000602082019050818103600083015261340781613076565b9050919050565b6000602082019050818103600083015261342781613099565b9050919050565b60006020820190508181036000830152613447816130bc565b9050919050565b60006020820190508181036000830152613467816130df565b9050919050565b60006020820190506134836000830184613102565b92915050565b600060c08201905061349e6000830189613102565b6134ab6020830188612e64565b6134b86040830187613102565b6134c56060830186613102565b6134d26080830185612ea0565b6134df60a0830184613102565b979650505050505050565b60006080820190506134ff6000830187613102565b61350c6020830186613102565b6135196040830185612ea0565b6135266060830184613102565b95945050505050565b600060c0820190506135446000830189613102565b6135516020830188613102565b61355e6040830187612ea0565b61356b6060830186613102565b6135786080830185612e73565b61358560a0830184612e73565b979650505050505050565b600082825260208201905092915050565b60006135ac82613699565b91506135b783613699565b9250827fffffffffffffffffffffffffffffffffffffffffffffffffffffffffffffffff038211156135ec576135eb613710565b5b828201905092915050565b600061360282613699565b915061360d83613699565b9250828210156136205761361f613710565b5b828203905092915050565b600061363682613679565b9050919050565b60008115159050919050565b6000819050919050565b600081905061366182613bfd565b919050565b600081905061367482613c11565b919050565b600073ffffffffffffffffffffffffffffffffffffffff82169050919050565b6000819050919050565b60006136ae82613653565b9050919050565b60006136c082613666565b9050919050565b60006136d282613699565b91507fffffffffffffffffffffffffffffffffffffffffffffffffffffffffffffffff82141561370557613704613710565b5b600182019050919050565b7f4e487b7100000000000000000000000000000000000000000000000000000000600052601160045260246000fd5b7f4e487b7100000000000000000000000000000000000000000000000000000000600052602160045260246000fd5b7f4e487b7100000000000000000000000000000000000000000000000000000000600052603260045260246000fd5b600080fd5b7f54686520636f6e747269627574696f6e20697320696e737566696369656e7400600082015250565b7f53656e646572206973206e6f742061206d656d6265722e000000000000000000600082015250565b7f5468652064657374727563742070726f706f73616c20686173206265656e206160008201527f6c726561647920766f746564206279207468652073656e646572000000000000602082015250565b7f53656e64657220697320616c72656164792061206d656d6265722e0000000000600082015250565b7f5468652064657374727563742070726f706f73616c206973207374696c6c206f60008201527f70656e20666f7220766f74696e672e0000000000000000000000000000000000602082015250565b7f5468652064657374727563742070726f706f73616c206973206e6f74206c6f6e60008201527f676572206163746976652e000000000000000000000000000000000000000000602082015250565b7f53656e646572206973206e6f7420746865206f776e65722e0000000000000000600082015250565b7f5468652070726f706f73616c20697320636c6f736520666f7220766f74696e6760008201527f2e00000000000000000000000000000000000000000000000000000000000000602082015250565b7f54686520666f756e64732061726520696e73756666696369656e740000000000600082015250565b7f5468652070726f706f73616c206973206e6f7420617070726f7665642e000000600082015250565b7f54686520636f6e747269627574696f6e732061726520696e737566666963696560008201527f6e74000000000000000000000000000000000000000000000000000000000000602082015250565b7f5468652063616d706169676e20737461747573206973206e6f7420616374697660008201527f652e000000000000000000000000000000000000000000000000000000000000602082015250565b7f5468652070726f706f73616c20686173206265656e20616c726561647920766f60008201527f746564206279207468652073656e646572000000000000000000000000000000602082015250565b7f5468652064657374727563742070726f706f73616c20697320636c6f7365206660008201527f6f7220766f74696e672e00000000000000000000000000000000000000000000602082015250565b7f5468652063616d706169676e20737461747573206973206e6f7420637265617460008201527f65642e0000000000000000000000000000000000000000000000000000000000602082015250565b7f5468652070726f706f73616c206973207374696c6c206f70656e20666f72207660008201527f6f74696e672e0000000000000000000000000000000000000000000000000000602082015250565b7f5468652070726f706f73616c206973206e6f74206c6f6e67657220616374697660008201527f652e000000000000000000000000000000000000000000000000000000000000602082015250565b60048110613c0e57613c0d61373f565b5b50565b60048110613c2257613c2161373f565b5b50565b613c2e8161362b565b8114613c3957600080fd5b50565b613c4581613649565b8114613c5057600080fd5b50565b613c5c81613699565b8114613c6757600080fd5b5056fea2646970667358221220d9ee81050f397ec1bc142aff4806d8b74538aa8477be8565fa251ba79151c97464736f6c63430008060033",
  "immutableReferences": {},
  "source": "pragma solidity ^0.8.0;\n\nimport \"./CrowdfundingCampaign.sol\";\n\ncontract CrowdfundingCampaignDemo is CrowdfundingCampaign {\n\n    /** @dev Constructor.\n     *  @param _minimunContribution minimum contribution in wei that a person has to make to become a member.\n     *  @param _goal goal in wei that the proyect has to reach to be succesfull.\n     *  @param _ipfshash The url hash of the campaign data previusly stored in IPFS.\n    **/\n    constructor(uint _minimunContribution, uint _goal, bytes32 _ipfshash)\n    CrowdfundingCampaign(_minimunContribution, _goal, _ipfshash) public {\n\n    }\n\n    /** @dev Allow to change the proposal limit date to seven days earlier to allow have close proposals in the demo.\n     *  @param _index index of the proposal we want to change the limit date.\n     */\n    function changeLimitProposal(uint _index) public {\n\n        Proposal storage proposal = proposals[_index];\n        proposal.limitTime = proposal.limitTime - 604800;        \n    }\n\n     /** @dev Allow to change the proposal limit date to seven days earlier to allow have close proposals in the demo.\n     *  @param _index index of the proposal we want to change the limit date.\n     */\n    function changeLimitDestructProposal(uint _index) public {\n\n        DestructProposal storage dProposal = destructProposals[_index];\n        dProposal.limitTime = dProposal.limitTime - 604800;        \n    }\n\n\n}",
  "sourcePath": "/home/tati/Desktop/personal/Tesina/semideas-crowdfunding/contracts/CrowdfundingCampaignDemo.sol",
  "compiler": {
    "name": "solc",
    "version": "0.8.6+commit.11564f7e.Emscripten.clang"
  },
  "schemaVersion": "3.4.1",
  "updatedAt": "2021-07-09T12:47:40.952Z",
  "devdoc": {
    "kind": "dev",
    "methods": {
      "approveProposal(uint256)": {
        "details": "Allow only members to approve an active proposal that they haven't voted before.",
        "params": {
          "_index": "index of the proposal the member wants to approve."
        }
      },
      "aproveDestructProposal(uint256)": {
        "details": "Allow only members to approve an active destruct proposal that they haven't voted before.",
        "params": {
          "_index": "index of the destruct proposal the member wants to approve."
        }
      },
      "changeLimitDestructProposal(uint256)": {
        "details": "Allow to change the proposal limit date to seven days earlier to allow have close proposals in the demo.",
        "params": {
          "_index": "index of the proposal we want to change the limit date."
        }
      },
      "changeLimitProposal(uint256)": {
        "details": "Allow to change the proposal limit date to seven days earlier to allow have close proposals in the demo.",
        "params": {
          "_index": "index of the proposal we want to change the limit date."
        }
      },
      "closeDestructProposal(uint256)": {
        "details": "Allow only members to close an active proposal that already has its voting time over.",
        "params": {
          "_index": "index of the proposal the member wants to approve."
        }
      },
      "closeProposal(uint256)": {
        "details": "Allow only members to close an active proposal that already has its voting time over.",
        "params": {
          "_index": "index of the proposal the member wants to approve."
        }
      },
      "constructor": {
        "details": "Constructor.",
        "params": {
          "_goal": "goal in wei that the proyect has to reach to be succesfull.",
          "_ipfshash": "The url hash of the campaign data previusly stored in IPFS.*",
          "_minimunContribution": "minimum contribution in wei that a person has to make to become a member."
        }
      },
      "contribute()": {
        "details": "Allow not members to contribute with the campaign and be a member of it."
      },
      "createDestructProposal(bytes32)": {
        "details": "Allow only members to create a new proposal to finish de proyect and get the founds back.",
        "params": {
          "_ipfshash": "url hash of the destruct proposal data (description) previusly stored in IPFS."
        }
      },
      "createProposal(uint256,address,bytes32)": {
        "details": "Allow only owner to create a new proposal to get more founds.",
        "params": {
          "_ipfshash": "url hash of the proposal data (description and pictures) previusly stored in IPFS.",
          "_recipient": "address where the founds are going to be after withdraw them.",
          "_value": "founds in wei that the owner want to withdraw."
        }
      },
      "disapproveDestructProposal(uint256)": {
        "details": "Allow only members to disapprove an active destruct proposal that they haven't voted before.",
        "params": {
          "_index": "index of the destruct proposal the member wants to disapprove."
        }
      },
      "disapproveProposal(uint256)": {
        "details": "Allow only members to disapprove an active proposal that they haven't voted before.",
        "params": {
          "_index": "index of the proposal the member wants to disapprove."
        }
      },
      "getCampaignInfo()": {
        "details": "Function to get the data of the campaign"
      },
      "getDestructProposal(uint256)": {
        "details": "Function to get the data of destruct proposal.",
        "params": {
          "_index": "index of the destruct proposal to return"
        }
      },
      "getDestructProposalsCount()": {
        "details": "Function to get the total number of destruct proposals."
      },
      "getProposal(uint256)": {
        "details": "Function to get the data of a proposal.",
        "params": {
          "_index": "index of the proposal to return"
        }
      },
      "getProposalsCount()": {
        "details": "Function to get the total number of proposals."
      },
      "getStatus()": {
        "details": "Function to get the actual status of the campaign."
      },
      "hasVotedDestructProposal(uint256)": {
        "details": "Function to know if a member has already vot a destruct proposal.",
        "params": {
          "_index": "index of the proposal"
        }
      },
      "hasVotedProposal(uint256)": {
        "details": "Function to know if a member has already vot a proposal.",
        "params": {
          "_index": "index of the proposal"
        }
      },
      "isMember(address)": {
        "details": "Function to return if someone is member."
      },
      "saveProgressUpdate(bytes32)": {
        "details": "Allow only owner to save a new progress Update data ipfs hash.",
        "params": {
          "_ipfshash": "url hash of the progress update data (description and pictures) previusly stored in IPFS."
        }
      },
      "setActive()": {
        "details": "Allow only owner to change the status of the cCampaign from CREATED to ACTIVE."
      },
      "withdraw(uint256)": {
        "details": "Allow only members to close an active proposal that already has its voting time over.",
        "params": {
          "_index": "index of the proposal the member wants to approve."
        }
      }
    },
    "version": 1
  },
  "userdoc": {
    "kind": "user",
    "methods": {},
    "version": 1
  }
}