{
  "contractName": "CrowdFundingCampaign",
  "abi": [
    {
      "inputs": [
        {
          "internalType": "uint256",
          "name": "_minimunContribution",
          "type": "uint256"
        },
        {
          "internalType": "uint256",
          "name": "_goal",
          "type": "uint256"
        },
        {
          "internalType": "bytes32",
          "name": "_ipfshash",
          "type": "bytes32"
        }
      ],
      "stateMutability": "nonpayable",
      "type": "constructor"
    },
    {
      "anonymous": false,
      "inputs": [
        {
          "indexed": true,
          "internalType": "bytes32",
          "name": "_ipfshash",
          "type": "bytes32"
        }
      ],
      "name": "campaignCreated",
      "type": "event"
    },
    {
      "anonymous": false,
      "inputs": [],
      "name": "changeStatusCampaign",
      "type": "event"
    },
    {
      "anonymous": false,
      "inputs": [
        {
          "indexed": true,
          "internalType": "bytes32",
          "name": "_ipfshash",
          "type": "bytes32"
        }
      ],
      "name": "destructProposalCreated",
      "type": "event"
    },
    {
      "anonymous": false,
      "inputs": [],
      "name": "newContribution",
      "type": "event"
    },
    {
      "anonymous": false,
      "inputs": [
        {
          "indexed": true,
          "internalType": "bytes32",
          "name": "_ipfshash",
          "type": "bytes32"
        }
      ],
      "name": "progressUpdate",
      "type": "event"
    },
    {
      "anonymous": false,
      "inputs": [
        {
          "indexed": true,
          "internalType": "bytes32",
          "name": "_ipfshash",
          "type": "bytes32"
        }
      ],
      "name": "proposalCreated",
      "type": "event"
    },
    {
      "inputs": [
        {
          "internalType": "address",
          "name": "",
          "type": "address"
        }
      ],
      "name": "contributions",
      "outputs": [
        {
          "internalType": "uint256",
          "name": "",
          "type": "uint256"
        }
      ],
      "stateMutability": "view",
      "type": "function",
      "constant": true
    },
    {
      "inputs": [
        {
          "internalType": "uint256",
          "name": "",
          "type": "uint256"
        }
      ],
      "name": "destructProposals",
      "outputs": [
        {
          "internalType": "uint256",
          "name": "approvalsCount",
          "type": "uint256"
        },
        {
          "internalType": "enum CrowdFundingCampaign.Status",
          "name": "status",
          "type": "uint8"
        }
      ],
      "stateMutability": "view",
      "type": "function",
      "constant": true
    },
    {
      "inputs": [],
      "name": "goal",
      "outputs": [
        {
          "internalType": "uint256",
          "name": "",
          "type": "uint256"
        }
      ],
      "stateMutability": "view",
      "type": "function",
      "constant": true
    },
    {
      "inputs": [],
      "name": "membersCount",
      "outputs": [
        {
          "internalType": "uint256",
          "name": "",
          "type": "uint256"
        }
      ],
      "stateMutability": "view",
      "type": "function",
      "constant": true
    },
    {
      "inputs": [],
      "name": "minimunContribution",
      "outputs": [
        {
          "internalType": "uint256",
          "name": "",
          "type": "uint256"
        }
      ],
      "stateMutability": "view",
      "type": "function",
      "constant": true
    },
    {
      "inputs": [],
      "name": "owner",
      "outputs": [
        {
          "internalType": "address",
          "name": "",
          "type": "address"
        }
      ],
      "stateMutability": "view",
      "type": "function",
      "constant": true
    },
    {
      "inputs": [
        {
          "internalType": "uint256",
          "name": "",
          "type": "uint256"
        }
      ],
      "name": "proposals",
      "outputs": [
        {
          "internalType": "uint256",
          "name": "value",
          "type": "uint256"
        },
        {
          "internalType": "address",
          "name": "recipient",
          "type": "address"
        },
        {
          "internalType": "uint256",
          "name": "approvalsCount",
          "type": "uint256"
        },
        {
          "internalType": "enum CrowdFundingCampaign.Status",
          "name": "status",
          "type": "uint8"
        }
      ],
      "stateMutability": "view",
      "type": "function",
      "constant": true
    },
    {
      "inputs": [],
      "name": "status",
      "outputs": [
        {
          "internalType": "enum CrowdFundingCampaign.Status",
          "name": "",
          "type": "uint8"
        }
      ],
      "stateMutability": "view",
      "type": "function",
      "constant": true
    },
    {
      "inputs": [],
      "name": "contribute",
      "outputs": [],
      "stateMutability": "payable",
      "type": "function",
      "payable": true
    },
    {
      "inputs": [],
      "name": "setActive",
      "outputs": [],
      "stateMutability": "nonpayable",
      "type": "function"
    },
    {
      "inputs": [
        {
          "internalType": "uint256",
          "name": "_value",
          "type": "uint256"
        },
        {
          "internalType": "address",
          "name": "_recipient",
          "type": "address"
        },
        {
          "internalType": "bytes32",
          "name": "_ipfshash",
          "type": "bytes32"
        }
      ],
      "name": "createProposal",
      "outputs": [],
      "stateMutability": "nonpayable",
      "type": "function"
    },
    {
      "inputs": [
        {
          "internalType": "uint256",
          "name": "_index",
          "type": "uint256"
        }
      ],
      "name": "aproveProposal",
      "outputs": [],
      "stateMutability": "nonpayable",
      "type": "function"
    },
    {
      "inputs": [
        {
          "internalType": "bytes32",
          "name": "_ipfshash",
          "type": "bytes32"
        }
      ],
      "name": "createDestructProposal",
      "outputs": [],
      "stateMutability": "nonpayable",
      "type": "function"
    },
    {
      "inputs": [
        {
          "internalType": "uint256",
          "name": "_index",
          "type": "uint256"
        }
      ],
      "name": "aproveDestructProposal",
      "outputs": [],
      "stateMutability": "nonpayable",
      "type": "function"
    },
    {
      "inputs": [
        {
          "internalType": "address",
          "name": "_address",
          "type": "address"
        }
      ],
      "name": "isMember",
      "outputs": [
        {
          "internalType": "bool",
          "name": "",
          "type": "bool"
        }
      ],
      "stateMutability": "view",
      "type": "function",
      "constant": true
    },
    {
      "inputs": [],
      "name": "getStatus",
      "outputs": [
        {
          "internalType": "enum CrowdFundingCampaign.Status",
          "name": "",
          "type": "uint8"
        }
      ],
      "stateMutability": "view",
      "type": "function",
      "constant": true
    },
    {
      "inputs": [],
      "name": "getCampaignInfo",
      "outputs": [
        {
          "internalType": "address",
          "name": "",
          "type": "address"
        },
        {
          "internalType": "enum CrowdFundingCampaign.Status",
          "name": "",
          "type": "uint8"
        },
        {
          "internalType": "uint256",
          "name": "",
          "type": "uint256"
        },
        {
          "internalType": "uint256",
          "name": "",
          "type": "uint256"
        },
        {
          "internalType": "uint256",
          "name": "",
          "type": "uint256"
        }
      ],
      "stateMutability": "view",
      "type": "function",
      "constant": true
    },
    {
      "inputs": [
        {
          "internalType": "uint256",
          "name": "_index",
          "type": "uint256"
        }
      ],
      "name": "getProposal",
      "outputs": [
        {
          "internalType": "address",
          "name": "",
          "type": "address"
        },
        {
          "internalType": "uint256",
          "name": "",
          "type": "uint256"
        },
        {
          "internalType": "uint256",
          "name": "",
          "type": "uint256"
        },
        {
          "internalType": "enum CrowdFundingCampaign.Status",
          "name": "",
          "type": "uint8"
        }
      ],
      "stateMutability": "view",
      "type": "function",
      "constant": true
    },
    {
      "inputs": [],
      "name": "getProposalsCount",
      "outputs": [
        {
          "internalType": "uint256",
          "name": "",
          "type": "uint256"
        }
      ],
      "stateMutability": "view",
      "type": "function",
      "constant": true
    },
    {
      "inputs": [
        {
          "internalType": "uint256",
          "name": "_index",
          "type": "uint256"
        }
      ],
      "name": "getDestuctProposal",
      "outputs": [
        {
          "internalType": "uint256",
          "name": "",
          "type": "uint256"
        },
        {
          "internalType": "enum CrowdFundingCampaign.Status",
          "name": "",
          "type": "uint8"
        }
      ],
      "stateMutability": "view",
      "type": "function",
      "constant": true
    },
    {
      "inputs": [],
      "name": "getDestructProposalsCount",
      "outputs": [
        {
          "internalType": "uint256",
          "name": "",
          "type": "uint256"
        }
      ],
      "stateMutability": "view",
      "type": "function",
      "constant": true
    }
  ],
  "bytecode": "0x608060405234801561001057600080fd5b50604051611c42380380611c428339818101604052606081101561003357600080fd5b8101908080519060200190929190805190602001909291908051906020019092919050505033600060016101000a81548173ffffffffffffffffffffffffffffffffffffffff021916908373ffffffffffffffffffffffffffffffffffffffff160217905550816001819055508260028190555060008060006101000a81548160ff021916908360048111156100c557fe5b02179055506000600481905550807f7a0ced2ebfa0348c1bb2ad8b93cccf47c0327bcce7d31ef5bbf1df0963de236e60405160405180910390a2505050611b31806101116000396000f3fe60806040526004361061012a5760003560e01c8063923a64fb116100ab578063bb2cfe801161006f578063bb2cfe801461051c578063c7f758a814610557578063d6290cd7146105dc578063d7bb99ba14610644578063e78201b31461064e578063f049a60c146106af5761012a565b8063923a64fb146103c357806398e527d3146103fe578063a230c52414610429578063a7f3371514610490578063b1a6f6a9146104bb5761012a565b806342e94c90116100f257806342e94c901461026b5780634e69d560146102d057806351c36c1e14610306578063760a8c2a1461036b5780638da5cb5b146103825761012a565b8063013cf08b1461012f5780631ec0b7ba146101b4578063200d2ed2146101df578063297f9af0146102155780634019388314610240575b600080fd5b34801561013b57600080fd5b506101686004803603602081101561015257600080fd5b81019080803590602001909291905050506106ea565b604051808581526020018473ffffffffffffffffffffffffffffffffffffffff1681526020018381526020018260048111156101a057fe5b815260200194505050505060405180910390f35b3480156101c057600080fd5b506101c9610754565b6040518082815260200191505060405180910390f35b3480156101eb57600080fd5b506101f4610761565b6040518082600481111561020457fe5b815260200191505060405180910390f35b34801561022157600080fd5b5061022a610772565b6040518082815260200191505060405180910390f35b34801561024c57600080fd5b50610255610778565b6040518082815260200191505060405180910390f35b34801561027757600080fd5b506102ba6004803603602081101561028e57600080fd5b81019080803573ffffffffffffffffffffffffffffffffffffffff16906020019092919050505061077e565b6040518082815260200191505060405180910390f35b3480156102dc57600080fd5b506102e5610796565b604051808260048111156102f557fe5b815260200191505060405180910390f35b34801561031257600080fd5b506103696004803603606081101561032957600080fd5b8101908080359060200190929190803573ffffffffffffffffffffffffffffffffffffffff169060200190929190803590602001909291905050506107ac565b005b34801561037757600080fd5b50610380610a94565b005b34801561038e57600080fd5b50610397610c7f565b604051808273ffffffffffffffffffffffffffffffffffffffff16815260200191505060405180910390f35b3480156103cf57600080fd5b506103fc600480360360208110156103e657600080fd5b8101908080359060200190929190505050610ca5565b005b34801561040a57600080fd5b50610413610eec565b6040518082815260200191505060405180910390f35b34801561043557600080fd5b506104786004803603602081101561044c57600080fd5b81019080803573ffffffffffffffffffffffffffffffffffffffff169060200190929190505050610ef9565b60405180821515815260200191505060405180910390f35b34801561049c57600080fd5b506104a5610f44565b6040518082815260200191505060405180910390f35b3480156104c757600080fd5b506104f4600480360360208110156104de57600080fd5b8101908080359060200190929190505050610f4a565b6040518083815260200182600481111561050a57fe5b81526020019250505060405180910390f35b34801561052857600080fd5b506105556004803603602081101561053f57600080fd5b8101908080359060200190929190505050610f88565b005b34801561056357600080fd5b506105906004803603602081101561057a57600080fd5b81019080803590602001909291905050506112e3565b604051808573ffffffffffffffffffffffffffffffffffffffff1681526020018481526020018381526020018260048111156105c857fe5b815260200194505050505060405180910390f35b3480156105e857600080fd5b506105f1611359565b604051808673ffffffffffffffffffffffffffffffffffffffff16815260200185600481111561061d57fe5b81526020018481526020018381526020018281526020019550505050505060405180910390f35b61064c6113ab565b005b34801561065a57600080fd5b506106876004803603602081101561067157600080fd5b8101908080359060200190929190505050611632565b6040518083815260200182600481111561069d57fe5b81526020019250505060405180910390f35b3480156106bb57600080fd5b506106e8600480360360208110156106d257600080fd5b8101908080359060200190929190505050611675565b005b600581815481106106f757fe5b90600052602060002090600502016000915090508060000154908060010160009054906101000a900473ffffffffffffffffffffffffffffffffffffffff16908060020154908060040160009054906101000a900460ff16905084565b6000600680549050905090565b60008054906101000a900460ff1681565b60045481565b60015481565b60036020528060005260406000206000915090505481565b60008060009054906101000a900460ff16905090565b600060019054906101000a900473ffffffffffffffffffffffffffffffffffffffff1673ffffffffffffffffffffffffffffffffffffffff163373ffffffffffffffffffffffffffffffffffffffff161461086f576040517f08c379a00000000000000000000000000000000000000000000000000000000081526004018080602001828103825260188152602001807f53656e646572206973206e6f7420746865206f776e65722e000000000000000081525060200191505060405180910390fd5b6003600481111561087c57fe5b60008054906101000a900460ff16600481111561089557fe5b146108eb576040517f08c379a0000000000000000000000000000000000000000000000000000000008152600401808060200182810382526022815260200180611a616022913960400191505060405180910390fd5b82471015610961576040517f08c379a000000000000000000000000000000000000000000000000000000000815260040180806020018281038252601b8152602001807f54686520666f756e64732061726520696e73756666696369656e74000000000081525060200191505060405180910390fd5b6109696119d0565b60405180608001604052808581526020018473ffffffffffffffffffffffffffffffffffffffff16815260200160008152602001600360048111156109aa57fe5b815250905060058190806001815401808255809150506001900390600052602060002090600502016000909190919091506000820151816000015560208201518160010160006101000a81548173ffffffffffffffffffffffffffffffffffffffff021916908373ffffffffffffffffffffffffffffffffffffffff1602179055506040820151816002015560608201518160040160006101000a81548160ff02191690836004811115610a5a57fe5b02179055505050817fdf3af04813197e32521106616bbfaf01af69d2e70f2f872720142b52953414e360405160405180910390a250505050565b600060019054906101000a900473ffffffffffffffffffffffffffffffffffffffff1673ffffffffffffffffffffffffffffffffffffffff163373ffffffffffffffffffffffffffffffffffffffff1614610b57576040517f08c379a00000000000000000000000000000000000000000000000000000000081526004018080602001828103825260188152602001807f53656e646572206973206e6f7420746865206f776e65722e000000000000000081525060200191505060405180910390fd5b60006004811115610b6457fe5b60008054906101000a900460ff166004811115610b7d57fe5b14610bd3576040517f08c379a0000000000000000000000000000000000000000000000000000000008152600401808060200182810382526023815260200180611a836023913960400191505060405180910390fd5b600154471015610c2e576040517f08c379a0000000000000000000000000000000000000000000000000000000008152600401808060200182810382526022815260200180611a3f6022913960400191505060405180910390fd5b60036000806101000a81548160ff02191690836004811115610c4c57fe5b02179055507f91eece65bbb3195524f803743167f72997d625af1d1698c2eff3d0a54e22945c60405160405180910390a1565b600060019054906101000a900473ffffffffffffffffffffffffffffffffffffffff1681565b6000600360003373ffffffffffffffffffffffffffffffffffffffff1673ffffffffffffffffffffffffffffffffffffffff168152602001908152602001600020541180610d405750600060019054906101000a900473ffffffffffffffffffffffffffffffffffffffff1673ffffffffffffffffffffffffffffffffffffffff163373ffffffffffffffffffffffffffffffffffffffff16145b610db2576040517f08c379a00000000000000000000000000000000000000000000000000000000081526004018080602001828103825260178152602001807f53656e646572206973206e6f742061206d656d6265722e00000000000000000081525060200191505060405180910390fd5b60036004811115610dbf57fe5b60008054906101000a900460ff166004811115610dd857fe5b14610e2e576040517f08c379a0000000000000000000000000000000000000000000000000000000008152600401808060200182810382526022815260200180611a616022913960400191505060405180910390fd5b610e36611a19565b60405180604001604052806000815260200160036004811115610e5557fe5b815250905060068190806001815401808255809150506001900390600052602060002090600302016000909190919091506000820151816000015560208201518160020160006101000a81548160ff02191690836004811115610eb457fe5b02179055505050817fc95a86df0db5b70c1293ecf6809b04b1e69f91ddaa05b8912d28dbf59047755360405160405180910390a25050565b6000600580549050905090565b600080600360008473ffffffffffffffffffffffffffffffffffffffff1673ffffffffffffffffffffffffffffffffffffffff16815260200190815260200160002054119050919050565b60025481565b60068181548110610f5757fe5b90600052602060002090600302016000915090508060000154908060020160009054906101000a900460ff16905082565b6000600360003373ffffffffffffffffffffffffffffffffffffffff1673ffffffffffffffffffffffffffffffffffffffff1681526020019081526020016000205411806110235750600060019054906101000a900473ffffffffffffffffffffffffffffffffffffffff1673ffffffffffffffffffffffffffffffffffffffff163373ffffffffffffffffffffffffffffffffffffffff16145b611095576040517f08c379a00000000000000000000000000000000000000000000000000000000081526004018080602001828103825260178152602001807f53656e646572206973206e6f742061206d656d6265722e00000000000000000081525060200191505060405180910390fd5b600360048111156110a257fe5b60008054906101000a900460ff1660048111156110bb57fe5b14611111576040517f08c379a0000000000000000000000000000000000000000000000000000000008152600401808060200182810382526022815260200180611a616022913960400191505060405180910390fd5b806003600481111561111f57fe5b6005828154811061112c57fe5b906000526020600020906005020160040160009054906101000a900460ff16600481111561115657fe5b146111ac576040517f08c379a0000000000000000000000000000000000000000000000000000000008152600401808060200182810382526022815260200180611ada6022913960400191505060405180910390fd5b6000600583815481106111bb57fe5b906000526020600020906005020190508060030160003373ffffffffffffffffffffffffffffffffffffffff1673ffffffffffffffffffffffffffffffffffffffff16815260200190815260200160002060009054906101000a900460ff1615611270576040517f08c379a0000000000000000000000000000000000000000000000000000000008152600401808060200182810382526034815260200180611aa66034913960400191505060405180910390fd5b60018160030160003373ffffffffffffffffffffffffffffffffffffffff1673ffffffffffffffffffffffffffffffffffffffff16815260200190815260200160002060006101000a81548160ff0219169083151502179055508060020160008154809291906001019190505550505050565b6000806000806000600586815481106112f857fe5b906000526020600020906005020190508060010160009054906101000a900473ffffffffffffffffffffffffffffffffffffffff16816000015482600201548360040160009054906101000a900460ff169450945094509450509193509193565b60008060008060008060019054906101000a900473ffffffffffffffffffffffffffffffffffffffff1660008054906101000a900460ff16600154600254600454945094509450945094509091929394565b6000600360003373ffffffffffffffffffffffffffffffffffffffff1673ffffffffffffffffffffffffffffffffffffffff168152602001908152602001600020541480156114485750600060019054906101000a900473ffffffffffffffffffffffffffffffffffffffff1673ffffffffffffffffffffffffffffffffffffffff163373ffffffffffffffffffffffffffffffffffffffff1614155b6114ba576040517f08c379a000000000000000000000000000000000000000000000000000000000815260040180806020018281038252601b8152602001807f53656e64657220697320616c72656164792061206d656d6265722e000000000081525060200191505060405180910390fd5b600060048111156114c757fe5b60008054906101000a900460ff1660048111156114e057fe5b14611536576040517f08c379a0000000000000000000000000000000000000000000000000000000008152600401808060200182810382526023815260200180611a836023913960400191505060405180910390fd5b6002543410156115ae576040517f08c379a000000000000000000000000000000000000000000000000000000000815260040180806020018281038252601f8152602001807f54686520636f6e747269627574696f6e20697320696e737566696369656e740081525060200191505060405180910390fd5b34600360003373ffffffffffffffffffffffffffffffffffffffff1673ffffffffffffffffffffffffffffffffffffffff168152602001908152602001600020819055506004600081548092919060010191905055507f645665e8674f75953a5c3a468125fb84ae3b8b3fa0fcec823b34b6421cd800ca60405160405180910390a1565b60008060006006848154811061164457fe5b9060005260206000209060030201905080600001548160020160009054906101000a900460ff169250925050915091565b6000600360003373ffffffffffffffffffffffffffffffffffffffff1673ffffffffffffffffffffffffffffffffffffffff1681526020019081526020016000205411806117105750600060019054906101000a900473ffffffffffffffffffffffffffffffffffffffff1673ffffffffffffffffffffffffffffffffffffffff163373ffffffffffffffffffffffffffffffffffffffff16145b611782576040517f08c379a00000000000000000000000000000000000000000000000000000000081526004018080602001828103825260178152602001807f53656e646572206973206e6f742061206d656d6265722e00000000000000000081525060200191505060405180910390fd5b6003600481111561178f57fe5b60008054906101000a900460ff1660048111156117a857fe5b146117fe576040517f08c379a0000000000000000000000000000000000000000000000000000000008152600401808060200182810382526022815260200180611a616022913960400191505060405180910390fd5b806003600481111561180c57fe5b6005828154811061181957fe5b906000526020600020906005020160040160009054906101000a900460ff16600481111561184357fe5b14611899576040517f08c379a0000000000000000000000000000000000000000000000000000000008152600401808060200182810382526022815260200180611ada6022913960400191505060405180910390fd5b6000600683815481106118a857fe5b906000526020600020906003020190508060010160003373ffffffffffffffffffffffffffffffffffffffff1673ffffffffffffffffffffffffffffffffffffffff16815260200190815260200160002060009054906101000a900460ff161561195d576040517f08c379a0000000000000000000000000000000000000000000000000000000008152600401808060200182810382526034815260200180611aa66034913960400191505060405180910390fd5b60018160010160003373ffffffffffffffffffffffffffffffffffffffff1673ffffffffffffffffffffffffffffffffffffffff16815260200190815260200160002060006101000a81548160ff0219169083151502179055508060000160008154809291906001019190505550505050565b604051806080016040528060008152602001600073ffffffffffffffffffffffffffffffffffffffff1681526020016000815260200160006004811115611a1357fe5b81525090565b60405180604001604052806000815260200160006004811115611a3857fe5b8152509056fe54686520636f6e747269627574696f6e732061726520696e73756666696369656e745468652063616d706169676e20737461747573206973206e6f74206163746976652e5468652063616d706169676e20737461747573206973206e6f7420637265617465642e5468652070726f706f73616c20686173206265656e20616c726561647920617070726f766564206279207468652073656e6465725468652070726f706f73616c206973206e6f74206c6f6e676572206163746976652ea2646970667358221220f236541c5f8a66c99a4a6d2f16ab1400fdd765f19ee170241ef7689d048a9ff864736f6c634300060c0033",
  "source": "pragma solidity ^0.6.0;\n\ncontract CrowdFundingCampaign {\n\n    /* Enums */\n\n    enum Status { CREATED, APPROVED, DISAPPROVED, ACTIVE, DESTROYED }\n\n    \n    /* Structs */\n\n    /** @dev Struct proposal\n        This struct represents the proposals that only owner can make to get more founds.\n    **/\n    struct Proposal{\n        uint value;\n        address recipient;\n        uint approvalsCount;\n        mapping(address => bool) approvals;\n        Status status;\n    }\n\n    /** @dev Struct destruct proposal\n        This struct represents the proposal that members can make to get their founds back.\n    **/\n    struct DestructProposal{\n        uint approvalsCount;\n        mapping(address => bool) approvals;\n        Status status;\n    }\n\n    /* Storage */\n\n    Status public status;\n    address public owner;\n    uint public goal;\n    uint public minimunContribution;\n    mapping(address => uint) public contributions;\n    uint public membersCount;\n    Proposal[] public proposals;\n    DestructProposal[] public destructProposals;\n    \n\n    /** @dev Constructor.\n     *  @param _minimunContribution minimum contribution in wei that a person has to make to become a member.\n     *  @param _goal goal in wei that the proyect has to reach to be succesfull.\n     *  @param _ipfshash The url hash of the campaign data previusly stored in IPFS.\n    **/\n    constructor(uint _minimunContribution, uint _goal, bytes32 _ipfshash) public {\n        owner = msg.sender;\n        goal = _goal;\n        minimunContribution = _minimunContribution;\n        status = Status.CREATED;\n        membersCount = 0;\n\n        emit campaignCreated(_ipfshash);\n    }\n\n\n    /* Modifiers */\n\n    modifier restricted() { require(msg.sender==owner, \"Sender is not the owner.\"); _; }\n\n    modifier membering() { require( (contributions[msg.sender]>0) || (msg.sender == owner), \"Sender is not a member.\"); _; }\n\n    modifier notMembering() { require( (contributions[msg.sender]==0) && (msg.sender != owner) , \"Sender is already a member.\"); _; }\n\n    modifier statusCreated() \n        { require(status == Status.CREATED, \"The campaign status is not created.\"); _; }\n\n    modifier statusActive()\n        { require(status == Status.ACTIVE, \"The campaign status is not active.\"); _; }\n\n    modifier proposalActive(uint _index) \n        { require(proposals[_index].status == Status.ACTIVE, \"The proposal is not longer active.\"); _; }\n\n    modifier proposalApproved(uint _index) \n        { require(proposals[_index].status == Status.APPROVED, \"The proposal is not approved.\" ); _; }\n\n    modifier destructProposalActive(uint _index) {\n        require(\n            destructProposals[_index].status == Status.ACTIVE,\n            \"The destruct proposal is not longer active.\");\n        _;\n    }\n\n    modifier destructProposalApproved(uint _index) {\n        require(\n            destructProposals[_index].status == Status.APPROVED,\n            \"The destruct proposal is not approved.\");\n        _;\n    }\n\n\n    /* Events */\n\n    /** @dev Emitted when the author creates the campaign.\n     *  @param _ipfshash The url hash of the campaign data stored in IPFS.\n     */\n    event campaignCreated(bytes32 indexed _ipfshash);\n\n    /** @dev Emitted when a new person contributes with the campaign.\n     */\n    event newContribution();\n\n    /** @dev Emitted when the author creates a proposal to free founds.\n     *  @param _ipfshash The url hash of the proposal data stored in IPFS.\n     */\n    event proposalCreated(bytes32 indexed _ipfshash);\n\n     /** @dev Emitted when a member creates a proposal to destruct the campaign and get the founds back.\n     *  @param _ipfshash The url hash of the destruct proposal data stored in IPFS.\n     */\n    event destructProposalCreated(bytes32 indexed _ipfshash);\n\n    /** @dev Emitted when the author creates a progress update to show how the proyect is going.\n     *  @param _ipfshash The url hash of the progress update data stored in IPFS.\n     */\n    event progressUpdate(bytes32 indexed _ipfshash);\n\n    /** @dev Emitted when the status of the campaign change.\n     */\n    event changeStatusCampaign();\n\n\n    /* Functions */\n\n    /** @dev Allow not members to contribute with the campaign and be a member of it.\n     */\n    function contribute() public notMembering statusCreated payable {\n        require(msg.value >= minimunContribution, \"The contribution is insuficient\");\n        contributions[msg.sender] = msg.value;\n        membersCount++;\n        emit newContribution();\n    }\n\n    /** @dev Allow only owner to change the status of the cCampaign from CREATED to ACTIVE.\n     */\n    function setActive() public restricted statusCreated {\n        \n        require(address(this).balance >= goal,\"The contributions are insufficient\");\n        status = Status.ACTIVE;\n\n        emit changeStatusCampaign();\n         \n    }\n\n    /** @dev Allow only owner to create a new proposal to get more founds.\n     *  @param _value founds in wei that the owner want to withdraw.\n     *  @param _recipient address where the founds are going to be after withdraw them.\n     *  @param _ipfshash url hash of the proposal data (description and pictures) previusly stored in IPFS.\n     */\n    function createProposal(uint _value, address _recipient, bytes32 _ipfshash) \n        public restricted statusActive {\n\n        require(address(this).balance >= _value, \"The founds are insufficient\");\n        \n        Proposal memory newProposal = Proposal({\n            recipient : _recipient,\n            value : _value,\n            approvalsCount : 0,\n            status: Status.ACTIVE\n        });\n\n        proposals.push(newProposal);\n        emit proposalCreated(_ipfshash);\n         \n    }\n\n    /** @dev Allow only members to approve an active proposal that they haven't approved before.\n     *  @param _index index of the proposal the member wants to approve.\n     */\n    function aproveProposal(uint _index) public membering statusActive proposalActive(_index) {\n\n        Proposal storage proposal = proposals[_index];\n        require(!proposal.approvals[msg.sender], \"The proposal has been already approved by the sender\");\n\n        proposal.approvals[msg.sender] = true;\n        proposal.approvalsCount++;\n        \n    }\n\n    /** @dev Allow only members to create a new proposal to finish de proyect and get the founds back.\n     *  @param _ipfshash url hash of the destruct proposal data (description) previusly stored in IPFS.\n     */\n    function createDestructProposal(bytes32 _ipfshash) public membering statusActive {\n        \n        DestructProposal memory newDProposal = DestructProposal({\n            approvalsCount : 0,\n            status: Status.ACTIVE\n        });\n\n        destructProposals.push(newDProposal);\n        emit destructProposalCreated(_ipfshash);\n         \n    }\n\n    /** @dev Allow only members to approve an active destrcut proposal that they haven't approved before.\n     *  @param _index index of the destrcut proposal the member wants to approve.\n     */\n    function aproveDestructProposal(uint _index) public membering statusActive proposalActive(_index) {\n\n        DestructProposal storage dProposal = destructProposals[_index];\n        require(!dProposal.approvals[msg.sender], \"The proposal has been already approved by the sender\");\n\n        dProposal.approvals[msg.sender] = true;\n        dProposal.approvalsCount++;\n        \n    }\n\n     /* Aux functions */\n\n    /** @dev Function to return if someone is member.\n     */\n    function isMember(address _address) public view returns (bool) {\n        return contributions[_address]>0;\n    }\n\n    /** @dev Function to get the actual status of the campaign.\n     */\n    function getStatus() public view returns (Status) {\n        return status;\n    }\n\n    /** @dev Function to get the data of the campaign\n     */\n    function getCampaignInfo() public view returns (address, Status, uint, uint, uint ) {\n        return (owner, status, goal, minimunContribution, membersCount);\n    } \n\n    /** @dev Function to get the data of a proposal.\n     *  @param _index index of the proposal to return\n     */\n    function getProposal(uint _index) public view returns (address, uint, uint, Status) {\n        Proposal storage proposal = proposals[_index];\n        return (proposal.recipient, proposal.value, proposal.approvalsCount, proposal.status);\n    } \n\n    /** @dev Function to get the total number of proposals.\n     */\n    function getProposalsCount() public view returns (uint) {\n        return proposals.length;\n    }\n\n     /** @dev Function to get the data of destruct proposal.\n     *  @param _index index of the destruct proposal to return\n     */\n    function getDestuctProposal(uint _index) public view returns (uint, Status) {\n        DestructProposal storage dProposal = destructProposals[_index];\n        return (dProposal.approvalsCount, dProposal.status);\n    } \n\n    /** @dev Function to get the total number of destruct proposals.\n     */\n    function getDestructProposalsCount() public view returns (uint) {\n        return destructProposals.length;\n    }\n   \n}",
  "sourcePath": "/home/tati/Desktop/personal/Tesina/semideas-crowdfunding/contracts/CrowdFundingCampaign.sol",
  "compiler": {
    "name": "solc",
    "version": "0.6.12+commit.27d51765.Emscripten.clang"
  },
  "schemaVersion": "3.0.22",
  "updatedAt": "2021-06-15T02:31:26.077Z",
  "networkType": "ethereum",
  "devdoc": {
    "events": {
      "campaignCreated(bytes32)": {
        "details": "Emitted when the author creates the campaign.",
        "params": {
          "_ipfshash": "The url hash of the campaign data stored in IPFS."
        }
      },
      "changeStatusCampaign()": {
        "details": "Emitted when the status of the campaign change."
      },
      "destructProposalCreated(bytes32)": {
        "details": "Emitted when a member creates a proposal to destruct the campaign and get the founds back.",
        "params": {
          "_ipfshash": "The url hash of the destruct proposal data stored in IPFS."
        }
      },
      "newContribution()": {
        "details": "Emitted when a new person contributes with the campaign."
      },
      "progressUpdate(bytes32)": {
        "details": "Emitted when the author creates a progress update to show how the proyect is going.",
        "params": {
          "_ipfshash": "The url hash of the progress update data stored in IPFS."
        }
      },
      "proposalCreated(bytes32)": {
        "details": "Emitted when the author creates a proposal to free founds.",
        "params": {
          "_ipfshash": "The url hash of the proposal data stored in IPFS."
        }
      }
    },
    "kind": "dev",
    "methods": {
      "aproveDestructProposal(uint256)": {
        "details": "Allow only members to approve an active destrcut proposal that they haven't approved before.",
        "params": {
          "_index": "index of the destrcut proposal the member wants to approve."
        }
      },
      "aproveProposal(uint256)": {
        "details": "Allow only members to approve an active proposal that they haven't approved before.",
        "params": {
          "_index": "index of the proposal the member wants to approve."
        }
      },
      "constructor": {
        "details": "Constructor.",
        "params": {
          "_goal": "goal in wei that the proyect has to reach to be succesfull.",
          "_ipfshash": "The url hash of the campaign data previusly stored in IPFS.*",
          "_minimunContribution": "minimum contribution in wei that a person has to make to become a member."
        }
      },
      "contribute()": {
        "details": "Allow not members to contribute with the campaign and be a member of it."
      },
      "createDestructProposal(bytes32)": {
        "details": "Allow only members to create a new proposal to finish de proyect and get the founds back.",
        "params": {
          "_ipfshash": "url hash of the destruct proposal data (description) previusly stored in IPFS."
        }
      },
      "createProposal(uint256,address,bytes32)": {
        "details": "Allow only owner to create a new proposal to get more founds.",
        "params": {
          "_ipfshash": "url hash of the proposal data (description and pictures) previusly stored in IPFS.",
          "_recipient": "address where the founds are going to be after withdraw them.",
          "_value": "founds in wei that the owner want to withdraw."
        }
      },
      "getCampaignInfo()": {
        "details": "Function to get the data of the campaign"
      },
      "getDestructProposalsCount()": {
        "details": "Function to get the total number of destruct proposals."
      },
      "getDestuctProposal(uint256)": {
        "details": "Function to get the data of destruct proposal.",
        "params": {
          "_index": "index of the destruct proposal to return"
        }
      },
      "getProposal(uint256)": {
        "details": "Function to get the data of a proposal.",
        "params": {
          "_index": "index of the proposal to return"
        }
      },
      "getProposalsCount()": {
        "details": "Function to get the total number of proposals."
      },
      "getStatus()": {
        "details": "Function to get the actual status of the campaign."
      },
      "isMember(address)": {
        "details": "Function to return if someone is member."
      },
      "setActive()": {
        "details": "Allow only owner to change the status of the cCampaign from CREATED to ACTIVE."
      }
    },
    "version": 1
  },
  "userdoc": {
    "kind": "user",
    "methods": {},
    "version": 1
  }
}