{
  "contractName": "CrowdfundingCampaignDemo",
  "abi": [
    {
      "inputs": [
        {
          "internalType": "uint256",
          "name": "_minimunContribution",
          "type": "uint256"
        },
        {
          "internalType": "uint256",
          "name": "_goal",
          "type": "uint256"
        },
        {
          "internalType": "bytes32",
          "name": "_ipfshash",
          "type": "bytes32"
        }
      ],
      "stateMutability": "nonpayable",
      "type": "constructor"
    },
    {
      "anonymous": false,
      "inputs": [
        {
          "indexed": false,
          "internalType": "bytes32",
          "name": "_ipfshash",
          "type": "bytes32"
        }
      ],
      "name": "CampaignCreated",
      "type": "event"
    },
    {
      "anonymous": false,
      "inputs": [],
      "name": "ChangeStatusCampaign",
      "type": "event"
    },
    {
      "anonymous": false,
      "inputs": [
        {
          "indexed": false,
          "internalType": "uint256",
          "name": "_index",
          "type": "uint256"
        }
      ],
      "name": "DestructProposalClosed",
      "type": "event"
    },
    {
      "anonymous": false,
      "inputs": [
        {
          "indexed": false,
          "internalType": "bytes32",
          "name": "_ipfshash",
          "type": "bytes32"
        }
      ],
      "name": "DestructProposalCreated",
      "type": "event"
    },
    {
      "anonymous": false,
      "inputs": [
        {
          "indexed": false,
          "internalType": "uint256",
          "name": "_index",
          "type": "uint256"
        }
      ],
      "name": "DestructProposalVoted",
      "type": "event"
    },
    {
      "anonymous": false,
      "inputs": [],
      "name": "NewContribution",
      "type": "event"
    },
    {
      "anonymous": false,
      "inputs": [
        {
          "indexed": false,
          "internalType": "bytes32",
          "name": "_ipfshash",
          "type": "bytes32"
        }
      ],
      "name": "ProgressUpdate",
      "type": "event"
    },
    {
      "anonymous": false,
      "inputs": [
        {
          "indexed": false,
          "internalType": "uint256",
          "name": "_index",
          "type": "uint256"
        }
      ],
      "name": "ProposalClosed",
      "type": "event"
    },
    {
      "anonymous": false,
      "inputs": [
        {
          "indexed": false,
          "internalType": "bytes32",
          "name": "_ipfshash",
          "type": "bytes32"
        }
      ],
      "name": "ProposalCreated",
      "type": "event"
    },
    {
      "anonymous": false,
      "inputs": [
        {
          "indexed": false,
          "internalType": "uint256",
          "name": "_index",
          "type": "uint256"
        }
      ],
      "name": "ProposalVoted",
      "type": "event"
    },
    {
      "anonymous": false,
      "inputs": [
        {
          "indexed": false,
          "internalType": "uint256",
          "name": "_index",
          "type": "uint256"
        }
      ],
      "name": "ProposalWithdraw",
      "type": "event"
    },
    {
      "inputs": [
        {
          "internalType": "uint256",
          "name": "_index",
          "type": "uint256"
        }
      ],
      "name": "approveProposal",
      "outputs": [],
      "stateMutability": "nonpayable",
      "type": "function"
    },
    {
      "inputs": [
        {
          "internalType": "uint256",
          "name": "_index",
          "type": "uint256"
        }
      ],
      "name": "aproveDestructProposal",
      "outputs": [],
      "stateMutability": "nonpayable",
      "type": "function"
    },
    {
      "inputs": [
        {
          "internalType": "uint256",
          "name": "_index",
          "type": "uint256"
        }
      ],
      "name": "closeDestructProposal",
      "outputs": [],
      "stateMutability": "nonpayable",
      "type": "function"
    },
    {
      "inputs": [
        {
          "internalType": "uint256",
          "name": "_index",
          "type": "uint256"
        }
      ],
      "name": "closeProposal",
      "outputs": [],
      "stateMutability": "nonpayable",
      "type": "function"
    },
    {
      "inputs": [],
      "name": "contribute",
      "outputs": [],
      "stateMutability": "payable",
      "type": "function",
      "payable": true
    },
    {
      "inputs": [
        {
          "internalType": "address",
          "name": "",
          "type": "address"
        }
      ],
      "name": "contributions",
      "outputs": [
        {
          "internalType": "uint256",
          "name": "",
          "type": "uint256"
        }
      ],
      "stateMutability": "view",
      "type": "function",
      "constant": true
    },
    {
      "inputs": [
        {
          "internalType": "bytes32",
          "name": "_ipfshash",
          "type": "bytes32"
        }
      ],
      "name": "createDestructProposal",
      "outputs": [],
      "stateMutability": "nonpayable",
      "type": "function"
    },
    {
      "inputs": [
        {
          "internalType": "uint256",
          "name": "_value",
          "type": "uint256"
        },
        {
          "internalType": "address",
          "name": "_recipient",
          "type": "address"
        },
        {
          "internalType": "bytes32",
          "name": "_ipfshash",
          "type": "bytes32"
        }
      ],
      "name": "createProposal",
      "outputs": [],
      "stateMutability": "nonpayable",
      "type": "function"
    },
    {
      "inputs": [
        {
          "internalType": "uint256",
          "name": "",
          "type": "uint256"
        }
      ],
      "name": "destructProposals",
      "outputs": [
        {
          "internalType": "uint256",
          "name": "approvalsCount",
          "type": "uint256"
        },
        {
          "internalType": "uint256",
          "name": "disapprovalsCount",
          "type": "uint256"
        },
        {
          "internalType": "enum CrowdfundingCampaign.ProposalStatus",
          "name": "status",
          "type": "uint8"
        },
        {
          "internalType": "uint256",
          "name": "limitTime",
          "type": "uint256"
        },
        {
          "internalType": "address",
          "name": "author",
          "type": "address"
        }
      ],
      "stateMutability": "view",
      "type": "function",
      "constant": true
    },
    {
      "inputs": [
        {
          "internalType": "uint256",
          "name": "_index",
          "type": "uint256"
        }
      ],
      "name": "disapproveDestructProposal",
      "outputs": [],
      "stateMutability": "nonpayable",
      "type": "function"
    },
    {
      "inputs": [
        {
          "internalType": "uint256",
          "name": "_index",
          "type": "uint256"
        }
      ],
      "name": "disapproveProposal",
      "outputs": [],
      "stateMutability": "nonpayable",
      "type": "function"
    },
    {
      "inputs": [],
      "name": "finalContributions",
      "outputs": [
        {
          "internalType": "uint256",
          "name": "",
          "type": "uint256"
        }
      ],
      "stateMutability": "view",
      "type": "function",
      "constant": true
    },
    {
      "inputs": [],
      "name": "getCampaignInfo",
      "outputs": [
        {
          "internalType": "address",
          "name": "",
          "type": "address"
        },
        {
          "internalType": "enum CrowdfundingCampaign.CampaignStatus",
          "name": "",
          "type": "uint8"
        },
        {
          "internalType": "uint256",
          "name": "",
          "type": "uint256"
        },
        {
          "internalType": "uint256",
          "name": "",
          "type": "uint256"
        },
        {
          "internalType": "uint256",
          "name": "",
          "type": "uint256"
        },
        {
          "internalType": "uint256",
          "name": "",
          "type": "uint256"
        },
        {
          "internalType": "uint256",
          "name": "",
          "type": "uint256"
        }
      ],
      "stateMutability": "view",
      "type": "function",
      "constant": true
    },
    {
      "inputs": [
        {
          "internalType": "uint256",
          "name": "_index",
          "type": "uint256"
        }
      ],
      "name": "getDestructProposal",
      "outputs": [
        {
          "internalType": "uint256",
          "name": "",
          "type": "uint256"
        },
        {
          "internalType": "uint256",
          "name": "",
          "type": "uint256"
        },
        {
          "internalType": "enum CrowdfundingCampaign.ProposalStatus",
          "name": "",
          "type": "uint8"
        },
        {
          "internalType": "uint256",
          "name": "",
          "type": "uint256"
        },
        {
          "internalType": "bool",
          "name": "",
          "type": "bool"
        },
        {
          "internalType": "bool",
          "name": "",
          "type": "bool"
        },
        {
          "internalType": "address",
          "name": "",
          "type": "address"
        }
      ],
      "stateMutability": "view",
      "type": "function",
      "constant": true
    },
    {
      "inputs": [],
      "name": "getDestructProposalsCount",
      "outputs": [
        {
          "internalType": "uint256",
          "name": "",
          "type": "uint256"
        }
      ],
      "stateMutability": "view",
      "type": "function",
      "constant": true
    },
    {
      "inputs": [],
      "name": "getFinalContributions",
      "outputs": [
        {
          "internalType": "uint256",
          "name": "",
          "type": "uint256"
        }
      ],
      "stateMutability": "view",
      "type": "function",
      "constant": true
    },
    {
      "inputs": [
        {
          "internalType": "uint256",
          "name": "_index",
          "type": "uint256"
        }
      ],
      "name": "getProposal",
      "outputs": [
        {
          "internalType": "address",
          "name": "",
          "type": "address"
        },
        {
          "internalType": "uint256",
          "name": "",
          "type": "uint256"
        },
        {
          "internalType": "uint256",
          "name": "",
          "type": "uint256"
        },
        {
          "internalType": "uint256",
          "name": "",
          "type": "uint256"
        },
        {
          "internalType": "enum CrowdfundingCampaign.ProposalStatus",
          "name": "",
          "type": "uint8"
        },
        {
          "internalType": "uint256",
          "name": "",
          "type": "uint256"
        },
        {
          "internalType": "bool",
          "name": "",
          "type": "bool"
        },
        {
          "internalType": "bool",
          "name": "",
          "type": "bool"
        }
      ],
      "stateMutability": "view",
      "type": "function",
      "constant": true
    },
    {
      "inputs": [],
      "name": "getProposalsCount",
      "outputs": [
        {
          "internalType": "uint256",
          "name": "",
          "type": "uint256"
        }
      ],
      "stateMutability": "view",
      "type": "function",
      "constant": true
    },
    {
      "inputs": [],
      "name": "getRemainingContributions",
      "outputs": [
        {
          "internalType": "uint256",
          "name": "",
          "type": "uint256"
        }
      ],
      "stateMutability": "view",
      "type": "function",
      "constant": true
    },
    {
      "inputs": [],
      "name": "getStatus",
      "outputs": [
        {
          "internalType": "enum CrowdfundingCampaign.CampaignStatus",
          "name": "",
          "type": "uint8"
        }
      ],
      "stateMutability": "view",
      "type": "function",
      "constant": true
    },
    {
      "inputs": [],
      "name": "goal",
      "outputs": [
        {
          "internalType": "uint256",
          "name": "",
          "type": "uint256"
        }
      ],
      "stateMutability": "view",
      "type": "function",
      "constant": true
    },
    {
      "inputs": [
        {
          "internalType": "uint256",
          "name": "_index",
          "type": "uint256"
        }
      ],
      "name": "hasVotedDestructProposal",
      "outputs": [
        {
          "internalType": "bool",
          "name": "",
          "type": "bool"
        }
      ],
      "stateMutability": "view",
      "type": "function",
      "constant": true
    },
    {
      "inputs": [
        {
          "internalType": "uint256",
          "name": "_index",
          "type": "uint256"
        }
      ],
      "name": "hasVotedProposal",
      "outputs": [
        {
          "internalType": "bool",
          "name": "",
          "type": "bool"
        }
      ],
      "stateMutability": "view",
      "type": "function",
      "constant": true
    },
    {
      "inputs": [
        {
          "internalType": "address",
          "name": "_address",
          "type": "address"
        }
      ],
      "name": "isMember",
      "outputs": [
        {
          "internalType": "bool",
          "name": "",
          "type": "bool"
        }
      ],
      "stateMutability": "view",
      "type": "function",
      "constant": true
    },
    {
      "inputs": [],
      "name": "membersCount",
      "outputs": [
        {
          "internalType": "uint256",
          "name": "",
          "type": "uint256"
        }
      ],
      "stateMutability": "view",
      "type": "function",
      "constant": true
    },
    {
      "inputs": [],
      "name": "minimunContribution",
      "outputs": [
        {
          "internalType": "uint256",
          "name": "",
          "type": "uint256"
        }
      ],
      "stateMutability": "view",
      "type": "function",
      "constant": true
    },
    {
      "inputs": [],
      "name": "owner",
      "outputs": [
        {
          "internalType": "address",
          "name": "",
          "type": "address"
        }
      ],
      "stateMutability": "view",
      "type": "function",
      "constant": true
    },
    {
      "inputs": [
        {
          "internalType": "uint256",
          "name": "",
          "type": "uint256"
        }
      ],
      "name": "proposals",
      "outputs": [
        {
          "internalType": "uint256",
          "name": "value",
          "type": "uint256"
        },
        {
          "internalType": "address",
          "name": "recipient",
          "type": "address"
        },
        {
          "internalType": "uint256",
          "name": "approvalsCount",
          "type": "uint256"
        },
        {
          "internalType": "uint256",
          "name": "disapprovalsCount",
          "type": "uint256"
        },
        {
          "internalType": "enum CrowdfundingCampaign.ProposalStatus",
          "name": "status",
          "type": "uint8"
        },
        {
          "internalType": "uint256",
          "name": "limitTime",
          "type": "uint256"
        }
      ],
      "stateMutability": "view",
      "type": "function",
      "constant": true
    },
    {
      "inputs": [],
      "name": "remainingContributions",
      "outputs": [
        {
          "internalType": "uint256",
          "name": "",
          "type": "uint256"
        }
      ],
      "stateMutability": "view",
      "type": "function",
      "constant": true
    },
    {
      "inputs": [
        {
          "internalType": "bytes32",
          "name": "_ipfshash",
          "type": "bytes32"
        }
      ],
      "name": "saveProgressUpdate",
      "outputs": [],
      "stateMutability": "nonpayable",
      "type": "function"
    },
    {
      "inputs": [],
      "name": "setActive",
      "outputs": [],
      "stateMutability": "nonpayable",
      "type": "function"
    },
    {
      "inputs": [],
      "name": "status",
      "outputs": [
        {
          "internalType": "enum CrowdfundingCampaign.CampaignStatus",
          "name": "",
          "type": "uint8"
        }
      ],
      "stateMutability": "view",
      "type": "function",
      "constant": true
    },
    {
      "inputs": [
        {
          "internalType": "uint256",
          "name": "_index",
          "type": "uint256"
        }
      ],
      "name": "withdraw",
      "outputs": [],
      "stateMutability": "nonpayable",
      "type": "function"
    },
    {
      "inputs": [
        {
          "internalType": "address",
          "name": "",
          "type": "address"
        }
      ],
      "name": "withdraws",
      "outputs": [
        {
          "internalType": "bool",
          "name": "",
          "type": "bool"
        }
      ],
      "stateMutability": "view",
      "type": "function",
      "constant": true
    },
    {
      "inputs": [
        {
          "internalType": "uint256",
          "name": "_index",
          "type": "uint256"
        }
      ],
      "name": "changeLimitProposal",
      "outputs": [],
      "stateMutability": "nonpayable",
      "type": "function"
    },
    {
      "inputs": [
        {
          "internalType": "uint256",
          "name": "_index",
          "type": "uint256"
        }
      ],
      "name": "changeLimitDestructProposal",
      "outputs": [],
      "stateMutability": "nonpayable",
      "type": "function"
    }
  ],
  "bytecode": "0x60806040523480156200001157600080fd5b50604051620042e9380380620042e9833981810160405281019062000037919062000131565b82828233600060016101000a81548173ffffffffffffffffffffffffffffffffffffffff021916908373ffffffffffffffffffffffffffffffffffffffff160217905550816001819055508260028190555060008060006101000a81548160ff02191690836003811115620000b157620000b0620001cf565b5b021790555060006003819055507f0f627713f9c831a1b079924dedde3308e90d22b754bdd481f9b2165aa0f9dfb981604051620000ef91906200019e565b60405180910390a150505050505062000237565b600081519050620001148162000203565b92915050565b6000815190506200012b816200021d565b92915050565b6000806000606084860312156200014d576200014c620001fe565b5b60006200015d868287016200011a565b935050602062000170868287016200011a565b9250506040620001838682870162000103565b9150509250925092565b6200019881620001bb565b82525050565b6000602082019050620001b560008301846200018d565b92915050565b6000819050919050565b6000819050919050565b7f4e487b7100000000000000000000000000000000000000000000000000000000600052602160045260246000fd5b600080fd5b6200020e81620001bb565b81146200021a57600080fd5b50565b6200022881620001c5565b81146200023457600080fd5b50565b6140a280620002476000396000f3fe60806040526004361061020f5760003560e01c8063923a64fb11610118578063d6290cd7116100a0578063e966670a1161006f578063e966670a14610794578063edbd0db8146107d7578063eeda051814610802578063ef978ecb1461083f578063f049a60c146108685761020f565b8063d6290cd7146106f1578063d7bb99ba14610722578063d853ba731461072c578063e5069726146107575761020f565b8063a7f33715116100e7578063a7f33715146105ef578063b1a6f6a91461061a578063b8f02ae11461065b578063c7f758a814610684578063c8541fe0146106c85761020f565b8063923a64fb1461053557806398951b561461055e57806398e527d314610587578063a230c524146105b25761020f565b80633b047a8f1161019b5780634e69d5601161016a5780634e69d560146104745780634f92c9251461049f57806351c36c1e146104ca578063760a8c2a146104f35780638da5cb5b1461050a5761020f565b80633b047a8f146103a657806340193883146103cf57806342e94c90146103fa57806348179ee5146104375761020f565b8063200d2ed2116101e2578063200d2ed2146102d5578063297f9af0146103005780632e1a7d4d1461032b57806338170718146103545780633912fbe51461037d5761020f565b80630126f61e14610214578063013cf08b1461023f5780630386a016146102815780631ec0b7ba146102aa575b600080fd5b34801561022057600080fd5b50610229610891565b6040516102369190613854565b60405180910390f35b34801561024b57600080fd5b50610266600480360381019061026191906131ae565b610897565b6040516102789695949392919061386f565b60405180910390f35b34801561028d57600080fd5b506102a860048036038101906102a391906131ae565b610910565b005b3480156102b657600080fd5b506102bf610c33565b6040516102cc9190613854565b60405180910390f35b3480156102e157600080fd5b506102ea610c40565b6040516102f79190613619565b60405180910390f35b34801561030c57600080fd5b50610315610c51565b6040516103229190613854565b60405180910390f35b34801561033757600080fd5b50610352600480360381019061034d91906131ae565b610c57565b005b34801561036057600080fd5b5061037b600480360381019061037691906131ae565b610ef3565b005b34801561038957600080fd5b506103a4600480360381019061039f91906131ae565b610f38565b005b3480156103b257600080fd5b506103cd60048036038101906103c89190613181565b611336565b005b3480156103db57600080fd5b506103e4611474565b6040516103f19190613854565b60405180910390f35b34801561040657600080fd5b50610421600480360381019061041c9190613154565b61147a565b60405161042e9190613854565b60405180910390f35b34801561044357600080fd5b5061045e60048036038101906104599190613154565b611492565b60405161046b91906135e3565b60405180910390f35b34801561048057600080fd5b506104896114b2565b6040516104969190613619565b60405180910390f35b3480156104ab57600080fd5b506104b46114c8565b6040516104c19190613854565b60405180910390f35b3480156104d657600080fd5b506104f160048036038101906104ec91906131db565b6114d2565b005b3480156104ff57600080fd5b5061050861171e565b005b34801561051657600080fd5b5061051f6118c6565b60405161052c91906134db565b60405180910390f35b34801561054157600080fd5b5061055c60048036038101906105579190613181565b6118ec565b005b34801561056a57600080fd5b50610585600480360381019061058091906131ae565b611ba8565b005b34801561059357600080fd5b5061059c611f5f565b6040516105a99190613854565b60405180910390f35b3480156105be57600080fd5b506105d960048036038101906105d49190613154565b611f6c565b6040516105e691906135e3565b60405180910390f35b3480156105fb57600080fd5b50610604611fb7565b6040516106119190613854565b60405180910390f35b34801561062657600080fd5b50610641600480360381019061063c91906131ae565b611fbd565b6040516106529594939291906138d0565b60405180910390f35b34801561066757600080fd5b50610682600480360381019061067d91906131ae565b612030565b005b34801561069057600080fd5b506106ab60048036038101906106a691906131ae565b612075565b6040516106bf989796959493929190613565565b60405180910390f35b3480156106d457600080fd5b506106ef60048036038101906106ea91906131ae565b612171565b005b3480156106fd57600080fd5b50610706612528565b60405161071997969594939291906134f6565b60405180910390f35b61072a612589565b005b34801561073857600080fd5b506107416127a8565b60405161074e9190613854565b60405180910390f35b34801561076357600080fd5b5061077e600480360381019061077991906131ae565b6127ae565b60405161078b91906135e3565b60405180910390f35b3480156107a057600080fd5b506107bb60048036038101906107b691906131ae565b61282c565b6040516107ce9796959493929190613923565b60405180910390f35b3480156107e357600080fd5b506107ec61291f565b6040516107f99190613854565b60405180910390f35b34801561080e57600080fd5b50610829600480360381019061082491906131ae565b612929565b60405161083691906135e3565b60405180910390f35b34801561084b57600080fd5b50610866600480360381019061086191906131ae565b6129a7565b005b34801561087457600080fd5b5061088f600480360381019061088a91906131ae565b612d5e565b005b60045481565b600881815481106108a757600080fd5b90600052602060002090600702016000915090508060000154908060010160009054906101000a900473ffffffffffffffffffffffffffffffffffffffff16908060020154908060030154908060050160009054906101000a900460ff16908060060154905086565b6000600660003373ffffffffffffffffffffffffffffffffffffffff1673ffffffffffffffffffffffffffffffffffffffff1681526020019081526020016000205411806109ab5750600060019054906101000a900473ffffffffffffffffffffffffffffffffffffffff1673ffffffffffffffffffffffffffffffffffffffff163373ffffffffffffffffffffffffffffffffffffffff16145b6109ea576040517f08c379a00000000000000000000000000000000000000000000000000000000081526004016109e190613654565b60405180910390fd5b600160038111156109fe576109fd613b41565b5b60008054906101000a900460ff166003811115610a1e57610a1d613b41565b5b14610a5e576040517f08c379a0000000000000000000000000000000000000000000000000000000008152600401610a5590613794565b60405180910390fd5b8060006003811115610a7357610a72613b41565b5b60088281548110610a8757610a86613b70565b5b906000526020600020906007020160050160009054906101000a900460ff166003811115610ab857610ab7613b41565b5b14610af8576040517f08c379a0000000000000000000000000000000000000000000000000000000008152600401610aef90613834565b60405180910390fd5b8160088181548110610b0d57610b0c613b70565b5b9060005260206000209060070201600601544211610b60576040517f08c379a0000000000000000000000000000000000000000000000000000000008152600401610b5790613814565b60405180910390fd5b600060088481548110610b7657610b75613b70565b5b90600052602060002090600702019050806003015481600201541115610bc85760018160050160006101000a81548160ff02191690836003811115610bbe57610bbd613b41565b5b0217905550610bf6565b60028160050160006101000a81548160ff02191690836003811115610bf057610bef613b41565b5b02179055505b7f887777ccf43690541bed9e00b10d0fccfa7520b11875f09847a57b3085d8ab9284604051610c259190613854565b60405180910390a150505050565b6000600980549050905090565b60008054906101000a900460ff1681565b60035481565b600060019054906101000a900473ffffffffffffffffffffffffffffffffffffffff1673ffffffffffffffffffffffffffffffffffffffff163373ffffffffffffffffffffffffffffffffffffffff1614610ce7576040517f08c379a0000000000000000000000000000000000000000000000000000000008152600401610cde906136f4565b60405180910390fd5b60016003811115610cfb57610cfa613b41565b5b60008054906101000a900460ff166003811115610d1b57610d1a613b41565b5b14610d5b576040517f08c379a0000000000000000000000000000000000000000000000000000000008152600401610d5290613794565b60405180910390fd5b8060016003811115610d7057610d6f613b41565b5b60088281548110610d8457610d83613b70565b5b906000526020600020906007020160050160009054906101000a900460ff166003811115610db557610db4613b41565b5b14610df5576040517f08c379a0000000000000000000000000000000000000000000000000000000008152600401610dec90613754565b60405180910390fd5b600060088381548110610e0b57610e0a613b70565b5b9060005260206000209060070201905060038160050160006101000a81548160ff02191690836003811115610e4357610e42613b41565b5b02179055508060010160009054906101000a900473ffffffffffffffffffffffffffffffffffffffff1673ffffffffffffffffffffffffffffffffffffffff166108fc82600001549081150290604051600060405180830381858888f19350505050158015610eb6573d6000803e3d6000fd5b507fff1ae7486a09c668cb67e3cbd767e6eca296bcffbd5171b289407f7d714dc50283604051610ee69190613854565b60405180910390a1505050565b600060098281548110610f0957610f08613b70565b5b9060005260206000209060060201905062093a808160040154610f2c91906139f9565b81600401819055505050565b6000600660003373ffffffffffffffffffffffffffffffffffffffff1673ffffffffffffffffffffffffffffffffffffffff168152602001908152602001600020541180610fd35750600060019054906101000a900473ffffffffffffffffffffffffffffffffffffffff1673ffffffffffffffffffffffffffffffffffffffff163373ffffffffffffffffffffffffffffffffffffffff16145b611012576040517f08c379a000000000000000000000000000000000000000000000000000000000815260040161100990613654565b60405180910390fd5b6001600381111561102657611025613b41565b5b60008054906101000a900460ff16600381111561104657611045613b41565b5b14611086576040517f08c379a000000000000000000000000000000000000000000000000000000000815260040161107d90613794565b60405180910390fd5b806000600381111561109b5761109a613b41565b5b600982815481106110af576110ae613b70565b5b906000526020600020906006020160030160009054906101000a900460ff1660038111156110e0576110df613b41565b5b14611120576040517f08c379a0000000000000000000000000000000000000000000000000000000008152600401611117906136d4565b60405180910390fd5b816009818154811061113557611134613b70565b5b9060005260206000209060060201600401544211611188576040517f08c379a000000000000000000000000000000000000000000000000000000000815260040161117f906136b4565b60405180910390fd5b60006009848154811061119e5761119d613b70565b5b906000526020600020906006020190508060010154816000015411156112cb57600060019054906101000a900473ffffffffffffffffffffffffffffffffffffffff1673ffffffffffffffffffffffffffffffffffffffff168160050160009054906101000a900473ffffffffffffffffffffffffffffffffffffffff1673ffffffffffffffffffffffffffffffffffffffff1614156112675760036000806101000a81548160ff0219169083600381111561125d5761125c613b41565b5b0217905550611292565b60026000806101000a81548160ff0219169083600381111561128c5761128b613b41565b5b02179055505b60018160030160006101000a81548160ff021916908360038111156112ba576112b9613b41565b5b0217905550476005819055506112f9565b60028160030160006101000a81548160ff021916908360038111156112f3576112f2613b41565b5b02179055505b7f9d503d9b21cff0a224a831dabbf5fd2856219a4555ba61c71bd702a02dd717d6846040516113289190613854565b60405180910390a150505050565b600060019054906101000a900473ffffffffffffffffffffffffffffffffffffffff1673ffffffffffffffffffffffffffffffffffffffff163373ffffffffffffffffffffffffffffffffffffffff16146113c6576040517f08c379a00000000000000000000000000000000000000000000000000000000081526004016113bd906136f4565b60405180910390fd5b600160038111156113da576113d9613b41565b5b60008054906101000a900460ff1660038111156113fa576113f9613b41565b5b1461143a576040517f08c379a000000000000000000000000000000000000000000000000000000000815260040161143190613794565b60405180910390fd5b7f2f8af70d91e96a23b8111e37a9117f7cfe341f51c17759c36475a1a7698f0dc38160405161146991906135fe565b60405180910390a150565b60015481565b60066020528060005260406000206000915090505481565b60076020528060005260406000206000915054906101000a900460ff1681565b60008060009054906101000a900460ff16905090565b6000600554905090565b600060019054906101000a900473ffffffffffffffffffffffffffffffffffffffff1673ffffffffffffffffffffffffffffffffffffffff163373ffffffffffffffffffffffffffffffffffffffff1614611562576040517f08c379a0000000000000000000000000000000000000000000000000000000008152600401611559906136f4565b60405180910390fd5b6001600381111561157657611575613b41565b5b60008054906101000a900460ff16600381111561159657611595613b41565b5b146115d6576040517f08c379a00000000000000000000000000000000000000000000000000000000081526004016115cd90613794565b60405180910390fd5b82471015611619576040517f08c379a000000000000000000000000000000000000000000000000000000000815260040161161090613734565b60405180910390fd5b600060086001816001815401808255809150500390600052602060002090600702019050828160010160006101000a81548173ffffffffffffffffffffffffffffffffffffffff021916908373ffffffffffffffffffffffffffffffffffffffff160217905550838160000181905550600081600201819055506000816003018190555060008160050160006101000a81548160ff021916908360038111156116c5576116c4613b41565b5b021790555062093a80426116d991906139a3565b81600601819055507f288a29bca04edb18fcdb2c76d6e3b03b8a137c85c70d1a4cb8aacfa868d605108260405161171091906135fe565b60405180910390a150505050565b600060019054906101000a900473ffffffffffffffffffffffffffffffffffffffff1673ffffffffffffffffffffffffffffffffffffffff163373ffffffffffffffffffffffffffffffffffffffff16146117ae576040517f08c379a00000000000000000000000000000000000000000000000000000000081526004016117a5906136f4565b60405180910390fd5b600060038111156117c2576117c1613b41565b5b60008054906101000a900460ff1660038111156117e2576117e1613b41565b5b14611822576040517f08c379a0000000000000000000000000000000000000000000000000000000008152600401611819906137f4565b60405180910390fd5b600154471015611867576040517f08c379a000000000000000000000000000000000000000000000000000000000815260040161185e90613774565b60405180910390fd5b60016000806101000a81548160ff0219169083600381111561188c5761188b613b41565b5b0217905550476004819055507fe283e942d53c4322165eacc7a597c86cdbc698c96321f57a82b29c615810a69560405160405180910390a1565b600060019054906101000a900473ffffffffffffffffffffffffffffffffffffffff1681565b6000600660003373ffffffffffffffffffffffffffffffffffffffff1673ffffffffffffffffffffffffffffffffffffffff1681526020019081526020016000205411806119875750600060019054906101000a900473ffffffffffffffffffffffffffffffffffffffff1673ffffffffffffffffffffffffffffffffffffffff163373ffffffffffffffffffffffffffffffffffffffff16145b6119c6576040517f08c379a00000000000000000000000000000000000000000000000000000000081526004016119bd90613654565b60405180910390fd5b600160038111156119da576119d9613b41565b5b60008054906101000a900460ff1660038111156119fa576119f9613b41565b5b14611a3a576040517f08c379a0000000000000000000000000000000000000000000000000000000008152600401611a3190613794565b60405180910390fd5b600060096001816001815401808255809150500390600052602060002090600602019050600081600001819055506000816001018190555060008160030160006101000a81548160ff02191690836003811115611a9a57611a99613b41565b5b021790555062093a8042611aae91906139a3565b8160040181905550338160050160006101000a81548173ffffffffffffffffffffffffffffffffffffffff021916908373ffffffffffffffffffffffffffffffffffffffff16021790555060018160020160003373ffffffffffffffffffffffffffffffffffffffff1673ffffffffffffffffffffffffffffffffffffffff16815260200190815260200160002060006101000a81548160ff021916908315150217905550806000016000815480929190611b6890613ac9565b91905055507ff58a42dcfacfd41fd5d3681beb4755c6023d9bd2d5c1ae46e8866ece6463cee782604051611b9c91906135fe565b60405180910390a15050565b6000600660003373ffffffffffffffffffffffffffffffffffffffff1673ffffffffffffffffffffffffffffffffffffffff168152602001908152602001600020541180611c435750600060019054906101000a900473ffffffffffffffffffffffffffffffffffffffff1673ffffffffffffffffffffffffffffffffffffffff163373ffffffffffffffffffffffffffffffffffffffff16145b611c82576040517f08c379a0000000000000000000000000000000000000000000000000000000008152600401611c7990613654565b60405180910390fd5b60016003811115611c9657611c95613b41565b5b60008054906101000a900460ff166003811115611cb657611cb5613b41565b5b14611cf6576040517f08c379a0000000000000000000000000000000000000000000000000000000008152600401611ced90613794565b60405180910390fd5b8060006003811115611d0b57611d0a613b41565b5b60088281548110611d1f57611d1e613b70565b5b906000526020600020906007020160050160009054906101000a900460ff166003811115611d5057611d4f613b41565b5b14611d90576040517f08c379a0000000000000000000000000000000000000000000000000000000008152600401611d8790613834565b60405180910390fd5b8160088181548110611da557611da4613b70565b5b906000526020600020906007020160060154421115611df9576040517f08c379a0000000000000000000000000000000000000000000000000000000008152600401611df090613714565b60405180910390fd5b600060088481548110611e0f57611e0e613b70565b5b906000526020600020906007020190508060040160003373ffffffffffffffffffffffffffffffffffffffff1673ffffffffffffffffffffffffffffffffffffffff16815260200190815260200160002060009054906101000a900460ff1615611eae576040517f08c379a0000000000000000000000000000000000000000000000000000000008152600401611ea5906137b4565b60405180910390fd5b60018160040160003373ffffffffffffffffffffffffffffffffffffffff1673ffffffffffffffffffffffffffffffffffffffff16815260200190815260200160002060006101000a81548160ff021916908315150217905550806002016000815480929190611f1d90613ac9565b91905055507f26b645fdecdf266f3abc5b7ae3e796ffd297febba8bd3a8ad49c68435190fc6984604051611f519190613854565b60405180910390a150505050565b6000600880549050905090565b600080600660008473ffffffffffffffffffffffffffffffffffffffff1673ffffffffffffffffffffffffffffffffffffffff16815260200190815260200160002054119050919050565b60025481565b60098181548110611fcd57600080fd5b90600052602060002090600602016000915090508060000154908060010154908060030160009054906101000a900460ff16908060040154908060050160009054906101000a900473ffffffffffffffffffffffffffffffffffffffff16905085565b60006008828154811061204657612045613b70565b5b9060005260206000209060070201905062093a80816006015461206991906139f9565b81600601819055505050565b600080600080600080600080600060088a8154811061209757612096613b70565b5b9060005260206000209060070201905060008160060154421115905060008260040160003373ffffffffffffffffffffffffffffffffffffffff1673ffffffffffffffffffffffffffffffffffffffff16815260200190815260200160002060009054906101000a900460ff1690508260010160009054906101000a900473ffffffffffffffffffffffffffffffffffffffff168360000154846002015485600301548660050160009054906101000a900460ff16876006015487879a509a509a509a509a509a509a509a50505050919395975091939597565b6000600660003373ffffffffffffffffffffffffffffffffffffffff1673ffffffffffffffffffffffffffffffffffffffff16815260200190815260200160002054118061220c5750600060019054906101000a900473ffffffffffffffffffffffffffffffffffffffff1673ffffffffffffffffffffffffffffffffffffffff163373ffffffffffffffffffffffffffffffffffffffff16145b61224b576040517f08c379a000000000000000000000000000000000000000000000000000000000815260040161224290613654565b60405180910390fd5b6001600381111561225f5761225e613b41565b5b60008054906101000a900460ff16600381111561227f5761227e613b41565b5b146122bf576040517f08c379a00000000000000000000000000000000000000000000000000000000081526004016122b690613794565b60405180910390fd5b80600060038111156122d4576122d3613b41565b5b600882815481106122e8576122e7613b70565b5b906000526020600020906007020160050160009054906101000a900460ff16600381111561231957612318613b41565b5b14612359576040517f08c379a000000000000000000000000000000000000000000000000000000000815260040161235090613834565b60405180910390fd5b816008818154811061236e5761236d613b70565b5b9060005260206000209060070201600601544211156123c2576040517f08c379a00000000000000000000000000000000000000000000000000000000081526004016123b990613714565b60405180910390fd5b6000600884815481106123d8576123d7613b70565b5b906000526020600020906007020190508060040160003373ffffffffffffffffffffffffffffffffffffffff1673ffffffffffffffffffffffffffffffffffffffff16815260200190815260200160002060009054906101000a900460ff1615612477576040517f08c379a000000000000000000000000000000000000000000000000000000000815260040161246e906137b4565b60405180910390fd5b60018160040160003373ffffffffffffffffffffffffffffffffffffffff1673ffffffffffffffffffffffffffffffffffffffff16815260200190815260200160002060006101000a81548160ff0219169083151502179055508060030160008154809291906124e690613ac9565b91905055507f26b645fdecdf266f3abc5b7ae3e796ffd297febba8bd3a8ad49c68435190fc698460405161251a9190613854565b60405180910390a150505050565b60008060008060008060008060019054906101000a900473ffffffffffffffffffffffffffffffffffffffff1660008054906101000a900460ff16600154600254600354600454600554965096509650965096509650965090919293949596565b6000600660003373ffffffffffffffffffffffffffffffffffffffff1673ffffffffffffffffffffffffffffffffffffffff168152602001908152602001600020541480156126265750600060019054906101000a900473ffffffffffffffffffffffffffffffffffffffff1673ffffffffffffffffffffffffffffffffffffffff163373ffffffffffffffffffffffffffffffffffffffff1614155b612665576040517f08c379a000000000000000000000000000000000000000000000000000000000815260040161265c90613694565b60405180910390fd5b6000600381111561267957612678613b41565b5b60008054906101000a900460ff16600381111561269957612698613b41565b5b146126d9576040517f08c379a00000000000000000000000000000000000000000000000000000000081526004016126d0906137f4565b60405180910390fd5b60025434101561271e576040517f08c379a000000000000000000000000000000000000000000000000000000000815260040161271590613634565b60405180910390fd5b34600660003373ffffffffffffffffffffffffffffffffffffffff1673ffffffffffffffffffffffffffffffffffffffff168152602001908152602001600020819055506003600081548092919061277590613ac9565b91905055507f0673e22453ca22ab66c750388a377485c2d57a19fb171f1442f45e933d5e841860405160405180910390a1565b60055481565b600080600983815481106127c5576127c4613b70565b5b906000526020600020906006020190508060020160003373ffffffffffffffffffffffffffffffffffffffff1673ffffffffffffffffffffffffffffffffffffffff16815260200190815260200160002060009054906101000a900460ff16915050919050565b6000806000806000806000806009898154811061284c5761284b613b70565b5b9060005260206000209060060201905060008160040154421115905060008260020160003373ffffffffffffffffffffffffffffffffffffffff1673ffffffffffffffffffffffffffffffffffffffff16815260200190815260200160002060009054906101000a900460ff169050826000015483600101548460030160009054906101000a900460ff16856004015485858860050160009054906101000a900473ffffffffffffffffffffffffffffffffffffffff169950995099509950995099509950505050919395979092949650565b6000600454905090565b600080600883815481106129405761293f613b70565b5b906000526020600020906007020190508060040160003373ffffffffffffffffffffffffffffffffffffffff1673ffffffffffffffffffffffffffffffffffffffff16815260200190815260200160002060009054906101000a900460ff16915050919050565b6000600660003373ffffffffffffffffffffffffffffffffffffffff1673ffffffffffffffffffffffffffffffffffffffff168152602001908152602001600020541180612a425750600060019054906101000a900473ffffffffffffffffffffffffffffffffffffffff1673ffffffffffffffffffffffffffffffffffffffff163373ffffffffffffffffffffffffffffffffffffffff16145b612a81576040517f08c379a0000000000000000000000000000000000000000000000000000000008152600401612a7890613654565b60405180910390fd5b60016003811115612a9557612a94613b41565b5b60008054906101000a900460ff166003811115612ab557612ab4613b41565b5b14612af5576040517f08c379a0000000000000000000000000000000000000000000000000000000008152600401612aec90613794565b60405180910390fd5b8060006003811115612b0a57612b09613b41565b5b60098281548110612b1e57612b1d613b70565b5b906000526020600020906006020160030160009054906101000a900460ff166003811115612b4f57612b4e613b41565b5b14612b8f576040517f08c379a0000000000000000000000000000000000000000000000000000000008152600401612b86906136d4565b60405180910390fd5b8160098181548110612ba457612ba3613b70565b5b906000526020600020906006020160040154421115612bf8576040517f08c379a0000000000000000000000000000000000000000000000000000000008152600401612bef906137d4565b60405180910390fd5b600060098481548110612c0e57612c0d613b70565b5b906000526020600020906006020190508060020160003373ffffffffffffffffffffffffffffffffffffffff1673ffffffffffffffffffffffffffffffffffffffff16815260200190815260200160002060009054906101000a900460ff1615612cad576040517f08c379a0000000000000000000000000000000000000000000000000000000008152600401612ca490613674565b60405180910390fd5b60018160020160003373ffffffffffffffffffffffffffffffffffffffff1673ffffffffffffffffffffffffffffffffffffffff16815260200190815260200160002060006101000a81548160ff021916908315150217905550806001016000815480929190612d1c90613ac9565b91905055507fe409ecf780dc6e9443c4a40dc179eff049a4aad25fac7d4f6024f787b621662284604051612d509190613854565b60405180910390a150505050565b6000600660003373ffffffffffffffffffffffffffffffffffffffff1673ffffffffffffffffffffffffffffffffffffffff168152602001908152602001600020541180612df95750600060019054906101000a900473ffffffffffffffffffffffffffffffffffffffff1673ffffffffffffffffffffffffffffffffffffffff163373ffffffffffffffffffffffffffffffffffffffff16145b612e38576040517f08c379a0000000000000000000000000000000000000000000000000000000008152600401612e2f90613654565b60405180910390fd5b60016003811115612e4c57612e4b613b41565b5b60008054906101000a900460ff166003811115612e6c57612e6b613b41565b5b14612eac576040517f08c379a0000000000000000000000000000000000000000000000000000000008152600401612ea390613794565b60405180910390fd5b8060006003811115612ec157612ec0613b41565b5b60098281548110612ed557612ed4613b70565b5b906000526020600020906006020160030160009054906101000a900460ff166003811115612f0657612f05613b41565b5b14612f46576040517f08c379a0000000000000000000000000000000000000000000000000000000008152600401612f3d906136d4565b60405180910390fd5b8160098181548110612f5b57612f5a613b70565b5b906000526020600020906006020160040154421115612faf576040517f08c379a0000000000000000000000000000000000000000000000000000000008152600401612fa6906137d4565b60405180910390fd5b600060098481548110612fc557612fc4613b70565b5b906000526020600020906006020190508060020160003373ffffffffffffffffffffffffffffffffffffffff1673ffffffffffffffffffffffffffffffffffffffff16815260200190815260200160002060009054906101000a900460ff1615613064576040517f08c379a000000000000000000000000000000000000000000000000000000000815260040161305b90613674565b60405180910390fd5b60018160020160003373ffffffffffffffffffffffffffffffffffffffff1673ffffffffffffffffffffffffffffffffffffffff16815260200190815260200160002060006101000a81548160ff0219169083151502179055508060000160008154809291906130d390613ac9565b91905055507fe409ecf780dc6e9443c4a40dc179eff049a4aad25fac7d4f6024f787b6216622846040516131079190613854565b60405180910390a150505050565b60008135905061312481614027565b92915050565b6000813590506131398161403e565b92915050565b60008135905061314e81614055565b92915050565b60006020828403121561316a57613169613b9f565b5b600061317884828501613115565b91505092915050565b60006020828403121561319757613196613b9f565b5b60006131a58482850161312a565b91505092915050565b6000602082840312156131c4576131c3613b9f565b5b60006131d28482850161313f565b91505092915050565b6000806000606084860312156131f4576131f3613b9f565b5b60006132028682870161313f565b935050602061321386828701613115565b92505060406132248682870161312a565b9150509250925092565b61323781613a2d565b82525050565b61324681613a3f565b82525050565b61325581613a4b565b82525050565b61326481613aa5565b82525050565b61327381613ab7565b82525050565b6000613286601f83613992565b915061329182613ba4565b602082019050919050565b60006132a9601783613992565b91506132b482613bcd565b602082019050919050565b60006132cc603a83613992565b91506132d782613bf6565b604082019050919050565b60006132ef601b83613992565b91506132fa82613c45565b602082019050919050565b6000613312602f83613992565b915061331d82613c6e565b604082019050919050565b6000613335602b83613992565b915061334082613cbd565b604082019050919050565b6000613358601883613992565b915061336382613d0c565b602082019050919050565b600061337b602183613992565b915061338682613d35565b604082019050919050565b600061339e601b83613992565b91506133a982613d84565b602082019050919050565b60006133c1601d83613992565b91506133cc82613dad565b602082019050919050565b60006133e4602283613992565b91506133ef82613dd6565b604082019050919050565b6000613407602283613992565b915061341282613e25565b604082019050919050565b600061342a603183613992565b915061343582613e74565b604082019050919050565b600061344d602a83613992565b915061345882613ec3565b604082019050919050565b6000613470602383613992565b915061347b82613f12565b604082019050919050565b6000613493602683613992565b915061349e82613f61565b604082019050919050565b60006134b6602283613992565b91506134c182613fb0565b604082019050919050565b6134d581613a9b565b82525050565b60006020820190506134f0600083018461322e565b92915050565b600060e08201905061350b600083018a61322e565b613518602083018961325b565b61352560408301886134cc565b61353260608301876134cc565b61353f60808301866134cc565b61354c60a08301856134cc565b61355960c08301846134cc565b98975050505050505050565b60006101008201905061357b600083018b61322e565b613588602083018a6134cc565b61359560408301896134cc565b6135a260608301886134cc565b6135af608083018761326a565b6135bc60a08301866134cc565b6135c960c083018561323d565b6135d660e083018461323d565b9998505050505050505050565b60006020820190506135f8600083018461323d565b92915050565b6000602082019050613613600083018461324c565b92915050565b600060208201905061362e600083018461325b565b92915050565b6000602082019050818103600083015261364d81613279565b9050919050565b6000602082019050818103600083015261366d8161329c565b9050919050565b6000602082019050818103600083015261368d816132bf565b9050919050565b600060208201905081810360008301526136ad816132e2565b9050919050565b600060208201905081810360008301526136cd81613305565b9050919050565b600060208201905081810360008301526136ed81613328565b9050919050565b6000602082019050818103600083015261370d8161334b565b9050919050565b6000602082019050818103600083015261372d8161336e565b9050919050565b6000602082019050818103600083015261374d81613391565b9050919050565b6000602082019050818103600083015261376d816133b4565b9050919050565b6000602082019050818103600083015261378d816133d7565b9050919050565b600060208201905081810360008301526137ad816133fa565b9050919050565b600060208201905081810360008301526137cd8161341d565b9050919050565b600060208201905081810360008301526137ed81613440565b9050919050565b6000602082019050818103600083015261380d81613463565b9050919050565b6000602082019050818103600083015261382d81613486565b9050919050565b6000602082019050818103600083015261384d816134a9565b9050919050565b600060208201905061386960008301846134cc565b92915050565b600060c08201905061388460008301896134cc565b613891602083018861322e565b61389e60408301876134cc565b6138ab60608301866134cc565b6138b8608083018561326a565b6138c560a08301846134cc565b979650505050505050565b600060a0820190506138e560008301886134cc565b6138f260208301876134cc565b6138ff604083018661326a565b61390c60608301856134cc565b613919608083018461322e565b9695505050505050565b600060e082019050613938600083018a6134cc565b61394560208301896134cc565b613952604083018861326a565b61395f60608301876134cc565b61396c608083018661323d565b61397960a083018561323d565b61398660c083018461322e565b98975050505050505050565b600082825260208201905092915050565b60006139ae82613a9b565b91506139b983613a9b565b9250827fffffffffffffffffffffffffffffffffffffffffffffffffffffffffffffffff038211156139ee576139ed613b12565b5b828201905092915050565b6000613a0482613a9b565b9150613a0f83613a9b565b925082821015613a2257613a21613b12565b5b828203905092915050565b6000613a3882613a7b565b9050919050565b60008115159050919050565b6000819050919050565b6000819050613a6382613fff565b919050565b6000819050613a7682614013565b919050565b600073ffffffffffffffffffffffffffffffffffffffff82169050919050565b6000819050919050565b6000613ab082613a55565b9050919050565b6000613ac282613a68565b9050919050565b6000613ad482613a9b565b91507fffffffffffffffffffffffffffffffffffffffffffffffffffffffffffffffff821415613b0757613b06613b12565b5b600182019050919050565b7f4e487b7100000000000000000000000000000000000000000000000000000000600052601160045260246000fd5b7f4e487b7100000000000000000000000000000000000000000000000000000000600052602160045260246000fd5b7f4e487b7100000000000000000000000000000000000000000000000000000000600052603260045260246000fd5b600080fd5b7f54686520636f6e747269627574696f6e20697320696e737566696369656e7400600082015250565b7f53656e646572206973206e6f742061206d656d6265722e000000000000000000600082015250565b7f5468652064657374727563742070726f706f73616c20686173206265656e206160008201527f6c726561647920766f746564206279207468652073656e646572000000000000602082015250565b7f53656e64657220697320616c72656164792061206d656d6265722e0000000000600082015250565b7f5468652064657374727563742070726f706f73616c206973207374696c6c206f60008201527f70656e20666f7220766f74696e672e0000000000000000000000000000000000602082015250565b7f5468652064657374727563742070726f706f73616c206973206e6f74206c6f6e60008201527f676572206163746976652e000000000000000000000000000000000000000000602082015250565b7f53656e646572206973206e6f7420746865206f776e65722e0000000000000000600082015250565b7f5468652070726f706f73616c20697320636c6f736520666f7220766f74696e6760008201527f2e00000000000000000000000000000000000000000000000000000000000000602082015250565b7f54686520666f756e64732061726520696e73756666696369656e740000000000600082015250565b7f5468652070726f706f73616c206973206e6f7420617070726f7665642e000000600082015250565b7f54686520636f6e747269627574696f6e732061726520696e737566666963696560008201527f6e74000000000000000000000000000000000000000000000000000000000000602082015250565b7f5468652063616d706169676e20737461747573206973206e6f7420616374697660008201527f652e000000000000000000000000000000000000000000000000000000000000602082015250565b7f5468652070726f706f73616c20686173206265656e20616c726561647920766f60008201527f746564206279207468652073656e646572000000000000000000000000000000602082015250565b7f5468652064657374727563742070726f706f73616c20697320636c6f7365206660008201527f6f7220766f74696e672e00000000000000000000000000000000000000000000602082015250565b7f5468652063616d706169676e20737461747573206973206e6f7420637265617460008201527f65642e0000000000000000000000000000000000000000000000000000000000602082015250565b7f5468652070726f706f73616c206973207374696c6c206f70656e20666f72207660008201527f6f74696e672e0000000000000000000000000000000000000000000000000000602082015250565b7f5468652070726f706f73616c206973206e6f74206c6f6e67657220616374697660008201527f652e000000000000000000000000000000000000000000000000000000000000602082015250565b600481106140105761400f613b41565b5b50565b6004811061402457614023613b41565b5b50565b61403081613a2d565b811461403b57600080fd5b50565b61404781613a4b565b811461405257600080fd5b50565b61405e81613a9b565b811461406957600080fd5b5056fea26469706673582212200a566f1d77fd1840ec5e0c464a3eba9e857bb9e4387685d98c0af062ec261db864736f6c63430008060033",
  "immutableReferences": {},
  "source": "//SPDX-License-Identifier: GPL-3.0-only\npragma solidity ^0.8.0;\n\nimport \"./CrowdfundingCampaign.sol\";\n\ncontract CrowdfundingCampaignDemo is CrowdfundingCampaign {\n\n    /** @dev Constructor.\n     *  @param _minimunContribution minimum contribution in wei that a person has to make to become a member.\n     *  @param _goal goal in wei that the proyect has to reach to be succesfull.\n     *  @param _ipfshash The url hash of the campaign data previusly stored in IPFS.\n    **/\n    constructor(uint _minimunContribution, uint _goal, bytes32 _ipfshash)\n    CrowdfundingCampaign(_minimunContribution, _goal, _ipfshash) {\n\n    }\n\n    /** @dev Allow to change the proposal limit date to seven days earlier to allow have close proposals in the demo.\n     *  @param _index index of the proposal we want to change the limit date.\n     */\n    function changeLimitProposal(uint _index) public {\n\n        Proposal storage proposal = proposals[_index];\n        proposal.limitTime = proposal.limitTime - 604800;        \n    }\n\n     /** @dev Allow to change the proposal limit date to seven days earlier to allow have close proposals in the demo.\n     *  @param _index index of the proposal we want to change the limit date.\n     */\n    function changeLimitDestructProposal(uint _index) public {\n\n        DestructProposal storage dProposal = destructProposals[_index];\n        dProposal.limitTime = dProposal.limitTime - 604800;        \n    }\n\n\n}",
  "sourcePath": "/home/tati/Desktop/personal/Tesina/semideas-crowdfunding/contracts/CrowdfundingCampaignDemo.sol",
  "compiler": {
    "name": "solc",
    "version": "0.8.6+commit.11564f7e.Emscripten.clang"
  },
  "schemaVersion": "3.4.1",
  "updatedAt": "2021-07-10T02:02:23.634Z",
  "networkType": "ethereum",
  "devdoc": {
    "kind": "dev",
    "methods": {
      "approveProposal(uint256)": {
        "details": "Allow only members to approve an active proposal that they haven't voted before.",
        "params": {
          "_index": "index of the proposal the member wants to approve."
        }
      },
      "aproveDestructProposal(uint256)": {
        "details": "Allow only members to approve an active destruct proposal that they haven't voted before.",
        "params": {
          "_index": "index of the destruct proposal the member wants to approve."
        }
      },
      "changeLimitDestructProposal(uint256)": {
        "details": "Allow to change the proposal limit date to seven days earlier to allow have close proposals in the demo.",
        "params": {
          "_index": "index of the proposal we want to change the limit date."
        }
      },
      "changeLimitProposal(uint256)": {
        "details": "Allow to change the proposal limit date to seven days earlier to allow have close proposals in the demo.",
        "params": {
          "_index": "index of the proposal we want to change the limit date."
        }
      },
      "closeDestructProposal(uint256)": {
        "details": "Allow only members to close an active proposal that already has its voting time over.",
        "params": {
          "_index": "index of the proposal the member wants to approve."
        }
      },
      "closeProposal(uint256)": {
        "details": "Allow only members to close an active proposal that already has its voting time over.",
        "params": {
          "_index": "index of the proposal the member wants to approve."
        }
      },
      "constructor": {
        "details": "Constructor.",
        "params": {
          "_goal": "goal in wei that the proyect has to reach to be succesfull.",
          "_ipfshash": "The url hash of the campaign data previusly stored in IPFS.*",
          "_minimunContribution": "minimum contribution in wei that a person has to make to become a member."
        }
      },
      "contribute()": {
        "details": "Allow not members to contribute with the campaign and be a member of it."
      },
      "createDestructProposal(bytes32)": {
        "details": "Allow only members to create a new proposal to finish de proyect and get the founds back.",
        "params": {
          "_ipfshash": "url hash of the destruct proposal data (description) previusly stored in IPFS."
        }
      },
      "createProposal(uint256,address,bytes32)": {
        "details": "Allow only owner to create a new proposal to get more founds.",
        "params": {
          "_ipfshash": "url hash of the proposal data (description and pictures) previusly stored in IPFS.",
          "_recipient": "address where the founds are going to be after withdraw them.",
          "_value": "founds in wei that the owner want to withdraw."
        }
      },
      "disapproveDestructProposal(uint256)": {
        "details": "Allow only members to disapprove an active destruct proposal that they haven't voted before.",
        "params": {
          "_index": "index of the destruct proposal the member wants to disapprove."
        }
      },
      "disapproveProposal(uint256)": {
        "details": "Allow only members to disapprove an active proposal that they haven't voted before.",
        "params": {
          "_index": "index of the proposal the member wants to disapprove."
        }
      },
      "getCampaignInfo()": {
        "details": "Function to get the data of the campaign"
      },
      "getDestructProposal(uint256)": {
        "details": "Function to get the data of a destruct proposal.",
        "params": {
          "_index": "index of the proposal to return"
        }
      },
      "getDestructProposalsCount()": {
        "details": "Function to get the total number of destruct proposals."
      },
      "getFinalContributions()": {
        "details": "Function to get the finalContributions of the campaign."
      },
      "getProposal(uint256)": {
        "details": "Function to get the data of a proposal.",
        "params": {
          "_index": "index of the proposal to return"
        }
      },
      "getProposalsCount()": {
        "details": "Function to get the total number of proposals."
      },
      "getRemainingContributions()": {
        "details": "Function to get the remainingContributions of the campaign."
      },
      "getStatus()": {
        "details": "Function to get the actual status of the campaign."
      },
      "hasVotedDestructProposal(uint256)": {
        "details": "Function to know if a member has already vot a destruct proposal.",
        "params": {
          "_index": "index of the proposal"
        }
      },
      "hasVotedProposal(uint256)": {
        "details": "Function to know if a member has already vot a proposal.",
        "params": {
          "_index": "index of the proposal"
        }
      },
      "isMember(address)": {
        "details": "Function to return if someone is member."
      },
      "saveProgressUpdate(bytes32)": {
        "details": "Allow only owner to save a new progress Update data ipfs hash.",
        "params": {
          "_ipfshash": "url hash of the progress update data (description and pictures) previusly stored in IPFS."
        }
      },
      "setActive()": {
        "details": "Allow only owner to change the status of the cCampaign from CREATED to ACTIVE."
      },
      "withdraw(uint256)": {
        "details": "Allow only members to close an active proposal that already has its voting time over.",
        "params": {
          "_index": "index of the proposal the member wants to approve."
        }
      }
    },
    "version": 1
  },
  "userdoc": {
    "kind": "user",
    "methods": {},
    "version": 1
  }
}