{
  "contractName": "CrowdFundingCampaingCRUD",
  "abi": [
    {
      "anonymous": false,
      "inputs": [
        {
          "indexed": true,
          "internalType": "address",
          "name": "_manager",
          "type": "address"
        },
        {
          "indexed": true,
          "internalType": "address",
          "name": "_campaingAddress",
          "type": "address"
        }
      ],
      "name": "CampaingCreation",
      "type": "event"
    },
    {
      "inputs": [
        {
          "internalType": "uint256",
          "name": "",
          "type": "uint256"
        }
      ],
      "name": "listOfCFC",
      "outputs": [
        {
          "internalType": "address",
          "name": "",
          "type": "address"
        }
      ],
      "stateMutability": "view",
      "type": "function"
    },
    {
      "inputs": [
        {
          "internalType": "string",
          "name": "_name",
          "type": "string"
        },
        {
          "internalType": "uint256",
          "name": "_minimunContribution",
          "type": "uint256"
        },
        {
          "internalType": "uint256",
          "name": "_goal",
          "type": "uint256"
        }
      ],
      "name": "createCrowdFundingCampaing",
      "outputs": [
        {
          "internalType": "address",
          "name": "",
          "type": "address"
        }
      ],
      "stateMutability": "payable",
      "type": "function"
    },
    {
      "inputs": [],
      "name": "getListOfCFC",
      "outputs": [
        {
          "internalType": "address[]",
          "name": "",
          "type": "address[]"
        }
      ],
      "stateMutability": "view",
      "type": "function"
    }
  ],
  "bytecode": "0x608060405234801561001057600080fd5b506114d4806100206000396000f3fe6080604052600436106100345760003560e01c8063328d043314610039578063bf4df80d146100a5578063f179548d1461010a575b600080fd5b34801561004557600080fd5b5061004e6101c1565b6040518080602001828103825283818151815260200191508051906020019060200280838360005b83811015610091578082015181840152602081019050610076565b505050509050019250505060405180910390f35b3480156100b157600080fd5b506100de600480360360208110156100c857600080fd5b810190808035906020019092919050505061024f565b604051808273ffffffffffffffffffffffffffffffffffffffff16815260200191505060405180910390f35b6101956004803603606081101561012057600080fd5b810190808035906020019064010000000081111561013d57600080fd5b82018360208201111561014f57600080fd5b8035906020019184600183028401116401000000008311171561017157600080fd5b9091929391929390803590602001909291908035906020019092919050505061028b565b604051808273ffffffffffffffffffffffffffffffffffffffff16815260200191505060405180910390f35b6060600080548060200260200160405190810160405280929190818152602001828054801561024557602002820191906000526020600020905b8160009054906101000a900473ffffffffffffffffffffffffffffffffffffffff1673ffffffffffffffffffffffffffffffffffffffff16815260200190600101908083116101fb575b5050505050905090565b6000818154811061025c57fe5b906000526020600020016000915054906101000a900473ffffffffffffffffffffffffffffffffffffffff1681565b600060018585604051808383808284378083019250505092505050908152602001604051809103902060009054906101000a900460ff1615610318576040517f08c379a000000000000000000000000000000000000000000000000000000000815260040180806020018281038252602281526020018061147d6022913960400191505060405180910390fd5b6000858585853360405161032b90610515565b80806020018581526020018481526020018373ffffffffffffffffffffffffffffffffffffffff1681526020018281038252878782818152602001925080828437600081840152601f19601f8201169050808301925050509650505050505050604051809103906000f0801580156103a7573d6000803e3d6000fd5b5090506000819080600181540180825580915050600190039060005260206000200160009091909190916101000a81548173ffffffffffffffffffffffffffffffffffffffff021916908373ffffffffffffffffffffffffffffffffffffffff1602179055506001808787604051808383808284378083019250505092505050908152602001604051809103902060006101000a81548160ff0219169083151502179055508060028787604051808383808284378083019250505092505050908152602001604051809103902060006101000a81548173ffffffffffffffffffffffffffffffffffffffff021916908373ffffffffffffffffffffffffffffffffffffffff1602179055508073ffffffffffffffffffffffffffffffffffffffff163373ffffffffffffffffffffffffffffffffffffffff167f45ef94e0714fd3a0f3dbc143f34f03b959b1d6d2132055e4f5427fb70b17573360405160405180910390a350949350505050565b610f5a806105238339019056fe608060405234801561001057600080fd5b5060405162000f5a38038062000f5a8339818101604052608081101561003557600080fd5b810190808051604051939291908464010000000082111561005557600080fd5b8382019150602082018581111561006b57600080fd5b825186600182028301116401000000008211171561008857600080fd5b8083526020830192505050908051906020019080838360005b838110156100bc5780820151818401526020810190506100a1565b50505050905090810190601f1680156100e95780820380516001836020036101000a031916815260200191505b5060405260200180519060200190929190805190602001909291908051906020019092919050505083600090805190602001906101279291906101fb565b5080600160006101000a81548173ffffffffffffffffffffffffffffffffffffffff021916908373ffffffffffffffffffffffffffffffffffffffff16021790555081600281905550826003819055506001600560008373ffffffffffffffffffffffffffffffffffffffff1673ffffffffffffffffffffffffffffffffffffffff16815260200190815260200160002060006101000a81548160ff0219169083151502179055506001600460006101000a81548160ff021916908315150217905550600060068190555050505050610298565b828054600181600116156101000203166002900490600052602060002090601f016020900481019282601f1061023c57805160ff191683800117855561026a565b8280016001018555821561026a579182015b8281111561026957825182559160200191906001019061024e565b5b509050610277919061027b565b5090565b5b8082111561029457600081600090555060010161027c565b5090565b610cb280620002a86000396000f3fe6080604052600436106100a75760003560e01c8063481c6a7511610064578063481c6a751461033e57806374a9e4401461037f57806398e527d3146103da578063a7f3371514610405578063bb2cfe8014610430578063d7bb99ba1461046b576100a7565b8063013cf08b146100ac57806306fdde031461012857806308ae4b0c146101b8578063297f9af01461021f578063401938831461024a5780634051ddac14610275575b600080fd5b3480156100b857600080fd5b506100e5600480360360208110156100cf57600080fd5b8101908080359060200190929190505050610475565b604051808581526020018473ffffffffffffffffffffffffffffffffffffffff168152602001831515815260200182815260200194505050505060405180910390f35b34801561013457600080fd5b5061013d6104df565b6040518080602001828103825283818151815260200191508051906020019080838360005b8381101561017d578082015181840152602081019050610162565b50505050905090810190601f1680156101aa5780820380516001836020036101000a031916815260200191505b509250505060405180910390f35b3480156101c457600080fd5b50610207600480360360208110156101db57600080fd5b81019080803573ffffffffffffffffffffffffffffffffffffffff16906020019092919050505061057d565b60405180821515815260200191505060405180910390f35b34801561022b57600080fd5b5061023461059d565b6040518082815260200191505060405180910390f35b34801561025657600080fd5b5061025f6105a3565b6040518082815260200191505060405180910390f35b34801561028157600080fd5b5061028a6105a9565b60405180806020018781526020018681526020018581526020018481526020018373ffffffffffffffffffffffffffffffffffffffff168152602001828103825288818151815260200191508051906020019080838360005b838110156102fe5780820151818401526020810190506102e3565b50505050905090810190601f16801561032b5780820380516001836020036101000a031916815260200191505b5097505050505050505060405180910390f35b34801561034a57600080fd5b50610353610694565b604051808273ffffffffffffffffffffffffffffffffffffffff16815260200191505060405180910390f35b34801561038b57600080fd5b506103d8600480360360408110156103a257600080fd5b8101908080359060200190929190803573ffffffffffffffffffffffffffffffffffffffff1690602001909291905050506106ba565b005b3480156103e657600080fd5b506103ef61084f565b6040518082815260200191505060405180910390f35b34801561041157600080fd5b5061041a61085c565b6040518082815260200191505060405180910390f35b34801561043c57600080fd5b506104696004803603602081101561045357600080fd5b8101908080359060200190929190505050610862565b005b610473610a3a565b005b6007818154811061048257fe5b90600052602060002090600402016000915090508060000154908060010160009054906101000a900473ffffffffffffffffffffffffffffffffffffffff16908060010160149054906101000a900460ff16908060020154905084565b60008054600181600116156101000203166002900480601f0160208091040260200160405190810160405280929190818152602001828054600181600116156101000203166002900480156105755780601f1061054a57610100808354040283529160200191610575565b820191906000526020600020905b81548152906001019060200180831161055857829003601f168201915b505050505081565b60056020528060005260406000206000915054906101000a900460ff1681565b60065481565b60025481565b606060008060008060008060025460035447600780549050600160009054906101000a900473ffffffffffffffffffffffffffffffffffffffff16858054600181600116156101000203166002900480601f0160208091040260200160405190810160405280929190818152602001828054600181600116156101000203166002900480156106795780601f1061064e57610100808354040283529160200191610679565b820191906000526020600020905b81548152906001019060200180831161065c57829003601f168201915b50505050509550955095509550955095509550909192939495565b600160009054906101000a900473ffffffffffffffffffffffffffffffffffffffff1681565b600560003373ffffffffffffffffffffffffffffffffffffffff1673ffffffffffffffffffffffffffffffffffffffff16815260200190815260200160002060009054906101000a900460ff1661075c576040517f08c379a0000000000000000000000000000000000000000000000000000000008152600401808060200182810382526022815260200180610c5b6022913960400191505060405180910390fd5b610764610bc1565b60405180608001604052808481526020018373ffffffffffffffffffffffffffffffffffffffff1681526020016000151581526020016000815250905060078190806001815401808255809150506001900390600052602060002090600402016000909190919091506000820151816000015560208201518160010160006101000a81548173ffffffffffffffffffffffffffffffffffffffff021916908373ffffffffffffffffffffffffffffffffffffffff16021790555060408201518160010160146101000a81548160ff021916908315150217905550606082015181600201555050505050565b6000600780549050905090565b60035481565b600560003373ffffffffffffffffffffffffffffffffffffffff1673ffffffffffffffffffffffffffffffffffffffff16815260200190815260200160002060009054906101000a900460ff16610904576040517f08c379a0000000000000000000000000000000000000000000000000000000008152600401808060200182810382526022815260200180610c5b6022913960400191505060405180910390fd5b60006007828154811061091357fe5b906000526020600020906004020190508060030160003373ffffffffffffffffffffffffffffffffffffffff1673ffffffffffffffffffffffffffffffffffffffff16815260200190815260200160002060009054906101000a900460ff16156109c8576040517f08c379a0000000000000000000000000000000000000000000000000000000008152600401808060200182810382526033815260200180610c026033913960400191505060405180910390fd5b60018160030160003373ffffffffffffffffffffffffffffffffffffffff1673ffffffffffffffffffffffffffffffffffffffff16815260200190815260200160002060006101000a81548160ff02191690831515021790555080600201600081548092919060010191905055505050565b600560003373ffffffffffffffffffffffffffffffffffffffff1673ffffffffffffffffffffffffffffffffffffffff16815260200190815260200160002060009054906101000a900460ff1615610add576040517f08c379a0000000000000000000000000000000000000000000000000000000008152600401808060200182810382526026815260200180610c356026913960400191505060405180910390fd5b600354341015610b55576040517f08c379a000000000000000000000000000000000000000000000000000000000815260040180806020018281038252601f8152602001807f54686520636f6e747269627574696f6e20697320696e737566696369656e740081525060200191505060405180910390fd5b6001600560003373ffffffffffffffffffffffffffffffffffffffff1673ffffffffffffffffffffffffffffffffffffffff16815260200190815260200160002060006101000a81548160ff021916908315150217905550600660008154809291906001019190505550565b604051806080016040528060008152602001600073ffffffffffffffffffffffffffffffffffffffff16815260200160001515815260200160008152509056fe5468652070726f706f73616c206973206265656e20616c726561647920617070726f766564206279207468652073656e64657253656e64657220697320616c72656164792061206d656d62657220617574686f72697a65642e53656e646572206973206e6f742061206d656d62657220617574686f72697a65642ea26469706673582212201f3281cab073dfcebd69e7cab44f59e803fab99d2089a9da1022b8407481a45564736f6c634300060c003359612068617920756e612063616d7061c3b16120636f6e20657365206e6f6d627265a264697066735822122037be00420bda30b291195700d707d9c1495040e4b8ecf427cecc05550ce1039b64736f6c634300060c0033",
  "source": "pragma solidity ^0.6.0;\n\nimport \"./CrowdFundingCampaing.sol\";\n\ncontract CrowdFundingCampaingCRUD {\n\n     /**\n     * Event for campaing creation\n     * @param _manager who paid for the tokens\n     * @param _campaingAddress address of new campaing\n     */\n    \n    event CampaingCreation(address indexed _manager, address indexed _campaingAddress);\n\n\n\n    address[] public listOfCFC;\n    mapping(string => bool) names;\n    mapping(string => address) campaingsByName;\n\n\n    function createCrowdFundingCampaing(string calldata _name, uint _minimunContribution, uint _goal)\n    external payable returns (address) {\n\n        require(\n            !names[_name],\n            \"Ya hay una campa単a con ese nombre\"\n        );\n\n        address newCFC = address(new CrowdFundingCampaing(_name, _minimunContribution, _goal, msg.sender));\n\n        listOfCFC.push(newCFC);\n        names[_name] = true;\n        campaingsByName[_name] = newCFC;\n\n        emit CampaingCreation(msg.sender, newCFC);\n    }\n\n    function getListOfCFC() public view returns (address[] memory){\n        return listOfCFC;\n    }\n\n}\n",
  "sourcePath": "/home/tati/Desktop/personal/Tesina/tesina-crowdfunding/contracts/CrowdFoundingCampaingCRUD.sol",
  "compiler": {
    "name": "solc",
    "version": "0.6.12+commit.27d51765.Emscripten.clang"
  },
  "schemaVersion": "3.0.23",
  "updatedAt": "2021-02-02T23:10:10.714Z",
  "devdoc": {
    "events": {
      "CampaingCreation(address,address)": {
        "params": {
          "_campaingAddress": "address of new campaing",
          "_manager": "who paid for the tokens"
        }
      }
    },
    "kind": "dev",
    "methods": {},
    "version": 1
  },
  "userdoc": {
    "events": {
      "CampaingCreation(address,address)": {
        "notice": "Event for campaing creation"
      }
    },
    "kind": "user",
    "methods": {},
    "version": 1
  }
}