{
  "contractName": "CrowdfundingCampaignDemo",
  "abi": [
    {
      "inputs": [
        {
          "internalType": "uint256",
          "name": "_minimunContribution",
          "type": "uint256"
        },
        {
          "internalType": "uint256",
          "name": "_goal",
          "type": "uint256"
        },
        {
          "internalType": "bytes32",
          "name": "_ipfshash",
          "type": "bytes32"
        }
      ],
      "stateMutability": "nonpayable",
      "type": "constructor"
    },
    {
      "anonymous": false,
      "inputs": [
        {
          "indexed": true,
          "internalType": "bytes32",
          "name": "_ipfshash",
          "type": "bytes32"
        }
      ],
      "name": "CampaignCreated",
      "type": "event"
    },
    {
      "anonymous": false,
      "inputs": [],
      "name": "ChangeStatusCampaign",
      "type": "event"
    },
    {
      "anonymous": false,
      "inputs": [
        {
          "indexed": false,
          "internalType": "uint256",
          "name": "_index",
          "type": "uint256"
        }
      ],
      "name": "DestructProposalClosed",
      "type": "event"
    },
    {
      "anonymous": false,
      "inputs": [
        {
          "indexed": true,
          "internalType": "bytes32",
          "name": "_ipfshash",
          "type": "bytes32"
        }
      ],
      "name": "DestructProposalCreated",
      "type": "event"
    },
    {
      "anonymous": false,
      "inputs": [],
      "name": "NewContribution",
      "type": "event"
    },
    {
      "anonymous": false,
      "inputs": [
        {
          "indexed": true,
          "internalType": "bytes32",
          "name": "_ipfshash",
          "type": "bytes32"
        }
      ],
      "name": "ProgressUpdate",
      "type": "event"
    },
    {
      "anonymous": false,
      "inputs": [
        {
          "indexed": false,
          "internalType": "uint256",
          "name": "_index",
          "type": "uint256"
        }
      ],
      "name": "ProposalClosed",
      "type": "event"
    },
    {
      "anonymous": false,
      "inputs": [
        {
          "indexed": true,
          "internalType": "bytes32",
          "name": "_ipfshash",
          "type": "bytes32"
        }
      ],
      "name": "ProposalCreated",
      "type": "event"
    },
    {
      "anonymous": false,
      "inputs": [
        {
          "indexed": false,
          "internalType": "uint256",
          "name": "_index",
          "type": "uint256"
        }
      ],
      "name": "ProposalVoted",
      "type": "event"
    },
    {
      "anonymous": false,
      "inputs": [
        {
          "indexed": false,
          "internalType": "uint256",
          "name": "_index",
          "type": "uint256"
        }
      ],
      "name": "ProposalWithdraw",
      "type": "event"
    },
    {
      "inputs": [
        {
          "internalType": "uint256",
          "name": "_index",
          "type": "uint256"
        }
      ],
      "name": "approveProposal",
      "outputs": [],
      "stateMutability": "nonpayable",
      "type": "function"
    },
    {
      "inputs": [
        {
          "internalType": "uint256",
          "name": "_index",
          "type": "uint256"
        }
      ],
      "name": "aproveDestructProposal",
      "outputs": [],
      "stateMutability": "nonpayable",
      "type": "function"
    },
    {
      "inputs": [
        {
          "internalType": "uint256",
          "name": "_index",
          "type": "uint256"
        }
      ],
      "name": "closeDestructProposal",
      "outputs": [],
      "stateMutability": "nonpayable",
      "type": "function"
    },
    {
      "inputs": [
        {
          "internalType": "uint256",
          "name": "_index",
          "type": "uint256"
        }
      ],
      "name": "closeProposal",
      "outputs": [],
      "stateMutability": "nonpayable",
      "type": "function"
    },
    {
      "inputs": [],
      "name": "contribute",
      "outputs": [],
      "stateMutability": "payable",
      "type": "function"
    },
    {
      "inputs": [
        {
          "internalType": "address",
          "name": "",
          "type": "address"
        }
      ],
      "name": "contributions",
      "outputs": [
        {
          "internalType": "uint256",
          "name": "",
          "type": "uint256"
        }
      ],
      "stateMutability": "view",
      "type": "function"
    },
    {
      "inputs": [
        {
          "internalType": "bytes32",
          "name": "_ipfshash",
          "type": "bytes32"
        }
      ],
      "name": "createDestructProposal",
      "outputs": [],
      "stateMutability": "nonpayable",
      "type": "function"
    },
    {
      "inputs": [
        {
          "internalType": "uint256",
          "name": "_value",
          "type": "uint256"
        },
        {
          "internalType": "address",
          "name": "_recipient",
          "type": "address"
        },
        {
          "internalType": "bytes32",
          "name": "_ipfshash",
          "type": "bytes32"
        }
      ],
      "name": "createProposal",
      "outputs": [],
      "stateMutability": "nonpayable",
      "type": "function"
    },
    {
      "inputs": [
        {
          "internalType": "uint256",
          "name": "",
          "type": "uint256"
        }
      ],
      "name": "destructProposals",
      "outputs": [
        {
          "internalType": "uint256",
          "name": "approvalsCount",
          "type": "uint256"
        },
        {
          "internalType": "uint256",
          "name": "disapprovalsCount",
          "type": "uint256"
        },
        {
          "internalType": "enum CrowdfundingCampaign.ProposalStatus",
          "name": "status",
          "type": "uint8"
        },
        {
          "internalType": "uint256",
          "name": "limitTime",
          "type": "uint256"
        }
      ],
      "stateMutability": "view",
      "type": "function"
    },
    {
      "inputs": [
        {
          "internalType": "uint256",
          "name": "_index",
          "type": "uint256"
        }
      ],
      "name": "disapproveDestructProposal",
      "outputs": [],
      "stateMutability": "nonpayable",
      "type": "function"
    },
    {
      "inputs": [
        {
          "internalType": "uint256",
          "name": "_index",
          "type": "uint256"
        }
      ],
      "name": "disapproveProposal",
      "outputs": [],
      "stateMutability": "nonpayable",
      "type": "function"
    },
    {
      "inputs": [],
      "name": "getCampaignInfo",
      "outputs": [
        {
          "internalType": "address",
          "name": "",
          "type": "address"
        },
        {
          "internalType": "enum CrowdfundingCampaign.CampaignStatus",
          "name": "",
          "type": "uint8"
        },
        {
          "internalType": "uint256",
          "name": "",
          "type": "uint256"
        },
        {
          "internalType": "uint256",
          "name": "",
          "type": "uint256"
        },
        {
          "internalType": "uint256",
          "name": "",
          "type": "uint256"
        }
      ],
      "stateMutability": "view",
      "type": "function"
    },
    {
      "inputs": [
        {
          "internalType": "uint256",
          "name": "_index",
          "type": "uint256"
        }
      ],
      "name": "getDestructProposal",
      "outputs": [
        {
          "internalType": "uint256",
          "name": "",
          "type": "uint256"
        },
        {
          "internalType": "uint256",
          "name": "",
          "type": "uint256"
        },
        {
          "internalType": "enum CrowdfundingCampaign.ProposalStatus",
          "name": "",
          "type": "uint8"
        },
        {
          "internalType": "uint256",
          "name": "",
          "type": "uint256"
        },
        {
          "internalType": "bool",
          "name": "",
          "type": "bool"
        },
        {
          "internalType": "bool",
          "name": "",
          "type": "bool"
        }
      ],
      "stateMutability": "view",
      "type": "function"
    },
    {
      "inputs": [],
      "name": "getDestructProposalsCount",
      "outputs": [
        {
          "internalType": "uint256",
          "name": "",
          "type": "uint256"
        }
      ],
      "stateMutability": "view",
      "type": "function"
    },
    {
      "inputs": [
        {
          "internalType": "uint256",
          "name": "_index",
          "type": "uint256"
        }
      ],
      "name": "getProposal",
      "outputs": [
        {
          "internalType": "address",
          "name": "",
          "type": "address"
        },
        {
          "internalType": "uint256",
          "name": "",
          "type": "uint256"
        },
        {
          "internalType": "uint256",
          "name": "",
          "type": "uint256"
        },
        {
          "internalType": "uint256",
          "name": "",
          "type": "uint256"
        },
        {
          "internalType": "enum CrowdfundingCampaign.ProposalStatus",
          "name": "",
          "type": "uint8"
        },
        {
          "internalType": "uint256",
          "name": "",
          "type": "uint256"
        },
        {
          "internalType": "bool",
          "name": "",
          "type": "bool"
        },
        {
          "internalType": "bool",
          "name": "",
          "type": "bool"
        }
      ],
      "stateMutability": "view",
      "type": "function"
    },
    {
      "inputs": [],
      "name": "getProposalsCount",
      "outputs": [
        {
          "internalType": "uint256",
          "name": "",
          "type": "uint256"
        }
      ],
      "stateMutability": "view",
      "type": "function"
    },
    {
      "inputs": [],
      "name": "getStatus",
      "outputs": [
        {
          "internalType": "enum CrowdfundingCampaign.CampaignStatus",
          "name": "",
          "type": "uint8"
        }
      ],
      "stateMutability": "view",
      "type": "function"
    },
    {
      "inputs": [],
      "name": "goal",
      "outputs": [
        {
          "internalType": "uint256",
          "name": "",
          "type": "uint256"
        }
      ],
      "stateMutability": "view",
      "type": "function"
    },
    {
      "inputs": [
        {
          "internalType": "uint256",
          "name": "_index",
          "type": "uint256"
        }
      ],
      "name": "hasVotedDestructProposal",
      "outputs": [
        {
          "internalType": "bool",
          "name": "",
          "type": "bool"
        }
      ],
      "stateMutability": "view",
      "type": "function"
    },
    {
      "inputs": [
        {
          "internalType": "uint256",
          "name": "_index",
          "type": "uint256"
        }
      ],
      "name": "hasVotedProposal",
      "outputs": [
        {
          "internalType": "bool",
          "name": "",
          "type": "bool"
        }
      ],
      "stateMutability": "view",
      "type": "function"
    },
    {
      "inputs": [
        {
          "internalType": "address",
          "name": "_address",
          "type": "address"
        }
      ],
      "name": "isMember",
      "outputs": [
        {
          "internalType": "bool",
          "name": "",
          "type": "bool"
        }
      ],
      "stateMutability": "view",
      "type": "function"
    },
    {
      "inputs": [],
      "name": "membersCount",
      "outputs": [
        {
          "internalType": "uint256",
          "name": "",
          "type": "uint256"
        }
      ],
      "stateMutability": "view",
      "type": "function"
    },
    {
      "inputs": [],
      "name": "minimunContribution",
      "outputs": [
        {
          "internalType": "uint256",
          "name": "",
          "type": "uint256"
        }
      ],
      "stateMutability": "view",
      "type": "function"
    },
    {
      "inputs": [],
      "name": "owner",
      "outputs": [
        {
          "internalType": "address",
          "name": "",
          "type": "address"
        }
      ],
      "stateMutability": "view",
      "type": "function"
    },
    {
      "inputs": [
        {
          "internalType": "uint256",
          "name": "",
          "type": "uint256"
        }
      ],
      "name": "proposals",
      "outputs": [
        {
          "internalType": "uint256",
          "name": "value",
          "type": "uint256"
        },
        {
          "internalType": "address",
          "name": "recipient",
          "type": "address"
        },
        {
          "internalType": "uint256",
          "name": "approvalsCount",
          "type": "uint256"
        },
        {
          "internalType": "uint256",
          "name": "disapprovalsCount",
          "type": "uint256"
        },
        {
          "internalType": "enum CrowdfundingCampaign.ProposalStatus",
          "name": "status",
          "type": "uint8"
        },
        {
          "internalType": "uint256",
          "name": "limitTime",
          "type": "uint256"
        }
      ],
      "stateMutability": "view",
      "type": "function"
    },
    {
      "inputs": [
        {
          "internalType": "bytes32",
          "name": "_ipfshash",
          "type": "bytes32"
        }
      ],
      "name": "saveProgressUpdate",
      "outputs": [],
      "stateMutability": "nonpayable",
      "type": "function"
    },
    {
      "inputs": [],
      "name": "setActive",
      "outputs": [],
      "stateMutability": "nonpayable",
      "type": "function"
    },
    {
      "inputs": [],
      "name": "status",
      "outputs": [
        {
          "internalType": "enum CrowdfundingCampaign.CampaignStatus",
          "name": "",
          "type": "uint8"
        }
      ],
      "stateMutability": "view",
      "type": "function"
    },
    {
      "inputs": [
        {
          "internalType": "uint256",
          "name": "_index",
          "type": "uint256"
        }
      ],
      "name": "withdraw",
      "outputs": [],
      "stateMutability": "nonpayable",
      "type": "function"
    },
    {
      "inputs": [
        {
          "internalType": "uint256",
          "name": "_index",
          "type": "uint256"
        }
      ],
      "name": "changeLimitProposal",
      "outputs": [],
      "stateMutability": "nonpayable",
      "type": "function"
    },
    {
      "inputs": [
        {
          "internalType": "uint256",
          "name": "_index",
          "type": "uint256"
        }
      ],
      "name": "changeLimitDestructProposal",
      "outputs": [],
      "stateMutability": "nonpayable",
      "type": "function"
    }
  ],
  "bytecode": "0x608060405234801561001057600080fd5b50604051620037b7380380620037b78339818101604052606081101561003557600080fd5b8101908080519060200190929190805190602001909291908051906020019092919050505082828233600060016101000a81548173ffffffffffffffffffffffffffffffffffffffff021916908373ffffffffffffffffffffffffffffffffffffffff160217905550816001819055508260028190555060008060006101000a81548160ff021916908360038111156100ca57fe5b02179055506000600581905550807f0f627713f9c831a1b079924dedde3308e90d22b754bdd481f9b2165aa0f9dfb960405160405180910390a250505050505061369d806200011a6000396000f3fe6080604052600436106101d85760003560e01c8063923a64fb11610102578063c8541fe011610095578063e966670a11610064578063e966670a14610926578063eeda0518146109a7578063ef978ecb146109f8578063f049a60c14610a33576101d8565b8063c8541fe014610828578063d6290cd714610863578063d7bb99ba146108cb578063e5069726146108d5576101d8565b8063a7f33715116100d1578063a7f33715146106ae578063b1a6f6a9146106d9578063b8f02ae114610748578063c7f758a814610783576101d8565b8063923a64fb146105a657806398951b56146105e157806398e527d31461061c578063a230c52414610647576101d8565b80633912fbe51161017a5780634e69d560116101495780634e69d560146104b357806351c36c1e146104e9578063760a8c2a1461054e5780638da5cb5b14610565576101d8565b80633912fbe5146103ad5780633b047a8f146103e8578063401938831461042357806342e94c901461044e576101d8565b8063200d2ed2116101b6578063200d2ed2146102d6578063297f9af01461030c5780632e1a7d4d146103375780633817071814610372576101d8565b8063013cf08b146101dd5780630386a016146102705780631ec0b7ba146102ab575b600080fd5b3480156101e957600080fd5b506102166004803603602081101561020057600080fd5b8101908080359060200190929190505050610a6e565b604051808781526020018673ffffffffffffffffffffffffffffffffffffffff16815260200185815260200184815260200183600381111561025457fe5b8152602001828152602001965050505050505060405180910390f35b34801561027c57600080fd5b506102a96004803603602081101561029357600080fd5b8101908080359060200190929190505050610ae4565b005b3480156102b757600080fd5b506102c0610e3d565b6040518082815260200191505060405180910390f35b3480156102e257600080fd5b506102eb610e4a565b604051808260038111156102fb57fe5b815260200191505060405180910390f35b34801561031857600080fd5b50610321610e5b565b6040518082815260200191505060405180910390f35b34801561034357600080fd5b506103706004803603602081101561035a57600080fd5b8101908080359060200190929190505050610e61565b005b34801561037e57600080fd5b506103ab6004803603602081101561039557600080fd5b8101908080359060200190929190505050611148565b005b3480156103b957600080fd5b506103e6600480360360208110156103d057600080fd5b810190808035906020019092919050505061117d565b005b3480156103f457600080fd5b506104216004803603602081101561040b57600080fd5b81019080803590602001909291905050506114d6565b005b34801561042f57600080fd5b50610438611645565b6040518082815260200191505060405180910390f35b34801561045a57600080fd5b5061049d6004803603602081101561047157600080fd5b81019080803573ffffffffffffffffffffffffffffffffffffffff16906020019092919050505061164b565b6040518082815260200191505060405180910390f35b3480156104bf57600080fd5b506104c8611663565b604051808260038111156104d857fe5b815260200191505060405180910390f35b3480156104f557600080fd5b5061054c6004803603606081101561050c57600080fd5b8101908080359060200190929190803573ffffffffffffffffffffffffffffffffffffffff16906020019092919080359060200190929190505050611679565b005b34801561055a57600080fd5b50610563611987565b005b34801561057157600080fd5b5061057a611b72565b604051808273ffffffffffffffffffffffffffffffffffffffff16815260200191505060405180910390f35b3480156105b257600080fd5b506105df600480360360208110156105c957600080fd5b8101908080359060200190929190505050611b98565b005b3480156105ed57600080fd5b5061061a6004803603602081101561060457600080fd5b8101908080359060200190929190505050611e05565b005b34801561062857600080fd5b50610631612210565b6040518082815260200191505060405180910390f35b34801561065357600080fd5b506106966004803603602081101561066a57600080fd5b81019080803573ffffffffffffffffffffffffffffffffffffffff16906020019092919050505061221d565b60405180821515815260200191505060405180910390f35b3480156106ba57600080fd5b506106c3612268565b6040518082815260200191505060405180910390f35b3480156106e557600080fd5b50610712600480360360208110156106fc57600080fd5b810190808035906020019092919050505061226e565b6040518085815260200184815260200183600381111561072e57fe5b815260200182815260200194505050505060405180910390f35b34801561075457600080fd5b506107816004803603602081101561076b57600080fd5b81019080803590602001909291905050506122b8565b005b34801561078f57600080fd5b506107bc600480360360208110156107a657600080fd5b81019080803590602001909291905050506122ed565b604051808973ffffffffffffffffffffffffffffffffffffffff1681526020018881526020018781526020018681526020018560038111156107fa57fe5b8152602001848152602001831515815260200182151581526020019850505050505050505060405180910390f35b34801561083457600080fd5b506108616004803603602081101561084b57600080fd5b81019080803590602001909291905050506123e2565b005b34801561086f57600080fd5b506108786127ed565b604051808673ffffffffffffffffffffffffffffffffffffffff1681526020018560038111156108a457fe5b81526020018481526020018381526020018281526020019550505050505060405180910390f35b6108d361283f565b005b3480156108e157600080fd5b5061090e600480360360208110156108f857600080fd5b8101908080359060200190929190505050612ac6565b60405180821515815260200191505060405180910390f35b34801561093257600080fd5b5061095f6004803603602081101561094957600080fd5b8101908080359060200190929190505050612b3d565b6040518087815260200186815260200185600381111561097b57fe5b815260200184815260200183151581526020018215158152602001965050505050505060405180910390f35b3480156109b357600080fd5b506109e0600480360360208110156109ca57600080fd5b8101908080359060200190929190505050612bff565b60405180821515815260200191505060405180910390f35b348015610a0457600080fd5b50610a3160048036036020811015610a1b57600080fd5b8101908080359060200190929190505050612c76565b005b348015610a3f57600080fd5b50610a6c60048036036020811015610a5657600080fd5b810190808035906020019092919050505061304a565b005b60068181548110610a7b57fe5b90600052602060002090600702016000915090508060000154908060010160009054906101000a900473ffffffffffffffffffffffffffffffffffffffff16908060020154908060030154908060050160009054906101000a900460ff16908060060154905086565b6000600360003373ffffffffffffffffffffffffffffffffffffffff1673ffffffffffffffffffffffffffffffffffffffff168152602001908152602001600020541180610b7f5750600060019054906101000a900473ffffffffffffffffffffffffffffffffffffffff1673ffffffffffffffffffffffffffffffffffffffff163373ffffffffffffffffffffffffffffffffffffffff16145b610bf1576040517f08c379a00000000000000000000000000000000000000000000000000000000081526004018080602001828103825260178152602001807f53656e646572206973206e6f742061206d656d6265722e00000000000000000081525060200191505060405180910390fd5b60016003811115610bfe57fe5b60008054906101000a900460ff166003811115610c1757fe5b14610c6d576040517f08c379a00000000000000000000000000000000000000000000000000000000081526004018080602001828103825260228152602001806135806022913960400191505060405180910390fd5b8060006003811115610c7b57fe5b60068281548110610c8857fe5b906000526020600020906007020160050160009054906101000a900460ff166003811115610cb257fe5b14610d08576040517f08c379a00000000000000000000000000000000000000000000000000000000081526004018080602001828103825260228152602001806136466022913960400191505060405180910390fd5b8160068181548110610d1657fe5b9060005260206000209060070201600601544211610d7f576040517f08c379a00000000000000000000000000000000000000000000000000000000081526004018080602001828103825260268152602001806136206026913960400191505060405180910390fd5b600060068481548110610d8e57fe5b90600052602060002090600702019050806003015481600201541115610dd95760018160050160006101000a81548160ff02191690836003811115610dcf57fe5b0217905550610e00565b60028160050160006101000a81548160ff02191690836003811115610dfa57fe5b02179055505b7f887777ccf43690541bed9e00b10d0fccfa7520b11875f09847a57b3085d8ab92846040518082815260200191505060405180910390a150505050565b6000600780549050905090565b60008054906101000a900460ff1681565b60055481565b600060019054906101000a900473ffffffffffffffffffffffffffffffffffffffff1673ffffffffffffffffffffffffffffffffffffffff163373ffffffffffffffffffffffffffffffffffffffff1614610f24576040517f08c379a00000000000000000000000000000000000000000000000000000000081526004018080602001828103825260188152602001807f53656e646572206973206e6f7420746865206f776e65722e000000000000000081525060200191505060405180910390fd5b60016003811115610f3157fe5b60008054906101000a900460ff166003811115610f4a57fe5b14610fa0576040517f08c379a00000000000000000000000000000000000000000000000000000000081526004018080602001828103825260228152602001806135806022913960400191505060405180910390fd5b8060016003811115610fae57fe5b60068281548110610fbb57fe5b906000526020600020906007020160050160009054906101000a900460ff166003811115610fe557fe5b14611058576040517f08c379a000000000000000000000000000000000000000000000000000000000815260040180806020018281038252601d8152602001807f5468652070726f706f73616c206973206e6f7420617070726f7665642e00000081525060200191505060405180910390fd5b60006006838154811061106757fe5b9060005260206000209060070201905060038160050160006101000a81548160ff0219169083600381111561109857fe5b02179055508060010160009054906101000a900473ffffffffffffffffffffffffffffffffffffffff1673ffffffffffffffffffffffffffffffffffffffff166108fc82600001549081150290604051600060405180830381858888f1935050505015801561110b573d6000803e3d6000fd5b507fff1ae7486a09c668cb67e3cbd767e6eca296bcffbd5171b289407f7d714dc502836040518082815260200191505060405180910390a1505050565b60006007828154811061115757fe5b9060005260206000209060050201905062093a8081600401540381600401819055505050565b6000600360003373ffffffffffffffffffffffffffffffffffffffff1673ffffffffffffffffffffffffffffffffffffffff1681526020019081526020016000205411806112185750600060019054906101000a900473ffffffffffffffffffffffffffffffffffffffff1673ffffffffffffffffffffffffffffffffffffffff163373ffffffffffffffffffffffffffffffffffffffff16145b61128a576040517f08c379a00000000000000000000000000000000000000000000000000000000081526004018080602001828103825260178152602001807f53656e646572206973206e6f742061206d656d6265722e00000000000000000081525060200191505060405180910390fd5b6001600381111561129757fe5b60008054906101000a900460ff1660038111156112b057fe5b14611306576040517f08c379a00000000000000000000000000000000000000000000000000000000081526004018080602001828103825260228152602001806135806022913960400191505060405180910390fd5b806000600381111561131457fe5b6007828154811061132157fe5b906000526020600020906005020160030160009054906101000a900460ff16600381111561134b57fe5b146113a1576040517f08c379a000000000000000000000000000000000000000000000000000000000815260040180806020018281038252602b815260200180613512602b913960400191505060405180910390fd5b81600781815481106113af57fe5b9060005260206000209060050201600401544211611418576040517f08c379a000000000000000000000000000000000000000000000000000000000815260040180806020018281038252602f8152602001806134e3602f913960400191505060405180910390fd5b60006007848154811061142757fe5b906000526020600020906005020190508060010154816000015411156114725760018160030160006101000a81548160ff0219169083600381111561146857fe5b0217905550611499565b60028160030160006101000a81548160ff0219169083600381111561149357fe5b02179055505b7f9d503d9b21cff0a224a831dabbf5fd2856219a4555ba61c71bd702a02dd717d6846040518082815260200191505060405180910390a150505050565b600060019054906101000a900473ffffffffffffffffffffffffffffffffffffffff1673ffffffffffffffffffffffffffffffffffffffff163373ffffffffffffffffffffffffffffffffffffffff1614611599576040517f08c379a00000000000000000000000000000000000000000000000000000000081526004018080602001828103825260188152602001807f53656e646572206973206e6f7420746865206f776e65722e000000000000000081525060200191505060405180910390fd5b600160038111156115a657fe5b60008054906101000a900460ff1660038111156115bf57fe5b14611615576040517f08c379a00000000000000000000000000000000000000000000000000000000081526004018080602001828103825260228152602001806135806022913960400191505060405180910390fd5b807f2f8af70d91e96a23b8111e37a9117f7cfe341f51c17759c36475a1a7698f0dc360405160405180910390a250565b60015481565b60036020528060005260406000206000915090505481565b60008060009054906101000a900460ff16905090565b600060019054906101000a900473ffffffffffffffffffffffffffffffffffffffff1673ffffffffffffffffffffffffffffffffffffffff163373ffffffffffffffffffffffffffffffffffffffff161461173c576040517f08c379a00000000000000000000000000000000000000000000000000000000081526004018080602001828103825260188152602001807f53656e646572206973206e6f7420746865206f776e65722e000000000000000081525060200191505060405180910390fd5b6001600381111561174957fe5b60008054906101000a900460ff16600381111561176257fe5b146117b8576040517f08c379a00000000000000000000000000000000000000000000000000000000081526004018080602001828103825260228152602001806135806022913960400191505060405180910390fd5b8247101561182e576040517f08c379a000000000000000000000000000000000000000000000000000000000815260040180806020018281038252601b8152602001807f54686520666f756e64732061726520696e73756666696369656e74000000000081525060200191505060405180910390fd5b61183661341e565b6040518060c001604052808581526020018473ffffffffffffffffffffffffffffffffffffffff16815260200160008152602001600081526020016000600381111561187e57fe5b815260200162093a804201815250905060068190806001815401808255809150506001900390600052602060002090600702016000909190919091506000820151816000015560208201518160010160006101000a81548173ffffffffffffffffffffffffffffffffffffffff021916908373ffffffffffffffffffffffffffffffffffffffff160217905550604082015181600201556060820151816003015560808201518160050160006101000a81548160ff0219169083600381111561194357fe5b021790555060a082015181600601555050817f288a29bca04edb18fcdb2c76d6e3b03b8a137c85c70d1a4cb8aacfa868d6051060405160405180910390a250505050565b600060019054906101000a900473ffffffffffffffffffffffffffffffffffffffff1673ffffffffffffffffffffffffffffffffffffffff163373ffffffffffffffffffffffffffffffffffffffff1614611a4a576040517f08c379a00000000000000000000000000000000000000000000000000000000081526004018080602001828103825260188152602001807f53656e646572206973206e6f7420746865206f776e65722e000000000000000081525060200191505060405180910390fd5b60006003811115611a5757fe5b60008054906101000a900460ff166003811115611a7057fe5b14611ac6576040517f08c379a00000000000000000000000000000000000000000000000000000000081526004018080602001828103825260238152602001806135fd6023913960400191505060405180910390fd5b600154471015611b21576040517f08c379a000000000000000000000000000000000000000000000000000000000815260040180806020018281038252602281526020018061355e6022913960400191505060405180910390fd5b60016000806101000a81548160ff02191690836003811115611b3f57fe5b02179055507fe283e942d53c4322165eacc7a597c86cdbc698c96321f57a82b29c615810a69560405160405180910390a1565b600060019054906101000a900473ffffffffffffffffffffffffffffffffffffffff1681565b6000600360003373ffffffffffffffffffffffffffffffffffffffff1673ffffffffffffffffffffffffffffffffffffffff168152602001908152602001600020541180611c335750600060019054906101000a900473ffffffffffffffffffffffffffffffffffffffff1673ffffffffffffffffffffffffffffffffffffffff163373ffffffffffffffffffffffffffffffffffffffff16145b611ca5576040517f08c379a00000000000000000000000000000000000000000000000000000000081526004018080602001828103825260178152602001807f53656e646572206973206e6f742061206d656d6265722e00000000000000000081525060200191505060405180910390fd5b60016003811115611cb257fe5b60008054906101000a900460ff166003811115611ccb57fe5b14611d21576040517f08c379a00000000000000000000000000000000000000000000000000000000081526004018080602001828103825260228152602001806135806022913960400191505060405180910390fd5b611d29613475565b6040518060800160405280600081526020016000815260200160006003811115611d4f57fe5b815260200162093a80420181525090506007819080600181540180825580915050600190039060005260206000209060050201600090919091909150600082015181600001556020820151816001015560408201518160030160006101000a81548160ff02191690836003811115611dc357fe5b0217905550606082015181600401555050817ff58a42dcfacfd41fd5d3681beb4755c6023d9bd2d5c1ae46e8866ece6463cee760405160405180910390a25050565b6000600360003373ffffffffffffffffffffffffffffffffffffffff1673ffffffffffffffffffffffffffffffffffffffff168152602001908152602001600020541180611ea05750600060019054906101000a900473ffffffffffffffffffffffffffffffffffffffff1673ffffffffffffffffffffffffffffffffffffffff163373ffffffffffffffffffffffffffffffffffffffff16145b611f12576040517f08c379a00000000000000000000000000000000000000000000000000000000081526004018080602001828103825260178152602001807f53656e646572206973206e6f742061206d656d6265722e00000000000000000081525060200191505060405180910390fd5b60016003811115611f1f57fe5b60008054906101000a900460ff166003811115611f3857fe5b14611f8e576040517f08c379a00000000000000000000000000000000000000000000000000000000081526004018080602001828103825260228152602001806135806022913960400191505060405180910390fd5b8060006003811115611f9c57fe5b60068281548110611fa957fe5b906000526020600020906007020160050160009054906101000a900460ff166003811115611fd357fe5b14612029576040517f08c379a00000000000000000000000000000000000000000000000000000000081526004018080602001828103825260228152602001806136466022913960400191505060405180910390fd5b816006818154811061203757fe5b9060005260206000209060070201600601544211156120a1576040517f08c379a000000000000000000000000000000000000000000000000000000000815260040180806020018281038252602181526020018061353d6021913960400191505060405180910390fd5b6000600684815481106120b057fe5b906000526020600020906007020190508060040160003373ffffffffffffffffffffffffffffffffffffffff1673ffffffffffffffffffffffffffffffffffffffff16815260200190815260200160002060009054906101000a900460ff1615612165576040517f08c379a00000000000000000000000000000000000000000000000000000000081526004018080602001828103825260318152602001806135a26031913960400191505060405180910390fd5b60018160040160003373ffffffffffffffffffffffffffffffffffffffff1673ffffffffffffffffffffffffffffffffffffffff16815260200190815260200160002060006101000a81548160ff02191690831515021790555080600201600081548092919060010191905055507f26b645fdecdf266f3abc5b7ae3e796ffd297febba8bd3a8ad49c68435190fc69846040518082815260200191505060405180910390a150505050565b6000600680549050905090565b600080600360008473ffffffffffffffffffffffffffffffffffffffff1673ffffffffffffffffffffffffffffffffffffffff16815260200190815260200160002054119050919050565b60025481565b6007818154811061227b57fe5b90600052602060002090600502016000915090508060000154908060010154908060030160009054906101000a900460ff16908060040154905084565b6000600682815481106122c757fe5b9060005260206000209060070201905062093a8081600601540381600601819055505050565b600080600080600080600080600060068a8154811061230857fe5b9060005260206000209060070201905060008160060154421115905060008260040160003373ffffffffffffffffffffffffffffffffffffffff1673ffffffffffffffffffffffffffffffffffffffff16815260200190815260200160002060009054906101000a900460ff1690508260010160009054906101000a900473ffffffffffffffffffffffffffffffffffffffff168360000154846002015485600301548660050160009054906101000a900460ff16876006015487879a509a509a509a509a509a509a509a50505050919395975091939597565b6000600360003373ffffffffffffffffffffffffffffffffffffffff1673ffffffffffffffffffffffffffffffffffffffff16815260200190815260200160002054118061247d5750600060019054906101000a900473ffffffffffffffffffffffffffffffffffffffff1673ffffffffffffffffffffffffffffffffffffffff163373ffffffffffffffffffffffffffffffffffffffff16145b6124ef576040517f08c379a00000000000000000000000000000000000000000000000000000000081526004018080602001828103825260178152602001807f53656e646572206973206e6f742061206d656d6265722e00000000000000000081525060200191505060405180910390fd5b600160038111156124fc57fe5b60008054906101000a900460ff16600381111561251557fe5b1461256b576040517f08c379a00000000000000000000000000000000000000000000000000000000081526004018080602001828103825260228152602001806135806022913960400191505060405180910390fd5b806000600381111561257957fe5b6006828154811061258657fe5b906000526020600020906007020160050160009054906101000a900460ff1660038111156125b057fe5b14612606576040517f08c379a00000000000000000000000000000000000000000000000000000000081526004018080602001828103825260228152602001806136466022913960400191505060405180910390fd5b816006818154811061261457fe5b90600052602060002090600702016006015442111561267e576040517f08c379a000000000000000000000000000000000000000000000000000000000815260040180806020018281038252602181526020018061353d6021913960400191505060405180910390fd5b60006006848154811061268d57fe5b906000526020600020906007020190508060040160003373ffffffffffffffffffffffffffffffffffffffff1673ffffffffffffffffffffffffffffffffffffffff16815260200190815260200160002060009054906101000a900460ff1615612742576040517f08c379a00000000000000000000000000000000000000000000000000000000081526004018080602001828103825260318152602001806135a26031913960400191505060405180910390fd5b60018160040160003373ffffffffffffffffffffffffffffffffffffffff1673ffffffffffffffffffffffffffffffffffffffff16815260200190815260200160002060006101000a81548160ff02191690831515021790555080600301600081548092919060010191905055507f26b645fdecdf266f3abc5b7ae3e796ffd297febba8bd3a8ad49c68435190fc69846040518082815260200191505060405180910390a150505050565b60008060008060008060019054906101000a900473ffffffffffffffffffffffffffffffffffffffff1660008054906101000a900460ff16600154600254600554945094509450945094509091929394565b6000600360003373ffffffffffffffffffffffffffffffffffffffff1673ffffffffffffffffffffffffffffffffffffffff168152602001908152602001600020541480156128dc5750600060019054906101000a900473ffffffffffffffffffffffffffffffffffffffff1673ffffffffffffffffffffffffffffffffffffffff163373ffffffffffffffffffffffffffffffffffffffff1614155b61294e576040517f08c379a000000000000000000000000000000000000000000000000000000000815260040180806020018281038252601b8152602001807f53656e64657220697320616c72656164792061206d656d6265722e000000000081525060200191505060405180910390fd5b6000600381111561295b57fe5b60008054906101000a900460ff16600381111561297457fe5b146129ca576040517f08c379a00000000000000000000000000000000000000000000000000000000081526004018080602001828103825260238152602001806135fd6023913960400191505060405180910390fd5b600254341015612a42576040517f08c379a000000000000000000000000000000000000000000000000000000000815260040180806020018281038252601f8152602001807f54686520636f6e747269627574696f6e20697320696e737566696369656e740081525060200191505060405180910390fd5b34600360003373ffffffffffffffffffffffffffffffffffffffff1673ffffffffffffffffffffffffffffffffffffffff168152602001908152602001600020819055506005600081548092919060010191905055507f0673e22453ca22ab66c750388a377485c2d57a19fb171f1442f45e933d5e841860405160405180910390a1565b60008060078381548110612ad657fe5b906000526020600020906005020190508060020160003373ffffffffffffffffffffffffffffffffffffffff1673ffffffffffffffffffffffffffffffffffffffff16815260200190815260200160002060009054906101000a900460ff16915050919050565b600080600080600080600060078881548110612b5557fe5b9060005260206000209060050201905060008160040154421115905060008260020160003373ffffffffffffffffffffffffffffffffffffffff1673ffffffffffffffffffffffffffffffffffffffff16815260200190815260200160002060009054906101000a900460ff169050826000015483600101548460030160009054906101000a900460ff168560040154858598509850985098509850985050505091939550919395565b60008060068381548110612c0f57fe5b906000526020600020906007020190508060040160003373ffffffffffffffffffffffffffffffffffffffff1673ffffffffffffffffffffffffffffffffffffffff16815260200190815260200160002060009054906101000a900460ff16915050919050565b6000600360003373ffffffffffffffffffffffffffffffffffffffff1673ffffffffffffffffffffffffffffffffffffffff168152602001908152602001600020541180612d115750600060019054906101000a900473ffffffffffffffffffffffffffffffffffffffff1673ffffffffffffffffffffffffffffffffffffffff163373ffffffffffffffffffffffffffffffffffffffff16145b612d83576040517f08c379a00000000000000000000000000000000000000000000000000000000081526004018080602001828103825260178152602001807f53656e646572206973206e6f742061206d656d6265722e00000000000000000081525060200191505060405180910390fd5b60016003811115612d9057fe5b60008054906101000a900460ff166003811115612da957fe5b14612dff576040517f08c379a00000000000000000000000000000000000000000000000000000000081526004018080602001828103825260228152602001806135806022913960400191505060405180910390fd5b8060006003811115612e0d57fe5b60078281548110612e1a57fe5b906000526020600020906005020160030160009054906101000a900460ff166003811115612e4457fe5b14612e9a576040517f08c379a000000000000000000000000000000000000000000000000000000000815260040180806020018281038252602b815260200180613512602b913960400191505060405180910390fd5b8160078181548110612ea857fe5b906000526020600020906005020160040154421115612f12576040517f08c379a000000000000000000000000000000000000000000000000000000000815260040180806020018281038252602a8152602001806135d3602a913960400191505060405180910390fd5b600060078481548110612f2157fe5b906000526020600020906005020190508060020160003373ffffffffffffffffffffffffffffffffffffffff1673ffffffffffffffffffffffffffffffffffffffff16815260200190815260200160002060009054906101000a900460ff1615612fd6576040517f08c379a000000000000000000000000000000000000000000000000000000000815260040180806020018281038252603a8152602001806134a9603a913960400191505060405180910390fd5b60018160020160003373ffffffffffffffffffffffffffffffffffffffff1673ffffffffffffffffffffffffffffffffffffffff16815260200190815260200160002060006101000a81548160ff021916908315150217905550806001016000815480929190600101919050555050505050565b6000600360003373ffffffffffffffffffffffffffffffffffffffff1673ffffffffffffffffffffffffffffffffffffffff1681526020019081526020016000205411806130e55750600060019054906101000a900473ffffffffffffffffffffffffffffffffffffffff1673ffffffffffffffffffffffffffffffffffffffff163373ffffffffffffffffffffffffffffffffffffffff16145b613157576040517f08c379a00000000000000000000000000000000000000000000000000000000081526004018080602001828103825260178152602001807f53656e646572206973206e6f742061206d656d6265722e00000000000000000081525060200191505060405180910390fd5b6001600381111561316457fe5b60008054906101000a900460ff16600381111561317d57fe5b146131d3576040517f08c379a00000000000000000000000000000000000000000000000000000000081526004018080602001828103825260228152602001806135806022913960400191505060405180910390fd5b80600060038111156131e157fe5b600782815481106131ee57fe5b906000526020600020906005020160030160009054906101000a900460ff16600381111561321857fe5b1461326e576040517f08c379a000000000000000000000000000000000000000000000000000000000815260040180806020018281038252602b815260200180613512602b913960400191505060405180910390fd5b816007818154811061327c57fe5b9060005260206000209060050201600401544211156132e6576040517f08c379a000000000000000000000000000000000000000000000000000000000815260040180806020018281038252602a8152602001806135d3602a913960400191505060405180910390fd5b6000600784815481106132f557fe5b906000526020600020906005020190508060020160003373ffffffffffffffffffffffffffffffffffffffff1673ffffffffffffffffffffffffffffffffffffffff16815260200190815260200160002060009054906101000a900460ff16156133aa576040517f08c379a000000000000000000000000000000000000000000000000000000000815260040180806020018281038252603a8152602001806134a9603a913960400191505060405180910390fd5b60018160020160003373ffffffffffffffffffffffffffffffffffffffff1673ffffffffffffffffffffffffffffffffffffffff16815260200190815260200160002060006101000a81548160ff021916908315150217905550806000016000815480929190600101919050555050505050565b6040518060c0016040528060008152602001600073ffffffffffffffffffffffffffffffffffffffff16815260200160008152602001600081526020016000600381111561346857fe5b8152602001600081525090565b604051806080016040528060008152602001600081526020016000600381111561349b57fe5b815260200160008152509056fe5468652064657374727563742070726f706f73616c20686173206265656e20616c726561647920766f746564206279207468652073656e6465725468652064657374727563742070726f706f73616c206973207374696c6c206f70656e20666f7220766f74696e672e5468652064657374727563742070726f706f73616c206973206e6f74206c6f6e676572206163746976652e5468652070726f706f73616c20697320636c6f736520666f7220766f74696e672e54686520636f6e747269627574696f6e732061726520696e73756666696369656e745468652063616d706169676e20737461747573206973206e6f74206163746976652e5468652070726f706f73616c20686173206265656e20616c726561647920766f746564206279207468652073656e6465725468652064657374727563742070726f706f73616c20697320636c6f736520666f7220766f74696e672e5468652063616d706169676e20737461747573206973206e6f7420637265617465642e5468652070726f706f73616c206973207374696c6c206f70656e20666f7220766f74696e672e5468652070726f706f73616c206973206e6f74206c6f6e676572206163746976652ea264697066735822122058a7bcb51eff63575f8c8cbf77f514cb769280b768969199645bacd65837281364736f6c634300060c0033",
  "source": "pragma solidity ^0.6.0;\n\nimport \"./CrowdfundingCampaign.sol\";\n\ncontract CrowdfundingCampaignDemo is CrowdfundingCampaign {\n\n    /** @dev Constructor.\n     *  @param _minimunContribution minimum contribution in wei that a person has to make to become a member.\n     *  @param _goal goal in wei that the proyect has to reach to be succesfull.\n     *  @param _ipfshash The url hash of the campaign data previusly stored in IPFS.\n    **/\n    constructor(uint _minimunContribution, uint _goal, bytes32 _ipfshash)\n    CrowdfundingCampaign(_minimunContribution, _goal, _ipfshash) public {\n\n    }\n\n    /** @dev Allow to change the proposal limit date to seven days earlier to allow have close proposals in the demo.\n     *  @param _index index of the proposal we want to change the limit date.\n     */\n    function changeLimitProposal(uint _index) public {\n\n        Proposal storage proposal = proposals[_index];\n        proposal.limitTime = proposal.limitTime - 604800;        \n    }\n\n     /** @dev Allow to change the proposal limit date to seven days earlier to allow have close proposals in the demo.\n     *  @param _index index of the proposal we want to change the limit date.\n     */\n    function changeLimitDestructProposal(uint _index) public {\n\n        DestructProposal storage dProposal = destructProposals[_index];\n        dProposal.limitTime = dProposal.limitTime - 604800;        \n    }\n\n\n}",
  "sourcePath": "/home/tati/Desktop/personal/Tesina/semideas-crowdfunding/contracts/CrowdfundingCampaignDemo.sol",
  "compiler": {
    "name": "solc",
    "version": "0.6.12+commit.27d51765.Emscripten.clang"
  },
  "schemaVersion": "3.0.22",
  "updatedAt": "2021-07-08T23:11:18.412Z",
  "devdoc": {
    "kind": "dev",
    "methods": {
      "approveProposal(uint256)": {
        "details": "Allow only members to approve an active proposal that they haven't voted before.",
        "params": {
          "_index": "index of the proposal the member wants to approve."
        }
      },
      "aproveDestructProposal(uint256)": {
        "details": "Allow only members to approve an active destruct proposal that they haven't voted before.",
        "params": {
          "_index": "index of the destruct proposal the member wants to approve."
        }
      },
      "changeLimitDestructProposal(uint256)": {
        "details": "Allow to change the proposal limit date to seven days earlier to allow have close proposals in the demo.",
        "params": {
          "_index": "index of the proposal we want to change the limit date."
        }
      },
      "changeLimitProposal(uint256)": {
        "details": "Allow to change the proposal limit date to seven days earlier to allow have close proposals in the demo.",
        "params": {
          "_index": "index of the proposal we want to change the limit date."
        }
      },
      "closeDestructProposal(uint256)": {
        "details": "Allow only members to close an active proposal that already has its voting time over.",
        "params": {
          "_index": "index of the proposal the member wants to approve."
        }
      },
      "closeProposal(uint256)": {
        "details": "Allow only members to close an active proposal that already has its voting time over.",
        "params": {
          "_index": "index of the proposal the member wants to approve."
        }
      },
      "constructor": {
        "details": "Constructor.",
        "params": {
          "_goal": "goal in wei that the proyect has to reach to be succesfull.",
          "_ipfshash": "The url hash of the campaign data previusly stored in IPFS.*",
          "_minimunContribution": "minimum contribution in wei that a person has to make to become a member."
        }
      },
      "contribute()": {
        "details": "Allow not members to contribute with the campaign and be a member of it."
      },
      "createDestructProposal(bytes32)": {
        "details": "Allow only members to create a new proposal to finish de proyect and get the founds back.",
        "params": {
          "_ipfshash": "url hash of the destruct proposal data (description) previusly stored in IPFS."
        }
      },
      "createProposal(uint256,address,bytes32)": {
        "details": "Allow only owner to create a new proposal to get more founds.",
        "params": {
          "_ipfshash": "url hash of the proposal data (description and pictures) previusly stored in IPFS.",
          "_recipient": "address where the founds are going to be after withdraw them.",
          "_value": "founds in wei that the owner want to withdraw."
        }
      },
      "disapproveDestructProposal(uint256)": {
        "details": "Allow only members to disapprove an active destruct proposal that they haven't voted before.",
        "params": {
          "_index": "index of the destruct proposal the member wants to disapprove."
        }
      },
      "disapproveProposal(uint256)": {
        "details": "Allow only members to disapprove an active proposal that they haven't voted before.",
        "params": {
          "_index": "index of the proposal the member wants to disapprove."
        }
      },
      "getCampaignInfo()": {
        "details": "Function to get the data of the campaign"
      },
      "getDestructProposal(uint256)": {
        "details": "Function to get the data of destruct proposal.",
        "params": {
          "_index": "index of the destruct proposal to return"
        }
      },
      "getDestructProposalsCount()": {
        "details": "Function to get the total number of destruct proposals."
      },
      "getProposal(uint256)": {
        "details": "Function to get the data of a proposal.",
        "params": {
          "_index": "index of the proposal to return"
        }
      },
      "getProposalsCount()": {
        "details": "Function to get the total number of proposals."
      },
      "getStatus()": {
        "details": "Function to get the actual status of the campaign."
      },
      "hasVotedDestructProposal(uint256)": {
        "details": "Function to know if a member has already vot a destruct proposal.",
        "params": {
          "_index": "index of the proposal"
        }
      },
      "hasVotedProposal(uint256)": {
        "details": "Function to know if a member has already vot a proposal.",
        "params": {
          "_index": "index of the proposal"
        }
      },
      "isMember(address)": {
        "details": "Function to return if someone is member."
      },
      "saveProgressUpdate(bytes32)": {
        "details": "Allow only owner to save a new progress Update data ipfs hash.",
        "params": {
          "_ipfshash": "url hash of the progress update data (description and pictures) previusly stored in IPFS."
        }
      },
      "setActive()": {
        "details": "Allow only owner to change the status of the cCampaign from CREATED to ACTIVE."
      },
      "withdraw(uint256)": {
        "details": "Allow only members to close an active proposal that already has its voting time over.",
        "params": {
          "_index": "index of the proposal the member wants to approve."
        }
      }
    },
    "version": 1
  },
  "userdoc": {
    "kind": "user",
    "methods": {},
    "version": 1
  }
}