{
  "contractName": "CrowdfundingCampaign",
  "abi": [
    {
      "inputs": [
        {
          "internalType": "uint256",
          "name": "_minimunContribution",
          "type": "uint256"
        },
        {
          "internalType": "uint256",
          "name": "_goal",
          "type": "uint256"
        },
        {
          "internalType": "bytes32",
          "name": "_ipfshash",
          "type": "bytes32"
        }
      ],
      "stateMutability": "nonpayable",
      "type": "constructor"
    },
    {
      "anonymous": false,
      "inputs": [
        {
          "indexed": false,
          "internalType": "bytes32",
          "name": "_ipfshash",
          "type": "bytes32"
        }
      ],
      "name": "CampaignCreated",
      "type": "event"
    },
    {
      "anonymous": false,
      "inputs": [],
      "name": "ChangeStatusCampaign",
      "type": "event"
    },
    {
      "anonymous": false,
      "inputs": [
        {
          "indexed": false,
          "internalType": "uint256",
          "name": "_index",
          "type": "uint256"
        }
      ],
      "name": "DestructProposalClosed",
      "type": "event"
    },
    {
      "anonymous": false,
      "inputs": [
        {
          "indexed": false,
          "internalType": "bytes32",
          "name": "_ipfshash",
          "type": "bytes32"
        }
      ],
      "name": "DestructProposalCreated",
      "type": "event"
    },
    {
      "anonymous": false,
      "inputs": [
        {
          "indexed": false,
          "internalType": "uint256",
          "name": "_index",
          "type": "uint256"
        }
      ],
      "name": "DestructProposalVoted",
      "type": "event"
    },
    {
      "anonymous": false,
      "inputs": [],
      "name": "NewContribution",
      "type": "event"
    },
    {
      "anonymous": false,
      "inputs": [
        {
          "indexed": false,
          "internalType": "bytes32",
          "name": "_ipfshash",
          "type": "bytes32"
        }
      ],
      "name": "ProgressUpdate",
      "type": "event"
    },
    {
      "anonymous": false,
      "inputs": [
        {
          "indexed": false,
          "internalType": "uint256",
          "name": "_index",
          "type": "uint256"
        }
      ],
      "name": "ProposalClosed",
      "type": "event"
    },
    {
      "anonymous": false,
      "inputs": [
        {
          "indexed": false,
          "internalType": "bytes32",
          "name": "_ipfshash",
          "type": "bytes32"
        }
      ],
      "name": "ProposalCreated",
      "type": "event"
    },
    {
      "anonymous": false,
      "inputs": [
        {
          "indexed": false,
          "internalType": "uint256",
          "name": "_index",
          "type": "uint256"
        }
      ],
      "name": "ProposalVoted",
      "type": "event"
    },
    {
      "anonymous": false,
      "inputs": [
        {
          "indexed": false,
          "internalType": "uint256",
          "name": "_index",
          "type": "uint256"
        }
      ],
      "name": "ProposalWithdraw",
      "type": "event"
    },
    {
      "inputs": [
        {
          "internalType": "address",
          "name": "",
          "type": "address"
        }
      ],
      "name": "contributions",
      "outputs": [
        {
          "internalType": "uint256",
          "name": "",
          "type": "uint256"
        }
      ],
      "stateMutability": "view",
      "type": "function"
    },
    {
      "inputs": [
        {
          "internalType": "uint256",
          "name": "",
          "type": "uint256"
        }
      ],
      "name": "destructProposals",
      "outputs": [
        {
          "internalType": "uint256",
          "name": "approvalsCount",
          "type": "uint256"
        },
        {
          "internalType": "uint256",
          "name": "disapprovalsCount",
          "type": "uint256"
        },
        {
          "internalType": "enum CrowdfundingCampaign.ProposalStatus",
          "name": "status",
          "type": "uint8"
        },
        {
          "internalType": "uint256",
          "name": "limitTime",
          "type": "uint256"
        }
      ],
      "stateMutability": "view",
      "type": "function"
    },
    {
      "inputs": [],
      "name": "finalContributions",
      "outputs": [
        {
          "internalType": "uint256",
          "name": "",
          "type": "uint256"
        }
      ],
      "stateMutability": "view",
      "type": "function"
    },
    {
      "inputs": [],
      "name": "goal",
      "outputs": [
        {
          "internalType": "uint256",
          "name": "",
          "type": "uint256"
        }
      ],
      "stateMutability": "view",
      "type": "function"
    },
    {
      "inputs": [],
      "name": "membersCount",
      "outputs": [
        {
          "internalType": "uint256",
          "name": "",
          "type": "uint256"
        }
      ],
      "stateMutability": "view",
      "type": "function"
    },
    {
      "inputs": [],
      "name": "minimunContribution",
      "outputs": [
        {
          "internalType": "uint256",
          "name": "",
          "type": "uint256"
        }
      ],
      "stateMutability": "view",
      "type": "function"
    },
    {
      "inputs": [],
      "name": "owner",
      "outputs": [
        {
          "internalType": "address",
          "name": "",
          "type": "address"
        }
      ],
      "stateMutability": "view",
      "type": "function"
    },
    {
      "inputs": [
        {
          "internalType": "uint256",
          "name": "",
          "type": "uint256"
        }
      ],
      "name": "proposals",
      "outputs": [
        {
          "internalType": "uint256",
          "name": "value",
          "type": "uint256"
        },
        {
          "internalType": "address",
          "name": "recipient",
          "type": "address"
        },
        {
          "internalType": "uint256",
          "name": "approvalsCount",
          "type": "uint256"
        },
        {
          "internalType": "uint256",
          "name": "disapprovalsCount",
          "type": "uint256"
        },
        {
          "internalType": "enum CrowdfundingCampaign.ProposalStatus",
          "name": "status",
          "type": "uint8"
        },
        {
          "internalType": "uint256",
          "name": "limitTime",
          "type": "uint256"
        }
      ],
      "stateMutability": "view",
      "type": "function"
    },
    {
      "inputs": [],
      "name": "remainingContributions",
      "outputs": [
        {
          "internalType": "uint256",
          "name": "",
          "type": "uint256"
        }
      ],
      "stateMutability": "view",
      "type": "function"
    },
    {
      "inputs": [],
      "name": "status",
      "outputs": [
        {
          "internalType": "enum CrowdfundingCampaign.CampaignStatus",
          "name": "",
          "type": "uint8"
        }
      ],
      "stateMutability": "view",
      "type": "function"
    },
    {
      "inputs": [
        {
          "internalType": "address",
          "name": "",
          "type": "address"
        }
      ],
      "name": "withdraws",
      "outputs": [
        {
          "internalType": "bool",
          "name": "",
          "type": "bool"
        }
      ],
      "stateMutability": "view",
      "type": "function"
    },
    {
      "inputs": [],
      "name": "contribute",
      "outputs": [],
      "stateMutability": "payable",
      "type": "function"
    },
    {
      "inputs": [],
      "name": "setActive",
      "outputs": [],
      "stateMutability": "nonpayable",
      "type": "function"
    },
    {
      "inputs": [
        {
          "internalType": "bytes32",
          "name": "_ipfshash",
          "type": "bytes32"
        }
      ],
      "name": "saveProgressUpdate",
      "outputs": [],
      "stateMutability": "nonpayable",
      "type": "function"
    },
    {
      "inputs": [
        {
          "internalType": "uint256",
          "name": "_value",
          "type": "uint256"
        },
        {
          "internalType": "address",
          "name": "_recipient",
          "type": "address"
        },
        {
          "internalType": "bytes32",
          "name": "_ipfshash",
          "type": "bytes32"
        }
      ],
      "name": "createProposal",
      "outputs": [],
      "stateMutability": "nonpayable",
      "type": "function"
    },
    {
      "inputs": [
        {
          "internalType": "uint256",
          "name": "_index",
          "type": "uint256"
        }
      ],
      "name": "approveProposal",
      "outputs": [],
      "stateMutability": "nonpayable",
      "type": "function"
    },
    {
      "inputs": [
        {
          "internalType": "uint256",
          "name": "_index",
          "type": "uint256"
        }
      ],
      "name": "disapproveProposal",
      "outputs": [],
      "stateMutability": "nonpayable",
      "type": "function"
    },
    {
      "inputs": [
        {
          "internalType": "uint256",
          "name": "_index",
          "type": "uint256"
        }
      ],
      "name": "closeProposal",
      "outputs": [],
      "stateMutability": "nonpayable",
      "type": "function"
    },
    {
      "inputs": [
        {
          "internalType": "uint256",
          "name": "_index",
          "type": "uint256"
        }
      ],
      "name": "withdraw",
      "outputs": [],
      "stateMutability": "nonpayable",
      "type": "function"
    },
    {
      "inputs": [
        {
          "internalType": "bytes32",
          "name": "_ipfshash",
          "type": "bytes32"
        }
      ],
      "name": "createDestructProposal",
      "outputs": [],
      "stateMutability": "nonpayable",
      "type": "function"
    },
    {
      "inputs": [
        {
          "internalType": "uint256",
          "name": "_index",
          "type": "uint256"
        }
      ],
      "name": "aproveDestructProposal",
      "outputs": [],
      "stateMutability": "nonpayable",
      "type": "function"
    },
    {
      "inputs": [
        {
          "internalType": "uint256",
          "name": "_index",
          "type": "uint256"
        }
      ],
      "name": "disapproveDestructProposal",
      "outputs": [],
      "stateMutability": "nonpayable",
      "type": "function"
    },
    {
      "inputs": [
        {
          "internalType": "uint256",
          "name": "_index",
          "type": "uint256"
        }
      ],
      "name": "closeDestructProposal",
      "outputs": [],
      "stateMutability": "nonpayable",
      "type": "function"
    },
    {
      "inputs": [
        {
          "internalType": "address",
          "name": "_address",
          "type": "address"
        }
      ],
      "name": "isMember",
      "outputs": [
        {
          "internalType": "bool",
          "name": "",
          "type": "bool"
        }
      ],
      "stateMutability": "view",
      "type": "function"
    },
    {
      "inputs": [],
      "name": "getStatus",
      "outputs": [
        {
          "internalType": "enum CrowdfundingCampaign.CampaignStatus",
          "name": "",
          "type": "uint8"
        }
      ],
      "stateMutability": "view",
      "type": "function"
    },
    {
      "inputs": [],
      "name": "getFinalContributions",
      "outputs": [
        {
          "internalType": "uint256",
          "name": "",
          "type": "uint256"
        }
      ],
      "stateMutability": "view",
      "type": "function"
    },
    {
      "inputs": [],
      "name": "getRemainingContributions",
      "outputs": [
        {
          "internalType": "uint256",
          "name": "",
          "type": "uint256"
        }
      ],
      "stateMutability": "view",
      "type": "function"
    },
    {
      "inputs": [],
      "name": "getCampaignInfo",
      "outputs": [
        {
          "internalType": "address",
          "name": "",
          "type": "address"
        },
        {
          "internalType": "enum CrowdfundingCampaign.CampaignStatus",
          "name": "",
          "type": "uint8"
        },
        {
          "internalType": "uint256",
          "name": "",
          "type": "uint256"
        },
        {
          "internalType": "uint256",
          "name": "",
          "type": "uint256"
        },
        {
          "internalType": "uint256",
          "name": "",
          "type": "uint256"
        },
        {
          "internalType": "uint256",
          "name": "",
          "type": "uint256"
        },
        {
          "internalType": "uint256",
          "name": "",
          "type": "uint256"
        }
      ],
      "stateMutability": "view",
      "type": "function"
    },
    {
      "inputs": [
        {
          "internalType": "uint256",
          "name": "_index",
          "type": "uint256"
        }
      ],
      "name": "getProposal",
      "outputs": [
        {
          "internalType": "address",
          "name": "",
          "type": "address"
        },
        {
          "internalType": "uint256",
          "name": "",
          "type": "uint256"
        },
        {
          "internalType": "uint256",
          "name": "",
          "type": "uint256"
        },
        {
          "internalType": "uint256",
          "name": "",
          "type": "uint256"
        },
        {
          "internalType": "enum CrowdfundingCampaign.ProposalStatus",
          "name": "",
          "type": "uint8"
        },
        {
          "internalType": "uint256",
          "name": "",
          "type": "uint256"
        },
        {
          "internalType": "bool",
          "name": "",
          "type": "bool"
        },
        {
          "internalType": "bool",
          "name": "",
          "type": "bool"
        }
      ],
      "stateMutability": "view",
      "type": "function"
    },
    {
      "inputs": [
        {
          "internalType": "uint256",
          "name": "_index",
          "type": "uint256"
        }
      ],
      "name": "hasVotedProposal",
      "outputs": [
        {
          "internalType": "bool",
          "name": "",
          "type": "bool"
        }
      ],
      "stateMutability": "view",
      "type": "function"
    },
    {
      "inputs": [],
      "name": "getProposalsCount",
      "outputs": [
        {
          "internalType": "uint256",
          "name": "",
          "type": "uint256"
        }
      ],
      "stateMutability": "view",
      "type": "function"
    },
    {
      "inputs": [
        {
          "internalType": "uint256",
          "name": "_index",
          "type": "uint256"
        }
      ],
      "name": "getDestructProposal",
      "outputs": [
        {
          "internalType": "uint256",
          "name": "",
          "type": "uint256"
        },
        {
          "internalType": "uint256",
          "name": "",
          "type": "uint256"
        },
        {
          "internalType": "enum CrowdfundingCampaign.ProposalStatus",
          "name": "",
          "type": "uint8"
        },
        {
          "internalType": "uint256",
          "name": "",
          "type": "uint256"
        },
        {
          "internalType": "bool",
          "name": "",
          "type": "bool"
        },
        {
          "internalType": "bool",
          "name": "",
          "type": "bool"
        }
      ],
      "stateMutability": "view",
      "type": "function"
    },
    {
      "inputs": [
        {
          "internalType": "uint256",
          "name": "_index",
          "type": "uint256"
        }
      ],
      "name": "hasVotedDestructProposal",
      "outputs": [
        {
          "internalType": "bool",
          "name": "",
          "type": "bool"
        }
      ],
      "stateMutability": "view",
      "type": "function"
    },
    {
      "inputs": [],
      "name": "getDestructProposalsCount",
      "outputs": [
        {
          "internalType": "uint256",
          "name": "",
          "type": "uint256"
        }
      ],
      "stateMutability": "view",
      "type": "function"
    }
  ],
  "bytecode": "0x60806040523480156200001157600080fd5b5060405162003f4f38038062003f4f83398181016040528101906200003791906200012b565b33600060016101000a81548173ffffffffffffffffffffffffffffffffffffffff021916908373ffffffffffffffffffffffffffffffffffffffff160217905550816001819055508260028190555060008060006101000a81548160ff02191690836003811115620000ae57620000ad620001c9565b5b021790555060006003819055507f0f627713f9c831a1b079924dedde3308e90d22b754bdd481f9b2165aa0f9dfb981604051620000ec919062000198565b60405180910390a150505062000231565b6000815190506200010e81620001fd565b92915050565b600081519050620001258162000217565b92915050565b600080600060608486031215620001475762000146620001f8565b5b6000620001578682870162000114565b93505060206200016a8682870162000114565b92505060406200017d86828701620000fd565b9150509250925092565b6200019281620001b5565b82525050565b6000602082019050620001af600083018462000187565b92915050565b6000819050919050565b6000819050919050565b7f4e487b7100000000000000000000000000000000000000000000000000000000600052602160045260246000fd5b600080fd5b6200020881620001b5565b81146200021457600080fd5b50565b6200022281620001bf565b81146200022e57600080fd5b50565b613d0e80620002416000396000f3fe6080604052600436106101f95760003560e01c8063923a64fb1161010d578063d6290cd7116100a0578063e966670a1161006f578063e966670a1461072b578063edbd0db81461076d578063eeda051814610798578063ef978ecb146107d5578063f049a60c146107fe576101f9565b8063d6290cd714610688578063d7bb99ba146106b9578063d853ba73146106c3578063e5069726146106ee576101f9565b8063a7f33715116100dc578063a7f33715146105b0578063b1a6f6a9146105db578063c7f758a81461061b578063c8541fe01461065f576101f9565b8063923a64fb146104f657806398951b561461051f57806398e527d314610548578063a230c52414610573576101f9565b80633b047a8f116101905780634e69d5601161015f5780634e69d560146104355780634f92c9251461046057806351c36c1e1461048b578063760a8c2a146104b45780638da5cb5b146104cb576101f9565b80633b047a8f14610367578063401938831461039057806342e94c90146103bb57806348179ee5146103f8576101f9565b8063200d2ed2116101cc578063200d2ed2146102bf578063297f9af0146102ea5780632e1a7d4d146103155780633912fbe51461033e576101f9565b80630126f61e146101fe578063013cf08b146102295780630386a0161461026b5780631ec0b7ba14610294575b600080fd5b34801561020a57600080fd5b50610213610827565b6040516102209190613510565b60405180910390f35b34801561023557600080fd5b50610250600480360381019061024b9190612e6a565b61082d565b6040516102629695949392919061352b565b60405180910390f35b34801561027757600080fd5b50610292600480360381019061028d9190612e6a565b6108a6565b005b3480156102a057600080fd5b506102a9610bc9565b6040516102b69190613510565b60405180910390f35b3480156102cb57600080fd5b506102d4610bd6565b6040516102e191906132d5565b60405180910390f35b3480156102f657600080fd5b506102ff610be7565b60405161030c9190613510565b60405180910390f35b34801561032157600080fd5b5061033c60048036038101906103379190612e6a565b610bed565b005b34801561034a57600080fd5b5061036560048036038101906103609190612e6a565b610e89565b005b34801561037357600080fd5b5061038e60048036038101906103899190612e3d565b6111ac565b005b34801561039c57600080fd5b506103a56112ea565b6040516103b29190613510565b60405180910390f35b3480156103c757600080fd5b506103e260048036038101906103dd9190612e10565b6112f0565b6040516103ef9190613510565b60405180910390f35b34801561040457600080fd5b5061041f600480360381019061041a9190612e10565b611308565b60405161042c919061329f565b60405180910390f35b34801561044157600080fd5b5061044a611328565b60405161045791906132d5565b60405180910390f35b34801561046c57600080fd5b5061047561133e565b6040516104829190613510565b60405180910390f35b34801561049757600080fd5b506104b260048036038101906104ad9190612e97565b611348565b005b3480156104c057600080fd5b506104c9611594565b005b3480156104d757600080fd5b506104e061173c565b6040516104ed9190613197565b60405180910390f35b34801561050257600080fd5b5061051d60048036038101906105189190612e3d565b611762565b005b34801561052b57600080fd5b5061054660048036038101906105419190612e6a565b611967565b005b34801561055457600080fd5b5061055d611d1e565b60405161056a9190613510565b60405180910390f35b34801561057f57600080fd5b5061059a60048036038101906105959190612e10565b611d2b565b6040516105a7919061329f565b60405180910390f35b3480156105bc57600080fd5b506105c5611d76565b6040516105d29190613510565b60405180910390f35b3480156105e757600080fd5b5061060260048036038101906105fd9190612e6a565b611d7c565b604051610612949392919061358c565b60405180910390f35b34801561062757600080fd5b50610642600480360381019061063d9190612e6a565b611dc9565b604051610656989796959493929190613221565b60405180910390f35b34801561066b57600080fd5b5061068660048036038101906106819190612e6a565b611ec5565b005b34801561069457600080fd5b5061069d61227c565b6040516106b097969594939291906131b2565b60405180910390f35b6106c16122dd565b005b3480156106cf57600080fd5b506106d86124fc565b6040516106e59190613510565b60405180910390f35b3480156106fa57600080fd5b5061071560048036038101906107109190612e6a565b612502565b604051610722919061329f565b60405180910390f35b34801561073757600080fd5b50610752600480360381019061074d9190612e6a565b612580565b604051610764969594939291906135d1565b60405180910390f35b34801561077957600080fd5b50610782612649565b60405161078f9190613510565b60405180910390f35b3480156107a457600080fd5b506107bf60048036038101906107ba9190612e6a565b612653565b6040516107cc919061329f565b60405180910390f35b3480156107e157600080fd5b506107fc60048036038101906107f79190612e6a565b6126d1565b005b34801561080a57600080fd5b5061082560048036038101906108209190612e6a565b612a51565b005b60045481565b6008818154811061083d57600080fd5b90600052602060002090600702016000915090508060000154908060010160009054906101000a900473ffffffffffffffffffffffffffffffffffffffff16908060020154908060030154908060050160009054906101000a900460ff16908060060154905086565b6000600660003373ffffffffffffffffffffffffffffffffffffffff1673ffffffffffffffffffffffffffffffffffffffff1681526020019081526020016000205411806109415750600060019054906101000a900473ffffffffffffffffffffffffffffffffffffffff1673ffffffffffffffffffffffffffffffffffffffff163373ffffffffffffffffffffffffffffffffffffffff16145b610980576040517f08c379a000000000000000000000000000000000000000000000000000000000815260040161097790613310565b60405180910390fd5b60016003811115610994576109936137ad565b5b60008054906101000a900460ff1660038111156109b4576109b36137ad565b5b146109f4576040517f08c379a00000000000000000000000000000000000000000000000000000000081526004016109eb90613450565b60405180910390fd5b8060006003811115610a0957610a086137ad565b5b60088281548110610a1d57610a1c6137dc565b5b906000526020600020906007020160050160009054906101000a900460ff166003811115610a4e57610a4d6137ad565b5b14610a8e576040517f08c379a0000000000000000000000000000000000000000000000000000000008152600401610a85906134f0565b60405180910390fd5b8160088181548110610aa357610aa26137dc565b5b9060005260206000209060070201600601544211610af6576040517f08c379a0000000000000000000000000000000000000000000000000000000008152600401610aed906134d0565b60405180910390fd5b600060088481548110610b0c57610b0b6137dc565b5b90600052602060002090600702019050806003015481600201541115610b5e5760018160050160006101000a81548160ff02191690836003811115610b5457610b536137ad565b5b0217905550610b8c565b60028160050160006101000a81548160ff02191690836003811115610b8657610b856137ad565b5b02179055505b7f887777ccf43690541bed9e00b10d0fccfa7520b11875f09847a57b3085d8ab9284604051610bbb9190613510565b60405180910390a150505050565b6000600980549050905090565b60008054906101000a900460ff1681565b60035481565b600060019054906101000a900473ffffffffffffffffffffffffffffffffffffffff1673ffffffffffffffffffffffffffffffffffffffff163373ffffffffffffffffffffffffffffffffffffffff1614610c7d576040517f08c379a0000000000000000000000000000000000000000000000000000000008152600401610c74906133b0565b60405180910390fd5b60016003811115610c9157610c906137ad565b5b60008054906101000a900460ff166003811115610cb157610cb06137ad565b5b14610cf1576040517f08c379a0000000000000000000000000000000000000000000000000000000008152600401610ce890613450565b60405180910390fd5b8060016003811115610d0657610d056137ad565b5b60088281548110610d1a57610d196137dc565b5b906000526020600020906007020160050160009054906101000a900460ff166003811115610d4b57610d4a6137ad565b5b14610d8b576040517f08c379a0000000000000000000000000000000000000000000000000000000008152600401610d8290613410565b60405180910390fd5b600060088381548110610da157610da06137dc565b5b9060005260206000209060070201905060038160050160006101000a81548160ff02191690836003811115610dd957610dd86137ad565b5b02179055508060010160009054906101000a900473ffffffffffffffffffffffffffffffffffffffff1673ffffffffffffffffffffffffffffffffffffffff166108fc82600001549081150290604051600060405180830381858888f19350505050158015610e4c573d6000803e3d6000fd5b507fff1ae7486a09c668cb67e3cbd767e6eca296bcffbd5171b289407f7d714dc50283604051610e7c9190613510565b60405180910390a1505050565b6000600660003373ffffffffffffffffffffffffffffffffffffffff1673ffffffffffffffffffffffffffffffffffffffff168152602001908152602001600020541180610f245750600060019054906101000a900473ffffffffffffffffffffffffffffffffffffffff1673ffffffffffffffffffffffffffffffffffffffff163373ffffffffffffffffffffffffffffffffffffffff16145b610f63576040517f08c379a0000000000000000000000000000000000000000000000000000000008152600401610f5a90613310565b60405180910390fd5b60016003811115610f7757610f766137ad565b5b60008054906101000a900460ff166003811115610f9757610f966137ad565b5b14610fd7576040517f08c379a0000000000000000000000000000000000000000000000000000000008152600401610fce90613450565b60405180910390fd5b8060006003811115610fec57610feb6137ad565b5b6009828154811061100057610fff6137dc565b5b906000526020600020906005020160030160009054906101000a900460ff166003811115611031576110306137ad565b5b14611071576040517f08c379a000000000000000000000000000000000000000000000000000000000815260040161106890613390565b60405180910390fd5b8160098181548110611086576110856137dc565b5b90600052602060002090600502016004015442116110d9576040517f08c379a00000000000000000000000000000000000000000000000000000000081526004016110d090613370565b60405180910390fd5b6000600984815481106110ef576110ee6137dc565b5b906000526020600020906005020190508060010154816000015411156111415760018160030160006101000a81548160ff02191690836003811115611137576111366137ad565b5b021790555061116f565b60028160030160006101000a81548160ff02191690836003811115611169576111686137ad565b5b02179055505b7f9d503d9b21cff0a224a831dabbf5fd2856219a4555ba61c71bd702a02dd717d68460405161119e9190613510565b60405180910390a150505050565b600060019054906101000a900473ffffffffffffffffffffffffffffffffffffffff1673ffffffffffffffffffffffffffffffffffffffff163373ffffffffffffffffffffffffffffffffffffffff161461123c576040517f08c379a0000000000000000000000000000000000000000000000000000000008152600401611233906133b0565b60405180910390fd5b600160038111156112505761124f6137ad565b5b60008054906101000a900460ff1660038111156112705761126f6137ad565b5b146112b0576040517f08c379a00000000000000000000000000000000000000000000000000000000081526004016112a790613450565b60405180910390fd5b7f2f8af70d91e96a23b8111e37a9117f7cfe341f51c17759c36475a1a7698f0dc3816040516112df91906132ba565b60405180910390a150565b60015481565b60066020528060005260406000206000915090505481565b60076020528060005260406000206000915054906101000a900460ff1681565b60008060009054906101000a900460ff16905090565b6000600554905090565b600060019054906101000a900473ffffffffffffffffffffffffffffffffffffffff1673ffffffffffffffffffffffffffffffffffffffff163373ffffffffffffffffffffffffffffffffffffffff16146113d8576040517f08c379a00000000000000000000000000000000000000000000000000000000081526004016113cf906133b0565b60405180910390fd5b600160038111156113ec576113eb6137ad565b5b60008054906101000a900460ff16600381111561140c5761140b6137ad565b5b1461144c576040517f08c379a000000000000000000000000000000000000000000000000000000000815260040161144390613450565b60405180910390fd5b8247101561148f576040517f08c379a0000000000000000000000000000000000000000000000000000000008152600401611486906133f0565b60405180910390fd5b600060086001816001815401808255809150500390600052602060002090600702019050828160010160006101000a81548173ffffffffffffffffffffffffffffffffffffffff021916908373ffffffffffffffffffffffffffffffffffffffff160217905550838160000181905550600081600201819055506000816003018190555060008160050160006101000a81548160ff0219169083600381111561153b5761153a6137ad565b5b021790555062093a804261154f9190613643565b81600601819055507f288a29bca04edb18fcdb2c76d6e3b03b8a137c85c70d1a4cb8aacfa868d605108260405161158691906132ba565b60405180910390a150505050565b600060019054906101000a900473ffffffffffffffffffffffffffffffffffffffff1673ffffffffffffffffffffffffffffffffffffffff163373ffffffffffffffffffffffffffffffffffffffff1614611624576040517f08c379a000000000000000000000000000000000000000000000000000000000815260040161161b906133b0565b60405180910390fd5b60006003811115611638576116376137ad565b5b60008054906101000a900460ff166003811115611658576116576137ad565b5b14611698576040517f08c379a000000000000000000000000000000000000000000000000000000000815260040161168f906134b0565b60405180910390fd5b6001544710156116dd576040517f08c379a00000000000000000000000000000000000000000000000000000000081526004016116d490613430565b60405180910390fd5b60016000806101000a81548160ff02191690836003811115611702576117016137ad565b5b0217905550476004819055507fe283e942d53c4322165eacc7a597c86cdbc698c96321f57a82b29c615810a69560405160405180910390a1565b600060019054906101000a900473ffffffffffffffffffffffffffffffffffffffff1681565b6000600660003373ffffffffffffffffffffffffffffffffffffffff1673ffffffffffffffffffffffffffffffffffffffff1681526020019081526020016000205411806117fd5750600060019054906101000a900473ffffffffffffffffffffffffffffffffffffffff1673ffffffffffffffffffffffffffffffffffffffff163373ffffffffffffffffffffffffffffffffffffffff16145b61183c576040517f08c379a000000000000000000000000000000000000000000000000000000000815260040161183390613310565b60405180910390fd5b600160038111156118505761184f6137ad565b5b60008054906101000a900460ff1660038111156118705761186f6137ad565b5b146118b0576040517f08c379a00000000000000000000000000000000000000000000000000000000081526004016118a790613450565b60405180910390fd5b600060096001816001815401808255809150500390600052602060002090600502019050600081600001819055506000816001018190555060008160030160006101000a81548160ff021916908360038111156119105761190f6137ad565b5b021790555062093a80426119249190613643565b81600401819055507ff58a42dcfacfd41fd5d3681beb4755c6023d9bd2d5c1ae46e8866ece6463cee78260405161195b91906132ba565b60405180910390a15050565b6000600660003373ffffffffffffffffffffffffffffffffffffffff1673ffffffffffffffffffffffffffffffffffffffff168152602001908152602001600020541180611a025750600060019054906101000a900473ffffffffffffffffffffffffffffffffffffffff1673ffffffffffffffffffffffffffffffffffffffff163373ffffffffffffffffffffffffffffffffffffffff16145b611a41576040517f08c379a0000000000000000000000000000000000000000000000000000000008152600401611a3890613310565b60405180910390fd5b60016003811115611a5557611a546137ad565b5b60008054906101000a900460ff166003811115611a7557611a746137ad565b5b14611ab5576040517f08c379a0000000000000000000000000000000000000000000000000000000008152600401611aac90613450565b60405180910390fd5b8060006003811115611aca57611ac96137ad565b5b60088281548110611ade57611add6137dc565b5b906000526020600020906007020160050160009054906101000a900460ff166003811115611b0f57611b0e6137ad565b5b14611b4f576040517f08c379a0000000000000000000000000000000000000000000000000000000008152600401611b46906134f0565b60405180910390fd5b8160088181548110611b6457611b636137dc565b5b906000526020600020906007020160060154421115611bb8576040517f08c379a0000000000000000000000000000000000000000000000000000000008152600401611baf906133d0565b60405180910390fd5b600060088481548110611bce57611bcd6137dc565b5b906000526020600020906007020190508060040160003373ffffffffffffffffffffffffffffffffffffffff1673ffffffffffffffffffffffffffffffffffffffff16815260200190815260200160002060009054906101000a900460ff1615611c6d576040517f08c379a0000000000000000000000000000000000000000000000000000000008152600401611c6490613470565b60405180910390fd5b60018160040160003373ffffffffffffffffffffffffffffffffffffffff1673ffffffffffffffffffffffffffffffffffffffff16815260200190815260200160002060006101000a81548160ff021916908315150217905550806002016000815480929190611cdc90613735565b91905055507f26b645fdecdf266f3abc5b7ae3e796ffd297febba8bd3a8ad49c68435190fc6984604051611d109190613510565b60405180910390a150505050565b6000600880549050905090565b600080600660008473ffffffffffffffffffffffffffffffffffffffff1673ffffffffffffffffffffffffffffffffffffffff16815260200190815260200160002054119050919050565b60025481565b60098181548110611d8c57600080fd5b90600052602060002090600502016000915090508060000154908060010154908060030160009054906101000a900460ff16908060040154905084565b600080600080600080600080600060088a81548110611deb57611dea6137dc565b5b9060005260206000209060070201905060008160060154421115905060008260040160003373ffffffffffffffffffffffffffffffffffffffff1673ffffffffffffffffffffffffffffffffffffffff16815260200190815260200160002060009054906101000a900460ff1690508260010160009054906101000a900473ffffffffffffffffffffffffffffffffffffffff168360000154846002015485600301548660050160009054906101000a900460ff16876006015487879a509a509a509a509a509a509a509a50505050919395975091939597565b6000600660003373ffffffffffffffffffffffffffffffffffffffff1673ffffffffffffffffffffffffffffffffffffffff168152602001908152602001600020541180611f605750600060019054906101000a900473ffffffffffffffffffffffffffffffffffffffff1673ffffffffffffffffffffffffffffffffffffffff163373ffffffffffffffffffffffffffffffffffffffff16145b611f9f576040517f08c379a0000000000000000000000000000000000000000000000000000000008152600401611f9690613310565b60405180910390fd5b60016003811115611fb357611fb26137ad565b5b60008054906101000a900460ff166003811115611fd357611fd26137ad565b5b14612013576040517f08c379a000000000000000000000000000000000000000000000000000000000815260040161200a90613450565b60405180910390fd5b8060006003811115612028576120276137ad565b5b6008828154811061203c5761203b6137dc565b5b906000526020600020906007020160050160009054906101000a900460ff16600381111561206d5761206c6137ad565b5b146120ad576040517f08c379a00000000000000000000000000000000000000000000000000000000081526004016120a4906134f0565b60405180910390fd5b81600881815481106120c2576120c16137dc565b5b906000526020600020906007020160060154421115612116576040517f08c379a000000000000000000000000000000000000000000000000000000000815260040161210d906133d0565b60405180910390fd5b60006008848154811061212c5761212b6137dc565b5b906000526020600020906007020190508060040160003373ffffffffffffffffffffffffffffffffffffffff1673ffffffffffffffffffffffffffffffffffffffff16815260200190815260200160002060009054906101000a900460ff16156121cb576040517f08c379a00000000000000000000000000000000000000000000000000000000081526004016121c290613470565b60405180910390fd5b60018160040160003373ffffffffffffffffffffffffffffffffffffffff1673ffffffffffffffffffffffffffffffffffffffff16815260200190815260200160002060006101000a81548160ff02191690831515021790555080600301600081548092919061223a90613735565b91905055507f26b645fdecdf266f3abc5b7ae3e796ffd297febba8bd3a8ad49c68435190fc698460405161226e9190613510565b60405180910390a150505050565b60008060008060008060008060019054906101000a900473ffffffffffffffffffffffffffffffffffffffff1660008054906101000a900460ff16600154600254600354600454600554965096509650965096509650965090919293949596565b6000600660003373ffffffffffffffffffffffffffffffffffffffff1673ffffffffffffffffffffffffffffffffffffffff1681526020019081526020016000205414801561237a5750600060019054906101000a900473ffffffffffffffffffffffffffffffffffffffff1673ffffffffffffffffffffffffffffffffffffffff163373ffffffffffffffffffffffffffffffffffffffff1614155b6123b9576040517f08c379a00000000000000000000000000000000000000000000000000000000081526004016123b090613350565b60405180910390fd5b600060038111156123cd576123cc6137ad565b5b60008054906101000a900460ff1660038111156123ed576123ec6137ad565b5b1461242d576040517f08c379a0000000000000000000000000000000000000000000000000000000008152600401612424906134b0565b60405180910390fd5b600254341015612472576040517f08c379a0000000000000000000000000000000000000000000000000000000008152600401612469906132f0565b60405180910390fd5b34600660003373ffffffffffffffffffffffffffffffffffffffff1673ffffffffffffffffffffffffffffffffffffffff16815260200190815260200160002081905550600360008154809291906124c990613735565b91905055507f0673e22453ca22ab66c750388a377485c2d57a19fb171f1442f45e933d5e841860405160405180910390a1565b60055481565b60008060098381548110612519576125186137dc565b5b906000526020600020906005020190508060020160003373ffffffffffffffffffffffffffffffffffffffff1673ffffffffffffffffffffffffffffffffffffffff16815260200190815260200160002060009054906101000a900460ff16915050919050565b60008060008060008060006009888154811061259f5761259e6137dc565b5b9060005260206000209060050201905060008160040154421115905060008260020160003373ffffffffffffffffffffffffffffffffffffffff1673ffffffffffffffffffffffffffffffffffffffff16815260200190815260200160002060009054906101000a900460ff169050826000015483600101548460030160009054906101000a900460ff168560040154858598509850985098509850985050505091939550919395565b6000600454905090565b6000806008838154811061266a576126696137dc565b5b906000526020600020906007020190508060040160003373ffffffffffffffffffffffffffffffffffffffff1673ffffffffffffffffffffffffffffffffffffffff16815260200190815260200160002060009054906101000a900460ff16915050919050565b6000600660003373ffffffffffffffffffffffffffffffffffffffff1673ffffffffffffffffffffffffffffffffffffffff16815260200190815260200160002054118061276c5750600060019054906101000a900473ffffffffffffffffffffffffffffffffffffffff1673ffffffffffffffffffffffffffffffffffffffff163373ffffffffffffffffffffffffffffffffffffffff16145b6127ab576040517f08c379a00000000000000000000000000000000000000000000000000000000081526004016127a290613310565b60405180910390fd5b600160038111156127bf576127be6137ad565b5b60008054906101000a900460ff1660038111156127df576127de6137ad565b5b1461281f576040517f08c379a000000000000000000000000000000000000000000000000000000000815260040161281690613450565b60405180910390fd5b8060006003811115612834576128336137ad565b5b60098281548110612848576128476137dc565b5b906000526020600020906005020160030160009054906101000a900460ff166003811115612879576128786137ad565b5b146128b9576040517f08c379a00000000000000000000000000000000000000000000000000000000081526004016128b090613390565b60405180910390fd5b81600981815481106128ce576128cd6137dc565b5b906000526020600020906005020160040154421115612922576040517f08c379a000000000000000000000000000000000000000000000000000000000815260040161291990613490565b60405180910390fd5b600060098481548110612938576129376137dc565b5b906000526020600020906005020190508060020160003373ffffffffffffffffffffffffffffffffffffffff1673ffffffffffffffffffffffffffffffffffffffff16815260200190815260200160002060009054906101000a900460ff16156129d7576040517f08c379a00000000000000000000000000000000000000000000000000000000081526004016129ce90613330565b60405180910390fd5b60018160020160003373ffffffffffffffffffffffffffffffffffffffff1673ffffffffffffffffffffffffffffffffffffffff16815260200190815260200160002060006101000a81548160ff021916908315150217905550806001016000815480929190612a4690613735565b919050555050505050565b6000600660003373ffffffffffffffffffffffffffffffffffffffff1673ffffffffffffffffffffffffffffffffffffffff168152602001908152602001600020541180612aec5750600060019054906101000a900473ffffffffffffffffffffffffffffffffffffffff1673ffffffffffffffffffffffffffffffffffffffff163373ffffffffffffffffffffffffffffffffffffffff16145b612b2b576040517f08c379a0000000000000000000000000000000000000000000000000000000008152600401612b2290613310565b60405180910390fd5b60016003811115612b3f57612b3e6137ad565b5b60008054906101000a900460ff166003811115612b5f57612b5e6137ad565b5b14612b9f576040517f08c379a0000000000000000000000000000000000000000000000000000000008152600401612b9690613450565b60405180910390fd5b8060006003811115612bb457612bb36137ad565b5b60098281548110612bc857612bc76137dc565b5b906000526020600020906005020160030160009054906101000a900460ff166003811115612bf957612bf86137ad565b5b14612c39576040517f08c379a0000000000000000000000000000000000000000000000000000000008152600401612c3090613390565b60405180910390fd5b8160098181548110612c4e57612c4d6137dc565b5b906000526020600020906005020160040154421115612ca2576040517f08c379a0000000000000000000000000000000000000000000000000000000008152600401612c9990613490565b60405180910390fd5b600060098481548110612cb857612cb76137dc565b5b906000526020600020906005020190508060020160003373ffffffffffffffffffffffffffffffffffffffff1673ffffffffffffffffffffffffffffffffffffffff16815260200190815260200160002060009054906101000a900460ff1615612d57576040517f08c379a0000000000000000000000000000000000000000000000000000000008152600401612d4e90613330565b60405180910390fd5b60018160020160003373ffffffffffffffffffffffffffffffffffffffff1673ffffffffffffffffffffffffffffffffffffffff16815260200190815260200160002060006101000a81548160ff021916908315150217905550806000016000815480929190612dc690613735565b919050555050505050565b600081359050612de081613c93565b92915050565b600081359050612df581613caa565b92915050565b600081359050612e0a81613cc1565b92915050565b600060208284031215612e2657612e2561380b565b5b6000612e3484828501612dd1565b91505092915050565b600060208284031215612e5357612e5261380b565b5b6000612e6184828501612de6565b91505092915050565b600060208284031215612e8057612e7f61380b565b5b6000612e8e84828501612dfb565b91505092915050565b600080600060608486031215612eb057612eaf61380b565b5b6000612ebe86828701612dfb565b9350506020612ecf86828701612dd1565b9250506040612ee086828701612de6565b9150509250925092565b612ef381613699565b82525050565b612f02816136ab565b82525050565b612f11816136b7565b82525050565b612f2081613711565b82525050565b612f2f81613723565b82525050565b6000612f42601f83613632565b9150612f4d82613810565b602082019050919050565b6000612f65601783613632565b9150612f7082613839565b602082019050919050565b6000612f88603a83613632565b9150612f9382613862565b604082019050919050565b6000612fab601b83613632565b9150612fb6826138b1565b602082019050919050565b6000612fce602f83613632565b9150612fd9826138da565b604082019050919050565b6000612ff1602b83613632565b9150612ffc82613929565b604082019050919050565b6000613014601883613632565b915061301f82613978565b602082019050919050565b6000613037602183613632565b9150613042826139a1565b604082019050919050565b600061305a601b83613632565b9150613065826139f0565b602082019050919050565b600061307d601d83613632565b915061308882613a19565b602082019050919050565b60006130a0602283613632565b91506130ab82613a42565b604082019050919050565b60006130c3602283613632565b91506130ce82613a91565b604082019050919050565b60006130e6603183613632565b91506130f182613ae0565b604082019050919050565b6000613109602a83613632565b915061311482613b2f565b604082019050919050565b600061312c602383613632565b915061313782613b7e565b604082019050919050565b600061314f602683613632565b915061315a82613bcd565b604082019050919050565b6000613172602283613632565b915061317d82613c1c565b604082019050919050565b61319181613707565b82525050565b60006020820190506131ac6000830184612eea565b92915050565b600060e0820190506131c7600083018a612eea565b6131d46020830189612f17565b6131e16040830188613188565b6131ee6060830187613188565b6131fb6080830186613188565b61320860a0830185613188565b61321560c0830184613188565b98975050505050505050565b600061010082019050613237600083018b612eea565b613244602083018a613188565b6132516040830189613188565b61325e6060830188613188565b61326b6080830187612f26565b61327860a0830186613188565b61328560c0830185612ef9565b61329260e0830184612ef9565b9998505050505050505050565b60006020820190506132b46000830184612ef9565b92915050565b60006020820190506132cf6000830184612f08565b92915050565b60006020820190506132ea6000830184612f17565b92915050565b6000602082019050818103600083015261330981612f35565b9050919050565b6000602082019050818103600083015261332981612f58565b9050919050565b6000602082019050818103600083015261334981612f7b565b9050919050565b6000602082019050818103600083015261336981612f9e565b9050919050565b6000602082019050818103600083015261338981612fc1565b9050919050565b600060208201905081810360008301526133a981612fe4565b9050919050565b600060208201905081810360008301526133c981613007565b9050919050565b600060208201905081810360008301526133e98161302a565b9050919050565b600060208201905081810360008301526134098161304d565b9050919050565b6000602082019050818103600083015261342981613070565b9050919050565b6000602082019050818103600083015261344981613093565b9050919050565b60006020820190508181036000830152613469816130b6565b9050919050565b60006020820190508181036000830152613489816130d9565b9050919050565b600060208201905081810360008301526134a9816130fc565b9050919050565b600060208201905081810360008301526134c98161311f565b9050919050565b600060208201905081810360008301526134e981613142565b9050919050565b6000602082019050818103600083015261350981613165565b9050919050565b60006020820190506135256000830184613188565b92915050565b600060c0820190506135406000830189613188565b61354d6020830188612eea565b61355a6040830187613188565b6135676060830186613188565b6135746080830185612f26565b61358160a0830184613188565b979650505050505050565b60006080820190506135a16000830187613188565b6135ae6020830186613188565b6135bb6040830185612f26565b6135c86060830184613188565b95945050505050565b600060c0820190506135e66000830189613188565b6135f36020830188613188565b6136006040830187612f26565b61360d6060830186613188565b61361a6080830185612ef9565b61362760a0830184612ef9565b979650505050505050565b600082825260208201905092915050565b600061364e82613707565b915061365983613707565b9250827fffffffffffffffffffffffffffffffffffffffffffffffffffffffffffffffff0382111561368e5761368d61377e565b5b828201905092915050565b60006136a4826136e7565b9050919050565b60008115159050919050565b6000819050919050565b60008190506136cf82613c6b565b919050565b60008190506136e282613c7f565b919050565b600073ffffffffffffffffffffffffffffffffffffffff82169050919050565b6000819050919050565b600061371c826136c1565b9050919050565b600061372e826136d4565b9050919050565b600061374082613707565b91507fffffffffffffffffffffffffffffffffffffffffffffffffffffffffffffffff8214156137735761377261377e565b5b600182019050919050565b7f4e487b7100000000000000000000000000000000000000000000000000000000600052601160045260246000fd5b7f4e487b7100000000000000000000000000000000000000000000000000000000600052602160045260246000fd5b7f4e487b7100000000000000000000000000000000000000000000000000000000600052603260045260246000fd5b600080fd5b7f54686520636f6e747269627574696f6e20697320696e737566696369656e7400600082015250565b7f53656e646572206973206e6f742061206d656d6265722e000000000000000000600082015250565b7f5468652064657374727563742070726f706f73616c20686173206265656e206160008201527f6c726561647920766f746564206279207468652073656e646572000000000000602082015250565b7f53656e64657220697320616c72656164792061206d656d6265722e0000000000600082015250565b7f5468652064657374727563742070726f706f73616c206973207374696c6c206f60008201527f70656e20666f7220766f74696e672e0000000000000000000000000000000000602082015250565b7f5468652064657374727563742070726f706f73616c206973206e6f74206c6f6e60008201527f676572206163746976652e000000000000000000000000000000000000000000602082015250565b7f53656e646572206973206e6f7420746865206f776e65722e0000000000000000600082015250565b7f5468652070726f706f73616c20697320636c6f736520666f7220766f74696e6760008201527f2e00000000000000000000000000000000000000000000000000000000000000602082015250565b7f54686520666f756e64732061726520696e73756666696369656e740000000000600082015250565b7f5468652070726f706f73616c206973206e6f7420617070726f7665642e000000600082015250565b7f54686520636f6e747269627574696f6e732061726520696e737566666963696560008201527f6e74000000000000000000000000000000000000000000000000000000000000602082015250565b7f5468652063616d706169676e20737461747573206973206e6f7420616374697660008201527f652e000000000000000000000000000000000000000000000000000000000000602082015250565b7f5468652070726f706f73616c20686173206265656e20616c726561647920766f60008201527f746564206279207468652073656e646572000000000000000000000000000000602082015250565b7f5468652064657374727563742070726f706f73616c20697320636c6f7365206660008201527f6f7220766f74696e672e00000000000000000000000000000000000000000000602082015250565b7f5468652063616d706169676e20737461747573206973206e6f7420637265617460008201527f65642e0000000000000000000000000000000000000000000000000000000000602082015250565b7f5468652070726f706f73616c206973207374696c6c206f70656e20666f72207660008201527f6f74696e672e0000000000000000000000000000000000000000000000000000602082015250565b7f5468652070726f706f73616c206973206e6f74206c6f6e67657220616374697660008201527f652e000000000000000000000000000000000000000000000000000000000000602082015250565b60048110613c7c57613c7b6137ad565b5b50565b60048110613c9057613c8f6137ad565b5b50565b613c9c81613699565b8114613ca757600080fd5b50565b613cb3816136b7565b8114613cbe57600080fd5b50565b613cca81613707565b8114613cd557600080fd5b5056fea2646970667358221220aac993afb51b98797c37b437875f404b00dabd08de72d4ffcacf81b960a055cf64736f6c63430008060033",
  "immutableReferences": {},
  "source": "//SPDX-License-Identifier: GPL-3.0-only\npragma solidity ^0.8.0;\n\ncontract CrowdfundingCampaign {\n\n    /* Enums */\n\n    enum CampaignStatus { CREATED, ACTIVE, DESTROYED, SUCCESSFUL }\n    enum ProposalStatus { ACTIVE, APPROVED, DISAPPROVED, SUCCESSFUL }\n\n    \n    /* Structs */\n\n    /** @dev Struct proposal\n        This struct represents the proposals that only owner can make to get more founds.\n    **/\n    struct Proposal {\n        uint value;\n        address recipient;\n        uint approvalsCount;\n        uint disapprovalsCount;\n        mapping(address => bool) voters;\n        ProposalStatus status;\n        uint limitTime;\n    }\n\n    /** @dev Struct destruct proposal\n        This struct represents the proposal that members can make to get their founds back.\n    **/\n    struct DestructProposal {\n        uint approvalsCount;\n        uint disapprovalsCount;\n        mapping(address => bool) voters;\n        ProposalStatus status;\n        uint limitTime;\n    }\n\n    /* Storage */\n\n    CampaignStatus public status;\n    \n    address public owner;\n    \n    uint public goal;\n    uint public minimunContribution;\n    uint public membersCount;\n    uint public finalContributions;\n    uint public remainingContributions;\n    \n    mapping(address => uint) public contributions;\n    mapping(address => bool) public withdraws;\n    \n    Proposal[] public proposals;\n    DestructProposal[] public destructProposals;\n    \n\n    /** @dev Constructor.\n     *  @param _minimunContribution minimum contribution in wei that a person has to make to become a member.\n     *  @param _goal goal in wei that the proyect has to reach to be succesfull.\n     *  @param _ipfshash The url hash of the campaign data previusly stored in IPFS.\n    **/\n    constructor(uint _minimunContribution, uint _goal, bytes32 _ipfshash) {\n        owner = msg.sender;\n        goal = _goal;\n        minimunContribution = _minimunContribution;\n        status = CampaignStatus.CREATED;\n        membersCount = 0;\n        //finalContributions = 0;\n\n        emit CampaignCreated(_ipfshash);\n    }\n\n\n    /* Modifiers */\n\n    modifier restricted() { require(msg.sender==owner, \"Sender is not the owner.\"); _; }\n\n    modifier membering() { require( (contributions[msg.sender]>0) || (msg.sender == owner), \"Sender is not a member.\"); _; }\n\n    modifier notMembering() { require( (contributions[msg.sender]==0) && (msg.sender != owner) , \"Sender is already a member.\"); _; }\n\n    modifier statusCreated() \n        { require(status == CampaignStatus.CREATED, \"The campaign status is not created.\"); _; }\n\n    modifier statusActive()\n        { require(status == CampaignStatus.ACTIVE, \"The campaign status is not active.\"); _; }\n\n    modifier proposalActive(uint _index) \n        { require(proposals[_index].status == ProposalStatus.ACTIVE, \"The proposal is not longer active.\"); _; }\n\n    modifier proposalApproved(uint _index) \n        { require(proposals[_index].status == ProposalStatus.APPROVED, \"The proposal is not approved.\" ); _; }\n\n    modifier beInTimeProposal(uint _index)\n        { require (block.timestamp <= proposals[_index].limitTime, \"The proposal is close for voting.\"); _; }\n\n    modifier passedTimeProposal(uint _index)\n        { require (block.timestamp > proposals[_index].limitTime, \"The proposal is still open for voting.\"); _; }\n\n    modifier destructProposalActive(uint _index) {\n        require(\n            destructProposals[_index].status == ProposalStatus.ACTIVE,\n            \"The destruct proposal is not longer active.\");\n        _;\n    }\n\n    modifier destructProposalApproved(uint _index) {\n        require(\n            destructProposals[_index].status == ProposalStatus.APPROVED,\n            \"The destruct proposal is not approved.\");\n        _;\n    }\n\n    modifier beInTimeDestructProposal(uint _index) { \n        require (block.timestamp <= destructProposals[_index].limitTime, \"The destruct proposal is close for voting.\"); _; \n    }\n\n    modifier passedTimeDestructProposal(uint _index) { \n        require (block.timestamp > destructProposals[_index].limitTime, \"The destruct proposal is still open for voting.\"); _; \n    }\n\n\n    /* Events */\n\n    /** @dev Emitted when the author creates the campaign.\n     *  @param _ipfshash The url hash of the campaign data stored in IPFS.\n     */\n    event CampaignCreated(bytes32 _ipfshash);\n\n    /** @dev Emitted when a new person contributes with the campaign.\n     */\n    event NewContribution();\n\n    /** @dev Emitted when the author creates a proposal to free founds.\n     *  @param _ipfshash The url hash of the proposal data stored in IPFS.\n     */\n    event ProposalCreated(bytes32 _ipfshash);\n\n     /** @dev Emitted when a proposal is voted.\n     *  @param _index The index of the proposal.\n     */\n    event ProposalVoted(uint _index);\n\n    /** @dev Emitted when a proposal is Closed.\n     *  @param _index The index of the proposal.\n     */\n    event ProposalClosed(uint _index);\n\n    /** @dev Emitted when a proposal was withdraw.\n     *  @param _index The index of the proposal.\n     */\n    event ProposalWithdraw(uint _index);\n\n     /** @dev Emitted when a member creates a proposal to destruct the campaign and get the founds back.\n     *  @param _ipfshash The url hash of the destruct proposal data stored in IPFS.\n     */\n    event DestructProposalCreated(bytes32 _ipfshash);\n\n    /** @dev Emitted when a destruct proposal is voted.\n     *  @param _index The index of the destruct proposal.\n     */\n    event DestructProposalVoted(uint _index);\n\n    /** @dev Emitted when a  destruct proposal is Closed.\n     *  @param _index The index of the destruct proposal.\n     */\n    event DestructProposalClosed(uint _index);\n\n    /** @dev Emitted when the author creates a progress update to show how the proyect is going.\n     *  @param _ipfshash The url hash of the progress update data stored in IPFS.\n     */\n    event ProgressUpdate(bytes32 _ipfshash);\n\n    /** @dev Emitted when the status of the campaign change.\n     */\n    event ChangeStatusCampaign();\n\n\n    /* Functions */\n\n    /** @dev Allow not members to contribute with the campaign and be a member of it.\n     */\n    function contribute() public notMembering statusCreated payable {\n        require(msg.value >= minimunContribution, \"The contribution is insuficient\");\n        contributions[msg.sender] = msg.value;\n        membersCount++;\n        emit NewContribution();\n    }\n\n    /** @dev Allow only owner to change the status of the cCampaign from CREATED to ACTIVE.\n     */\n    function setActive() public restricted statusCreated {\n        \n        require(address(this).balance >= goal,\"The contributions are insufficient\");\n        status = CampaignStatus.ACTIVE;\n        finalContributions = address(this).balance;\n\n        emit ChangeStatusCampaign();\n         \n    }\n\n    /** @dev Allow only owner to save a new progress Update data ipfs hash.\n     *  @param _ipfshash url hash of the progress update data (description and pictures) previusly stored in IPFS.\n     */\n    function saveProgressUpdate(bytes32 _ipfshash) \n        public restricted statusActive {\n        emit ProgressUpdate(_ipfshash); \n    }\n\n    /** @dev Allow only owner to create a new proposal to get more founds.\n     *  @param _value founds in wei that the owner want to withdraw.\n     *  @param _recipient address where the founds are going to be after withdraw them.\n     *  @param _ipfshash url hash of the proposal data (description and pictures) previusly stored in IPFS.\n     */\n    function createProposal(uint _value, address _recipient, bytes32 _ipfshash) \n        public restricted statusActive {\n\n        require(address(this).balance >= _value, \"The founds are insufficient\");\n\n        Proposal storage newProposal = proposals.push();\n        newProposal.recipient = _recipient;\n        newProposal.value = _value;\n        newProposal.approvalsCount = 0;\n        newProposal.disapprovalsCount = 0;\n        newProposal.status = ProposalStatus.ACTIVE;\n        newProposal.limitTime= block.timestamp + 7 days;\n\n        emit ProposalCreated(_ipfshash);\n        \n    }\n\n    /** @dev Allow only members to approve an active proposal that they haven't voted before.\n     *  @param _index index of the proposal the member wants to approve.\n     */\n    function approveProposal(uint _index) public membering statusActive proposalActive(_index) beInTimeProposal(_index) {\n\n        Proposal storage proposal = proposals[_index];\n        require(!proposal.voters[msg.sender], \"The proposal has been already voted by the sender\");\n\n        proposal.voters[msg.sender] = true;\n        proposal.approvalsCount++;\n\n        emit ProposalVoted(_index);        \n    }\n\n    /** @dev Allow only members to disapprove an active proposal that they haven't voted before.\n     *  @param _index index of the proposal the member wants to disapprove.\n     */\n    function disapproveProposal(uint _index) public membering statusActive proposalActive(_index) beInTimeProposal(_index) {\n\n        Proposal storage proposal = proposals[_index];\n        require(!proposal.voters[msg.sender], \"The proposal has been already voted by the sender\");\n\n        proposal.voters[msg.sender] = true;\n        proposal.disapprovalsCount++;\n        \n        emit ProposalVoted(_index);\n    }\n\n    /** @dev Allow only members to close an active proposal that already has its voting time over.\n     *  @param _index index of the proposal the member wants to approve.\n     */\n    function closeProposal(uint _index) public membering statusActive proposalActive(_index) passedTimeProposal(_index) {\n\n        Proposal storage proposal = proposals[_index];\n\n        if (proposal.approvalsCount > proposal.disapprovalsCount) {\n            proposal.status = ProposalStatus.APPROVED; \n        }\n        else {\n            proposal.status = ProposalStatus.DISAPPROVED;\n        }\n\n        emit ProposalClosed(_index);\n    }\n\n    /** @dev Allow only members to close an active proposal that already has its voting time over.\n     *  @param _index index of the proposal the member wants to approve.\n     */\n    function withdraw(uint _index) public restricted statusActive proposalApproved(_index) {\n\n        Proposal storage proposal = proposals[_index];\n        proposal.status = ProposalStatus.SUCCESSFUL; \n        payable(proposal.recipient).transfer(proposal.value);\n        \n        emit ProposalWithdraw(_index);\n    }\n\n    /** @dev Allow only members to create a new proposal to finish de proyect and get the founds back.\n     *  @param _ipfshash url hash of the destruct proposal data (description) previusly stored in IPFS.\n     */\n    function createDestructProposal(bytes32 _ipfshash) public membering statusActive {\n\n        DestructProposal storage newDProposal = destructProposals.push();\n        newDProposal.approvalsCount = 0;\n        newDProposal.disapprovalsCount = 0;\n        newDProposal.status = ProposalStatus.ACTIVE;\n        newDProposal.limitTime= block.timestamp + 7 days;\n\n        emit DestructProposalCreated(_ipfshash);\n         \n    }\n\n    /** @dev Allow only members to approve an active destruct proposal that they haven't voted before.\n     *  @param _index index of the destruct proposal the member wants to approve.\n     */\n    function aproveDestructProposal(uint _index) public membering statusActive destructProposalActive(_index) beInTimeDestructProposal(_index) {\n\n        DestructProposal storage dProposal = destructProposals[_index];\n        require(!dProposal.voters[msg.sender], \"The destruct proposal has been already voted by the sender\");\n\n        dProposal.voters[msg.sender] = true;\n        dProposal.approvalsCount++;\n        \n    }\n\n    /** @dev Allow only members to disapprove an active destruct proposal that they haven't voted before.\n     *  @param _index index of the destruct proposal the member wants to disapprove.\n     */\n    function disapproveDestructProposal(uint _index) public membering statusActive destructProposalActive(_index) beInTimeDestructProposal(_index) {\n\n        DestructProposal storage dProposal = destructProposals[_index];\n        require(!dProposal.voters[msg.sender], \"The destruct proposal has been already voted by the sender\");\n\n        dProposal.voters[msg.sender] = true;\n        dProposal.disapprovalsCount++;\n        \n    }\n\n    /** @dev Allow only members to close an active proposal that already has its voting time over.\n     *  @param _index index of the proposal the member wants to approve.\n     */\n    function closeDestructProposal(uint _index) public membering statusActive destructProposalActive(_index) passedTimeDestructProposal(_index) {\n\n        DestructProposal storage dProposal = destructProposals[_index];\n\n        if (dProposal.approvalsCount > dProposal.disapprovalsCount) {\n            dProposal.status = ProposalStatus.APPROVED; \n        }\n        else {\n            dProposal.status = ProposalStatus.DISAPPROVED;\n        }\n\n        emit DestructProposalClosed(_index);\n    }\n\n     /* Aux functions */\n\n    /** @dev Function to return if someone is member.\n     */\n    function isMember(address _address) public view returns (bool) {\n        return contributions[_address]>0;\n    }\n\n    /** @dev Function to get the actual status of the campaign.\n     */\n    function getStatus() public view returns (CampaignStatus) {\n        return status;\n    }\n\n    /** @dev Function to get the finalContributions of the campaign.\n     */\n    function getFinalContributions() public view returns (uint) {\n        return finalContributions;\n    }\n\n    /** @dev Function to get the remainingContributions of the campaign.\n     */\n    function getRemainingContributions() public view returns (uint) {\n        return remainingContributions;\n    }\n\n    /** @dev Function to get the data of the campaign\n     */\n    function getCampaignInfo() public view returns (address, CampaignStatus, uint, uint, uint, uint, uint) {\n        return (owner, status, goal, minimunContribution, membersCount, finalContributions, remainingContributions);\n    } \n\n    /** @dev Function to get the data of a proposal.\n     *  @param _index index of the proposal to return\n     */\n    function getProposal(uint _index) public view returns (address, uint, uint, uint, ProposalStatus, uint, bool, bool) {\n        Proposal storage proposal = proposals[_index];\n        bool inTime = block.timestamp <= proposal.limitTime;\n        bool senderHasVote = proposal.voters[msg.sender];\n        return (proposal.recipient, proposal.value, proposal.approvalsCount, proposal.disapprovalsCount, proposal.status, proposal.limitTime, inTime, senderHasVote);\n    } \n\n     /** @dev Function to know if a member has already vot a proposal.\n     *  @param _index index of the proposal\n     */\n    function hasVotedProposal(uint _index) public view returns (bool) {\n        Proposal storage proposal = proposals[_index];\n        return proposal.voters[msg.sender];\n    } \n\n    /** @dev Function to get the total number of proposals.\n     */\n    function getProposalsCount() public view returns (uint) {\n        return proposals.length;\n    }\n\n     /** @dev Function to get the data of destruct proposal.\n     *  @param _index index of the destruct proposal to return\n     */\n    function getDestructProposal(uint _index) public view returns (uint, uint, ProposalStatus, uint, bool, bool) {\n        DestructProposal storage dProposal = destructProposals[_index];\n        bool inTime = block.timestamp <= dProposal.limitTime;\n        bool senderHasVote = dProposal.voters[msg.sender];\n        return (dProposal.approvalsCount, dProposal.disapprovalsCount, dProposal.status, dProposal.limitTime, inTime, senderHasVote);\n    } \n\n    /** @dev Function to know if a member has already vot a destruct proposal.\n     *  @param _index index of the proposal\n     */\n    function hasVotedDestructProposal(uint _index) public view returns (bool) {\n        DestructProposal storage dProposal = destructProposals[_index];\n        return dProposal.voters[msg.sender];\n    } \n\n    /** @dev Function to get the total number of destruct proposals.\n     */\n    function getDestructProposalsCount() public view returns (uint) {\n        return destructProposals.length;\n    }\n   \n}",
  "sourcePath": "/home/tati/Desktop/personal/Tesina/semideas-crowdfunding/contracts/CrowdfundingCampaign.sol",
  "compiler": {
    "name": "solc",
    "version": "0.8.6+commit.11564f7e.Emscripten.clang"
  },
  "schemaVersion": "3.4.1",
  "updatedAt": "2021-07-09T16:31:23.030Z",
  "devdoc": {
    "events": {
      "CampaignCreated(bytes32)": {
        "details": "Emitted when the author creates the campaign.",
        "params": {
          "_ipfshash": "The url hash of the campaign data stored in IPFS."
        }
      },
      "ChangeStatusCampaign()": {
        "details": "Emitted when the status of the campaign change."
      },
      "DestructProposalClosed(uint256)": {
        "details": "Emitted when a  destruct proposal is Closed.",
        "params": {
          "_index": "The index of the destruct proposal."
        }
      },
      "DestructProposalCreated(bytes32)": {
        "details": "Emitted when a member creates a proposal to destruct the campaign and get the founds back.",
        "params": {
          "_ipfshash": "The url hash of the destruct proposal data stored in IPFS."
        }
      },
      "DestructProposalVoted(uint256)": {
        "details": "Emitted when a destruct proposal is voted.",
        "params": {
          "_index": "The index of the destruct proposal."
        }
      },
      "NewContribution()": {
        "details": "Emitted when a new person contributes with the campaign."
      },
      "ProgressUpdate(bytes32)": {
        "details": "Emitted when the author creates a progress update to show how the proyect is going.",
        "params": {
          "_ipfshash": "The url hash of the progress update data stored in IPFS."
        }
      },
      "ProposalClosed(uint256)": {
        "details": "Emitted when a proposal is Closed.",
        "params": {
          "_index": "The index of the proposal."
        }
      },
      "ProposalCreated(bytes32)": {
        "details": "Emitted when the author creates a proposal to free founds.",
        "params": {
          "_ipfshash": "The url hash of the proposal data stored in IPFS."
        }
      },
      "ProposalVoted(uint256)": {
        "details": "Emitted when a proposal is voted.",
        "params": {
          "_index": "The index of the proposal."
        }
      },
      "ProposalWithdraw(uint256)": {
        "details": "Emitted when a proposal was withdraw.",
        "params": {
          "_index": "The index of the proposal."
        }
      }
    },
    "kind": "dev",
    "methods": {
      "approveProposal(uint256)": {
        "details": "Allow only members to approve an active proposal that they haven't voted before.",
        "params": {
          "_index": "index of the proposal the member wants to approve."
        }
      },
      "aproveDestructProposal(uint256)": {
        "details": "Allow only members to approve an active destruct proposal that they haven't voted before.",
        "params": {
          "_index": "index of the destruct proposal the member wants to approve."
        }
      },
      "closeDestructProposal(uint256)": {
        "details": "Allow only members to close an active proposal that already has its voting time over.",
        "params": {
          "_index": "index of the proposal the member wants to approve."
        }
      },
      "closeProposal(uint256)": {
        "details": "Allow only members to close an active proposal that already has its voting time over.",
        "params": {
          "_index": "index of the proposal the member wants to approve."
        }
      },
      "constructor": {
        "details": "Constructor.",
        "params": {
          "_goal": "goal in wei that the proyect has to reach to be succesfull.",
          "_ipfshash": "The url hash of the campaign data previusly stored in IPFS.*",
          "_minimunContribution": "minimum contribution in wei that a person has to make to become a member."
        }
      },
      "contribute()": {
        "details": "Allow not members to contribute with the campaign and be a member of it."
      },
      "createDestructProposal(bytes32)": {
        "details": "Allow only members to create a new proposal to finish de proyect and get the founds back.",
        "params": {
          "_ipfshash": "url hash of the destruct proposal data (description) previusly stored in IPFS."
        }
      },
      "createProposal(uint256,address,bytes32)": {
        "details": "Allow only owner to create a new proposal to get more founds.",
        "params": {
          "_ipfshash": "url hash of the proposal data (description and pictures) previusly stored in IPFS.",
          "_recipient": "address where the founds are going to be after withdraw them.",
          "_value": "founds in wei that the owner want to withdraw."
        }
      },
      "disapproveDestructProposal(uint256)": {
        "details": "Allow only members to disapprove an active destruct proposal that they haven't voted before.",
        "params": {
          "_index": "index of the destruct proposal the member wants to disapprove."
        }
      },
      "disapproveProposal(uint256)": {
        "details": "Allow only members to disapprove an active proposal that they haven't voted before.",
        "params": {
          "_index": "index of the proposal the member wants to disapprove."
        }
      },
      "getCampaignInfo()": {
        "details": "Function to get the data of the campaign"
      },
      "getDestructProposal(uint256)": {
        "details": "Function to get the data of destruct proposal.",
        "params": {
          "_index": "index of the destruct proposal to return"
        }
      },
      "getDestructProposalsCount()": {
        "details": "Function to get the total number of destruct proposals."
      },
      "getFinalContributions()": {
        "details": "Function to get the finalContributions of the campaign."
      },
      "getProposal(uint256)": {
        "details": "Function to get the data of a proposal.",
        "params": {
          "_index": "index of the proposal to return"
        }
      },
      "getProposalsCount()": {
        "details": "Function to get the total number of proposals."
      },
      "getRemainingContributions()": {
        "details": "Function to get the remainingContributions of the campaign."
      },
      "getStatus()": {
        "details": "Function to get the actual status of the campaign."
      },
      "hasVotedDestructProposal(uint256)": {
        "details": "Function to know if a member has already vot a destruct proposal.",
        "params": {
          "_index": "index of the proposal"
        }
      },
      "hasVotedProposal(uint256)": {
        "details": "Function to know if a member has already vot a proposal.",
        "params": {
          "_index": "index of the proposal"
        }
      },
      "isMember(address)": {
        "details": "Function to return if someone is member."
      },
      "saveProgressUpdate(bytes32)": {
        "details": "Allow only owner to save a new progress Update data ipfs hash.",
        "params": {
          "_ipfshash": "url hash of the progress update data (description and pictures) previusly stored in IPFS."
        }
      },
      "setActive()": {
        "details": "Allow only owner to change the status of the cCampaign from CREATED to ACTIVE."
      },
      "withdraw(uint256)": {
        "details": "Allow only members to close an active proposal that already has its voting time over.",
        "params": {
          "_index": "index of the proposal the member wants to approve."
        }
      }
    },
    "version": 1
  },
  "userdoc": {
    "kind": "user",
    "methods": {},
    "version": 1
  }
}