{
  "contractName": "CrowdfundingCampaign",
  "abi": [
    {
      "inputs": [
        {
          "internalType": "uint256",
          "name": "_minimunContribution",
          "type": "uint256"
        },
        {
          "internalType": "uint256",
          "name": "_goal",
          "type": "uint256"
        },
        {
          "internalType": "bytes32",
          "name": "_ipfshash",
          "type": "bytes32"
        }
      ],
      "stateMutability": "nonpayable",
      "type": "constructor"
    },
    {
      "anonymous": false,
      "inputs": [
        {
          "indexed": false,
          "internalType": "bytes32",
          "name": "_ipfshash",
          "type": "bytes32"
        }
      ],
      "name": "CampaignCreated",
      "type": "event"
    },
    {
      "anonymous": false,
      "inputs": [],
      "name": "ChangeStatusCampaign",
      "type": "event"
    },
    {
      "anonymous": false,
      "inputs": [
        {
          "indexed": false,
          "internalType": "uint256",
          "name": "_index",
          "type": "uint256"
        }
      ],
      "name": "CloseProposalClosed",
      "type": "event"
    },
    {
      "anonymous": false,
      "inputs": [
        {
          "indexed": false,
          "internalType": "bytes32",
          "name": "_ipfshash",
          "type": "bytes32"
        }
      ],
      "name": "CloseProposalCreated",
      "type": "event"
    },
    {
      "anonymous": false,
      "inputs": [
        {
          "indexed": false,
          "internalType": "uint256",
          "name": "_index",
          "type": "uint256"
        }
      ],
      "name": "CloseProposalVoted",
      "type": "event"
    },
    {
      "anonymous": false,
      "inputs": [],
      "name": "NewContribution",
      "type": "event"
    },
    {
      "anonymous": false,
      "inputs": [
        {
          "indexed": false,
          "internalType": "bytes32",
          "name": "_ipfshash",
          "type": "bytes32"
        }
      ],
      "name": "ProgressUpdate",
      "type": "event"
    },
    {
      "anonymous": false,
      "inputs": [
        {
          "indexed": false,
          "internalType": "uint256",
          "name": "_index",
          "type": "uint256"
        }
      ],
      "name": "ProposalClosed",
      "type": "event"
    },
    {
      "anonymous": false,
      "inputs": [
        {
          "indexed": false,
          "internalType": "bytes32",
          "name": "_ipfshash",
          "type": "bytes32"
        }
      ],
      "name": "ProposalCreated",
      "type": "event"
    },
    {
      "anonymous": false,
      "inputs": [
        {
          "indexed": false,
          "internalType": "uint256",
          "name": "_index",
          "type": "uint256"
        }
      ],
      "name": "ProposalRelease",
      "type": "event"
    },
    {
      "anonymous": false,
      "inputs": [
        {
          "indexed": false,
          "internalType": "uint256",
          "name": "_index",
          "type": "uint256"
        }
      ],
      "name": "ProposalVoted",
      "type": "event"
    },
    {
      "anonymous": false,
      "inputs": [
        {
          "indexed": false,
          "internalType": "address",
          "name": "_member",
          "type": "address"
        },
        {
          "indexed": false,
          "internalType": "uint256",
          "name": "contribution",
          "type": "uint256"
        },
        {
          "indexed": false,
          "internalType": "uint256",
          "name": "goal",
          "type": "uint256"
        },
        {
          "indexed": false,
          "internalType": "uint256",
          "name": "payment",
          "type": "uint256"
        },
        {
          "indexed": false,
          "internalType": "uint256",
          "name": "founds",
          "type": "uint256"
        }
      ],
      "name": "withdrawFounds",
      "type": "event"
    },
    {
      "inputs": [
        {
          "internalType": "uint256",
          "name": "",
          "type": "uint256"
        }
      ],
      "name": "closeProposals",
      "outputs": [
        {
          "internalType": "uint256",
          "name": "approvalsCount",
          "type": "uint256"
        },
        {
          "internalType": "uint256",
          "name": "disapprovalsCount",
          "type": "uint256"
        },
        {
          "internalType": "enum CrowdfundingCampaign.ProposalStatus",
          "name": "status",
          "type": "uint8"
        },
        {
          "internalType": "uint256",
          "name": "limitTime",
          "type": "uint256"
        },
        {
          "internalType": "address",
          "name": "author",
          "type": "address"
        }
      ],
      "stateMutability": "view",
      "type": "function"
    },
    {
      "inputs": [
        {
          "internalType": "address",
          "name": "",
          "type": "address"
        }
      ],
      "name": "contributions",
      "outputs": [
        {
          "internalType": "uint256",
          "name": "",
          "type": "uint256"
        }
      ],
      "stateMutability": "view",
      "type": "function"
    },
    {
      "inputs": [],
      "name": "created_at",
      "outputs": [
        {
          "internalType": "uint256",
          "name": "",
          "type": "uint256"
        }
      ],
      "stateMutability": "view",
      "type": "function"
    },
    {
      "inputs": [],
      "name": "finalContributions",
      "outputs": [
        {
          "internalType": "uint256",
          "name": "",
          "type": "uint256"
        }
      ],
      "stateMutability": "view",
      "type": "function"
    },
    {
      "inputs": [],
      "name": "goal",
      "outputs": [
        {
          "internalType": "uint256",
          "name": "",
          "type": "uint256"
        }
      ],
      "stateMutability": "view",
      "type": "function"
    },
    {
      "inputs": [],
      "name": "membersCount",
      "outputs": [
        {
          "internalType": "uint256",
          "name": "",
          "type": "uint256"
        }
      ],
      "stateMutability": "view",
      "type": "function"
    },
    {
      "inputs": [],
      "name": "minimunContribution",
      "outputs": [
        {
          "internalType": "uint256",
          "name": "",
          "type": "uint256"
        }
      ],
      "stateMutability": "view",
      "type": "function"
    },
    {
      "inputs": [],
      "name": "owner",
      "outputs": [
        {
          "internalType": "address",
          "name": "",
          "type": "address"
        }
      ],
      "stateMutability": "view",
      "type": "function"
    },
    {
      "inputs": [
        {
          "internalType": "uint256",
          "name": "",
          "type": "uint256"
        }
      ],
      "name": "proposals",
      "outputs": [
        {
          "internalType": "uint256",
          "name": "value",
          "type": "uint256"
        },
        {
          "internalType": "address",
          "name": "recipient",
          "type": "address"
        },
        {
          "internalType": "uint256",
          "name": "approvalsCount",
          "type": "uint256"
        },
        {
          "internalType": "uint256",
          "name": "disapprovalsCount",
          "type": "uint256"
        },
        {
          "internalType": "enum CrowdfundingCampaign.ProposalStatus",
          "name": "status",
          "type": "uint8"
        },
        {
          "internalType": "uint256",
          "name": "limitTime",
          "type": "uint256"
        }
      ],
      "stateMutability": "view",
      "type": "function"
    },
    {
      "inputs": [],
      "name": "remainingContributions",
      "outputs": [
        {
          "internalType": "uint256",
          "name": "",
          "type": "uint256"
        }
      ],
      "stateMutability": "view",
      "type": "function"
    },
    {
      "inputs": [],
      "name": "status",
      "outputs": [
        {
          "internalType": "enum CrowdfundingCampaign.CampaignStatus",
          "name": "",
          "type": "uint8"
        }
      ],
      "stateMutability": "view",
      "type": "function"
    },
    {
      "inputs": [
        {
          "internalType": "address",
          "name": "",
          "type": "address"
        }
      ],
      "name": "withdraws",
      "outputs": [
        {
          "internalType": "bool",
          "name": "",
          "type": "bool"
        }
      ],
      "stateMutability": "view",
      "type": "function"
    },
    {
      "inputs": [],
      "name": "contribute",
      "outputs": [],
      "stateMutability": "payable",
      "type": "function"
    },
    {
      "inputs": [],
      "name": "setActive",
      "outputs": [],
      "stateMutability": "nonpayable",
      "type": "function"
    },
    {
      "inputs": [
        {
          "internalType": "bytes32",
          "name": "_ipfshash",
          "type": "bytes32"
        }
      ],
      "name": "saveProgressUpdate",
      "outputs": [],
      "stateMutability": "nonpayable",
      "type": "function"
    },
    {
      "inputs": [
        {
          "internalType": "uint256",
          "name": "_value",
          "type": "uint256"
        },
        {
          "internalType": "address",
          "name": "_recipient",
          "type": "address"
        },
        {
          "internalType": "bytes32",
          "name": "_ipfshash",
          "type": "bytes32"
        }
      ],
      "name": "createProposal",
      "outputs": [],
      "stateMutability": "nonpayable",
      "type": "function"
    },
    {
      "inputs": [
        {
          "internalType": "uint256",
          "name": "_index",
          "type": "uint256"
        }
      ],
      "name": "approveProposal",
      "outputs": [],
      "stateMutability": "nonpayable",
      "type": "function"
    },
    {
      "inputs": [
        {
          "internalType": "uint256",
          "name": "_index",
          "type": "uint256"
        }
      ],
      "name": "disapproveProposal",
      "outputs": [],
      "stateMutability": "nonpayable",
      "type": "function"
    },
    {
      "inputs": [
        {
          "internalType": "uint256",
          "name": "_index",
          "type": "uint256"
        }
      ],
      "name": "closeProposal",
      "outputs": [],
      "stateMutability": "nonpayable",
      "type": "function"
    },
    {
      "inputs": [
        {
          "internalType": "uint256",
          "name": "_index",
          "type": "uint256"
        }
      ],
      "name": "release",
      "outputs": [],
      "stateMutability": "nonpayable",
      "type": "function"
    },
    {
      "inputs": [
        {
          "internalType": "bytes32",
          "name": "_ipfshash",
          "type": "bytes32"
        }
      ],
      "name": "createCloseProposal",
      "outputs": [],
      "stateMutability": "nonpayable",
      "type": "function"
    },
    {
      "inputs": [
        {
          "internalType": "uint256",
          "name": "_index",
          "type": "uint256"
        }
      ],
      "name": "approveCloseProposal",
      "outputs": [],
      "stateMutability": "nonpayable",
      "type": "function"
    },
    {
      "inputs": [
        {
          "internalType": "uint256",
          "name": "_index",
          "type": "uint256"
        }
      ],
      "name": "disapproveCloseProposal",
      "outputs": [],
      "stateMutability": "nonpayable",
      "type": "function"
    },
    {
      "inputs": [
        {
          "internalType": "uint256",
          "name": "_index",
          "type": "uint256"
        }
      ],
      "name": "closeCloseProposal",
      "outputs": [],
      "stateMutability": "nonpayable",
      "type": "function"
    },
    {
      "inputs": [],
      "name": "withdraw",
      "outputs": [],
      "stateMutability": "nonpayable",
      "type": "function"
    },
    {
      "inputs": [
        {
          "internalType": "address",
          "name": "_address",
          "type": "address"
        }
      ],
      "name": "isMember",
      "outputs": [
        {
          "internalType": "bool",
          "name": "",
          "type": "bool"
        }
      ],
      "stateMutability": "view",
      "type": "function"
    },
    {
      "inputs": [],
      "name": "getStatus",
      "outputs": [
        {
          "internalType": "enum CrowdfundingCampaign.CampaignStatus",
          "name": "",
          "type": "uint8"
        }
      ],
      "stateMutability": "view",
      "type": "function"
    },
    {
      "inputs": [],
      "name": "getFinalContributions",
      "outputs": [
        {
          "internalType": "uint256",
          "name": "",
          "type": "uint256"
        }
      ],
      "stateMutability": "view",
      "type": "function"
    },
    {
      "inputs": [],
      "name": "getRemainingContributions",
      "outputs": [
        {
          "internalType": "uint256",
          "name": "",
          "type": "uint256"
        }
      ],
      "stateMutability": "view",
      "type": "function"
    },
    {
      "inputs": [],
      "name": "getBalancesInfo",
      "outputs": [
        {
          "internalType": "uint256",
          "name": "",
          "type": "uint256"
        },
        {
          "internalType": "uint256",
          "name": "",
          "type": "uint256"
        },
        {
          "internalType": "uint256",
          "name": "",
          "type": "uint256"
        },
        {
          "internalType": "uint256",
          "name": "",
          "type": "uint256"
        }
      ],
      "stateMutability": "view",
      "type": "function"
    },
    {
      "inputs": [],
      "name": "getCampaignInfo",
      "outputs": [
        {
          "internalType": "address",
          "name": "",
          "type": "address"
        },
        {
          "internalType": "enum CrowdfundingCampaign.CampaignStatus",
          "name": "",
          "type": "uint8"
        },
        {
          "internalType": "uint256",
          "name": "",
          "type": "uint256"
        },
        {
          "internalType": "uint256",
          "name": "",
          "type": "uint256"
        },
        {
          "internalType": "uint256",
          "name": "",
          "type": "uint256"
        },
        {
          "internalType": "uint256",
          "name": "",
          "type": "uint256"
        },
        {
          "internalType": "uint256",
          "name": "",
          "type": "uint256"
        },
        {
          "internalType": "bool",
          "name": "",
          "type": "bool"
        }
      ],
      "stateMutability": "view",
      "type": "function"
    },
    {
      "inputs": [
        {
          "internalType": "uint256",
          "name": "_index",
          "type": "uint256"
        }
      ],
      "name": "getProposal",
      "outputs": [
        {
          "internalType": "address",
          "name": "",
          "type": "address"
        },
        {
          "internalType": "uint256",
          "name": "",
          "type": "uint256"
        },
        {
          "internalType": "uint256",
          "name": "",
          "type": "uint256"
        },
        {
          "internalType": "uint256",
          "name": "",
          "type": "uint256"
        },
        {
          "internalType": "enum CrowdfundingCampaign.ProposalStatus",
          "name": "",
          "type": "uint8"
        },
        {
          "internalType": "uint256",
          "name": "",
          "type": "uint256"
        },
        {
          "internalType": "bool",
          "name": "",
          "type": "bool"
        },
        {
          "internalType": "bool",
          "name": "",
          "type": "bool"
        }
      ],
      "stateMutability": "view",
      "type": "function"
    },
    {
      "inputs": [
        {
          "internalType": "uint256",
          "name": "_index",
          "type": "uint256"
        }
      ],
      "name": "hasVotedProposal",
      "outputs": [
        {
          "internalType": "bool",
          "name": "",
          "type": "bool"
        }
      ],
      "stateMutability": "view",
      "type": "function"
    },
    {
      "inputs": [],
      "name": "getProposalsCount",
      "outputs": [
        {
          "internalType": "uint256",
          "name": "",
          "type": "uint256"
        }
      ],
      "stateMutability": "view",
      "type": "function"
    },
    {
      "inputs": [
        {
          "internalType": "uint256",
          "name": "_index",
          "type": "uint256"
        }
      ],
      "name": "getCloseProposal",
      "outputs": [
        {
          "internalType": "uint256",
          "name": "",
          "type": "uint256"
        },
        {
          "internalType": "uint256",
          "name": "",
          "type": "uint256"
        },
        {
          "internalType": "enum CrowdfundingCampaign.ProposalStatus",
          "name": "",
          "type": "uint8"
        },
        {
          "internalType": "uint256",
          "name": "",
          "type": "uint256"
        },
        {
          "internalType": "bool",
          "name": "",
          "type": "bool"
        },
        {
          "internalType": "bool",
          "name": "",
          "type": "bool"
        },
        {
          "internalType": "address",
          "name": "",
          "type": "address"
        }
      ],
      "stateMutability": "view",
      "type": "function"
    },
    {
      "inputs": [
        {
          "internalType": "uint256",
          "name": "_index",
          "type": "uint256"
        }
      ],
      "name": "hasVotedCloseProposal",
      "outputs": [
        {
          "internalType": "bool",
          "name": "",
          "type": "bool"
        }
      ],
      "stateMutability": "view",
      "type": "function"
    },
    {
      "inputs": [],
      "name": "getCloseProposalsCount",
      "outputs": [
        {
          "internalType": "uint256",
          "name": "",
          "type": "uint256"
        }
      ],
      "stateMutability": "view",
      "type": "function"
    }
  ],
  "bytecode": "0x60806040523480156200001157600080fd5b5060405162004d3c38038062004d3c833981810160405281019062000037919062000132565b33600060016101000a81548173ffffffffffffffffffffffffffffffffffffffff021916908373ffffffffffffffffffffffffffffffffffffffff160217905550816001819055508260028190555060008060006101000a81548160ff02191690836003811115620000ae57620000ad620001d0565b5b02179055506000600381905550426006819055507f0f627713f9c831a1b079924dedde3308e90d22b754bdd481f9b2165aa0f9dfb981604051620000f391906200019f565b60405180910390a150505062000238565b600081519050620001158162000204565b92915050565b6000815190506200012c816200021e565b92915050565b6000806000606084860312156200014e576200014d620001ff565b5b60006200015e868287016200011b565b935050602062000171868287016200011b565b9250506040620001848682870162000104565b9150509250925092565b6200019981620001bc565b82525050565b6000602082019050620001b660008301846200018e565b92915050565b6000819050919050565b6000819050919050565b7f4e487b7100000000000000000000000000000000000000000000000000000000600052602160045260246000fd5b600080fd5b6200020f81620001bc565b81146200021b57600080fd5b50565b6200022981620001c6565b81146200023557600080fd5b50565b614af480620002486000396000f3fe60806040526004361061021a5760003560e01c806384980e8311610123578063c7f758a8116100ab578063de3f3ae01161006f578063de3f3ae0146107d8578063edbd0db814610801578063eeda05181461082c578063f7268f2f14610869578063fa65a131146108925761021a565b8063c7f758a814610704578063c8541fe014610748578063d6290cd714610771578063d7bb99ba146107a3578063d853ba73146107ad5761021a565b806398951b56116100f257806398951b561461061d57806398e527d3146106465780639c6f0d8514610671578063a230c5241461069c578063a7f33715146106d95761021a565b806384980e831461055e57806384b519b9146105875780638da5cb5b146105c4578063950eeba9146105ef5761021a565b806340193883116101a65780634de583fb116101755780634de583fb146104875780634e69d560146104c85780634f92c925146104f357806351c36c1e1461051e578063760a8c2a146105475761021a565b8063401938831461039f57806342e94c90146103ca57806343a41c8f1461040757806348179ee51461044a5761021a565b8063200d2ed2116101ed578063200d2ed2146102e0578063297f9af01461030b57806337bdc99b146103365780633b047a8f1461035f5780633ccfd60b146103885761021a565b80630126f61e1461021f578063013cf08b1461024a5780630386a0161461028c57806304095005146102b5575b600080fd5b34801561022b57600080fd5b506102346108bb565b604051610241919061404d565b60405180910390f35b34801561025657600080fd5b50610271600480360381019061026c91906137b3565b6108c1565b60405161028396959493929190614068565b60405180910390f35b34801561029857600080fd5b506102b360048036038101906102ae91906137b3565b61093a565b005b3480156102c157600080fd5b506102ca610c5d565b6040516102d7919061404d565b60405180910390f35b3480156102ec57600080fd5b506102f5610c6a565b6040516103029190613d52565b60405180910390f35b34801561031757600080fd5b50610320610c7b565b60405161032d919061404d565b60405180910390f35b34801561034257600080fd5b5061035d600480360381019061035891906137b3565b610c81565b005b34801561036b57600080fd5b5061038660048036038101906103819190613786565b610f1d565b005b34801561039457600080fd5b5061039d61105b565b005b3480156103ab57600080fd5b506103b46114c6565b6040516103c1919061404d565b60405180910390f35b3480156103d657600080fd5b506103f160048036038101906103ec9190613759565b6114cc565b6040516103fe919061404d565b60405180910390f35b34801561041357600080fd5b5061042e600480360381019061042991906137b3565b6114e4565b604051610441979695949392919061411c565b60405180910390f35b34801561045657600080fd5b50610471600480360381019061046c9190613759565b6115d7565b60405161047e9190613d1c565b60405180910390f35b34801561049357600080fd5b506104ae60048036038101906104a991906137b3565b6115f7565b6040516104bf9594939291906140c9565b60405180910390f35b3480156104d457600080fd5b506104dd61166a565b6040516104ea9190613d52565b60405180910390f35b3480156104ff57600080fd5b50610508611680565b604051610515919061404d565b60405180910390f35b34801561052a57600080fd5b50610545600480360381019061054091906137e0565b61168a565b005b34801561055357600080fd5b5061055c6118d6565b005b34801561056a57600080fd5b50610585600480360381019061058091906137b3565b611a7e565b005b34801561059357600080fd5b506105ae60048036038101906105a991906137b3565b611e71565b6040516105bb9190613d1c565b60405180910390f35b3480156105d057600080fd5b506105d9611eef565b6040516105e69190613bb2565b60405180910390f35b3480156105fb57600080fd5b50610604611f15565b604051610614949392919061418b565b60405180910390f35b34801561062957600080fd5b50610644600480360381019061063f91906137b3565b611f33565b005b34801561065257600080fd5b5061065b6122ea565b604051610668919061404d565b60405180910390f35b34801561067d57600080fd5b506106866122f7565b604051610693919061404d565b60405180910390f35b3480156106a857600080fd5b506106c360048036038101906106be9190613759565b6122fd565b6040516106d09190613d1c565b60405180910390f35b3480156106e557600080fd5b506106ee612348565b6040516106fb919061404d565b60405180910390f35b34801561071057600080fd5b5061072b600480360381019061072691906137b3565b61234e565b60405161073f989796959493929190613c4b565b60405180910390f35b34801561075457600080fd5b5061076f600480360381019061076a91906137b3565b61244a565b005b34801561077d57600080fd5b50610786612801565b60405161079a989796959493929190613bcd565b60405180910390f35b6107ab612881565b005b3480156107b957600080fd5b506107c2612aa0565b6040516107cf919061404d565b60405180910390f35b3480156107e457600080fd5b506107ff60048036038101906107fa91906137b3565b612aa6565b005b34801561080d57600080fd5b50610816612ed5565b604051610823919061404d565b60405180910390f35b34801561083857600080fd5b50610853600480360381019061084e91906137b3565b612edf565b6040516108609190613d1c565b60405180910390f35b34801561087557600080fd5b50610890600480360381019061088b9190613786565b612f5d565b005b34801561089e57600080fd5b506108b960048036038101906108b491906137b3565b613327565b005b60045481565b600981815481106108d157600080fd5b90600052602060002090600702016000915090508060000154908060010160009054906101000a900473ffffffffffffffffffffffffffffffffffffffff16908060020154908060030154908060050160009054906101000a900460ff16908060060154905086565b6000600760003373ffffffffffffffffffffffffffffffffffffffff1673ffffffffffffffffffffffffffffffffffffffff1681526020019081526020016000205411806109d55750600060019054906101000a900473ffffffffffffffffffffffffffffffffffffffff1673ffffffffffffffffffffffffffffffffffffffff163373ffffffffffffffffffffffffffffffffffffffff16145b610a14576040517f08c379a0000000000000000000000000000000000000000000000000000000008152600401610a0b90613d8d565b60405180910390fd5b60016003811115610a2857610a27614405565b5b60008054906101000a900460ff166003811115610a4857610a47614405565b5b14610a88576040517f08c379a0000000000000000000000000000000000000000000000000000000008152600401610a7f90613f0d565b60405180910390fd5b8060006003811115610a9d57610a9c614405565b5b60098281548110610ab157610ab0614434565b5b906000526020600020906007020160050160009054906101000a900460ff166003811115610ae257610ae1614405565b5b14610b22576040517f08c379a0000000000000000000000000000000000000000000000000000000008152600401610b199061402d565b60405180910390fd5b8160098181548110610b3757610b36614434565b5b9060005260206000209060070201600601544211610b8a576040517f08c379a0000000000000000000000000000000000000000000000000000000008152600401610b8190613fed565b60405180910390fd5b600060098481548110610ba057610b9f614434565b5b90600052602060002090600702019050806003015481600201541115610bf25760018160050160006101000a81548160ff02191690836003811115610be857610be7614405565b5b0217905550610c20565b60028160050160006101000a81548160ff02191690836003811115610c1a57610c19614405565b5b02179055505b7f887777ccf43690541bed9e00b10d0fccfa7520b11875f09847a57b3085d8ab9284604051610c4f919061404d565b60405180910390a150505050565b6000600a80549050905090565b60008054906101000a900460ff1681565b60035481565b600060019054906101000a900473ffffffffffffffffffffffffffffffffffffffff1673ffffffffffffffffffffffffffffffffffffffff163373ffffffffffffffffffffffffffffffffffffffff1614610d11576040517f08c379a0000000000000000000000000000000000000000000000000000000008152600401610d0890613e2d565b60405180910390fd5b60016003811115610d2557610d24614405565b5b60008054906101000a900460ff166003811115610d4557610d44614405565b5b14610d85576040517f08c379a0000000000000000000000000000000000000000000000000000000008152600401610d7c90613f0d565b60405180910390fd5b8060016003811115610d9a57610d99614405565b5b60098281548110610dae57610dad614434565b5b906000526020600020906007020160050160009054906101000a900460ff166003811115610ddf57610dde614405565b5b14610e1f576040517f08c379a0000000000000000000000000000000000000000000000000000000008152600401610e1690613ecd565b60405180910390fd5b600060098381548110610e3557610e34614434565b5b9060005260206000209060070201905060038160050160006101000a81548160ff02191690836003811115610e6d57610e6c614405565b5b02179055508060010160009054906101000a900473ffffffffffffffffffffffffffffffffffffffff1673ffffffffffffffffffffffffffffffffffffffff166108fc82600001549081150290604051600060405180830381858888f19350505050158015610ee0573d6000803e3d6000fd5b507fe02fec677757e427d1b6e49fcaf5bb9a6dd94e9fed2a2cc3c764c95deceff5b783604051610f10919061404d565b60405180910390a1505050565b600060019054906101000a900473ffffffffffffffffffffffffffffffffffffffff1673ffffffffffffffffffffffffffffffffffffffff163373ffffffffffffffffffffffffffffffffffffffff1614610fad576040517f08c379a0000000000000000000000000000000000000000000000000000000008152600401610fa490613e2d565b60405180910390fd5b60016003811115610fc157610fc0614405565b5b60008054906101000a900460ff166003811115610fe157610fe0614405565b5b14611021576040517f08c379a000000000000000000000000000000000000000000000000000000000815260040161101890613f0d565b60405180910390fd5b7f2f8af70d91e96a23b8111e37a9117f7cfe341f51c17759c36475a1a7698f0dc3816040516110509190613d37565b60405180910390a150565b6000600760003373ffffffffffffffffffffffffffffffffffffffff1673ffffffffffffffffffffffffffffffffffffffff1681526020019081526020016000205411806110f65750600060019054906101000a900473ffffffffffffffffffffffffffffffffffffffff1673ffffffffffffffffffffffffffffffffffffffff163373ffffffffffffffffffffffffffffffffffffffff16145b611135576040517f08c379a000000000000000000000000000000000000000000000000000000000815260040161112c90613d8d565b60405180910390fd5b60038081111561114857611147614405565b5b60008054906101000a900460ff16600381111561116857611167614405565b5b14806111a557506002600381111561118357611182614405565b5b60008054906101000a900460ff1660038111156111a3576111a2614405565b5b145b6111e4576040517f08c379a00000000000000000000000000000000000000000000000000000000081526004016111db90613f4d565b60405180910390fd5b600060019054906101000a900473ffffffffffffffffffffffffffffffffffffffff1673ffffffffffffffffffffffffffffffffffffffff163373ffffffffffffffffffffffffffffffffffffffff161415611275576040517f08c379a000000000000000000000000000000000000000000000000000000000815260040161126c90613ded565b60405180910390fd5b600860003373ffffffffffffffffffffffffffffffffffffffff1673ffffffffffffffffffffffffffffffffffffffff16815260200190815260200160002060009054906101000a900460ff1615611302576040517f08c379a00000000000000000000000000000000000000000000000000000000081526004016112f990613f6d565b60405180910390fd5b6000600454600554600760003373ffffffffffffffffffffffffffffffffffffffff1673ffffffffffffffffffffffffffffffffffffffff168152602001908152602001600020546113549190614268565b61135e9190614237565b90504781106113a2576040517f08c379a000000000000000000000000000000000000000000000000000000000815260040161139990613ead565b60405180910390fd5b3373ffffffffffffffffffffffffffffffffffffffff166108fc829081150290604051600060405180830381858888f193505050501580156113e8573d6000803e3d6000fd5b506001600860003373ffffffffffffffffffffffffffffffffffffffff1673ffffffffffffffffffffffffffffffffffffffff16815260200190815260200160002060006101000a81548160ff0219169083151502179055507fa4e42298552baa3282225c552bba5a22b3034cdc0e531fe987c8003a44d95e2933600760003373ffffffffffffffffffffffffffffffffffffffff1673ffffffffffffffffffffffffffffffffffffffff16815260200190815260200160002054600454846005546040516114bb959493929190613cc9565b60405180910390a150565b60015481565b60076020528060005260406000206000915090505481565b600080600080600080600080600a898154811061150457611503614434565b5b9060005260206000209060060201905060008160040154421115905060008260020160003373ffffffffffffffffffffffffffffffffffffffff1673ffffffffffffffffffffffffffffffffffffffff16815260200190815260200160002060009054906101000a900460ff169050826000015483600101548460030160009054906101000a900460ff16856004015485858860050160009054906101000a900473ffffffffffffffffffffffffffffffffffffffff169950995099509950995099509950505050919395979092949650565b60086020528060005260406000206000915054906101000a900460ff1681565b600a818154811061160757600080fd5b90600052602060002090600602016000915090508060000154908060010154908060030160009054906101000a900460ff16908060040154908060050160009054906101000a900473ffffffffffffffffffffffffffffffffffffffff16905085565b60008060009054906101000a900460ff16905090565b6000600554905090565b600060019054906101000a900473ffffffffffffffffffffffffffffffffffffffff1673ffffffffffffffffffffffffffffffffffffffff163373ffffffffffffffffffffffffffffffffffffffff161461171a576040517f08c379a000000000000000000000000000000000000000000000000000000000815260040161171190613e2d565b60405180910390fd5b6001600381111561172e5761172d614405565b5b60008054906101000a900460ff16600381111561174e5761174d614405565b5b1461178e576040517f08c379a000000000000000000000000000000000000000000000000000000000815260040161178590613f0d565b60405180910390fd5b824710156117d1576040517f08c379a00000000000000000000000000000000000000000000000000000000081526004016117c890613e6d565b60405180910390fd5b600060096001816001815401808255809150500390600052602060002090600702019050828160010160006101000a81548173ffffffffffffffffffffffffffffffffffffffff021916908373ffffffffffffffffffffffffffffffffffffffff160217905550838160000181905550600081600201819055506000816003018190555060008160050160006101000a81548160ff0219169083600381111561187d5761187c614405565b5b021790555062093a804261189191906141e1565b81600601819055507f288a29bca04edb18fcdb2c76d6e3b03b8a137c85c70d1a4cb8aacfa868d60510826040516118c89190613d37565b60405180910390a150505050565b600060019054906101000a900473ffffffffffffffffffffffffffffffffffffffff1673ffffffffffffffffffffffffffffffffffffffff163373ffffffffffffffffffffffffffffffffffffffff1614611966576040517f08c379a000000000000000000000000000000000000000000000000000000000815260040161195d90613e2d565b60405180910390fd5b6000600381111561197a57611979614405565b5b60008054906101000a900460ff16600381111561199a57611999614405565b5b146119da576040517f08c379a00000000000000000000000000000000000000000000000000000000081526004016119d190613fad565b60405180910390fd5b600154471015611a1f576040517f08c379a0000000000000000000000000000000000000000000000000000000008152600401611a1690613eed565b60405180910390fd5b60016000806101000a81548160ff02191690836003811115611a4457611a43614405565b5b0217905550476004819055507fe283e942d53c4322165eacc7a597c86cdbc698c96321f57a82b29c615810a69560405160405180910390a1565b6000600760003373ffffffffffffffffffffffffffffffffffffffff1673ffffffffffffffffffffffffffffffffffffffff168152602001908152602001600020541180611b195750600060019054906101000a900473ffffffffffffffffffffffffffffffffffffffff1673ffffffffffffffffffffffffffffffffffffffff163373ffffffffffffffffffffffffffffffffffffffff16145b611b58576040517f08c379a0000000000000000000000000000000000000000000000000000000008152600401611b4f90613d8d565b60405180910390fd5b60016003811115611b6c57611b6b614405565b5b60008054906101000a900460ff166003811115611b8c57611b8b614405565b5b1480611bc9575060006003811115611ba757611ba6614405565b5b60008054906101000a900460ff166003811115611bc757611bc6614405565b5b145b611c08576040517f08c379a0000000000000000000000000000000000000000000000000000000008152600401611bff90613fcd565b60405180910390fd5b8060006003811115611c1d57611c1c614405565b5b600a8281548110611c3157611c30614434565b5b906000526020600020906006020160030160009054906101000a900460ff166003811115611c6257611c61614405565b5b14611ca2576040517f08c379a0000000000000000000000000000000000000000000000000000000008152600401611c999061400d565b60405180910390fd5b81600a8181548110611cb757611cb6614434565b5b906000526020600020906006020160040154421115611d0b576040517f08c379a0000000000000000000000000000000000000000000000000000000008152600401611d0290613e8d565b60405180910390fd5b6000600a8481548110611d2157611d20614434565b5b906000526020600020906006020190508060020160003373ffffffffffffffffffffffffffffffffffffffff1673ffffffffffffffffffffffffffffffffffffffff16815260200190815260200160002060009054906101000a900460ff1615611dc0576040517f08c379a0000000000000000000000000000000000000000000000000000000008152600401611db790613f8d565b60405180910390fd5b60018160020160003373ffffffffffffffffffffffffffffffffffffffff1673ffffffffffffffffffffffffffffffffffffffff16815260200190815260200160002060006101000a81548160ff021916908315150217905550806000016000815480929190611e2f9061435e565b91905055507f53c1eb0055cc9dbfe4823171931d9ec63b8682244ed5778661bb94ba2075f8c684604051611e63919061404d565b60405180910390a150505050565b600080600a8381548110611e8857611e87614434565b5b906000526020600020906006020190508060020160003373ffffffffffffffffffffffffffffffffffffffff1673ffffffffffffffffffffffffffffffffffffffff16815260200190815260200160002060009054906101000a900460ff16915050919050565b600060019054906101000a900473ffffffffffffffffffffffffffffffffffffffff1681565b60008060008060015460045460055447935093509350935090919293565b6000600760003373ffffffffffffffffffffffffffffffffffffffff1673ffffffffffffffffffffffffffffffffffffffff168152602001908152602001600020541180611fce5750600060019054906101000a900473ffffffffffffffffffffffffffffffffffffffff1673ffffffffffffffffffffffffffffffffffffffff163373ffffffffffffffffffffffffffffffffffffffff16145b61200d576040517f08c379a000000000000000000000000000000000000000000000000000000000815260040161200490613d8d565b60405180910390fd5b6001600381111561202157612020614405565b5b60008054906101000a900460ff16600381111561204157612040614405565b5b14612081576040517f08c379a000000000000000000000000000000000000000000000000000000000815260040161207890613f0d565b60405180910390fd5b806000600381111561209657612095614405565b5b600982815481106120aa576120a9614434565b5b906000526020600020906007020160050160009054906101000a900460ff1660038111156120db576120da614405565b5b1461211b576040517f08c379a00000000000000000000000000000000000000000000000000000000081526004016121129061402d565b60405180910390fd5b81600981815481106121305761212f614434565b5b906000526020600020906007020160060154421115612184576040517f08c379a000000000000000000000000000000000000000000000000000000000815260040161217b90613e4d565b60405180910390fd5b60006009848154811061219a57612199614434565b5b906000526020600020906007020190508060040160003373ffffffffffffffffffffffffffffffffffffffff1673ffffffffffffffffffffffffffffffffffffffff16815260200190815260200160002060009054906101000a900460ff1615612239576040517f08c379a000000000000000000000000000000000000000000000000000000000815260040161223090613f2d565b60405180910390fd5b60018160040160003373ffffffffffffffffffffffffffffffffffffffff1673ffffffffffffffffffffffffffffffffffffffff16815260200190815260200160002060006101000a81548160ff0219169083151502179055508060020160008154809291906122a89061435e565b91905055507f26b645fdecdf266f3abc5b7ae3e796ffd297febba8bd3a8ad49c68435190fc69846040516122dc919061404d565b60405180910390a150505050565b6000600980549050905090565b60065481565b600080600760008473ffffffffffffffffffffffffffffffffffffffff1673ffffffffffffffffffffffffffffffffffffffff16815260200190815260200160002054119050919050565b60025481565b600080600080600080600080600060098a815481106123705761236f614434565b5b9060005260206000209060070201905060008160060154421115905060008260040160003373ffffffffffffffffffffffffffffffffffffffff1673ffffffffffffffffffffffffffffffffffffffff16815260200190815260200160002060009054906101000a900460ff1690508260010160009054906101000a900473ffffffffffffffffffffffffffffffffffffffff168360000154846002015485600301548660050160009054906101000a900460ff16876006015487879a509a509a509a509a509a509a509a50505050919395975091939597565b6000600760003373ffffffffffffffffffffffffffffffffffffffff1673ffffffffffffffffffffffffffffffffffffffff1681526020019081526020016000205411806124e55750600060019054906101000a900473ffffffffffffffffffffffffffffffffffffffff1673ffffffffffffffffffffffffffffffffffffffff163373ffffffffffffffffffffffffffffffffffffffff16145b612524576040517f08c379a000000000000000000000000000000000000000000000000000000000815260040161251b90613d8d565b60405180910390fd5b6001600381111561253857612537614405565b5b60008054906101000a900460ff16600381111561255857612557614405565b5b14612598576040517f08c379a000000000000000000000000000000000000000000000000000000000815260040161258f90613f0d565b60405180910390fd5b80600060038111156125ad576125ac614405565b5b600982815481106125c1576125c0614434565b5b906000526020600020906007020160050160009054906101000a900460ff1660038111156125f2576125f1614405565b5b14612632576040517f08c379a00000000000000000000000000000000000000000000000000000000081526004016126299061402d565b60405180910390fd5b816009818154811061264757612646614434565b5b90600052602060002090600702016006015442111561269b576040517f08c379a000000000000000000000000000000000000000000000000000000000815260040161269290613e4d565b60405180910390fd5b6000600984815481106126b1576126b0614434565b5b906000526020600020906007020190508060040160003373ffffffffffffffffffffffffffffffffffffffff1673ffffffffffffffffffffffffffffffffffffffff16815260200190815260200160002060009054906101000a900460ff1615612750576040517f08c379a000000000000000000000000000000000000000000000000000000000815260040161274790613f2d565b60405180910390fd5b60018160040160003373ffffffffffffffffffffffffffffffffffffffff1673ffffffffffffffffffffffffffffffffffffffff16815260200190815260200160002060006101000a81548160ff0219169083151502179055508060030160008154809291906127bf9061435e565b91905055507f26b645fdecdf266f3abc5b7ae3e796ffd297febba8bd3a8ad49c68435190fc69846040516127f3919061404d565b60405180910390a150505050565b6000806000806000806000806000426212750060065461282191906141e1565b11159050600060019054906101000a900473ffffffffffffffffffffffffffffffffffffffff1660008054906101000a900460ff166001546002546003546004546005548798509850985098509850985098509850509091929394959697565b6000600760003373ffffffffffffffffffffffffffffffffffffffff1673ffffffffffffffffffffffffffffffffffffffff1681526020019081526020016000205414801561291e5750600060019054906101000a900473ffffffffffffffffffffffffffffffffffffffff1673ffffffffffffffffffffffffffffffffffffffff163373ffffffffffffffffffffffffffffffffffffffff1614155b61295d576040517f08c379a000000000000000000000000000000000000000000000000000000000815260040161295490613dcd565b60405180910390fd5b6000600381111561297157612970614405565b5b60008054906101000a900460ff16600381111561299157612990614405565b5b146129d1576040517f08c379a00000000000000000000000000000000000000000000000000000000081526004016129c890613fad565b60405180910390fd5b600254341015612a16576040517f08c379a0000000000000000000000000000000000000000000000000000000008152600401612a0d90613dad565b60405180910390fd5b34600760003373ffffffffffffffffffffffffffffffffffffffff1673ffffffffffffffffffffffffffffffffffffffff1681526020019081526020016000208190555060036000815480929190612a6d9061435e565b91905055507f0673e22453ca22ab66c750388a377485c2d57a19fb171f1442f45e933d5e841860405160405180910390a1565b60055481565b6000600760003373ffffffffffffffffffffffffffffffffffffffff1673ffffffffffffffffffffffffffffffffffffffff168152602001908152602001600020541180612b415750600060019054906101000a900473ffffffffffffffffffffffffffffffffffffffff1673ffffffffffffffffffffffffffffffffffffffff163373ffffffffffffffffffffffffffffffffffffffff16145b612b80576040517f08c379a0000000000000000000000000000000000000000000000000000000008152600401612b7790613d8d565b60405180910390fd5b60016003811115612b9457612b93614405565b5b60008054906101000a900460ff166003811115612bb457612bb3614405565b5b1480612bf1575060006003811115612bcf57612bce614405565b5b60008054906101000a900460ff166003811115612bef57612bee614405565b5b145b612c30576040517f08c379a0000000000000000000000000000000000000000000000000000000008152600401612c2790613fcd565b60405180910390fd5b8060006003811115612c4557612c44614405565b5b600a8281548110612c5957612c58614434565b5b906000526020600020906006020160030160009054906101000a900460ff166003811115612c8a57612c89614405565b5b14612cca576040517f08c379a0000000000000000000000000000000000000000000000000000000008152600401612cc19061400d565b60405180910390fd5b81600a8181548110612cdf57612cde614434565b5b9060005260206000209060060201600401544211612d32576040517f08c379a0000000000000000000000000000000000000000000000000000000008152600401612d2990613e0d565b60405180910390fd5b6000600a8481548110612d4857612d47614434565b5b90600052602060002090600602019050806001015481600001541115612e7557600060019054906101000a900473ffffffffffffffffffffffffffffffffffffffff1673ffffffffffffffffffffffffffffffffffffffff168160050160009054906101000a900473ffffffffffffffffffffffffffffffffffffffff1673ffffffffffffffffffffffffffffffffffffffff161415612e115760036000806101000a81548160ff02191690836003811115612e0757612e06614405565b5b0217905550612e3c565b60026000806101000a81548160ff02191690836003811115612e3657612e35614405565b5b02179055505b60018160030160006101000a81548160ff02191690836003811115612e6457612e63614405565b5b021790555047600581905550612ea3565b60028160030160006101000a81548160ff02191690836003811115612e9d57612e9c614405565b5b02179055505b7fe283e942d53c4322165eacc7a597c86cdbc698c96321f57a82b29c615810a69560405160405180910390a150505050565b6000600454905090565b60008060098381548110612ef657612ef5614434565b5b906000526020600020906007020190508060040160003373ffffffffffffffffffffffffffffffffffffffff1673ffffffffffffffffffffffffffffffffffffffff16815260200190815260200160002060009054906101000a900460ff16915050919050565b6000600760003373ffffffffffffffffffffffffffffffffffffffff1673ffffffffffffffffffffffffffffffffffffffff168152602001908152602001600020541180612ff85750600060019054906101000a900473ffffffffffffffffffffffffffffffffffffffff1673ffffffffffffffffffffffffffffffffffffffff163373ffffffffffffffffffffffffffffffffffffffff16145b613037576040517f08c379a000000000000000000000000000000000000000000000000000000000815260040161302e90613d8d565b60405180910390fd5b6001600381111561304b5761304a614405565b5b60008054906101000a900460ff16600381111561306b5761306a614405565b5b14806130a857506000600381111561308657613085614405565b5b60008054906101000a900460ff1660038111156130a6576130a5614405565b5b145b6130e7576040517f08c379a00000000000000000000000000000000000000000000000000000000081526004016130de90613fcd565b60405180910390fd5b600042621275006006546130fb91906141e1565b1115801561313a57506000600381111561311857613117614405565b5b60008054906101000a900460ff16600381111561313857613137614405565b5b145b9050808061317957506001600381111561315757613156614405565b5b60008054906101000a900460ff16600381111561317757613176614405565b5b145b6131b8576040517f08c379a00000000000000000000000000000000000000000000000000000000081526004016131af90613d6d565b60405180910390fd5b6000600a6001816001815401808255809150500390600052602060002090600602019050600081600001819055506000816001018190555060008160030160006101000a81548160ff0219169083600381111561321857613217614405565b5b021790555062093a804261322c91906141e1565b8160040181905550338160050160006101000a81548173ffffffffffffffffffffffffffffffffffffffff021916908373ffffffffffffffffffffffffffffffffffffffff16021790555060018160020160003373ffffffffffffffffffffffffffffffffffffffff1673ffffffffffffffffffffffffffffffffffffffff16815260200190815260200160002060006101000a81548160ff0219169083151502179055508060000160008154809291906132e69061435e565b91905055507fd652a200abc8c9e3e659b36ee1d1c81a25a3cd454afdb8cede6431e74906497c8360405161331a9190613d37565b60405180910390a1505050565b6000600760003373ffffffffffffffffffffffffffffffffffffffff1673ffffffffffffffffffffffffffffffffffffffff1681526020019081526020016000205411806133c25750600060019054906101000a900473ffffffffffffffffffffffffffffffffffffffff1673ffffffffffffffffffffffffffffffffffffffff163373ffffffffffffffffffffffffffffffffffffffff16145b613401576040517f08c379a00000000000000000000000000000000000000000000000000000000081526004016133f890613d8d565b60405180910390fd5b6001600381111561341557613414614405565b5b60008054906101000a900460ff16600381111561343557613434614405565b5b14806134725750600060038111156134505761344f614405565b5b60008054906101000a900460ff1660038111156134705761346f614405565b5b145b6134b1576040517f08c379a00000000000000000000000000000000000000000000000000000000081526004016134a890613fcd565b60405180910390fd5b80600060038111156134c6576134c5614405565b5b600a82815481106134da576134d9614434565b5b906000526020600020906006020160030160009054906101000a900460ff16600381111561350b5761350a614405565b5b1461354b576040517f08c379a00000000000000000000000000000000000000000000000000000000081526004016135429061400d565b60405180910390fd5b81600a81815481106135605761355f614434565b5b9060005260206000209060060201600401544211156135b4576040517f08c379a00000000000000000000000000000000000000000000000000000000081526004016135ab90613e8d565b60405180910390fd5b6000600a84815481106135ca576135c9614434565b5b906000526020600020906006020190508060020160003373ffffffffffffffffffffffffffffffffffffffff1673ffffffffffffffffffffffffffffffffffffffff16815260200190815260200160002060009054906101000a900460ff1615613669576040517f08c379a000000000000000000000000000000000000000000000000000000000815260040161366090613f8d565b60405180910390fd5b60018160020160003373ffffffffffffffffffffffffffffffffffffffff1673ffffffffffffffffffffffffffffffffffffffff16815260200190815260200160002060006101000a81548160ff0219169083151502179055508060010160008154809291906136d89061435e565b91905055507f53c1eb0055cc9dbfe4823171931d9ec63b8682244ed5778661bb94ba2075f8c68460405161370c919061404d565b60405180910390a150505050565b60008135905061372981614a79565b92915050565b60008135905061373e81614a90565b92915050565b60008135905061375381614aa7565b92915050565b60006020828403121561376f5761376e614463565b5b600061377d8482850161371a565b91505092915050565b60006020828403121561379c5761379b614463565b5b60006137aa8482850161372f565b91505092915050565b6000602082840312156137c9576137c8614463565b5b60006137d784828501613744565b91505092915050565b6000806000606084860312156137f9576137f8614463565b5b600061380786828701613744565b93505060206138188682870161371a565b92505060406138298682870161372f565b9150509250925092565b61383c816142c2565b82525050565b61384b816142d4565b82525050565b61385a816142e0565b82525050565b6138698161433a565b82525050565b6138788161434c565b82525050565b600061388b602b836141d0565b915061389682614468565b604082019050919050565b60006138ae6017836141d0565b91506138b9826144b7565b602082019050919050565b60006138d16020836141d0565b91506138dc826144e0565b602082019050919050565b60006138f4601b836141d0565b91506138ff82614509565b602082019050919050565b60006139176014836141d0565b915061392282614532565b602082019050919050565b600061393a602c836141d0565b91506139458261455b565b604082019050919050565b600061395d6018836141d0565b9150613968826145aa565b602082019050919050565b60006139806021836141d0565b915061398b826145d3565b604082019050919050565b60006139a3601b836141d0565b91506139ae82614622565b602082019050919050565b60006139c66027836141d0565b91506139d18261464b565b604082019050919050565b60006139e96023836141d0565b91506139f48261469a565b604082019050919050565b6000613a0c601d836141d0565b9150613a17826146e9565b602082019050919050565b6000613a2f6022836141d0565b9150613a3a82614712565b604082019050919050565b6000613a526022836141d0565b9150613a5d82614761565b604082019050919050565b6000613a756031836141d0565b9150613a80826147b0565b604082019050919050565b6000613a986025836141d0565b9150613aa3826147ff565b604082019050919050565b6000613abb6023836141d0565b9150613ac68261484e565b604082019050919050565b6000613ade6037836141d0565b9150613ae98261489d565b604082019050919050565b6000613b016023836141d0565b9150613b0c826148ec565b604082019050919050565b6000613b24601e836141d0565b9150613b2f8261493b565b602082019050919050565b6000613b476026836141d0565b9150613b5282614964565b604082019050919050565b6000613b6a6028836141d0565b9150613b75826149b3565b604082019050919050565b6000613b8d6022836141d0565b9150613b9882614a02565b604082019050919050565b613bac81614330565b82525050565b6000602082019050613bc76000830184613833565b92915050565b600061010082019050613be3600083018b613833565b613bf0602083018a613860565b613bfd6040830189613ba3565b613c0a6060830188613ba3565b613c176080830187613ba3565b613c2460a0830186613ba3565b613c3160c0830185613ba3565b613c3e60e0830184613842565b9998505050505050505050565b600061010082019050613c61600083018b613833565b613c6e602083018a613ba3565b613c7b6040830189613ba3565b613c886060830188613ba3565b613c95608083018761386f565b613ca260a0830186613ba3565b613caf60c0830185613842565b613cbc60e0830184613842565b9998505050505050505050565b600060a082019050613cde6000830188613833565b613ceb6020830187613ba3565b613cf86040830186613ba3565b613d056060830185613ba3565b613d126080830184613ba3565b9695505050505050565b6000602082019050613d316000830184613842565b92915050565b6000602082019050613d4c6000830184613851565b92915050565b6000602082019050613d676000830184613860565b92915050565b60006020820190508181036000830152613d868161387e565b9050919050565b60006020820190508181036000830152613da6816138a1565b9050919050565b60006020820190508181036000830152613dc6816138c4565b9050919050565b60006020820190508181036000830152613de6816138e7565b9050919050565b60006020820190508181036000830152613e068161390a565b9050919050565b60006020820190508181036000830152613e268161392d565b9050919050565b60006020820190508181036000830152613e4681613950565b9050919050565b60006020820190508181036000830152613e6681613973565b9050919050565b60006020820190508181036000830152613e8681613996565b9050919050565b60006020820190508181036000830152613ea6816139b9565b9050919050565b60006020820190508181036000830152613ec6816139dc565b9050919050565b60006020820190508181036000830152613ee6816139ff565b9050919050565b60006020820190508181036000830152613f0681613a22565b9050919050565b60006020820190508181036000830152613f2681613a45565b9050919050565b60006020820190508181036000830152613f4681613a68565b9050919050565b60006020820190508181036000830152613f6681613a8b565b9050919050565b60006020820190508181036000830152613f8681613aae565b9050919050565b60006020820190508181036000830152613fa681613ad1565b9050919050565b60006020820190508181036000830152613fc681613af4565b9050919050565b60006020820190508181036000830152613fe681613b17565b9050919050565b6000602082019050818103600083015261400681613b3a565b9050919050565b6000602082019050818103600083015261402681613b5d565b9050919050565b6000602082019050818103600083015261404681613b80565b9050919050565b60006020820190506140626000830184613ba3565b92915050565b600060c08201905061407d6000830189613ba3565b61408a6020830188613833565b6140976040830187613ba3565b6140a46060830186613ba3565b6140b1608083018561386f565b6140be60a0830184613ba3565b979650505050505050565b600060a0820190506140de6000830188613ba3565b6140eb6020830187613ba3565b6140f8604083018661386f565b6141056060830185613ba3565b6141126080830184613833565b9695505050505050565b600060e082019050614131600083018a613ba3565b61413e6020830189613ba3565b61414b604083018861386f565b6141586060830187613ba3565b6141656080830186613842565b61417260a0830185613842565b61417f60c0830184613833565b98975050505050505050565b60006080820190506141a06000830187613ba3565b6141ad6020830186613ba3565b6141ba6040830185613ba3565b6141c76060830184613ba3565b95945050505050565b600082825260208201905092915050565b60006141ec82614330565b91506141f783614330565b9250827fffffffffffffffffffffffffffffffffffffffffffffffffffffffffffffffff0382111561422c5761422b6143a7565b5b828201905092915050565b600061424282614330565b915061424d83614330565b92508261425d5761425c6143d6565b5b828204905092915050565b600061427382614330565b915061427e83614330565b9250817fffffffffffffffffffffffffffffffffffffffffffffffffffffffffffffffff04831182151516156142b7576142b66143a7565b5b828202905092915050565b60006142cd82614310565b9050919050565b60008115159050919050565b6000819050919050565b60008190506142f882614a51565b919050565b600081905061430b82614a65565b919050565b600073ffffffffffffffffffffffffffffffffffffffff82169050919050565b6000819050919050565b6000614345826142ea565b9050919050565b6000614357826142fd565b9050919050565b600061436982614330565b91507fffffffffffffffffffffffffffffffffffffffffffffffffffffffffffffffff82141561439c5761439b6143a7565b5b600182019050919050565b7f4e487b7100000000000000000000000000000000000000000000000000000000600052601160045260246000fd5b7f4e487b7100000000000000000000000000000000000000000000000000000000600052601260045260246000fd5b7f4e487b7100000000000000000000000000000000000000000000000000000000600052602160045260246000fd5b7f4e487b7100000000000000000000000000000000000000000000000000000000600052603260045260246000fd5b600080fd5b7f5468652063616d7061696e672063726561746564206d7573742068617665203160008201527f342064617973206f6c642e000000000000000000000000000000000000000000602082015250565b7f53656e646572206973206e6f742061206d656d6265722e000000000000000000600082015250565b7f54686520636f6e747269627574696f6e20697320696e73756666696369656e74600082015250565b7f53656e64657220697320616c72656164792061206d656d6265722e0000000000600082015250565b7f53656e64657220697320746865206f776e65722e000000000000000000000000600082015250565b7f54686520636c6f73652070726f706f73616c206973207374696c6c206f70656e60008201527f20666f7220766f74696e672e0000000000000000000000000000000000000000602082015250565b7f53656e646572206973206e6f7420746865206f776e65722e0000000000000000600082015250565b7f5468652070726f706f73616c20697320636c6f736520666f7220766f74696e6760008201527f2e00000000000000000000000000000000000000000000000000000000000000602082015250565b7f54686520666f756e64732061726520696e73756666696369656e740000000000600082015250565b7f54686520636c6f73652070726f706f73616c20697320636c6f736520666f722060008201527f766f74696e672e00000000000000000000000000000000000000000000000000602082015250565b7f5061796d656e742063616e2774206265206d6f7265207468616e2062616c616e60008201527f63652e0000000000000000000000000000000000000000000000000000000000602082015250565b7f5468652070726f706f73616c206973206e6f7420617070726f7665642e000000600082015250565b7f54686520636f6e747269627574696f6e732061726520696e737566666963696560008201527f6e74000000000000000000000000000000000000000000000000000000000000602082015250565b7f5468652063616d706169676e20737461747573206973206e6f7420616374697660008201527f652e000000000000000000000000000000000000000000000000000000000000602082015250565b7f5468652070726f706f73616c20686173206265656e20616c726561647920766f60008201527f746564206279207468652073656e646572000000000000000000000000000000602082015250565b7f5468652063616d706169676e20737461747573206973206e6f7420636c6f736560008201527f207965742e000000000000000000000000000000000000000000000000000000602082015250565b7f53656e64657220616c72656164792077697468647261772068697320666f756e60008201527f64732e0000000000000000000000000000000000000000000000000000000000602082015250565b7f54686520636c6f73652070726f706f73616c20686173206265656e20616c726560008201527f61647920766f746564206279207468652073656e646572000000000000000000602082015250565b7f5468652063616d706169676e20737461747573206973206e6f7420637265617460008201527f65642e0000000000000000000000000000000000000000000000000000000000602082015250565b7f5468652063616d706169676e2073746174757320697320434c4f5345442e0000600082015250565b7f5468652070726f706f73616c206973207374696c6c206f70656e20666f72207660008201527f6f74696e672e0000000000000000000000000000000000000000000000000000602082015250565b7f54686520636c6f73652070726f706f73616c206973206e6f74206c6f6e67657260008201527f206163746976652e000000000000000000000000000000000000000000000000602082015250565b7f5468652070726f706f73616c206973206e6f74206c6f6e67657220616374697660008201527f652e000000000000000000000000000000000000000000000000000000000000602082015250565b60048110614a6257614a61614405565b5b50565b60048110614a7657614a75614405565b5b50565b614a82816142c2565b8114614a8d57600080fd5b50565b614a99816142e0565b8114614aa457600080fd5b50565b614ab081614330565b8114614abb57600080fd5b5056fea264697066735822122029b7fbe1f3ddf1da0c11e1e4ec185f302958af3568c6a3c45a370fb73d5823ed64736f6c63430008060033",
  "immutableReferences": {},
  "source": "//SPDX-License-Identifier: GPL-3.0-only\npragma solidity ^0.8.0;\n\ncontract CrowdfundingCampaign {\n\n    /* Enums */\n\n    enum CampaignStatus { CREATED, ACTIVE, FAIL, SUCCESSFUL }\n    enum ProposalStatus { ACTIVE, APPROVED, DISAPPROVED, SUCCESSFUL }\n\n    \n    /* Structs */\n\n    /** @dev Struct proposal\n        This struct represents the proposals that only owner can make to get more founds.\n    **/\n    struct Proposal {\n        uint value;\n        address recipient;\n        uint approvalsCount;\n        uint disapprovalsCount;\n        mapping(address => bool) voters;\n        ProposalStatus status;\n        uint limitTime;\n    }\n\n    /** @dev Struct close proposal\n        This struct represents the proposal that members can make to get their founds back.\n    **/\n    struct CloseProposal {\n        uint approvalsCount;\n        uint disapprovalsCount;\n        mapping(address => bool) voters;\n        ProposalStatus status;\n        uint limitTime;\n        address author;\n    }\n\n    /* Storage */\n\n    CampaignStatus public status;\n    \n    address public owner;\n    \n    uint public goal;\n    uint public minimunContribution;\n    uint public membersCount;\n    uint public finalContributions;\n    uint public remainingContributions;\n    uint public created_at;\n    \n    mapping(address => uint) public contributions;\n    mapping(address => bool) public withdraws;\n    \n    Proposal[] public proposals;\n    CloseProposal[] public closeProposals;\n    \n\n    /** @dev Constructor.\n     *  @param _minimunContribution minimum contribution in wei that a person has to make to become a member.\n     *  @param _goal goal in wei that the project has to reach to be successful.\n     *  @param _ipfshash The url hash of the campaign data previously stored in IPFS.\n    **/\n    constructor(uint _minimunContribution, uint _goal, bytes32 _ipfshash) {\n        owner = msg.sender;\n        goal = _goal;\n        minimunContribution = _minimunContribution;\n        status = CampaignStatus.CREATED;\n        membersCount = 0;\n        created_at = block.timestamp;\n\n        emit CampaignCreated(_ipfshash);\n    }\n\n\n    /* Modifiers */\n\n    modifier restricted() { \n        require( msg.sender==owner, \"Sender is not the owner.\" ); \n        _; \n    }\n\n    modifier membering() { \n        require( (contributions[msg.sender]>0) || (msg.sender == owner), \n            \"Sender is not a member.\" ); \n        _; \n    }\n\n    modifier notMembering() { \n        require( (contributions[msg.sender]==0) && (msg.sender != owner),\n            \"Sender is already a member.\" );\n         _; \n    }\n\n    modifier statusCreated() { \n        require( status == CampaignStatus.CREATED, \n            \"The campaign status is not created.\" ); \n        _; \n    }\n\n    modifier statusActive() { \n        require( status == CampaignStatus.ACTIVE, \n            \"The campaign status is not active.\" ); \n        _; \n    }\n\n    modifier statusClosed() { \n        require( status == CampaignStatus.SUCCESSFUL || status == CampaignStatus.FAIL, \n            \"The campaign status is not close yet.\" ); \n        _; \n    }\n\n    modifier proposalActive(uint _index) { \n        require( proposals[_index].status == ProposalStatus.ACTIVE, \n            \"The proposal is not longer active.\" ); \n        _; \n    }\n\n    modifier proposalApproved(uint _index) { \n        require( proposals[_index].status == ProposalStatus.APPROVED,\n            \"The proposal is not approved.\" ); \n        _; \n    }\n\n    modifier beInTimeProposal(uint _index) { \n        require ( block.timestamp <= proposals[_index].limitTime, \n            \"The proposal is close for voting.\" ); \n        _; \n    }\n\n    modifier passedTimeProposal(uint _index) { \n        require ( block.timestamp > proposals[_index].limitTime, \n            \"The proposal is still open for voting.\" ); \n        _; \n    }\n    modifier statusNotClosed() {\n        require( status == CampaignStatus.ACTIVE || status == CampaignStatus.CREATED,\n            \"The campaign status is CLOSED.\" );\n        _;\n    }\n\n    modifier closeProposalActive(uint _index) {\n        require( closeProposals[_index].status == ProposalStatus.ACTIVE,\n            \"The close proposal is not longer active.\" );\n        _;\n    }\n\n    modifier closeProposalApproved(uint _index) {\n        require( closeProposals[_index].status == ProposalStatus.APPROVED,\n            \"The close proposal is not approved.\" );\n        _;\n    }\n\n    modifier beInTimeCloseProposal(uint _index) { \n        require ( block.timestamp <= closeProposals[_index].limitTime, \n            \"The close proposal is close for voting.\" ); \n        _; \n    }\n\n    modifier passedTimeCloseProposal(uint _index) { \n        require ( block.timestamp > closeProposals[_index].limitTime, \n            \"The close proposal is still open for voting.\" ); \n        _; \n    }\n\n\n    /* Events */\n\n    /** @dev Emitted when the author creates the campaign.\n     *  @param _ipfshash The url hash of the campaign data stored in IPFS.\n     */\n    event CampaignCreated(bytes32 _ipfshash);\n\n    /** @dev Emitted when a new person contributes with the campaign.\n     */\n    event NewContribution();\n\n    /** @dev Emitted when the author creates a proposal to free founds.\n     *  @param _ipfshash The url hash of the proposal data stored in IPFS.\n     */\n    event ProposalCreated(bytes32 _ipfshash);\n\n     /** @dev Emitted when a proposal is voted.\n     *  @param _index The index of the proposal.\n     */\n    event ProposalVoted(uint _index);\n\n    /** @dev Emitted when a proposal is Closed.\n     *  @param _index The index of the proposal.\n     */\n    event ProposalClosed(uint _index);\n\n    /** @dev Emitted when a proposal is release.\n     *  @param _index The index of the proposal.\n     */\n    event ProposalRelease(uint _index);\n\n     /** @dev Emitted when a member creates a proposal to close the campaign and get the founds back.\n     *  @param _ipfshash The url hash of the close proposal data stored in IPFS.\n     */\n    event CloseProposalCreated(bytes32 _ipfshash);\n\n    /** @dev Emitted when a close proposal is voted.\n     *  @param _index The index of the close proposal.\n     */\n    event CloseProposalVoted(uint _index);\n\n    /** @dev Emitted when a  close proposal is Closed.\n     *  @param _index The index of the close proposal.\n     */\n    event CloseProposalClosed(uint _index);\n\n    /** @dev Emitted when the author creates a progress update to show how the project is going.\n     *  @param _ipfshash The url hash of the progress update data stored in IPFS.\n     */\n    event ProgressUpdate(bytes32 _ipfshash);\n\n    /** @dev Emitted when the status of the campaign change.\n     */\n    event ChangeStatusCampaign();\n\n    /** @dev Emitted when a member withdraw his founds.\n     */\n    event withdrawFounds(address _member, uint contribution, uint goal, uint256 payment, uint founds);\n\n\n    /* Functions */\n\n    /** @dev Allow not members to contribute with the campaign and be a member of it.\n     */\n    function contribute() public notMembering statusCreated payable {\n        require(msg.value >= minimunContribution, \"The contribution is insufficient\");\n        contributions[msg.sender] = msg.value;\n        membersCount++;\n        emit NewContribution();\n    }\n\n    /** @dev Allow only owner to change the status of the cCampaign from CREATED to ACTIVE.\n     */\n    function setActive() public restricted statusCreated {\n        \n        require(address(this).balance >= goal,\"The contributions are insufficient\");\n        status = CampaignStatus.ACTIVE;\n        finalContributions = address(this).balance;\n\n        emit ChangeStatusCampaign();\n         \n    }\n\n    /** @dev Allow only owner to save a new progress Update data ipfs hash.\n     *  @param _ipfshash url hash of the progress update data (description and pictures) previously stored in IPFS.\n     */\n    function saveProgressUpdate(bytes32 _ipfshash) \n        public restricted statusActive {\n        emit ProgressUpdate(_ipfshash); \n    }\n\n    /** @dev Allow only owner to create a new proposal to get more founds.\n     *  @param _value founds in wei that the owner want to release.\n     *  @param _recipient address where the founds are going to be after release them.\n     *  @param _ipfshash url hash of the proposal data (description and pictures) previously stored in IPFS.\n     */\n    function createProposal(uint _value, address _recipient, bytes32 _ipfshash) \n        public restricted statusActive {\n\n        require(address(this).balance >= _value, \"The founds are insufficient\");\n\n        Proposal storage newProposal = proposals.push();\n        newProposal.recipient = _recipient;\n        newProposal.value = _value;\n        newProposal.approvalsCount = 0;\n        newProposal.disapprovalsCount = 0;\n        newProposal.status = ProposalStatus.ACTIVE;\n        newProposal.limitTime= block.timestamp + 7 days;\n\n        emit ProposalCreated(_ipfshash);\n        \n    }\n\n    /** @dev Allow only members to approve an active proposal that they haven't voted before.\n     *  @param _index index of the proposal the member wants to approve.\n     */\n    function approveProposal(uint _index) public membering statusActive proposalActive(_index) beInTimeProposal(_index) {\n\n        Proposal storage proposal = proposals[_index];\n        require(!proposal.voters[msg.sender], \"The proposal has been already voted by the sender\");\n\n        proposal.voters[msg.sender] = true;\n        proposal.approvalsCount++;\n\n        emit ProposalVoted(_index);        \n    }\n\n    /** @dev Allow only members to disapprove an active proposal that they haven't voted before.\n     *  @param _index index of the proposal the member wants to disapprove.\n     */\n    function disapproveProposal(uint _index) public membering statusActive proposalActive(_index) beInTimeProposal(_index) {\n\n        Proposal storage proposal = proposals[_index];\n        require(!proposal.voters[msg.sender], \"The proposal has been already voted by the sender\");\n\n        proposal.voters[msg.sender] = true;\n        proposal.disapprovalsCount++;\n        \n        emit ProposalVoted(_index);\n    }\n\n    /** @dev Allow only members to close an active proposal that already has its voting time over.\n     *  @param _index index of the proposal the member wants to approve.\n     */\n    function closeProposal(uint _index) public membering statusActive proposalActive(_index) passedTimeProposal(_index) {\n\n        Proposal storage proposal = proposals[_index];\n\n        if (proposal.approvalsCount > proposal.disapprovalsCount) {\n            proposal.status = ProposalStatus.APPROVED; \n        }\n        else {\n            proposal.status = ProposalStatus.DISAPPROVED;\n        }\n\n        emit ProposalClosed(_index);\n    }\n\n    /** @dev Allow only members to close an active proposal that already has its voting time over.\n     *  @param _index index of the proposal the member wants to approve.\n     */\n    function release(uint _index) public restricted statusActive proposalApproved(_index) {\n\n        Proposal storage proposal = proposals[_index];\n        proposal.status = ProposalStatus.SUCCESSFUL; \n        payable(proposal.recipient).transfer(proposal.value);\n        \n        emit ProposalRelease(_index);\n    }\n\n    /** @dev Allow only members to create a new proposal to finish de project and get the founds back.\n     *  @param _ipfshash url hash of the close proposal data (description) previously stored in IPFS.\n     */\n    function createCloseProposal(bytes32 _ipfshash) public membering statusNotClosed {\n\n        bool out_grace_period = ((created_at + 14 days) <= block.timestamp) && status == CampaignStatus.CREATED;\n        require( out_grace_period || status == CampaignStatus.ACTIVE,\n            \"The campaing created must have 14 days old.\" );\n\n        CloseProposal storage newCProposal = closeProposals.push();\n        newCProposal.approvalsCount = 0;\n        newCProposal.disapprovalsCount = 0;\n        newCProposal.status = ProposalStatus.ACTIVE;\n        newCProposal.limitTime= block.timestamp + 7 days;\n        newCProposal.author = msg.sender;\n\n        newCProposal.voters[msg.sender] = true;\n        newCProposal.approvalsCount++;\n\n        emit CloseProposalCreated(_ipfshash);\n         \n    }\n\n    /** @dev Allow only members to approve an active close proposal that they haven't voted before.\n     *  @param _index index of the close proposal the member wants to approve.\n     */\n    function approveCloseProposal(uint _index) public membering statusNotClosed closeProposalActive(_index) beInTimeCloseProposal(_index) {\n\n        CloseProposal storage cProposal = closeProposals[_index];\n        require(!cProposal.voters[msg.sender], \"The close proposal has been already voted by the sender\");\n\n        cProposal.voters[msg.sender] = true;\n        cProposal.approvalsCount++;\n\n        emit CloseProposalVoted(_index);\n        \n    }\n\n    /** @dev Allow only members to disapprove an active close proposal that they haven't voted before.\n     *  @param _index index of the close proposal the member wants to disapprove.\n     */\n    function disapproveCloseProposal(uint _index) public membering statusNotClosed closeProposalActive(_index) beInTimeCloseProposal(_index) {\n\n        CloseProposal storage cProposal = closeProposals[_index];\n        require(!cProposal.voters[msg.sender], \"The close proposal has been already voted by the sender\");\n\n        cProposal.voters[msg.sender] = true;\n        cProposal.disapprovalsCount++;\n\n        emit CloseProposalVoted(_index);\n        \n    }\n\n    /** @dev Allow only members to close an active proposal that already has its voting time over.\n     *  @param _index index of the proposal the member wants to approve.\n     */\n    function closeCloseProposal(uint _index) public membering statusNotClosed closeProposalActive(_index) passedTimeCloseProposal(_index) {\n\n        CloseProposal storage cProposal = closeProposals[_index];\n\n        if (cProposal.approvalsCount > cProposal.disapprovalsCount) {\n            if (cProposal.author == owner) {\n                status = CampaignStatus.SUCCESSFUL;\n            } else {\n                status = CampaignStatus.FAIL;\n            }\n            cProposal.status = ProposalStatus.APPROVED; \n            remainingContributions = address(this).balance;\n        }\n        else {\n            cProposal.status = ProposalStatus.DISAPPROVED;\n        }\n\n        //emit CloseProposalClosed(_index);\n        emit ChangeStatusCampaign();\n    }\n\n    /** @dev Allow only members to withdraw the remaining founds once the campaign is closed.\n     */\n    function withdraw() public membering statusClosed {\n\n        require( msg.sender != owner, \"Sender is the owner.\" );\n        require( !withdraws[msg.sender], \"Sender already withdraw his founds.\" );\n\n        uint256 payment = ((contributions[msg.sender]*remainingContributions) / finalContributions);\n        \n        require( payment < address(this).balance, \"Payment can't be more than balance.\");\n\n        payable(msg.sender).transfer(payment);\n        withdraws[msg.sender] = true;\n\n        emit withdrawFounds(msg.sender, contributions[msg.sender], finalContributions, payment, remainingContributions );\n    }\n\n\n     /* Aux functions */\n\n    /** @dev Function to return if someone is member.\n     */\n    function isMember(address _address) public view returns (bool) {\n        return contributions[_address]>0;\n    }\n\n    /** @dev Function to get the actual status of the campaign.\n     */\n    function getStatus() public view returns (CampaignStatus) {\n        return status;\n    }\n\n    /** @dev Function to get the finalContributions of the campaign.\n     */\n    function getFinalContributions() public view returns (uint) {\n        return finalContributions;\n    }\n\n    /** @dev Function to get the remainingContributions of the campaign.\n     */\n    function getRemainingContributions() public view returns (uint) {\n        return remainingContributions;\n    }\n\n    /** @dev Function to get all the balances of the campaign\n     */\n    function getBalancesInfo() public view returns (uint, uint, uint, uint) {\n        return (goal, finalContributions, remainingContributions, address(this).balance);\n    }\n\n    /** @dev Function to get the data of the campaign\n     */\n    function getCampaignInfo() public view returns (address, CampaignStatus, uint, uint, uint, uint, uint, bool) {\n        bool out_grace_period = (created_at + 14 days) <= block.timestamp;\n        return (owner, status, goal, minimunContribution, membersCount, finalContributions, remainingContributions, out_grace_period);\n    } \n\n    /** @dev Function to get the data of a proposal.\n     *  @param _index index of the proposal to return\n     */\n    function getProposal(uint _index) public view returns (address, uint, uint, uint, ProposalStatus, uint, bool, bool) {\n        Proposal storage proposal = proposals[_index];\n        bool inTime = block.timestamp <= proposal.limitTime;\n        bool senderHasVote = proposal.voters[msg.sender];\n        return (proposal.recipient, proposal.value, proposal.approvalsCount, proposal.disapprovalsCount, proposal.status, proposal.limitTime, inTime, senderHasVote);\n    } \n\n     /** @dev Function to know if a member has already vot a proposal.\n     *  @param _index index of the proposal\n     */\n    function hasVotedProposal(uint _index) public view returns (bool) {\n        Proposal storage proposal = proposals[_index];\n        return proposal.voters[msg.sender];\n    } \n\n    /** @dev Function to get the total number of proposals.\n     */\n    function getProposalsCount() public view returns (uint) {\n        return proposals.length;\n    }\n\n    /** @dev Function to get the data of a close proposal.\n     *  @param _index index of the proposal to return\n     */\n    function getCloseProposal(uint _index) public view returns (uint, uint, ProposalStatus, uint, bool, bool, address) {\n        CloseProposal storage cProposal = closeProposals[_index];\n        bool inTime = block.timestamp <= cProposal.limitTime;\n        bool senderHasVote = cProposal.voters[msg.sender];\n        return (cProposal.approvalsCount, cProposal.disapprovalsCount, cProposal.status, cProposal.limitTime, inTime, senderHasVote, cProposal.author);\n    } \n\n    /** @dev Function to know if a member has already vot a close proposal.\n     *  @param _index index of the proposal\n     */\n    function hasVotedCloseProposal(uint _index) public view returns (bool) {\n        CloseProposal storage cProposal = closeProposals[_index];\n        return cProposal.voters[msg.sender];\n    } \n\n    /** @dev Function to get the total number of close proposals.\n     */\n    function getCloseProposalsCount() public view returns (uint) {\n        return closeProposals.length;\n    }\n   \n}",
  "sourcePath": "/home/tati/Desktop/personal/Tesina/semideas-crowdfunding/contracts/CrowdfundingCampaign.sol",
  "compiler": {
    "name": "solc",
    "version": "0.8.6+commit.11564f7e.Emscripten.clang"
  },
  "schemaVersion": "3.4.1",
  "updatedAt": "2021-07-26T00:01:45.501Z",
  "devdoc": {
    "events": {
      "CampaignCreated(bytes32)": {
        "details": "Emitted when the author creates the campaign.",
        "params": {
          "_ipfshash": "The url hash of the campaign data stored in IPFS."
        }
      },
      "ChangeStatusCampaign()": {
        "details": "Emitted when the status of the campaign change."
      },
      "CloseProposalClosed(uint256)": {
        "details": "Emitted when a  close proposal is Closed.",
        "params": {
          "_index": "The index of the close proposal."
        }
      },
      "CloseProposalCreated(bytes32)": {
        "details": "Emitted when a member creates a proposal to close the campaign and get the founds back.",
        "params": {
          "_ipfshash": "The url hash of the close proposal data stored in IPFS."
        }
      },
      "CloseProposalVoted(uint256)": {
        "details": "Emitted when a close proposal is voted.",
        "params": {
          "_index": "The index of the close proposal."
        }
      },
      "NewContribution()": {
        "details": "Emitted when a new person contributes with the campaign."
      },
      "ProgressUpdate(bytes32)": {
        "details": "Emitted when the author creates a progress update to show how the project is going.",
        "params": {
          "_ipfshash": "The url hash of the progress update data stored in IPFS."
        }
      },
      "ProposalClosed(uint256)": {
        "details": "Emitted when a proposal is Closed.",
        "params": {
          "_index": "The index of the proposal."
        }
      },
      "ProposalCreated(bytes32)": {
        "details": "Emitted when the author creates a proposal to free founds.",
        "params": {
          "_ipfshash": "The url hash of the proposal data stored in IPFS."
        }
      },
      "ProposalRelease(uint256)": {
        "details": "Emitted when a proposal is release.",
        "params": {
          "_index": "The index of the proposal."
        }
      },
      "ProposalVoted(uint256)": {
        "details": "Emitted when a proposal is voted.",
        "params": {
          "_index": "The index of the proposal."
        }
      },
      "withdrawFounds(address,uint256,uint256,uint256,uint256)": {
        "details": "Emitted when a member withdraw his founds."
      }
    },
    "kind": "dev",
    "methods": {
      "approveCloseProposal(uint256)": {
        "details": "Allow only members to approve an active close proposal that they haven't voted before.",
        "params": {
          "_index": "index of the close proposal the member wants to approve."
        }
      },
      "approveProposal(uint256)": {
        "details": "Allow only members to approve an active proposal that they haven't voted before.",
        "params": {
          "_index": "index of the proposal the member wants to approve."
        }
      },
      "closeCloseProposal(uint256)": {
        "details": "Allow only members to close an active proposal that already has its voting time over.",
        "params": {
          "_index": "index of the proposal the member wants to approve."
        }
      },
      "closeProposal(uint256)": {
        "details": "Allow only members to close an active proposal that already has its voting time over.",
        "params": {
          "_index": "index of the proposal the member wants to approve."
        }
      },
      "constructor": {
        "details": "Constructor.",
        "params": {
          "_goal": "goal in wei that the project has to reach to be successful.",
          "_ipfshash": "The url hash of the campaign data previously stored in IPFS.*",
          "_minimunContribution": "minimum contribution in wei that a person has to make to become a member."
        }
      },
      "contribute()": {
        "details": "Allow not members to contribute with the campaign and be a member of it."
      },
      "createCloseProposal(bytes32)": {
        "details": "Allow only members to create a new proposal to finish de project and get the founds back.",
        "params": {
          "_ipfshash": "url hash of the close proposal data (description) previously stored in IPFS."
        }
      },
      "createProposal(uint256,address,bytes32)": {
        "details": "Allow only owner to create a new proposal to get more founds.",
        "params": {
          "_ipfshash": "url hash of the proposal data (description and pictures) previously stored in IPFS.",
          "_recipient": "address where the founds are going to be after release them.",
          "_value": "founds in wei that the owner want to release."
        }
      },
      "disapproveCloseProposal(uint256)": {
        "details": "Allow only members to disapprove an active close proposal that they haven't voted before.",
        "params": {
          "_index": "index of the close proposal the member wants to disapprove."
        }
      },
      "disapproveProposal(uint256)": {
        "details": "Allow only members to disapprove an active proposal that they haven't voted before.",
        "params": {
          "_index": "index of the proposal the member wants to disapprove."
        }
      },
      "getBalancesInfo()": {
        "details": "Function to get all the balances of the campaign"
      },
      "getCampaignInfo()": {
        "details": "Function to get the data of the campaign"
      },
      "getCloseProposal(uint256)": {
        "details": "Function to get the data of a close proposal.",
        "params": {
          "_index": "index of the proposal to return"
        }
      },
      "getCloseProposalsCount()": {
        "details": "Function to get the total number of close proposals."
      },
      "getFinalContributions()": {
        "details": "Function to get the finalContributions of the campaign."
      },
      "getProposal(uint256)": {
        "details": "Function to get the data of a proposal.",
        "params": {
          "_index": "index of the proposal to return"
        }
      },
      "getProposalsCount()": {
        "details": "Function to get the total number of proposals."
      },
      "getRemainingContributions()": {
        "details": "Function to get the remainingContributions of the campaign."
      },
      "getStatus()": {
        "details": "Function to get the actual status of the campaign."
      },
      "hasVotedCloseProposal(uint256)": {
        "details": "Function to know if a member has already vot a close proposal.",
        "params": {
          "_index": "index of the proposal"
        }
      },
      "hasVotedProposal(uint256)": {
        "details": "Function to know if a member has already vot a proposal.",
        "params": {
          "_index": "index of the proposal"
        }
      },
      "isMember(address)": {
        "details": "Function to return if someone is member."
      },
      "release(uint256)": {
        "details": "Allow only members to close an active proposal that already has its voting time over.",
        "params": {
          "_index": "index of the proposal the member wants to approve."
        }
      },
      "saveProgressUpdate(bytes32)": {
        "details": "Allow only owner to save a new progress Update data ipfs hash.",
        "params": {
          "_ipfshash": "url hash of the progress update data (description and pictures) previously stored in IPFS."
        }
      },
      "setActive()": {
        "details": "Allow only owner to change the status of the cCampaign from CREATED to ACTIVE."
      },
      "withdraw()": {
        "details": "Allow only members to withdraw the remaining founds once the campaign is closed."
      }
    },
    "version": 1
  },
  "userdoc": {
    "kind": "user",
    "methods": {},
    "version": 1
  }
}