{
  "contractName": "CrowdfundingCampaignDemo",
  "abi": [
    {
      "inputs": [
        {
          "internalType": "uint256",
          "name": "_minimunContribution",
          "type": "uint256"
        },
        {
          "internalType": "uint256",
          "name": "_goal",
          "type": "uint256"
        },
        {
          "internalType": "bytes32",
          "name": "_ipfshash",
          "type": "bytes32"
        }
      ],
      "stateMutability": "nonpayable",
      "type": "constructor"
    },
    {
      "anonymous": false,
      "inputs": [
        {
          "indexed": false,
          "internalType": "bytes32",
          "name": "_ipfshash",
          "type": "bytes32"
        }
      ],
      "name": "CampaignCreated",
      "type": "event"
    },
    {
      "anonymous": false,
      "inputs": [],
      "name": "ChangeStatusCampaign",
      "type": "event"
    },
    {
      "anonymous": false,
      "inputs": [
        {
          "indexed": false,
          "internalType": "uint256",
          "name": "_index",
          "type": "uint256"
        }
      ],
      "name": "DestructProposalClosed",
      "type": "event"
    },
    {
      "anonymous": false,
      "inputs": [
        {
          "indexed": false,
          "internalType": "bytes32",
          "name": "_ipfshash",
          "type": "bytes32"
        }
      ],
      "name": "DestructProposalCreated",
      "type": "event"
    },
    {
      "anonymous": false,
      "inputs": [
        {
          "indexed": false,
          "internalType": "uint256",
          "name": "_index",
          "type": "uint256"
        }
      ],
      "name": "DestructProposalVoted",
      "type": "event"
    },
    {
      "anonymous": false,
      "inputs": [],
      "name": "NewContribution",
      "type": "event"
    },
    {
      "anonymous": false,
      "inputs": [
        {
          "indexed": false,
          "internalType": "bytes32",
          "name": "_ipfshash",
          "type": "bytes32"
        }
      ],
      "name": "ProgressUpdate",
      "type": "event"
    },
    {
      "anonymous": false,
      "inputs": [
        {
          "indexed": false,
          "internalType": "uint256",
          "name": "_index",
          "type": "uint256"
        }
      ],
      "name": "ProposalClosed",
      "type": "event"
    },
    {
      "anonymous": false,
      "inputs": [
        {
          "indexed": false,
          "internalType": "bytes32",
          "name": "_ipfshash",
          "type": "bytes32"
        }
      ],
      "name": "ProposalCreated",
      "type": "event"
    },
    {
      "anonymous": false,
      "inputs": [
        {
          "indexed": false,
          "internalType": "uint256",
          "name": "_index",
          "type": "uint256"
        }
      ],
      "name": "ProposalVoted",
      "type": "event"
    },
    {
      "anonymous": false,
      "inputs": [
        {
          "indexed": false,
          "internalType": "uint256",
          "name": "_index",
          "type": "uint256"
        }
      ],
      "name": "ProposalWithdraw",
      "type": "event"
    },
    {
      "inputs": [
        {
          "internalType": "uint256",
          "name": "_index",
          "type": "uint256"
        }
      ],
      "name": "approveProposal",
      "outputs": [],
      "stateMutability": "nonpayable",
      "type": "function"
    },
    {
      "inputs": [
        {
          "internalType": "uint256",
          "name": "_index",
          "type": "uint256"
        }
      ],
      "name": "aproveDestructProposal",
      "outputs": [],
      "stateMutability": "nonpayable",
      "type": "function"
    },
    {
      "inputs": [
        {
          "internalType": "uint256",
          "name": "_index",
          "type": "uint256"
        }
      ],
      "name": "closeDestructProposal",
      "outputs": [],
      "stateMutability": "nonpayable",
      "type": "function"
    },
    {
      "inputs": [
        {
          "internalType": "uint256",
          "name": "_index",
          "type": "uint256"
        }
      ],
      "name": "closeProposal",
      "outputs": [],
      "stateMutability": "nonpayable",
      "type": "function"
    },
    {
      "inputs": [],
      "name": "contribute",
      "outputs": [],
      "stateMutability": "payable",
      "type": "function"
    },
    {
      "inputs": [
        {
          "internalType": "address",
          "name": "",
          "type": "address"
        }
      ],
      "name": "contributions",
      "outputs": [
        {
          "internalType": "uint256",
          "name": "",
          "type": "uint256"
        }
      ],
      "stateMutability": "view",
      "type": "function"
    },
    {
      "inputs": [
        {
          "internalType": "bytes32",
          "name": "_ipfshash",
          "type": "bytes32"
        }
      ],
      "name": "createDestructProposal",
      "outputs": [],
      "stateMutability": "nonpayable",
      "type": "function"
    },
    {
      "inputs": [
        {
          "internalType": "uint256",
          "name": "_value",
          "type": "uint256"
        },
        {
          "internalType": "address",
          "name": "_recipient",
          "type": "address"
        },
        {
          "internalType": "bytes32",
          "name": "_ipfshash",
          "type": "bytes32"
        }
      ],
      "name": "createProposal",
      "outputs": [],
      "stateMutability": "nonpayable",
      "type": "function"
    },
    {
      "inputs": [
        {
          "internalType": "uint256",
          "name": "",
          "type": "uint256"
        }
      ],
      "name": "destructProposals",
      "outputs": [
        {
          "internalType": "uint256",
          "name": "approvalsCount",
          "type": "uint256"
        },
        {
          "internalType": "uint256",
          "name": "disapprovalsCount",
          "type": "uint256"
        },
        {
          "internalType": "enum CrowdfundingCampaign.ProposalStatus",
          "name": "status",
          "type": "uint8"
        },
        {
          "internalType": "uint256",
          "name": "limitTime",
          "type": "uint256"
        }
      ],
      "stateMutability": "view",
      "type": "function"
    },
    {
      "inputs": [
        {
          "internalType": "uint256",
          "name": "_index",
          "type": "uint256"
        }
      ],
      "name": "disapproveDestructProposal",
      "outputs": [],
      "stateMutability": "nonpayable",
      "type": "function"
    },
    {
      "inputs": [
        {
          "internalType": "uint256",
          "name": "_index",
          "type": "uint256"
        }
      ],
      "name": "disapproveProposal",
      "outputs": [],
      "stateMutability": "nonpayable",
      "type": "function"
    },
    {
      "inputs": [],
      "name": "finalContributions",
      "outputs": [
        {
          "internalType": "uint256",
          "name": "",
          "type": "uint256"
        }
      ],
      "stateMutability": "view",
      "type": "function"
    },
    {
      "inputs": [],
      "name": "getCampaignInfo",
      "outputs": [
        {
          "internalType": "address",
          "name": "",
          "type": "address"
        },
        {
          "internalType": "enum CrowdfundingCampaign.CampaignStatus",
          "name": "",
          "type": "uint8"
        },
        {
          "internalType": "uint256",
          "name": "",
          "type": "uint256"
        },
        {
          "internalType": "uint256",
          "name": "",
          "type": "uint256"
        },
        {
          "internalType": "uint256",
          "name": "",
          "type": "uint256"
        },
        {
          "internalType": "uint256",
          "name": "",
          "type": "uint256"
        },
        {
          "internalType": "uint256",
          "name": "",
          "type": "uint256"
        }
      ],
      "stateMutability": "view",
      "type": "function"
    },
    {
      "inputs": [
        {
          "internalType": "uint256",
          "name": "_index",
          "type": "uint256"
        }
      ],
      "name": "getDestructProposal",
      "outputs": [
        {
          "internalType": "uint256",
          "name": "",
          "type": "uint256"
        },
        {
          "internalType": "uint256",
          "name": "",
          "type": "uint256"
        },
        {
          "internalType": "enum CrowdfundingCampaign.ProposalStatus",
          "name": "",
          "type": "uint8"
        },
        {
          "internalType": "uint256",
          "name": "",
          "type": "uint256"
        },
        {
          "internalType": "bool",
          "name": "",
          "type": "bool"
        },
        {
          "internalType": "bool",
          "name": "",
          "type": "bool"
        }
      ],
      "stateMutability": "view",
      "type": "function"
    },
    {
      "inputs": [],
      "name": "getDestructProposalsCount",
      "outputs": [
        {
          "internalType": "uint256",
          "name": "",
          "type": "uint256"
        }
      ],
      "stateMutability": "view",
      "type": "function"
    },
    {
      "inputs": [],
      "name": "getFinalContributions",
      "outputs": [
        {
          "internalType": "uint256",
          "name": "",
          "type": "uint256"
        }
      ],
      "stateMutability": "view",
      "type": "function"
    },
    {
      "inputs": [
        {
          "internalType": "uint256",
          "name": "_index",
          "type": "uint256"
        }
      ],
      "name": "getProposal",
      "outputs": [
        {
          "internalType": "address",
          "name": "",
          "type": "address"
        },
        {
          "internalType": "uint256",
          "name": "",
          "type": "uint256"
        },
        {
          "internalType": "uint256",
          "name": "",
          "type": "uint256"
        },
        {
          "internalType": "uint256",
          "name": "",
          "type": "uint256"
        },
        {
          "internalType": "enum CrowdfundingCampaign.ProposalStatus",
          "name": "",
          "type": "uint8"
        },
        {
          "internalType": "uint256",
          "name": "",
          "type": "uint256"
        },
        {
          "internalType": "bool",
          "name": "",
          "type": "bool"
        },
        {
          "internalType": "bool",
          "name": "",
          "type": "bool"
        }
      ],
      "stateMutability": "view",
      "type": "function"
    },
    {
      "inputs": [],
      "name": "getProposalsCount",
      "outputs": [
        {
          "internalType": "uint256",
          "name": "",
          "type": "uint256"
        }
      ],
      "stateMutability": "view",
      "type": "function"
    },
    {
      "inputs": [],
      "name": "getRemainingContributions",
      "outputs": [
        {
          "internalType": "uint256",
          "name": "",
          "type": "uint256"
        }
      ],
      "stateMutability": "view",
      "type": "function"
    },
    {
      "inputs": [],
      "name": "getStatus",
      "outputs": [
        {
          "internalType": "enum CrowdfundingCampaign.CampaignStatus",
          "name": "",
          "type": "uint8"
        }
      ],
      "stateMutability": "view",
      "type": "function"
    },
    {
      "inputs": [],
      "name": "goal",
      "outputs": [
        {
          "internalType": "uint256",
          "name": "",
          "type": "uint256"
        }
      ],
      "stateMutability": "view",
      "type": "function"
    },
    {
      "inputs": [
        {
          "internalType": "uint256",
          "name": "_index",
          "type": "uint256"
        }
      ],
      "name": "hasVotedDestructProposal",
      "outputs": [
        {
          "internalType": "bool",
          "name": "",
          "type": "bool"
        }
      ],
      "stateMutability": "view",
      "type": "function"
    },
    {
      "inputs": [
        {
          "internalType": "uint256",
          "name": "_index",
          "type": "uint256"
        }
      ],
      "name": "hasVotedProposal",
      "outputs": [
        {
          "internalType": "bool",
          "name": "",
          "type": "bool"
        }
      ],
      "stateMutability": "view",
      "type": "function"
    },
    {
      "inputs": [
        {
          "internalType": "address",
          "name": "_address",
          "type": "address"
        }
      ],
      "name": "isMember",
      "outputs": [
        {
          "internalType": "bool",
          "name": "",
          "type": "bool"
        }
      ],
      "stateMutability": "view",
      "type": "function"
    },
    {
      "inputs": [],
      "name": "membersCount",
      "outputs": [
        {
          "internalType": "uint256",
          "name": "",
          "type": "uint256"
        }
      ],
      "stateMutability": "view",
      "type": "function"
    },
    {
      "inputs": [],
      "name": "minimunContribution",
      "outputs": [
        {
          "internalType": "uint256",
          "name": "",
          "type": "uint256"
        }
      ],
      "stateMutability": "view",
      "type": "function"
    },
    {
      "inputs": [],
      "name": "owner",
      "outputs": [
        {
          "internalType": "address",
          "name": "",
          "type": "address"
        }
      ],
      "stateMutability": "view",
      "type": "function"
    },
    {
      "inputs": [
        {
          "internalType": "uint256",
          "name": "",
          "type": "uint256"
        }
      ],
      "name": "proposals",
      "outputs": [
        {
          "internalType": "uint256",
          "name": "value",
          "type": "uint256"
        },
        {
          "internalType": "address",
          "name": "recipient",
          "type": "address"
        },
        {
          "internalType": "uint256",
          "name": "approvalsCount",
          "type": "uint256"
        },
        {
          "internalType": "uint256",
          "name": "disapprovalsCount",
          "type": "uint256"
        },
        {
          "internalType": "enum CrowdfundingCampaign.ProposalStatus",
          "name": "status",
          "type": "uint8"
        },
        {
          "internalType": "uint256",
          "name": "limitTime",
          "type": "uint256"
        }
      ],
      "stateMutability": "view",
      "type": "function"
    },
    {
      "inputs": [],
      "name": "remainingContributions",
      "outputs": [
        {
          "internalType": "uint256",
          "name": "",
          "type": "uint256"
        }
      ],
      "stateMutability": "view",
      "type": "function"
    },
    {
      "inputs": [
        {
          "internalType": "bytes32",
          "name": "_ipfshash",
          "type": "bytes32"
        }
      ],
      "name": "saveProgressUpdate",
      "outputs": [],
      "stateMutability": "nonpayable",
      "type": "function"
    },
    {
      "inputs": [],
      "name": "setActive",
      "outputs": [],
      "stateMutability": "nonpayable",
      "type": "function"
    },
    {
      "inputs": [],
      "name": "status",
      "outputs": [
        {
          "internalType": "enum CrowdfundingCampaign.CampaignStatus",
          "name": "",
          "type": "uint8"
        }
      ],
      "stateMutability": "view",
      "type": "function"
    },
    {
      "inputs": [
        {
          "internalType": "uint256",
          "name": "_index",
          "type": "uint256"
        }
      ],
      "name": "withdraw",
      "outputs": [],
      "stateMutability": "nonpayable",
      "type": "function"
    },
    {
      "inputs": [
        {
          "internalType": "address",
          "name": "",
          "type": "address"
        }
      ],
      "name": "withdraws",
      "outputs": [
        {
          "internalType": "bool",
          "name": "",
          "type": "bool"
        }
      ],
      "stateMutability": "view",
      "type": "function"
    },
    {
      "inputs": [
        {
          "internalType": "uint256",
          "name": "_index",
          "type": "uint256"
        }
      ],
      "name": "changeLimitProposal",
      "outputs": [],
      "stateMutability": "nonpayable",
      "type": "function"
    },
    {
      "inputs": [
        {
          "internalType": "uint256",
          "name": "_index",
          "type": "uint256"
        }
      ],
      "name": "changeLimitDestructProposal",
      "outputs": [],
      "stateMutability": "nonpayable",
      "type": "function"
    }
  ],
  "bytecode": "0x60806040523480156200001157600080fd5b506040516200407b3803806200407b833981810160405281019062000037919062000131565b82828233600060016101000a81548173ffffffffffffffffffffffffffffffffffffffff021916908373ffffffffffffffffffffffffffffffffffffffff160217905550816001819055508260028190555060008060006101000a81548160ff02191690836003811115620000b157620000b0620001cf565b5b021790555060006003819055507f0f627713f9c831a1b079924dedde3308e90d22b754bdd481f9b2165aa0f9dfb981604051620000ef91906200019e565b60405180910390a150505050505062000237565b600081519050620001148162000203565b92915050565b6000815190506200012b816200021d565b92915050565b6000806000606084860312156200014d576200014c620001fe565b5b60006200015d868287016200011a565b935050602062000170868287016200011a565b9250506040620001838682870162000103565b9150509250925092565b6200019881620001bb565b82525050565b6000602082019050620001b560008301846200018d565b92915050565b6000819050919050565b6000819050919050565b7f4e487b7100000000000000000000000000000000000000000000000000000000600052602160045260246000fd5b600080fd5b6200020e81620001bb565b81146200021a57600080fd5b50565b6200022881620001c5565b81146200023457600080fd5b50565b613e3480620002476000396000f3fe60806040526004361061020f5760003560e01c8063923a64fb11610118578063d6290cd7116100a0578063e966670a1161006f578063e966670a14610793578063edbd0db8146107d5578063eeda051814610800578063ef978ecb1461083d578063f049a60c146108665761020f565b8063d6290cd7146106f0578063d7bb99ba14610721578063d853ba731461072b578063e5069726146107565761020f565b8063a7f33715116100e7578063a7f33715146105ef578063b1a6f6a91461061a578063b8f02ae11461065a578063c7f758a814610683578063c8541fe0146106c75761020f565b8063923a64fb1461053557806398951b561461055e57806398e527d314610587578063a230c524146105b25761020f565b80633b047a8f1161019b5780634e69d5601161016a5780634e69d560146104745780634f92c9251461049f57806351c36c1e146104ca578063760a8c2a146104f35780638da5cb5b1461050a5761020f565b80633b047a8f146103a657806340193883146103cf57806342e94c90146103fa57806348179ee5146104375761020f565b8063200d2ed2116101e2578063200d2ed2146102d5578063297f9af0146103005780632e1a7d4d1461032b57806338170718146103545780633912fbe51461037d5761020f565b80630126f61e14610214578063013cf08b1461023f5780630386a016146102815780631ec0b7ba146102aa575b600080fd5b34801561022057600080fd5b5061022961088f565b6040516102369190613602565b60405180910390f35b34801561024b57600080fd5b5061026660048036038101906102619190612f5c565b610895565b6040516102789695949392919061361d565b60405180910390f35b34801561028d57600080fd5b506102a860048036038101906102a39190612f5c565b61090e565b005b3480156102b657600080fd5b506102bf610c31565b6040516102cc9190613602565b60405180910390f35b3480156102e157600080fd5b506102ea610c3e565b6040516102f791906133c7565b60405180910390f35b34801561030c57600080fd5b50610315610c4f565b6040516103229190613602565b60405180910390f35b34801561033757600080fd5b50610352600480360381019061034d9190612f5c565b610c55565b005b34801561036057600080fd5b5061037b60048036038101906103769190612f5c565b610ef1565b005b34801561038957600080fd5b506103a4600480360381019061039f9190612f5c565b610f36565b005b3480156103b257600080fd5b506103cd60048036038101906103c89190612f2f565b611259565b005b3480156103db57600080fd5b506103e4611397565b6040516103f19190613602565b60405180910390f35b34801561040657600080fd5b50610421600480360381019061041c9190612f02565b61139d565b60405161042e9190613602565b60405180910390f35b34801561044357600080fd5b5061045e60048036038101906104599190612f02565b6113b5565b60405161046b9190613391565b60405180910390f35b34801561048057600080fd5b506104896113d5565b60405161049691906133c7565b60405180910390f35b3480156104ab57600080fd5b506104b46113eb565b6040516104c19190613602565b60405180910390f35b3480156104d657600080fd5b506104f160048036038101906104ec9190612f89565b6113f5565b005b3480156104ff57600080fd5b50610508611641565b005b34801561051657600080fd5b5061051f6117e9565b60405161052c9190613289565b60405180910390f35b34801561054157600080fd5b5061055c60048036038101906105579190612f2f565b61180f565b005b34801561056a57600080fd5b5061058560048036038101906105809190612f5c565b611a14565b005b34801561059357600080fd5b5061059c611dcb565b6040516105a99190613602565b60405180910390f35b3480156105be57600080fd5b506105d960048036038101906105d49190612f02565b611dd8565b6040516105e69190613391565b60405180910390f35b3480156105fb57600080fd5b50610604611e23565b6040516106119190613602565b60405180910390f35b34801561062657600080fd5b50610641600480360381019061063c9190612f5c565b611e29565b604051610651949392919061367e565b60405180910390f35b34801561066657600080fd5b50610681600480360381019061067c9190612f5c565b611e76565b005b34801561068f57600080fd5b506106aa60048036038101906106a59190612f5c565b611ebb565b6040516106be989796959493929190613313565b60405180910390f35b3480156106d357600080fd5b506106ee60048036038101906106e99190612f5c565b611fb7565b005b3480156106fc57600080fd5b5061070561236e565b60405161071897969594939291906132a4565b60405180910390f35b6107296123cf565b005b34801561073757600080fd5b506107406125ee565b60405161074d9190613602565b60405180910390f35b34801561076257600080fd5b5061077d60048036038101906107789190612f5c565b6125f4565b60405161078a9190613391565b60405180910390f35b34801561079f57600080fd5b506107ba60048036038101906107b59190612f5c565b612672565b6040516107cc969594939291906136c3565b60405180910390f35b3480156107e157600080fd5b506107ea61273b565b6040516107f79190613602565b60405180910390f35b34801561080c57600080fd5b5061082760048036038101906108229190612f5c565b612745565b6040516108349190613391565b60405180910390f35b34801561084957600080fd5b50610864600480360381019061085f9190612f5c565b6127c3565b005b34801561087257600080fd5b5061088d60048036038101906108889190612f5c565b612b43565b005b60045481565b600881815481106108a557600080fd5b90600052602060002090600702016000915090508060000154908060010160009054906101000a900473ffffffffffffffffffffffffffffffffffffffff16908060020154908060030154908060050160009054906101000a900460ff16908060060154905086565b6000600660003373ffffffffffffffffffffffffffffffffffffffff1673ffffffffffffffffffffffffffffffffffffffff1681526020019081526020016000205411806109a95750600060019054906101000a900473ffffffffffffffffffffffffffffffffffffffff1673ffffffffffffffffffffffffffffffffffffffff163373ffffffffffffffffffffffffffffffffffffffff16145b6109e8576040517f08c379a00000000000000000000000000000000000000000000000000000000081526004016109df90613402565b60405180910390fd5b600160038111156109fc576109fb6138d3565b5b60008054906101000a900460ff166003811115610a1c57610a1b6138d3565b5b14610a5c576040517f08c379a0000000000000000000000000000000000000000000000000000000008152600401610a5390613542565b60405180910390fd5b8060006003811115610a7157610a706138d3565b5b60088281548110610a8557610a84613902565b5b906000526020600020906007020160050160009054906101000a900460ff166003811115610ab657610ab56138d3565b5b14610af6576040517f08c379a0000000000000000000000000000000000000000000000000000000008152600401610aed906135e2565b60405180910390fd5b8160088181548110610b0b57610b0a613902565b5b9060005260206000209060070201600601544211610b5e576040517f08c379a0000000000000000000000000000000000000000000000000000000008152600401610b55906135c2565b60405180910390fd5b600060088481548110610b7457610b73613902565b5b90600052602060002090600702019050806003015481600201541115610bc65760018160050160006101000a81548160ff02191690836003811115610bbc57610bbb6138d3565b5b0217905550610bf4565b60028160050160006101000a81548160ff02191690836003811115610bee57610bed6138d3565b5b02179055505b7f887777ccf43690541bed9e00b10d0fccfa7520b11875f09847a57b3085d8ab9284604051610c239190613602565b60405180910390a150505050565b6000600980549050905090565b60008054906101000a900460ff1681565b60035481565b600060019054906101000a900473ffffffffffffffffffffffffffffffffffffffff1673ffffffffffffffffffffffffffffffffffffffff163373ffffffffffffffffffffffffffffffffffffffff1614610ce5576040517f08c379a0000000000000000000000000000000000000000000000000000000008152600401610cdc906134a2565b60405180910390fd5b60016003811115610cf957610cf86138d3565b5b60008054906101000a900460ff166003811115610d1957610d186138d3565b5b14610d59576040517f08c379a0000000000000000000000000000000000000000000000000000000008152600401610d5090613542565b60405180910390fd5b8060016003811115610d6e57610d6d6138d3565b5b60088281548110610d8257610d81613902565b5b906000526020600020906007020160050160009054906101000a900460ff166003811115610db357610db26138d3565b5b14610df3576040517f08c379a0000000000000000000000000000000000000000000000000000000008152600401610dea90613502565b60405180910390fd5b600060088381548110610e0957610e08613902565b5b9060005260206000209060070201905060038160050160006101000a81548160ff02191690836003811115610e4157610e406138d3565b5b02179055508060010160009054906101000a900473ffffffffffffffffffffffffffffffffffffffff1673ffffffffffffffffffffffffffffffffffffffff166108fc82600001549081150290604051600060405180830381858888f19350505050158015610eb4573d6000803e3d6000fd5b507fff1ae7486a09c668cb67e3cbd767e6eca296bcffbd5171b289407f7d714dc50283604051610ee49190613602565b60405180910390a1505050565b600060098281548110610f0757610f06613902565b5b9060005260206000209060050201905062093a808160040154610f2a919061378b565b81600401819055505050565b6000600660003373ffffffffffffffffffffffffffffffffffffffff1673ffffffffffffffffffffffffffffffffffffffff168152602001908152602001600020541180610fd15750600060019054906101000a900473ffffffffffffffffffffffffffffffffffffffff1673ffffffffffffffffffffffffffffffffffffffff163373ffffffffffffffffffffffffffffffffffffffff16145b611010576040517f08c379a000000000000000000000000000000000000000000000000000000000815260040161100790613402565b60405180910390fd5b60016003811115611024576110236138d3565b5b60008054906101000a900460ff166003811115611044576110436138d3565b5b14611084576040517f08c379a000000000000000000000000000000000000000000000000000000000815260040161107b90613542565b60405180910390fd5b8060006003811115611099576110986138d3565b5b600982815481106110ad576110ac613902565b5b906000526020600020906005020160030160009054906101000a900460ff1660038111156110de576110dd6138d3565b5b1461111e576040517f08c379a000000000000000000000000000000000000000000000000000000000815260040161111590613482565b60405180910390fd5b816009818154811061113357611132613902565b5b9060005260206000209060050201600401544211611186576040517f08c379a000000000000000000000000000000000000000000000000000000000815260040161117d90613462565b60405180910390fd5b60006009848154811061119c5761119b613902565b5b906000526020600020906005020190508060010154816000015411156111ee5760018160030160006101000a81548160ff021916908360038111156111e4576111e36138d3565b5b021790555061121c565b60028160030160006101000a81548160ff02191690836003811115611216576112156138d3565b5b02179055505b7f9d503d9b21cff0a224a831dabbf5fd2856219a4555ba61c71bd702a02dd717d68460405161124b9190613602565b60405180910390a150505050565b600060019054906101000a900473ffffffffffffffffffffffffffffffffffffffff1673ffffffffffffffffffffffffffffffffffffffff163373ffffffffffffffffffffffffffffffffffffffff16146112e9576040517f08c379a00000000000000000000000000000000000000000000000000000000081526004016112e0906134a2565b60405180910390fd5b600160038111156112fd576112fc6138d3565b5b60008054906101000a900460ff16600381111561131d5761131c6138d3565b5b1461135d576040517f08c379a000000000000000000000000000000000000000000000000000000000815260040161135490613542565b60405180910390fd5b7f2f8af70d91e96a23b8111e37a9117f7cfe341f51c17759c36475a1a7698f0dc38160405161138c91906133ac565b60405180910390a150565b60015481565b60066020528060005260406000206000915090505481565b60076020528060005260406000206000915054906101000a900460ff1681565b60008060009054906101000a900460ff16905090565b6000600554905090565b600060019054906101000a900473ffffffffffffffffffffffffffffffffffffffff1673ffffffffffffffffffffffffffffffffffffffff163373ffffffffffffffffffffffffffffffffffffffff1614611485576040517f08c379a000000000000000000000000000000000000000000000000000000000815260040161147c906134a2565b60405180910390fd5b60016003811115611499576114986138d3565b5b60008054906101000a900460ff1660038111156114b9576114b86138d3565b5b146114f9576040517f08c379a00000000000000000000000000000000000000000000000000000000081526004016114f090613542565b60405180910390fd5b8247101561153c576040517f08c379a0000000000000000000000000000000000000000000000000000000008152600401611533906134e2565b60405180910390fd5b600060086001816001815401808255809150500390600052602060002090600702019050828160010160006101000a81548173ffffffffffffffffffffffffffffffffffffffff021916908373ffffffffffffffffffffffffffffffffffffffff160217905550838160000181905550600081600201819055506000816003018190555060008160050160006101000a81548160ff021916908360038111156115e8576115e76138d3565b5b021790555062093a80426115fc9190613735565b81600601819055507f288a29bca04edb18fcdb2c76d6e3b03b8a137c85c70d1a4cb8aacfa868d605108260405161163391906133ac565b60405180910390a150505050565b600060019054906101000a900473ffffffffffffffffffffffffffffffffffffffff1673ffffffffffffffffffffffffffffffffffffffff163373ffffffffffffffffffffffffffffffffffffffff16146116d1576040517f08c379a00000000000000000000000000000000000000000000000000000000081526004016116c8906134a2565b60405180910390fd5b600060038111156116e5576116e46138d3565b5b60008054906101000a900460ff166003811115611705576117046138d3565b5b14611745576040517f08c379a000000000000000000000000000000000000000000000000000000000815260040161173c906135a2565b60405180910390fd5b60015447101561178a576040517f08c379a000000000000000000000000000000000000000000000000000000000815260040161178190613522565b60405180910390fd5b60016000806101000a81548160ff021916908360038111156117af576117ae6138d3565b5b0217905550476004819055507fe283e942d53c4322165eacc7a597c86cdbc698c96321f57a82b29c615810a69560405160405180910390a1565b600060019054906101000a900473ffffffffffffffffffffffffffffffffffffffff1681565b6000600660003373ffffffffffffffffffffffffffffffffffffffff1673ffffffffffffffffffffffffffffffffffffffff1681526020019081526020016000205411806118aa5750600060019054906101000a900473ffffffffffffffffffffffffffffffffffffffff1673ffffffffffffffffffffffffffffffffffffffff163373ffffffffffffffffffffffffffffffffffffffff16145b6118e9576040517f08c379a00000000000000000000000000000000000000000000000000000000081526004016118e090613402565b60405180910390fd5b600160038111156118fd576118fc6138d3565b5b60008054906101000a900460ff16600381111561191d5761191c6138d3565b5b1461195d576040517f08c379a000000000000000000000000000000000000000000000000000000000815260040161195490613542565b60405180910390fd5b600060096001816001815401808255809150500390600052602060002090600502019050600081600001819055506000816001018190555060008160030160006101000a81548160ff021916908360038111156119bd576119bc6138d3565b5b021790555062093a80426119d19190613735565b81600401819055507ff58a42dcfacfd41fd5d3681beb4755c6023d9bd2d5c1ae46e8866ece6463cee782604051611a0891906133ac565b60405180910390a15050565b6000600660003373ffffffffffffffffffffffffffffffffffffffff1673ffffffffffffffffffffffffffffffffffffffff168152602001908152602001600020541180611aaf5750600060019054906101000a900473ffffffffffffffffffffffffffffffffffffffff1673ffffffffffffffffffffffffffffffffffffffff163373ffffffffffffffffffffffffffffffffffffffff16145b611aee576040517f08c379a0000000000000000000000000000000000000000000000000000000008152600401611ae590613402565b60405180910390fd5b60016003811115611b0257611b016138d3565b5b60008054906101000a900460ff166003811115611b2257611b216138d3565b5b14611b62576040517f08c379a0000000000000000000000000000000000000000000000000000000008152600401611b5990613542565b60405180910390fd5b8060006003811115611b7757611b766138d3565b5b60088281548110611b8b57611b8a613902565b5b906000526020600020906007020160050160009054906101000a900460ff166003811115611bbc57611bbb6138d3565b5b14611bfc576040517f08c379a0000000000000000000000000000000000000000000000000000000008152600401611bf3906135e2565b60405180910390fd5b8160088181548110611c1157611c10613902565b5b906000526020600020906007020160060154421115611c65576040517f08c379a0000000000000000000000000000000000000000000000000000000008152600401611c5c906134c2565b60405180910390fd5b600060088481548110611c7b57611c7a613902565b5b906000526020600020906007020190508060040160003373ffffffffffffffffffffffffffffffffffffffff1673ffffffffffffffffffffffffffffffffffffffff16815260200190815260200160002060009054906101000a900460ff1615611d1a576040517f08c379a0000000000000000000000000000000000000000000000000000000008152600401611d1190613562565b60405180910390fd5b60018160040160003373ffffffffffffffffffffffffffffffffffffffff1673ffffffffffffffffffffffffffffffffffffffff16815260200190815260200160002060006101000a81548160ff021916908315150217905550806002016000815480929190611d899061385b565b91905055507f26b645fdecdf266f3abc5b7ae3e796ffd297febba8bd3a8ad49c68435190fc6984604051611dbd9190613602565b60405180910390a150505050565b6000600880549050905090565b600080600660008473ffffffffffffffffffffffffffffffffffffffff1673ffffffffffffffffffffffffffffffffffffffff16815260200190815260200160002054119050919050565b60025481565b60098181548110611e3957600080fd5b90600052602060002090600502016000915090508060000154908060010154908060030160009054906101000a900460ff16908060040154905084565b600060088281548110611e8c57611e8b613902565b5b9060005260206000209060070201905062093a808160060154611eaf919061378b565b81600601819055505050565b600080600080600080600080600060088a81548110611edd57611edc613902565b5b9060005260206000209060070201905060008160060154421115905060008260040160003373ffffffffffffffffffffffffffffffffffffffff1673ffffffffffffffffffffffffffffffffffffffff16815260200190815260200160002060009054906101000a900460ff1690508260010160009054906101000a900473ffffffffffffffffffffffffffffffffffffffff168360000154846002015485600301548660050160009054906101000a900460ff16876006015487879a509a509a509a509a509a509a509a50505050919395975091939597565b6000600660003373ffffffffffffffffffffffffffffffffffffffff1673ffffffffffffffffffffffffffffffffffffffff1681526020019081526020016000205411806120525750600060019054906101000a900473ffffffffffffffffffffffffffffffffffffffff1673ffffffffffffffffffffffffffffffffffffffff163373ffffffffffffffffffffffffffffffffffffffff16145b612091576040517f08c379a000000000000000000000000000000000000000000000000000000000815260040161208890613402565b60405180910390fd5b600160038111156120a5576120a46138d3565b5b60008054906101000a900460ff1660038111156120c5576120c46138d3565b5b14612105576040517f08c379a00000000000000000000000000000000000000000000000000000000081526004016120fc90613542565b60405180910390fd5b806000600381111561211a576121196138d3565b5b6008828154811061212e5761212d613902565b5b906000526020600020906007020160050160009054906101000a900460ff16600381111561215f5761215e6138d3565b5b1461219f576040517f08c379a0000000000000000000000000000000000000000000000000000000008152600401612196906135e2565b60405180910390fd5b81600881815481106121b4576121b3613902565b5b906000526020600020906007020160060154421115612208576040517f08c379a00000000000000000000000000000000000000000000000000000000081526004016121ff906134c2565b60405180910390fd5b60006008848154811061221e5761221d613902565b5b906000526020600020906007020190508060040160003373ffffffffffffffffffffffffffffffffffffffff1673ffffffffffffffffffffffffffffffffffffffff16815260200190815260200160002060009054906101000a900460ff16156122bd576040517f08c379a00000000000000000000000000000000000000000000000000000000081526004016122b490613562565b60405180910390fd5b60018160040160003373ffffffffffffffffffffffffffffffffffffffff1673ffffffffffffffffffffffffffffffffffffffff16815260200190815260200160002060006101000a81548160ff02191690831515021790555080600301600081548092919061232c9061385b565b91905055507f26b645fdecdf266f3abc5b7ae3e796ffd297febba8bd3a8ad49c68435190fc69846040516123609190613602565b60405180910390a150505050565b60008060008060008060008060019054906101000a900473ffffffffffffffffffffffffffffffffffffffff1660008054906101000a900460ff16600154600254600354600454600554965096509650965096509650965090919293949596565b6000600660003373ffffffffffffffffffffffffffffffffffffffff1673ffffffffffffffffffffffffffffffffffffffff1681526020019081526020016000205414801561246c5750600060019054906101000a900473ffffffffffffffffffffffffffffffffffffffff1673ffffffffffffffffffffffffffffffffffffffff163373ffffffffffffffffffffffffffffffffffffffff1614155b6124ab576040517f08c379a00000000000000000000000000000000000000000000000000000000081526004016124a290613442565b60405180910390fd5b600060038111156124bf576124be6138d3565b5b60008054906101000a900460ff1660038111156124df576124de6138d3565b5b1461251f576040517f08c379a0000000000000000000000000000000000000000000000000000000008152600401612516906135a2565b60405180910390fd5b600254341015612564576040517f08c379a000000000000000000000000000000000000000000000000000000000815260040161255b906133e2565b60405180910390fd5b34600660003373ffffffffffffffffffffffffffffffffffffffff1673ffffffffffffffffffffffffffffffffffffffff16815260200190815260200160002081905550600360008154809291906125bb9061385b565b91905055507f0673e22453ca22ab66c750388a377485c2d57a19fb171f1442f45e933d5e841860405160405180910390a1565b60055481565b6000806009838154811061260b5761260a613902565b5b906000526020600020906005020190508060020160003373ffffffffffffffffffffffffffffffffffffffff1673ffffffffffffffffffffffffffffffffffffffff16815260200190815260200160002060009054906101000a900460ff16915050919050565b60008060008060008060006009888154811061269157612690613902565b5b9060005260206000209060050201905060008160040154421115905060008260020160003373ffffffffffffffffffffffffffffffffffffffff1673ffffffffffffffffffffffffffffffffffffffff16815260200190815260200160002060009054906101000a900460ff169050826000015483600101548460030160009054906101000a900460ff168560040154858598509850985098509850985050505091939550919395565b6000600454905090565b6000806008838154811061275c5761275b613902565b5b906000526020600020906007020190508060040160003373ffffffffffffffffffffffffffffffffffffffff1673ffffffffffffffffffffffffffffffffffffffff16815260200190815260200160002060009054906101000a900460ff16915050919050565b6000600660003373ffffffffffffffffffffffffffffffffffffffff1673ffffffffffffffffffffffffffffffffffffffff16815260200190815260200160002054118061285e5750600060019054906101000a900473ffffffffffffffffffffffffffffffffffffffff1673ffffffffffffffffffffffffffffffffffffffff163373ffffffffffffffffffffffffffffffffffffffff16145b61289d576040517f08c379a000000000000000000000000000000000000000000000000000000000815260040161289490613402565b60405180910390fd5b600160038111156128b1576128b06138d3565b5b60008054906101000a900460ff1660038111156128d1576128d06138d3565b5b14612911576040517f08c379a000000000000000000000000000000000000000000000000000000000815260040161290890613542565b60405180910390fd5b8060006003811115612926576129256138d3565b5b6009828154811061293a57612939613902565b5b906000526020600020906005020160030160009054906101000a900460ff16600381111561296b5761296a6138d3565b5b146129ab576040517f08c379a00000000000000000000000000000000000000000000000000000000081526004016129a290613482565b60405180910390fd5b81600981815481106129c0576129bf613902565b5b906000526020600020906005020160040154421115612a14576040517f08c379a0000000000000000000000000000000000000000000000000000000008152600401612a0b90613582565b60405180910390fd5b600060098481548110612a2a57612a29613902565b5b906000526020600020906005020190508060020160003373ffffffffffffffffffffffffffffffffffffffff1673ffffffffffffffffffffffffffffffffffffffff16815260200190815260200160002060009054906101000a900460ff1615612ac9576040517f08c379a0000000000000000000000000000000000000000000000000000000008152600401612ac090613422565b60405180910390fd5b60018160020160003373ffffffffffffffffffffffffffffffffffffffff1673ffffffffffffffffffffffffffffffffffffffff16815260200190815260200160002060006101000a81548160ff021916908315150217905550806001016000815480929190612b389061385b565b919050555050505050565b6000600660003373ffffffffffffffffffffffffffffffffffffffff1673ffffffffffffffffffffffffffffffffffffffff168152602001908152602001600020541180612bde5750600060019054906101000a900473ffffffffffffffffffffffffffffffffffffffff1673ffffffffffffffffffffffffffffffffffffffff163373ffffffffffffffffffffffffffffffffffffffff16145b612c1d576040517f08c379a0000000000000000000000000000000000000000000000000000000008152600401612c1490613402565b60405180910390fd5b60016003811115612c3157612c306138d3565b5b60008054906101000a900460ff166003811115612c5157612c506138d3565b5b14612c91576040517f08c379a0000000000000000000000000000000000000000000000000000000008152600401612c8890613542565b60405180910390fd5b8060006003811115612ca657612ca56138d3565b5b60098281548110612cba57612cb9613902565b5b906000526020600020906005020160030160009054906101000a900460ff166003811115612ceb57612cea6138d3565b5b14612d2b576040517f08c379a0000000000000000000000000000000000000000000000000000000008152600401612d2290613482565b60405180910390fd5b8160098181548110612d4057612d3f613902565b5b906000526020600020906005020160040154421115612d94576040517f08c379a0000000000000000000000000000000000000000000000000000000008152600401612d8b90613582565b60405180910390fd5b600060098481548110612daa57612da9613902565b5b906000526020600020906005020190508060020160003373ffffffffffffffffffffffffffffffffffffffff1673ffffffffffffffffffffffffffffffffffffffff16815260200190815260200160002060009054906101000a900460ff1615612e49576040517f08c379a0000000000000000000000000000000000000000000000000000000008152600401612e4090613422565b60405180910390fd5b60018160020160003373ffffffffffffffffffffffffffffffffffffffff1673ffffffffffffffffffffffffffffffffffffffff16815260200190815260200160002060006101000a81548160ff021916908315150217905550806000016000815480929190612eb89061385b565b919050555050505050565b600081359050612ed281613db9565b92915050565b600081359050612ee781613dd0565b92915050565b600081359050612efc81613de7565b92915050565b600060208284031215612f1857612f17613931565b5b6000612f2684828501612ec3565b91505092915050565b600060208284031215612f4557612f44613931565b5b6000612f5384828501612ed8565b91505092915050565b600060208284031215612f7257612f71613931565b5b6000612f8084828501612eed565b91505092915050565b600080600060608486031215612fa257612fa1613931565b5b6000612fb086828701612eed565b9350506020612fc186828701612ec3565b9250506040612fd286828701612ed8565b9150509250925092565b612fe5816137bf565b82525050565b612ff4816137d1565b82525050565b613003816137dd565b82525050565b61301281613837565b82525050565b61302181613849565b82525050565b6000613034601f83613724565b915061303f82613936565b602082019050919050565b6000613057601783613724565b91506130628261395f565b602082019050919050565b600061307a603a83613724565b915061308582613988565b604082019050919050565b600061309d601b83613724565b91506130a8826139d7565b602082019050919050565b60006130c0602f83613724565b91506130cb82613a00565b604082019050919050565b60006130e3602b83613724565b91506130ee82613a4f565b604082019050919050565b6000613106601883613724565b915061311182613a9e565b602082019050919050565b6000613129602183613724565b915061313482613ac7565b604082019050919050565b600061314c601b83613724565b915061315782613b16565b602082019050919050565b600061316f601d83613724565b915061317a82613b3f565b602082019050919050565b6000613192602283613724565b915061319d82613b68565b604082019050919050565b60006131b5602283613724565b91506131c082613bb7565b604082019050919050565b60006131d8603183613724565b91506131e382613c06565b604082019050919050565b60006131fb602a83613724565b915061320682613c55565b604082019050919050565b600061321e602383613724565b915061322982613ca4565b604082019050919050565b6000613241602683613724565b915061324c82613cf3565b604082019050919050565b6000613264602283613724565b915061326f82613d42565b604082019050919050565b6132838161382d565b82525050565b600060208201905061329e6000830184612fdc565b92915050565b600060e0820190506132b9600083018a612fdc565b6132c66020830189613009565b6132d3604083018861327a565b6132e0606083018761327a565b6132ed608083018661327a565b6132fa60a083018561327a565b61330760c083018461327a565b98975050505050505050565b600061010082019050613329600083018b612fdc565b613336602083018a61327a565b613343604083018961327a565b613350606083018861327a565b61335d6080830187613018565b61336a60a083018661327a565b61337760c0830185612feb565b61338460e0830184612feb565b9998505050505050505050565b60006020820190506133a66000830184612feb565b92915050565b60006020820190506133c16000830184612ffa565b92915050565b60006020820190506133dc6000830184613009565b92915050565b600060208201905081810360008301526133fb81613027565b9050919050565b6000602082019050818103600083015261341b8161304a565b9050919050565b6000602082019050818103600083015261343b8161306d565b9050919050565b6000602082019050818103600083015261345b81613090565b9050919050565b6000602082019050818103600083015261347b816130b3565b9050919050565b6000602082019050818103600083015261349b816130d6565b9050919050565b600060208201905081810360008301526134bb816130f9565b9050919050565b600060208201905081810360008301526134db8161311c565b9050919050565b600060208201905081810360008301526134fb8161313f565b9050919050565b6000602082019050818103600083015261351b81613162565b9050919050565b6000602082019050818103600083015261353b81613185565b9050919050565b6000602082019050818103600083015261355b816131a8565b9050919050565b6000602082019050818103600083015261357b816131cb565b9050919050565b6000602082019050818103600083015261359b816131ee565b9050919050565b600060208201905081810360008301526135bb81613211565b9050919050565b600060208201905081810360008301526135db81613234565b9050919050565b600060208201905081810360008301526135fb81613257565b9050919050565b6000602082019050613617600083018461327a565b92915050565b600060c082019050613632600083018961327a565b61363f6020830188612fdc565b61364c604083018761327a565b613659606083018661327a565b6136666080830185613018565b61367360a083018461327a565b979650505050505050565b6000608082019050613693600083018761327a565b6136a0602083018661327a565b6136ad6040830185613018565b6136ba606083018461327a565b95945050505050565b600060c0820190506136d8600083018961327a565b6136e5602083018861327a565b6136f26040830187613018565b6136ff606083018661327a565b61370c6080830185612feb565b61371960a0830184612feb565b979650505050505050565b600082825260208201905092915050565b60006137408261382d565b915061374b8361382d565b9250827fffffffffffffffffffffffffffffffffffffffffffffffffffffffffffffffff038211156137805761377f6138a4565b5b828201905092915050565b60006137968261382d565b91506137a18361382d565b9250828210156137b4576137b36138a4565b5b828203905092915050565b60006137ca8261380d565b9050919050565b60008115159050919050565b6000819050919050565b60008190506137f582613d91565b919050565b600081905061380882613da5565b919050565b600073ffffffffffffffffffffffffffffffffffffffff82169050919050565b6000819050919050565b6000613842826137e7565b9050919050565b6000613854826137fa565b9050919050565b60006138668261382d565b91507fffffffffffffffffffffffffffffffffffffffffffffffffffffffffffffffff821415613899576138986138a4565b5b600182019050919050565b7f4e487b7100000000000000000000000000000000000000000000000000000000600052601160045260246000fd5b7f4e487b7100000000000000000000000000000000000000000000000000000000600052602160045260246000fd5b7f4e487b7100000000000000000000000000000000000000000000000000000000600052603260045260246000fd5b600080fd5b7f54686520636f6e747269627574696f6e20697320696e737566696369656e7400600082015250565b7f53656e646572206973206e6f742061206d656d6265722e000000000000000000600082015250565b7f5468652064657374727563742070726f706f73616c20686173206265656e206160008201527f6c726561647920766f746564206279207468652073656e646572000000000000602082015250565b7f53656e64657220697320616c72656164792061206d656d6265722e0000000000600082015250565b7f5468652064657374727563742070726f706f73616c206973207374696c6c206f60008201527f70656e20666f7220766f74696e672e0000000000000000000000000000000000602082015250565b7f5468652064657374727563742070726f706f73616c206973206e6f74206c6f6e60008201527f676572206163746976652e000000000000000000000000000000000000000000602082015250565b7f53656e646572206973206e6f7420746865206f776e65722e0000000000000000600082015250565b7f5468652070726f706f73616c20697320636c6f736520666f7220766f74696e6760008201527f2e00000000000000000000000000000000000000000000000000000000000000602082015250565b7f54686520666f756e64732061726520696e73756666696369656e740000000000600082015250565b7f5468652070726f706f73616c206973206e6f7420617070726f7665642e000000600082015250565b7f54686520636f6e747269627574696f6e732061726520696e737566666963696560008201527f6e74000000000000000000000000000000000000000000000000000000000000602082015250565b7f5468652063616d706169676e20737461747573206973206e6f7420616374697660008201527f652e000000000000000000000000000000000000000000000000000000000000602082015250565b7f5468652070726f706f73616c20686173206265656e20616c726561647920766f60008201527f746564206279207468652073656e646572000000000000000000000000000000602082015250565b7f5468652064657374727563742070726f706f73616c20697320636c6f7365206660008201527f6f7220766f74696e672e00000000000000000000000000000000000000000000602082015250565b7f5468652063616d706169676e20737461747573206973206e6f7420637265617460008201527f65642e0000000000000000000000000000000000000000000000000000000000602082015250565b7f5468652070726f706f73616c206973207374696c6c206f70656e20666f72207660008201527f6f74696e672e0000000000000000000000000000000000000000000000000000602082015250565b7f5468652070726f706f73616c206973206e6f74206c6f6e67657220616374697660008201527f652e000000000000000000000000000000000000000000000000000000000000602082015250565b60048110613da257613da16138d3565b5b50565b60048110613db657613db56138d3565b5b50565b613dc2816137bf565b8114613dcd57600080fd5b50565b613dd9816137dd565b8114613de457600080fd5b50565b613df08161382d565b8114613dfb57600080fd5b5056fea2646970667358221220fb80abc4079a7680e8d8fcc69ada0039c47f14c9bc66b6f0577d080637cfabdf64736f6c63430008060033",
  "immutableReferences": {},
  "source": "//SPDX-License-Identifier: GPL-3.0-only\npragma solidity ^0.8.0;\n\nimport \"./CrowdfundingCampaign.sol\";\n\ncontract CrowdfundingCampaignDemo is CrowdfundingCampaign {\n\n    /** @dev Constructor.\n     *  @param _minimunContribution minimum contribution in wei that a person has to make to become a member.\n     *  @param _goal goal in wei that the proyect has to reach to be succesfull.\n     *  @param _ipfshash The url hash of the campaign data previusly stored in IPFS.\n    **/\n    constructor(uint _minimunContribution, uint _goal, bytes32 _ipfshash)\n    CrowdfundingCampaign(_minimunContribution, _goal, _ipfshash) {\n\n    }\n\n    /** @dev Allow to change the proposal limit date to seven days earlier to allow have close proposals in the demo.\n     *  @param _index index of the proposal we want to change the limit date.\n     */\n    function changeLimitProposal(uint _index) public {\n\n        Proposal storage proposal = proposals[_index];\n        proposal.limitTime = proposal.limitTime - 604800;        \n    }\n\n     /** @dev Allow to change the proposal limit date to seven days earlier to allow have close proposals in the demo.\n     *  @param _index index of the proposal we want to change the limit date.\n     */\n    function changeLimitDestructProposal(uint _index) public {\n\n        DestructProposal storage dProposal = destructProposals[_index];\n        dProposal.limitTime = dProposal.limitTime - 604800;        \n    }\n\n\n}",
  "sourcePath": "/home/tati/Desktop/personal/Tesina/semideas-crowdfunding/contracts/CrowdfundingCampaignDemo.sol",
  "compiler": {
    "name": "solc",
    "version": "0.8.6+commit.11564f7e.Emscripten.clang"
  },
  "schemaVersion": "3.4.1",
  "updatedAt": "2021-07-09T16:31:23.057Z",
  "devdoc": {
    "kind": "dev",
    "methods": {
      "approveProposal(uint256)": {
        "details": "Allow only members to approve an active proposal that they haven't voted before.",
        "params": {
          "_index": "index of the proposal the member wants to approve."
        }
      },
      "aproveDestructProposal(uint256)": {
        "details": "Allow only members to approve an active destruct proposal that they haven't voted before.",
        "params": {
          "_index": "index of the destruct proposal the member wants to approve."
        }
      },
      "changeLimitDestructProposal(uint256)": {
        "details": "Allow to change the proposal limit date to seven days earlier to allow have close proposals in the demo.",
        "params": {
          "_index": "index of the proposal we want to change the limit date."
        }
      },
      "changeLimitProposal(uint256)": {
        "details": "Allow to change the proposal limit date to seven days earlier to allow have close proposals in the demo.",
        "params": {
          "_index": "index of the proposal we want to change the limit date."
        }
      },
      "closeDestructProposal(uint256)": {
        "details": "Allow only members to close an active proposal that already has its voting time over.",
        "params": {
          "_index": "index of the proposal the member wants to approve."
        }
      },
      "closeProposal(uint256)": {
        "details": "Allow only members to close an active proposal that already has its voting time over.",
        "params": {
          "_index": "index of the proposal the member wants to approve."
        }
      },
      "constructor": {
        "details": "Constructor.",
        "params": {
          "_goal": "goal in wei that the proyect has to reach to be succesfull.",
          "_ipfshash": "The url hash of the campaign data previusly stored in IPFS.*",
          "_minimunContribution": "minimum contribution in wei that a person has to make to become a member."
        }
      },
      "contribute()": {
        "details": "Allow not members to contribute with the campaign and be a member of it."
      },
      "createDestructProposal(bytes32)": {
        "details": "Allow only members to create a new proposal to finish de proyect and get the founds back.",
        "params": {
          "_ipfshash": "url hash of the destruct proposal data (description) previusly stored in IPFS."
        }
      },
      "createProposal(uint256,address,bytes32)": {
        "details": "Allow only owner to create a new proposal to get more founds.",
        "params": {
          "_ipfshash": "url hash of the proposal data (description and pictures) previusly stored in IPFS.",
          "_recipient": "address where the founds are going to be after withdraw them.",
          "_value": "founds in wei that the owner want to withdraw."
        }
      },
      "disapproveDestructProposal(uint256)": {
        "details": "Allow only members to disapprove an active destruct proposal that they haven't voted before.",
        "params": {
          "_index": "index of the destruct proposal the member wants to disapprove."
        }
      },
      "disapproveProposal(uint256)": {
        "details": "Allow only members to disapprove an active proposal that they haven't voted before.",
        "params": {
          "_index": "index of the proposal the member wants to disapprove."
        }
      },
      "getCampaignInfo()": {
        "details": "Function to get the data of the campaign"
      },
      "getDestructProposal(uint256)": {
        "details": "Function to get the data of destruct proposal.",
        "params": {
          "_index": "index of the destruct proposal to return"
        }
      },
      "getDestructProposalsCount()": {
        "details": "Function to get the total number of destruct proposals."
      },
      "getFinalContributions()": {
        "details": "Function to get the finalContributions of the campaign."
      },
      "getProposal(uint256)": {
        "details": "Function to get the data of a proposal.",
        "params": {
          "_index": "index of the proposal to return"
        }
      },
      "getProposalsCount()": {
        "details": "Function to get the total number of proposals."
      },
      "getRemainingContributions()": {
        "details": "Function to get the remainingContributions of the campaign."
      },
      "getStatus()": {
        "details": "Function to get the actual status of the campaign."
      },
      "hasVotedDestructProposal(uint256)": {
        "details": "Function to know if a member has already vot a destruct proposal.",
        "params": {
          "_index": "index of the proposal"
        }
      },
      "hasVotedProposal(uint256)": {
        "details": "Function to know if a member has already vot a proposal.",
        "params": {
          "_index": "index of the proposal"
        }
      },
      "isMember(address)": {
        "details": "Function to return if someone is member."
      },
      "saveProgressUpdate(bytes32)": {
        "details": "Allow only owner to save a new progress Update data ipfs hash.",
        "params": {
          "_ipfshash": "url hash of the progress update data (description and pictures) previusly stored in IPFS."
        }
      },
      "setActive()": {
        "details": "Allow only owner to change the status of the cCampaign from CREATED to ACTIVE."
      },
      "withdraw(uint256)": {
        "details": "Allow only members to close an active proposal that already has its voting time over.",
        "params": {
          "_index": "index of the proposal the member wants to approve."
        }
      }
    },
    "version": 1
  },
  "userdoc": {
    "kind": "user",
    "methods": {},
    "version": 1
  }
}